{
  "transactions": [
    {
      "hash": "0x31c0d4e85b3fd46b1836773e9b2e94f53b2ad55837be03310f6deb4e2a74ad8e",
      "transactionType": "CREATE",
      "contractName": "TokenFactory",
      "contractAddress": "0x39bed14767138aba87d1f07b64088e1042239c59",
      "function": null,
      "arguments": null,
      "transaction": {
        "from": "0x3b4f0135465d444a5bd06ab90fc59b73916c85f5",
        "gas": "0x10fbcb",
        "value": "0x0",
        "input": "0x60808060405234601557610e83908161001a8239f35b5f80fdfe60806040526004361015610011575f80fd5b5f3560e01c63edd8112314610024575f80fd5b346101365760a03660031901126101365760043567ffffffffffffffff81116101365761005590369060040161013a565b60243567ffffffffffffffff81116101365761007590369060040161013a565b90604435906064359060ff821682036101365760843592604051610c3b8082019082821067ffffffffffffffff8311176101225782916100c09161021384398787868b8933956101c6565b03905ff09485156101175761010c7faf5156078ffc09d447c818754d2e4310cc3f95e36cb33f85723785b122371ed59360209760018060a01b03169687966040519586953394876101c6565b0390a2604051908152f35b6040513d5f823e3d90fd5b634e487b7160e01b5f52604160045260245ffd5b5f80fd5b81601f820112156101365780359067ffffffffffffffff82116101225760405192601f8301601f19908116603f0116840167ffffffffffffffff811185821017610122576040528284526020838301011161013657815f926020809301838601378301015290565b805180835260209291819084018484015e5f828201840152601f01601f1916010190565b9491936101f560a0956101e760ff949a99969a60c08a5260c08a01906101a2565b9088820360208a01526101a2565b9760408701521660608501526080840152600180831b031691015256fe60806040523461041f57610c3b8038038061001981610423565b92833981019060c08183031261041f5780516001600160401b03811161041f5782610045918301610448565b602082015190926001600160401b03821161041f57610065918301610448565b60408201519160608101519160ff831680930361041f57608082015160a0909201516001600160a01b038116959086900361041f578051906001600160401b0382116103225760035490600182811c92168015610415575b60208310146103045781601f8493116103a7575b50602090601f8311600114610341575f92610336575b50508160011b915f199060031b1c1916176003555b8051906001600160401b0382116103225760045490600182811c92168015610318575b60208310146103045781601f849311610296575b50602090601f8311600114610230575f92610225575b50508160011b915f199060031b1c1916176004555b6005805460ff191683179055600780546001600160a01b03191685179055600655604d81116101fe57600a0a908181029181830414901517156101fe57811561021257600254908082018092116101fe5760207fddf252ad1be2c89b69c2b068fc378daa952ba7f163c4a11628f55a4df523b3ef915f9360025584845283825260408420818154019055604051908152a36040516107a1908161049a8239f35b634e487b7160e01b5f52601160045260245ffd5b63ec442f0560e01b5f525f60045260245ffd5b015190505f80610149565b60045f9081528281209350601f198516905b81811061027e5750908460019594939210610266575b505050811b0160045561015e565b01515f1960f88460031b161c191690555f8080610258565b92936020600181928786015181550195019301610242565b60045f529091507f8a35acfbc15ff81a39ae7d344fd709f28e8600b4aa8c65c6b64bfe7fe36bd19b601f840160051c810191602085106102fa575b90601f859493920160051c01905b8181106102ec5750610133565b5f81558493506001016102df565b90915081906102d1565b634e487b7160e01b5f52602260045260245ffd5b91607f169161011f565b634e487b7160e01b5f52604160045260245ffd5b015190505f806100e7565b60035f9081528281209350601f198516905b81811061038f5750908460019594939210610377575b505050811b016003556100fc565b01515f1960f88460031b161c191690555f8080610369565b92936020600181928786015181550195019301610353565b60035f529091507fc2575a0e9e593c00f959f8c92f12db2869c3395a3b0502d05e2516446f71f85b601f840160051c8101916020851061040b575b90601f859493920160051c01905b8181106103fd57506100d1565b5f81558493506001016103f0565b90915081906103e2565b91607f16916100bd565b5f80fd5b6040519190601f01601f191682016001600160401b0381118382101761032257604052565b81601f8201121561041f578051906001600160401b03821161032257610477601f8301601f1916602001610423565b928284526020838301011161041f57815f9260208093018386015e830101529056fe6080806040526004361015610012575f80fd5b5f3560e01c90816306fdde031461055757508063095ea7b3146104d557806318160ddd146104b857806323b872dd146103d9578063313ce567146103b957806340c10f191461030057806370a08231146102c95780638da5cb5b146102a157806395d89b4114610186578063a035b1fe146100b6578063a9059cbb14610155578063d03a404514610127578063dd62ed3e146100d75763e1aa6036146100b6575f80fd5b346100d3575f3660031901126100d3576020600654604051908152f35b5f80fd5b346100d35760403660031901126100d3576100f0610650565b6100f8610666565b6001600160a01b039182165f908152600160209081526040808320949093168252928352819020549051908152f35b346100d35760203660031901126100d35761014d60018060a01b0360075416331461067c565b600435600655005b346100d35760403660031901126100d35761017b610171610650565b60243590336106c1565b602060405160018152f35b346100d3575f3660031901126100d3576040515f6004548060011c90600181168015610297575b602083108114610283578285529081156102675750600114610212575b50819003601f01601f191681019067ffffffffffffffff8211818310176101fe576101fa82918260405282610626565b0390f35b634e487b7160e01b5f52604160045260245ffd5b905060045f527f8a35acfbc15ff81a39ae7d344fd709f28e8600b4aa8c65c6b64bfe7fe36bd19b5f905b828210610251575060209150820101826101ca565b600181602092548385880101520191019061023c565b90506020925060ff191682840152151560051b820101826101ca565b634e487b7160e01b5f52602260045260245ffd5b91607f16916101ad565b346100d3575f3660031901126100d3576007546040516001600160a01b039091168152602090f35b346100d35760203660031901126100d3576001600160a01b036102ea610650565b165f525f602052602060405f2054604051908152f35b346100d35760403660031901126100d357610319610650565b6024359061033260018060a01b0360075416331461067c565b6001600160a01b03169081156103a657600254908082018092116103925760207fddf252ad1be2c89b69c2b068fc378daa952ba7f163c4a11628f55a4df523b3ef915f9360025584845283825260408420818154019055604051908152a3005b634e487b7160e01b5f52601160045260245ffd5b63ec442f0560e01b5f525f60045260245ffd5b346100d3575f3660031901126100d357602060ff60055416604051908152f35b346100d35760603660031901126100d3576103f2610650565b6103fa610666565b6001600160a01b0382165f818152600160209081526040808320338452909152902054909260443592915f198110610438575b5061017b93506106c1565b83811061049d57841561048a5733156104775761017b945f52600160205260405f2060018060a01b0333165f526020528360405f20910390558461042d565b634a1406b160e11b5f525f60045260245ffd5b63e602df0560e01b5f525f60045260245ffd5b8390637dc7a0d960e11b5f523360045260245260445260645ffd5b346100d3575f3660031901126100d3576020600254604051908152f35b346100d35760403660031901126100d3576104ee610650565b60243590331561048a576001600160a01b031690811561047757335f52600160205260405f20825f526020528060405f20556040519081527f8c5be1e5ebec7d5bd14f71427d1e84f3dd0314c0f7b2291e5b200ac8c7c3b92560203392a3602060405160018152f35b346100d3575f3660031901126100d3575f6003548060011c9060018116801561061c575b6020831081146102835782855290811561026757506001146105c75750819003601f01601f191681019067ffffffffffffffff8211818310176101fe576101fa82918260405282610626565b905060035f527fc2575a0e9e593c00f959f8c92f12db2869c3395a3b0502d05e2516446f71f85b5f905b828210610606575060209150820101826101ca565b60018160209254838588010152019101906105f1565b91607f169161057b565b602060409281835280519182918282860152018484015e5f828201840152601f01601f1916010190565b600435906001600160a01b03821682036100d357565b602435906001600160a01b03821682036100d357565b1561068357565b60405162461bcd60e51b81526020600482015260166024820152752737ba103a34329031b7b73a3930b1ba1037bbb732b960511b6044820152606490fd5b6001600160a01b0316908115610758576001600160a01b03169182156103a657815f525f60205260405f205481811061073f57817fddf252ad1be2c89b69c2b068fc378daa952ba7f163c4a11628f55a4df523b3ef92602092855f525f84520360405f2055845f525f825260405f20818154019055604051908152a3565b8263391434e360e21b5f5260045260245260445260645ffd5b634b637e8f60e11b5f525f60045260245ffdfea2646970667358221220f69474dd3d7746b4ae0b9a455657e01164ee254e2cbe174fe8ed6ec899bb046264736f6c634300081c0033a2646970667358221220e682dd72a8253a61c9e4e6d3b6574e98f1fa285fe7f7557818352c49c9da423f64736f6c634300081c0033",
        "nonce": "0x9e",
        "chainId": "0xdede"
      },
      "additionalContracts": [],
      "isFixedGasLimit": false
    },
    {
      "hash": "0x574ad5239be782ef25f6cf0107765a933b5348f5460eebdf7353c75a86c7ecc7",
      "transactionType": "CREATE",
      "contractName": "Core",
      "contractAddress": "0xc090da280082859b5744c8f3b27f1ee566d1675e",
      "function": null,
      "arguments": null,
      "transaction": {
        "from": "0x3b4f0135465d444a5bd06ab90fc59b73916c85f5",
        "gas": "0x94276",
        "value": "0x0",
        "input": "0x60808060405234601557610778908161001a8239f35b5f80fdfe60806040526004361015610011575f80fd5b5f3560e01c806356688700146104c0578063a201ccf6146103be578063a747b93b14610387578063b8c876b1146103875763df791e5014610050575f80fd5b34610383576060366003190112610383576100696105b2565b6024356001600160a01b038116919082900361038357604435906001600160a01b03168015158061037a575b1561033d5781156100a681156105c8565b815f525f60205260405f2054151580610327575b6100c3906106ac565b5f8281526020819052604080822054868352912054918115158061031e575b156102e6576103e58502908582046103e51417156102d2576103e890048281029281840414811517156102d2576101189161069f565b9081156102be570491821561026b57815f525f60205260405f2061013d82825461069f565b9055835f525f60205260405f206101558482546106f1565b90556040516323b872dd60e01b8152336004820152306024820152604481018290526020816064815f875af1801561024757610198915f91610252575b506106fe565b60405163a9059cbb60e01b815233600482015260248101849052936020856044815f855af1948515610247576020956101d7915f9161021a57506106fe565b6040519283528483015260408201528160608201527fcd3829a3813dc3cdd188fd3d01dcf3268c16be2fdd2dd21d0665418816e4606260803392a2604051908152f35b61023a9150873d8911610240575b6102328183610613565b810190610649565b5f610192565b503d610228565b6040513d5f823e3d90fd5b61023a915060203d602011610240576102328183610613565b60405162461bcd60e51b815260206004820152602560248201527f5377617020616d6f756e74206d7573742062652067726561746572207468616e604482015264207a65726f60d81b6064820152608490fd5b634e487b7160e01b5f52601260045260245ffd5b634e487b7160e01b5f52601160045260245ffd5b60405162461bcd60e51b815260206004820152601060248201526f496e76616c696420726573657276657360801b6044820152606490fd5b508215156100e2565b505f8481526020819052604090205415156100ba565b60405162461bcd60e51b8152602060048201526015602482015274496e76616c696420746f6b656e206164647265737360581b6044820152606490fd5b50821515610095565b5f80fd5b34610383576020366003190112610383576001600160a01b036103a86105b2565b165f525f602052602060405f2054604051908152f35b34610383576040366003190112610383576103d76105b2565b60243560018060a01b03821690815f525f6020526103fb8160405f205410156106ac565b815f525f60205260405f206104118282546106f1565b905560405163a9059cbb60e01b81523360048201526024810182905291602090839060449082905f905af19081156102475761047961049c927f983e86fda8e7b1e2eae380201830eaf1cac55772e8e39583da349865e8178863945f916104a1575b50610661565b604080516001600160a01b03909516855260208501919091523393918291820190565b0390a2005b6104ba915060203d602011610240576102328183610613565b86610473565b34610383576040366003190112610383576104d96105b2565b6024356104e78115156105c8565b6040516323b872dd60e01b815233600482015230602482015260448101829052906001600160a01b038316906020836064815f865af19182156102475761055961049c937f9d278c56ba6dc86a12eefe6b43112bd6e06648eb4ec0b950ee2d783d40e2acb4955f916105935750610661565b5f525f60205260405f2061056e82825461069f565b9055604080516001600160a01b03909516855260208501919091523393918291820190565b6105ac915060203d602011610240576102328183610613565b87610473565b600435906001600160a01b038216820361038357565b156105cf57565b606460405162461bcd60e51b815260206004820152602060248201527f416d6f756e74206d7573742062652067726561746572207468616e207a65726f6044820152fd5b90601f8019910116810190811067ffffffffffffffff82111761063557604052565b634e487b7160e01b5f52604160045260245ffd5b90816020910312610383575180151581036103835790565b1561066857565b60405162461bcd60e51b815260206004820152600f60248201526e151c985b9cd9995c8819985a5b1959608a1b6044820152606490fd5b919082018092116102d257565b156106b357565b60405162461bcd60e51b8152602060048201526016602482015275496e73756666696369656e74206c697175696469747960501b6044820152606490fd5b919082039182116102d257565b1561070557565b60405162461bcd60e51b8152602060048201526015602482015274151bdad95b881d1c985b9cd9995c8819985a5b1959605a1b6044820152606490fdfea264697066735822122024398d0caa7b1af3e737a3e71b2768b14a9c86ffb9a37a7d0849ffc11cde81e564736f6c634300081c0033",
        "nonce": "0x9f",
        "chainId": "0xdede"
      },
      "additionalContracts": [],
      "isFixedGasLimit": false
    },
    {
      "hash": "0x618ee43714d52c053b3b38c2e4bca39d22bf5892b7b7c061fea494b46821ba91",
      "transactionType": "CALL",
      "contractName": "TokenFactory",
      "contractAddress": "0x39bed14767138aba87d1f07b64088e1042239c59",
      "function": "createToken(string,string,uint256,uint8,uint256)",
      "arguments": [
        "SONIC",
        "S",
        "1000000000000000000000000",
        "18",
        "1000000000000000000"
      ],
      "transaction": {
        "from": "0x3b4f0135465d444a5bd06ab90fc59b73916c85f5",
        "to": "0x39bed14767138aba87d1f07b64088e1042239c59",
        "gas": "0xcddd4",
        "value": "0x0",
        "input": "0xedd8112300000000000000000000000000000000000000000000000000000000000000a000000000000000000000000000000000000000000000000000000000000000e000000000000000000000000000000000000000000000d3c21bcecceda100000000000000000000000000000000000000000000000000000000000000000000120000000000000000000000000000000000000000000000000de0b6b3a76400000000000000000000000000000000000000000000000000000000000000000005534f4e494300000000000000000000000000000000000000000000000000000000000000000000000000000000000000000000000000000000000000000000015300000000000000000000000000000000000000000000000000000000000000",
        "nonce": "0xa0",
        "chainId": "0xdede"
      },
      "additionalContracts": [
        {
          "transactionType": "CREATE",
          "address": "0x8238654830969a21adeb1d4c3d8d9b72d1dfbd7b",
          "initCode": "0x60806040523461041f57610c3b8038038061001981610423565b92833981019060c08183031261041f5780516001600160401b03811161041f5782610045918301610448565b602082015190926001600160401b03821161041f57610065918301610448565b60408201519160608101519160ff831680930361041f57608082015160a0909201516001600160a01b038116959086900361041f578051906001600160401b0382116103225760035490600182811c92168015610415575b60208310146103045781601f8493116103a7575b50602090601f8311600114610341575f92610336575b50508160011b915f199060031b1c1916176003555b8051906001600160401b0382116103225760045490600182811c92168015610318575b60208310146103045781601f849311610296575b50602090601f8311600114610230575f92610225575b50508160011b915f199060031b1c1916176004555b6005805460ff191683179055600780546001600160a01b03191685179055600655604d81116101fe57600a0a908181029181830414901517156101fe57811561021257600254908082018092116101fe5760207fddf252ad1be2c89b69c2b068fc378daa952ba7f163c4a11628f55a4df523b3ef915f9360025584845283825260408420818154019055604051908152a36040516107a1908161049a8239f35b634e487b7160e01b5f52601160045260245ffd5b63ec442f0560e01b5f525f60045260245ffd5b015190505f80610149565b60045f9081528281209350601f198516905b81811061027e5750908460019594939210610266575b505050811b0160045561015e565b01515f1960f88460031b161c191690555f8080610258565b92936020600181928786015181550195019301610242565b60045f529091507f8a35acfbc15ff81a39ae7d344fd709f28e8600b4aa8c65c6b64bfe7fe36bd19b601f840160051c810191602085106102fa575b90601f859493920160051c01905b8181106102ec5750610133565b5f81558493506001016102df565b90915081906102d1565b634e487b7160e01b5f52602260045260245ffd5b91607f169161011f565b634e487b7160e01b5f52604160045260245ffd5b015190505f806100e7565b60035f9081528281209350601f198516905b81811061038f5750908460019594939210610377575b505050811b016003556100fc565b01515f1960f88460031b161c191690555f8080610369565b92936020600181928786015181550195019301610353565b60035f529091507fc2575a0e9e593c00f959f8c92f12db2869c3395a3b0502d05e2516446f71f85b601f840160051c8101916020851061040b575b90601f859493920160051c01905b8181106103fd57506100d1565b5f81558493506001016103f0565b90915081906103e2565b91607f16916100bd565b5f80fd5b6040519190601f01601f191682016001600160401b0381118382101761032257604052565b81601f8201121561041f578051906001600160401b03821161032257610477601f8301601f1916602001610423565b928284526020838301011161041f57815f9260208093018386015e830101529056fe6080806040526004361015610012575f80fd5b5f3560e01c90816306fdde031461055757508063095ea7b3146104d557806318160ddd146104b857806323b872dd146103d9578063313ce567146103b957806340c10f191461030057806370a08231146102c95780638da5cb5b146102a157806395d89b4114610186578063a035b1fe146100b6578063a9059cbb14610155578063d03a404514610127578063dd62ed3e146100d75763e1aa6036146100b6575f80fd5b346100d3575f3660031901126100d3576020600654604051908152f35b5f80fd5b346100d35760403660031901126100d3576100f0610650565b6100f8610666565b6001600160a01b039182165f908152600160209081526040808320949093168252928352819020549051908152f35b346100d35760203660031901126100d35761014d60018060a01b0360075416331461067c565b600435600655005b346100d35760403660031901126100d35761017b610171610650565b60243590336106c1565b602060405160018152f35b346100d3575f3660031901126100d3576040515f6004548060011c90600181168015610297575b602083108114610283578285529081156102675750600114610212575b50819003601f01601f191681019067ffffffffffffffff8211818310176101fe576101fa82918260405282610626565b0390f35b634e487b7160e01b5f52604160045260245ffd5b905060045f527f8a35acfbc15ff81a39ae7d344fd709f28e8600b4aa8c65c6b64bfe7fe36bd19b5f905b828210610251575060209150820101826101ca565b600181602092548385880101520191019061023c565b90506020925060ff191682840152151560051b820101826101ca565b634e487b7160e01b5f52602260045260245ffd5b91607f16916101ad565b346100d3575f3660031901126100d3576007546040516001600160a01b039091168152602090f35b346100d35760203660031901126100d3576001600160a01b036102ea610650565b165f525f602052602060405f2054604051908152f35b346100d35760403660031901126100d357610319610650565b6024359061033260018060a01b0360075416331461067c565b6001600160a01b03169081156103a657600254908082018092116103925760207fddf252ad1be2c89b69c2b068fc378daa952ba7f163c4a11628f55a4df523b3ef915f9360025584845283825260408420818154019055604051908152a3005b634e487b7160e01b5f52601160045260245ffd5b63ec442f0560e01b5f525f60045260245ffd5b346100d3575f3660031901126100d357602060ff60055416604051908152f35b346100d35760603660031901126100d3576103f2610650565b6103fa610666565b6001600160a01b0382165f818152600160209081526040808320338452909152902054909260443592915f198110610438575b5061017b93506106c1565b83811061049d57841561048a5733156104775761017b945f52600160205260405f2060018060a01b0333165f526020528360405f20910390558461042d565b634a1406b160e11b5f525f60045260245ffd5b63e602df0560e01b5f525f60045260245ffd5b8390637dc7a0d960e11b5f523360045260245260445260645ffd5b346100d3575f3660031901126100d3576020600254604051908152f35b346100d35760403660031901126100d3576104ee610650565b60243590331561048a576001600160a01b031690811561047757335f52600160205260405f20825f526020528060405f20556040519081527f8c5be1e5ebec7d5bd14f71427d1e84f3dd0314c0f7b2291e5b200ac8c7c3b92560203392a3602060405160018152f35b346100d3575f3660031901126100d3575f6003548060011c9060018116801561061c575b6020831081146102835782855290811561026757506001146105c75750819003601f01601f191681019067ffffffffffffffff8211818310176101fe576101fa82918260405282610626565b905060035f527fc2575a0e9e593c00f959f8c92f12db2869c3395a3b0502d05e2516446f71f85b5f905b828210610606575060209150820101826101ca565b60018160209254838588010152019101906105f1565b91607f169161057b565b602060409281835280519182918282860152018484015e5f828201840152601f01601f1916010190565b600435906001600160a01b03821682036100d357565b602435906001600160a01b03821682036100d357565b1561068357565b60405162461bcd60e51b81526020600482015260166024820152752737ba103a34329031b7b73a3930b1ba1037bbb732b960511b6044820152606490fd5b6001600160a01b0316908115610758576001600160a01b03169182156103a657815f525f60205260405f205481811061073f57817fddf252ad1be2c89b69c2b068fc378daa952ba7f163c4a11628f55a4df523b3ef92602092855f525f84520360405f2055845f525f825260405f20818154019055604051908152a3565b8263391434e360e21b5f5260045260245260445260645ffd5b634b637e8f60e11b5f525f60045260245ffdfea2646970667358221220f69474dd3d7746b4ae0b9a455657e01164ee254e2cbe174fe8ed6ec899bb046264736f6c634300081c003300000000000000000000000000000000000000000000000000000000000000c0000000000000000000000000000000000000000000000000000000000000010000000000000000000000000000000000000000000000d3c21bcecceda100000000000000000000000000000000000000000000000000000000000000000000120000000000000000000000000000000000000000000000000de0b6b3a76400000000000000000000000000003b4f0135465d444a5bd06ab90fc59b73916c85f50000000000000000000000000000000000000000000000000000000000000005534f4e494300000000000000000000000000000000000000000000000000000000000000000000000000000000000000000000000000000000000000000000015300000000000000000000000000000000000000000000000000000000000000"
        }
      ],
      "isFixedGasLimit": false
    },
    {
      "hash": "0x51cdc4c68707a2b1a9fb8901497d720920901f0bc738ae156ae29cbf82fb5ba1",
      "transactionType": "CALL",
      "contractName": "MockToken",
      "contractAddress": "0x8238654830969a21adeb1d4c3d8d9b72d1dfbd7b",
      "function": "approve(address,uint256)",
      "arguments": [
        "0xC090Da280082859B5744C8f3b27f1eE566d1675e",
        "1000000000000000000000000"
      ],
      "transaction": {
        "from": "0x3b4f0135465d444a5bd06ab90fc59b73916c85f5",
        "to": "0x8238654830969a21adeb1d4c3d8d9b72d1dfbd7b",
        "gas": "0xf7f5",
        "value": "0x0",
        "input": "0x095ea7b3000000000000000000000000c090da280082859b5744c8f3b27f1ee566d1675e00000000000000000000000000000000000000000000d3c21bcecceda1000000",
        "nonce": "0xa1",
        "chainId": "0xdede"
      },
      "additionalContracts": [],
      "isFixedGasLimit": false
    },
    {
      "hash": "0x7f2823404b25cfad345630795ca64ee05069ca7b54b141e829ed41ce6991a82b",
      "transactionType": "CALL",
      "contractName": "Core",
      "contractAddress": "0xc090da280082859b5744c8f3b27f1ee566d1675e",
      "function": "addLiquidity(address,uint256)",
      "arguments": [
        "0x8238654830969A21adeB1D4c3d8D9b72d1dFbd7B",
        "1000000000000000000000000"
      ],
      "transaction": {
        "from": "0x3b4f0135465d444a5bd06ab90fc59b73916c85f5",
        "to": "0xc090da280082859b5744c8f3b27f1ee566d1675e",
        "gas": "0x1c40e",
        "value": "0x0",
        "input": "0x566887000000000000000000000000008238654830969a21adeb1d4c3d8d9b72d1dfbd7b00000000000000000000000000000000000000000000d3c21bcecceda1000000",
        "nonce": "0xa2",
        "chainId": "0xdede"
      },
      "additionalContracts": [],
      "isFixedGasLimit": false
    },
    {
      "hash": "0x59bb51756982c79f6f8bb053611f36632d1f9ab3930a8d88c3cdb03dacfe3ebb",
      "transactionType": "CALL",
      "contractName": "TokenFactory",
      "contractAddress": "0x39bed14767138aba87d1f07b64088e1042239c59",
      "function": "createToken(string,string,uint256,uint8,uint256)",
      "arguments": [
        "Ethereum",
        "ETH",
        "1000000000000000000000000",
        "18",
        "2719000000000000000000"
      ],
      "transaction": {
        "from": "0x3b4f0135465d444a5bd06ab90fc59b73916c85f5",
        "to": "0x39bed14767138aba87d1f07b64088e1042239c59",
        "gas": "0xcde38",
        "value": "0x0",
        "input": "0xedd8112300000000000000000000000000000000000000000000000000000000000000a000000000000000000000000000000000000000000000000000000000000000e000000000000000000000000000000000000000000000d3c21bcecceda1000000000000000000000000000000000000000000000000000000000000000000001200000000000000000000000000000000000000000000009365b47e1edf1c00000000000000000000000000000000000000000000000000000000000000000008457468657265756d00000000000000000000000000000000000000000000000000000000000000000000000000000000000000000000000000000000000000034554480000000000000000000000000000000000000000000000000000000000",
        "nonce": "0xa3",
        "chainId": "0xdede"
      },
      "additionalContracts": [
        {
          "transactionType": "CREATE",
          "address": "0x14ca5409727f55b9b9e2ca356c8489a40441b16c",
          "initCode": "0x60806040523461041f57610c3b8038038061001981610423565b92833981019060c08183031261041f5780516001600160401b03811161041f5782610045918301610448565b602082015190926001600160401b03821161041f57610065918301610448565b60408201519160608101519160ff831680930361041f57608082015160a0909201516001600160a01b038116959086900361041f578051906001600160401b0382116103225760035490600182811c92168015610415575b60208310146103045781601f8493116103a7575b50602090601f8311600114610341575f92610336575b50508160011b915f199060031b1c1916176003555b8051906001600160401b0382116103225760045490600182811c92168015610318575b60208310146103045781601f849311610296575b50602090601f8311600114610230575f92610225575b50508160011b915f199060031b1c1916176004555b6005805460ff191683179055600780546001600160a01b03191685179055600655604d81116101fe57600a0a908181029181830414901517156101fe57811561021257600254908082018092116101fe5760207fddf252ad1be2c89b69c2b068fc378daa952ba7f163c4a11628f55a4df523b3ef915f9360025584845283825260408420818154019055604051908152a36040516107a1908161049a8239f35b634e487b7160e01b5f52601160045260245ffd5b63ec442f0560e01b5f525f60045260245ffd5b015190505f80610149565b60045f9081528281209350601f198516905b81811061027e5750908460019594939210610266575b505050811b0160045561015e565b01515f1960f88460031b161c191690555f8080610258565b92936020600181928786015181550195019301610242565b60045f529091507f8a35acfbc15ff81a39ae7d344fd709f28e8600b4aa8c65c6b64bfe7fe36bd19b601f840160051c810191602085106102fa575b90601f859493920160051c01905b8181106102ec5750610133565b5f81558493506001016102df565b90915081906102d1565b634e487b7160e01b5f52602260045260245ffd5b91607f169161011f565b634e487b7160e01b5f52604160045260245ffd5b015190505f806100e7565b60035f9081528281209350601f198516905b81811061038f5750908460019594939210610377575b505050811b016003556100fc565b01515f1960f88460031b161c191690555f8080610369565b92936020600181928786015181550195019301610353565b60035f529091507fc2575a0e9e593c00f959f8c92f12db2869c3395a3b0502d05e2516446f71f85b601f840160051c8101916020851061040b575b90601f859493920160051c01905b8181106103fd57506100d1565b5f81558493506001016103f0565b90915081906103e2565b91607f16916100bd565b5f80fd5b6040519190601f01601f191682016001600160401b0381118382101761032257604052565b81601f8201121561041f578051906001600160401b03821161032257610477601f8301601f1916602001610423565b928284526020838301011161041f57815f9260208093018386015e830101529056fe6080806040526004361015610012575f80fd5b5f3560e01c90816306fdde031461055757508063095ea7b3146104d557806318160ddd146104b857806323b872dd146103d9578063313ce567146103b957806340c10f191461030057806370a08231146102c95780638da5cb5b146102a157806395d89b4114610186578063a035b1fe146100b6578063a9059cbb14610155578063d03a404514610127578063dd62ed3e146100d75763e1aa6036146100b6575f80fd5b346100d3575f3660031901126100d3576020600654604051908152f35b5f80fd5b346100d35760403660031901126100d3576100f0610650565b6100f8610666565b6001600160a01b039182165f908152600160209081526040808320949093168252928352819020549051908152f35b346100d35760203660031901126100d35761014d60018060a01b0360075416331461067c565b600435600655005b346100d35760403660031901126100d35761017b610171610650565b60243590336106c1565b602060405160018152f35b346100d3575f3660031901126100d3576040515f6004548060011c90600181168015610297575b602083108114610283578285529081156102675750600114610212575b50819003601f01601f191681019067ffffffffffffffff8211818310176101fe576101fa82918260405282610626565b0390f35b634e487b7160e01b5f52604160045260245ffd5b905060045f527f8a35acfbc15ff81a39ae7d344fd709f28e8600b4aa8c65c6b64bfe7fe36bd19b5f905b828210610251575060209150820101826101ca565b600181602092548385880101520191019061023c565b90506020925060ff191682840152151560051b820101826101ca565b634e487b7160e01b5f52602260045260245ffd5b91607f16916101ad565b346100d3575f3660031901126100d3576007546040516001600160a01b039091168152602090f35b346100d35760203660031901126100d3576001600160a01b036102ea610650565b165f525f602052602060405f2054604051908152f35b346100d35760403660031901126100d357610319610650565b6024359061033260018060a01b0360075416331461067c565b6001600160a01b03169081156103a657600254908082018092116103925760207fddf252ad1be2c89b69c2b068fc378daa952ba7f163c4a11628f55a4df523b3ef915f9360025584845283825260408420818154019055604051908152a3005b634e487b7160e01b5f52601160045260245ffd5b63ec442f0560e01b5f525f60045260245ffd5b346100d3575f3660031901126100d357602060ff60055416604051908152f35b346100d35760603660031901126100d3576103f2610650565b6103fa610666565b6001600160a01b0382165f818152600160209081526040808320338452909152902054909260443592915f198110610438575b5061017b93506106c1565b83811061049d57841561048a5733156104775761017b945f52600160205260405f2060018060a01b0333165f526020528360405f20910390558461042d565b634a1406b160e11b5f525f60045260245ffd5b63e602df0560e01b5f525f60045260245ffd5b8390637dc7a0d960e11b5f523360045260245260445260645ffd5b346100d3575f3660031901126100d3576020600254604051908152f35b346100d35760403660031901126100d3576104ee610650565b60243590331561048a576001600160a01b031690811561047757335f52600160205260405f20825f526020528060405f20556040519081527f8c5be1e5ebec7d5bd14f71427d1e84f3dd0314c0f7b2291e5b200ac8c7c3b92560203392a3602060405160018152f35b346100d3575f3660031901126100d3575f6003548060011c9060018116801561061c575b6020831081146102835782855290811561026757506001146105c75750819003601f01601f191681019067ffffffffffffffff8211818310176101fe576101fa82918260405282610626565b905060035f527fc2575a0e9e593c00f959f8c92f12db2869c3395a3b0502d05e2516446f71f85b5f905b828210610606575060209150820101826101ca565b60018160209254838588010152019101906105f1565b91607f169161057b565b602060409281835280519182918282860152018484015e5f828201840152601f01601f1916010190565b600435906001600160a01b03821682036100d357565b602435906001600160a01b03821682036100d357565b1561068357565b60405162461bcd60e51b81526020600482015260166024820152752737ba103a34329031b7b73a3930b1ba1037bbb732b960511b6044820152606490fd5b6001600160a01b0316908115610758576001600160a01b03169182156103a657815f525f60205260405f205481811061073f57817fddf252ad1be2c89b69c2b068fc378daa952ba7f163c4a11628f55a4df523b3ef92602092855f525f84520360405f2055845f525f825260405f20818154019055604051908152a3565b8263391434e360e21b5f5260045260245260445260645ffd5b634b637e8f60e11b5f525f60045260245ffdfea2646970667358221220f69474dd3d7746b4ae0b9a455657e01164ee254e2cbe174fe8ed6ec899bb046264736f6c634300081c003300000000000000000000000000000000000000000000000000000000000000c0000000000000000000000000000000000000000000000000000000000000010000000000000000000000000000000000000000000000d3c21bcecceda1000000000000000000000000000000000000000000000000000000000000000000001200000000000000000000000000000000000000000000009365b47e1edf1c00000000000000000000000000003b4f0135465d444a5bd06ab90fc59b73916c85f50000000000000000000000000000000000000000000000000000000000000008457468657265756d00000000000000000000000000000000000000000000000000000000000000000000000000000000000000000000000000000000000000034554480000000000000000000000000000000000000000000000000000000000"
        }
      ],
      "isFixedGasLimit": false
    },
    {
      "hash": "0x720da41527f84536df91beb727bd42453f04432ea9389905cddd3767fe3f86dc",
      "transactionType": "CALL",
      "contractName": "MockToken",
      "contractAddress": "0x14ca5409727f55b9b9e2ca356c8489a40441b16c",
      "function": "approve(address,uint256)",
      "arguments": [
        "0xC090Da280082859B5744C8f3b27f1eE566d1675e",
        "367782272894446487679"
      ],
      "transaction": {
        "from": "0x3b4f0135465d444a5bd06ab90fc59b73916c85f5",
        "to": "0x14ca5409727f55b9b9e2ca356c8489a40441b16c",
        "gas": "0xf816",
        "value": "0x0",
        "input": "0x095ea7b3000000000000000000000000c090da280082859b5744c8f3b27f1ee566d1675e000000000000000000000000000000000000000000000013f0011c9a7f42487f",
        "nonce": "0xa4",
        "chainId": "0xdede"
      },
      "additionalContracts": [],
      "isFixedGasLimit": false
    },
    {
      "hash": "0x94456ad3f1f8dbeda94aae52c891401e71198f01315d7815770dcc89a3acbad7",
      "transactionType": "CALL",
      "contractName": "Core",
      "contractAddress": "0xc090da280082859b5744c8f3b27f1ee566d1675e",
      "function": "addLiquidity(address,uint256)",
      "arguments": [
        "0x14cA5409727F55b9b9E2CA356c8489a40441B16c",
        "367782272894446487679"
      ],
      "transaction": {
        "from": "0x3b4f0135465d444a5bd06ab90fc59b73916c85f5",
        "to": "0xc090da280082859b5744c8f3b27f1ee566d1675e",
        "gas": "0x1c431",
        "value": "0x0",
        "input": "0x5668870000000000000000000000000014ca5409727f55b9b9e2ca356c8489a40441b16c000000000000000000000000000000000000000000000013f0011c9a7f42487f",
        "nonce": "0xa5",
        "chainId": "0xdede"
      },
      "additionalContracts": [],
      "isFixedGasLimit": false
    },
    {
      "hash": "0xec2ae625c991e610438e0e48de59de3fb0ed315b77dda54c68480a799e49cff7",
      "transactionType": "CALL",
      "contractName": "TokenFactory",
      "contractAddress": "0x39bed14767138aba87d1f07b64088e1042239c59",
      "function": "createToken(string,string,uint256,uint8,uint256)",
      "arguments": [
        "Bitcoin",
        "BTC",
        "1000000000000000000000000",
        "18",
        "65300000000000000000000"
      ],
      "transaction": {
        "from": "0x3b4f0135465d444a5bd06ab90fc59b73916c85f5",
        "to": "0x39bed14767138aba87d1f07b64088e1042239c59",
        "gas": "0xcde38",
        "value": "0x0",
        "input": "0xedd8112300000000000000000000000000000000000000000000000000000000000000a000000000000000000000000000000000000000000000000000000000000000e000000000000000000000000000000000000000000000d3c21bcecceda10000000000000000000000000000000000000000000000000000000000000000000012000000000000000000000000000000000000000000000dd3eb8b39c5afd000000000000000000000000000000000000000000000000000000000000000000007426974636f696e0000000000000000000000000000000000000000000000000000000000000000000000000000000000000000000000000000000000000000034254430000000000000000000000000000000000000000000000000000000000",
        "nonce": "0xa6",
        "chainId": "0xdede"
      },
      "additionalContracts": [
        {
          "transactionType": "CREATE",
          "address": "0x8e3d5b26cfe650123a822de0e1f09fa680a30278",
          "initCode": "0x60806040523461041f57610c3b8038038061001981610423565b92833981019060c08183031261041f5780516001600160401b03811161041f5782610045918301610448565b602082015190926001600160401b03821161041f57610065918301610448565b60408201519160608101519160ff831680930361041f57608082015160a0909201516001600160a01b038116959086900361041f578051906001600160401b0382116103225760035490600182811c92168015610415575b60208310146103045781601f8493116103a7575b50602090601f8311600114610341575f92610336575b50508160011b915f199060031b1c1916176003555b8051906001600160401b0382116103225760045490600182811c92168015610318575b60208310146103045781601f849311610296575b50602090601f8311600114610230575f92610225575b50508160011b915f199060031b1c1916176004555b6005805460ff191683179055600780546001600160a01b03191685179055600655604d81116101fe57600a0a908181029181830414901517156101fe57811561021257600254908082018092116101fe5760207fddf252ad1be2c89b69c2b068fc378daa952ba7f163c4a11628f55a4df523b3ef915f9360025584845283825260408420818154019055604051908152a36040516107a1908161049a8239f35b634e487b7160e01b5f52601160045260245ffd5b63ec442f0560e01b5f525f60045260245ffd5b015190505f80610149565b60045f9081528281209350601f198516905b81811061027e5750908460019594939210610266575b505050811b0160045561015e565b01515f1960f88460031b161c191690555f8080610258565b92936020600181928786015181550195019301610242565b60045f529091507f8a35acfbc15ff81a39ae7d344fd709f28e8600b4aa8c65c6b64bfe7fe36bd19b601f840160051c810191602085106102fa575b90601f859493920160051c01905b8181106102ec5750610133565b5f81558493506001016102df565b90915081906102d1565b634e487b7160e01b5f52602260045260245ffd5b91607f169161011f565b634e487b7160e01b5f52604160045260245ffd5b015190505f806100e7565b60035f9081528281209350601f198516905b81811061038f5750908460019594939210610377575b505050811b016003556100fc565b01515f1960f88460031b161c191690555f8080610369565b92936020600181928786015181550195019301610353565b60035f529091507fc2575a0e9e593c00f959f8c92f12db2869c3395a3b0502d05e2516446f71f85b601f840160051c8101916020851061040b575b90601f859493920160051c01905b8181106103fd57506100d1565b5f81558493506001016103f0565b90915081906103e2565b91607f16916100bd565b5f80fd5b6040519190601f01601f191682016001600160401b0381118382101761032257604052565b81601f8201121561041f578051906001600160401b03821161032257610477601f8301601f1916602001610423565b928284526020838301011161041f57815f9260208093018386015e830101529056fe6080806040526004361015610012575f80fd5b5f3560e01c90816306fdde031461055757508063095ea7b3146104d557806318160ddd146104b857806323b872dd146103d9578063313ce567146103b957806340c10f191461030057806370a08231146102c95780638da5cb5b146102a157806395d89b4114610186578063a035b1fe146100b6578063a9059cbb14610155578063d03a404514610127578063dd62ed3e146100d75763e1aa6036146100b6575f80fd5b346100d3575f3660031901126100d3576020600654604051908152f35b5f80fd5b346100d35760403660031901126100d3576100f0610650565b6100f8610666565b6001600160a01b039182165f908152600160209081526040808320949093168252928352819020549051908152f35b346100d35760203660031901126100d35761014d60018060a01b0360075416331461067c565b600435600655005b346100d35760403660031901126100d35761017b610171610650565b60243590336106c1565b602060405160018152f35b346100d3575f3660031901126100d3576040515f6004548060011c90600181168015610297575b602083108114610283578285529081156102675750600114610212575b50819003601f01601f191681019067ffffffffffffffff8211818310176101fe576101fa82918260405282610626565b0390f35b634e487b7160e01b5f52604160045260245ffd5b905060045f527f8a35acfbc15ff81a39ae7d344fd709f28e8600b4aa8c65c6b64bfe7fe36bd19b5f905b828210610251575060209150820101826101ca565b600181602092548385880101520191019061023c565b90506020925060ff191682840152151560051b820101826101ca565b634e487b7160e01b5f52602260045260245ffd5b91607f16916101ad565b346100d3575f3660031901126100d3576007546040516001600160a01b039091168152602090f35b346100d35760203660031901126100d3576001600160a01b036102ea610650565b165f525f602052602060405f2054604051908152f35b346100d35760403660031901126100d357610319610650565b6024359061033260018060a01b0360075416331461067c565b6001600160a01b03169081156103a657600254908082018092116103925760207fddf252ad1be2c89b69c2b068fc378daa952ba7f163c4a11628f55a4df523b3ef915f9360025584845283825260408420818154019055604051908152a3005b634e487b7160e01b5f52601160045260245ffd5b63ec442f0560e01b5f525f60045260245ffd5b346100d3575f3660031901126100d357602060ff60055416604051908152f35b346100d35760603660031901126100d3576103f2610650565b6103fa610666565b6001600160a01b0382165f818152600160209081526040808320338452909152902054909260443592915f198110610438575b5061017b93506106c1565b83811061049d57841561048a5733156104775761017b945f52600160205260405f2060018060a01b0333165f526020528360405f20910390558461042d565b634a1406b160e11b5f525f60045260245ffd5b63e602df0560e01b5f525f60045260245ffd5b8390637dc7a0d960e11b5f523360045260245260445260645ffd5b346100d3575f3660031901126100d3576020600254604051908152f35b346100d35760403660031901126100d3576104ee610650565b60243590331561048a576001600160a01b031690811561047757335f52600160205260405f20825f526020528060405f20556040519081527f8c5be1e5ebec7d5bd14f71427d1e84f3dd0314c0f7b2291e5b200ac8c7c3b92560203392a3602060405160018152f35b346100d3575f3660031901126100d3575f6003548060011c9060018116801561061c575b6020831081146102835782855290811561026757506001146105c75750819003601f01601f191681019067ffffffffffffffff8211818310176101fe576101fa82918260405282610626565b905060035f527fc2575a0e9e593c00f959f8c92f12db2869c3395a3b0502d05e2516446f71f85b5f905b828210610606575060209150820101826101ca565b60018160209254838588010152019101906105f1565b91607f169161057b565b602060409281835280519182918282860152018484015e5f828201840152601f01601f1916010190565b600435906001600160a01b03821682036100d357565b602435906001600160a01b03821682036100d357565b1561068357565b60405162461bcd60e51b81526020600482015260166024820152752737ba103a34329031b7b73a3930b1ba1037bbb732b960511b6044820152606490fd5b6001600160a01b0316908115610758576001600160a01b03169182156103a657815f525f60205260405f205481811061073f57817fddf252ad1be2c89b69c2b068fc378daa952ba7f163c4a11628f55a4df523b3ef92602092855f525f84520360405f2055845f525f825260405f20818154019055604051908152a3565b8263391434e360e21b5f5260045260245260445260645ffd5b634b637e8f60e11b5f525f60045260245ffdfea2646970667358221220f69474dd3d7746b4ae0b9a455657e01164ee254e2cbe174fe8ed6ec899bb046264736f6c634300081c003300000000000000000000000000000000000000000000000000000000000000c0000000000000000000000000000000000000000000000000000000000000010000000000000000000000000000000000000000000000d3c21bcecceda10000000000000000000000000000000000000000000000000000000000000000000012000000000000000000000000000000000000000000000dd3eb8b39c5afd000000000000000000000000000003b4f0135465d444a5bd06ab90fc59b73916c85f50000000000000000000000000000000000000000000000000000000000000007426974636f696e0000000000000000000000000000000000000000000000000000000000000000000000000000000000000000000000000000000000000000034254430000000000000000000000000000000000000000000000000000000000"
        }
      ],
      "isFixedGasLimit": false
    },
    {
      "hash": "0xf0c5a0e63df7a993bdcba043dfd37bdfd3b5dc0520b32e018e836854c5f555a2",
      "transactionType": "CALL",
      "contractName": "MockToken",
      "contractAddress": "0x8e3d5b26cfe650123a822de0e1f09fa680a30278",
      "function": "approve(address,uint256)",
      "arguments": [
        "0xC090Da280082859B5744C8f3b27f1eE566d1675e",
        "15313935681470137825"
      ],
      "transaction": {
        "from": "0x3b4f0135465d444a5bd06ab90fc59b73916c85f5",
        "to": "0x8e3d5b26cfe650123a822de0e1f09fa680a30278",
        "gas": "0x1069d",
        "value": "0x0",
        "input": "0x095ea7b3000000000000000000000000c090da280082859b5744c8f3b27f1ee566d1675e000000000000000000000000000000000000000000000000d486075d973505e1",
        "nonce": "0xa7",
        "chainId": "0xdede"
      },
      "additionalContracts": [],
      "isFixedGasLimit": false
    },
    {
      "hash": "0xcdb20009ae3b4fe1251dcd961954c8a6d462d4487da83cc97fc152b2ee64921d",
      "transactionType": "CALL",
      "contractName": "Core",
      "contractAddress": "0xc090da280082859b5744c8f3b27f1ee566d1675e",
      "function": "addLiquidity(address,uint256)",
      "arguments": [
        "0x8e3D5B26Cfe650123a822dE0E1f09fa680a30278",
        "15313935681470137825"
      ],
      "transaction": {
        "from": "0x3b4f0135465d444a5bd06ab90fc59b73916c85f5",
        "to": "0xc090da280082859b5744c8f3b27f1ee566d1675e",
        "gas": "0x1ab01",
        "value": "0x0",
        "input": "0x566887000000000000000000000000008e3d5b26cfe650123a822de0e1f09fa680a30278000000000000000000000000000000000000000000000000d486075d973505e1",
        "nonce": "0xa8",
        "chainId": "0xdede"
      },
      "additionalContracts": [],
      "isFixedGasLimit": false
    },
    {
      "hash": "0x2b92b8609564c8eac99467f6761c0dd21a4e3466ea8c102301a5b5ce32f3f79a",
      "transactionType": "CALL",
      "contractName": "TokenFactory",
      "contractAddress": "0x39bed14767138aba87d1f07b64088e1042239c59",
      "function": "createToken(string,string,uint256,uint8,uint256)",
      "arguments": [
        "Wrapped Ether",
        "WETH",
        "1000000000000000000000000",
        "18",
        "2719000000000000000000"
      ],
      "transaction": {
        "from": "0x3b4f0135465d444a5bd06ab90fc59b73916c85f5",
        "to": "0x39bed14767138aba87d1f07b64088e1042239c59",
        "gas": "0xcde9b",
        "value": "0x0",
        "input": "0xedd8112300000000000000000000000000000000000000000000000000000000000000a000000000000000000000000000000000000000000000000000000000000000e000000000000000000000000000000000000000000000d3c21bcecceda1000000000000000000000000000000000000000000000000000000000000000000001200000000000000000000000000000000000000000000009365b47e1edf1c0000000000000000000000000000000000000000000000000000000000000000000d577261707065642045746865720000000000000000000000000000000000000000000000000000000000000000000000000000000000000000000000000000045745544800000000000000000000000000000000000000000000000000000000",
        "nonce": "0xa9",
        "chainId": "0xdede"
      },
      "additionalContracts": [
        {
          "transactionType": "CREATE",
          "address": "0x1ad4a7a80f5548923c8e5627abafb977dfe014ff",
          "initCode": "0x60806040523461041f57610c3b8038038061001981610423565b92833981019060c08183031261041f5780516001600160401b03811161041f5782610045918301610448565b602082015190926001600160401b03821161041f57610065918301610448565b60408201519160608101519160ff831680930361041f57608082015160a0909201516001600160a01b038116959086900361041f578051906001600160401b0382116103225760035490600182811c92168015610415575b60208310146103045781601f8493116103a7575b50602090601f8311600114610341575f92610336575b50508160011b915f199060031b1c1916176003555b8051906001600160401b0382116103225760045490600182811c92168015610318575b60208310146103045781601f849311610296575b50602090601f8311600114610230575f92610225575b50508160011b915f199060031b1c1916176004555b6005805460ff191683179055600780546001600160a01b03191685179055600655604d81116101fe57600a0a908181029181830414901517156101fe57811561021257600254908082018092116101fe5760207fddf252ad1be2c89b69c2b068fc378daa952ba7f163c4a11628f55a4df523b3ef915f9360025584845283825260408420818154019055604051908152a36040516107a1908161049a8239f35b634e487b7160e01b5f52601160045260245ffd5b63ec442f0560e01b5f525f60045260245ffd5b015190505f80610149565b60045f9081528281209350601f198516905b81811061027e5750908460019594939210610266575b505050811b0160045561015e565b01515f1960f88460031b161c191690555f8080610258565b92936020600181928786015181550195019301610242565b60045f529091507f8a35acfbc15ff81a39ae7d344fd709f28e8600b4aa8c65c6b64bfe7fe36bd19b601f840160051c810191602085106102fa575b90601f859493920160051c01905b8181106102ec5750610133565b5f81558493506001016102df565b90915081906102d1565b634e487b7160e01b5f52602260045260245ffd5b91607f169161011f565b634e487b7160e01b5f52604160045260245ffd5b015190505f806100e7565b60035f9081528281209350601f198516905b81811061038f5750908460019594939210610377575b505050811b016003556100fc565b01515f1960f88460031b161c191690555f8080610369565b92936020600181928786015181550195019301610353565b60035f529091507fc2575a0e9e593c00f959f8c92f12db2869c3395a3b0502d05e2516446f71f85b601f840160051c8101916020851061040b575b90601f859493920160051c01905b8181106103fd57506100d1565b5f81558493506001016103f0565b90915081906103e2565b91607f16916100bd565b5f80fd5b6040519190601f01601f191682016001600160401b0381118382101761032257604052565b81601f8201121561041f578051906001600160401b03821161032257610477601f8301601f1916602001610423565b928284526020838301011161041f57815f9260208093018386015e830101529056fe6080806040526004361015610012575f80fd5b5f3560e01c90816306fdde031461055757508063095ea7b3146104d557806318160ddd146104b857806323b872dd146103d9578063313ce567146103b957806340c10f191461030057806370a08231146102c95780638da5cb5b146102a157806395d89b4114610186578063a035b1fe146100b6578063a9059cbb14610155578063d03a404514610127578063dd62ed3e146100d75763e1aa6036146100b6575f80fd5b346100d3575f3660031901126100d3576020600654604051908152f35b5f80fd5b346100d35760403660031901126100d3576100f0610650565b6100f8610666565b6001600160a01b039182165f908152600160209081526040808320949093168252928352819020549051908152f35b346100d35760203660031901126100d35761014d60018060a01b0360075416331461067c565b600435600655005b346100d35760403660031901126100d35761017b610171610650565b60243590336106c1565b602060405160018152f35b346100d3575f3660031901126100d3576040515f6004548060011c90600181168015610297575b602083108114610283578285529081156102675750600114610212575b50819003601f01601f191681019067ffffffffffffffff8211818310176101fe576101fa82918260405282610626565b0390f35b634e487b7160e01b5f52604160045260245ffd5b905060045f527f8a35acfbc15ff81a39ae7d344fd709f28e8600b4aa8c65c6b64bfe7fe36bd19b5f905b828210610251575060209150820101826101ca565b600181602092548385880101520191019061023c565b90506020925060ff191682840152151560051b820101826101ca565b634e487b7160e01b5f52602260045260245ffd5b91607f16916101ad565b346100d3575f3660031901126100d3576007546040516001600160a01b039091168152602090f35b346100d35760203660031901126100d3576001600160a01b036102ea610650565b165f525f602052602060405f2054604051908152f35b346100d35760403660031901126100d357610319610650565b6024359061033260018060a01b0360075416331461067c565b6001600160a01b03169081156103a657600254908082018092116103925760207fddf252ad1be2c89b69c2b068fc378daa952ba7f163c4a11628f55a4df523b3ef915f9360025584845283825260408420818154019055604051908152a3005b634e487b7160e01b5f52601160045260245ffd5b63ec442f0560e01b5f525f60045260245ffd5b346100d3575f3660031901126100d357602060ff60055416604051908152f35b346100d35760603660031901126100d3576103f2610650565b6103fa610666565b6001600160a01b0382165f818152600160209081526040808320338452909152902054909260443592915f198110610438575b5061017b93506106c1565b83811061049d57841561048a5733156104775761017b945f52600160205260405f2060018060a01b0333165f526020528360405f20910390558461042d565b634a1406b160e11b5f525f60045260245ffd5b63e602df0560e01b5f525f60045260245ffd5b8390637dc7a0d960e11b5f523360045260245260445260645ffd5b346100d3575f3660031901126100d3576020600254604051908152f35b346100d35760403660031901126100d3576104ee610650565b60243590331561048a576001600160a01b031690811561047757335f52600160205260405f20825f526020528060405f20556040519081527f8c5be1e5ebec7d5bd14f71427d1e84f3dd0314c0f7b2291e5b200ac8c7c3b92560203392a3602060405160018152f35b346100d3575f3660031901126100d3575f6003548060011c9060018116801561061c575b6020831081146102835782855290811561026757506001146105c75750819003601f01601f191681019067ffffffffffffffff8211818310176101fe576101fa82918260405282610626565b905060035f527fc2575a0e9e593c00f959f8c92f12db2869c3395a3b0502d05e2516446f71f85b5f905b828210610606575060209150820101826101ca565b60018160209254838588010152019101906105f1565b91607f169161057b565b602060409281835280519182918282860152018484015e5f828201840152601f01601f1916010190565b600435906001600160a01b03821682036100d357565b602435906001600160a01b03821682036100d357565b1561068357565b60405162461bcd60e51b81526020600482015260166024820152752737ba103a34329031b7b73a3930b1ba1037bbb732b960511b6044820152606490fd5b6001600160a01b0316908115610758576001600160a01b03169182156103a657815f525f60205260405f205481811061073f57817fddf252ad1be2c89b69c2b068fc378daa952ba7f163c4a11628f55a4df523b3ef92602092855f525f84520360405f2055845f525f825260405f20818154019055604051908152a3565b8263391434e360e21b5f5260045260245260445260645ffd5b634b637e8f60e11b5f525f60045260245ffdfea2646970667358221220f69474dd3d7746b4ae0b9a455657e01164ee254e2cbe174fe8ed6ec899bb046264736f6c634300081c003300000000000000000000000000000000000000000000000000000000000000c0000000000000000000000000000000000000000000000000000000000000010000000000000000000000000000000000000000000000d3c21bcecceda1000000000000000000000000000000000000000000000000000000000000000000001200000000000000000000000000000000000000000000009365b47e1edf1c00000000000000000000000000003b4f0135465d444a5bd06ab90fc59b73916c85f5000000000000000000000000000000000000000000000000000000000000000d577261707065642045746865720000000000000000000000000000000000000000000000000000000000000000000000000000000000000000000000000000045745544800000000000000000000000000000000000000000000000000000000"
        }
      ],
      "isFixedGasLimit": false
    },
    {
      "hash": "0x3b2e0fb4bb2073cc7056a5f7cbff4da9c57891a301bc1f08a450a76ee6be2bad",
      "transactionType": "CALL",
      "contractName": "MockToken",
      "contractAddress": "0x1ad4a7a80f5548923c8e5627abafb977dfe014ff",
      "function": "approve(address,uint256)",
      "arguments": [
        "0xC090Da280082859B5744C8f3b27f1eE566d1675e",
        "367782272894446487679"
      ],
      "transaction": {
        "from": "0x3b4f0135465d444a5bd06ab90fc59b73916c85f5",
        "to": "0x1ad4a7a80f5548923c8e5627abafb977dfe014ff",
        "gas": "0xf816",
        "value": "0x0",
        "input": "0x095ea7b3000000000000000000000000c090da280082859b5744c8f3b27f1ee566d1675e000000000000000000000000000000000000000000000013f0011c9a7f42487f",
        "nonce": "0xaa",
        "chainId": "0xdede"
      },
      "additionalContracts": [],
      "isFixedGasLimit": false
    },
    {
      "hash": "0x7e82e9f2327657677e3f8bd9229e6e64af81c276415843e9792860728e540097",
      "transactionType": "CALL",
      "contractName": "Core",
      "contractAddress": "0xc090da280082859b5744c8f3b27f1ee566d1675e",
      "function": "addLiquidity(address,uint256)",
      "arguments": [
        "0x1ad4a7A80f5548923C8E5627AbAfB977dfe014FF",
        "367782272894446487679"
      ],
      "transaction": {
        "from": "0x3b4f0135465d444a5bd06ab90fc59b73916c85f5",
        "to": "0xc090da280082859b5744c8f3b27f1ee566d1675e",
        "gas": "0x1c431",
        "value": "0x0",
        "input": "0x566887000000000000000000000000001ad4a7a80f5548923c8e5627abafb977dfe014ff000000000000000000000000000000000000000000000013f0011c9a7f42487f",
        "nonce": "0xab",
        "chainId": "0xdede"
      },
      "additionalContracts": [],
      "isFixedGasLimit": false
    },
    {
      "hash": "0x061bc1456b64f8d87d03cd5e9f42fde3fceb70962010aea07223bdb55e256313",
      "transactionType": "CALL",
      "contractName": "TokenFactory",
      "contractAddress": "0x39bed14767138aba87d1f07b64088e1042239c59",
      "function": "createToken(string,string,uint256,uint8,uint256)",
      "arguments": [
        "PEPE",
        "PEPE",
        "1000000000000000000000000",
        "18",
        "110000000000000000"
      ],
      "transaction": {
        "from": "0x3b4f0135465d444a5bd06ab90fc59b73916c85f5",
        "to": "0x39bed14767138aba87d1f07b64088e1042239c59",
        "gas": "0xcddf6",
        "value": "0x0",
        "input": "0xedd8112300000000000000000000000000000000000000000000000000000000000000a000000000000000000000000000000000000000000000000000000000000000e000000000000000000000000000000000000000000000d3c21bcecceda100000000000000000000000000000000000000000000000000000000000000000000120000000000000000000000000000000000000000000000000186cc6acd4b00000000000000000000000000000000000000000000000000000000000000000004504550450000000000000000000000000000000000000000000000000000000000000000000000000000000000000000000000000000000000000000000000045045504500000000000000000000000000000000000000000000000000000000",
        "nonce": "0xac",
        "chainId": "0xdede"
      },
      "additionalContracts": [
        {
          "transactionType": "CREATE",
          "address": "0x9d2de5616c423dc52cfc3332111802a48e8e5c6f",
          "initCode": "0x60806040523461041f57610c3b8038038061001981610423565b92833981019060c08183031261041f5780516001600160401b03811161041f5782610045918301610448565b602082015190926001600160401b03821161041f57610065918301610448565b60408201519160608101519160ff831680930361041f57608082015160a0909201516001600160a01b038116959086900361041f578051906001600160401b0382116103225760035490600182811c92168015610415575b60208310146103045781601f8493116103a7575b50602090601f8311600114610341575f92610336575b50508160011b915f199060031b1c1916176003555b8051906001600160401b0382116103225760045490600182811c92168015610318575b60208310146103045781601f849311610296575b50602090601f8311600114610230575f92610225575b50508160011b915f199060031b1c1916176004555b6005805460ff191683179055600780546001600160a01b03191685179055600655604d81116101fe57600a0a908181029181830414901517156101fe57811561021257600254908082018092116101fe5760207fddf252ad1be2c89b69c2b068fc378daa952ba7f163c4a11628f55a4df523b3ef915f9360025584845283825260408420818154019055604051908152a36040516107a1908161049a8239f35b634e487b7160e01b5f52601160045260245ffd5b63ec442f0560e01b5f525f60045260245ffd5b015190505f80610149565b60045f9081528281209350601f198516905b81811061027e5750908460019594939210610266575b505050811b0160045561015e565b01515f1960f88460031b161c191690555f8080610258565b92936020600181928786015181550195019301610242565b60045f529091507f8a35acfbc15ff81a39ae7d344fd709f28e8600b4aa8c65c6b64bfe7fe36bd19b601f840160051c810191602085106102fa575b90601f859493920160051c01905b8181106102ec5750610133565b5f81558493506001016102df565b90915081906102d1565b634e487b7160e01b5f52602260045260245ffd5b91607f169161011f565b634e487b7160e01b5f52604160045260245ffd5b015190505f806100e7565b60035f9081528281209350601f198516905b81811061038f5750908460019594939210610377575b505050811b016003556100fc565b01515f1960f88460031b161c191690555f8080610369565b92936020600181928786015181550195019301610353565b60035f529091507fc2575a0e9e593c00f959f8c92f12db2869c3395a3b0502d05e2516446f71f85b601f840160051c8101916020851061040b575b90601f859493920160051c01905b8181106103fd57506100d1565b5f81558493506001016103f0565b90915081906103e2565b91607f16916100bd565b5f80fd5b6040519190601f01601f191682016001600160401b0381118382101761032257604052565b81601f8201121561041f578051906001600160401b03821161032257610477601f8301601f1916602001610423565b928284526020838301011161041f57815f9260208093018386015e830101529056fe6080806040526004361015610012575f80fd5b5f3560e01c90816306fdde031461055757508063095ea7b3146104d557806318160ddd146104b857806323b872dd146103d9578063313ce567146103b957806340c10f191461030057806370a08231146102c95780638da5cb5b146102a157806395d89b4114610186578063a035b1fe146100b6578063a9059cbb14610155578063d03a404514610127578063dd62ed3e146100d75763e1aa6036146100b6575f80fd5b346100d3575f3660031901126100d3576020600654604051908152f35b5f80fd5b346100d35760403660031901126100d3576100f0610650565b6100f8610666565b6001600160a01b039182165f908152600160209081526040808320949093168252928352819020549051908152f35b346100d35760203660031901126100d35761014d60018060a01b0360075416331461067c565b600435600655005b346100d35760403660031901126100d35761017b610171610650565b60243590336106c1565b602060405160018152f35b346100d3575f3660031901126100d3576040515f6004548060011c90600181168015610297575b602083108114610283578285529081156102675750600114610212575b50819003601f01601f191681019067ffffffffffffffff8211818310176101fe576101fa82918260405282610626565b0390f35b634e487b7160e01b5f52604160045260245ffd5b905060045f527f8a35acfbc15ff81a39ae7d344fd709f28e8600b4aa8c65c6b64bfe7fe36bd19b5f905b828210610251575060209150820101826101ca565b600181602092548385880101520191019061023c565b90506020925060ff191682840152151560051b820101826101ca565b634e487b7160e01b5f52602260045260245ffd5b91607f16916101ad565b346100d3575f3660031901126100d3576007546040516001600160a01b039091168152602090f35b346100d35760203660031901126100d3576001600160a01b036102ea610650565b165f525f602052602060405f2054604051908152f35b346100d35760403660031901126100d357610319610650565b6024359061033260018060a01b0360075416331461067c565b6001600160a01b03169081156103a657600254908082018092116103925760207fddf252ad1be2c89b69c2b068fc378daa952ba7f163c4a11628f55a4df523b3ef915f9360025584845283825260408420818154019055604051908152a3005b634e487b7160e01b5f52601160045260245ffd5b63ec442f0560e01b5f525f60045260245ffd5b346100d3575f3660031901126100d357602060ff60055416604051908152f35b346100d35760603660031901126100d3576103f2610650565b6103fa610666565b6001600160a01b0382165f818152600160209081526040808320338452909152902054909260443592915f198110610438575b5061017b93506106c1565b83811061049d57841561048a5733156104775761017b945f52600160205260405f2060018060a01b0333165f526020528360405f20910390558461042d565b634a1406b160e11b5f525f60045260245ffd5b63e602df0560e01b5f525f60045260245ffd5b8390637dc7a0d960e11b5f523360045260245260445260645ffd5b346100d3575f3660031901126100d3576020600254604051908152f35b346100d35760403660031901126100d3576104ee610650565b60243590331561048a576001600160a01b031690811561047757335f52600160205260405f20825f526020528060405f20556040519081527f8c5be1e5ebec7d5bd14f71427d1e84f3dd0314c0f7b2291e5b200ac8c7c3b92560203392a3602060405160018152f35b346100d3575f3660031901126100d3575f6003548060011c9060018116801561061c575b6020831081146102835782855290811561026757506001146105c75750819003601f01601f191681019067ffffffffffffffff8211818310176101fe576101fa82918260405282610626565b905060035f527fc2575a0e9e593c00f959f8c92f12db2869c3395a3b0502d05e2516446f71f85b5f905b828210610606575060209150820101826101ca565b60018160209254838588010152019101906105f1565b91607f169161057b565b602060409281835280519182918282860152018484015e5f828201840152601f01601f1916010190565b600435906001600160a01b03821682036100d357565b602435906001600160a01b03821682036100d357565b1561068357565b60405162461bcd60e51b81526020600482015260166024820152752737ba103a34329031b7b73a3930b1ba1037bbb732b960511b6044820152606490fd5b6001600160a01b0316908115610758576001600160a01b03169182156103a657815f525f60205260405f205481811061073f57817fddf252ad1be2c89b69c2b068fc378daa952ba7f163c4a11628f55a4df523b3ef92602092855f525f84520360405f2055845f525f825260405f20818154019055604051908152a3565b8263391434e360e21b5f5260045260245260445260645ffd5b634b637e8f60e11b5f525f60045260245ffdfea2646970667358221220f69474dd3d7746b4ae0b9a455657e01164ee254e2cbe174fe8ed6ec899bb046264736f6c634300081c003300000000000000000000000000000000000000000000000000000000000000c0000000000000000000000000000000000000000000000000000000000000010000000000000000000000000000000000000000000000d3c21bcecceda100000000000000000000000000000000000000000000000000000000000000000000120000000000000000000000000000000000000000000000000186cc6acd4b00000000000000000000000000003b4f0135465d444a5bd06ab90fc59b73916c85f50000000000000000000000000000000000000000000000000000000000000004504550450000000000000000000000000000000000000000000000000000000000000000000000000000000000000000000000000000000000000000000000045045504500000000000000000000000000000000000000000000000000000000"
        }
      ],
      "isFixedGasLimit": false
    },
    {
      "hash": "0xf0860ded1f834d3840927641b65b3c8d5fca40d6a98e36e910ac6ae810cb903d",
      "transactionType": "CALL",
      "contractName": "MockToken",
      "contractAddress": "0x9d2de5616c423dc52cfc3332111802a48e8e5c6f",
      "function": "approve(address,uint256)",
      "arguments": [
        "0xC090Da280082859B5744C8f3b27f1eE566d1675e",
        "9090909090909090909090909"
      ],
      "transaction": {
        "from": "0x3b4f0135465d444a5bd06ab90fc59b73916c85f5",
        "to": "0x9d2de5616c423dc52cfc3332111802a48e8e5c6f",
        "gas": "0xf838",
        "value": "0x0",
        "input": "0x095ea7b3000000000000000000000000c090da280082859b5744c8f3b27f1ee566d1675e0000000000000000000000000000000000000000000785132b58012a71d1745d",
        "nonce": "0xad",
        "chainId": "0xdede"
      },
      "additionalContracts": [],
      "isFixedGasLimit": false
    },
    {
      "hash": "0xdd5e3641338b7edb7306e9f18a6d2beb04b82e52e2e5311aee2c51511e965afc",
      "transactionType": "CALL",
      "contractName": "Core",
      "contractAddress": "0xc090da280082859b5744c8f3b27f1ee566d1675e",
      "function": "addLiquidity(address,uint256)",
      "arguments": [
        "0x9D2DE5616C423dc52CFC3332111802a48E8E5C6f",
        "9090909090909090909090909"
      ],
      "transaction": {
        "from": "0x3b4f0135465d444a5bd06ab90fc59b73916c85f5",
        "to": "0xc090da280082859b5744c8f3b27f1ee566d1675e",
        "gas": "0x1c454",
        "value": "0x0",
        "input": "0x566887000000000000000000000000009d2de5616c423dc52cfc3332111802a48e8e5c6f0000000000000000000000000000000000000000000785132b58012a71d1745d",
        "nonce": "0xae",
        "chainId": "0xdede"
      },
      "additionalContracts": [],
      "isFixedGasLimit": false
    },
    {
      "hash": "0x90458971d1aea298037d6978d6b9ba1036ff4e86a97095950459864df2b0a071",
      "transactionType": "CALL",
      "contractName": "TokenFactory",
      "contractAddress": "0x39bed14767138aba87d1f07b64088e1042239c59",
      "function": "createToken(string,string,uint256,uint8,uint256)",
      "arguments": [
        "OFFICIAL TRUMP",
        "TRUMP",
        "1000000000000000000000000",
        "18",
        "1592000000000000000000"
      ],
      "transaction": {
        "from": "0x3b4f0135465d444a5bd06ab90fc59b73916c85f5",
        "to": "0x39bed14767138aba87d1f07b64088e1042239c59",
        "gas": "0xcdebd",
        "value": "0x0",
        "input": "0xedd8112300000000000000000000000000000000000000000000000000000000000000a000000000000000000000000000000000000000000000000000000000000000e000000000000000000000000000000000000000000000d3c21bcecceda100000000000000000000000000000000000000000000000000000000000000000000120000000000000000000000000000000000000000000000564d702d38f5e00000000000000000000000000000000000000000000000000000000000000000000e4f4646494349414c205452554d5000000000000000000000000000000000000000000000000000000000000000000000000000000000000000000000000000055452554d50000000000000000000000000000000000000000000000000000000",
        "nonce": "0xaf",
        "chainId": "0xdede"
      },
      "additionalContracts": [
        {
          "transactionType": "CREATE",
          "address": "0xf6ac8403a2050ff2aea572b01f7ba085f054f7b5",
          "initCode": "0x60806040523461041f57610c3b8038038061001981610423565b92833981019060c08183031261041f5780516001600160401b03811161041f5782610045918301610448565b602082015190926001600160401b03821161041f57610065918301610448565b60408201519160608101519160ff831680930361041f57608082015160a0909201516001600160a01b038116959086900361041f578051906001600160401b0382116103225760035490600182811c92168015610415575b60208310146103045781601f8493116103a7575b50602090601f8311600114610341575f92610336575b50508160011b915f199060031b1c1916176003555b8051906001600160401b0382116103225760045490600182811c92168015610318575b60208310146103045781601f849311610296575b50602090601f8311600114610230575f92610225575b50508160011b915f199060031b1c1916176004555b6005805460ff191683179055600780546001600160a01b03191685179055600655604d81116101fe57600a0a908181029181830414901517156101fe57811561021257600254908082018092116101fe5760207fddf252ad1be2c89b69c2b068fc378daa952ba7f163c4a11628f55a4df523b3ef915f9360025584845283825260408420818154019055604051908152a36040516107a1908161049a8239f35b634e487b7160e01b5f52601160045260245ffd5b63ec442f0560e01b5f525f60045260245ffd5b015190505f80610149565b60045f9081528281209350601f198516905b81811061027e5750908460019594939210610266575b505050811b0160045561015e565b01515f1960f88460031b161c191690555f8080610258565b92936020600181928786015181550195019301610242565b60045f529091507f8a35acfbc15ff81a39ae7d344fd709f28e8600b4aa8c65c6b64bfe7fe36bd19b601f840160051c810191602085106102fa575b90601f859493920160051c01905b8181106102ec5750610133565b5f81558493506001016102df565b90915081906102d1565b634e487b7160e01b5f52602260045260245ffd5b91607f169161011f565b634e487b7160e01b5f52604160045260245ffd5b015190505f806100e7565b60035f9081528281209350601f198516905b81811061038f5750908460019594939210610377575b505050811b016003556100fc565b01515f1960f88460031b161c191690555f8080610369565b92936020600181928786015181550195019301610353565b60035f529091507fc2575a0e9e593c00f959f8c92f12db2869c3395a3b0502d05e2516446f71f85b601f840160051c8101916020851061040b575b90601f859493920160051c01905b8181106103fd57506100d1565b5f81558493506001016103f0565b90915081906103e2565b91607f16916100bd565b5f80fd5b6040519190601f01601f191682016001600160401b0381118382101761032257604052565b81601f8201121561041f578051906001600160401b03821161032257610477601f8301601f1916602001610423565b928284526020838301011161041f57815f9260208093018386015e830101529056fe6080806040526004361015610012575f80fd5b5f3560e01c90816306fdde031461055757508063095ea7b3146104d557806318160ddd146104b857806323b872dd146103d9578063313ce567146103b957806340c10f191461030057806370a08231146102c95780638da5cb5b146102a157806395d89b4114610186578063a035b1fe146100b6578063a9059cbb14610155578063d03a404514610127578063dd62ed3e146100d75763e1aa6036146100b6575f80fd5b346100d3575f3660031901126100d3576020600654604051908152f35b5f80fd5b346100d35760403660031901126100d3576100f0610650565b6100f8610666565b6001600160a01b039182165f908152600160209081526040808320949093168252928352819020549051908152f35b346100d35760203660031901126100d35761014d60018060a01b0360075416331461067c565b600435600655005b346100d35760403660031901126100d35761017b610171610650565b60243590336106c1565b602060405160018152f35b346100d3575f3660031901126100d3576040515f6004548060011c90600181168015610297575b602083108114610283578285529081156102675750600114610212575b50819003601f01601f191681019067ffffffffffffffff8211818310176101fe576101fa82918260405282610626565b0390f35b634e487b7160e01b5f52604160045260245ffd5b905060045f527f8a35acfbc15ff81a39ae7d344fd709f28e8600b4aa8c65c6b64bfe7fe36bd19b5f905b828210610251575060209150820101826101ca565b600181602092548385880101520191019061023c565b90506020925060ff191682840152151560051b820101826101ca565b634e487b7160e01b5f52602260045260245ffd5b91607f16916101ad565b346100d3575f3660031901126100d3576007546040516001600160a01b039091168152602090f35b346100d35760203660031901126100d3576001600160a01b036102ea610650565b165f525f602052602060405f2054604051908152f35b346100d35760403660031901126100d357610319610650565b6024359061033260018060a01b0360075416331461067c565b6001600160a01b03169081156103a657600254908082018092116103925760207fddf252ad1be2c89b69c2b068fc378daa952ba7f163c4a11628f55a4df523b3ef915f9360025584845283825260408420818154019055604051908152a3005b634e487b7160e01b5f52601160045260245ffd5b63ec442f0560e01b5f525f60045260245ffd5b346100d3575f3660031901126100d357602060ff60055416604051908152f35b346100d35760603660031901126100d3576103f2610650565b6103fa610666565b6001600160a01b0382165f818152600160209081526040808320338452909152902054909260443592915f198110610438575b5061017b93506106c1565b83811061049d57841561048a5733156104775761017b945f52600160205260405f2060018060a01b0333165f526020528360405f20910390558461042d565b634a1406b160e11b5f525f60045260245ffd5b63e602df0560e01b5f525f60045260245ffd5b8390637dc7a0d960e11b5f523360045260245260445260645ffd5b346100d3575f3660031901126100d3576020600254604051908152f35b346100d35760403660031901126100d3576104ee610650565b60243590331561048a576001600160a01b031690811561047757335f52600160205260405f20825f526020528060405f20556040519081527f8c5be1e5ebec7d5bd14f71427d1e84f3dd0314c0f7b2291e5b200ac8c7c3b92560203392a3602060405160018152f35b346100d3575f3660031901126100d3575f6003548060011c9060018116801561061c575b6020831081146102835782855290811561026757506001146105c75750819003601f01601f191681019067ffffffffffffffff8211818310176101fe576101fa82918260405282610626565b905060035f527fc2575a0e9e593c00f959f8c92f12db2869c3395a3b0502d05e2516446f71f85b5f905b828210610606575060209150820101826101ca565b60018160209254838588010152019101906105f1565b91607f169161057b565b602060409281835280519182918282860152018484015e5f828201840152601f01601f1916010190565b600435906001600160a01b03821682036100d357565b602435906001600160a01b03821682036100d357565b1561068357565b60405162461bcd60e51b81526020600482015260166024820152752737ba103a34329031b7b73a3930b1ba1037bbb732b960511b6044820152606490fd5b6001600160a01b0316908115610758576001600160a01b03169182156103a657815f525f60205260405f205481811061073f57817fddf252ad1be2c89b69c2b068fc378daa952ba7f163c4a11628f55a4df523b3ef92602092855f525f84520360405f2055845f525f825260405f20818154019055604051908152a3565b8263391434e360e21b5f5260045260245260445260645ffd5b634b637e8f60e11b5f525f60045260245ffdfea2646970667358221220f69474dd3d7746b4ae0b9a455657e01164ee254e2cbe174fe8ed6ec899bb046264736f6c634300081c003300000000000000000000000000000000000000000000000000000000000000c0000000000000000000000000000000000000000000000000000000000000010000000000000000000000000000000000000000000000d3c21bcecceda100000000000000000000000000000000000000000000000000000000000000000000120000000000000000000000000000000000000000000000564d702d38f5e000000000000000000000000000003b4f0135465d444a5bd06ab90fc59b73916c85f5000000000000000000000000000000000000000000000000000000000000000e4f4646494349414c205452554d5000000000000000000000000000000000000000000000000000000000000000000000000000000000000000000000000000055452554d50000000000000000000000000000000000000000000000000000000"
        }
      ],
      "isFixedGasLimit": false
    },
    {
      "hash": "0x8d09aae03e15c9c8f4dc54f858c4bc8d4bb917c589b1c3328ef4a50f84c82ddc",
      "transactionType": "CALL",
      "contractName": "MockToken",
      "contractAddress": "0xf6ac8403a2050ff2aea572b01f7ba085f054f7b5",
      "function": "approve(address,uint256)",
      "arguments": [
        "0xC090Da280082859B5744C8f3b27f1eE566d1675e",
        "628140703517587939698"
      ],
      "transaction": {
        "from": "0x3b4f0135465d444a5bd06ab90fc59b73916c85f5",
        "to": "0xf6ac8403a2050ff2aea572b01f7ba085f054f7b5",
        "gas": "0xf816",
        "value": "0x0",
        "input": "0x095ea7b3000000000000000000000000c090da280082859b5744c8f3b27f1ee566d1675e0000000000000000000000000000000000000000000000220d3411d131ca2172",
        "nonce": "0xb0",
        "chainId": "0xdede"
      },
      "additionalContracts": [],
      "isFixedGasLimit": false
    },
    {
      "hash": "0xba53c638756643b315e0a8a0929561f1ebefc2acc95ea69441674965157c0c94",
      "transactionType": "CALL",
      "contractName": "Core",
      "contractAddress": "0xc090da280082859b5744c8f3b27f1ee566d1675e",
      "function": "addLiquidity(address,uint256)",
      "arguments": [
        "0xF6ac8403a2050fF2AEA572B01f7BA085f054f7B5",
        "628140703517587939698"
      ],
      "transaction": {
        "from": "0x3b4f0135465d444a5bd06ab90fc59b73916c85f5",
        "to": "0xc090da280082859b5744c8f3b27f1ee566d1675e",
        "gas": "0x1c431",
        "value": "0x0",
        "input": "0x56688700000000000000000000000000f6ac8403a2050ff2aea572b01f7ba085f054f7b50000000000000000000000000000000000000000000000220d3411d131ca2172",
        "nonce": "0xb1",
        "chainId": "0xdede"
      },
      "additionalContracts": [],
      "isFixedGasLimit": false
    },
    {
      "hash": "0x884c791c8c3334d96fc41c50e628330da2ea3c2b852acf3465b2c13a259a9063",
      "transactionType": "CALL",
      "contractName": "TokenFactory",
      "contractAddress": "0x39bed14767138aba87d1f07b64088e1042239c59",
      "function": "createToken(string,string,uint256,uint8,uint256)",
      "arguments": [
        "DOGE AI",
        "DOGEAI",
        "1000000000000000000000000",
        "18",
        "62000000000000000"
      ],
      "transaction": {
        "from": "0x3b4f0135465d444a5bd06ab90fc59b73916c85f5",
        "to": "0x39bed14767138aba87d1f07b64088e1042239c59",
        "gas": "0xcde3c",
        "value": "0x0",
        "input": "0xedd8112300000000000000000000000000000000000000000000000000000000000000a000000000000000000000000000000000000000000000000000000000000000e000000000000000000000000000000000000000000000d3c21bcecceda1000000000000000000000000000000000000000000000000000000000000000000001200000000000000000000000000000000000000000000000000dc44abe81300000000000000000000000000000000000000000000000000000000000000000007444f4745204149000000000000000000000000000000000000000000000000000000000000000000000000000000000000000000000000000000000000000006444f474541490000000000000000000000000000000000000000000000000000",
        "nonce": "0xb2",
        "chainId": "0xdede"
      },
      "additionalContracts": [
        {
          "transactionType": "CREATE",
          "address": "0x191eb4c970b1a972c4fc4517a9f110ebd40dee05",
          "initCode": "0x60806040523461041f57610c3b8038038061001981610423565b92833981019060c08183031261041f5780516001600160401b03811161041f5782610045918301610448565b602082015190926001600160401b03821161041f57610065918301610448565b60408201519160608101519160ff831680930361041f57608082015160a0909201516001600160a01b038116959086900361041f578051906001600160401b0382116103225760035490600182811c92168015610415575b60208310146103045781601f8493116103a7575b50602090601f8311600114610341575f92610336575b50508160011b915f199060031b1c1916176003555b8051906001600160401b0382116103225760045490600182811c92168015610318575b60208310146103045781601f849311610296575b50602090601f8311600114610230575f92610225575b50508160011b915f199060031b1c1916176004555b6005805460ff191683179055600780546001600160a01b03191685179055600655604d81116101fe57600a0a908181029181830414901517156101fe57811561021257600254908082018092116101fe5760207fddf252ad1be2c89b69c2b068fc378daa952ba7f163c4a11628f55a4df523b3ef915f9360025584845283825260408420818154019055604051908152a36040516107a1908161049a8239f35b634e487b7160e01b5f52601160045260245ffd5b63ec442f0560e01b5f525f60045260245ffd5b015190505f80610149565b60045f9081528281209350601f198516905b81811061027e5750908460019594939210610266575b505050811b0160045561015e565b01515f1960f88460031b161c191690555f8080610258565b92936020600181928786015181550195019301610242565b60045f529091507f8a35acfbc15ff81a39ae7d344fd709f28e8600b4aa8c65c6b64bfe7fe36bd19b601f840160051c810191602085106102fa575b90601f859493920160051c01905b8181106102ec5750610133565b5f81558493506001016102df565b90915081906102d1565b634e487b7160e01b5f52602260045260245ffd5b91607f169161011f565b634e487b7160e01b5f52604160045260245ffd5b015190505f806100e7565b60035f9081528281209350601f198516905b81811061038f5750908460019594939210610377575b505050811b016003556100fc565b01515f1960f88460031b161c191690555f8080610369565b92936020600181928786015181550195019301610353565b60035f529091507fc2575a0e9e593c00f959f8c92f12db2869c3395a3b0502d05e2516446f71f85b601f840160051c8101916020851061040b575b90601f859493920160051c01905b8181106103fd57506100d1565b5f81558493506001016103f0565b90915081906103e2565b91607f16916100bd565b5f80fd5b6040519190601f01601f191682016001600160401b0381118382101761032257604052565b81601f8201121561041f578051906001600160401b03821161032257610477601f8301601f1916602001610423565b928284526020838301011161041f57815f9260208093018386015e830101529056fe6080806040526004361015610012575f80fd5b5f3560e01c90816306fdde031461055757508063095ea7b3146104d557806318160ddd146104b857806323b872dd146103d9578063313ce567146103b957806340c10f191461030057806370a08231146102c95780638da5cb5b146102a157806395d89b4114610186578063a035b1fe146100b6578063a9059cbb14610155578063d03a404514610127578063dd62ed3e146100d75763e1aa6036146100b6575f80fd5b346100d3575f3660031901126100d3576020600654604051908152f35b5f80fd5b346100d35760403660031901126100d3576100f0610650565b6100f8610666565b6001600160a01b039182165f908152600160209081526040808320949093168252928352819020549051908152f35b346100d35760203660031901126100d35761014d60018060a01b0360075416331461067c565b600435600655005b346100d35760403660031901126100d35761017b610171610650565b60243590336106c1565b602060405160018152f35b346100d3575f3660031901126100d3576040515f6004548060011c90600181168015610297575b602083108114610283578285529081156102675750600114610212575b50819003601f01601f191681019067ffffffffffffffff8211818310176101fe576101fa82918260405282610626565b0390f35b634e487b7160e01b5f52604160045260245ffd5b905060045f527f8a35acfbc15ff81a39ae7d344fd709f28e8600b4aa8c65c6b64bfe7fe36bd19b5f905b828210610251575060209150820101826101ca565b600181602092548385880101520191019061023c565b90506020925060ff191682840152151560051b820101826101ca565b634e487b7160e01b5f52602260045260245ffd5b91607f16916101ad565b346100d3575f3660031901126100d3576007546040516001600160a01b039091168152602090f35b346100d35760203660031901126100d3576001600160a01b036102ea610650565b165f525f602052602060405f2054604051908152f35b346100d35760403660031901126100d357610319610650565b6024359061033260018060a01b0360075416331461067c565b6001600160a01b03169081156103a657600254908082018092116103925760207fddf252ad1be2c89b69c2b068fc378daa952ba7f163c4a11628f55a4df523b3ef915f9360025584845283825260408420818154019055604051908152a3005b634e487b7160e01b5f52601160045260245ffd5b63ec442f0560e01b5f525f60045260245ffd5b346100d3575f3660031901126100d357602060ff60055416604051908152f35b346100d35760603660031901126100d3576103f2610650565b6103fa610666565b6001600160a01b0382165f818152600160209081526040808320338452909152902054909260443592915f198110610438575b5061017b93506106c1565b83811061049d57841561048a5733156104775761017b945f52600160205260405f2060018060a01b0333165f526020528360405f20910390558461042d565b634a1406b160e11b5f525f60045260245ffd5b63e602df0560e01b5f525f60045260245ffd5b8390637dc7a0d960e11b5f523360045260245260445260645ffd5b346100d3575f3660031901126100d3576020600254604051908152f35b346100d35760403660031901126100d3576104ee610650565b60243590331561048a576001600160a01b031690811561047757335f52600160205260405f20825f526020528060405f20556040519081527f8c5be1e5ebec7d5bd14f71427d1e84f3dd0314c0f7b2291e5b200ac8c7c3b92560203392a3602060405160018152f35b346100d3575f3660031901126100d3575f6003548060011c9060018116801561061c575b6020831081146102835782855290811561026757506001146105c75750819003601f01601f191681019067ffffffffffffffff8211818310176101fe576101fa82918260405282610626565b905060035f527fc2575a0e9e593c00f959f8c92f12db2869c3395a3b0502d05e2516446f71f85b5f905b828210610606575060209150820101826101ca565b60018160209254838588010152019101906105f1565b91607f169161057b565b602060409281835280519182918282860152018484015e5f828201840152601f01601f1916010190565b600435906001600160a01b03821682036100d357565b602435906001600160a01b03821682036100d357565b1561068357565b60405162461bcd60e51b81526020600482015260166024820152752737ba103a34329031b7b73a3930b1ba1037bbb732b960511b6044820152606490fd5b6001600160a01b0316908115610758576001600160a01b03169182156103a657815f525f60205260405f205481811061073f57817fddf252ad1be2c89b69c2b068fc378daa952ba7f163c4a11628f55a4df523b3ef92602092855f525f84520360405f2055845f525f825260405f20818154019055604051908152a3565b8263391434e360e21b5f5260045260245260445260645ffd5b634b637e8f60e11b5f525f60045260245ffdfea2646970667358221220f69474dd3d7746b4ae0b9a455657e01164ee254e2cbe174fe8ed6ec899bb046264736f6c634300081c003300000000000000000000000000000000000000000000000000000000000000c0000000000000000000000000000000000000000000000000000000000000010000000000000000000000000000000000000000000000d3c21bcecceda1000000000000000000000000000000000000000000000000000000000000000000001200000000000000000000000000000000000000000000000000dc44abe81300000000000000000000000000003b4f0135465d444a5bd06ab90fc59b73916c85f50000000000000000000000000000000000000000000000000000000000000007444f4745204149000000000000000000000000000000000000000000000000000000000000000000000000000000000000000000000000000000000000000006444f474541490000000000000000000000000000000000000000000000000000"
        }
      ],
      "isFixedGasLimit": false
    },
    {
      "hash": "0x2f2944c6c1f4167909400b088fcc342f221af0a8e574636e725cb605783a2fa6",
      "transactionType": "CALL",
      "contractName": "MockToken",
      "contractAddress": "0x191eb4c970b1a972c4fc4517a9f110ebd40dee05",
      "function": "approve(address,uint256)",
      "arguments": [
        "0xC090Da280082859B5744C8f3b27f1eE566d1675e",
        "16129032258064516129032258"
      ],
      "transaction": {
        "from": "0x3b4f0135465d444a5bd06ab90fc59b73916c85f5",
        "to": "0x191eb4c970b1a972c4fc4517a9f110ebd40dee05",
        "gas": "0xf838",
        "value": "0x0",
        "input": "0x095ea7b3000000000000000000000000c090da280082859b5744c8f3b27f1ee566d1675e0000000000000000000000000000000000000000000d577497390a5390210842",
        "nonce": "0xb3",
        "chainId": "0xdede"
      },
      "additionalContracts": [],
      "isFixedGasLimit": false
    },
    {
      "hash": "0x9299d4caa847f7c8d0a87a73141ad9487c9a2889a60535c0f7eed5eef8717c42",
      "transactionType": "CALL",
      "contractName": "Core",
      "contractAddress": "0xc090da280082859b5744c8f3b27f1ee566d1675e",
      "function": "addLiquidity(address,uint256)",
      "arguments": [
        "0x191EB4C970B1A972C4fc4517A9f110Ebd40deE05",
        "16129032258064516129032258"
      ],
      "transaction": {
        "from": "0x3b4f0135465d444a5bd06ab90fc59b73916c85f5",
        "to": "0xc090da280082859b5744c8f3b27f1ee566d1675e",
        "gas": "0x1c454",
        "value": "0x0",
        "input": "0x56688700000000000000000000000000191eb4c970b1a972c4fc4517a9f110ebd40dee050000000000000000000000000000000000000000000d577497390a5390210842",
        "nonce": "0xb4",
        "chainId": "0xdede"
      },
      "additionalContracts": [],
      "isFixedGasLimit": false
    },
    {
      "hash": "0xdd3a8114fd3ff7ed84f7aba901ae553d71f6c04bbb10e78d03a43dc99698fc5e",
      "transactionType": "CALL",
      "contractName": "TokenFactory",
      "contractAddress": "0x39bed14767138aba87d1f07b64088e1042239c59",
      "function": "createToken(string,string,uint256,uint8,uint256)",
      "arguments": [
        "dogwifhat",
        "WIF",
        "1000000000000000000000000",
        "18",
        "770000000000000000"
      ],
      "transaction": {
        "from": "0x3b4f0135465d444a5bd06ab90fc59b73916c85f5",
        "to": "0x39bed14767138aba87d1f07b64088e1042239c59",
        "gas": "0xcde38",
        "value": "0x0",
        "input": "0xedd8112300000000000000000000000000000000000000000000000000000000000000a000000000000000000000000000000000000000000000000000000000000000e000000000000000000000000000000000000000000000d3c21bcecceda100000000000000000000000000000000000000000000000000000000000000000000120000000000000000000000000000000000000000000000000aaf96eb9d0d00000000000000000000000000000000000000000000000000000000000000000009646f67776966686174000000000000000000000000000000000000000000000000000000000000000000000000000000000000000000000000000000000000035749460000000000000000000000000000000000000000000000000000000000",
        "nonce": "0xb5",
        "chainId": "0xdede"
      },
      "additionalContracts": [
        {
          "transactionType": "CREATE",
          "address": "0x458df501e4aee7f6380894e321e998f19a976bfa",
          "initCode": "0x60806040523461041f57610c3b8038038061001981610423565b92833981019060c08183031261041f5780516001600160401b03811161041f5782610045918301610448565b602082015190926001600160401b03821161041f57610065918301610448565b60408201519160608101519160ff831680930361041f57608082015160a0909201516001600160a01b038116959086900361041f578051906001600160401b0382116103225760035490600182811c92168015610415575b60208310146103045781601f8493116103a7575b50602090601f8311600114610341575f92610336575b50508160011b915f199060031b1c1916176003555b8051906001600160401b0382116103225760045490600182811c92168015610318575b60208310146103045781601f849311610296575b50602090601f8311600114610230575f92610225575b50508160011b915f199060031b1c1916176004555b6005805460ff191683179055600780546001600160a01b03191685179055600655604d81116101fe57600a0a908181029181830414901517156101fe57811561021257600254908082018092116101fe5760207fddf252ad1be2c89b69c2b068fc378daa952ba7f163c4a11628f55a4df523b3ef915f9360025584845283825260408420818154019055604051908152a36040516107a1908161049a8239f35b634e487b7160e01b5f52601160045260245ffd5b63ec442f0560e01b5f525f60045260245ffd5b015190505f80610149565b60045f9081528281209350601f198516905b81811061027e5750908460019594939210610266575b505050811b0160045561015e565b01515f1960f88460031b161c191690555f8080610258565b92936020600181928786015181550195019301610242565b60045f529091507f8a35acfbc15ff81a39ae7d344fd709f28e8600b4aa8c65c6b64bfe7fe36bd19b601f840160051c810191602085106102fa575b90601f859493920160051c01905b8181106102ec5750610133565b5f81558493506001016102df565b90915081906102d1565b634e487b7160e01b5f52602260045260245ffd5b91607f169161011f565b634e487b7160e01b5f52604160045260245ffd5b015190505f806100e7565b60035f9081528281209350601f198516905b81811061038f5750908460019594939210610377575b505050811b016003556100fc565b01515f1960f88460031b161c191690555f8080610369565b92936020600181928786015181550195019301610353565b60035f529091507fc2575a0e9e593c00f959f8c92f12db2869c3395a3b0502d05e2516446f71f85b601f840160051c8101916020851061040b575b90601f859493920160051c01905b8181106103fd57506100d1565b5f81558493506001016103f0565b90915081906103e2565b91607f16916100bd565b5f80fd5b6040519190601f01601f191682016001600160401b0381118382101761032257604052565b81601f8201121561041f578051906001600160401b03821161032257610477601f8301601f1916602001610423565b928284526020838301011161041f57815f9260208093018386015e830101529056fe6080806040526004361015610012575f80fd5b5f3560e01c90816306fdde031461055757508063095ea7b3146104d557806318160ddd146104b857806323b872dd146103d9578063313ce567146103b957806340c10f191461030057806370a08231146102c95780638da5cb5b146102a157806395d89b4114610186578063a035b1fe146100b6578063a9059cbb14610155578063d03a404514610127578063dd62ed3e146100d75763e1aa6036146100b6575f80fd5b346100d3575f3660031901126100d3576020600654604051908152f35b5f80fd5b346100d35760403660031901126100d3576100f0610650565b6100f8610666565b6001600160a01b039182165f908152600160209081526040808320949093168252928352819020549051908152f35b346100d35760203660031901126100d35761014d60018060a01b0360075416331461067c565b600435600655005b346100d35760403660031901126100d35761017b610171610650565b60243590336106c1565b602060405160018152f35b346100d3575f3660031901126100d3576040515f6004548060011c90600181168015610297575b602083108114610283578285529081156102675750600114610212575b50819003601f01601f191681019067ffffffffffffffff8211818310176101fe576101fa82918260405282610626565b0390f35b634e487b7160e01b5f52604160045260245ffd5b905060045f527f8a35acfbc15ff81a39ae7d344fd709f28e8600b4aa8c65c6b64bfe7fe36bd19b5f905b828210610251575060209150820101826101ca565b600181602092548385880101520191019061023c565b90506020925060ff191682840152151560051b820101826101ca565b634e487b7160e01b5f52602260045260245ffd5b91607f16916101ad565b346100d3575f3660031901126100d3576007546040516001600160a01b039091168152602090f35b346100d35760203660031901126100d3576001600160a01b036102ea610650565b165f525f602052602060405f2054604051908152f35b346100d35760403660031901126100d357610319610650565b6024359061033260018060a01b0360075416331461067c565b6001600160a01b03169081156103a657600254908082018092116103925760207fddf252ad1be2c89b69c2b068fc378daa952ba7f163c4a11628f55a4df523b3ef915f9360025584845283825260408420818154019055604051908152a3005b634e487b7160e01b5f52601160045260245ffd5b63ec442f0560e01b5f525f60045260245ffd5b346100d3575f3660031901126100d357602060ff60055416604051908152f35b346100d35760603660031901126100d3576103f2610650565b6103fa610666565b6001600160a01b0382165f818152600160209081526040808320338452909152902054909260443592915f198110610438575b5061017b93506106c1565b83811061049d57841561048a5733156104775761017b945f52600160205260405f2060018060a01b0333165f526020528360405f20910390558461042d565b634a1406b160e11b5f525f60045260245ffd5b63e602df0560e01b5f525f60045260245ffd5b8390637dc7a0d960e11b5f523360045260245260445260645ffd5b346100d3575f3660031901126100d3576020600254604051908152f35b346100d35760403660031901126100d3576104ee610650565b60243590331561048a576001600160a01b031690811561047757335f52600160205260405f20825f526020528060405f20556040519081527f8c5be1e5ebec7d5bd14f71427d1e84f3dd0314c0f7b2291e5b200ac8c7c3b92560203392a3602060405160018152f35b346100d3575f3660031901126100d3575f6003548060011c9060018116801561061c575b6020831081146102835782855290811561026757506001146105c75750819003601f01601f191681019067ffffffffffffffff8211818310176101fe576101fa82918260405282610626565b905060035f527fc2575a0e9e593c00f959f8c92f12db2869c3395a3b0502d05e2516446f71f85b5f905b828210610606575060209150820101826101ca565b60018160209254838588010152019101906105f1565b91607f169161057b565b602060409281835280519182918282860152018484015e5f828201840152601f01601f1916010190565b600435906001600160a01b03821682036100d357565b602435906001600160a01b03821682036100d357565b1561068357565b60405162461bcd60e51b81526020600482015260166024820152752737ba103a34329031b7b73a3930b1ba1037bbb732b960511b6044820152606490fd5b6001600160a01b0316908115610758576001600160a01b03169182156103a657815f525f60205260405f205481811061073f57817fddf252ad1be2c89b69c2b068fc378daa952ba7f163c4a11628f55a4df523b3ef92602092855f525f84520360405f2055845f525f825260405f20818154019055604051908152a3565b8263391434e360e21b5f5260045260245260445260645ffd5b634b637e8f60e11b5f525f60045260245ffdfea2646970667358221220f69474dd3d7746b4ae0b9a455657e01164ee254e2cbe174fe8ed6ec899bb046264736f6c634300081c003300000000000000000000000000000000000000000000000000000000000000c0000000000000000000000000000000000000000000000000000000000000010000000000000000000000000000000000000000000000d3c21bcecceda100000000000000000000000000000000000000000000000000000000000000000000120000000000000000000000000000000000000000000000000aaf96eb9d0d00000000000000000000000000003b4f0135465d444a5bd06ab90fc59b73916c85f50000000000000000000000000000000000000000000000000000000000000009646f67776966686174000000000000000000000000000000000000000000000000000000000000000000000000000000000000000000000000000000000000035749460000000000000000000000000000000000000000000000000000000000"
        }
      ],
      "isFixedGasLimit": false
    },
    {
      "hash": "0x1b513c623406aeb65bbf8b1193a95786271eb1fa0fef03faed64b5c34df67b2a",
      "transactionType": "CALL",
      "contractName": "MockToken",
      "contractAddress": "0x458df501e4aee7f6380894e321e998f19a976bfa",
      "function": "approve(address,uint256)",
      "arguments": [
        "0xC090Da280082859B5744C8f3b27f1eE566d1675e",
        "1298701298701298701298701"
      ],
      "transaction": {
        "from": "0x3b4f0135465d444a5bd06ab90fc59b73916c85f5",
        "to": "0x458df501e4aee7f6380894e321e998f19a976bfa",
        "gas": "0xf838",
        "value": "0x0",
        "input": "0x095ea7b3000000000000000000000000c090da280082859b5744c8f3b27f1ee566d1675e000000000000000000000000000000000000000000011302bd0c9273c71dec0d",
        "nonce": "0xb6",
        "chainId": "0xdede"
      },
      "additionalContracts": [],
      "isFixedGasLimit": false
    },
    {
      "hash": "0x6542f9c83951e1039f3ea327f1c7a56846295d4b5b5c0d8c92293397d347f67a",
      "transactionType": "CALL",
      "contractName": "Core",
      "contractAddress": "0xc090da280082859b5744c8f3b27f1ee566d1675e",
      "function": "addLiquidity(address,uint256)",
      "arguments": [
        "0x458Df501e4aee7f6380894E321e998f19A976bFa",
        "1298701298701298701298701"
      ],
      "transaction": {
        "from": "0x3b4f0135465d444a5bd06ab90fc59b73916c85f5",
        "to": "0xc090da280082859b5744c8f3b27f1ee566d1675e",
        "gas": "0x1c454",
        "value": "0x0",
        "input": "0x56688700000000000000000000000000458df501e4aee7f6380894e321e998f19a976bfa000000000000000000000000000000000000000000011302bd0c9273c71dec0d",
        "nonce": "0xb7",
        "chainId": "0xdede"
      },
      "additionalContracts": [],
      "isFixedGasLimit": false
    },
    {
      "hash": "0xd0f34ba7f81daeb200998873df2da0b91acc8995b98a0139990d9792e0b625cf",
      "transactionType": "CALL",
      "contractName": "TokenFactory",
      "contractAddress": "0x39bed14767138aba87d1f07b64088e1042239c59",
      "function": "createToken(string,string,uint256,uint8,uint256)",
      "arguments": [
        "STONKS",
        "STONKS",
        "1000000000000000000000000",
        "18",
        "50000000000000000"
      ],
      "transaction": {
        "from": "0x3b4f0135465d444a5bd06ab90fc59b73916c85f5",
        "to": "0x39bed14767138aba87d1f07b64088e1042239c59",
        "gas": "0xcde2b",
        "value": "0x0",
        "input": "0xedd8112300000000000000000000000000000000000000000000000000000000000000a000000000000000000000000000000000000000000000000000000000000000e000000000000000000000000000000000000000000000d3c21bcecceda1000000000000000000000000000000000000000000000000000000000000000000001200000000000000000000000000000000000000000000000000b1a2bc2ec50000000000000000000000000000000000000000000000000000000000000000000653544f4e4b530000000000000000000000000000000000000000000000000000000000000000000000000000000000000000000000000000000000000000000653544f4e4b530000000000000000000000000000000000000000000000000000",
        "nonce": "0xb8",
        "chainId": "0xdede"
      },
      "additionalContracts": [
        {
          "transactionType": "CREATE",
          "address": "0xf1af6fd2726213278a221f9d6ff09b0edf9d8888",
          "initCode": "0x60806040523461041f57610c3b8038038061001981610423565b92833981019060c08183031261041f5780516001600160401b03811161041f5782610045918301610448565b602082015190926001600160401b03821161041f57610065918301610448565b60408201519160608101519160ff831680930361041f57608082015160a0909201516001600160a01b038116959086900361041f578051906001600160401b0382116103225760035490600182811c92168015610415575b60208310146103045781601f8493116103a7575b50602090601f8311600114610341575f92610336575b50508160011b915f199060031b1c1916176003555b8051906001600160401b0382116103225760045490600182811c92168015610318575b60208310146103045781601f849311610296575b50602090601f8311600114610230575f92610225575b50508160011b915f199060031b1c1916176004555b6005805460ff191683179055600780546001600160a01b03191685179055600655604d81116101fe57600a0a908181029181830414901517156101fe57811561021257600254908082018092116101fe5760207fddf252ad1be2c89b69c2b068fc378daa952ba7f163c4a11628f55a4df523b3ef915f9360025584845283825260408420818154019055604051908152a36040516107a1908161049a8239f35b634e487b7160e01b5f52601160045260245ffd5b63ec442f0560e01b5f525f60045260245ffd5b015190505f80610149565b60045f9081528281209350601f198516905b81811061027e5750908460019594939210610266575b505050811b0160045561015e565b01515f1960f88460031b161c191690555f8080610258565b92936020600181928786015181550195019301610242565b60045f529091507f8a35acfbc15ff81a39ae7d344fd709f28e8600b4aa8c65c6b64bfe7fe36bd19b601f840160051c810191602085106102fa575b90601f859493920160051c01905b8181106102ec5750610133565b5f81558493506001016102df565b90915081906102d1565b634e487b7160e01b5f52602260045260245ffd5b91607f169161011f565b634e487b7160e01b5f52604160045260245ffd5b015190505f806100e7565b60035f9081528281209350601f198516905b81811061038f5750908460019594939210610377575b505050811b016003556100fc565b01515f1960f88460031b161c191690555f8080610369565b92936020600181928786015181550195019301610353565b60035f529091507fc2575a0e9e593c00f959f8c92f12db2869c3395a3b0502d05e2516446f71f85b601f840160051c8101916020851061040b575b90601f859493920160051c01905b8181106103fd57506100d1565b5f81558493506001016103f0565b90915081906103e2565b91607f16916100bd565b5f80fd5b6040519190601f01601f191682016001600160401b0381118382101761032257604052565b81601f8201121561041f578051906001600160401b03821161032257610477601f8301601f1916602001610423565b928284526020838301011161041f57815f9260208093018386015e830101529056fe6080806040526004361015610012575f80fd5b5f3560e01c90816306fdde031461055757508063095ea7b3146104d557806318160ddd146104b857806323b872dd146103d9578063313ce567146103b957806340c10f191461030057806370a08231146102c95780638da5cb5b146102a157806395d89b4114610186578063a035b1fe146100b6578063a9059cbb14610155578063d03a404514610127578063dd62ed3e146100d75763e1aa6036146100b6575f80fd5b346100d3575f3660031901126100d3576020600654604051908152f35b5f80fd5b346100d35760403660031901126100d3576100f0610650565b6100f8610666565b6001600160a01b039182165f908152600160209081526040808320949093168252928352819020549051908152f35b346100d35760203660031901126100d35761014d60018060a01b0360075416331461067c565b600435600655005b346100d35760403660031901126100d35761017b610171610650565b60243590336106c1565b602060405160018152f35b346100d3575f3660031901126100d3576040515f6004548060011c90600181168015610297575b602083108114610283578285529081156102675750600114610212575b50819003601f01601f191681019067ffffffffffffffff8211818310176101fe576101fa82918260405282610626565b0390f35b634e487b7160e01b5f52604160045260245ffd5b905060045f527f8a35acfbc15ff81a39ae7d344fd709f28e8600b4aa8c65c6b64bfe7fe36bd19b5f905b828210610251575060209150820101826101ca565b600181602092548385880101520191019061023c565b90506020925060ff191682840152151560051b820101826101ca565b634e487b7160e01b5f52602260045260245ffd5b91607f16916101ad565b346100d3575f3660031901126100d3576007546040516001600160a01b039091168152602090f35b346100d35760203660031901126100d3576001600160a01b036102ea610650565b165f525f602052602060405f2054604051908152f35b346100d35760403660031901126100d357610319610650565b6024359061033260018060a01b0360075416331461067c565b6001600160a01b03169081156103a657600254908082018092116103925760207fddf252ad1be2c89b69c2b068fc378daa952ba7f163c4a11628f55a4df523b3ef915f9360025584845283825260408420818154019055604051908152a3005b634e487b7160e01b5f52601160045260245ffd5b63ec442f0560e01b5f525f60045260245ffd5b346100d3575f3660031901126100d357602060ff60055416604051908152f35b346100d35760603660031901126100d3576103f2610650565b6103fa610666565b6001600160a01b0382165f818152600160209081526040808320338452909152902054909260443592915f198110610438575b5061017b93506106c1565b83811061049d57841561048a5733156104775761017b945f52600160205260405f2060018060a01b0333165f526020528360405f20910390558461042d565b634a1406b160e11b5f525f60045260245ffd5b63e602df0560e01b5f525f60045260245ffd5b8390637dc7a0d960e11b5f523360045260245260445260645ffd5b346100d3575f3660031901126100d3576020600254604051908152f35b346100d35760403660031901126100d3576104ee610650565b60243590331561048a576001600160a01b031690811561047757335f52600160205260405f20825f526020528060405f20556040519081527f8c5be1e5ebec7d5bd14f71427d1e84f3dd0314c0f7b2291e5b200ac8c7c3b92560203392a3602060405160018152f35b346100d3575f3660031901126100d3575f6003548060011c9060018116801561061c575b6020831081146102835782855290811561026757506001146105c75750819003601f01601f191681019067ffffffffffffffff8211818310176101fe576101fa82918260405282610626565b905060035f527fc2575a0e9e593c00f959f8c92f12db2869c3395a3b0502d05e2516446f71f85b5f905b828210610606575060209150820101826101ca565b60018160209254838588010152019101906105f1565b91607f169161057b565b602060409281835280519182918282860152018484015e5f828201840152601f01601f1916010190565b600435906001600160a01b03821682036100d357565b602435906001600160a01b03821682036100d357565b1561068357565b60405162461bcd60e51b81526020600482015260166024820152752737ba103a34329031b7b73a3930b1ba1037bbb732b960511b6044820152606490fd5b6001600160a01b0316908115610758576001600160a01b03169182156103a657815f525f60205260405f205481811061073f57817fddf252ad1be2c89b69c2b068fc378daa952ba7f163c4a11628f55a4df523b3ef92602092855f525f84520360405f2055845f525f825260405f20818154019055604051908152a3565b8263391434e360e21b5f5260045260245260445260645ffd5b634b637e8f60e11b5f525f60045260245ffdfea2646970667358221220f69474dd3d7746b4ae0b9a455657e01164ee254e2cbe174fe8ed6ec899bb046264736f6c634300081c003300000000000000000000000000000000000000000000000000000000000000c0000000000000000000000000000000000000000000000000000000000000010000000000000000000000000000000000000000000000d3c21bcecceda1000000000000000000000000000000000000000000000000000000000000000000001200000000000000000000000000000000000000000000000000b1a2bc2ec500000000000000000000000000003b4f0135465d444a5bd06ab90fc59b73916c85f5000000000000000000000000000000000000000000000000000000000000000653544f4e4b530000000000000000000000000000000000000000000000000000000000000000000000000000000000000000000000000000000000000000000653544f4e4b530000000000000000000000000000000000000000000000000000"
        }
      ],
      "isFixedGasLimit": false
    },
    {
      "hash": "0x2438c6f7f29e8bdb4f511222ce9ce7078d894a85a6481ff918c34dc065c42d67",
      "transactionType": "CALL",
      "contractName": "MockToken",
      "contractAddress": "0xf1af6fd2726213278a221f9d6ff09b0edf9d8888",
      "function": "approve(address,uint256)",
      "arguments": [
        "0xC090Da280082859B5744C8f3b27f1eE566d1675e",
        "20000000000000000000000000"
      ],
      "transaction": {
        "from": "0x3b4f0135465d444a5bd06ab90fc59b73916c85f5",
        "to": "0xf1af6fd2726213278a221f9d6ff09b0edf9d8888",
        "gas": "0x1069d",
        "value": "0x0",
        "input": "0x095ea7b3000000000000000000000000c090da280082859b5744c8f3b27f1ee566d1675e000000000000000000000000000000000000000000108b2a2c28029094000000",
        "nonce": "0xb9",
        "chainId": "0xdede"
      },
      "additionalContracts": [],
      "isFixedGasLimit": false
    },
    {
      "hash": "0x62f7556c27259490059f6fe9a5850fdf874816aa4c989b9e81a9fcbb7fcbfa37",
      "transactionType": "CALL",
      "contractName": "Core",
      "contractAddress": "0xc090da280082859b5744c8f3b27f1ee566d1675e",
      "function": "addLiquidity(address,uint256)",
      "arguments": [
        "0xF1AF6fd2726213278A221F9D6FF09B0EDf9d8888",
        "20000000000000000000000000"
      ],
      "transaction": {
        "from": "0x3b4f0135465d444a5bd06ab90fc59b73916c85f5",
        "to": "0xc090da280082859b5744c8f3b27f1ee566d1675e",
        "gas": "0x1ab01",
        "value": "0x0",
        "input": "0x56688700000000000000000000000000f1af6fd2726213278a221f9d6ff09b0edf9d8888000000000000000000000000000000000000000000108b2a2c28029094000000",
        "nonce": "0xba",
        "chainId": "0xdede"
      },
      "additionalContracts": [],
      "isFixedGasLimit": false
    }
  ],
  "receipts": [
    {
      "status": "0x1",
      "cumulativeGasUsed": "0xd74ca",
      "logs": [],
      "logsBloom": "0x00000000000000000000000000000000000000000000000000000000000000000000000000000000000000000000000000000000000000000000000000000000000000000000000000000000000000000000000000000000000000000000000000000000000000000000000000000000000000000000000000000000000000000000000000000000000000000000000000000000000000000000000000000000000000000000000000000000000000000000000000000000000000000000000000000000000000000000000000000000000000000000000000000000000000000000000000000000000000000000000000000000000000000000000000000000",
      "type": "0x2",
      "transactionHash": "0x31c0d4e85b3fd46b1836773e9b2e94f53b2ad55837be03310f6deb4e2a74ad8e",
      "transactionIndex": "0x0",
      "blockHash": "0x3bb679774186970b7d9f4ccb046e9522ce1232a42e3c50e4c8677ecb4e6ee0f7",
      "blockNumber": "0x17c9a88",
      "gasUsed": "0xd74ca",
      "effectiveGasPrice": "0x3b9aca01",
      "from": "0x3b4f0135465d444a5bd06ab90fc59b73916c85f5",
      "to": null,
      "contractAddress": "0x39bed14767138aba87d1f07b64088e1042239c59"
    },
    {
      "status": "0x1",
      "cumulativeGasUsed": "0x75622",
      "logs": [],
      "logsBloom": "0x00000000000000000000000000000000000000000000000000000000000000000000000000000000000000000000000000000000000000000000000000000000000000000000000000000000000000000000000000000000000000000000000000000000000000000000000000000000000000000000000000000000000000000000000000000000000000000000000000000000000000000000000000000000000000000000000000000000000000000000000000000000000000000000000000000000000000000000000000000000000000000000000000000000000000000000000000000000000000000000000000000000000000000000000000000000",
      "type": "0x2",
      "transactionHash": "0x574ad5239be782ef25f6cf0107765a933b5348f5460eebdf7353c75a86c7ecc7",
      "transactionIndex": "0x0",
      "blockHash": "0x725620f29ccd888665047c0a61edf924a2f0a3849ea902044cdcd5fee02423da",
      "blockNumber": "0x17c9a8a",
      "gasUsed": "0x75622",
      "effectiveGasPrice": "0x3b9aca01",
      "from": "0x3b4f0135465d444a5bd06ab90fc59b73916c85f5",
      "to": null,
      "contractAddress": "0xc090da280082859b5744c8f3b27f1ee566d1675e"
    },
    {
      "status": "0x1",
      "cumulativeGasUsed": "0x9ab97",
      "logs": [
        {
          "address": "0x8238654830969a21adeb1d4c3d8d9b72d1dfbd7b",
          "topics": [
            "0xddf252ad1be2c89b69c2b068fc378daa952ba7f163c4a11628f55a4df523b3ef",
            "0x0000000000000000000000000000000000000000000000000000000000000000",
            "0x0000000000000000000000003b4f0135465d444a5bd06ab90fc59b73916c85f5"
          ],
          "data": "0x00000000000000000000000000000b7abc627050305adf14a3d9e40000000000",
          "blockHash": "0x00e3e4d9173cf2db5dcc0bd2093d52926c3673174303dc3eaed620408da29c42",
          "blockNumber": "0x17c9a8c",
          "transactionHash": "0x618ee43714d52c053b3b38c2e4bca39d22bf5892b7b7c061fea494b46821ba91",
          "transactionIndex": "0x0",
          "logIndex": "0x0",
          "removed": false
        },
        {
          "address": "0x39bed14767138aba87d1f07b64088e1042239c59",
          "topics": [
            "0xaf5156078ffc09d447c818754d2e4310cc3f95e36cb33f85723785b122371ed5",
            "0x0000000000000000000000008238654830969a21adeb1d4c3d8d9b72d1dfbd7b"
          ],
          "data": "0x00000000000000000000000000000000000000000000000000000000000000c0000000000000000000000000000000000000000000000000000000000000010000000000000000000000000000000000000000000000d3c21bcecceda100000000000000000000000000000000000000000000000000000000000000000000120000000000000000000000000000000000000000000000000de0b6b3a76400000000000000000000000000003b4f0135465d444a5bd06ab90fc59b73916c85f50000000000000000000000000000000000000000000000000000000000000005534f4e494300000000000000000000000000000000000000000000000000000000000000000000000000000000000000000000000000000000000000000000015300000000000000000000000000000000000000000000000000000000000000",
          "blockHash": "0x00e3e4d9173cf2db5dcc0bd2093d52926c3673174303dc3eaed620408da29c42",
          "blockNumber": "0x17c9a8c",
          "transactionHash": "0x618ee43714d52c053b3b38c2e4bca39d22bf5892b7b7c061fea494b46821ba91",
          "transactionIndex": "0x0",
          "logIndex": "0x1",
          "removed": false
        }
      ],
      "logsBloom": "0x00000000000000080000000000000000000000000020000000000020010000000000000000000000000000000000000000000000000000000000000004400000000000000000000000000008000000000000000000000000000000000000000000000000020000000000000000000800000000000000000000000010000000000000000000000000000000014000000000000000000000000000000000000000000000000000000000000000000000000000000000000008000000000000100000000102000000000000000000000000000000000000000002000000000020000000008000000000000000000000001000000000000000000000000000002000",
      "type": "0x2",
      "transactionHash": "0x618ee43714d52c053b3b38c2e4bca39d22bf5892b7b7c061fea494b46821ba91",
      "transactionIndex": "0x0",
      "blockHash": "0x00e3e4d9173cf2db5dcc0bd2093d52926c3673174303dc3eaed620408da29c42",
      "blockNumber": "0x17c9a8c",
      "gasUsed": "0x9ab97",
      "effectiveGasPrice": "0x3b9aca01",
      "from": "0x3b4f0135465d444a5bd06ab90fc59b73916c85f5",
      "to": "0x39bed14767138aba87d1f07b64088e1042239c59",
      "contractAddress": null
    },
    {
      "status": "0x1",
      "cumulativeGasUsed": "0xa65f4",
      "logs": [
        {
          "address": "0x8238654830969a21adeb1d4c3d8d9b72d1dfbd7b",
          "topics": [
            "0x8c5be1e5ebec7d5bd14f71427d1e84f3dd0314c0f7b2291e5b200ac8c7c3b925",
            "0x0000000000000000000000003b4f0135465d444a5bd06ab90fc59b73916c85f5",
            "0x000000000000000000000000c090da280082859b5744c8f3b27f1ee566d1675e"
          ],
          "data": "0x00000000000000000000000000000000000000000000d3c21bcecceda1000000",
          "blockHash": "0x00e3e4d9173cf2db5dcc0bd2093d52926c3673174303dc3eaed620408da29c42",
          "blockNumber": "0x17c9a8c",
          "transactionHash": "0x51cdc4c68707a2b1a9fb8901497d720920901f0bc738ae156ae29cbf82fb5ba1",
          "transactionIndex": "0x1",
          "logIndex": "0x2",
          "removed": false
        }
      ],
      "logsBloom": "0x00000000000000080000000000000000000000000000000001000020000000000000000000000000000000000000000000000000000000000000000000600000000000000000000000000000000000000000000000000000000000000000000000000000000000000000000000000000000000000000000000000000000000001000000000000000000000000000000000000000000000000000000000000000020000000000000000000000000000000000000000000008000000000000000000000100000000000000000000000000000000000000000000000000000000000010000000000000000000000000001004000000000000000000000000000000",
      "type": "0x2",
      "transactionHash": "0x51cdc4c68707a2b1a9fb8901497d720920901f0bc738ae156ae29cbf82fb5ba1",
      "transactionIndex": "0x1",
      "blockHash": "0x00e3e4d9173cf2db5dcc0bd2093d52926c3673174303dc3eaed620408da29c42",
      "blockNumber": "0x17c9a8c",
      "gasUsed": "0xba5d",
      "effectiveGasPrice": "0x3b9aca01",
      "from": "0x3b4f0135465d444a5bd06ab90fc59b73916c85f5",
      "to": "0x8238654830969a21adeb1d4c3d8d9b72d1dfbd7b",
      "contractAddress": null
    },
    {
      "status": "0x1",
      "cumulativeGasUsed": "0xba778",
      "logs": [
        {
          "address": "0x8238654830969a21adeb1d4c3d8d9b72d1dfbd7b",
          "topics": [
            "0xddf252ad1be2c89b69c2b068fc378daa952ba7f163c4a11628f55a4df523b3ef",
            "0x0000000000000000000000003b4f0135465d444a5bd06ab90fc59b73916c85f5",
            "0x000000000000000000000000c090da280082859b5744c8f3b27f1ee566d1675e"
          ],
          "data": "0x00000000000000000000000000000000000000000000d3c21bcecceda1000000",
          "blockHash": "0x00e3e4d9173cf2db5dcc0bd2093d52926c3673174303dc3eaed620408da29c42",
          "blockNumber": "0x17c9a8c",
          "transactionHash": "0x7f2823404b25cfad345630795ca64ee05069ca7b54b141e829ed41ce6991a82b",
          "transactionIndex": "0x2",
          "logIndex": "0x3",
          "removed": false
        },
        {
          "address": "0xc090da280082859b5744c8f3b27f1ee566d1675e",
          "topics": [
            "0x9d278c56ba6dc86a12eefe6b43112bd6e06648eb4ec0b950ee2d783d40e2acb4",
            "0x0000000000000000000000003b4f0135465d444a5bd06ab90fc59b73916c85f5"
          ],
          "data": "0x0000000000000000000000008238654830969a21adeb1d4c3d8d9b72d1dfbd7b00000000000000000000000000000000000000000000d3c21bcecceda1000000",
          "blockHash": "0x00e3e4d9173cf2db5dcc0bd2093d52926c3673174303dc3eaed620408da29c42",
          "blockNumber": "0x17c9a8c",
          "transactionHash": "0x7f2823404b25cfad345630795ca64ee05069ca7b54b141e829ed41ce6991a82b",
          "transactionIndex": "0x2",
          "logIndex": "0x4",
          "removed": false
        }
      ],
      "logsBloom": "0x00000000000000080000000000000000008000000000002001000020000000000000000000000000000000000000000000000000000000000000000000400000000000000000000000000008000000000000000000000000000000000000000000000000000000000000000000000000000000000200000040000010000000001000000000000000000000000000000000000000000000000000000000000000000000001000000000000000000000000000000000000008000000000000000000000102000000000000000000000000000000000000000000000000000000000000000400000000000000000000001004000000000000000000000000000000",
      "type": "0x2",
      "transactionHash": "0x7f2823404b25cfad345630795ca64ee05069ca7b54b141e829ed41ce6991a82b",
      "transactionIndex": "0x2",
      "blockHash": "0x00e3e4d9173cf2db5dcc0bd2093d52926c3673174303dc3eaed620408da29c42",
      "blockNumber": "0x17c9a8c",
      "gasUsed": "0x14184",
      "effectiveGasPrice": "0x3b9aca01",
      "from": "0x3b4f0135465d444a5bd06ab90fc59b73916c85f5",
      "to": "0xc090da280082859b5744c8f3b27f1ee566d1675e",
      "contractAddress": null
    },
    {
      "status": "0x1",
      "cumulativeGasUsed": "0x15535a",
      "logs": [
        {
          "address": "0x14ca5409727f55b9b9e2ca356c8489a40441b16c",
          "topics": [
            "0xddf252ad1be2c89b69c2b068fc378daa952ba7f163c4a11628f55a4df523b3ef",
            "0x0000000000000000000000000000000000000000000000000000000000000000",
            "0x0000000000000000000000003b4f0135465d444a5bd06ab90fc59b73916c85f5"
          ],
          "data": "0x00000000000000000000000000000b7abc627050305adf14a3d9e40000000000",
          "blockHash": "0x00e3e4d9173cf2db5dcc0bd2093d52926c3673174303dc3eaed620408da29c42",
          "blockNumber": "0x17c9a8c",
          "transactionHash": "0x59bb51756982c79f6f8bb053611f36632d1f9ab3930a8d88c3cdb03dacfe3ebb",
          "transactionIndex": "0x3",
          "logIndex": "0x5",
          "removed": false
        },
        {
          "address": "0x39bed14767138aba87d1f07b64088e1042239c59",
          "topics": [
            "0xaf5156078ffc09d447c818754d2e4310cc3f95e36cb33f85723785b122371ed5",
            "0x00000000000000000000000014ca5409727f55b9b9e2ca356c8489a40441b16c"
          ],
          "data": "0x00000000000000000000000000000000000000000000000000000000000000c0000000000000000000000000000000000000000000000000000000000000010000000000000000000000000000000000000000000000d3c21bcecceda1000000000000000000000000000000000000000000000000000000000000000000001200000000000000000000000000000000000000000000009365b47e1edf1c00000000000000000000000000003b4f0135465d444a5bd06ab90fc59b73916c85f50000000000000000000000000000000000000000000000000000000000000008457468657265756d00000000000000000000000000000000000000000000000000000000000000000000000000000000000000000000000000000000000000034554480000000000000000000000000000000000000000000000000000000000",
          "blockHash": "0x00e3e4d9173cf2db5dcc0bd2093d52926c3673174303dc3eaed620408da29c42",
          "blockNumber": "0x17c9a8c",
          "transactionHash": "0x59bb51756982c79f6f8bb053611f36632d1f9ab3930a8d88c3cdb03dacfe3ebb",
          "transactionIndex": "0x3",
          "logIndex": "0x6",
          "removed": false
        }
      ],
      "logsBloom": "0x00000000000000000000000000000000000000000020000000000020000000200000000000000000000000000000000000000000000000000000000004400000000000000000000000000008000000000000000000000000000000000000000000000000020000000000000000000800000000000000000000000010000000000002000000000000000000004000000000000400000000000000000000000000000000000000000000000000000000000000000000000000000200000000000000000102000000000000000000000000000000000000000002000000000020000000008000000000000000000000000000000000000000400000000000002000",
      "type": "0x2",
      "transactionHash": "0x59bb51756982c79f6f8bb053611f36632d1f9ab3930a8d88c3cdb03dacfe3ebb",
      "transactionIndex": "0x3",
      "blockHash": "0x00e3e4d9173cf2db5dcc0bd2093d52926c3673174303dc3eaed620408da29c42",
      "blockNumber": "0x17c9a8c",
      "gasUsed": "0x9abe2",
      "effectiveGasPrice": "0x3b9aca01",
      "from": "0x3b4f0135465d444a5bd06ab90fc59b73916c85f5",
      "to": "0x39bed14767138aba87d1f07b64088e1042239c59",
      "contractAddress": null
    },
    {
      "status": "0x1",
      "cumulativeGasUsed": "0x160dcf",
      "logs": [
        {
          "address": "0x14ca5409727f55b9b9e2ca356c8489a40441b16c",
          "topics": [
            "0x8c5be1e5ebec7d5bd14f71427d1e84f3dd0314c0f7b2291e5b200ac8c7c3b925",
            "0x0000000000000000000000003b4f0135465d444a5bd06ab90fc59b73916c85f5",
            "0x000000000000000000000000c090da280082859b5744c8f3b27f1ee566d1675e"
          ],
          "data": "0x000000000000000000000000000000000000000000000013f0011c9a7f42487f",
          "blockHash": "0x00e3e4d9173cf2db5dcc0bd2093d52926c3673174303dc3eaed620408da29c42",
          "blockNumber": "0x17c9a8c",
          "transactionHash": "0x720da41527f84536df91beb727bd42453f04432ea9389905cddd3767fe3f86dc",
          "transactionIndex": "0x4",
          "logIndex": "0x7",
          "removed": false
        }
      ],
      "logsBloom": "0x00000000000000000000000000000000000000000020000001000020000000200000000000000000000000000000000000000000000000000000000000600000000000000000000000000000000000000000000000000000000000000000000000000000000000000000000000000000000000000000000000000000000000001002000000000000000000000000000000000000000000000000000000000000020000000000000000000000000000000000000000000000000000000000000000000100000000000000000000000000000000000000000000000000000000000010000000000000000000000000000004000000000000000000000000000000",
      "type": "0x2",
      "transactionHash": "0x720da41527f84536df91beb727bd42453f04432ea9389905cddd3767fe3f86dc",
      "transactionIndex": "0x4",
      "blockHash": "0x00e3e4d9173cf2db5dcc0bd2093d52926c3673174303dc3eaed620408da29c42",
      "blockNumber": "0x17c9a8c",
      "gasUsed": "0xba75",
      "effectiveGasPrice": "0x3b9aca01",
      "from": "0x3b4f0135465d444a5bd06ab90fc59b73916c85f5",
      "to": "0x14ca5409727f55b9b9e2ca356c8489a40441b16c",
      "contractAddress": null
    },
    {
      "status": "0x1",
      "cumulativeGasUsed": "0x174f6c",
      "logs": [
        {
          "address": "0x14ca5409727f55b9b9e2ca356c8489a40441b16c",
          "topics": [
            "0xddf252ad1be2c89b69c2b068fc378daa952ba7f163c4a11628f55a4df523b3ef",
            "0x0000000000000000000000003b4f0135465d444a5bd06ab90fc59b73916c85f5",
            "0x000000000000000000000000c090da280082859b5744c8f3b27f1ee566d1675e"
          ],
          "data": "0x000000000000000000000000000000000000000000000013f0011c9a7f42487f",
          "blockHash": "0x00e3e4d9173cf2db5dcc0bd2093d52926c3673174303dc3eaed620408da29c42",
          "blockNumber": "0x17c9a8c",
          "transactionHash": "0x94456ad3f1f8dbeda94aae52c891401e71198f01315d7815770dcc89a3acbad7",
          "transactionIndex": "0x5",
          "logIndex": "0x8",
          "removed": false
        },
        {
          "address": "0xc090da280082859b5744c8f3b27f1ee566d1675e",
          "topics": [
            "0x9d278c56ba6dc86a12eefe6b43112bd6e06648eb4ec0b950ee2d783d40e2acb4",
            "0x0000000000000000000000003b4f0135465d444a5bd06ab90fc59b73916c85f5"
          ],
          "data": "0x00000000000000000000000014ca5409727f55b9b9e2ca356c8489a40441b16c000000000000000000000000000000000000000000000013f0011c9a7f42487f",
          "blockHash": "0x00e3e4d9173cf2db5dcc0bd2093d52926c3673174303dc3eaed620408da29c42",
          "blockNumber": "0x17c9a8c",
          "transactionHash": "0x94456ad3f1f8dbeda94aae52c891401e71198f01315d7815770dcc89a3acbad7",
          "transactionIndex": "0x5",
          "logIndex": "0x9",
          "removed": false
        }
      ],
      "logsBloom": "0x00000000000000000000000000000000008000000020002001000020000000200000000000000000000000000000000000000000000000000000000000400000000000000000000000000008000000000000000000000000000000000000000000000000000000000000000000000000000000000200000040000010000000001002000000000000000000000000000000000000000000000000000000000000000000001000000000000000000000000000000000000000000000000000000000000102000000000000000000000000000000000000000000000000000000000000000400000000000000000000000004000000000000000000000000000000",
      "type": "0x2",
      "transactionHash": "0x94456ad3f1f8dbeda94aae52c891401e71198f01315d7815770dcc89a3acbad7",
      "transactionIndex": "0x5",
      "blockHash": "0x00e3e4d9173cf2db5dcc0bd2093d52926c3673174303dc3eaed620408da29c42",
      "blockNumber": "0x17c9a8c",
      "gasUsed": "0x1419d",
      "effectiveGasPrice": "0x3b9aca01",
      "from": "0x3b4f0135465d444a5bd06ab90fc59b73916c85f5",
      "to": "0xc090da280082859b5744c8f3b27f1ee566d1675e",
      "contractAddress": null
    },
    {
      "status": "0x1",
      "cumulativeGasUsed": "0x20fb4e",
      "logs": [
        {
          "address": "0x8e3d5b26cfe650123a822de0e1f09fa680a30278",
          "topics": [
            "0xddf252ad1be2c89b69c2b068fc378daa952ba7f163c4a11628f55a4df523b3ef",
            "0x0000000000000000000000000000000000000000000000000000000000000000",
            "0x0000000000000000000000003b4f0135465d444a5bd06ab90fc59b73916c85f5"
          ],
          "data": "0x00000000000000000000000000000b7abc627050305adf14a3d9e40000000000",
          "blockHash": "0x00e3e4d9173cf2db5dcc0bd2093d52926c3673174303dc3eaed620408da29c42",
          "blockNumber": "0x17c9a8c",
          "transactionHash": "0xec2ae625c991e610438e0e48de59de3fb0ed315b77dda54c68480a799e49cff7",
          "transactionIndex": "0x6",
          "logIndex": "0xa",
          "removed": false
        },
        {
          "address": "0x39bed14767138aba87d1f07b64088e1042239c59",
          "topics": [
            "0xaf5156078ffc09d447c818754d2e4310cc3f95e36cb33f85723785b122371ed5",
            "0x0000000000000000000000008e3d5b26cfe650123a822de0e1f09fa680a30278"
          ],
          "data": "0x00000000000000000000000000000000000000000000000000000000000000c0000000000000000000000000000000000000000000000000000000000000010000000000000000000000000000000000000000000000d3c21bcecceda10000000000000000000000000000000000000000000000000000000000000000000012000000000000000000000000000000000000000000000dd3eb8b39c5afd000000000000000000000000000003b4f0135465d444a5bd06ab90fc59b73916c85f50000000000000000000000000000000000000000000000000000000000000007426974636f696e0000000000000000000000000000000000000000000000000000000000000000000000000000000000000000000000000000000000000000034254430000000000000000000000000000000000000000000000000000000000",
          "blockHash": "0x00e3e4d9173cf2db5dcc0bd2093d52926c3673174303dc3eaed620408da29c42",
          "blockNumber": "0x17c9a8c",
          "transactionHash": "0xec2ae625c991e610438e0e48de59de3fb0ed315b77dda54c68480a799e49cff7",
          "transactionIndex": "0x6",
          "logIndex": "0xb",
          "removed": false
        }
      ],
      "logsBloom": "0x01000000000000001000000000000000000000000020000000000020000000000000000000000000000000000000000000000000000100000000000004400000000000000000000000000008000000000000000000000000000000000000002000000000020000000000000000000800000000000000800000000010000000000000000000002000000000004000000000000000000000000000000000000000000000000000000000000000000000000000000000000000000000000000000000000102000000000000000000000000000000000000000002000000000020000000008000000000000000000000000000000000000000000000000000002000",
      "type": "0x2",
      "transactionHash": "0xec2ae625c991e610438e0e48de59de3fb0ed315b77dda54c68480a799e49cff7",
      "transactionIndex": "0x6",
      "blockHash": "0x00e3e4d9173cf2db5dcc0bd2093d52926c3673174303dc3eaed620408da29c42",
      "blockNumber": "0x17c9a8c",
      "gasUsed": "0x9abe2",
      "effectiveGasPrice": "0x3b9aca01",
      "from": "0x3b4f0135465d444a5bd06ab90fc59b73916c85f5",
      "to": "0x39bed14767138aba87d1f07b64088e1042239c59",
      "contractAddress": null
    },
    {
      "status": "0x1",
      "cumulativeGasUsed": "0x21b72d",
      "logs": [
        {
          "address": "0x8e3d5b26cfe650123a822de0e1f09fa680a30278",
          "topics": [
            "0x8c5be1e5ebec7d5bd14f71427d1e84f3dd0314c0f7b2291e5b200ac8c7c3b925",
            "0x0000000000000000000000003b4f0135465d444a5bd06ab90fc59b73916c85f5",
            "0x000000000000000000000000c090da280082859b5744c8f3b27f1ee566d1675e"
          ],
          "data": "0x000000000000000000000000000000000000000000000000d486075d973505e1",
          "blockHash": "0x00e3e4d9173cf2db5dcc0bd2093d52926c3673174303dc3eaed620408da29c42",
          "blockNumber": "0x17c9a8c",
          "transactionHash": "0xf0c5a0e63df7a993bdcba043dfd37bdfd3b5dc0520b32e018e836854c5f555a2",
          "transactionIndex": "0x7",
          "logIndex": "0xc",
          "removed": false
        }
      ],
      "logsBloom": "0x01000000000000001000000000000000000000000000000001000020000000000000000000000000000000000000000000000000000000000000000000600000000000000000000000000000000000000000000000000000000000000000002000000000000000000000000000000000000000000000000000000000000000001000000000000000000000000000000000000000000000000000000000000000020000000000000000000000000000000000000000000000000000000000000000000100000000000000000000000000000000000000000000000000000000000010000000000000000000000000000004000000000000000000000000000000",
      "type": "0x2",
      "transactionHash": "0xf0c5a0e63df7a993bdcba043dfd37bdfd3b5dc0520b32e018e836854c5f555a2",
      "transactionIndex": "0x7",
      "blockHash": "0x00e3e4d9173cf2db5dcc0bd2093d52926c3673174303dc3eaed620408da29c42",
      "blockNumber": "0x17c9a8c",
      "gasUsed": "0xbbdf",
      "effectiveGasPrice": "0x3b9aca01",
      "from": "0x3b4f0135465d444a5bd06ab90fc59b73916c85f5",
      "to": "0x8e3d5b26cfe650123a822de0e1f09fa680a30278",
      "contractAddress": null
    },
    {
      "status": "0x1",
      "cumulativeGasUsed": "0x22f63b",
      "logs": [
        {
          "address": "0x8e3d5b26cfe650123a822de0e1f09fa680a30278",
          "topics": [
            "0xddf252ad1be2c89b69c2b068fc378daa952ba7f163c4a11628f55a4df523b3ef",
            "0x0000000000000000000000003b4f0135465d444a5bd06ab90fc59b73916c85f5",
            "0x000000000000000000000000c090da280082859b5744c8f3b27f1ee566d1675e"
          ],
          "data": "0x000000000000000000000000000000000000000000000000d486075d973505e1",
          "blockHash": "0x00e3e4d9173cf2db5dcc0bd2093d52926c3673174303dc3eaed620408da29c42",
          "blockNumber": "0x17c9a8c",
          "transactionHash": "0xcdb20009ae3b4fe1251dcd961954c8a6d462d4487da83cc97fc152b2ee64921d",
          "transactionIndex": "0x8",
          "logIndex": "0xd",
          "removed": false
        },
        {
          "address": "0xc090da280082859b5744c8f3b27f1ee566d1675e",
          "topics": [
            "0x9d278c56ba6dc86a12eefe6b43112bd6e06648eb4ec0b950ee2d783d40e2acb4",
            "0x0000000000000000000000003b4f0135465d444a5bd06ab90fc59b73916c85f5"
          ],
          "data": "0x0000000000000000000000008e3d5b26cfe650123a822de0e1f09fa680a30278000000000000000000000000000000000000000000000000d486075d973505e1",
          "blockHash": "0x00e3e4d9173cf2db5dcc0bd2093d52926c3673174303dc3eaed620408da29c42",
          "blockNumber": "0x17c9a8c",
          "transactionHash": "0xcdb20009ae3b4fe1251dcd961954c8a6d462d4487da83cc97fc152b2ee64921d",
          "transactionIndex": "0x8",
          "logIndex": "0xe",
          "removed": false
        }
      ],
      "logsBloom": "0x01000000000000001000000000000000008000000000002001000020000000000000000000000000000000000000000000000000000000000000000000400000000000000000000000000008000000000000000000000000000000000000002000000000000000000000000000000000000000000200000040000010000000001000000000000000000000000000000000000000000000000000000000000000000000001000000000000000000000000000000000000000000000000000000000000102000000000000000000000000000000000000000000000000000000000000000400000000000000000000000004000000000000000000000000000000",
      "type": "0x2",
      "transactionHash": "0xcdb20009ae3b4fe1251dcd961954c8a6d462d4487da83cc97fc152b2ee64921d",
      "transactionIndex": "0x8",
      "blockHash": "0x00e3e4d9173cf2db5dcc0bd2093d52926c3673174303dc3eaed620408da29c42",
      "blockNumber": "0x17c9a8c",
      "gasUsed": "0x13f0e",
      "effectiveGasPrice": "0x3b9aca01",
      "from": "0x3b4f0135465d444a5bd06ab90fc59b73916c85f5",
      "to": "0xc090da280082859b5744c8f3b27f1ee566d1675e",
      "contractAddress": null
    },
    {
      "status": "0x1",
      "cumulativeGasUsed": "0x2cf46f",
      "logs": [
        {
          "address": "0x1ad4a7a80f5548923c8e5627abafb977dfe014ff",
          "topics": [
            "0xddf252ad1be2c89b69c2b068fc378daa952ba7f163c4a11628f55a4df523b3ef",
            "0x0000000000000000000000000000000000000000000000000000000000000000",
            "0x0000000000000000000000003b4f0135465d444a5bd06ab90fc59b73916c85f5"
          ],
          "data": "0x00000000000000000000000000000b7abc627050305adf14a3d9e40000000000",
          "blockHash": "0x00e3e4d9173cf2db5dcc0bd2093d52926c3673174303dc3eaed620408da29c42",
          "blockNumber": "0x17c9a8c",
          "transactionHash": "0x2b92b8609564c8eac99467f6761c0dd21a4e3466ea8c102301a5b5ce32f3f79a",
          "transactionIndex": "0xa",
          "logIndex": "0xf",
          "removed": false
        },
        {
          "address": "0x39bed14767138aba87d1f07b64088e1042239c59",
          "topics": [
            "0xaf5156078ffc09d447c818754d2e4310cc3f95e36cb33f85723785b122371ed5",
            "0x0000000000000000000000001ad4a7a80f5548923c8e5627abafb977dfe014ff"
          ],
          "data": "0x00000000000000000000000000000000000000000000000000000000000000c0000000000000000000000000000000000000000000000000000000000000010000000000000000000000000000000000000000000000d3c21bcecceda1000000000000000000000000000000000000000000000000000000000000000000001200000000000000000000000000000000000000000000009365b47e1edf1c00000000000000000000000000003b4f0135465d444a5bd06ab90fc59b73916c85f5000000000000000000000000000000000000000000000000000000000000000d577261707065642045746865720000000000000000000000000000000000000000000000000000000000000000000000000000000000000000000000000000045745544800000000000000000000000000000000000000000000000000000000",
          "blockHash": "0x00e3e4d9173cf2db5dcc0bd2093d52926c3673174303dc3eaed620408da29c42",
          "blockNumber": "0x17c9a8c",
          "transactionHash": "0x2b92b8609564c8eac99467f6761c0dd21a4e3466ea8c102301a5b5ce32f3f79a",
          "transactionIndex": "0xa",
          "logIndex": "0x10",
          "removed": false
        }
      ],
      "logsBloom": "0x00000000000000000000000000000000000000000020000000000030000000000000000000000000000000000000000000000000000000000000000004400000000000000040000000000008000000000200000020000000000000000000000000000000020000000000000000000800000000000000000000000010000000000000000000000000000000004000000000000000000000000000000000000000000000000000000000000000000000000000000000000000008000000000000000002102000000000000000000000000000000000000000002000000000020000000008000000000000000000000000000000000000000000000000000002000",
      "type": "0x2",
      "transactionHash": "0x2b92b8609564c8eac99467f6761c0dd21a4e3466ea8c102301a5b5ce32f3f79a",
      "transactionIndex": "0xa",
      "blockHash": "0x00e3e4d9173cf2db5dcc0bd2093d52926c3673174303dc3eaed620408da29c42",
      "blockNumber": "0x17c9a8c",
      "gasUsed": "0x9ac2c",
      "effectiveGasPrice": "0x3b9aca01",
      "from": "0x3b4f0135465d444a5bd06ab90fc59b73916c85f5",
      "to": "0x39bed14767138aba87d1f07b64088e1042239c59",
      "contractAddress": null
    },
    {
      "status": "0x1",
      "cumulativeGasUsed": "0x2daee4",
      "logs": [
        {
          "address": "0x1ad4a7a80f5548923c8e5627abafb977dfe014ff",
          "topics": [
            "0x8c5be1e5ebec7d5bd14f71427d1e84f3dd0314c0f7b2291e5b200ac8c7c3b925",
            "0x0000000000000000000000003b4f0135465d444a5bd06ab90fc59b73916c85f5",
            "0x000000000000000000000000c090da280082859b5744c8f3b27f1ee566d1675e"
          ],
          "data": "0x000000000000000000000000000000000000000000000013f0011c9a7f42487f",
          "blockHash": "0x00e3e4d9173cf2db5dcc0bd2093d52926c3673174303dc3eaed620408da29c42",
          "blockNumber": "0x17c9a8c",
          "transactionHash": "0x3b2e0fb4bb2073cc7056a5f7cbff4da9c57891a301bc1f08a450a76ee6be2bad",
          "transactionIndex": "0xb",
          "logIndex": "0x11",
          "removed": false
        }
      ],
      "logsBloom": "0x00000000000000000000000000000000000000000000000001000030000000000000000000000000000000000000000000000000000000000000000000600000000000000000000000000000000000000200000000000000000000000000000000000000000000000000000000000000000000000000000000000000000000001000000000000000000000000000000000000000000000000000000000000000020000000000000000000000000000000000000000000000000000000000000000002100000000000000000000000000000000000000000000000000000000000010000000000000000000000000000004000000000000000000000000000000",
      "type": "0x2",
      "transactionHash": "0x3b2e0fb4bb2073cc7056a5f7cbff4da9c57891a301bc1f08a450a76ee6be2bad",
      "transactionIndex": "0xb",
      "blockHash": "0x00e3e4d9173cf2db5dcc0bd2093d52926c3673174303dc3eaed620408da29c42",
      "blockNumber": "0x17c9a8c",
      "gasUsed": "0xba75",
      "effectiveGasPrice": "0x3b9aca01",
      "from": "0x3b4f0135465d444a5bd06ab90fc59b73916c85f5",
      "to": "0x1ad4a7a80f5548923c8e5627abafb977dfe014ff",
      "contractAddress": null
    },
    {
      "status": "0x1",
      "cumulativeGasUsed": "0x2ef081",
      "logs": [
        {
          "address": "0x1ad4a7a80f5548923c8e5627abafb977dfe014ff",
          "topics": [
            "0xddf252ad1be2c89b69c2b068fc378daa952ba7f163c4a11628f55a4df523b3ef",
            "0x0000000000000000000000003b4f0135465d444a5bd06ab90fc59b73916c85f5",
            "0x000000000000000000000000c090da280082859b5744c8f3b27f1ee566d1675e"
          ],
          "data": "0x000000000000000000000000000000000000000000000013f0011c9a7f42487f",
          "blockHash": "0x00e3e4d9173cf2db5dcc0bd2093d52926c3673174303dc3eaed620408da29c42",
          "blockNumber": "0x17c9a8c",
          "transactionHash": "0x7e82e9f2327657677e3f8bd9229e6e64af81c276415843e9792860728e540097",
          "transactionIndex": "0xc",
          "logIndex": "0x12",
          "removed": false
        },
        {
          "address": "0xc090da280082859b5744c8f3b27f1ee566d1675e",
          "topics": [
            "0x9d278c56ba6dc86a12eefe6b43112bd6e06648eb4ec0b950ee2d783d40e2acb4",
            "0x0000000000000000000000003b4f0135465d444a5bd06ab90fc59b73916c85f5"
          ],
          "data": "0x0000000000000000000000001ad4a7a80f5548923c8e5627abafb977dfe014ff000000000000000000000000000000000000000000000013f0011c9a7f42487f",
          "blockHash": "0x00e3e4d9173cf2db5dcc0bd2093d52926c3673174303dc3eaed620408da29c42",
          "blockNumber": "0x17c9a8c",
          "transactionHash": "0x7e82e9f2327657677e3f8bd9229e6e64af81c276415843e9792860728e540097",
          "transactionIndex": "0xc",
          "logIndex": "0x13",
          "removed": false
        }
      ],
      "logsBloom": "0x00000000000000000000000000000000008000000000002001000030000000000000000000000000000000000000000000000000000000000000000000400000000000000000000000000008000000000200000000000000000000000000000000000000000000000000000000000000000000000200000040000010000000001000000000000000000000000000000000000000000000000000000000000000000000001000000000000000000000000000000000000000000000000000000000002102000000000000000000000000000000000000000000000000000000000000000400000000000000000000000004000000000000000000000000000000",
      "type": "0x2",
      "transactionHash": "0x7e82e9f2327657677e3f8bd9229e6e64af81c276415843e9792860728e540097",
      "transactionIndex": "0xc",
      "blockHash": "0x00e3e4d9173cf2db5dcc0bd2093d52926c3673174303dc3eaed620408da29c42",
      "blockNumber": "0x17c9a8c",
      "gasUsed": "0x1419d",
      "effectiveGasPrice": "0x3b9aca01",
      "from": "0x3b4f0135465d444a5bd06ab90fc59b73916c85f5",
      "to": "0xc090da280082859b5744c8f3b27f1ee566d1675e",
      "contractAddress": null
    },
    {
      "status": "0x1",
      "cumulativeGasUsed": "0x389c31",
      "logs": [
        {
          "address": "0x9d2de5616c423dc52cfc3332111802a48e8e5c6f",
          "topics": [
            "0xddf252ad1be2c89b69c2b068fc378daa952ba7f163c4a11628f55a4df523b3ef",
            "0x0000000000000000000000000000000000000000000000000000000000000000",
            "0x0000000000000000000000003b4f0135465d444a5bd06ab90fc59b73916c85f5"
          ],
          "data": "0x00000000000000000000000000000b7abc627050305adf14a3d9e40000000000",
          "blockHash": "0x00e3e4d9173cf2db5dcc0bd2093d52926c3673174303dc3eaed620408da29c42",
          "blockNumber": "0x17c9a8c",
          "transactionHash": "0x061bc1456b64f8d87d03cd5e9f42fde3fceb70962010aea07223bdb55e256313",
          "transactionIndex": "0xd",
          "logIndex": "0x14",
          "removed": false
        },
        {
          "address": "0x39bed14767138aba87d1f07b64088e1042239c59",
          "topics": [
            "0xaf5156078ffc09d447c818754d2e4310cc3f95e36cb33f85723785b122371ed5",
            "0x0000000000000000000000009d2de5616c423dc52cfc3332111802a48e8e5c6f"
          ],
          "data": "0x00000000000000000000000000000000000000000000000000000000000000c0000000000000000000000000000000000000000000000000000000000000010000000000000000000000000000000000000000000000d3c21bcecceda100000000000000000000000000000000000000000000000000000000000000000000120000000000000000000000000000000000000000000000000186cc6acd4b00000000000000000000000000003b4f0135465d444a5bd06ab90fc59b73916c85f50000000000000000000000000000000000000000000000000000000000000004504550450000000000000000000000000000000000000000000000000000000000000000000000000000000000000000000000000000000000000000000000045045504500000000000000000000000000000000000000000000000000000000",
          "blockHash": "0x00e3e4d9173cf2db5dcc0bd2093d52926c3673174303dc3eaed620408da29c42",
          "blockNumber": "0x17c9a8c",
          "transactionHash": "0x061bc1456b64f8d87d03cd5e9f42fde3fceb70962010aea07223bdb55e256313",
          "transactionIndex": "0xd",
          "logIndex": "0x15",
          "removed": false
        }
      ],
      "logsBloom": "0x00000000000000000000000000000000000000000020000000000020000010000000000000000000000000000000000000000000000000000000000004400000000000000000000000000008000000000000000000000000000000000000000000000000020000000000000000000800000000000000000000000010000000000000000000000000000000004000000000000000000000000000000000000000000000000000010000000000000000000000000000000000000000020000000000000102000000000000000000000000000000000000000002000020000020000200008000000000000000000000000000004000000000000000000000002000",
      "type": "0x2",
      "transactionHash": "0x061bc1456b64f8d87d03cd5e9f42fde3fceb70962010aea07223bdb55e256313",
      "transactionIndex": "0xd",
      "blockHash": "0x00e3e4d9173cf2db5dcc0bd2093d52926c3673174303dc3eaed620408da29c42",
      "blockNumber": "0x17c9a8c",
      "gasUsed": "0x9abb0",
      "effectiveGasPrice": "0x3b9aca01",
      "from": "0x3b4f0135465d444a5bd06ab90fc59b73916c85f5",
      "to": "0x39bed14767138aba87d1f07b64088e1042239c59",
      "contractAddress": null
    },
    {
      "status": "0x1",
      "cumulativeGasUsed": "0x3956bf",
      "logs": [
        {
          "address": "0x9d2de5616c423dc52cfc3332111802a48e8e5c6f",
          "topics": [
            "0x8c5be1e5ebec7d5bd14f71427d1e84f3dd0314c0f7b2291e5b200ac8c7c3b925",
            "0x0000000000000000000000003b4f0135465d444a5bd06ab90fc59b73916c85f5",
            "0x000000000000000000000000c090da280082859b5744c8f3b27f1ee566d1675e"
          ],
          "data": "0x0000000000000000000000000000000000000000000785132b58012a71d1745d",
          "blockHash": "0x00e3e4d9173cf2db5dcc0bd2093d52926c3673174303dc3eaed620408da29c42",
          "blockNumber": "0x17c9a8c",
          "transactionHash": "0xf0860ded1f834d3840927641b65b3c8d5fca40d6a98e36e910ac6ae810cb903d",
          "transactionIndex": "0xe",
          "logIndex": "0x16",
          "removed": false
        }
      ],
      "logsBloom": "0x00000000000000000000000000000000000000000000000001000020000000000000000000000000000000000000000000000000000000000000000000600000000000000000000000000000000000000000000000000000000000000000000000000000000000000000000000000000000000000000000000000000000000001000000000000000000000000000000000000000000000000000000000000000020000000000010000000000000000000000000000000000000000000000000000000100000000000000000000000000000000000000000000000020000000000010000000000000000000000000000004004000000000000000000000000000",
      "type": "0x2",
      "transactionHash": "0xf0860ded1f834d3840927641b65b3c8d5fca40d6a98e36e910ac6ae810cb903d",
      "transactionIndex": "0xe",
      "blockHash": "0x00e3e4d9173cf2db5dcc0bd2093d52926c3673174303dc3eaed620408da29c42",
      "blockNumber": "0x17c9a8c",
      "gasUsed": "0xba8e",
      "effectiveGasPrice": "0x3b9aca01",
      "from": "0x3b4f0135465d444a5bd06ab90fc59b73916c85f5",
      "to": "0x9d2de5616c423dc52cfc3332111802a48e8e5c6f",
      "contractAddress": null
    },
    {
      "status": "0x1",
      "cumulativeGasUsed": "0x3a9875",
      "logs": [
        {
          "address": "0x9d2de5616c423dc52cfc3332111802a48e8e5c6f",
          "topics": [
            "0xddf252ad1be2c89b69c2b068fc378daa952ba7f163c4a11628f55a4df523b3ef",
            "0x0000000000000000000000003b4f0135465d444a5bd06ab90fc59b73916c85f5",
            "0x000000000000000000000000c090da280082859b5744c8f3b27f1ee566d1675e"
          ],
          "data": "0x0000000000000000000000000000000000000000000785132b58012a71d1745d",
          "blockHash": "0x00e3e4d9173cf2db5dcc0bd2093d52926c3673174303dc3eaed620408da29c42",
          "blockNumber": "0x17c9a8c",
          "transactionHash": "0xdd5e3641338b7edb7306e9f18a6d2beb04b82e52e2e5311aee2c51511e965afc",
          "transactionIndex": "0xf",
          "logIndex": "0x17",
          "removed": false
        },
        {
          "address": "0xc090da280082859b5744c8f3b27f1ee566d1675e",
          "topics": [
            "0x9d278c56ba6dc86a12eefe6b43112bd6e06648eb4ec0b950ee2d783d40e2acb4",
            "0x0000000000000000000000003b4f0135465d444a5bd06ab90fc59b73916c85f5"
          ],
          "data": "0x0000000000000000000000009d2de5616c423dc52cfc3332111802a48e8e5c6f0000000000000000000000000000000000000000000785132b58012a71d1745d",
          "blockHash": "0x00e3e4d9173cf2db5dcc0bd2093d52926c3673174303dc3eaed620408da29c42",
          "blockNumber": "0x17c9a8c",
          "transactionHash": "0xdd5e3641338b7edb7306e9f18a6d2beb04b82e52e2e5311aee2c51511e965afc",
          "transactionIndex": "0xf",
          "logIndex": "0x18",
          "removed": false
        }
      ],
      "logsBloom": "0x00000000000000000000000000000000008000000000002001000020000000000000000000000000000000000000000000000000000000000000000000400000000000000000000000000008000000000000000000000000000000000000000000000000000000000000000000000000000000000200000040000010000000001000000000000000000000000000000000000000000000000000000000000000000000001000010000000000000000000000000000000000000000000000000000000102000000000000000000000000000000000000000000000020000000000000000400000000000000000000000004004000000000000000000000000000",
      "type": "0x2",
      "transactionHash": "0xdd5e3641338b7edb7306e9f18a6d2beb04b82e52e2e5311aee2c51511e965afc",
      "transactionIndex": "0xf",
      "blockHash": "0x00e3e4d9173cf2db5dcc0bd2093d52926c3673174303dc3eaed620408da29c42",
      "blockNumber": "0x17c9a8c",
      "gasUsed": "0x141b6",
      "effectiveGasPrice": "0x3b9aca01",
      "from": "0x3b4f0135465d444a5bd06ab90fc59b73916c85f5",
      "to": "0xc090da280082859b5744c8f3b27f1ee566d1675e",
      "contractAddress": null
    },
    {
      "status": "0x1",
      "cumulativeGasUsed": "0x4444ba",
      "logs": [
        {
          "address": "0xf6ac8403a2050ff2aea572b01f7ba085f054f7b5",
          "topics": [
            "0xddf252ad1be2c89b69c2b068fc378daa952ba7f163c4a11628f55a4df523b3ef",
            "0x0000000000000000000000000000000000000000000000000000000000000000",
            "0x0000000000000000000000003b4f0135465d444a5bd06ab90fc59b73916c85f5"
          ],
          "data": "0x00000000000000000000000000000b7abc627050305adf14a3d9e40000000000",
          "blockHash": "0x00e3e4d9173cf2db5dcc0bd2093d52926c3673174303dc3eaed620408da29c42",
          "blockNumber": "0x17c9a8c",
          "transactionHash": "0x90458971d1aea298037d6978d6b9ba1036ff4e86a97095950459864df2b0a071",
          "transactionIndex": "0x10",
          "logIndex": "0x19",
          "removed": false
        },
        {
          "address": "0x39bed14767138aba87d1f07b64088e1042239c59",
          "topics": [
            "0xaf5156078ffc09d447c818754d2e4310cc3f95e36cb33f85723785b122371ed5",
            "0x000000000000000000000000f6ac8403a2050ff2aea572b01f7ba085f054f7b5"
          ],
          "data": "0x00000000000000000000000000000000000000000000000000000000000000c0000000000000000000000000000000000000000000000000000000000000010000000000000000000000000000000000000000000000d3c21bcecceda100000000000000000000000000000000000000000000000000000000000000000000120000000000000000000000000000000000000000000000564d702d38f5e000000000000000000000000000003b4f0135465d444a5bd06ab90fc59b73916c85f5000000000000000000000000000000000000000000000000000000000000000e4f4646494349414c205452554d5000000000000000000000000000000000000000000000000000000000000000000000000000000000000000000000000000055452554d50000000000000000000000000000000000000000000000000000000",
          "blockHash": "0x00e3e4d9173cf2db5dcc0bd2093d52926c3673174303dc3eaed620408da29c42",
          "blockNumber": "0x17c9a8c",
          "transactionHash": "0x90458971d1aea298037d6978d6b9ba1036ff4e86a97095950459864df2b0a071",
          "transactionIndex": "0x10",
          "logIndex": "0x1a",
          "removed": false
        }
      ],
      "logsBloom": "0x00000000000000000000000000000000000000000020000000000020000000000000000000000000000040000000000000000000000000000000000004420000000000000000000000000008000000000000000000000000000000000000000000000000020000000000000000000800000008000000080000080010000000000800000000000000000000004000000000000000000000000000000000000000000000000000000000000000000000000000000000000000000000000000000000000102000000000000000000000000000000000000000002000000000020000000008000000000000000000000000000000000000000000000000000002000",
      "type": "0x2",
      "transactionHash": "0x90458971d1aea298037d6978d6b9ba1036ff4e86a97095950459864df2b0a071",
      "transactionIndex": "0x10",
      "blockHash": "0x00e3e4d9173cf2db5dcc0bd2093d52926c3673174303dc3eaed620408da29c42",
      "blockNumber": "0x17c9a8c",
      "gasUsed": "0x9ac45",
      "effectiveGasPrice": "0x3b9aca01",
      "from": "0x3b4f0135465d444a5bd06ab90fc59b73916c85f5",
      "to": "0x39bed14767138aba87d1f07b64088e1042239c59",
      "contractAddress": null
    },
    {
      "status": "0x1",
      "cumulativeGasUsed": "0x44ff2f",
      "logs": [
        {
          "address": "0xf6ac8403a2050ff2aea572b01f7ba085f054f7b5",
          "topics": [
            "0x8c5be1e5ebec7d5bd14f71427d1e84f3dd0314c0f7b2291e5b200ac8c7c3b925",
            "0x0000000000000000000000003b4f0135465d444a5bd06ab90fc59b73916c85f5",
            "0x000000000000000000000000c090da280082859b5744c8f3b27f1ee566d1675e"
          ],
          "data": "0x0000000000000000000000000000000000000000000000220d3411d131ca2172",
          "blockHash": "0x00e3e4d9173cf2db5dcc0bd2093d52926c3673174303dc3eaed620408da29c42",
          "blockNumber": "0x17c9a8c",
          "transactionHash": "0x8d09aae03e15c9c8f4dc54f858c4bc8d4bb917c589b1c3328ef4a50f84c82ddc",
          "transactionIndex": "0x11",
          "logIndex": "0x1b",
          "removed": false
        }
      ],
      "logsBloom": "0x00000000000000000000000000000000000000000000000001000020000000000000000000000000000000000000000000000000000000000000000000620000000000000000000000000000000000000000000000000000000000000000000000000000000000000000000000000000000000000000080000080000000000001000000000000000000000000000000000000000000000000000000000000000020000000000000000000000000000000000000000000000000000000000000000000100000000000000000000000000000000000000000000000000000000000010000000000000000000000000000004000000000000000000000000000000",
      "type": "0x2",
      "transactionHash": "0x8d09aae03e15c9c8f4dc54f858c4bc8d4bb917c589b1c3328ef4a50f84c82ddc",
      "transactionIndex": "0x11",
      "blockHash": "0x00e3e4d9173cf2db5dcc0bd2093d52926c3673174303dc3eaed620408da29c42",
      "blockNumber": "0x17c9a8c",
      "gasUsed": "0xba75",
      "effectiveGasPrice": "0x3b9aca01",
      "from": "0x3b4f0135465d444a5bd06ab90fc59b73916c85f5",
      "to": "0xf6ac8403a2050ff2aea572b01f7ba085f054f7b5",
      "contractAddress": null
    },
    {
      "status": "0x1",
      "cumulativeGasUsed": "0x4640cc",
      "logs": [
        {
          "address": "0xf6ac8403a2050ff2aea572b01f7ba085f054f7b5",
          "topics": [
            "0xddf252ad1be2c89b69c2b068fc378daa952ba7f163c4a11628f55a4df523b3ef",
            "0x0000000000000000000000003b4f0135465d444a5bd06ab90fc59b73916c85f5",
            "0x000000000000000000000000c090da280082859b5744c8f3b27f1ee566d1675e"
          ],
          "data": "0x0000000000000000000000000000000000000000000000220d3411d131ca2172",
          "blockHash": "0x00e3e4d9173cf2db5dcc0bd2093d52926c3673174303dc3eaed620408da29c42",
          "blockNumber": "0x17c9a8c",
          "transactionHash": "0xba53c638756643b315e0a8a0929561f1ebefc2acc95ea69441674965157c0c94",
          "transactionIndex": "0x12",
          "logIndex": "0x1c",
          "removed": false
        },
        {
          "address": "0xc090da280082859b5744c8f3b27f1ee566d1675e",
          "topics": [
            "0x9d278c56ba6dc86a12eefe6b43112bd6e06648eb4ec0b950ee2d783d40e2acb4",
            "0x0000000000000000000000003b4f0135465d444a5bd06ab90fc59b73916c85f5"
          ],
          "data": "0x000000000000000000000000f6ac8403a2050ff2aea572b01f7ba085f054f7b50000000000000000000000000000000000000000000000220d3411d131ca2172",
          "blockHash": "0x00e3e4d9173cf2db5dcc0bd2093d52926c3673174303dc3eaed620408da29c42",
          "blockNumber": "0x17c9a8c",
          "transactionHash": "0xba53c638756643b315e0a8a0929561f1ebefc2acc95ea69441674965157c0c94",
          "transactionIndex": "0x12",
          "logIndex": "0x1d",
          "removed": false
        }
      ],
      "logsBloom": "0x00000000000000000000000000000000008000000000002001000020000000000000000000000000000000000000000000000000000000000000000000420000000000000000000000000008000000000000000000000000000000000000000000000000000000000000000000000000000000000200080040080010000000001000000000000000000000000000000000000000000000000000000000000000000000001000000000000000000000000000000000000000000000000000000000000102000000000000000000000000000000000000000000000000000000000000000400000000000000000000000004000000000000000000000000000000",
      "type": "0x2",
      "transactionHash": "0xba53c638756643b315e0a8a0929561f1ebefc2acc95ea69441674965157c0c94",
      "transactionIndex": "0x12",
      "blockHash": "0x00e3e4d9173cf2db5dcc0bd2093d52926c3673174303dc3eaed620408da29c42",
      "blockNumber": "0x17c9a8c",
      "gasUsed": "0x1419d",
      "effectiveGasPrice": "0x3b9aca01",
      "from": "0x3b4f0135465d444a5bd06ab90fc59b73916c85f5",
      "to": "0xc090da280082859b5744c8f3b27f1ee566d1675e",
      "contractAddress": null
    },
    {
      "status": "0x1",
      "cumulativeGasUsed": "0x4fecb1",
      "logs": [
        {
          "address": "0x191eb4c970b1a972c4fc4517a9f110ebd40dee05",
          "topics": [
            "0xddf252ad1be2c89b69c2b068fc378daa952ba7f163c4a11628f55a4df523b3ef",
            "0x0000000000000000000000000000000000000000000000000000000000000000",
            "0x0000000000000000000000003b4f0135465d444a5bd06ab90fc59b73916c85f5"
          ],
          "data": "0x00000000000000000000000000000b7abc627050305adf14a3d9e40000000000",
          "blockHash": "0x00e3e4d9173cf2db5dcc0bd2093d52926c3673174303dc3eaed620408da29c42",
          "blockNumber": "0x17c9a8c",
          "transactionHash": "0x884c791c8c3334d96fc41c50e628330da2ea3c2b852acf3465b2c13a259a9063",
          "transactionIndex": "0x13",
          "logIndex": "0x1e",
          "removed": false
        },
        {
          "address": "0x39bed14767138aba87d1f07b64088e1042239c59",
          "topics": [
            "0xaf5156078ffc09d447c818754d2e4310cc3f95e36cb33f85723785b122371ed5",
            "0x000000000000000000000000191eb4c970b1a972c4fc4517a9f110ebd40dee05"
          ],
          "data": "0x00000000000000000000000000000000000000000000000000000000000000c0000000000000000000000000000000000000000000000000000000000000010000000000000000000000000000000000000000000000d3c21bcecceda1000000000000000000000000000000000000000000000000000000000000000000001200000000000000000000000000000000000000000000000000dc44abe81300000000000000000000000000003b4f0135465d444a5bd06ab90fc59b73916c85f50000000000000000000000000000000000000000000000000000000000000007444f4745204149000000000000000000000000000000000000000000000000000000000000000000000000000000000000000000000000000000000000000006444f474541490000000000000000000000000000000000000000000000000000",
          "blockHash": "0x00e3e4d9173cf2db5dcc0bd2093d52926c3673174303dc3eaed620408da29c42",
          "blockNumber": "0x17c9a8c",
          "transactionHash": "0x884c791c8c3334d96fc41c50e628330da2ea3c2b852acf3465b2c13a259a9063",
          "transactionIndex": "0x13",
          "logIndex": "0x1f",
          "removed": false
        }
      ],
      "logsBloom": "0x00000400000000000000000000000000000000000020000000000020000000000000000000000000000000000000000000000000000000000000000004400000000000000000000000000008000000000000000000000008000000000000000000000000220000000000000000000800000000000000000000000010000000200000000000000000000000004000000000000000200000000000000000000000000000000004000000000000000000000000000000000000000000000000000000000102000000000000000000000000000000000000000002000000000020000000008000000000000000000000000000000000000000000000000000002000",
      "type": "0x2",
      "transactionHash": "0x884c791c8c3334d96fc41c50e628330da2ea3c2b852acf3465b2c13a259a9063",
      "transactionIndex": "0x13",
      "blockHash": "0x00e3e4d9173cf2db5dcc0bd2093d52926c3673174303dc3eaed620408da29c42",
      "blockNumber": "0x17c9a8c",
      "gasUsed": "0x9abe5",
      "effectiveGasPrice": "0x3b9aca01",
      "from": "0x3b4f0135465d444a5bd06ab90fc59b73916c85f5",
      "to": "0x39bed14767138aba87d1f07b64088e1042239c59",
      "contractAddress": null
    },
    {
      "status": "0x1",
      "cumulativeGasUsed": "0x50a73f",
      "logs": [
        {
          "address": "0x191eb4c970b1a972c4fc4517a9f110ebd40dee05",
          "topics": [
            "0x8c5be1e5ebec7d5bd14f71427d1e84f3dd0314c0f7b2291e5b200ac8c7c3b925",
            "0x0000000000000000000000003b4f0135465d444a5bd06ab90fc59b73916c85f5",
            "0x000000000000000000000000c090da280082859b5744c8f3b27f1ee566d1675e"
          ],
          "data": "0x0000000000000000000000000000000000000000000d577497390a5390210842",
          "blockHash": "0x00e3e4d9173cf2db5dcc0bd2093d52926c3673174303dc3eaed620408da29c42",
          "blockNumber": "0x17c9a8c",
          "transactionHash": "0x2f2944c6c1f4167909400b088fcc342f221af0a8e574636e725cb605783a2fa6",
          "transactionIndex": "0x14",
          "logIndex": "0x20",
          "removed": false
        }
      ],
      "logsBloom": "0x00000400000000000000000000000000000000000000000001000020000000000000000000000000000000000000000000000000000000000000000000600000000000000000000000000000000000000000000000000008000000000000000000000000200000000000000000000000000000000000000000000000000000001000000000000000000000000000000000000000000000000000000000000000020000000000000000000000000000000000000000000000000000000000000000000100000000000000000000000000000000000000000000000000000000000010000000000000000000000000000004000000000000000000000000000000",
      "type": "0x2",
      "transactionHash": "0x2f2944c6c1f4167909400b088fcc342f221af0a8e574636e725cb605783a2fa6",
      "transactionIndex": "0x14",
      "blockHash": "0x00e3e4d9173cf2db5dcc0bd2093d52926c3673174303dc3eaed620408da29c42",
      "blockNumber": "0x17c9a8c",
      "gasUsed": "0xba8e",
      "effectiveGasPrice": "0x3b9aca01",
      "from": "0x3b4f0135465d444a5bd06ab90fc59b73916c85f5",
      "to": "0x191eb4c970b1a972c4fc4517a9f110ebd40dee05",
      "contractAddress": null
    },
    {
      "status": "0x1",
      "cumulativeGasUsed": "0x141b6",
      "logs": [
        {
          "address": "0x191eb4c970b1a972c4fc4517a9f110ebd40dee05",
          "topics": [
            "0xddf252ad1be2c89b69c2b068fc378daa952ba7f163c4a11628f55a4df523b3ef",
            "0x0000000000000000000000003b4f0135465d444a5bd06ab90fc59b73916c85f5",
            "0x000000000000000000000000c090da280082859b5744c8f3b27f1ee566d1675e"
          ],
          "data": "0x0000000000000000000000000000000000000000000d577497390a5390210842",
          "blockHash": "0x6058eb071fe26d5e1a3ca6f562d3e9f4d200c142083c9088112246d7089cfd68",
          "blockNumber": "0x17c9a8e",
          "transactionHash": "0x9299d4caa847f7c8d0a87a73141ad9487c9a2889a60535c0f7eed5eef8717c42",
          "transactionIndex": "0x0",
          "logIndex": "0x0",
          "removed": false
        },
        {
          "address": "0xc090da280082859b5744c8f3b27f1ee566d1675e",
          "topics": [
            "0x9d278c56ba6dc86a12eefe6b43112bd6e06648eb4ec0b950ee2d783d40e2acb4",
            "0x0000000000000000000000003b4f0135465d444a5bd06ab90fc59b73916c85f5"
          ],
          "data": "0x000000000000000000000000191eb4c970b1a972c4fc4517a9f110ebd40dee050000000000000000000000000000000000000000000d577497390a5390210842",
          "blockHash": "0x6058eb071fe26d5e1a3ca6f562d3e9f4d200c142083c9088112246d7089cfd68",
          "blockNumber": "0x17c9a8e",
          "transactionHash": "0x9299d4caa847f7c8d0a87a73141ad9487c9a2889a60535c0f7eed5eef8717c42",
          "transactionIndex": "0x0",
          "logIndex": "0x1",
          "removed": false
        }
      ],
      "logsBloom": "0x00000400000000000000000000000000008000000000002001000020000000000000000000000000000000000000000000000000000000000000000000400000000000000000000000000008000000000000000000000008000000000000000000000000200000000000000000000000000000000200000040000010000000001000000000000000000000000000000000000000000000000000000000000000000000001000000000000000000000000000000000000000000000000000000000000102000000000000000000000000000000000000000000000000000000000000000400000000000000000000000004000000000000000000000000000000",
      "type": "0x2",
      "transactionHash": "0x9299d4caa847f7c8d0a87a73141ad9487c9a2889a60535c0f7eed5eef8717c42",
      "transactionIndex": "0x0",
      "blockHash": "0x6058eb071fe26d5e1a3ca6f562d3e9f4d200c142083c9088112246d7089cfd68",
      "blockNumber": "0x17c9a8e",
      "gasUsed": "0x141b6",
      "effectiveGasPrice": "0x3b9aca01",
      "from": "0x3b4f0135465d444a5bd06ab90fc59b73916c85f5",
      "to": "0xc090da280082859b5744c8f3b27f1ee566d1675e",
      "contractAddress": null
    },
    {
      "status": "0x1",
      "cumulativeGasUsed": "0xaed98",
      "logs": [
        {
          "address": "0x458df501e4aee7f6380894e321e998f19a976bfa",
          "topics": [
            "0xddf252ad1be2c89b69c2b068fc378daa952ba7f163c4a11628f55a4df523b3ef",
            "0x0000000000000000000000000000000000000000000000000000000000000000",
            "0x0000000000000000000000003b4f0135465d444a5bd06ab90fc59b73916c85f5"
          ],
          "data": "0x00000000000000000000000000000b7abc627050305adf14a3d9e40000000000",
          "blockHash": "0x6058eb071fe26d5e1a3ca6f562d3e9f4d200c142083c9088112246d7089cfd68",
          "blockNumber": "0x17c9a8e",
          "transactionHash": "0xdd3a8114fd3ff7ed84f7aba901ae553d71f6c04bbb10e78d03a43dc99698fc5e",
          "transactionIndex": "0x1",
          "logIndex": "0x2",
          "removed": false
        },
        {
          "address": "0x39bed14767138aba87d1f07b64088e1042239c59",
          "topics": [
            "0xaf5156078ffc09d447c818754d2e4310cc3f95e36cb33f85723785b122371ed5",
            "0x000000000000000000000000458df501e4aee7f6380894e321e998f19a976bfa"
          ],
          "data": "0x00000000000000000000000000000000000000000000000000000000000000c0000000000000000000000000000000000000000000000000000000000000010000000000000000000000000000000000000000000000d3c21bcecceda100000000000000000000000000000000000000000000000000000000000000000000120000000000000000000000000000000000000000000000000aaf96eb9d0d00000000000000000000000000003b4f0135465d444a5bd06ab90fc59b73916c85f50000000000000000000000000000000000000000000000000000000000000009646f67776966686174000000000000000000000000000000000000000000000000000000000000000000000000000000000000000000000000000000000000035749460000000000000000000000000000000000000000000000000000000000",
          "blockHash": "0x6058eb071fe26d5e1a3ca6f562d3e9f4d200c142083c9088112246d7089cfd68",
          "blockNumber": "0x17c9a8e",
          "transactionHash": "0xdd3a8114fd3ff7ed84f7aba901ae553d71f6c04bbb10e78d03a43dc99698fc5e",
          "transactionIndex": "0x1",
          "logIndex": "0x3",
          "removed": false
        }
      ],
      "logsBloom": "0x00000000000000000000000000000000000000000020000000000020000000000080000000000000000000000800000000000000000000000000020004400000000000000000000000000008000000000000000000000000000000000000000000000000020000000000000010000800000000000000000000000010000000000000000000000000000000004000000000000000000000000000000000000000000000000000000000000000000000000000000000000000000000000000000000000102000000000000000000000000000000000100000002000000000020000000008000000000000000000000000000000000000000000000000000022000",
      "type": "0x2",
      "transactionHash": "0xdd3a8114fd3ff7ed84f7aba901ae553d71f6c04bbb10e78d03a43dc99698fc5e",
      "transactionIndex": "0x1",
      "blockHash": "0x6058eb071fe26d5e1a3ca6f562d3e9f4d200c142083c9088112246d7089cfd68",
      "blockNumber": "0x17c9a8e",
      "gasUsed": "0x9abe2",
      "effectiveGasPrice": "0x3b9aca01",
      "from": "0x3b4f0135465d444a5bd06ab90fc59b73916c85f5",
      "to": "0x39bed14767138aba87d1f07b64088e1042239c59",
      "contractAddress": null
    },
    {
      "status": "0x1",
      "cumulativeGasUsed": "0xba826",
      "logs": [
        {
          "address": "0x458df501e4aee7f6380894e321e998f19a976bfa",
          "topics": [
            "0x8c5be1e5ebec7d5bd14f71427d1e84f3dd0314c0f7b2291e5b200ac8c7c3b925",
            "0x0000000000000000000000003b4f0135465d444a5bd06ab90fc59b73916c85f5",
            "0x000000000000000000000000c090da280082859b5744c8f3b27f1ee566d1675e"
          ],
          "data": "0x000000000000000000000000000000000000000000011302bd0c9273c71dec0d",
          "blockHash": "0x6058eb071fe26d5e1a3ca6f562d3e9f4d200c142083c9088112246d7089cfd68",
          "blockNumber": "0x17c9a8e",
          "transactionHash": "0x1b513c623406aeb65bbf8b1193a95786271eb1fa0fef03faed64b5c34df67b2a",
          "transactionIndex": "0x2",
          "logIndex": "0x4",
          "removed": false
        }
      ],
      "logsBloom": "0x00000000000000000000000000000000000000000000000001000020000000000080000000000000000000000800000000000000000000000000000000600000000000000000000000000000000000000000000000000000000000000000000000000000000000000000000000000000000000000000000000000000000000001000000000000000000000000000000000000000000000000000000000000000020000000000000000000000000000000000000000000000000000000000000000000100000000000000000000000000000000000000000000000000000000000010000000000000000000000000000004000000000000000000000000020000",
      "type": "0x2",
      "transactionHash": "0x1b513c623406aeb65bbf8b1193a95786271eb1fa0fef03faed64b5c34df67b2a",
      "transactionIndex": "0x2",
      "blockHash": "0x6058eb071fe26d5e1a3ca6f562d3e9f4d200c142083c9088112246d7089cfd68",
      "blockNumber": "0x17c9a8e",
      "gasUsed": "0xba8e",
      "effectiveGasPrice": "0x3b9aca01",
      "from": "0x3b4f0135465d444a5bd06ab90fc59b73916c85f5",
      "to": "0x458df501e4aee7f6380894e321e998f19a976bfa",
      "contractAddress": null
    },
    {
      "status": "0x1",
      "cumulativeGasUsed": "0xce9dc",
      "logs": [
        {
          "address": "0x458df501e4aee7f6380894e321e998f19a976bfa",
          "topics": [
            "0xddf252ad1be2c89b69c2b068fc378daa952ba7f163c4a11628f55a4df523b3ef",
            "0x0000000000000000000000003b4f0135465d444a5bd06ab90fc59b73916c85f5",
            "0x000000000000000000000000c090da280082859b5744c8f3b27f1ee566d1675e"
          ],
          "data": "0x000000000000000000000000000000000000000000011302bd0c9273c71dec0d",
          "blockHash": "0x6058eb071fe26d5e1a3ca6f562d3e9f4d200c142083c9088112246d7089cfd68",
          "blockNumber": "0x17c9a8e",
          "transactionHash": "0x6542f9c83951e1039f3ea327f1c7a56846295d4b5b5c0d8c92293397d347f67a",
          "transactionIndex": "0x3",
          "logIndex": "0x5",
          "removed": false
        },
        {
          "address": "0xc090da280082859b5744c8f3b27f1ee566d1675e",
          "topics": [
            "0x9d278c56ba6dc86a12eefe6b43112bd6e06648eb4ec0b950ee2d783d40e2acb4",
            "0x0000000000000000000000003b4f0135465d444a5bd06ab90fc59b73916c85f5"
          ],
          "data": "0x000000000000000000000000458df501e4aee7f6380894e321e998f19a976bfa000000000000000000000000000000000000000000011302bd0c9273c71dec0d",
          "blockHash": "0x6058eb071fe26d5e1a3ca6f562d3e9f4d200c142083c9088112246d7089cfd68",
          "blockNumber": "0x17c9a8e",
          "transactionHash": "0x6542f9c83951e1039f3ea327f1c7a56846295d4b5b5c0d8c92293397d347f67a",
          "transactionIndex": "0x3",
          "logIndex": "0x6",
          "removed": false
        }
      ],
      "logsBloom": "0x00000000000000000000000000000000008000000000002001000020000000000080000000000000000000000800000000000000000000000000000000400000000000000000000000000008000000000000000000000000000000000000000000000000000000000000000000000000000000000200000040000010000000001000000000000000000000000000000000000000000000000000000000000000000000001000000000000000000000000000000000000000000000000000000000000102000000000000000000000000000000000000000000000000000000000000000400000000000000000000000004000000000000000000000000020000",
      "type": "0x2",
      "transactionHash": "0x6542f9c83951e1039f3ea327f1c7a56846295d4b5b5c0d8c92293397d347f67a",
      "transactionIndex": "0x3",
      "blockHash": "0x6058eb071fe26d5e1a3ca6f562d3e9f4d200c142083c9088112246d7089cfd68",
      "blockNumber": "0x17c9a8e",
      "gasUsed": "0x141b6",
      "effectiveGasPrice": "0x3b9aca01",
      "from": "0x3b4f0135465d444a5bd06ab90fc59b73916c85f5",
      "to": "0xc090da280082859b5744c8f3b27f1ee566d1675e",
      "contractAddress": null
    },
    {
      "status": "0x1",
      "cumulativeGasUsed": "0x1695b4",
      "logs": [
        {
          "address": "0xf1af6fd2726213278a221f9d6ff09b0edf9d8888",
          "topics": [
            "0xddf252ad1be2c89b69c2b068fc378daa952ba7f163c4a11628f55a4df523b3ef",
            "0x0000000000000000000000000000000000000000000000000000000000000000",
            "0x0000000000000000000000003b4f0135465d444a5bd06ab90fc59b73916c85f5"
          ],
          "data": "0x00000000000000000000000000000b7abc627050305adf14a3d9e40000000000",
          "blockHash": "0x6058eb071fe26d5e1a3ca6f562d3e9f4d200c142083c9088112246d7089cfd68",
          "blockNumber": "0x17c9a8e",
          "transactionHash": "0xd0f34ba7f81daeb200998873df2da0b91acc8995b98a0139990d9792e0b625cf",
          "transactionIndex": "0x4",
          "logIndex": "0x7",
          "removed": false
        },
        {
          "address": "0x39bed14767138aba87d1f07b64088e1042239c59",
          "topics": [
            "0xaf5156078ffc09d447c818754d2e4310cc3f95e36cb33f85723785b122371ed5",
            "0x000000000000000000000000f1af6fd2726213278a221f9d6ff09b0edf9d8888"
          ],
          "data": "0x00000000000000000000000000000000000000000000000000000000000000c0000000000000000000000000000000000000000000000000000000000000010000000000000000000000000000000000000000000000d3c21bcecceda1000000000000000000000000000000000000000000000000000000000000000000001200000000000000000000000000000000000000000000000000b1a2bc2ec500000000000000000000000000003b4f0135465d444a5bd06ab90fc59b73916c85f5000000000000000000000000000000000000000000000000000000000000000653544f4e4b530000000000000000000000000000000000000000000000000000000000000000000000000000000000000000000000000000000000000000000653544f4e4b530000000000000000000000000000000000000000000000000000",
          "blockHash": "0x6058eb071fe26d5e1a3ca6f562d3e9f4d200c142083c9088112246d7089cfd68",
          "blockNumber": "0x17c9a8e",
          "transactionHash": "0xd0f34ba7f81daeb200998873df2da0b91acc8995b98a0139990d9792e0b625cf",
          "transactionIndex": "0x4",
          "logIndex": "0x8",
          "removed": false
        }
      ],
      "logsBloom": "0x00000000200000000000000000000000000000000020000000000020000000000000000000000000000000000000000000000000000000000000000004400000000000000000000000000008000000000000000000000000000000000000000000000000020000000000000000080800000000000000000000000010000000000000000000000000000000004000000000000000000000000000000000000000000000000000000000000000000000000000000000000000000000000000000000000102002000000000000000000000000000000100000002000000000020000000008000000000000000040000000000000000000020000000000000002000",
      "type": "0x2",
      "transactionHash": "0xd0f34ba7f81daeb200998873df2da0b91acc8995b98a0139990d9792e0b625cf",
      "transactionIndex": "0x4",
      "blockHash": "0x6058eb071fe26d5e1a3ca6f562d3e9f4d200c142083c9088112246d7089cfd68",
      "blockNumber": "0x17c9a8e",
      "gasUsed": "0x9abd8",
      "effectiveGasPrice": "0x3b9aca01",
      "from": "0x3b4f0135465d444a5bd06ab90fc59b73916c85f5",
      "to": "0x39bed14767138aba87d1f07b64088e1042239c59",
      "contractAddress": null
    },
    {
      "status": "0x1",
      "cumulativeGasUsed": "0x175193",
      "logs": [
        {
          "address": "0xf1af6fd2726213278a221f9d6ff09b0edf9d8888",
          "topics": [
            "0x8c5be1e5ebec7d5bd14f71427d1e84f3dd0314c0f7b2291e5b200ac8c7c3b925",
            "0x0000000000000000000000003b4f0135465d444a5bd06ab90fc59b73916c85f5",
            "0x000000000000000000000000c090da280082859b5744c8f3b27f1ee566d1675e"
          ],
          "data": "0x000000000000000000000000000000000000000000108b2a2c28029094000000",
          "blockHash": "0x6058eb071fe26d5e1a3ca6f562d3e9f4d200c142083c9088112246d7089cfd68",
          "blockNumber": "0x17c9a8e",
          "transactionHash": "0x2438c6f7f29e8bdb4f511222ce9ce7078d894a85a6481ff918c34dc065c42d67",
          "transactionIndex": "0x5",
          "logIndex": "0x9",
          "removed": false
        }
      ],
      "logsBloom": "0x00000000000000000000000000000000000000000000000001000020000000000000000000000000000000000000000000000000000000000000000000600000000000000000000000000000000000000000000000000000000000000000000000000000000000000000000000080000000000000000000000000000000000001000000000000000000000000000000000000000000000000000000000000000020000000000000000000000000000000000000000000000000000000000000000000100000000000000000000000000000000000100000000000000000000000010000000000000000000000000000004000000000020000000000000000000",
      "type": "0x2",
      "transactionHash": "0x2438c6f7f29e8bdb4f511222ce9ce7078d894a85a6481ff918c34dc065c42d67",
      "transactionIndex": "0x5",
      "blockHash": "0x6058eb071fe26d5e1a3ca6f562d3e9f4d200c142083c9088112246d7089cfd68",
      "blockNumber": "0x17c9a8e",
      "gasUsed": "0xbbdf",
      "effectiveGasPrice": "0x3b9aca01",
      "from": "0x3b4f0135465d444a5bd06ab90fc59b73916c85f5",
      "to": "0xf1af6fd2726213278a221f9d6ff09b0edf9d8888",
      "contractAddress": null
    },
    {
      "status": "0x1",
      "cumulativeGasUsed": "0x1890a1",
      "logs": [
        {
          "address": "0xf1af6fd2726213278a221f9d6ff09b0edf9d8888",
          "topics": [
            "0xddf252ad1be2c89b69c2b068fc378daa952ba7f163c4a11628f55a4df523b3ef",
            "0x0000000000000000000000003b4f0135465d444a5bd06ab90fc59b73916c85f5",
            "0x000000000000000000000000c090da280082859b5744c8f3b27f1ee566d1675e"
          ],
          "data": "0x000000000000000000000000000000000000000000108b2a2c28029094000000",
          "blockHash": "0x6058eb071fe26d5e1a3ca6f562d3e9f4d200c142083c9088112246d7089cfd68",
          "blockNumber": "0x17c9a8e",
          "transactionHash": "0x62f7556c27259490059f6fe9a5850fdf874816aa4c989b9e81a9fcbb7fcbfa37",
          "transactionIndex": "0x6",
          "logIndex": "0xa",
          "removed": false
        },
        {
          "address": "0xc090da280082859b5744c8f3b27f1ee566d1675e",
          "topics": [
            "0x9d278c56ba6dc86a12eefe6b43112bd6e06648eb4ec0b950ee2d783d40e2acb4",
            "0x0000000000000000000000003b4f0135465d444a5bd06ab90fc59b73916c85f5"
          ],
          "data": "0x000000000000000000000000f1af6fd2726213278a221f9d6ff09b0edf9d8888000000000000000000000000000000000000000000108b2a2c28029094000000",
          "blockHash": "0x6058eb071fe26d5e1a3ca6f562d3e9f4d200c142083c9088112246d7089cfd68",
          "blockNumber": "0x17c9a8e",
          "transactionHash": "0x62f7556c27259490059f6fe9a5850fdf874816aa4c989b9e81a9fcbb7fcbfa37",
          "transactionIndex": "0x6",
          "logIndex": "0xb",
          "removed": false
        }
      ],
      "logsBloom": "0x00000000000000000000000000000000008000000000002001000020000000000000000000000000000000000000000000000000000000000000000000400000000000000000000000000008000000000000000000000000000000000000000000000000000000000000000000080000000000000200000040000010000000001000000000000000000000000000000000000000000000000000000000000000000000001000000000000000000000000000000000000000000000000000000000000102000000000000000000000000000000000100000000000000000000000000000400000000000000000000000004000000000020000000000000000000",
      "type": "0x2",
      "transactionHash": "0x62f7556c27259490059f6fe9a5850fdf874816aa4c989b9e81a9fcbb7fcbfa37",
      "transactionIndex": "0x6",
      "blockHash": "0x6058eb071fe26d5e1a3ca6f562d3e9f4d200c142083c9088112246d7089cfd68",
      "blockNumber": "0x17c9a8e",
      "gasUsed": "0x13f0e",
      "effectiveGasPrice": "0x3b9aca01",
      "from": "0x3b4f0135465d444a5bd06ab90fc59b73916c85f5",
      "to": "0xc090da280082859b5744c8f3b27f1ee566d1675e",
      "contractAddress": null
    }
  ],
  "libraries": [],
  "pending": [],
  "returns": {},
  "timestamp": 1741283103,
  "chain": 57054,
  "commit": "f079722"
}