{
  "transactions": [
    {
      "hash": "0x5c3b474538c9341c03dc9e35686877e7b9e574db29275cc54f1944e5a94a584e",
      "transactionType": "CREATE",
      "contractName": "TokenFactory",
      "contractAddress": "0x33f9aa5a77a5795d416dd0903be209ca1643f336",
      "function": null,
      "arguments": null,
      "transaction": {
        "from": "0x3b4f0135465d444a5bd06ab90fc59b73916c85f5",
        "gas": "0xfb09b",
        "value": "0x0",
        "input": "0x60808060405234601557610d55908161001a8239f35b5f80fdfe60806040526004361015610011575f80fd5b5f3560e01c63b64acddd14610024575f80fd5b3461012f57608036600319011261012f5760043567ffffffffffffffff811161012f57610055903690600401610133565b60243567ffffffffffffffff811161012f57610075903690600401610133565b9060643560443560ff8216820361012f57604051610b188082019082821067ffffffffffffffff83111761011b5782916100b99161020884398585898933946101bf565b03905ff0908115610110576020946101057fafab5d1d74bae8c6b34c8932c5a93db45757bef8a5b14b76f11aa2cdd5cb9be59360018060a01b03169586956040519485943393866101bf565b0390a2604051908152f35b6040513d5f823e3d90fd5b634e487b7160e01b5f52604160045260245ffd5b5f80fd5b81601f8201121561012f5780359067ffffffffffffffff821161011b5760405192601f8301601f19908116603f0116840167ffffffffffffffff81118582101761011b576040528284526020838301011161012f57815f926020809301838601378301015290565b805180835260209291819084018484015e5f828201840152601f01601f1916010190565b936101eb6080949796936101dd60ff9460a0895260a089019061019b565b90878203602089015261019b565b60408601979097521660608401526001600160a01b031691015256fe6080604052346103f757610b1880380380610019816103fb565b928339810160a0828203126103f75781516001600160401b0381116103f75781610044918401610420565b602083015190916001600160401b0382116103f757610064918401610420565b9160408101519060608101519060ff82168092036103f757608001516001600160a01b03811693908490036103f7578051906001600160401b0382116102fa5760035490600182811c921680156103ed575b60208310146102dc5781601f84931161037f575b50602090601f8311600114610319575f9261030e575b50508160011b915f199060031b1c1916176003555b83516001600160401b0381116102fa57600454600181811c911680156102f0575b60208210146102dc57601f8111610279575b50602094601f8211600114610216579481929394955f9261020b575b50508160011b915f199060031b1c1916176004555b8060ff196005541617600555604d81116101e457600a0a908181029181830414901517156101e45781156101f857600254908082018092116101e45760207fddf252ad1be2c89b69c2b068fc378daa952ba7f163c4a11628f55a4df523b3ef915f9360025584845283825260408420818154019055604051908152a36040516106a690816104728239f35b634e487b7160e01b5f52601160045260245ffd5b63ec442f0560e01b5f525f60045260245ffd5b015190505f80610144565b601f1982169560045f52805f20915f5b88811061026157508360019596979810610249575b505050811b01600455610159565b01515f1960f88460031b161c191690555f808061023b565b91926020600181928685015181550194019201610226565b60045f527f8a35acfbc15ff81a39ae7d344fd709f28e8600b4aa8c65c6b64bfe7fe36bd19b601f830160051c810191602084106102d2575b601f0160051c01905b8181106102c75750610128565b5f81556001016102ba565b90915081906102b1565b634e487b7160e01b5f52602260045260245ffd5b90607f1690610116565b634e487b7160e01b5f52604160045260245ffd5b015190505f806100e0565b60035f9081528281209350601f198516905b818110610367575090846001959493921061034f575b505050811b016003556100f5565b01515f1960f88460031b161c191690555f8080610341565b9293602060018192878601518155019501930161032b565b60035f529091507fc2575a0e9e593c00f959f8c92f12db2869c3395a3b0502d05e2516446f71f85b601f840160051c810191602085106103e3575b90601f859493920160051c01905b8181106103d557506100ca565b5f81558493506001016103c8565b90915081906103ba565b91607f16916100b6565b5f80fd5b6040519190601f01601f191682016001600160401b038111838210176102fa57604052565b81601f820112156103f7578051906001600160401b0382116102fa5761044f601f8301601f19166020016103fb565b92828452602083830101116103f757815f9260208093018386015e830101529056fe6080806040526004361015610012575f80fd5b5f3560e01c90816306fdde03146104a157508063095ea7b31461041f57806318160ddd1461040257806323b872dd14610323578063313ce5671461030357806340c10f191461026157806370a082311461022a57806395d89b411461010f578063a9059cbb146100de5763dd62ed3e1461008a575f80fd5b346100da5760403660031901126100da576100a361059a565b6100ab6105b0565b6001600160a01b039182165f908152600160209081526040808320949093168252928352819020549051908152f35b5f80fd5b346100da5760403660031901126100da576101046100fa61059a565b60243590336105c6565b602060405160018152f35b346100da575f3660031901126100da576040515f6004548060011c90600181168015610220575b60208310811461020c578285529081156101f0575060011461019b575b50819003601f01601f191681019067ffffffffffffffff8211818310176101875761018382918260405282610570565b0390f35b634e487b7160e01b5f52604160045260245ffd5b905060045f527f8a35acfbc15ff81a39ae7d344fd709f28e8600b4aa8c65c6b64bfe7fe36bd19b5f905b8282106101da57506020915082010182610153565b60018160209254838588010152019101906101c5565b90506020925060ff191682840152151560051b82010182610153565b634e487b7160e01b5f52602260045260245ffd5b91607f1691610136565b346100da5760203660031901126100da576001600160a01b0361024b61059a565b165f525f602052602060405f2054604051908152f35b346100da5760403660031901126100da5761027a61059a565b6001600160a01b031660243581156102f057600254908082018092116102dc5760207fddf252ad1be2c89b69c2b068fc378daa952ba7f163c4a11628f55a4df523b3ef915f9360025584845283825260408420818154019055604051908152a3005b634e487b7160e01b5f52601160045260245ffd5b63ec442f0560e01b5f525f60045260245ffd5b346100da575f3660031901126100da57602060ff60055416604051908152f35b346100da5760603660031901126100da5761033c61059a565b6103446105b0565b6001600160a01b0382165f818152600160209081526040808320338452909152902054909260443592915f198110610382575b5061010493506105c6565b8381106103e75784156103d45733156103c157610104945f52600160205260405f2060018060a01b0333165f526020528360405f209103905584610377565b634a1406b160e11b5f525f60045260245ffd5b63e602df0560e01b5f525f60045260245ffd5b8390637dc7a0d960e11b5f523360045260245260445260645ffd5b346100da575f3660031901126100da576020600254604051908152f35b346100da5760403660031901126100da5761043861059a565b6024359033156103d4576001600160a01b03169081156103c157335f52600160205260405f20825f526020528060405f20556040519081527f8c5be1e5ebec7d5bd14f71427d1e84f3dd0314c0f7b2291e5b200ac8c7c3b92560203392a3602060405160018152f35b346100da575f3660031901126100da575f6003548060011c90600181168015610566575b60208310811461020c578285529081156101f057506001146105115750819003601f01601f191681019067ffffffffffffffff8211818310176101875761018382918260405282610570565b905060035f527fc2575a0e9e593c00f959f8c92f12db2869c3395a3b0502d05e2516446f71f85b5f905b82821061055057506020915082010182610153565b600181602092548385880101520191019061053b565b91607f16916104c5565b602060409281835280519182918282860152018484015e5f828201840152601f01601f1916010190565b600435906001600160a01b03821682036100da57565b602435906001600160a01b03821682036100da57565b6001600160a01b031690811561065d576001600160a01b03169182156102f057815f525f60205260405f205481811061064457817fddf252ad1be2c89b69c2b068fc378daa952ba7f163c4a11628f55a4df523b3ef92602092855f525f84520360405f2055845f525f825260405f20818154019055604051908152a3565b8263391434e360e21b5f5260045260245260445260645ffd5b634b637e8f60e11b5f525f60045260245ffdfea2646970667358221220074f8521d36b3d2766d89380bf48213d07fa75729f438dfc3feca7381559d26664736f6c634300081c0033a264697066735822122043c5c691b338080df376d5aab3806c24334f858ed9255fdf5a4989c6055dbe0264736f6c634300081c0033",
        "nonce": "0x69",
        "chainId": "0xdede"
      },
      "additionalContracts": [],
      "isFixedGasLimit": false
    },
    {
      "hash": "0x99b8a2e021447b590dc039539ea9657873128a0676fb541d5b35f6c272cf9383",
      "transactionType": "CREATE",
      "contractName": "Core",
      "contractAddress": "0x5844cf8bbf41a2e25ed3f40ee96e64f31330ca3d",
      "function": null,
      "arguments": null,
      "transaction": {
        "from": "0x3b4f0135465d444a5bd06ab90fc59b73916c85f5",
        "gas": "0x94276",
        "value": "0x0",
        "input": "0x60808060405234601557610778908161001a8239f35b5f80fdfe60806040526004361015610011575f80fd5b5f3560e01c806356688700146104c0578063a201ccf6146103be578063a747b93b14610387578063b8c876b1146103875763df791e5014610050575f80fd5b34610383576060366003190112610383576100696105b2565b6024356001600160a01b038116919082900361038357604435906001600160a01b03168015158061037a575b1561033d5781156100a681156105c8565b815f525f60205260405f2054151580610327575b6100c3906106ac565b5f8281526020819052604080822054868352912054918115158061031e575b156102e6576103e58502908582046103e51417156102d2576103e890048281029281840414811517156102d2576101189161069f565b9081156102be570491821561026b57815f525f60205260405f2061013d82825461069f565b9055835f525f60205260405f206101558482546106f1565b90556040516323b872dd60e01b8152336004820152306024820152604481018290526020816064815f875af1801561024757610198915f91610252575b506106fe565b60405163a9059cbb60e01b815233600482015260248101849052936020856044815f855af1948515610247576020956101d7915f9161021a57506106fe565b6040519283528483015260408201528160608201527fcd3829a3813dc3cdd188fd3d01dcf3268c16be2fdd2dd21d0665418816e4606260803392a2604051908152f35b61023a9150873d8911610240575b6102328183610613565b810190610649565b5f610192565b503d610228565b6040513d5f823e3d90fd5b61023a915060203d602011610240576102328183610613565b60405162461bcd60e51b815260206004820152602560248201527f5377617020616d6f756e74206d7573742062652067726561746572207468616e604482015264207a65726f60d81b6064820152608490fd5b634e487b7160e01b5f52601260045260245ffd5b634e487b7160e01b5f52601160045260245ffd5b60405162461bcd60e51b815260206004820152601060248201526f496e76616c696420726573657276657360801b6044820152606490fd5b508215156100e2565b505f8481526020819052604090205415156100ba565b60405162461bcd60e51b8152602060048201526015602482015274496e76616c696420746f6b656e206164647265737360581b6044820152606490fd5b50821515610095565b5f80fd5b34610383576020366003190112610383576001600160a01b036103a86105b2565b165f525f602052602060405f2054604051908152f35b34610383576040366003190112610383576103d76105b2565b60243560018060a01b03821690815f525f6020526103fb8160405f205410156106ac565b815f525f60205260405f206104118282546106f1565b905560405163a9059cbb60e01b81523360048201526024810182905291602090839060449082905f905af19081156102475761047961049c927f983e86fda8e7b1e2eae380201830eaf1cac55772e8e39583da349865e8178863945f916104a1575b50610661565b604080516001600160a01b03909516855260208501919091523393918291820190565b0390a2005b6104ba915060203d602011610240576102328183610613565b86610473565b34610383576040366003190112610383576104d96105b2565b6024356104e78115156105c8565b6040516323b872dd60e01b815233600482015230602482015260448101829052906001600160a01b038316906020836064815f865af19182156102475761055961049c937f9d278c56ba6dc86a12eefe6b43112bd6e06648eb4ec0b950ee2d783d40e2acb4955f916105935750610661565b5f525f60205260405f2061056e82825461069f565b9055604080516001600160a01b03909516855260208501919091523393918291820190565b6105ac915060203d602011610240576102328183610613565b87610473565b600435906001600160a01b038216820361038357565b156105cf57565b606460405162461bcd60e51b815260206004820152602060248201527f416d6f756e74206d7573742062652067726561746572207468616e207a65726f6044820152fd5b90601f8019910116810190811067ffffffffffffffff82111761063557604052565b634e487b7160e01b5f52604160045260245ffd5b90816020910312610383575180151581036103835790565b1561066857565b60405162461bcd60e51b815260206004820152600f60248201526e151c985b9cd9995c8819985a5b1959608a1b6044820152606490fd5b919082018092116102d257565b156106b357565b60405162461bcd60e51b8152602060048201526016602482015275496e73756666696369656e74206c697175696469747960501b6044820152606490fd5b919082039182116102d257565b1561070557565b60405162461bcd60e51b8152602060048201526015602482015274151bdad95b881d1c985b9cd9995c8819985a5b1959605a1b6044820152606490fdfea264697066735822122024398d0caa7b1af3e737a3e71b2768b14a9c86ffb9a37a7d0849ffc11cde81e564736f6c634300081c0033",
        "nonce": "0x6a",
        "chainId": "0xdede"
      },
      "additionalContracts": [],
      "isFixedGasLimit": false
    },
    {
      "hash": "0xc3e834ebc698c373f220202271bc30a09a751739c8989e6579820f780aa3c834",
      "transactionType": "CALL",
      "contractName": "TokenFactory",
      "contractAddress": "0x33f9aa5a77a5795d416dd0903be209ca1643f336",
      "function": "createToken(string,string,uint256,uint8)",
      "arguments": [
        "SONIC",
        "S",
        "1000000000000000000000000",
        "18"
      ],
      "transaction": {
        "from": "0x3b4f0135465d444a5bd06ab90fc59b73916c85f5",
        "to": "0x33f9aa5a77a5795d416dd0903be209ca1643f336",
        "gas": "0xadcbc",
        "value": "0x0",
        "input": "0xb64acddd000000000000000000000000000000000000000000000000000000000000008000000000000000000000000000000000000000000000000000000000000000c000000000000000000000000000000000000000000000d3c21bcecceda100000000000000000000000000000000000000000000000000000000000000000000120000000000000000000000000000000000000000000000000000000000000005534f4e494300000000000000000000000000000000000000000000000000000000000000000000000000000000000000000000000000000000000000000000015300000000000000000000000000000000000000000000000000000000000000",
        "nonce": "0x6b",
        "chainId": "0xdede"
      },
      "additionalContracts": [
        {
          "transactionType": "CREATE",
          "address": "0x27191bdbbac629e8e55eda817c177d4062411246",
          "initCode": "0x6080604052346103f757610b1880380380610019816103fb565b928339810160a0828203126103f75781516001600160401b0381116103f75781610044918401610420565b602083015190916001600160401b0382116103f757610064918401610420565b9160408101519060608101519060ff82168092036103f757608001516001600160a01b03811693908490036103f7578051906001600160401b0382116102fa5760035490600182811c921680156103ed575b60208310146102dc5781601f84931161037f575b50602090601f8311600114610319575f9261030e575b50508160011b915f199060031b1c1916176003555b83516001600160401b0381116102fa57600454600181811c911680156102f0575b60208210146102dc57601f8111610279575b50602094601f8211600114610216579481929394955f9261020b575b50508160011b915f199060031b1c1916176004555b8060ff196005541617600555604d81116101e457600a0a908181029181830414901517156101e45781156101f857600254908082018092116101e45760207fddf252ad1be2c89b69c2b068fc378daa952ba7f163c4a11628f55a4df523b3ef915f9360025584845283825260408420818154019055604051908152a36040516106a690816104728239f35b634e487b7160e01b5f52601160045260245ffd5b63ec442f0560e01b5f525f60045260245ffd5b015190505f80610144565b601f1982169560045f52805f20915f5b88811061026157508360019596979810610249575b505050811b01600455610159565b01515f1960f88460031b161c191690555f808061023b565b91926020600181928685015181550194019201610226565b60045f527f8a35acfbc15ff81a39ae7d344fd709f28e8600b4aa8c65c6b64bfe7fe36bd19b601f830160051c810191602084106102d2575b601f0160051c01905b8181106102c75750610128565b5f81556001016102ba565b90915081906102b1565b634e487b7160e01b5f52602260045260245ffd5b90607f1690610116565b634e487b7160e01b5f52604160045260245ffd5b015190505f806100e0565b60035f9081528281209350601f198516905b818110610367575090846001959493921061034f575b505050811b016003556100f5565b01515f1960f88460031b161c191690555f8080610341565b9293602060018192878601518155019501930161032b565b60035f529091507fc2575a0e9e593c00f959f8c92f12db2869c3395a3b0502d05e2516446f71f85b601f840160051c810191602085106103e3575b90601f859493920160051c01905b8181106103d557506100ca565b5f81558493506001016103c8565b90915081906103ba565b91607f16916100b6565b5f80fd5b6040519190601f01601f191682016001600160401b038111838210176102fa57604052565b81601f820112156103f7578051906001600160401b0382116102fa5761044f601f8301601f19166020016103fb565b92828452602083830101116103f757815f9260208093018386015e830101529056fe6080806040526004361015610012575f80fd5b5f3560e01c90816306fdde03146104a157508063095ea7b31461041f57806318160ddd1461040257806323b872dd14610323578063313ce5671461030357806340c10f191461026157806370a082311461022a57806395d89b411461010f578063a9059cbb146100de5763dd62ed3e1461008a575f80fd5b346100da5760403660031901126100da576100a361059a565b6100ab6105b0565b6001600160a01b039182165f908152600160209081526040808320949093168252928352819020549051908152f35b5f80fd5b346100da5760403660031901126100da576101046100fa61059a565b60243590336105c6565b602060405160018152f35b346100da575f3660031901126100da576040515f6004548060011c90600181168015610220575b60208310811461020c578285529081156101f0575060011461019b575b50819003601f01601f191681019067ffffffffffffffff8211818310176101875761018382918260405282610570565b0390f35b634e487b7160e01b5f52604160045260245ffd5b905060045f527f8a35acfbc15ff81a39ae7d344fd709f28e8600b4aa8c65c6b64bfe7fe36bd19b5f905b8282106101da57506020915082010182610153565b60018160209254838588010152019101906101c5565b90506020925060ff191682840152151560051b82010182610153565b634e487b7160e01b5f52602260045260245ffd5b91607f1691610136565b346100da5760203660031901126100da576001600160a01b0361024b61059a565b165f525f602052602060405f2054604051908152f35b346100da5760403660031901126100da5761027a61059a565b6001600160a01b031660243581156102f057600254908082018092116102dc5760207fddf252ad1be2c89b69c2b068fc378daa952ba7f163c4a11628f55a4df523b3ef915f9360025584845283825260408420818154019055604051908152a3005b634e487b7160e01b5f52601160045260245ffd5b63ec442f0560e01b5f525f60045260245ffd5b346100da575f3660031901126100da57602060ff60055416604051908152f35b346100da5760603660031901126100da5761033c61059a565b6103446105b0565b6001600160a01b0382165f818152600160209081526040808320338452909152902054909260443592915f198110610382575b5061010493506105c6565b8381106103e75784156103d45733156103c157610104945f52600160205260405f2060018060a01b0333165f526020528360405f209103905584610377565b634a1406b160e11b5f525f60045260245ffd5b63e602df0560e01b5f525f60045260245ffd5b8390637dc7a0d960e11b5f523360045260245260445260645ffd5b346100da575f3660031901126100da576020600254604051908152f35b346100da5760403660031901126100da5761043861059a565b6024359033156103d4576001600160a01b03169081156103c157335f52600160205260405f20825f526020528060405f20556040519081527f8c5be1e5ebec7d5bd14f71427d1e84f3dd0314c0f7b2291e5b200ac8c7c3b92560203392a3602060405160018152f35b346100da575f3660031901126100da575f6003548060011c90600181168015610566575b60208310811461020c578285529081156101f057506001146105115750819003601f01601f191681019067ffffffffffffffff8211818310176101875761018382918260405282610570565b905060035f527fc2575a0e9e593c00f959f8c92f12db2869c3395a3b0502d05e2516446f71f85b5f905b82821061055057506020915082010182610153565b600181602092548385880101520191019061053b565b91607f16916104c5565b602060409281835280519182918282860152018484015e5f828201840152601f01601f1916010190565b600435906001600160a01b03821682036100da57565b602435906001600160a01b03821682036100da57565b6001600160a01b031690811561065d576001600160a01b03169182156102f057815f525f60205260405f205481811061064457817fddf252ad1be2c89b69c2b068fc378daa952ba7f163c4a11628f55a4df523b3ef92602092855f525f84520360405f2055845f525f825260405f20818154019055604051908152a3565b8263391434e360e21b5f5260045260245260445260645ffd5b634b637e8f60e11b5f525f60045260245ffdfea2646970667358221220074f8521d36b3d2766d89380bf48213d07fa75729f438dfc3feca7381559d26664736f6c634300081c003300000000000000000000000000000000000000000000000000000000000000a000000000000000000000000000000000000000000000000000000000000000e000000000000000000000000000000000000000000000d3c21bcecceda100000000000000000000000000000000000000000000000000000000000000000000120000000000000000000000003b4f0135465d444a5bd06ab90fc59b73916c85f50000000000000000000000000000000000000000000000000000000000000005534f4e494300000000000000000000000000000000000000000000000000000000000000000000000000000000000000000000000000000000000000000000015300000000000000000000000000000000000000000000000000000000000000"
        }
      ],
      "isFixedGasLimit": false
    },
    {
      "hash": "0x0b68333bce3c7d4eaf66bb1cd2617d358a2564da4f30b1532210194829db633c",
      "transactionType": "CALL",
      "contractName": "MockToken",
      "contractAddress": "0x27191bdbbac629e8e55eda817c177d4062411246",
      "function": "mint(address,uint256)",
      "arguments": [
        "0x3B4f0135465d444a5bD06Ab90fC59B73916C85F5",
        "1000000000000000000000000"
      ],
      "transaction": {
        "from": "0x3b4f0135465d444a5bd06ab90fc59b73916c85f5",
        "to": "0x27191bdbbac629e8e55eda817c177d4062411246",
        "gas": "0xb6f4",
        "value": "0x0",
        "input": "0x40c10f190000000000000000000000003b4f0135465d444a5bd06ab90fc59b73916c85f500000000000000000000000000000000000000000000d3c21bcecceda1000000",
        "nonce": "0x6c",
        "chainId": "0xdede"
      },
      "additionalContracts": [],
      "isFixedGasLimit": false
    },
    {
      "hash": "0xcff82fdf5a563be57288558e3908f0d0df85f843175af16a7dc12993cb18a88f",
      "transactionType": "CALL",
      "contractName": "MockToken",
      "contractAddress": "0x27191bdbbac629e8e55eda817c177d4062411246",
      "function": "approve(address,uint256)",
      "arguments": [
        "0x5844Cf8Bbf41a2e25Ed3F40Ee96E64F31330cA3D",
        "1000000000000000000000000"
      ],
      "transaction": {
        "from": "0x3b4f0135465d444a5bd06ab90fc59b73916c85f5",
        "to": "0x27191bdbbac629e8e55eda817c177d4062411246",
        "gas": "0x1069d",
        "value": "0x0",
        "input": "0x095ea7b30000000000000000000000005844cf8bbf41a2e25ed3f40ee96e64f31330ca3d00000000000000000000000000000000000000000000d3c21bcecceda1000000",
        "nonce": "0x6d",
        "chainId": "0xdede"
      },
      "additionalContracts": [],
      "isFixedGasLimit": false
    },
    {
      "hash": "0x4d4a62f036d1fc383f66cfab723df601ff1a1945b16c9a679b0954d51a743823",
      "transactionType": "CALL",
      "contractName": "Core",
      "contractAddress": "0x5844cf8bbf41a2e25ed3f40ee96e64f31330ca3d",
      "function": "addLiquidity(address,uint256)",
      "arguments": [
        "0x27191BDBBAC629E8e55eDa817c177D4062411246",
        "1000000000000000000000000"
      ],
      "transaction": {
        "from": "0x3b4f0135465d444a5bd06ab90fc59b73916c85f5",
        "to": "0x5844cf8bbf41a2e25ed3f40ee96e64f31330ca3d",
        "gas": "0x1c40e",
        "value": "0x0",
        "input": "0x5668870000000000000000000000000027191bdbbac629e8e55eda817c177d406241124600000000000000000000000000000000000000000000d3c21bcecceda1000000",
        "nonce": "0x6e",
        "chainId": "0xdede"
      },
      "additionalContracts": [],
      "isFixedGasLimit": false
    },
    {
      "hash": "0x402e1354097b2932d8c51f9701d15daed67923b756608635ebd72fc32109978e",
      "transactionType": "CALL",
      "contractName": "TokenFactory",
      "contractAddress": "0x33f9aa5a77a5795d416dd0903be209ca1643f336",
      "function": "createToken(string,string,uint256,uint8)",
      "arguments": [
        "Wrapped Ether",
        "WETH",
        "1000000000000000000000000",
        "18"
      ],
      "transaction": {
        "from": "0x3b4f0135465d444a5bd06ab90fc59b73916c85f5",
        "to": "0x33f9aa5a77a5795d416dd0903be209ca1643f336",
        "gas": "0xadd72",
        "value": "0x0",
        "input": "0xb64acddd000000000000000000000000000000000000000000000000000000000000008000000000000000000000000000000000000000000000000000000000000000c000000000000000000000000000000000000000000000d3c21bcecceda10000000000000000000000000000000000000000000000000000000000000000000012000000000000000000000000000000000000000000000000000000000000000d577261707065642045746865720000000000000000000000000000000000000000000000000000000000000000000000000000000000000000000000000000045745544800000000000000000000000000000000000000000000000000000000",
        "nonce": "0x6f",
        "chainId": "0xdede"
      },
      "additionalContracts": [
        {
          "transactionType": "CREATE",
          "address": "0x9264d84bc5e31c250b0bce92ed297deb1ac38e87",
          "initCode": "0x6080604052346103f757610b1880380380610019816103fb565b928339810160a0828203126103f75781516001600160401b0381116103f75781610044918401610420565b602083015190916001600160401b0382116103f757610064918401610420565b9160408101519060608101519060ff82168092036103f757608001516001600160a01b03811693908490036103f7578051906001600160401b0382116102fa5760035490600182811c921680156103ed575b60208310146102dc5781601f84931161037f575b50602090601f8311600114610319575f9261030e575b50508160011b915f199060031b1c1916176003555b83516001600160401b0381116102fa57600454600181811c911680156102f0575b60208210146102dc57601f8111610279575b50602094601f8211600114610216579481929394955f9261020b575b50508160011b915f199060031b1c1916176004555b8060ff196005541617600555604d81116101e457600a0a908181029181830414901517156101e45781156101f857600254908082018092116101e45760207fddf252ad1be2c89b69c2b068fc378daa952ba7f163c4a11628f55a4df523b3ef915f9360025584845283825260408420818154019055604051908152a36040516106a690816104728239f35b634e487b7160e01b5f52601160045260245ffd5b63ec442f0560e01b5f525f60045260245ffd5b015190505f80610144565b601f1982169560045f52805f20915f5b88811061026157508360019596979810610249575b505050811b01600455610159565b01515f1960f88460031b161c191690555f808061023b565b91926020600181928685015181550194019201610226565b60045f527f8a35acfbc15ff81a39ae7d344fd709f28e8600b4aa8c65c6b64bfe7fe36bd19b601f830160051c810191602084106102d2575b601f0160051c01905b8181106102c75750610128565b5f81556001016102ba565b90915081906102b1565b634e487b7160e01b5f52602260045260245ffd5b90607f1690610116565b634e487b7160e01b5f52604160045260245ffd5b015190505f806100e0565b60035f9081528281209350601f198516905b818110610367575090846001959493921061034f575b505050811b016003556100f5565b01515f1960f88460031b161c191690555f8080610341565b9293602060018192878601518155019501930161032b565b60035f529091507fc2575a0e9e593c00f959f8c92f12db2869c3395a3b0502d05e2516446f71f85b601f840160051c810191602085106103e3575b90601f859493920160051c01905b8181106103d557506100ca565b5f81558493506001016103c8565b90915081906103ba565b91607f16916100b6565b5f80fd5b6040519190601f01601f191682016001600160401b038111838210176102fa57604052565b81601f820112156103f7578051906001600160401b0382116102fa5761044f601f8301601f19166020016103fb565b92828452602083830101116103f757815f9260208093018386015e830101529056fe6080806040526004361015610012575f80fd5b5f3560e01c90816306fdde03146104a157508063095ea7b31461041f57806318160ddd1461040257806323b872dd14610323578063313ce5671461030357806340c10f191461026157806370a082311461022a57806395d89b411461010f578063a9059cbb146100de5763dd62ed3e1461008a575f80fd5b346100da5760403660031901126100da576100a361059a565b6100ab6105b0565b6001600160a01b039182165f908152600160209081526040808320949093168252928352819020549051908152f35b5f80fd5b346100da5760403660031901126100da576101046100fa61059a565b60243590336105c6565b602060405160018152f35b346100da575f3660031901126100da576040515f6004548060011c90600181168015610220575b60208310811461020c578285529081156101f0575060011461019b575b50819003601f01601f191681019067ffffffffffffffff8211818310176101875761018382918260405282610570565b0390f35b634e487b7160e01b5f52604160045260245ffd5b905060045f527f8a35acfbc15ff81a39ae7d344fd709f28e8600b4aa8c65c6b64bfe7fe36bd19b5f905b8282106101da57506020915082010182610153565b60018160209254838588010152019101906101c5565b90506020925060ff191682840152151560051b82010182610153565b634e487b7160e01b5f52602260045260245ffd5b91607f1691610136565b346100da5760203660031901126100da576001600160a01b0361024b61059a565b165f525f602052602060405f2054604051908152f35b346100da5760403660031901126100da5761027a61059a565b6001600160a01b031660243581156102f057600254908082018092116102dc5760207fddf252ad1be2c89b69c2b068fc378daa952ba7f163c4a11628f55a4df523b3ef915f9360025584845283825260408420818154019055604051908152a3005b634e487b7160e01b5f52601160045260245ffd5b63ec442f0560e01b5f525f60045260245ffd5b346100da575f3660031901126100da57602060ff60055416604051908152f35b346100da5760603660031901126100da5761033c61059a565b6103446105b0565b6001600160a01b0382165f818152600160209081526040808320338452909152902054909260443592915f198110610382575b5061010493506105c6565b8381106103e75784156103d45733156103c157610104945f52600160205260405f2060018060a01b0333165f526020528360405f209103905584610377565b634a1406b160e11b5f525f60045260245ffd5b63e602df0560e01b5f525f60045260245ffd5b8390637dc7a0d960e11b5f523360045260245260445260645ffd5b346100da575f3660031901126100da576020600254604051908152f35b346100da5760403660031901126100da5761043861059a565b6024359033156103d4576001600160a01b03169081156103c157335f52600160205260405f20825f526020528060405f20556040519081527f8c5be1e5ebec7d5bd14f71427d1e84f3dd0314c0f7b2291e5b200ac8c7c3b92560203392a3602060405160018152f35b346100da575f3660031901126100da575f6003548060011c90600181168015610566575b60208310811461020c578285529081156101f057506001146105115750819003601f01601f191681019067ffffffffffffffff8211818310176101875761018382918260405282610570565b905060035f527fc2575a0e9e593c00f959f8c92f12db2869c3395a3b0502d05e2516446f71f85b5f905b82821061055057506020915082010182610153565b600181602092548385880101520191019061053b565b91607f16916104c5565b602060409281835280519182918282860152018484015e5f828201840152601f01601f1916010190565b600435906001600160a01b03821682036100da57565b602435906001600160a01b03821682036100da57565b6001600160a01b031690811561065d576001600160a01b03169182156102f057815f525f60205260405f205481811061064457817fddf252ad1be2c89b69c2b068fc378daa952ba7f163c4a11628f55a4df523b3ef92602092855f525f84520360405f2055845f525f825260405f20818154019055604051908152a3565b8263391434e360e21b5f5260045260245260445260645ffd5b634b637e8f60e11b5f525f60045260245ffdfea2646970667358221220074f8521d36b3d2766d89380bf48213d07fa75729f438dfc3feca7381559d26664736f6c634300081c003300000000000000000000000000000000000000000000000000000000000000a000000000000000000000000000000000000000000000000000000000000000e000000000000000000000000000000000000000000000d3c21bcecceda100000000000000000000000000000000000000000000000000000000000000000000120000000000000000000000003b4f0135465d444a5bd06ab90fc59b73916c85f5000000000000000000000000000000000000000000000000000000000000000d577261707065642045746865720000000000000000000000000000000000000000000000000000000000000000000000000000000000000000000000000000045745544800000000000000000000000000000000000000000000000000000000"
        }
      ],
      "isFixedGasLimit": false
    },
    {
      "hash": "0x170e08e43688a51afd95c56bb1e032fd2c662e3d4301b77d5055637b75f4f1f2",
      "transactionType": "CALL",
      "contractName": "MockToken",
      "contractAddress": "0x9264d84bc5e31c250b0bce92ed297deb1ac38e87",
      "function": "mint(address,uint256)",
      "arguments": [
        "0x3B4f0135465d444a5bD06Ab90fC59B73916C85F5",
        "1000000000000000000000000"
      ],
      "transaction": {
        "from": "0x3b4f0135465d444a5bd06ab90fc59b73916c85f5",
        "to": "0x9264d84bc5e31c250b0bce92ed297deb1ac38e87",
        "gas": "0xb6f4",
        "value": "0x0",
        "input": "0x40c10f190000000000000000000000003b4f0135465d444a5bd06ab90fc59b73916c85f500000000000000000000000000000000000000000000d3c21bcecceda1000000",
        "nonce": "0x70",
        "chainId": "0xdede"
      },
      "additionalContracts": [],
      "isFixedGasLimit": false
    },
    {
      "hash": "0x12808d0df5506cb577f41e07ed06998c1ee13695dab61fdff78326e6f9531df1",
      "transactionType": "CALL",
      "contractName": "MockToken",
      "contractAddress": "0x9264d84bc5e31c250b0bce92ed297deb1ac38e87",
      "function": "approve(address,uint256)",
      "arguments": [
        "0x5844Cf8Bbf41a2e25Ed3F40Ee96E64F31330cA3D",
        "367782272894446487679"
      ],
      "transaction": {
        "from": "0x3b4f0135465d444a5bd06ab90fc59b73916c85f5",
        "to": "0x9264d84bc5e31c250b0bce92ed297deb1ac38e87",
        "gas": "0x106c0",
        "value": "0x0",
        "input": "0x095ea7b30000000000000000000000005844cf8bbf41a2e25ed3f40ee96e64f31330ca3d000000000000000000000000000000000000000000000013f0011c9a7f42487f",
        "nonce": "0x71",
        "chainId": "0xdede"
      },
      "additionalContracts": [],
      "isFixedGasLimit": false
    },
    {
      "hash": "0x301d99374aa8211cf26b4d0b2c711dfb10c29f79fc9e020bdb8263fd32128fc9",
      "transactionType": "CALL",
      "contractName": "Core",
      "contractAddress": "0x5844cf8bbf41a2e25ed3f40ee96e64f31330ca3d",
      "function": "addLiquidity(address,uint256)",
      "arguments": [
        "0x9264d84bc5e31C250b0BcE92Ed297dEb1AC38e87",
        "367782272894446487679"
      ],
      "transaction": {
        "from": "0x3b4f0135465d444a5bd06ab90fc59b73916c85f5",
        "to": "0x5844cf8bbf41a2e25ed3f40ee96e64f31330ca3d",
        "gas": "0x1c431",
        "value": "0x0",
        "input": "0x566887000000000000000000000000009264d84bc5e31c250b0bce92ed297deb1ac38e87000000000000000000000000000000000000000000000013f0011c9a7f42487f",
        "nonce": "0x72",
        "chainId": "0xdede"
      },
      "additionalContracts": [],
      "isFixedGasLimit": false
    },
    {
      "hash": "0x7f8685e5cf8628ae4b3ce8fbe20fbf374058aa5c1d66ba8b4a0afa776488a6d1",
      "transactionType": "CALL",
      "contractName": "TokenFactory",
      "contractAddress": "0x33f9aa5a77a5795d416dd0903be209ca1643f336",
      "function": "createToken(string,string,uint256,uint8)",
      "arguments": [
        "PEPE",
        "PEPE",
        "1000000000000000000000000",
        "18"
      ],
      "transaction": {
        "from": "0x3b4f0135465d444a5bd06ab90fc59b73916c85f5",
        "to": "0x33f9aa5a77a5795d416dd0903be209ca1643f336",
        "gas": "0xadcdc",
        "value": "0x0",
        "input": "0xb64acddd000000000000000000000000000000000000000000000000000000000000008000000000000000000000000000000000000000000000000000000000000000c000000000000000000000000000000000000000000000d3c21bcecceda100000000000000000000000000000000000000000000000000000000000000000000120000000000000000000000000000000000000000000000000000000000000004504550450000000000000000000000000000000000000000000000000000000000000000000000000000000000000000000000000000000000000000000000045045504500000000000000000000000000000000000000000000000000000000",
        "nonce": "0x73",
        "chainId": "0xdede"
      },
      "additionalContracts": [
        {
          "transactionType": "CREATE",
          "address": "0xc8e25e5dc52492bf28425fb923966ac9bd00683b",
          "initCode": "0x6080604052346103f757610b1880380380610019816103fb565b928339810160a0828203126103f75781516001600160401b0381116103f75781610044918401610420565b602083015190916001600160401b0382116103f757610064918401610420565b9160408101519060608101519060ff82168092036103f757608001516001600160a01b03811693908490036103f7578051906001600160401b0382116102fa5760035490600182811c921680156103ed575b60208310146102dc5781601f84931161037f575b50602090601f8311600114610319575f9261030e575b50508160011b915f199060031b1c1916176003555b83516001600160401b0381116102fa57600454600181811c911680156102f0575b60208210146102dc57601f8111610279575b50602094601f8211600114610216579481929394955f9261020b575b50508160011b915f199060031b1c1916176004555b8060ff196005541617600555604d81116101e457600a0a908181029181830414901517156101e45781156101f857600254908082018092116101e45760207fddf252ad1be2c89b69c2b068fc378daa952ba7f163c4a11628f55a4df523b3ef915f9360025584845283825260408420818154019055604051908152a36040516106a690816104728239f35b634e487b7160e01b5f52601160045260245ffd5b63ec442f0560e01b5f525f60045260245ffd5b015190505f80610144565b601f1982169560045f52805f20915f5b88811061026157508360019596979810610249575b505050811b01600455610159565b01515f1960f88460031b161c191690555f808061023b565b91926020600181928685015181550194019201610226565b60045f527f8a35acfbc15ff81a39ae7d344fd709f28e8600b4aa8c65c6b64bfe7fe36bd19b601f830160051c810191602084106102d2575b601f0160051c01905b8181106102c75750610128565b5f81556001016102ba565b90915081906102b1565b634e487b7160e01b5f52602260045260245ffd5b90607f1690610116565b634e487b7160e01b5f52604160045260245ffd5b015190505f806100e0565b60035f9081528281209350601f198516905b818110610367575090846001959493921061034f575b505050811b016003556100f5565b01515f1960f88460031b161c191690555f8080610341565b9293602060018192878601518155019501930161032b565b60035f529091507fc2575a0e9e593c00f959f8c92f12db2869c3395a3b0502d05e2516446f71f85b601f840160051c810191602085106103e3575b90601f859493920160051c01905b8181106103d557506100ca565b5f81558493506001016103c8565b90915081906103ba565b91607f16916100b6565b5f80fd5b6040519190601f01601f191682016001600160401b038111838210176102fa57604052565b81601f820112156103f7578051906001600160401b0382116102fa5761044f601f8301601f19166020016103fb565b92828452602083830101116103f757815f9260208093018386015e830101529056fe6080806040526004361015610012575f80fd5b5f3560e01c90816306fdde03146104a157508063095ea7b31461041f57806318160ddd1461040257806323b872dd14610323578063313ce5671461030357806340c10f191461026157806370a082311461022a57806395d89b411461010f578063a9059cbb146100de5763dd62ed3e1461008a575f80fd5b346100da5760403660031901126100da576100a361059a565b6100ab6105b0565b6001600160a01b039182165f908152600160209081526040808320949093168252928352819020549051908152f35b5f80fd5b346100da5760403660031901126100da576101046100fa61059a565b60243590336105c6565b602060405160018152f35b346100da575f3660031901126100da576040515f6004548060011c90600181168015610220575b60208310811461020c578285529081156101f0575060011461019b575b50819003601f01601f191681019067ffffffffffffffff8211818310176101875761018382918260405282610570565b0390f35b634e487b7160e01b5f52604160045260245ffd5b905060045f527f8a35acfbc15ff81a39ae7d344fd709f28e8600b4aa8c65c6b64bfe7fe36bd19b5f905b8282106101da57506020915082010182610153565b60018160209254838588010152019101906101c5565b90506020925060ff191682840152151560051b82010182610153565b634e487b7160e01b5f52602260045260245ffd5b91607f1691610136565b346100da5760203660031901126100da576001600160a01b0361024b61059a565b165f525f602052602060405f2054604051908152f35b346100da5760403660031901126100da5761027a61059a565b6001600160a01b031660243581156102f057600254908082018092116102dc5760207fddf252ad1be2c89b69c2b068fc378daa952ba7f163c4a11628f55a4df523b3ef915f9360025584845283825260408420818154019055604051908152a3005b634e487b7160e01b5f52601160045260245ffd5b63ec442f0560e01b5f525f60045260245ffd5b346100da575f3660031901126100da57602060ff60055416604051908152f35b346100da5760603660031901126100da5761033c61059a565b6103446105b0565b6001600160a01b0382165f818152600160209081526040808320338452909152902054909260443592915f198110610382575b5061010493506105c6565b8381106103e75784156103d45733156103c157610104945f52600160205260405f2060018060a01b0333165f526020528360405f209103905584610377565b634a1406b160e11b5f525f60045260245ffd5b63e602df0560e01b5f525f60045260245ffd5b8390637dc7a0d960e11b5f523360045260245260445260645ffd5b346100da575f3660031901126100da576020600254604051908152f35b346100da5760403660031901126100da5761043861059a565b6024359033156103d4576001600160a01b03169081156103c157335f52600160205260405f20825f526020528060405f20556040519081527f8c5be1e5ebec7d5bd14f71427d1e84f3dd0314c0f7b2291e5b200ac8c7c3b92560203392a3602060405160018152f35b346100da575f3660031901126100da575f6003548060011c90600181168015610566575b60208310811461020c578285529081156101f057506001146105115750819003601f01601f191681019067ffffffffffffffff8211818310176101875761018382918260405282610570565b905060035f527fc2575a0e9e593c00f959f8c92f12db2869c3395a3b0502d05e2516446f71f85b5f905b82821061055057506020915082010182610153565b600181602092548385880101520191019061053b565b91607f16916104c5565b602060409281835280519182918282860152018484015e5f828201840152601f01601f1916010190565b600435906001600160a01b03821682036100da57565b602435906001600160a01b03821682036100da57565b6001600160a01b031690811561065d576001600160a01b03169182156102f057815f525f60205260405f205481811061064457817fddf252ad1be2c89b69c2b068fc378daa952ba7f163c4a11628f55a4df523b3ef92602092855f525f84520360405f2055845f525f825260405f20818154019055604051908152a3565b8263391434e360e21b5f5260045260245260445260645ffd5b634b637e8f60e11b5f525f60045260245ffdfea2646970667358221220074f8521d36b3d2766d89380bf48213d07fa75729f438dfc3feca7381559d26664736f6c634300081c003300000000000000000000000000000000000000000000000000000000000000a000000000000000000000000000000000000000000000000000000000000000e000000000000000000000000000000000000000000000d3c21bcecceda100000000000000000000000000000000000000000000000000000000000000000000120000000000000000000000003b4f0135465d444a5bd06ab90fc59b73916c85f50000000000000000000000000000000000000000000000000000000000000004504550450000000000000000000000000000000000000000000000000000000000000000000000000000000000000000000000000000000000000000000000045045504500000000000000000000000000000000000000000000000000000000"
        }
      ],
      "isFixedGasLimit": false
    },
    {
      "hash": "0x6ef6d20ca90bafbce80c4ff2f79278fe9ff7651772b663573052dd98178c4fbc",
      "transactionType": "CALL",
      "contractName": "MockToken",
      "contractAddress": "0xc8e25e5dc52492bf28425fb923966ac9bd00683b",
      "function": "mint(address,uint256)",
      "arguments": [
        "0x3B4f0135465d444a5bD06Ab90fC59B73916C85F5",
        "1000000000000000000000000"
      ],
      "transaction": {
        "from": "0x3b4f0135465d444a5bd06ab90fc59b73916c85f5",
        "to": "0xc8e25e5dc52492bf28425fb923966ac9bd00683b",
        "gas": "0xb6f4",
        "value": "0x0",
        "input": "0x40c10f190000000000000000000000003b4f0135465d444a5bd06ab90fc59b73916c85f500000000000000000000000000000000000000000000d3c21bcecceda1000000",
        "nonce": "0x74",
        "chainId": "0xdede"
      },
      "additionalContracts": [],
      "isFixedGasLimit": false
    },
    {
      "hash": "0xbc8e3906606ee7513ad13796d41f9e5855f61801d250b2b554731dd3937a8759",
      "transactionType": "CALL",
      "contractName": "MockToken",
      "contractAddress": "0xc8e25e5dc52492bf28425fb923966ac9bd00683b",
      "function": "approve(address,uint256)",
      "arguments": [
        "0x5844Cf8Bbf41a2e25Ed3F40Ee96E64F31330cA3D",
        "9090909090909090909090909"
      ],
      "transaction": {
        "from": "0x3b4f0135465d444a5bd06ab90fc59b73916c85f5",
        "to": "0xc8e25e5dc52492bf28425fb923966ac9bd00683b",
        "gas": "0x106e3",
        "value": "0x0",
        "input": "0x095ea7b30000000000000000000000005844cf8bbf41a2e25ed3f40ee96e64f31330ca3d0000000000000000000000000000000000000000000785132b58012a71d1745d",
        "nonce": "0x75",
        "chainId": "0xdede"
      },
      "additionalContracts": [],
      "isFixedGasLimit": false
    },
    {
      "hash": "0x9ff60843dc051954cf8fafc4c2dc8e45aa0a4921e1c1167a7ccc9b9f40c7ce60",
      "transactionType": "CALL",
      "contractName": "Core",
      "contractAddress": "0x5844cf8bbf41a2e25ed3f40ee96e64f31330ca3d",
      "function": "addLiquidity(address,uint256)",
      "arguments": [
        "0xc8e25e5Dc52492bf28425fB923966ac9bD00683B",
        "9090909090909090909090909"
      ],
      "transaction": {
        "from": "0x3b4f0135465d444a5bd06ab90fc59b73916c85f5",
        "to": "0x5844cf8bbf41a2e25ed3f40ee96e64f31330ca3d",
        "gas": "0x1ab21",
        "value": "0x0",
        "input": "0x56688700000000000000000000000000c8e25e5dc52492bf28425fb923966ac9bd00683b0000000000000000000000000000000000000000000785132b58012a71d1745d",
        "nonce": "0x76",
        "chainId": "0xdede"
      },
      "additionalContracts": [],
      "isFixedGasLimit": false
    },
    {
      "hash": "0x5544ef0bfeaf0e520e76442abe6d2507950fd6acfccdc65db8ffda29c3a3d288",
      "transactionType": "CALL",
      "contractName": "TokenFactory",
      "contractAddress": "0x33f9aa5a77a5795d416dd0903be209ca1643f336",
      "function": "createToken(string,string,uint256,uint8)",
      "arguments": [
        "OFFICIAL TRUMP",
        "TRUMP",
        "1000000000000000000000000",
        "18"
      ],
      "transaction": {
        "from": "0x3b4f0135465d444a5bd06ab90fc59b73916c85f5",
        "to": "0x33f9aa5a77a5795d416dd0903be209ca1643f336",
        "gas": "0xadd94",
        "value": "0x0",
        "input": "0xb64acddd000000000000000000000000000000000000000000000000000000000000008000000000000000000000000000000000000000000000000000000000000000c000000000000000000000000000000000000000000000d3c21bcecceda10000000000000000000000000000000000000000000000000000000000000000000012000000000000000000000000000000000000000000000000000000000000000e4f4646494349414c205452554d5000000000000000000000000000000000000000000000000000000000000000000000000000000000000000000000000000055452554d50000000000000000000000000000000000000000000000000000000",
        "nonce": "0x77",
        "chainId": "0xdede"
      },
      "additionalContracts": [
        {
          "transactionType": "CREATE",
          "address": "0xa0136570855595b56ecd47c4b169a6ce4b2c0651",
          "initCode": "0x6080604052346103f757610b1880380380610019816103fb565b928339810160a0828203126103f75781516001600160401b0381116103f75781610044918401610420565b602083015190916001600160401b0382116103f757610064918401610420565b9160408101519060608101519060ff82168092036103f757608001516001600160a01b03811693908490036103f7578051906001600160401b0382116102fa5760035490600182811c921680156103ed575b60208310146102dc5781601f84931161037f575b50602090601f8311600114610319575f9261030e575b50508160011b915f199060031b1c1916176003555b83516001600160401b0381116102fa57600454600181811c911680156102f0575b60208210146102dc57601f8111610279575b50602094601f8211600114610216579481929394955f9261020b575b50508160011b915f199060031b1c1916176004555b8060ff196005541617600555604d81116101e457600a0a908181029181830414901517156101e45781156101f857600254908082018092116101e45760207fddf252ad1be2c89b69c2b068fc378daa952ba7f163c4a11628f55a4df523b3ef915f9360025584845283825260408420818154019055604051908152a36040516106a690816104728239f35b634e487b7160e01b5f52601160045260245ffd5b63ec442f0560e01b5f525f60045260245ffd5b015190505f80610144565b601f1982169560045f52805f20915f5b88811061026157508360019596979810610249575b505050811b01600455610159565b01515f1960f88460031b161c191690555f808061023b565b91926020600181928685015181550194019201610226565b60045f527f8a35acfbc15ff81a39ae7d344fd709f28e8600b4aa8c65c6b64bfe7fe36bd19b601f830160051c810191602084106102d2575b601f0160051c01905b8181106102c75750610128565b5f81556001016102ba565b90915081906102b1565b634e487b7160e01b5f52602260045260245ffd5b90607f1690610116565b634e487b7160e01b5f52604160045260245ffd5b015190505f806100e0565b60035f9081528281209350601f198516905b818110610367575090846001959493921061034f575b505050811b016003556100f5565b01515f1960f88460031b161c191690555f8080610341565b9293602060018192878601518155019501930161032b565b60035f529091507fc2575a0e9e593c00f959f8c92f12db2869c3395a3b0502d05e2516446f71f85b601f840160051c810191602085106103e3575b90601f859493920160051c01905b8181106103d557506100ca565b5f81558493506001016103c8565b90915081906103ba565b91607f16916100b6565b5f80fd5b6040519190601f01601f191682016001600160401b038111838210176102fa57604052565b81601f820112156103f7578051906001600160401b0382116102fa5761044f601f8301601f19166020016103fb565b92828452602083830101116103f757815f9260208093018386015e830101529056fe6080806040526004361015610012575f80fd5b5f3560e01c90816306fdde03146104a157508063095ea7b31461041f57806318160ddd1461040257806323b872dd14610323578063313ce5671461030357806340c10f191461026157806370a082311461022a57806395d89b411461010f578063a9059cbb146100de5763dd62ed3e1461008a575f80fd5b346100da5760403660031901126100da576100a361059a565b6100ab6105b0565b6001600160a01b039182165f908152600160209081526040808320949093168252928352819020549051908152f35b5f80fd5b346100da5760403660031901126100da576101046100fa61059a565b60243590336105c6565b602060405160018152f35b346100da575f3660031901126100da576040515f6004548060011c90600181168015610220575b60208310811461020c578285529081156101f0575060011461019b575b50819003601f01601f191681019067ffffffffffffffff8211818310176101875761018382918260405282610570565b0390f35b634e487b7160e01b5f52604160045260245ffd5b905060045f527f8a35acfbc15ff81a39ae7d344fd709f28e8600b4aa8c65c6b64bfe7fe36bd19b5f905b8282106101da57506020915082010182610153565b60018160209254838588010152019101906101c5565b90506020925060ff191682840152151560051b82010182610153565b634e487b7160e01b5f52602260045260245ffd5b91607f1691610136565b346100da5760203660031901126100da576001600160a01b0361024b61059a565b165f525f602052602060405f2054604051908152f35b346100da5760403660031901126100da5761027a61059a565b6001600160a01b031660243581156102f057600254908082018092116102dc5760207fddf252ad1be2c89b69c2b068fc378daa952ba7f163c4a11628f55a4df523b3ef915f9360025584845283825260408420818154019055604051908152a3005b634e487b7160e01b5f52601160045260245ffd5b63ec442f0560e01b5f525f60045260245ffd5b346100da575f3660031901126100da57602060ff60055416604051908152f35b346100da5760603660031901126100da5761033c61059a565b6103446105b0565b6001600160a01b0382165f818152600160209081526040808320338452909152902054909260443592915f198110610382575b5061010493506105c6565b8381106103e75784156103d45733156103c157610104945f52600160205260405f2060018060a01b0333165f526020528360405f209103905584610377565b634a1406b160e11b5f525f60045260245ffd5b63e602df0560e01b5f525f60045260245ffd5b8390637dc7a0d960e11b5f523360045260245260445260645ffd5b346100da575f3660031901126100da576020600254604051908152f35b346100da5760403660031901126100da5761043861059a565b6024359033156103d4576001600160a01b03169081156103c157335f52600160205260405f20825f526020528060405f20556040519081527f8c5be1e5ebec7d5bd14f71427d1e84f3dd0314c0f7b2291e5b200ac8c7c3b92560203392a3602060405160018152f35b346100da575f3660031901126100da575f6003548060011c90600181168015610566575b60208310811461020c578285529081156101f057506001146105115750819003601f01601f191681019067ffffffffffffffff8211818310176101875761018382918260405282610570565b905060035f527fc2575a0e9e593c00f959f8c92f12db2869c3395a3b0502d05e2516446f71f85b5f905b82821061055057506020915082010182610153565b600181602092548385880101520191019061053b565b91607f16916104c5565b602060409281835280519182918282860152018484015e5f828201840152601f01601f1916010190565b600435906001600160a01b03821682036100da57565b602435906001600160a01b03821682036100da57565b6001600160a01b031690811561065d576001600160a01b03169182156102f057815f525f60205260405f205481811061064457817fddf252ad1be2c89b69c2b068fc378daa952ba7f163c4a11628f55a4df523b3ef92602092855f525f84520360405f2055845f525f825260405f20818154019055604051908152a3565b8263391434e360e21b5f5260045260245260445260645ffd5b634b637e8f60e11b5f525f60045260245ffdfea2646970667358221220074f8521d36b3d2766d89380bf48213d07fa75729f438dfc3feca7381559d26664736f6c634300081c003300000000000000000000000000000000000000000000000000000000000000a000000000000000000000000000000000000000000000000000000000000000e000000000000000000000000000000000000000000000d3c21bcecceda100000000000000000000000000000000000000000000000000000000000000000000120000000000000000000000003b4f0135465d444a5bd06ab90fc59b73916c85f5000000000000000000000000000000000000000000000000000000000000000e4f4646494349414c205452554d5000000000000000000000000000000000000000000000000000000000000000000000000000000000000000000000000000055452554d50000000000000000000000000000000000000000000000000000000"
        }
      ],
      "isFixedGasLimit": false
    },
    {
      "hash": "0xafbdb00ec8bc339356f7aa0afc3d8fc2a4774eb8db9469a75ce522b906d18518",
      "transactionType": "CALL",
      "contractName": "MockToken",
      "contractAddress": "0xa0136570855595b56ecd47c4b169a6ce4b2c0651",
      "function": "mint(address,uint256)",
      "arguments": [
        "0x3B4f0135465d444a5bD06Ab90fC59B73916C85F5",
        "1000000000000000000000000"
      ],
      "transaction": {
        "from": "0x3b4f0135465d444a5bd06ab90fc59b73916c85f5",
        "to": "0xa0136570855595b56ecd47c4b169a6ce4b2c0651",
        "gas": "0xb6f4",
        "value": "0x0",
        "input": "0x40c10f190000000000000000000000003b4f0135465d444a5bd06ab90fc59b73916c85f500000000000000000000000000000000000000000000d3c21bcecceda1000000",
        "nonce": "0x78",
        "chainId": "0xdede"
      },
      "additionalContracts": [],
      "isFixedGasLimit": false
    },
    {
      "hash": "0xa294270889ba537dfdf0f880989b538697b1718318e404021274948600ca2935",
      "transactionType": "CALL",
      "contractName": "MockToken",
      "contractAddress": "0xa0136570855595b56ecd47c4b169a6ce4b2c0651",
      "function": "approve(address,uint256)",
      "arguments": [
        "0x5844Cf8Bbf41a2e25Ed3F40Ee96E64F31330cA3D",
        "628140703517587939698"
      ],
      "transaction": {
        "from": "0x3b4f0135465d444a5bd06ab90fc59b73916c85f5",
        "to": "0xa0136570855595b56ecd47c4b169a6ce4b2c0651",
        "gas": "0x106c0",
        "value": "0x0",
        "input": "0x095ea7b30000000000000000000000005844cf8bbf41a2e25ed3f40ee96e64f31330ca3d0000000000000000000000000000000000000000000000220d3411d131ca2172",
        "nonce": "0x79",
        "chainId": "0xdede"
      },
      "additionalContracts": [],
      "isFixedGasLimit": false
    },
    {
      "hash": "0x998cc0deb7e3987da849ab231ba911fa40496d90c9474ee1a477f27a11609283",
      "transactionType": "CALL",
      "contractName": "Core",
      "contractAddress": "0x5844cf8bbf41a2e25ed3f40ee96e64f31330ca3d",
      "function": "addLiquidity(address,uint256)",
      "arguments": [
        "0xA0136570855595B56ECD47C4b169a6Ce4b2c0651",
        "628140703517587939698"
      ],
      "transaction": {
        "from": "0x3b4f0135465d444a5bd06ab90fc59b73916c85f5",
        "to": "0x5844cf8bbf41a2e25ed3f40ee96e64f31330ca3d",
        "gas": "0x1c431",
        "value": "0x0",
        "input": "0x56688700000000000000000000000000a0136570855595b56ecd47c4b169a6ce4b2c06510000000000000000000000000000000000000000000000220d3411d131ca2172",
        "nonce": "0x7a",
        "chainId": "0xdede"
      },
      "additionalContracts": [],
      "isFixedGasLimit": false
    },
    {
      "hash": "0x977a9af5ce2e23fcfec6ec7b49755a5fcb3541f1f5b919616834671a453e5ff3",
      "transactionType": "CALL",
      "contractName": "TokenFactory",
      "contractAddress": "0x33f9aa5a77a5795d416dd0903be209ca1643f336",
      "function": "createToken(string,string,uint256,uint8)",
      "arguments": [
        "DOGE AI",
        "DOGEAI",
        "1000000000000000000000000",
        "18"
      ],
      "transaction": {
        "from": "0x3b4f0135465d444a5bd06ab90fc59b73916c85f5",
        "to": "0x33f9aa5a77a5795d416dd0903be209ca1643f336",
        "gas": "0xadd30",
        "value": "0x0",
        "input": "0xb64acddd000000000000000000000000000000000000000000000000000000000000008000000000000000000000000000000000000000000000000000000000000000c000000000000000000000000000000000000000000000d3c21bcecceda100000000000000000000000000000000000000000000000000000000000000000000120000000000000000000000000000000000000000000000000000000000000007444f4745204149000000000000000000000000000000000000000000000000000000000000000000000000000000000000000000000000000000000000000006444f474541490000000000000000000000000000000000000000000000000000",
        "nonce": "0x7b",
        "chainId": "0xdede"
      },
      "additionalContracts": [
        {
          "transactionType": "CREATE",
          "address": "0x41478079a0fd8e29dae8b58f0a24ddac88183958",
          "initCode": "0x6080604052346103f757610b1880380380610019816103fb565b928339810160a0828203126103f75781516001600160401b0381116103f75781610044918401610420565b602083015190916001600160401b0382116103f757610064918401610420565b9160408101519060608101519060ff82168092036103f757608001516001600160a01b03811693908490036103f7578051906001600160401b0382116102fa5760035490600182811c921680156103ed575b60208310146102dc5781601f84931161037f575b50602090601f8311600114610319575f9261030e575b50508160011b915f199060031b1c1916176003555b83516001600160401b0381116102fa57600454600181811c911680156102f0575b60208210146102dc57601f8111610279575b50602094601f8211600114610216579481929394955f9261020b575b50508160011b915f199060031b1c1916176004555b8060ff196005541617600555604d81116101e457600a0a908181029181830414901517156101e45781156101f857600254908082018092116101e45760207fddf252ad1be2c89b69c2b068fc378daa952ba7f163c4a11628f55a4df523b3ef915f9360025584845283825260408420818154019055604051908152a36040516106a690816104728239f35b634e487b7160e01b5f52601160045260245ffd5b63ec442f0560e01b5f525f60045260245ffd5b015190505f80610144565b601f1982169560045f52805f20915f5b88811061026157508360019596979810610249575b505050811b01600455610159565b01515f1960f88460031b161c191690555f808061023b565b91926020600181928685015181550194019201610226565b60045f527f8a35acfbc15ff81a39ae7d344fd709f28e8600b4aa8c65c6b64bfe7fe36bd19b601f830160051c810191602084106102d2575b601f0160051c01905b8181106102c75750610128565b5f81556001016102ba565b90915081906102b1565b634e487b7160e01b5f52602260045260245ffd5b90607f1690610116565b634e487b7160e01b5f52604160045260245ffd5b015190505f806100e0565b60035f9081528281209350601f198516905b818110610367575090846001959493921061034f575b505050811b016003556100f5565b01515f1960f88460031b161c191690555f8080610341565b9293602060018192878601518155019501930161032b565b60035f529091507fc2575a0e9e593c00f959f8c92f12db2869c3395a3b0502d05e2516446f71f85b601f840160051c810191602085106103e3575b90601f859493920160051c01905b8181106103d557506100ca565b5f81558493506001016103c8565b90915081906103ba565b91607f16916100b6565b5f80fd5b6040519190601f01601f191682016001600160401b038111838210176102fa57604052565b81601f820112156103f7578051906001600160401b0382116102fa5761044f601f8301601f19166020016103fb565b92828452602083830101116103f757815f9260208093018386015e830101529056fe6080806040526004361015610012575f80fd5b5f3560e01c90816306fdde03146104a157508063095ea7b31461041f57806318160ddd1461040257806323b872dd14610323578063313ce5671461030357806340c10f191461026157806370a082311461022a57806395d89b411461010f578063a9059cbb146100de5763dd62ed3e1461008a575f80fd5b346100da5760403660031901126100da576100a361059a565b6100ab6105b0565b6001600160a01b039182165f908152600160209081526040808320949093168252928352819020549051908152f35b5f80fd5b346100da5760403660031901126100da576101046100fa61059a565b60243590336105c6565b602060405160018152f35b346100da575f3660031901126100da576040515f6004548060011c90600181168015610220575b60208310811461020c578285529081156101f0575060011461019b575b50819003601f01601f191681019067ffffffffffffffff8211818310176101875761018382918260405282610570565b0390f35b634e487b7160e01b5f52604160045260245ffd5b905060045f527f8a35acfbc15ff81a39ae7d344fd709f28e8600b4aa8c65c6b64bfe7fe36bd19b5f905b8282106101da57506020915082010182610153565b60018160209254838588010152019101906101c5565b90506020925060ff191682840152151560051b82010182610153565b634e487b7160e01b5f52602260045260245ffd5b91607f1691610136565b346100da5760203660031901126100da576001600160a01b0361024b61059a565b165f525f602052602060405f2054604051908152f35b346100da5760403660031901126100da5761027a61059a565b6001600160a01b031660243581156102f057600254908082018092116102dc5760207fddf252ad1be2c89b69c2b068fc378daa952ba7f163c4a11628f55a4df523b3ef915f9360025584845283825260408420818154019055604051908152a3005b634e487b7160e01b5f52601160045260245ffd5b63ec442f0560e01b5f525f60045260245ffd5b346100da575f3660031901126100da57602060ff60055416604051908152f35b346100da5760603660031901126100da5761033c61059a565b6103446105b0565b6001600160a01b0382165f818152600160209081526040808320338452909152902054909260443592915f198110610382575b5061010493506105c6565b8381106103e75784156103d45733156103c157610104945f52600160205260405f2060018060a01b0333165f526020528360405f209103905584610377565b634a1406b160e11b5f525f60045260245ffd5b63e602df0560e01b5f525f60045260245ffd5b8390637dc7a0d960e11b5f523360045260245260445260645ffd5b346100da575f3660031901126100da576020600254604051908152f35b346100da5760403660031901126100da5761043861059a565b6024359033156103d4576001600160a01b03169081156103c157335f52600160205260405f20825f526020528060405f20556040519081527f8c5be1e5ebec7d5bd14f71427d1e84f3dd0314c0f7b2291e5b200ac8c7c3b92560203392a3602060405160018152f35b346100da575f3660031901126100da575f6003548060011c90600181168015610566575b60208310811461020c578285529081156101f057506001146105115750819003601f01601f191681019067ffffffffffffffff8211818310176101875761018382918260405282610570565b905060035f527fc2575a0e9e593c00f959f8c92f12db2869c3395a3b0502d05e2516446f71f85b5f905b82821061055057506020915082010182610153565b600181602092548385880101520191019061053b565b91607f16916104c5565b602060409281835280519182918282860152018484015e5f828201840152601f01601f1916010190565b600435906001600160a01b03821682036100da57565b602435906001600160a01b03821682036100da57565b6001600160a01b031690811561065d576001600160a01b03169182156102f057815f525f60205260405f205481811061064457817fddf252ad1be2c89b69c2b068fc378daa952ba7f163c4a11628f55a4df523b3ef92602092855f525f84520360405f2055845f525f825260405f20818154019055604051908152a3565b8263391434e360e21b5f5260045260245260445260645ffd5b634b637e8f60e11b5f525f60045260245ffdfea2646970667358221220074f8521d36b3d2766d89380bf48213d07fa75729f438dfc3feca7381559d26664736f6c634300081c003300000000000000000000000000000000000000000000000000000000000000a000000000000000000000000000000000000000000000000000000000000000e000000000000000000000000000000000000000000000d3c21bcecceda100000000000000000000000000000000000000000000000000000000000000000000120000000000000000000000003b4f0135465d444a5bd06ab90fc59b73916c85f50000000000000000000000000000000000000000000000000000000000000007444f4745204149000000000000000000000000000000000000000000000000000000000000000000000000000000000000000000000000000000000000000006444f474541490000000000000000000000000000000000000000000000000000"
        }
      ],
      "isFixedGasLimit": false
    },
    {
      "hash": "0x1affb459a5d20e3307b854a9c831fe1c68dbb8162725c3ea583c8ccf9d2f81bb",
      "transactionType": "CALL",
      "contractName": "MockToken",
      "contractAddress": "0x41478079a0fd8e29dae8b58f0a24ddac88183958",
      "function": "mint(address,uint256)",
      "arguments": [
        "0x3B4f0135465d444a5bD06Ab90fC59B73916C85F5",
        "1000000000000000000000000"
      ],
      "transaction": {
        "from": "0x3b4f0135465d444a5bd06ab90fc59b73916c85f5",
        "to": "0x41478079a0fd8e29dae8b58f0a24ddac88183958",
        "gas": "0xb6f4",
        "value": "0x0",
        "input": "0x40c10f190000000000000000000000003b4f0135465d444a5bd06ab90fc59b73916c85f500000000000000000000000000000000000000000000d3c21bcecceda1000000",
        "nonce": "0x7c",
        "chainId": "0xdede"
      },
      "additionalContracts": [],
      "isFixedGasLimit": false
    },
    {
      "hash": "0xbafcd2d0d956298971061e2c2792fd5c2cc93d9814e2809d61a427bd88d61c11",
      "transactionType": "CALL",
      "contractName": "MockToken",
      "contractAddress": "0x41478079a0fd8e29dae8b58f0a24ddac88183958",
      "function": "approve(address,uint256)",
      "arguments": [
        "0x5844Cf8Bbf41a2e25Ed3F40Ee96E64F31330cA3D",
        "16129032258064516129032258"
      ],
      "transaction": {
        "from": "0x3b4f0135465d444a5bd06ab90fc59b73916c85f5",
        "to": "0x41478079a0fd8e29dae8b58f0a24ddac88183958",
        "gas": "0x106e3",
        "value": "0x0",
        "input": "0x095ea7b30000000000000000000000005844cf8bbf41a2e25ed3f40ee96e64f31330ca3d0000000000000000000000000000000000000000000d577497390a5390210842",
        "nonce": "0x7d",
        "chainId": "0xdede"
      },
      "additionalContracts": [],
      "isFixedGasLimit": false
    },
    {
      "hash": "0x03fd7d758064d2d7fcb939a864ec64d9b7ca9bf0bb421bf2aad07ea33e3f4eae",
      "transactionType": "CALL",
      "contractName": "Core",
      "contractAddress": "0x5844cf8bbf41a2e25ed3f40ee96e64f31330ca3d",
      "function": "addLiquidity(address,uint256)",
      "arguments": [
        "0x41478079a0fd8e29DAe8b58F0a24dDAC88183958",
        "16129032258064516129032258"
      ],
      "transaction": {
        "from": "0x3b4f0135465d444a5bd06ab90fc59b73916c85f5",
        "to": "0x5844cf8bbf41a2e25ed3f40ee96e64f31330ca3d",
        "gas": "0x1c454",
        "value": "0x0",
        "input": "0x5668870000000000000000000000000041478079a0fd8e29dae8b58f0a24ddac881839580000000000000000000000000000000000000000000d577497390a5390210842",
        "nonce": "0x7e",
        "chainId": "0xdede"
      },
      "additionalContracts": [],
      "isFixedGasLimit": false
    },
    {
      "hash": "0xbb6b5b9fe7cd937eba252423015b3f6be1b4752c0a8f27ad77c627b9f031d17f",
      "transactionType": "CALL",
      "contractName": "TokenFactory",
      "contractAddress": "0x33f9aa5a77a5795d416dd0903be209ca1643f336",
      "function": "createToken(string,string,uint256,uint8)",
      "arguments": [
        "dogwifhat",
        "WIF",
        "1000000000000000000000000",
        "18"
      ],
      "transaction": {
        "from": "0x3b4f0135465d444a5bd06ab90fc59b73916c85f5",
        "to": "0x33f9aa5a77a5795d416dd0903be209ca1643f336",
        "gas": "0xadd1f",
        "value": "0x0",
        "input": "0xb64acddd000000000000000000000000000000000000000000000000000000000000008000000000000000000000000000000000000000000000000000000000000000c000000000000000000000000000000000000000000000d3c21bcecceda100000000000000000000000000000000000000000000000000000000000000000000120000000000000000000000000000000000000000000000000000000000000009646f67776966686174000000000000000000000000000000000000000000000000000000000000000000000000000000000000000000000000000000000000035749460000000000000000000000000000000000000000000000000000000000",
        "nonce": "0x7f",
        "chainId": "0xdede"
      },
      "additionalContracts": [
        {
          "transactionType": "CREATE",
          "address": "0xba0f7b8aa3003d419ae4b1bcb3af5a82fa656d16",
          "initCode": "0x6080604052346103f757610b1880380380610019816103fb565b928339810160a0828203126103f75781516001600160401b0381116103f75781610044918401610420565b602083015190916001600160401b0382116103f757610064918401610420565b9160408101519060608101519060ff82168092036103f757608001516001600160a01b03811693908490036103f7578051906001600160401b0382116102fa5760035490600182811c921680156103ed575b60208310146102dc5781601f84931161037f575b50602090601f8311600114610319575f9261030e575b50508160011b915f199060031b1c1916176003555b83516001600160401b0381116102fa57600454600181811c911680156102f0575b60208210146102dc57601f8111610279575b50602094601f8211600114610216579481929394955f9261020b575b50508160011b915f199060031b1c1916176004555b8060ff196005541617600555604d81116101e457600a0a908181029181830414901517156101e45781156101f857600254908082018092116101e45760207fddf252ad1be2c89b69c2b068fc378daa952ba7f163c4a11628f55a4df523b3ef915f9360025584845283825260408420818154019055604051908152a36040516106a690816104728239f35b634e487b7160e01b5f52601160045260245ffd5b63ec442f0560e01b5f525f60045260245ffd5b015190505f80610144565b601f1982169560045f52805f20915f5b88811061026157508360019596979810610249575b505050811b01600455610159565b01515f1960f88460031b161c191690555f808061023b565b91926020600181928685015181550194019201610226565b60045f527f8a35acfbc15ff81a39ae7d344fd709f28e8600b4aa8c65c6b64bfe7fe36bd19b601f830160051c810191602084106102d2575b601f0160051c01905b8181106102c75750610128565b5f81556001016102ba565b90915081906102b1565b634e487b7160e01b5f52602260045260245ffd5b90607f1690610116565b634e487b7160e01b5f52604160045260245ffd5b015190505f806100e0565b60035f9081528281209350601f198516905b818110610367575090846001959493921061034f575b505050811b016003556100f5565b01515f1960f88460031b161c191690555f8080610341565b9293602060018192878601518155019501930161032b565b60035f529091507fc2575a0e9e593c00f959f8c92f12db2869c3395a3b0502d05e2516446f71f85b601f840160051c810191602085106103e3575b90601f859493920160051c01905b8181106103d557506100ca565b5f81558493506001016103c8565b90915081906103ba565b91607f16916100b6565b5f80fd5b6040519190601f01601f191682016001600160401b038111838210176102fa57604052565b81601f820112156103f7578051906001600160401b0382116102fa5761044f601f8301601f19166020016103fb565b92828452602083830101116103f757815f9260208093018386015e830101529056fe6080806040526004361015610012575f80fd5b5f3560e01c90816306fdde03146104a157508063095ea7b31461041f57806318160ddd1461040257806323b872dd14610323578063313ce5671461030357806340c10f191461026157806370a082311461022a57806395d89b411461010f578063a9059cbb146100de5763dd62ed3e1461008a575f80fd5b346100da5760403660031901126100da576100a361059a565b6100ab6105b0565b6001600160a01b039182165f908152600160209081526040808320949093168252928352819020549051908152f35b5f80fd5b346100da5760403660031901126100da576101046100fa61059a565b60243590336105c6565b602060405160018152f35b346100da575f3660031901126100da576040515f6004548060011c90600181168015610220575b60208310811461020c578285529081156101f0575060011461019b575b50819003601f01601f191681019067ffffffffffffffff8211818310176101875761018382918260405282610570565b0390f35b634e487b7160e01b5f52604160045260245ffd5b905060045f527f8a35acfbc15ff81a39ae7d344fd709f28e8600b4aa8c65c6b64bfe7fe36bd19b5f905b8282106101da57506020915082010182610153565b60018160209254838588010152019101906101c5565b90506020925060ff191682840152151560051b82010182610153565b634e487b7160e01b5f52602260045260245ffd5b91607f1691610136565b346100da5760203660031901126100da576001600160a01b0361024b61059a565b165f525f602052602060405f2054604051908152f35b346100da5760403660031901126100da5761027a61059a565b6001600160a01b031660243581156102f057600254908082018092116102dc5760207fddf252ad1be2c89b69c2b068fc378daa952ba7f163c4a11628f55a4df523b3ef915f9360025584845283825260408420818154019055604051908152a3005b634e487b7160e01b5f52601160045260245ffd5b63ec442f0560e01b5f525f60045260245ffd5b346100da575f3660031901126100da57602060ff60055416604051908152f35b346100da5760603660031901126100da5761033c61059a565b6103446105b0565b6001600160a01b0382165f818152600160209081526040808320338452909152902054909260443592915f198110610382575b5061010493506105c6565b8381106103e75784156103d45733156103c157610104945f52600160205260405f2060018060a01b0333165f526020528360405f209103905584610377565b634a1406b160e11b5f525f60045260245ffd5b63e602df0560e01b5f525f60045260245ffd5b8390637dc7a0d960e11b5f523360045260245260445260645ffd5b346100da575f3660031901126100da576020600254604051908152f35b346100da5760403660031901126100da5761043861059a565b6024359033156103d4576001600160a01b03169081156103c157335f52600160205260405f20825f526020528060405f20556040519081527f8c5be1e5ebec7d5bd14f71427d1e84f3dd0314c0f7b2291e5b200ac8c7c3b92560203392a3602060405160018152f35b346100da575f3660031901126100da575f6003548060011c90600181168015610566575b60208310811461020c578285529081156101f057506001146105115750819003601f01601f191681019067ffffffffffffffff8211818310176101875761018382918260405282610570565b905060035f527fc2575a0e9e593c00f959f8c92f12db2869c3395a3b0502d05e2516446f71f85b5f905b82821061055057506020915082010182610153565b600181602092548385880101520191019061053b565b91607f16916104c5565b602060409281835280519182918282860152018484015e5f828201840152601f01601f1916010190565b600435906001600160a01b03821682036100da57565b602435906001600160a01b03821682036100da57565b6001600160a01b031690811561065d576001600160a01b03169182156102f057815f525f60205260405f205481811061064457817fddf252ad1be2c89b69c2b068fc378daa952ba7f163c4a11628f55a4df523b3ef92602092855f525f84520360405f2055845f525f825260405f20818154019055604051908152a3565b8263391434e360e21b5f5260045260245260445260645ffd5b634b637e8f60e11b5f525f60045260245ffdfea2646970667358221220074f8521d36b3d2766d89380bf48213d07fa75729f438dfc3feca7381559d26664736f6c634300081c003300000000000000000000000000000000000000000000000000000000000000a000000000000000000000000000000000000000000000000000000000000000e000000000000000000000000000000000000000000000d3c21bcecceda100000000000000000000000000000000000000000000000000000000000000000000120000000000000000000000003b4f0135465d444a5bd06ab90fc59b73916c85f50000000000000000000000000000000000000000000000000000000000000009646f67776966686174000000000000000000000000000000000000000000000000000000000000000000000000000000000000000000000000000000000000035749460000000000000000000000000000000000000000000000000000000000"
        }
      ],
      "isFixedGasLimit": false
    },
    {
      "hash": "0x7c14a53b749f43bd8b1aceaf2260cf4c02ee99cb66ac8f666bb9ccaad26da758",
      "transactionType": "CALL",
      "contractName": "MockToken",
      "contractAddress": "0xba0f7b8aa3003d419ae4b1bcb3af5a82fa656d16",
      "function": "mint(address,uint256)",
      "arguments": [
        "0x3B4f0135465d444a5bD06Ab90fC59B73916C85F5",
        "1000000000000000000000000"
      ],
      "transaction": {
        "from": "0x3b4f0135465d444a5bd06ab90fc59b73916c85f5",
        "to": "0xba0f7b8aa3003d419ae4b1bcb3af5a82fa656d16",
        "gas": "0xb6f4",
        "value": "0x0",
        "input": "0x40c10f190000000000000000000000003b4f0135465d444a5bd06ab90fc59b73916c85f500000000000000000000000000000000000000000000d3c21bcecceda1000000",
        "nonce": "0x80",
        "chainId": "0xdede"
      },
      "additionalContracts": [],
      "isFixedGasLimit": false
    },
    {
      "hash": "0xefd2e7ce5bafd596ba5d6a686dd546addcbb835920341dcb8017d5732f75603a",
      "transactionType": "CALL",
      "contractName": "MockToken",
      "contractAddress": "0xba0f7b8aa3003d419ae4b1bcb3af5a82fa656d16",
      "function": "approve(address,uint256)",
      "arguments": [
        "0x5844Cf8Bbf41a2e25Ed3F40Ee96E64F31330cA3D",
        "1298701298701298701298701"
      ],
      "transaction": {
        "from": "0x3b4f0135465d444a5bd06ab90fc59b73916c85f5",
        "to": "0xba0f7b8aa3003d419ae4b1bcb3af5a82fa656d16",
        "gas": "0x106e3",
        "value": "0x0",
        "input": "0x095ea7b30000000000000000000000005844cf8bbf41a2e25ed3f40ee96e64f31330ca3d000000000000000000000000000000000000000000011302bd0c9273c71dec0d",
        "nonce": "0x81",
        "chainId": "0xdede"
      },
      "additionalContracts": [],
      "isFixedGasLimit": false
    },
    {
      "hash": "0xfbed9b30ee40295ff8cd95f28344c7cd5c70933108f8f9c57b37e2fc03bb7ae1",
      "transactionType": "CALL",
      "contractName": "Core",
      "contractAddress": "0x5844cf8bbf41a2e25ed3f40ee96e64f31330ca3d",
      "function": "addLiquidity(address,uint256)",
      "arguments": [
        "0xBa0F7B8aa3003d419aE4B1bCB3AF5a82Fa656d16",
        "1298701298701298701298701"
      ],
      "transaction": {
        "from": "0x3b4f0135465d444a5bd06ab90fc59b73916c85f5",
        "to": "0x5844cf8bbf41a2e25ed3f40ee96e64f31330ca3d",
        "gas": "0x1ab21",
        "value": "0x0",
        "input": "0x56688700000000000000000000000000ba0f7b8aa3003d419ae4b1bcb3af5a82fa656d16000000000000000000000000000000000000000000011302bd0c9273c71dec0d",
        "nonce": "0x82",
        "chainId": "0xdede"
      },
      "additionalContracts": [],
      "isFixedGasLimit": false
    },
    {
      "hash": "0x1a8fda371415c135fb52863e3878e4584a604ad990e63304267d03301ae3b8f8",
      "transactionType": "CALL",
      "contractName": "TokenFactory",
      "contractAddress": "0x33f9aa5a77a5795d416dd0903be209ca1643f336",
      "function": "createToken(string,string,uint256,uint8)",
      "arguments": [
        "STONKS",
        "STONKS",
        "1000000000000000000000000",
        "18"
      ],
      "transaction": {
        "from": "0x3b4f0135465d444a5bd06ab90fc59b73916c85f5",
        "to": "0x33f9aa5a77a5795d416dd0903be209ca1643f336",
        "gas": "0xadd1f",
        "value": "0x0",
        "input": "0xb64acddd000000000000000000000000000000000000000000000000000000000000008000000000000000000000000000000000000000000000000000000000000000c000000000000000000000000000000000000000000000d3c21bcecceda10000000000000000000000000000000000000000000000000000000000000000000012000000000000000000000000000000000000000000000000000000000000000653544f4e4b530000000000000000000000000000000000000000000000000000000000000000000000000000000000000000000000000000000000000000000653544f4e4b530000000000000000000000000000000000000000000000000000",
        "nonce": "0x83",
        "chainId": "0xdede"
      },
      "additionalContracts": [
        {
          "transactionType": "CREATE",
          "address": "0x0ca5da1ecb61774776403c9045dedf68464374ea",
          "initCode": "0x6080604052346103f757610b1880380380610019816103fb565b928339810160a0828203126103f75781516001600160401b0381116103f75781610044918401610420565b602083015190916001600160401b0382116103f757610064918401610420565b9160408101519060608101519060ff82168092036103f757608001516001600160a01b03811693908490036103f7578051906001600160401b0382116102fa5760035490600182811c921680156103ed575b60208310146102dc5781601f84931161037f575b50602090601f8311600114610319575f9261030e575b50508160011b915f199060031b1c1916176003555b83516001600160401b0381116102fa57600454600181811c911680156102f0575b60208210146102dc57601f8111610279575b50602094601f8211600114610216579481929394955f9261020b575b50508160011b915f199060031b1c1916176004555b8060ff196005541617600555604d81116101e457600a0a908181029181830414901517156101e45781156101f857600254908082018092116101e45760207fddf252ad1be2c89b69c2b068fc378daa952ba7f163c4a11628f55a4df523b3ef915f9360025584845283825260408420818154019055604051908152a36040516106a690816104728239f35b634e487b7160e01b5f52601160045260245ffd5b63ec442f0560e01b5f525f60045260245ffd5b015190505f80610144565b601f1982169560045f52805f20915f5b88811061026157508360019596979810610249575b505050811b01600455610159565b01515f1960f88460031b161c191690555f808061023b565b91926020600181928685015181550194019201610226565b60045f527f8a35acfbc15ff81a39ae7d344fd709f28e8600b4aa8c65c6b64bfe7fe36bd19b601f830160051c810191602084106102d2575b601f0160051c01905b8181106102c75750610128565b5f81556001016102ba565b90915081906102b1565b634e487b7160e01b5f52602260045260245ffd5b90607f1690610116565b634e487b7160e01b5f52604160045260245ffd5b015190505f806100e0565b60035f9081528281209350601f198516905b818110610367575090846001959493921061034f575b505050811b016003556100f5565b01515f1960f88460031b161c191690555f8080610341565b9293602060018192878601518155019501930161032b565b60035f529091507fc2575a0e9e593c00f959f8c92f12db2869c3395a3b0502d05e2516446f71f85b601f840160051c810191602085106103e3575b90601f859493920160051c01905b8181106103d557506100ca565b5f81558493506001016103c8565b90915081906103ba565b91607f16916100b6565b5f80fd5b6040519190601f01601f191682016001600160401b038111838210176102fa57604052565b81601f820112156103f7578051906001600160401b0382116102fa5761044f601f8301601f19166020016103fb565b92828452602083830101116103f757815f9260208093018386015e830101529056fe6080806040526004361015610012575f80fd5b5f3560e01c90816306fdde03146104a157508063095ea7b31461041f57806318160ddd1461040257806323b872dd14610323578063313ce5671461030357806340c10f191461026157806370a082311461022a57806395d89b411461010f578063a9059cbb146100de5763dd62ed3e1461008a575f80fd5b346100da5760403660031901126100da576100a361059a565b6100ab6105b0565b6001600160a01b039182165f908152600160209081526040808320949093168252928352819020549051908152f35b5f80fd5b346100da5760403660031901126100da576101046100fa61059a565b60243590336105c6565b602060405160018152f35b346100da575f3660031901126100da576040515f6004548060011c90600181168015610220575b60208310811461020c578285529081156101f0575060011461019b575b50819003601f01601f191681019067ffffffffffffffff8211818310176101875761018382918260405282610570565b0390f35b634e487b7160e01b5f52604160045260245ffd5b905060045f527f8a35acfbc15ff81a39ae7d344fd709f28e8600b4aa8c65c6b64bfe7fe36bd19b5f905b8282106101da57506020915082010182610153565b60018160209254838588010152019101906101c5565b90506020925060ff191682840152151560051b82010182610153565b634e487b7160e01b5f52602260045260245ffd5b91607f1691610136565b346100da5760203660031901126100da576001600160a01b0361024b61059a565b165f525f602052602060405f2054604051908152f35b346100da5760403660031901126100da5761027a61059a565b6001600160a01b031660243581156102f057600254908082018092116102dc5760207fddf252ad1be2c89b69c2b068fc378daa952ba7f163c4a11628f55a4df523b3ef915f9360025584845283825260408420818154019055604051908152a3005b634e487b7160e01b5f52601160045260245ffd5b63ec442f0560e01b5f525f60045260245ffd5b346100da575f3660031901126100da57602060ff60055416604051908152f35b346100da5760603660031901126100da5761033c61059a565b6103446105b0565b6001600160a01b0382165f818152600160209081526040808320338452909152902054909260443592915f198110610382575b5061010493506105c6565b8381106103e75784156103d45733156103c157610104945f52600160205260405f2060018060a01b0333165f526020528360405f209103905584610377565b634a1406b160e11b5f525f60045260245ffd5b63e602df0560e01b5f525f60045260245ffd5b8390637dc7a0d960e11b5f523360045260245260445260645ffd5b346100da575f3660031901126100da576020600254604051908152f35b346100da5760403660031901126100da5761043861059a565b6024359033156103d4576001600160a01b03169081156103c157335f52600160205260405f20825f526020528060405f20556040519081527f8c5be1e5ebec7d5bd14f71427d1e84f3dd0314c0f7b2291e5b200ac8c7c3b92560203392a3602060405160018152f35b346100da575f3660031901126100da575f6003548060011c90600181168015610566575b60208310811461020c578285529081156101f057506001146105115750819003601f01601f191681019067ffffffffffffffff8211818310176101875761018382918260405282610570565b905060035f527fc2575a0e9e593c00f959f8c92f12db2869c3395a3b0502d05e2516446f71f85b5f905b82821061055057506020915082010182610153565b600181602092548385880101520191019061053b565b91607f16916104c5565b602060409281835280519182918282860152018484015e5f828201840152601f01601f1916010190565b600435906001600160a01b03821682036100da57565b602435906001600160a01b03821682036100da57565b6001600160a01b031690811561065d576001600160a01b03169182156102f057815f525f60205260405f205481811061064457817fddf252ad1be2c89b69c2b068fc378daa952ba7f163c4a11628f55a4df523b3ef92602092855f525f84520360405f2055845f525f825260405f20818154019055604051908152a3565b8263391434e360e21b5f5260045260245260445260645ffd5b634b637e8f60e11b5f525f60045260245ffdfea2646970667358221220074f8521d36b3d2766d89380bf48213d07fa75729f438dfc3feca7381559d26664736f6c634300081c003300000000000000000000000000000000000000000000000000000000000000a000000000000000000000000000000000000000000000000000000000000000e000000000000000000000000000000000000000000000d3c21bcecceda100000000000000000000000000000000000000000000000000000000000000000000120000000000000000000000003b4f0135465d444a5bd06ab90fc59b73916c85f5000000000000000000000000000000000000000000000000000000000000000653544f4e4b530000000000000000000000000000000000000000000000000000000000000000000000000000000000000000000000000000000000000000000653544f4e4b530000000000000000000000000000000000000000000000000000"
        }
      ],
      "isFixedGasLimit": false
    },
    {
      "hash": "0x17e3ab0f5b406a4773b44ad8f3c3382734a0642dad075a17a3ad6196c26bdccb",
      "transactionType": "CALL",
      "contractName": "MockToken",
      "contractAddress": "0x0ca5da1ecb61774776403c9045dedf68464374ea",
      "function": "mint(address,uint256)",
      "arguments": [
        "0x3B4f0135465d444a5bD06Ab90fC59B73916C85F5",
        "1000000000000000000000000"
      ],
      "transaction": {
        "from": "0x3b4f0135465d444a5bd06ab90fc59b73916c85f5",
        "to": "0x0ca5da1ecb61774776403c9045dedf68464374ea",
        "gas": "0xb6f4",
        "value": "0x0",
        "input": "0x40c10f190000000000000000000000003b4f0135465d444a5bd06ab90fc59b73916c85f500000000000000000000000000000000000000000000d3c21bcecceda1000000",
        "nonce": "0x84",
        "chainId": "0xdede"
      },
      "additionalContracts": [],
      "isFixedGasLimit": false
    },
    {
      "hash": "0x6b891d18183404e1684eb58ac9cd2406c242a031c62294512823c6237b8a3d07",
      "transactionType": "CALL",
      "contractName": "MockToken",
      "contractAddress": "0x0ca5da1ecb61774776403c9045dedf68464374ea",
      "function": "approve(address,uint256)",
      "arguments": [
        "0x5844Cf8Bbf41a2e25Ed3F40Ee96E64F31330cA3D",
        "20000000000000000000000000"
      ],
      "transaction": {
        "from": "0x3b4f0135465d444a5bd06ab90fc59b73916c85f5",
        "to": "0x0ca5da1ecb61774776403c9045dedf68464374ea",
        "gas": "0xf816",
        "value": "0x0",
        "input": "0x095ea7b30000000000000000000000005844cf8bbf41a2e25ed3f40ee96e64f31330ca3d000000000000000000000000000000000000000000108b2a2c28029094000000",
        "nonce": "0x85",
        "chainId": "0xdede"
      },
      "additionalContracts": [],
      "isFixedGasLimit": false
    },
    {
      "hash": "0xb042a2e6d3772dd79e969005c64dc6a872407e8c71e44b673a2eb788b7d5470e",
      "transactionType": "CALL",
      "contractName": "Core",
      "contractAddress": "0x5844cf8bbf41a2e25ed3f40ee96e64f31330ca3d",
      "function": "addLiquidity(address,uint256)",
      "arguments": [
        "0x0Ca5dA1eCB61774776403c9045DeDF68464374eA",
        "20000000000000000000000000"
      ],
      "transaction": {
        "from": "0x3b4f0135465d444a5bd06ab90fc59b73916c85f5",
        "to": "0x5844cf8bbf41a2e25ed3f40ee96e64f31330ca3d",
        "gas": "0x1ab01",
        "value": "0x0",
        "input": "0x566887000000000000000000000000000ca5da1ecb61774776403c9045dedf68464374ea000000000000000000000000000000000000000000108b2a2c28029094000000",
        "nonce": "0x86",
        "chainId": "0xdede"
      },
      "additionalContracts": [],
      "isFixedGasLimit": false
    }
  ],
  "receipts": [
    {
      "status": "0x1",
      "cumulativeGasUsed": "0xdf841",
      "logs": [],
      "logsBloom": "0x00000000000000000000000000000000000000000000000000000000000000000000000000000000000000000000000000000000000000000000000000000000000000000000000000000000000000000000000000000000000000000000000000000000000000000000000000000000000000000000000000000000000000000000000000000000000000000000000000000000000000000000000000000000000000000000000000000000000000000000000000000000000000000000000000000000000000000000000000000000000000000000000000000000000000000000000000000000000000000000000000000000000000000000000000000000",
      "type": "0x2",
      "transactionHash": "0x5c3b474538c9341c03dc9e35686877e7b9e574db29275cc54f1944e5a94a584e",
      "transactionIndex": "0x1",
      "blockHash": "0xe0e8b6b30881d7f7668c8daf469a86bce276f38875fbcd8e50ffdf0e4397231c",
      "blockNumber": "0x172d714",
      "gasUsed": "0xc6e63",
      "effectiveGasPrice": "0x3b9aca01",
      "from": "0x3b4f0135465d444a5bd06ab90fc59b73916c85f5",
      "to": null,
      "contractAddress": "0x33f9aa5a77a5795d416dd0903be209ca1643f336"
    },
    {
      "status": "0x1",
      "cumulativeGasUsed": "0x75622",
      "logs": [],
      "logsBloom": "0x00000000000000000000000000000000000000000000000000000000000000000000000000000000000000000000000000000000000000000000000000000000000000000000000000000000000000000000000000000000000000000000000000000000000000000000000000000000000000000000000000000000000000000000000000000000000000000000000000000000000000000000000000000000000000000000000000000000000000000000000000000000000000000000000000000000000000000000000000000000000000000000000000000000000000000000000000000000000000000000000000000000000000000000000000000000",
      "type": "0x2",
      "transactionHash": "0x99b8a2e021447b590dc039539ea9657873128a0676fb541d5b35f6c272cf9383",
      "transactionIndex": "0x0",
      "blockHash": "0x4080946c81ebcad3d37aee911110fc5c4e0bae26f67257e332383636b7edf4b7",
      "blockNumber": "0x172d716",
      "gasUsed": "0x75622",
      "effectiveGasPrice": "0x3b9aca01",
      "from": "0x3b4f0135465d444a5bd06ab90fc59b73916c85f5",
      "to": null,
      "contractAddress": "0x5844cf8bbf41a2e25ed3f40ee96e64f31330ca3d"
    },
    {
      "status": "0x1",
      "cumulativeGasUsed": "0x106401",
      "logs": [
        {
          "address": "0x27191bdbbac629e8e55eda817c177d4062411246",
          "topics": [
            "0xddf252ad1be2c89b69c2b068fc378daa952ba7f163c4a11628f55a4df523b3ef",
            "0x0000000000000000000000000000000000000000000000000000000000000000",
            "0x0000000000000000000000003b4f0135465d444a5bd06ab90fc59b73916c85f5"
          ],
          "data": "0x00000000000000000000000000000b7abc627050305adf14a3d9e40000000000",
          "blockHash": "0x4080946c81ebcad3d37aee911110fc5c4e0bae26f67257e332383636b7edf4b7",
          "blockNumber": "0x172d716",
          "transactionHash": "0xc3e834ebc698c373f220202271bc30a09a751739c8989e6579820f780aa3c834",
          "transactionIndex": "0x3",
          "logIndex": "0x1",
          "removed": false
        },
        {
          "address": "0x33f9aa5a77a5795d416dd0903be209ca1643f336",
          "topics": [
            "0xafab5d1d74bae8c6b34c8932c5a93db45757bef8a5b14b76f11aa2cdd5cb9be5",
            "0x00000000000000000000000027191bdbbac629e8e55eda817c177d4062411246"
          ],
          "data": "0x00000000000000000000000000000000000000000000000000000000000000a000000000000000000000000000000000000000000000000000000000000000e000000000000000000000000000000000000000000000d3c21bcecceda100000000000000000000000000000000000000000000000000000000000000000000120000000000000000000000003b4f0135465d444a5bd06ab90fc59b73916c85f50000000000000000000000000000000000000000000000000000000000000005534f4e494300000000000000000000000000000000000000000000000000000000000000000000000000000000000000000000000000000000000000000000015300000000000000000000000000000000000000000000000000000000000000",
          "blockHash": "0x4080946c81ebcad3d37aee911110fc5c4e0bae26f67257e332383636b7edf4b7",
          "blockNumber": "0x172d716",
          "transactionHash": "0xc3e834ebc698c373f220202271bc30a09a751739c8989e6579820f780aa3c834",
          "transactionIndex": "0x3",
          "logIndex": "0x2",
          "removed": false
        }
      ],
      "logsBloom": "0x00000000000000000000000020000000000000000000000000000020000000002000000000000000000000000000040000000000000000000000000000400000000000000000000000000008000000000000000000000000000000000000000000004000020000000000000000000800000c00000000000000000010000002000000000000000000000000000000000000000000000000000000000000000000000000000000000000000000000000000000000000000000008000000001000000000102000000000000000000000000000000080800000000000000000020000000000000000000000000000000000000000000000000000000000000008000",
      "type": "0x2",
      "transactionHash": "0xc3e834ebc698c373f220202271bc30a09a751739c8989e6579820f780aa3c834",
      "transactionIndex": "0x3",
      "blockHash": "0x4080946c81ebcad3d37aee911110fc5c4e0bae26f67257e332383636b7edf4b7",
      "blockNumber": "0x172d716",
      "gasUsed": "0x829f4",
      "effectiveGasPrice": "0x3b9aca01",
      "from": "0x3b4f0135465d444a5bd06ab90fc59b73916c85f5",
      "to": "0x33f9aa5a77a5795d416dd0903be209ca1643f336",
      "contractAddress": null
    },
    {
      "status": "0x1",
      "cumulativeGasUsed": "0x10ed82",
      "logs": [
        {
          "address": "0x27191bdbbac629e8e55eda817c177d4062411246",
          "topics": [
            "0xddf252ad1be2c89b69c2b068fc378daa952ba7f163c4a11628f55a4df523b3ef",
            "0x0000000000000000000000000000000000000000000000000000000000000000",
            "0x0000000000000000000000003b4f0135465d444a5bd06ab90fc59b73916c85f5"
          ],
          "data": "0x00000000000000000000000000000000000000000000d3c21bcecceda1000000",
          "blockHash": "0x4080946c81ebcad3d37aee911110fc5c4e0bae26f67257e332383636b7edf4b7",
          "blockNumber": "0x172d716",
          "transactionHash": "0x0b68333bce3c7d4eaf66bb1cd2617d358a2564da4f30b1532210194829db633c",
          "transactionIndex": "0x4",
          "logIndex": "0x3",
          "removed": false
        }
      ],
      "logsBloom": "0x00000000000000000000000000000000000000000000000000000020000000002000000000000000000000000000000000000000000000000000000000400000000000000000000000000008000000000000000000000000000000000000000000004000020000000000000000000800000000000000000000000010000002000000000000000000000000000000000000000000000000000000000000000000000000000000000000000000000000000000000000000000000000000000000000000102000000000000000000000000000000000000000000000000000020000000000000000000000000000000000000000000000000000000000000000000",
      "type": "0x2",
      "transactionHash": "0x0b68333bce3c7d4eaf66bb1cd2617d358a2564da4f30b1532210194829db633c",
      "transactionIndex": "0x4",
      "blockHash": "0x4080946c81ebcad3d37aee911110fc5c4e0bae26f67257e332383636b7edf4b7",
      "blockNumber": "0x172d716",
      "gasUsed": "0x8981",
      "effectiveGasPrice": "0x3b9aca01",
      "from": "0x3b4f0135465d444a5bd06ab90fc59b73916c85f5",
      "to": "0x27191bdbbac629e8e55eda817c177d4062411246",
      "contractAddress": null
    },
    {
      "status": "0x1",
      "cumulativeGasUsed": "0x11a961",
      "logs": [
        {
          "address": "0x27191bdbbac629e8e55eda817c177d4062411246",
          "topics": [
            "0x8c5be1e5ebec7d5bd14f71427d1e84f3dd0314c0f7b2291e5b200ac8c7c3b925",
            "0x0000000000000000000000003b4f0135465d444a5bd06ab90fc59b73916c85f5",
            "0x0000000000000000000000005844cf8bbf41a2e25ed3f40ee96e64f31330ca3d"
          ],
          "data": "0x00000000000000000000000000000000000000000000d3c21bcecceda1000000",
          "blockHash": "0x4080946c81ebcad3d37aee911110fc5c4e0bae26f67257e332383636b7edf4b7",
          "blockNumber": "0x172d716",
          "transactionHash": "0xcff82fdf5a563be57288558e3908f0d0df85f843175af16a7dc12993cb18a88f",
          "transactionIndex": "0x5",
          "logIndex": "0x4",
          "removed": false
        }
      ],
      "logsBloom": "0x00000000000000000000000000000000000000000000000000000020000000002000000000000000000000000000000000000000000000000000000000600000000000000000000000000000000000000000000000000000000000000000000001004000000000000000000000000000000000000000000000000000000002000000000000000000000000000000000000000000000000000000000000000000020000000000000000000000000000000000000000000000000000000000000000000100000000000000000000000000000000000000000000000020080000000010000000000000000000000000000000000000000000000000000000000000",
      "type": "0x2",
      "transactionHash": "0xcff82fdf5a563be57288558e3908f0d0df85f843175af16a7dc12993cb18a88f",
      "transactionIndex": "0x5",
      "blockHash": "0x4080946c81ebcad3d37aee911110fc5c4e0bae26f67257e332383636b7edf4b7",
      "blockNumber": "0x172d716",
      "gasUsed": "0xbbdf",
      "effectiveGasPrice": "0x3b9aca01",
      "from": "0x3b4f0135465d444a5bd06ab90fc59b73916c85f5",
      "to": "0x27191bdbbac629e8e55eda817c177d4062411246",
      "contractAddress": null
    },
    {
      "status": "0x1",
      "cumulativeGasUsed": "0x12eae5",
      "logs": [
        {
          "address": "0x27191bdbbac629e8e55eda817c177d4062411246",
          "topics": [
            "0xddf252ad1be2c89b69c2b068fc378daa952ba7f163c4a11628f55a4df523b3ef",
            "0x0000000000000000000000003b4f0135465d444a5bd06ab90fc59b73916c85f5",
            "0x0000000000000000000000005844cf8bbf41a2e25ed3f40ee96e64f31330ca3d"
          ],
          "data": "0x00000000000000000000000000000000000000000000d3c21bcecceda1000000",
          "blockHash": "0x4080946c81ebcad3d37aee911110fc5c4e0bae26f67257e332383636b7edf4b7",
          "blockNumber": "0x172d716",
          "transactionHash": "0x4d4a62f036d1fc383f66cfab723df601ff1a1945b16c9a679b0954d51a743823",
          "transactionIndex": "0x6",
          "logIndex": "0x5",
          "removed": false
        },
        {
          "address": "0x5844cf8bbf41a2e25ed3f40ee96e64f31330ca3d",
          "topics": [
            "0x9d278c56ba6dc86a12eefe6b43112bd6e06648eb4ec0b950ee2d783d40e2acb4",
            "0x0000000000000000000000003b4f0135465d444a5bd06ab90fc59b73916c85f5"
          ],
          "data": "0x00000000000000000000000027191bdbbac629e8e55eda817c177d406241124600000000000000000000000000000000000000000000d3c21bcecceda1000000",
          "blockHash": "0x4080946c81ebcad3d37aee911110fc5c4e0bae26f67257e332383636b7edf4b7",
          "blockNumber": "0x172d716",
          "transactionHash": "0x4d4a62f036d1fc383f66cfab723df601ff1a1945b16c9a679b0954d51a743823",
          "transactionIndex": "0x6",
          "logIndex": "0x6",
          "removed": false
        }
      ],
      "logsBloom": "0x00000000000000000000000000000000000000000000002000000020000000002000000000000000000000000000000000000000000000000000000000400000000000000000000000000008000000000000000000010000000000000000000001004000000000000008000000000000000000000200000000000010000002000000000000000000000000000000000000000000000200000000000000000000000000000000000000000000000000000000000000000000000000000000000000000102000000000000000000000000000000000000000000000020080000000000000400000000000000000000000000000000000000000000000000000000",
      "type": "0x2",
      "transactionHash": "0x4d4a62f036d1fc383f66cfab723df601ff1a1945b16c9a679b0954d51a743823",
      "transactionIndex": "0x6",
      "blockHash": "0x4080946c81ebcad3d37aee911110fc5c4e0bae26f67257e332383636b7edf4b7",
      "blockNumber": "0x172d716",
      "gasUsed": "0x14184",
      "effectiveGasPrice": "0x3b9aca01",
      "from": "0x3b4f0135465d444a5bd06ab90fc59b73916c85f5",
      "to": "0x5844cf8bbf41a2e25ed3f40ee96e64f31330ca3d",
      "contractAddress": null
    },
    {
      "status": "0x1",
      "cumulativeGasUsed": "0x1b1562",
      "logs": [
        {
          "address": "0x9264d84bc5e31c250b0bce92ed297deb1ac38e87",
          "topics": [
            "0xddf252ad1be2c89b69c2b068fc378daa952ba7f163c4a11628f55a4df523b3ef",
            "0x0000000000000000000000000000000000000000000000000000000000000000",
            "0x0000000000000000000000003b4f0135465d444a5bd06ab90fc59b73916c85f5"
          ],
          "data": "0x00000000000000000000000000000b7abc627050305adf14a3d9e40000000000",
          "blockHash": "0x4080946c81ebcad3d37aee911110fc5c4e0bae26f67257e332383636b7edf4b7",
          "blockNumber": "0x172d716",
          "transactionHash": "0x402e1354097b2932d8c51f9701d15daed67923b756608635ebd72fc32109978e",
          "transactionIndex": "0x7",
          "logIndex": "0x7",
          "removed": false
        },
        {
          "address": "0x33f9aa5a77a5795d416dd0903be209ca1643f336",
          "topics": [
            "0xafab5d1d74bae8c6b34c8932c5a93db45757bef8a5b14b76f11aa2cdd5cb9be5",
            "0x0000000000000000000000009264d84bc5e31c250b0bce92ed297deb1ac38e87"
          ],
          "data": "0x00000000000000000000000000000000000000000000000000000000000000a000000000000000000000000000000000000000000000000000000000000000e000000000000000000000000000000000000000000000d3c21bcecceda100000000000000000000000000000000000000000000000000000000000000000000120000000000000000000000003b4f0135465d444a5bd06ab90fc59b73916c85f5000000000000000000000000000000000000000000000000000000000000000d577261707065642045746865720000000000000000000000000000000000000000000000000000000000000000000000000000000000000000000000000000045745544800000000000000000000000000000000000000000000000000000000",
          "blockHash": "0x4080946c81ebcad3d37aee911110fc5c4e0bae26f67257e332383636b7edf4b7",
          "blockNumber": "0x172d716",
          "transactionHash": "0x402e1354097b2932d8c51f9701d15daed67923b756608635ebd72fc32109978e",
          "transactionIndex": "0x7",
          "logIndex": "0x8",
          "removed": false
        }
      ],
      "logsBloom": "0x00000000000000000000000020000000000000000000000000000020000000000000000000000000000000000000040000000000000000000000000000400000000000000000000000000008000000000000000000000000000000000000000000000000020000000000000080000800000800000000000000000010000000000000000000000004000000000000000000000000000000000000000000000000000100000000000000000000000000000000000000000000000000000001000000000102000000000001000000002000000000080800000000000000000020000000000000000000000000000000000000000000000000000000000000008000",
      "type": "0x2",
      "transactionHash": "0x402e1354097b2932d8c51f9701d15daed67923b756608635ebd72fc32109978e",
      "transactionIndex": "0x7",
      "blockHash": "0x4080946c81ebcad3d37aee911110fc5c4e0bae26f67257e332383636b7edf4b7",
      "blockNumber": "0x172d716",
      "gasUsed": "0x82a7d",
      "effectiveGasPrice": "0x3b9aca01",
      "from": "0x3b4f0135465d444a5bd06ab90fc59b73916c85f5",
      "to": "0x33f9aa5a77a5795d416dd0903be209ca1643f336",
      "contractAddress": null
    },
    {
      "status": "0x1",
      "cumulativeGasUsed": "0x1b9ee3",
      "logs": [
        {
          "address": "0x9264d84bc5e31c250b0bce92ed297deb1ac38e87",
          "topics": [
            "0xddf252ad1be2c89b69c2b068fc378daa952ba7f163c4a11628f55a4df523b3ef",
            "0x0000000000000000000000000000000000000000000000000000000000000000",
            "0x0000000000000000000000003b4f0135465d444a5bd06ab90fc59b73916c85f5"
          ],
          "data": "0x00000000000000000000000000000000000000000000d3c21bcecceda1000000",
          "blockHash": "0x4080946c81ebcad3d37aee911110fc5c4e0bae26f67257e332383636b7edf4b7",
          "blockNumber": "0x172d716",
          "transactionHash": "0x170e08e43688a51afd95c56bb1e032fd2c662e3d4301b77d5055637b75f4f1f2",
          "transactionIndex": "0x8",
          "logIndex": "0x9",
          "removed": false
        }
      ],
      "logsBloom": "0x00000000000000000000000000000000000000000000000000000020000000000000000000000000000000000000000000000000000000000000000000400000000000000000000000000008000000000000000000000000000000000000000000000000020000000000000080000800000000000000000000000010000000000000000000000000000000000000000000000000000000000000000000000000000000000000000000000000000000000000000000000000000000000000000000000102000000000001000000000000000000000000000000000000000020000000000000000000000000000000000000000000000000000000000000008000",
      "type": "0x2",
      "transactionHash": "0x170e08e43688a51afd95c56bb1e032fd2c662e3d4301b77d5055637b75f4f1f2",
      "transactionIndex": "0x8",
      "blockHash": "0x4080946c81ebcad3d37aee911110fc5c4e0bae26f67257e332383636b7edf4b7",
      "blockNumber": "0x172d716",
      "gasUsed": "0x8981",
      "effectiveGasPrice": "0x3b9aca01",
      "from": "0x3b4f0135465d444a5bd06ab90fc59b73916c85f5",
      "to": "0x9264d84bc5e31c250b0bce92ed297deb1ac38e87",
      "contractAddress": null
    },
    {
      "status": "0x1",
      "cumulativeGasUsed": "0x1c5adb",
      "logs": [
        {
          "address": "0x9264d84bc5e31c250b0bce92ed297deb1ac38e87",
          "topics": [
            "0x8c5be1e5ebec7d5bd14f71427d1e84f3dd0314c0f7b2291e5b200ac8c7c3b925",
            "0x0000000000000000000000003b4f0135465d444a5bd06ab90fc59b73916c85f5",
            "0x0000000000000000000000005844cf8bbf41a2e25ed3f40ee96e64f31330ca3d"
          ],
          "data": "0x000000000000000000000000000000000000000000000013f0011c9a7f42487f",
          "blockHash": "0x4080946c81ebcad3d37aee911110fc5c4e0bae26f67257e332383636b7edf4b7",
          "blockNumber": "0x172d716",
          "transactionHash": "0x12808d0df5506cb577f41e07ed06998c1ee13695dab61fdff78326e6f9531df1",
          "transactionIndex": "0x9",
          "logIndex": "0xa",
          "removed": false
        }
      ],
      "logsBloom": "0x00000000000000000000000000000000000000000000000000000020000000000000000000000000000000000000000000000000000000000000000000600000000000000000000000000000000000000000000000000000000000000000000001000000000000000000000080000000000000000000000000000000000000000000000000000000000000000000000000000000000000000000000000000000020000000000000000000000000000000000000000000000000000000000000000000100000000000001000000000000000000000000000000000020080000000010000000000000000000000000000000000000000000000000000000008000",
      "type": "0x2",
      "transactionHash": "0x12808d0df5506cb577f41e07ed06998c1ee13695dab61fdff78326e6f9531df1",
      "transactionIndex": "0x9",
      "blockHash": "0x4080946c81ebcad3d37aee911110fc5c4e0bae26f67257e332383636b7edf4b7",
      "blockNumber": "0x172d716",
      "gasUsed": "0xbbf8",
      "effectiveGasPrice": "0x3b9aca01",
      "from": "0x3b4f0135465d444a5bd06ab90fc59b73916c85f5",
      "to": "0x9264d84bc5e31c250b0bce92ed297deb1ac38e87",
      "contractAddress": null
    },
    {
      "status": "0x1",
      "cumulativeGasUsed": "0x1d9c78",
      "logs": [
        {
          "address": "0x9264d84bc5e31c250b0bce92ed297deb1ac38e87",
          "topics": [
            "0xddf252ad1be2c89b69c2b068fc378daa952ba7f163c4a11628f55a4df523b3ef",
            "0x0000000000000000000000003b4f0135465d444a5bd06ab90fc59b73916c85f5",
            "0x0000000000000000000000005844cf8bbf41a2e25ed3f40ee96e64f31330ca3d"
          ],
          "data": "0x000000000000000000000000000000000000000000000013f0011c9a7f42487f",
          "blockHash": "0x4080946c81ebcad3d37aee911110fc5c4e0bae26f67257e332383636b7edf4b7",
          "blockNumber": "0x172d716",
          "transactionHash": "0x301d99374aa8211cf26b4d0b2c711dfb10c29f79fc9e020bdb8263fd32128fc9",
          "transactionIndex": "0xa",
          "logIndex": "0xb",
          "removed": false
        },
        {
          "address": "0x5844cf8bbf41a2e25ed3f40ee96e64f31330ca3d",
          "topics": [
            "0x9d278c56ba6dc86a12eefe6b43112bd6e06648eb4ec0b950ee2d783d40e2acb4",
            "0x0000000000000000000000003b4f0135465d444a5bd06ab90fc59b73916c85f5"
          ],
          "data": "0x0000000000000000000000009264d84bc5e31c250b0bce92ed297deb1ac38e87000000000000000000000000000000000000000000000013f0011c9a7f42487f",
          "blockHash": "0x4080946c81ebcad3d37aee911110fc5c4e0bae26f67257e332383636b7edf4b7",
          "blockNumber": "0x172d716",
          "transactionHash": "0x301d99374aa8211cf26b4d0b2c711dfb10c29f79fc9e020bdb8263fd32128fc9",
          "transactionIndex": "0xa",
          "logIndex": "0xc",
          "removed": false
        }
      ],
      "logsBloom": "0x00000000000000000000000000000000000000000000002000000020000000000000000000000000000000000000000000000000000000000000000000400000000000000000000000000008000000000000000000010000000000000000000001000000000000000008000080000000000000000200000000000010000000000000000000000000000000000000000000000000000200000000000000000000000000000000000000000000000000000000000000000000000000000000000000000102000000000001000000000000000000000000000000000020080000000000000400000000000000000000000000000000000000000000000000008000",
      "type": "0x2",
      "transactionHash": "0x301d99374aa8211cf26b4d0b2c711dfb10c29f79fc9e020bdb8263fd32128fc9",
      "transactionIndex": "0xa",
      "blockHash": "0x4080946c81ebcad3d37aee911110fc5c4e0bae26f67257e332383636b7edf4b7",
      "blockNumber": "0x172d716",
      "gasUsed": "0x1419d",
      "effectiveGasPrice": "0x3b9aca01",
      "from": "0x3b4f0135465d444a5bd06ab90fc59b73916c85f5",
      "to": "0x5844cf8bbf41a2e25ed3f40ee96e64f31330ca3d",
      "contractAddress": null
    },
    {
      "status": "0x1",
      "cumulativeGasUsed": "0x25c685",
      "logs": [
        {
          "address": "0xc8e25e5dc52492bf28425fb923966ac9bd00683b",
          "topics": [
            "0xddf252ad1be2c89b69c2b068fc378daa952ba7f163c4a11628f55a4df523b3ef",
            "0x0000000000000000000000000000000000000000000000000000000000000000",
            "0x0000000000000000000000003b4f0135465d444a5bd06ab90fc59b73916c85f5"
          ],
          "data": "0x00000000000000000000000000000b7abc627050305adf14a3d9e40000000000",
          "blockHash": "0x4080946c81ebcad3d37aee911110fc5c4e0bae26f67257e332383636b7edf4b7",
          "blockNumber": "0x172d716",
          "transactionHash": "0x7f8685e5cf8628ae4b3ce8fbe20fbf374058aa5c1d66ba8b4a0afa776488a6d1",
          "transactionIndex": "0xb",
          "logIndex": "0xd",
          "removed": false
        },
        {
          "address": "0x33f9aa5a77a5795d416dd0903be209ca1643f336",
          "topics": [
            "0xafab5d1d74bae8c6b34c8932c5a93db45757bef8a5b14b76f11aa2cdd5cb9be5",
            "0x000000000000000000000000c8e25e5dc52492bf28425fb923966ac9bd00683b"
          ],
          "data": "0x00000000000000000000000000000000000000000000000000000000000000a000000000000000000000000000000000000000000000000000000000000000e000000000000000000000000000000000000000000000d3c21bcecceda100000000000000000000000000000000000000000000000000000000000000000000120000000000000000000000003b4f0135465d444a5bd06ab90fc59b73916c85f50000000000000000000000000000000000000000000000000000000000000004504550450000000000000000000000000000000000000000000000000000000000000000000000000000000000000000000000000000000000000000000000045045504500000000000000000000000000000000000000000000000000000000",
          "blockHash": "0x4080946c81ebcad3d37aee911110fc5c4e0bae26f67257e332383636b7edf4b7",
          "blockNumber": "0x172d716",
          "transactionHash": "0x7f8685e5cf8628ae4b3ce8fbe20fbf374058aa5c1d66ba8b4a0afa776488a6d1",
          "transactionIndex": "0xb",
          "logIndex": "0xe",
          "removed": false
        }
      ],
      "logsBloom": "0x00000000000000000000000020000000000000080000000000000020000000000000000000000000000000000000040000000000000000000000000000400000000000000000000000000008000000000000000000000000000000000000000000000000020000000080000000000900000800000000000000000010000000000000000000000000000000000000000000000000000000000000000000400100000000000000000000000000000000000000008000000000000000000001000000000102000000000000000000000000000000080800000000000000000020000000000000000000000000000000000000000000000000000000000000000000",
      "type": "0x2",
      "transactionHash": "0x7f8685e5cf8628ae4b3ce8fbe20fbf374058aa5c1d66ba8b4a0afa776488a6d1",
      "transactionIndex": "0xb",
      "blockHash": "0x4080946c81ebcad3d37aee911110fc5c4e0bae26f67257e332383636b7edf4b7",
      "blockNumber": "0x172d716",
      "gasUsed": "0x82a0d",
      "effectiveGasPrice": "0x3b9aca01",
      "from": "0x3b4f0135465d444a5bd06ab90fc59b73916c85f5",
      "to": "0x33f9aa5a77a5795d416dd0903be209ca1643f336",
      "contractAddress": null
    },
    {
      "status": "0x1",
      "cumulativeGasUsed": "0xdb89",
      "logs": [
        {
          "address": "0xc8e25e5dc52492bf28425fb923966ac9bd00683b",
          "topics": [
            "0xddf252ad1be2c89b69c2b068fc378daa952ba7f163c4a11628f55a4df523b3ef",
            "0x0000000000000000000000000000000000000000000000000000000000000000",
            "0x0000000000000000000000003b4f0135465d444a5bd06ab90fc59b73916c85f5"
          ],
          "data": "0x00000000000000000000000000000000000000000000d3c21bcecceda1000000",
          "blockHash": "0x843a4e08b0ffe2307f426e2af1ac18c1ef07efa70f31bb5f0cf35eb407bba62d",
          "blockNumber": "0x172d717",
          "transactionHash": "0x6ef6d20ca90bafbce80c4ff2f79278fe9ff7651772b663573052dd98178c4fbc",
          "transactionIndex": "0x1",
          "logIndex": "0x0",
          "removed": false
        }
      ],
      "logsBloom": "0x00000000000000000000000000000000000000080000000000000020000000000000000000000000000000000000000000000000000000000000000000400000000000000000000000000008000000000000000000000000000000000000000000000000020000000000000000000900000000000000000000000010000000000000000000000000000000000000000000000000000000000000000000000000000000000000000000000000000000000000008000000000000000000000000000000102000000000000000000000000000000000000000000000000000020000000000000000000000000000000000000000000000000000000000000000000",
      "type": "0x2",
      "transactionHash": "0x6ef6d20ca90bafbce80c4ff2f79278fe9ff7651772b663573052dd98178c4fbc",
      "transactionIndex": "0x1",
      "blockHash": "0x843a4e08b0ffe2307f426e2af1ac18c1ef07efa70f31bb5f0cf35eb407bba62d",
      "blockNumber": "0x172d717",
      "gasUsed": "0x8981",
      "effectiveGasPrice": "0x3b9aca01",
      "from": "0x3b4f0135465d444a5bd06ab90fc59b73916c85f5",
      "to": "0xc8e25e5dc52492bf28425fb923966ac9bd00683b",
      "contractAddress": null
    },
    {
      "status": "0x1",
      "cumulativeGasUsed": "0x1979a",
      "logs": [
        {
          "address": "0xc8e25e5dc52492bf28425fb923966ac9bd00683b",
          "topics": [
            "0x8c5be1e5ebec7d5bd14f71427d1e84f3dd0314c0f7b2291e5b200ac8c7c3b925",
            "0x0000000000000000000000003b4f0135465d444a5bd06ab90fc59b73916c85f5",
            "0x0000000000000000000000005844cf8bbf41a2e25ed3f40ee96e64f31330ca3d"
          ],
          "data": "0x0000000000000000000000000000000000000000000785132b58012a71d1745d",
          "blockHash": "0x843a4e08b0ffe2307f426e2af1ac18c1ef07efa70f31bb5f0cf35eb407bba62d",
          "blockNumber": "0x172d717",
          "transactionHash": "0xbc8e3906606ee7513ad13796d41f9e5855f61801d250b2b554731dd3937a8759",
          "transactionIndex": "0x2",
          "logIndex": "0x1",
          "removed": false
        }
      ],
      "logsBloom": "0x00000000000000000000000000000000000000080000000000000020000000000000000000000000000000000000000000000000000000000000000000600000000000000000000000000000000000000000000000000000000000000000000001000000000000000000000000000100000000000000000000000000000000000000000000000000000000000000000000000000000000000000000000000000020000000000000000000000000000000000008000000000000000000000000000000100000000000000000000000000000000000000000000000020080000000010000000000000000000000000000000000000000000000000000000000000",
      "type": "0x2",
      "transactionHash": "0xbc8e3906606ee7513ad13796d41f9e5855f61801d250b2b554731dd3937a8759",
      "transactionIndex": "0x2",
      "blockHash": "0x843a4e08b0ffe2307f426e2af1ac18c1ef07efa70f31bb5f0cf35eb407bba62d",
      "blockNumber": "0x172d717",
      "gasUsed": "0xbc11",
      "effectiveGasPrice": "0x3b9aca01",
      "from": "0x3b4f0135465d444a5bd06ab90fc59b73916c85f5",
      "to": "0xc8e25e5dc52492bf28425fb923966ac9bd00683b",
      "contractAddress": null
    },
    {
      "status": "0x1",
      "cumulativeGasUsed": "0x2d6c1",
      "logs": [
        {
          "address": "0xc8e25e5dc52492bf28425fb923966ac9bd00683b",
          "topics": [
            "0xddf252ad1be2c89b69c2b068fc378daa952ba7f163c4a11628f55a4df523b3ef",
            "0x0000000000000000000000003b4f0135465d444a5bd06ab90fc59b73916c85f5",
            "0x0000000000000000000000005844cf8bbf41a2e25ed3f40ee96e64f31330ca3d"
          ],
          "data": "0x0000000000000000000000000000000000000000000785132b58012a71d1745d",
          "blockHash": "0x843a4e08b0ffe2307f426e2af1ac18c1ef07efa70f31bb5f0cf35eb407bba62d",
          "blockNumber": "0x172d717",
          "transactionHash": "0x9ff60843dc051954cf8fafc4c2dc8e45aa0a4921e1c1167a7ccc9b9f40c7ce60",
          "transactionIndex": "0x3",
          "logIndex": "0x2",
          "removed": false
        },
        {
          "address": "0x5844cf8bbf41a2e25ed3f40ee96e64f31330ca3d",
          "topics": [
            "0x9d278c56ba6dc86a12eefe6b43112bd6e06648eb4ec0b950ee2d783d40e2acb4",
            "0x0000000000000000000000003b4f0135465d444a5bd06ab90fc59b73916c85f5"
          ],
          "data": "0x000000000000000000000000c8e25e5dc52492bf28425fb923966ac9bd00683b0000000000000000000000000000000000000000000785132b58012a71d1745d",
          "blockHash": "0x843a4e08b0ffe2307f426e2af1ac18c1ef07efa70f31bb5f0cf35eb407bba62d",
          "blockNumber": "0x172d717",
          "transactionHash": "0x9ff60843dc051954cf8fafc4c2dc8e45aa0a4921e1c1167a7ccc9b9f40c7ce60",
          "transactionIndex": "0x3",
          "logIndex": "0x3",
          "removed": false
        }
      ],
      "logsBloom": "0x00000000000000000000000000000000000000080000002000000020000000000000000000000000000000000000000000000000000000000000000000400000000000000000000000000008000000000000000000010000000000000000000001000000000000000008000000000100000000000200000000000010000000000000000000000000000000000000000000000000000200000000000000000000000000000000000000000000000000000000008000000000000000000000000000000102000000000000000000000000000000000000000000000020080000000000000400000000000000000000000000000000000000000000000000000000",
      "type": "0x2",
      "transactionHash": "0x9ff60843dc051954cf8fafc4c2dc8e45aa0a4921e1c1167a7ccc9b9f40c7ce60",
      "transactionIndex": "0x3",
      "blockHash": "0x843a4e08b0ffe2307f426e2af1ac18c1ef07efa70f31bb5f0cf35eb407bba62d",
      "blockNumber": "0x172d717",
      "gasUsed": "0x13f27",
      "effectiveGasPrice": "0x3b9aca01",
      "from": "0x3b4f0135465d444a5bd06ab90fc59b73916c85f5",
      "to": "0x5844cf8bbf41a2e25ed3f40ee96e64f31330ca3d",
      "contractAddress": null
    },
    {
      "status": "0x1",
      "cumulativeGasUsed": "0xb0157",
      "logs": [
        {
          "address": "0xa0136570855595b56ecd47c4b169a6ce4b2c0651",
          "topics": [
            "0xddf252ad1be2c89b69c2b068fc378daa952ba7f163c4a11628f55a4df523b3ef",
            "0x0000000000000000000000000000000000000000000000000000000000000000",
            "0x0000000000000000000000003b4f0135465d444a5bd06ab90fc59b73916c85f5"
          ],
          "data": "0x00000000000000000000000000000b7abc627050305adf14a3d9e40000000000",
          "blockHash": "0x843a4e08b0ffe2307f426e2af1ac18c1ef07efa70f31bb5f0cf35eb407bba62d",
          "blockNumber": "0x172d717",
          "transactionHash": "0x5544ef0bfeaf0e520e76442abe6d2507950fd6acfccdc65db8ffda29c3a3d288",
          "transactionIndex": "0x4",
          "logIndex": "0x4",
          "removed": false
        },
        {
          "address": "0x33f9aa5a77a5795d416dd0903be209ca1643f336",
          "topics": [
            "0xafab5d1d74bae8c6b34c8932c5a93db45757bef8a5b14b76f11aa2cdd5cb9be5",
            "0x000000000000000000000000a0136570855595b56ecd47c4b169a6ce4b2c0651"
          ],
          "data": "0x00000000000000000000000000000000000000000000000000000000000000a000000000000000000000000000000000000000000000000000000000000000e000000000000000000000000000000000000000000000d3c21bcecceda100000000000000000000000000000000000000000000000000000000000000000000120000000000000000000000003b4f0135465d444a5bd06ab90fc59b73916c85f5000000000000000000000000000000000000000000000000000000000000000e4f4646494349414c205452554d5000000000000000000000000000000000000000000000000000000000000000000000000000000000000000000000000000055452554d50000000000000000000000000000000000000000000000000000000",
          "blockHash": "0x843a4e08b0ffe2307f426e2af1ac18c1ef07efa70f31bb5f0cf35eb407bba62d",
          "blockNumber": "0x172d717",
          "transactionHash": "0x5544ef0bfeaf0e520e76442abe6d2507950fd6acfccdc65db8ffda29c3a3d288",
          "transactionIndex": "0x4",
          "logIndex": "0x5",
          "removed": false
        }
      ],
      "logsBloom": "0x00000000000000020000008020000004000000000000000000000020000000000000000000000000000000000000040000000000000000000000000000400000000000000000000000000008000000000000000000000000000000000000000000000000020004000000000000000800000800000000000000000010000000000000800000000000000000000000000000000000000000000000000000000000000000000000000000000000000000000000000000000000000000000001000000000102000000000000000000000000000000080800000000000000000020000000000000000000000000000000000000000000000000000000800000000000",
      "type": "0x2",
      "transactionHash": "0x5544ef0bfeaf0e520e76442abe6d2507950fd6acfccdc65db8ffda29c3a3d288",
      "transactionIndex": "0x4",
      "blockHash": "0x843a4e08b0ffe2307f426e2af1ac18c1ef07efa70f31bb5f0cf35eb407bba62d",
      "blockNumber": "0x172d717",
      "gasUsed": "0x82a96",
      "effectiveGasPrice": "0x3b9aca01",
      "from": "0x3b4f0135465d444a5bd06ab90fc59b73916c85f5",
      "to": "0x33f9aa5a77a5795d416dd0903be209ca1643f336",
      "contractAddress": null
    },
    {
      "status": "0x1",
      "cumulativeGasUsed": "0xb8ad8",
      "logs": [
        {
          "address": "0xa0136570855595b56ecd47c4b169a6ce4b2c0651",
          "topics": [
            "0xddf252ad1be2c89b69c2b068fc378daa952ba7f163c4a11628f55a4df523b3ef",
            "0x0000000000000000000000000000000000000000000000000000000000000000",
            "0x0000000000000000000000003b4f0135465d444a5bd06ab90fc59b73916c85f5"
          ],
          "data": "0x00000000000000000000000000000000000000000000d3c21bcecceda1000000",
          "blockHash": "0x843a4e08b0ffe2307f426e2af1ac18c1ef07efa70f31bb5f0cf35eb407bba62d",
          "blockNumber": "0x172d717",
          "transactionHash": "0xafbdb00ec8bc339356f7aa0afc3d8fc2a4774eb8db9469a75ce522b906d18518",
          "transactionIndex": "0x5",
          "logIndex": "0x6",
          "removed": false
        }
      ],
      "logsBloom": "0x00000000000000000000000000000000000000000000000000000020000000000000000000000000000000000000000000000000000000000000000000400000000000000000000000000008000000000000000000000000000000000000000000000000020004000000000000000800000000000000000000000010000000000000800000000000000000000000000000000000000000000000000000000000000000000000000000000000000000000000000000000000000000000000000000000102000000000000000000000000000000000000000000000000000020000000000000000000000000000000000000000000000000000000800000000000",
      "type": "0x2",
      "transactionHash": "0xafbdb00ec8bc339356f7aa0afc3d8fc2a4774eb8db9469a75ce522b906d18518",
      "transactionIndex": "0x5",
      "blockHash": "0x843a4e08b0ffe2307f426e2af1ac18c1ef07efa70f31bb5f0cf35eb407bba62d",
      "blockNumber": "0x172d717",
      "gasUsed": "0x8981",
      "effectiveGasPrice": "0x3b9aca01",
      "from": "0x3b4f0135465d444a5bd06ab90fc59b73916c85f5",
      "to": "0xa0136570855595b56ecd47c4b169a6ce4b2c0651",
      "contractAddress": null
    },
    {
      "status": "0x1",
      "cumulativeGasUsed": "0xc46d0",
      "logs": [
        {
          "address": "0xa0136570855595b56ecd47c4b169a6ce4b2c0651",
          "topics": [
            "0x8c5be1e5ebec7d5bd14f71427d1e84f3dd0314c0f7b2291e5b200ac8c7c3b925",
            "0x0000000000000000000000003b4f0135465d444a5bd06ab90fc59b73916c85f5",
            "0x0000000000000000000000005844cf8bbf41a2e25ed3f40ee96e64f31330ca3d"
          ],
          "data": "0x0000000000000000000000000000000000000000000000220d3411d131ca2172",
          "blockHash": "0x843a4e08b0ffe2307f426e2af1ac18c1ef07efa70f31bb5f0cf35eb407bba62d",
          "blockNumber": "0x172d717",
          "transactionHash": "0xa294270889ba537dfdf0f880989b538697b1718318e404021274948600ca2935",
          "transactionIndex": "0x6",
          "logIndex": "0x7",
          "removed": false
        }
      ],
      "logsBloom": "0x00000000000000000000000000000000000000000000000000000020000000000000000000000000000000000000000000000000000000000000000000600000000000000000000000000000000000000000000000000000000000000000000001000000000004000000000000000000000000000000000000000000000000000000800000000000000000000000000000000000000000000000000000000000020000000000000000000000000000000000000000000000000000000000000000000100000000000000000000000000000000000000000000000020080000000010000000000000000000000000000000000000000000000000800000000000",
      "type": "0x2",
      "transactionHash": "0xa294270889ba537dfdf0f880989b538697b1718318e404021274948600ca2935",
      "transactionIndex": "0x6",
      "blockHash": "0x843a4e08b0ffe2307f426e2af1ac18c1ef07efa70f31bb5f0cf35eb407bba62d",
      "blockNumber": "0x172d717",
      "gasUsed": "0xbbf8",
      "effectiveGasPrice": "0x3b9aca01",
      "from": "0x3b4f0135465d444a5bd06ab90fc59b73916c85f5",
      "to": "0xa0136570855595b56ecd47c4b169a6ce4b2c0651",
      "contractAddress": null
    },
    {
      "status": "0x1",
      "cumulativeGasUsed": "0xd886d",
      "logs": [
        {
          "address": "0xa0136570855595b56ecd47c4b169a6ce4b2c0651",
          "topics": [
            "0xddf252ad1be2c89b69c2b068fc378daa952ba7f163c4a11628f55a4df523b3ef",
            "0x0000000000000000000000003b4f0135465d444a5bd06ab90fc59b73916c85f5",
            "0x0000000000000000000000005844cf8bbf41a2e25ed3f40ee96e64f31330ca3d"
          ],
          "data": "0x0000000000000000000000000000000000000000000000220d3411d131ca2172",
          "blockHash": "0x843a4e08b0ffe2307f426e2af1ac18c1ef07efa70f31bb5f0cf35eb407bba62d",
          "blockNumber": "0x172d717",
          "transactionHash": "0x998cc0deb7e3987da849ab231ba911fa40496d90c9474ee1a477f27a11609283",
          "transactionIndex": "0x7",
          "logIndex": "0x8",
          "removed": false
        },
        {
          "address": "0x5844cf8bbf41a2e25ed3f40ee96e64f31330ca3d",
          "topics": [
            "0x9d278c56ba6dc86a12eefe6b43112bd6e06648eb4ec0b950ee2d783d40e2acb4",
            "0x0000000000000000000000003b4f0135465d444a5bd06ab90fc59b73916c85f5"
          ],
          "data": "0x000000000000000000000000a0136570855595b56ecd47c4b169a6ce4b2c06510000000000000000000000000000000000000000000000220d3411d131ca2172",
          "blockHash": "0x843a4e08b0ffe2307f426e2af1ac18c1ef07efa70f31bb5f0cf35eb407bba62d",
          "blockNumber": "0x172d717",
          "transactionHash": "0x998cc0deb7e3987da849ab231ba911fa40496d90c9474ee1a477f27a11609283",
          "transactionIndex": "0x7",
          "logIndex": "0x9",
          "removed": false
        }
      ],
      "logsBloom": "0x00000000000000000000000000000000000000000000002000000020000000000000000000000000000000000000000000000000000000000000000000400000000000000000000000000008000000000000000000010000000000000000000001000000000004000008000000000000000000000200000000000010000000000000800000000000000000000000000000000000000200000000000000000000000000000000000000000000000000000000000000000000000000000000000000000102000000000000000000000000000000000000000000000020080000000000000400000000000000000000000000000000000000000000800000000000",
      "type": "0x2",
      "transactionHash": "0x998cc0deb7e3987da849ab231ba911fa40496d90c9474ee1a477f27a11609283",
      "transactionIndex": "0x7",
      "blockHash": "0x843a4e08b0ffe2307f426e2af1ac18c1ef07efa70f31bb5f0cf35eb407bba62d",
      "blockNumber": "0x172d717",
      "gasUsed": "0x1419d",
      "effectiveGasPrice": "0x3b9aca01",
      "from": "0x3b4f0135465d444a5bd06ab90fc59b73916c85f5",
      "to": "0x5844cf8bbf41a2e25ed3f40ee96e64f31330ca3d",
      "contractAddress": null
    },
    {
      "status": "0x1",
      "cumulativeGasUsed": "0x15b2b9",
      "logs": [
        {
          "address": "0x41478079a0fd8e29dae8b58f0a24ddac88183958",
          "topics": [
            "0xddf252ad1be2c89b69c2b068fc378daa952ba7f163c4a11628f55a4df523b3ef",
            "0x0000000000000000000000000000000000000000000000000000000000000000",
            "0x0000000000000000000000003b4f0135465d444a5bd06ab90fc59b73916c85f5"
          ],
          "data": "0x00000000000000000000000000000b7abc627050305adf14a3d9e40000000000",
          "blockHash": "0x843a4e08b0ffe2307f426e2af1ac18c1ef07efa70f31bb5f0cf35eb407bba62d",
          "blockNumber": "0x172d717",
          "transactionHash": "0x977a9af5ce2e23fcfec6ec7b49755a5fcb3541f1f5b919616834671a453e5ff3",
          "transactionIndex": "0x8",
          "logIndex": "0xa",
          "removed": false
        },
        {
          "address": "0x33f9aa5a77a5795d416dd0903be209ca1643f336",
          "topics": [
            "0xafab5d1d74bae8c6b34c8932c5a93db45757bef8a5b14b76f11aa2cdd5cb9be5",
            "0x00000000000000000000000041478079a0fd8e29dae8b58f0a24ddac88183958"
          ],
          "data": "0x00000000000000000000000000000000000000000000000000000000000000a000000000000000000000000000000000000000000000000000000000000000e000000000000000000000000000000000000000000000d3c21bcecceda100000000000000000000000000000000000000000000000000000000000000000000120000000000000000000000003b4f0135465d444a5bd06ab90fc59b73916c85f50000000000000000000000000000000000000000000000000000000000000007444f4745204149000000000000000000000000000000000000000000000000000000000000000000000000000000000000000000000000000000000000000006444f474541490000000000000000000000000000000000000000000000000000",
          "blockHash": "0x843a4e08b0ffe2307f426e2af1ac18c1ef07efa70f31bb5f0cf35eb407bba62d",
          "blockNumber": "0x172d717",
          "transactionHash": "0x977a9af5ce2e23fcfec6ec7b49755a5fcb3541f1f5b919616834671a453e5ff3",
          "transactionIndex": "0x8",
          "logIndex": "0xb",
          "removed": false
        }
      ],
      "logsBloom": "0x00000000000000000000000020000000000000000000000000000020000000000000010000000000000000000000040000000000000000000000000000400000000000000000000000000008000000000000000000000000400000000000000000000000020000000000000000000800000800000000000000000010000000000000000000000000000000000000000000000000000000000000000000000000000000000000000000000000000000000000000000000000000100000001000000108102000000000000000001000000000000080800000000000000000020000000000000000000000000000000000000000000000000000000000000000000",
      "type": "0x2",
      "transactionHash": "0x977a9af5ce2e23fcfec6ec7b49755a5fcb3541f1f5b919616834671a453e5ff3",
      "transactionIndex": "0x8",
      "blockHash": "0x843a4e08b0ffe2307f426e2af1ac18c1ef07efa70f31bb5f0cf35eb407bba62d",
      "blockNumber": "0x172d717",
      "gasUsed": "0x82a4c",
      "effectiveGasPrice": "0x3b9aca01",
      "from": "0x3b4f0135465d444a5bd06ab90fc59b73916c85f5",
      "to": "0x33f9aa5a77a5795d416dd0903be209ca1643f336",
      "contractAddress": null
    },
    {
      "status": "0x1",
      "cumulativeGasUsed": "0x163c3a",
      "logs": [
        {
          "address": "0x41478079a0fd8e29dae8b58f0a24ddac88183958",
          "topics": [
            "0xddf252ad1be2c89b69c2b068fc378daa952ba7f163c4a11628f55a4df523b3ef",
            "0x0000000000000000000000000000000000000000000000000000000000000000",
            "0x0000000000000000000000003b4f0135465d444a5bd06ab90fc59b73916c85f5"
          ],
          "data": "0x00000000000000000000000000000000000000000000d3c21bcecceda1000000",
          "blockHash": "0x843a4e08b0ffe2307f426e2af1ac18c1ef07efa70f31bb5f0cf35eb407bba62d",
          "blockNumber": "0x172d717",
          "transactionHash": "0x1affb459a5d20e3307b854a9c831fe1c68dbb8162725c3ea583c8ccf9d2f81bb",
          "transactionIndex": "0x9",
          "logIndex": "0xc",
          "removed": false
        }
      ],
      "logsBloom": "0x00000000000000000000000000000000000000000000000000000020000000000000010000000000000000000000000000000000000000000000000000400000000000000000000000000008000000000000000000000000000000000000000000000000020000000000000000000800000000000000000000000010000000000000000000000000000000000000000000000000000000000000000000000000000000000000000000000000000000000000000000000000000000000000000000100102000000000000000001000000000000000000000000000000000020000000000000000000000000000000000000000000000000000000000000000000",
      "type": "0x2",
      "transactionHash": "0x1affb459a5d20e3307b854a9c831fe1c68dbb8162725c3ea583c8ccf9d2f81bb",
      "transactionIndex": "0x9",
      "blockHash": "0x843a4e08b0ffe2307f426e2af1ac18c1ef07efa70f31bb5f0cf35eb407bba62d",
      "blockNumber": "0x172d717",
      "gasUsed": "0x8981",
      "effectiveGasPrice": "0x3b9aca01",
      "from": "0x3b4f0135465d444a5bd06ab90fc59b73916c85f5",
      "to": "0x41478079a0fd8e29dae8b58f0a24ddac88183958",
      "contractAddress": null
    },
    {
      "status": "0x1",
      "cumulativeGasUsed": "0x16f84b",
      "logs": [
        {
          "address": "0x41478079a0fd8e29dae8b58f0a24ddac88183958",
          "topics": [
            "0x8c5be1e5ebec7d5bd14f71427d1e84f3dd0314c0f7b2291e5b200ac8c7c3b925",
            "0x0000000000000000000000003b4f0135465d444a5bd06ab90fc59b73916c85f5",
            "0x0000000000000000000000005844cf8bbf41a2e25ed3f40ee96e64f31330ca3d"
          ],
          "data": "0x0000000000000000000000000000000000000000000d577497390a5390210842",
          "blockHash": "0x843a4e08b0ffe2307f426e2af1ac18c1ef07efa70f31bb5f0cf35eb407bba62d",
          "blockNumber": "0x172d717",
          "transactionHash": "0xbafcd2d0d956298971061e2c2792fd5c2cc93d9814e2809d61a427bd88d61c11",
          "transactionIndex": "0xa",
          "logIndex": "0xd",
          "removed": false
        }
      ],
      "logsBloom": "0x00000000000000000000000000000000000000000000000000000020000000000000010000000000000000000000000000000000000000000000000000600000000000000000000000000000000000000000000000000000000000000000000001000000000000000000000000000000000000000000000000000000000000000000000000000000000000000000000000000000000000000000000000000000020000000000000000000000000000000000000000000000000000000000000000100100000000000000000001000000000000000000000000000020080000000010000000000000000000000000000000000000000000000000000000000000",
      "type": "0x2",
      "transactionHash": "0xbafcd2d0d956298971061e2c2792fd5c2cc93d9814e2809d61a427bd88d61c11",
      "transactionIndex": "0xa",
      "blockHash": "0x843a4e08b0ffe2307f426e2af1ac18c1ef07efa70f31bb5f0cf35eb407bba62d",
      "blockNumber": "0x172d717",
      "gasUsed": "0xbc11",
      "effectiveGasPrice": "0x3b9aca01",
      "from": "0x3b4f0135465d444a5bd06ab90fc59b73916c85f5",
      "to": "0x41478079a0fd8e29dae8b58f0a24ddac88183958",
      "contractAddress": null
    },
    {
      "status": "0x1",
      "cumulativeGasUsed": "0x183a01",
      "logs": [
        {
          "address": "0x41478079a0fd8e29dae8b58f0a24ddac88183958",
          "topics": [
            "0xddf252ad1be2c89b69c2b068fc378daa952ba7f163c4a11628f55a4df523b3ef",
            "0x0000000000000000000000003b4f0135465d444a5bd06ab90fc59b73916c85f5",
            "0x0000000000000000000000005844cf8bbf41a2e25ed3f40ee96e64f31330ca3d"
          ],
          "data": "0x0000000000000000000000000000000000000000000d577497390a5390210842",
          "blockHash": "0x843a4e08b0ffe2307f426e2af1ac18c1ef07efa70f31bb5f0cf35eb407bba62d",
          "blockNumber": "0x172d717",
          "transactionHash": "0x03fd7d758064d2d7fcb939a864ec64d9b7ca9bf0bb421bf2aad07ea33e3f4eae",
          "transactionIndex": "0xb",
          "logIndex": "0xe",
          "removed": false
        },
        {
          "address": "0x5844cf8bbf41a2e25ed3f40ee96e64f31330ca3d",
          "topics": [
            "0x9d278c56ba6dc86a12eefe6b43112bd6e06648eb4ec0b950ee2d783d40e2acb4",
            "0x0000000000000000000000003b4f0135465d444a5bd06ab90fc59b73916c85f5"
          ],
          "data": "0x00000000000000000000000041478079a0fd8e29dae8b58f0a24ddac881839580000000000000000000000000000000000000000000d577497390a5390210842",
          "blockHash": "0x843a4e08b0ffe2307f426e2af1ac18c1ef07efa70f31bb5f0cf35eb407bba62d",
          "blockNumber": "0x172d717",
          "transactionHash": "0x03fd7d758064d2d7fcb939a864ec64d9b7ca9bf0bb421bf2aad07ea33e3f4eae",
          "transactionIndex": "0xb",
          "logIndex": "0xf",
          "removed": false
        }
      ],
      "logsBloom": "0x00000000000000000000000000000000000000000000002000000020000000000000010000000000000000000000000000000000000000000000000000400000000000000000000000000008000000000000000000010000000000000000000001000000000000000008000000000000000000000200000000000010000000000000000000000000000000000000000000000000000200000000000000000000000000000000000000000000000000000000000000000000000000000000000000100102000000000000000001000000000000000000000000000020080000000000000400000000000000000000000000000000000000000000000000000000",
      "type": "0x2",
      "transactionHash": "0x03fd7d758064d2d7fcb939a864ec64d9b7ca9bf0bb421bf2aad07ea33e3f4eae",
      "transactionIndex": "0xb",
      "blockHash": "0x843a4e08b0ffe2307f426e2af1ac18c1ef07efa70f31bb5f0cf35eb407bba62d",
      "blockNumber": "0x172d717",
      "gasUsed": "0x141b6",
      "effectiveGasPrice": "0x3b9aca01",
      "from": "0x3b4f0135465d444a5bd06ab90fc59b73916c85f5",
      "to": "0x5844cf8bbf41a2e25ed3f40ee96e64f31330ca3d",
      "contractAddress": null
    },
    {
      "status": "0x1",
      "cumulativeGasUsed": "0x206440",
      "logs": [
        {
          "address": "0xba0f7b8aa3003d419ae4b1bcb3af5a82fa656d16",
          "topics": [
            "0xddf252ad1be2c89b69c2b068fc378daa952ba7f163c4a11628f55a4df523b3ef",
            "0x0000000000000000000000000000000000000000000000000000000000000000",
            "0x0000000000000000000000003b4f0135465d444a5bd06ab90fc59b73916c85f5"
          ],
          "data": "0x00000000000000000000000000000b7abc627050305adf14a3d9e40000000000",
          "blockHash": "0x843a4e08b0ffe2307f426e2af1ac18c1ef07efa70f31bb5f0cf35eb407bba62d",
          "blockNumber": "0x172d717",
          "transactionHash": "0xbb6b5b9fe7cd937eba252423015b3f6be1b4752c0a8f27ad77c627b9f031d17f",
          "transactionIndex": "0xc",
          "logIndex": "0x10",
          "removed": false
        },
        {
          "address": "0x33f9aa5a77a5795d416dd0903be209ca1643f336",
          "topics": [
            "0xafab5d1d74bae8c6b34c8932c5a93db45757bef8a5b14b76f11aa2cdd5cb9be5",
            "0x000000000000000000000000ba0f7b8aa3003d419ae4b1bcb3af5a82fa656d16"
          ],
          "data": "0x00000000000000000000000000000000000000000000000000000000000000a000000000000000000000000000000000000000000000000000000000000000e000000000000000000000000000000000000000000000d3c21bcecceda100000000000000000000000000000000000000000000000000000000000000000000120000000000000000000000003b4f0135465d444a5bd06ab90fc59b73916c85f50000000000000000000000000000000000000000000000000000000000000009646f67776966686174000000000000000000000000000000000000000000000000000000000000000000000000000000000000000000000000000000000000035749460000000000000000000000000000000000000000000000000000000000",
          "blockHash": "0x843a4e08b0ffe2307f426e2af1ac18c1ef07efa70f31bb5f0cf35eb407bba62d",
          "blockNumber": "0x172d717",
          "transactionHash": "0xbb6b5b9fe7cd937eba252423015b3f6be1b4752c0a8f27ad77c627b9f031d17f",
          "transactionIndex": "0xc",
          "logIndex": "0x11",
          "removed": false
        }
      ],
      "logsBloom": "0x00000000000000000000000020000000000000000000000000000020000000000000000000000000000000000000040000000000000000001000000000400000000000000000000000000008000000000000000000000000000000800000000000000000020000000000000000000800000800000000000000000010000000000000000000000000000000000000000000000000000000000000000000000000000000000080000000000000000000000000000002000000000000000001000000000102000000000000000000000000000000084800000000000000000020000000080000000000000000000000000000000000000000000000000000000000",
      "type": "0x2",
      "transactionHash": "0xbb6b5b9fe7cd937eba252423015b3f6be1b4752c0a8f27ad77c627b9f031d17f",
      "transactionIndex": "0xc",
      "blockHash": "0x843a4e08b0ffe2307f426e2af1ac18c1ef07efa70f31bb5f0cf35eb407bba62d",
      "blockNumber": "0x172d717",
      "gasUsed": "0x82a3f",
      "effectiveGasPrice": "0x3b9aca01",
      "from": "0x3b4f0135465d444a5bd06ab90fc59b73916c85f5",
      "to": "0x33f9aa5a77a5795d416dd0903be209ca1643f336",
      "contractAddress": null
    },
    {
      "status": "0x1",
      "cumulativeGasUsed": "0x8981",
      "logs": [
        {
          "address": "0xba0f7b8aa3003d419ae4b1bcb3af5a82fa656d16",
          "topics": [
            "0xddf252ad1be2c89b69c2b068fc378daa952ba7f163c4a11628f55a4df523b3ef",
            "0x0000000000000000000000000000000000000000000000000000000000000000",
            "0x0000000000000000000000003b4f0135465d444a5bd06ab90fc59b73916c85f5"
          ],
          "data": "0x00000000000000000000000000000000000000000000d3c21bcecceda1000000",
          "blockHash": "0xace409bd293232dbfa47e4da441f6f28fb3b82e2742aa017c20b2d060cb80530",
          "blockNumber": "0x172d71a",
          "transactionHash": "0x7c14a53b749f43bd8b1aceaf2260cf4c02ee99cb66ac8f666bb9ccaad26da758",
          "transactionIndex": "0x0",
          "logIndex": "0x0",
          "removed": false
        }
      ],
      "logsBloom": "0x00000000000000000000000000000000000000000000000000000020000000000000000000000000000000000000000000000000000000000000000000400000000000000000000000000008000000000000000000000000000000000000000000000000020000000000000000000800000000000000000000000010000000000000000000000000000000000000000000000000000000000000000000000000000000000000000000000000000000000000000002000000000000000000000000000102000000000000000000000000000000004000000000000000000020000000080000000000000000000000000000000000000000000000000000000000",
      "type": "0x2",
      "transactionHash": "0x7c14a53b749f43bd8b1aceaf2260cf4c02ee99cb66ac8f666bb9ccaad26da758",
      "transactionIndex": "0x0",
      "blockHash": "0xace409bd293232dbfa47e4da441f6f28fb3b82e2742aa017c20b2d060cb80530",
      "blockNumber": "0x172d71a",
      "gasUsed": "0x8981",
      "effectiveGasPrice": "0x3b9aca01",
      "from": "0x3b4f0135465d444a5bd06ab90fc59b73916c85f5",
      "to": "0xba0f7b8aa3003d419ae4b1bcb3af5a82fa656d16",
      "contractAddress": null
    },
    {
      "status": "0x1",
      "cumulativeGasUsed": "0x14592",
      "logs": [
        {
          "address": "0xba0f7b8aa3003d419ae4b1bcb3af5a82fa656d16",
          "topics": [
            "0x8c5be1e5ebec7d5bd14f71427d1e84f3dd0314c0f7b2291e5b200ac8c7c3b925",
            "0x0000000000000000000000003b4f0135465d444a5bd06ab90fc59b73916c85f5",
            "0x0000000000000000000000005844cf8bbf41a2e25ed3f40ee96e64f31330ca3d"
          ],
          "data": "0x000000000000000000000000000000000000000000011302bd0c9273c71dec0d",
          "blockHash": "0xace409bd293232dbfa47e4da441f6f28fb3b82e2742aa017c20b2d060cb80530",
          "blockNumber": "0x172d71a",
          "transactionHash": "0xefd2e7ce5bafd596ba5d6a686dd546addcbb835920341dcb8017d5732f75603a",
          "transactionIndex": "0x1",
          "logIndex": "0x1",
          "removed": false
        }
      ],
      "logsBloom": "0x00000000000000000000000000000000000000000000000000000020000000000000000000000000000000000000000000000000000000000000000000600000000000000000000000000000000000000000000000000000000000000000000001000000000000000000000000000000000000000000000000000000000000000000000000000000000000000000000000000000000000000000000000000000020000000000000000000000000000000000000002000000000000000000000000000100000000000000000000000000000000004000000000000020080000000010080000000000000000000000000000000000000000000000000000000000",
      "type": "0x2",
      "transactionHash": "0xefd2e7ce5bafd596ba5d6a686dd546addcbb835920341dcb8017d5732f75603a",
      "transactionIndex": "0x1",
      "blockHash": "0xace409bd293232dbfa47e4da441f6f28fb3b82e2742aa017c20b2d060cb80530",
      "blockNumber": "0x172d71a",
      "gasUsed": "0xbc11",
      "effectiveGasPrice": "0x3b9aca01",
      "from": "0x3b4f0135465d444a5bd06ab90fc59b73916c85f5",
      "to": "0xba0f7b8aa3003d419ae4b1bcb3af5a82fa656d16",
      "contractAddress": null
    },
    {
      "status": "0x1",
      "cumulativeGasUsed": "0x284b9",
      "logs": [
        {
          "address": "0xba0f7b8aa3003d419ae4b1bcb3af5a82fa656d16",
          "topics": [
            "0xddf252ad1be2c89b69c2b068fc378daa952ba7f163c4a11628f55a4df523b3ef",
            "0x0000000000000000000000003b4f0135465d444a5bd06ab90fc59b73916c85f5",
            "0x0000000000000000000000005844cf8bbf41a2e25ed3f40ee96e64f31330ca3d"
          ],
          "data": "0x000000000000000000000000000000000000000000011302bd0c9273c71dec0d",
          "blockHash": "0xace409bd293232dbfa47e4da441f6f28fb3b82e2742aa017c20b2d060cb80530",
          "blockNumber": "0x172d71a",
          "transactionHash": "0xfbed9b30ee40295ff8cd95f28344c7cd5c70933108f8f9c57b37e2fc03bb7ae1",
          "transactionIndex": "0x2",
          "logIndex": "0x2",
          "removed": false
        },
        {
          "address": "0x5844cf8bbf41a2e25ed3f40ee96e64f31330ca3d",
          "topics": [
            "0x9d278c56ba6dc86a12eefe6b43112bd6e06648eb4ec0b950ee2d783d40e2acb4",
            "0x0000000000000000000000003b4f0135465d444a5bd06ab90fc59b73916c85f5"
          ],
          "data": "0x000000000000000000000000ba0f7b8aa3003d419ae4b1bcb3af5a82fa656d16000000000000000000000000000000000000000000011302bd0c9273c71dec0d",
          "blockHash": "0xace409bd293232dbfa47e4da441f6f28fb3b82e2742aa017c20b2d060cb80530",
          "blockNumber": "0x172d71a",
          "transactionHash": "0xfbed9b30ee40295ff8cd95f28344c7cd5c70933108f8f9c57b37e2fc03bb7ae1",
          "transactionIndex": "0x2",
          "logIndex": "0x3",
          "removed": false
        }
      ],
      "logsBloom": "0x00000000000000000000000000000000000000000000002000000020000000000000000000000000000000000000000000000000000000000000000000400000000000000000000000000008000000000000000000010000000000000000000001000000000000000008000000000000000000000200000000000010000000000000000000000000000000000000000000000000000200000000000000000000000000000000000000000000000000000000000002000000000000000000000000000102000000000000000000000000000000004000000000000020080000000000080400000000000000000000000000000000000000000000000000000000",
      "type": "0x2",
      "transactionHash": "0xfbed9b30ee40295ff8cd95f28344c7cd5c70933108f8f9c57b37e2fc03bb7ae1",
      "transactionIndex": "0x2",
      "blockHash": "0xace409bd293232dbfa47e4da441f6f28fb3b82e2742aa017c20b2d060cb80530",
      "blockNumber": "0x172d71a",
      "gasUsed": "0x13f27",
      "effectiveGasPrice": "0x3b9aca01",
      "from": "0x3b4f0135465d444a5bd06ab90fc59b73916c85f5",
      "to": "0x5844cf8bbf41a2e25ed3f40ee96e64f31330ca3d",
      "contractAddress": null
    },
    {
      "status": "0x1",
      "cumulativeGasUsed": "0xaaef8",
      "logs": [
        {
          "address": "0x0ca5da1ecb61774776403c9045dedf68464374ea",
          "topics": [
            "0xddf252ad1be2c89b69c2b068fc378daa952ba7f163c4a11628f55a4df523b3ef",
            "0x0000000000000000000000000000000000000000000000000000000000000000",
            "0x0000000000000000000000003b4f0135465d444a5bd06ab90fc59b73916c85f5"
          ],
          "data": "0x00000000000000000000000000000b7abc627050305adf14a3d9e40000000000",
          "blockHash": "0xace409bd293232dbfa47e4da441f6f28fb3b82e2742aa017c20b2d060cb80530",
          "blockNumber": "0x172d71a",
          "transactionHash": "0x1a8fda371415c135fb52863e3878e4584a604ad990e63304267d03301ae3b8f8",
          "transactionIndex": "0x3",
          "logIndex": "0x4",
          "removed": false
        },
        {
          "address": "0x33f9aa5a77a5795d416dd0903be209ca1643f336",
          "topics": [
            "0xafab5d1d74bae8c6b34c8932c5a93db45757bef8a5b14b76f11aa2cdd5cb9be5",
            "0x0000000000000000000000000ca5da1ecb61774776403c9045dedf68464374ea"
          ],
          "data": "0x00000000000000000000000000000000000000000000000000000000000000a000000000000000000000000000000000000000000000000000000000000000e000000000000000000000000000000000000000000000d3c21bcecceda100000000000000000000000000000000000000000000000000000000000000000000120000000000000000000000003b4f0135465d444a5bd06ab90fc59b73916c85f5000000000000000000000000000000000000000000000000000000000000000653544f4e4b530000000000000000000000000000000000000000000000000000000000000000000000000000000000000000000000000000000000000000000653544f4e4b530000000000000000000000000000000000000000000000000000",
          "blockHash": "0xace409bd293232dbfa47e4da441f6f28fb3b82e2742aa017c20b2d060cb80530",
          "blockNumber": "0x172d71a",
          "transactionHash": "0x1a8fda371415c135fb52863e3878e4584a604ad990e63304267d03301ae3b8f8",
          "transactionIndex": "0x3",
          "logIndex": "0x5",
          "removed": false
        }
      ],
      "logsBloom": "0x00000000000000008000000020000000000000000000000000000020000000000000000000000000000000000000040000000000000000000000000000400000000000000000000000000008000000000000004000000000000000000000000000000000020000000000000000000800008800000000000000000010000000000000000000000000000000000000080000000000000000000000000000000000000000000000000000000000000000000000000000000000000000000001000000000102000000000000000000000000000000080800000000020000000020000000200000000000000000000000000000000000000000000000000000000000",
      "type": "0x2",
      "transactionHash": "0x1a8fda371415c135fb52863e3878e4584a604ad990e63304267d03301ae3b8f8",
      "transactionIndex": "0x3",
      "blockHash": "0xace409bd293232dbfa47e4da441f6f28fb3b82e2742aa017c20b2d060cb80530",
      "blockNumber": "0x172d71a",
      "gasUsed": "0x82a3f",
      "effectiveGasPrice": "0x3b9aca01",
      "from": "0x3b4f0135465d444a5bd06ab90fc59b73916c85f5",
      "to": "0x33f9aa5a77a5795d416dd0903be209ca1643f336",
      "contractAddress": null
    },
    {
      "status": "0x1",
      "cumulativeGasUsed": "0xb3879",
      "logs": [
        {
          "address": "0x0ca5da1ecb61774776403c9045dedf68464374ea",
          "topics": [
            "0xddf252ad1be2c89b69c2b068fc378daa952ba7f163c4a11628f55a4df523b3ef",
            "0x0000000000000000000000000000000000000000000000000000000000000000",
            "0x0000000000000000000000003b4f0135465d444a5bd06ab90fc59b73916c85f5"
          ],
          "data": "0x00000000000000000000000000000000000000000000d3c21bcecceda1000000",
          "blockHash": "0xace409bd293232dbfa47e4da441f6f28fb3b82e2742aa017c20b2d060cb80530",
          "blockNumber": "0x172d71a",
          "transactionHash": "0x17e3ab0f5b406a4773b44ad8f3c3382734a0642dad075a17a3ad6196c26bdccb",
          "transactionIndex": "0x4",
          "logIndex": "0x6",
          "removed": false
        }
      ],
      "logsBloom": "0x00000000000000008000000000000000000000000000000000000020000000000000000000000000000000000000000000000000000000000000000000400000000000000000000000000008000000000000000000000000000000000000000000000000020000000000000000000800008000000000000000000010000000000000000000000000000000000000080000000000000000000000000000000000000000000000000000000000000000000000000000000000000000000000000000000102000000000000000000000000000000000000000000000000000020000000000000000000000000000000000000000000000000000000000000000000",
      "type": "0x2",
      "transactionHash": "0x17e3ab0f5b406a4773b44ad8f3c3382734a0642dad075a17a3ad6196c26bdccb",
      "transactionIndex": "0x4",
      "blockHash": "0xace409bd293232dbfa47e4da441f6f28fb3b82e2742aa017c20b2d060cb80530",
      "blockNumber": "0x172d71a",
      "gasUsed": "0x8981",
      "effectiveGasPrice": "0x3b9aca01",
      "from": "0x3b4f0135465d444a5bd06ab90fc59b73916c85f5",
      "to": "0x0ca5da1ecb61774776403c9045dedf68464374ea",
      "contractAddress": null
    },
    {
      "status": "0x1",
      "cumulativeGasUsed": "0xc44f6",
      "logs": [
        {
          "address": "0x0ca5da1ecb61774776403c9045dedf68464374ea",
          "topics": [
            "0x8c5be1e5ebec7d5bd14f71427d1e84f3dd0314c0f7b2291e5b200ac8c7c3b925",
            "0x0000000000000000000000003b4f0135465d444a5bd06ab90fc59b73916c85f5",
            "0x0000000000000000000000005844cf8bbf41a2e25ed3f40ee96e64f31330ca3d"
          ],
          "data": "0x000000000000000000000000000000000000000000108b2a2c28029094000000",
          "blockHash": "0xace409bd293232dbfa47e4da441f6f28fb3b82e2742aa017c20b2d060cb80530",
          "blockNumber": "0x172d71a",
          "transactionHash": "0x6b891d18183404e1684eb58ac9cd2406c242a031c62294512823c6237b8a3d07",
          "transactionIndex": "0x6",
          "logIndex": "0x7",
          "removed": false
        }
      ],
      "logsBloom": "0x00000000000000008000000000000000000000000000000000000020000000000000000000000000000000000000000000000000000000000000000000600000000000000000000000000000000000000000000000000000000000000000000001000000000000000000000000000000008000000000000000000000000000000000000000000000000000000000080000000000000000000000000000000000020000000000000000000000000000000000000000000000000000000000000000000100000000000000000000000000000000000000000000000020080000000010000000000000000000000000000000000000000000000000000000000000",
      "type": "0x2",
      "transactionHash": "0x6b891d18183404e1684eb58ac9cd2406c242a031c62294512823c6237b8a3d07",
      "transactionIndex": "0x6",
      "blockHash": "0xace409bd293232dbfa47e4da441f6f28fb3b82e2742aa017c20b2d060cb80530",
      "blockNumber": "0x172d71a",
      "gasUsed": "0xba75",
      "effectiveGasPrice": "0x3b9aca01",
      "from": "0x3b4f0135465d444a5bd06ab90fc59b73916c85f5",
      "to": "0x0ca5da1ecb61774776403c9045dedf68464374ea",
      "contractAddress": null
    },
    {
      "status": "0x1",
      "cumulativeGasUsed": "0xd8404",
      "logs": [
        {
          "address": "0x0ca5da1ecb61774776403c9045dedf68464374ea",
          "topics": [
            "0xddf252ad1be2c89b69c2b068fc378daa952ba7f163c4a11628f55a4df523b3ef",
            "0x0000000000000000000000003b4f0135465d444a5bd06ab90fc59b73916c85f5",
            "0x0000000000000000000000005844cf8bbf41a2e25ed3f40ee96e64f31330ca3d"
          ],
          "data": "0x000000000000000000000000000000000000000000108b2a2c28029094000000",
          "blockHash": "0xace409bd293232dbfa47e4da441f6f28fb3b82e2742aa017c20b2d060cb80530",
          "blockNumber": "0x172d71a",
          "transactionHash": "0xb042a2e6d3772dd79e969005c64dc6a872407e8c71e44b673a2eb788b7d5470e",
          "transactionIndex": "0x7",
          "logIndex": "0x8",
          "removed": false
        },
        {
          "address": "0x5844cf8bbf41a2e25ed3f40ee96e64f31330ca3d",
          "topics": [
            "0x9d278c56ba6dc86a12eefe6b43112bd6e06648eb4ec0b950ee2d783d40e2acb4",
            "0x0000000000000000000000003b4f0135465d444a5bd06ab90fc59b73916c85f5"
          ],
          "data": "0x0000000000000000000000000ca5da1ecb61774776403c9045dedf68464374ea000000000000000000000000000000000000000000108b2a2c28029094000000",
          "blockHash": "0xace409bd293232dbfa47e4da441f6f28fb3b82e2742aa017c20b2d060cb80530",
          "blockNumber": "0x172d71a",
          "transactionHash": "0xb042a2e6d3772dd79e969005c64dc6a872407e8c71e44b673a2eb788b7d5470e",
          "transactionIndex": "0x7",
          "logIndex": "0x9",
          "removed": false
        }
      ],
      "logsBloom": "0x00000000000000008000000000000000000000000000002000000020000000000000000000000000000000000000000000000000000000000000000000400000000000000000000000000008000000000000000000010000000000000000000001000000000000000008000000000000008000000200000000000010000000000000000000000000000000000000080000000000000200000000000000000000000000000000000000000000000000000000000000000000000000000000000000000102000000000000000000000000000000000000000000000020080000000000000400000000000000000000000000000000000000000000000000000000",
      "type": "0x2",
      "transactionHash": "0xb042a2e6d3772dd79e969005c64dc6a872407e8c71e44b673a2eb788b7d5470e",
      "transactionIndex": "0x7",
      "blockHash": "0xace409bd293232dbfa47e4da441f6f28fb3b82e2742aa017c20b2d060cb80530",
      "blockNumber": "0x172d71a",
      "gasUsed": "0x13f0e",
      "effectiveGasPrice": "0x3b9aca01",
      "from": "0x3b4f0135465d444a5bd06ab90fc59b73916c85f5",
      "to": "0x5844cf8bbf41a2e25ed3f40ee96e64f31330ca3d",
      "contractAddress": null
    }
  ],
  "libraries": [],
  "pending": [],
  "returns": {},
  "timestamp": 1740981136,
  "chain": 57054,
  "commit": "f079722"
}