{
  "transactions": [
    {
      "hash": "0x7c9b45f4f09dd510651de26a14bf5af589b56603bbb9623393c5de8037036a26",
      "transactionType": "CREATE",
      "contractName": "TokenFactory",
      "contractAddress": "0xb3ad7f7409a49e9c1f041bd979578e11e3c3d1ce",
      "function": null,
      "arguments": null,
      "transaction": {
        "from": "0x3b4f0135465d444a5bd06ab90fc59b73916c85f5",
        "gas": "0x107fbe",
        "value": "0x0",
        "input": "0x60808060405234601557610e12908161001a8239f35b5f80fdfe60806040526004361015610011575f80fd5b5f3560e01c63edd8112314610024575f80fd5b346101365760a03660031901126101365760043567ffffffffffffffff81116101365761005590369060040161013a565b60243567ffffffffffffffff81116101365761007590369060040161013a565b90604435906064359060ff821682036101365760843592604051610bca8082019082821067ffffffffffffffff8311176101225782916100c09161021384398787868b8933956101c6565b03905ff09485156101175761010c7faf5156078ffc09d447c818754d2e4310cc3f95e36cb33f85723785b122371ed59360209760018060a01b03169687966040519586953394876101c6565b0390a2604051908152f35b6040513d5f823e3d90fd5b634e487b7160e01b5f52604160045260245ffd5b5f80fd5b81601f820112156101365780359067ffffffffffffffff82116101225760405192601f8301601f19908116603f0116840167ffffffffffffffff811185821017610122576040528284526020838301011161013657815f926020809301838601378301015290565b805180835260209291819084018484015e5f828201840152601f01601f1916010190565b9491936101f560a0956101e760ff949a99969a60c08a5260c08a01906101a2565b9088820360208a01526101a2565b9760408701521660608501526080840152600180831b031691015256fe60806040523461041f57610bca8038038061001981610423565b92833981019060c08183031261041f5780516001600160401b03811161041f5782610045918301610448565b602082015190926001600160401b03821161041f57610065918301610448565b60408201519160608101519160ff831680930361041f57608082015160a0909201516001600160a01b038116959086900361041f578051906001600160401b0382116103225760035490600182811c92168015610415575b60208310146103045781601f8493116103a7575b50602090601f8311600114610341575f92610336575b50508160011b915f199060031b1c1916176003555b8051906001600160401b0382116103225760045490600182811c92168015610318575b60208310146103045781601f849311610296575b50602090601f8311600114610230575f92610225575b50508160011b915f199060031b1c1916176004555b6005805460ff191683179055600780546001600160a01b03191685179055600655604d81116101fe57600a0a908181029181830414901517156101fe57811561021257600254908082018092116101fe5760207fddf252ad1be2c89b69c2b068fc378daa952ba7f163c4a11628f55a4df523b3ef915f9360025584845283825260408420818154019055604051908152a3604051610730908161049a8239f35b634e487b7160e01b5f52601160045260245ffd5b63ec442f0560e01b5f525f60045260245ffd5b015190505f80610149565b60045f9081528281209350601f198516905b81811061027e5750908460019594939210610266575b505050811b0160045561015e565b01515f1960f88460031b161c191690555f8080610258565b92936020600181928786015181550195019301610242565b60045f529091507f8a35acfbc15ff81a39ae7d344fd709f28e8600b4aa8c65c6b64bfe7fe36bd19b601f840160051c810191602085106102fa575b90601f859493920160051c01905b8181106102ec5750610133565b5f81558493506001016102df565b90915081906102d1565b634e487b7160e01b5f52602260045260245ffd5b91607f169161011f565b634e487b7160e01b5f52604160045260245ffd5b015190505f806100e7565b60035f9081528281209350601f198516905b81811061038f5750908460019594939210610377575b505050811b016003556100fc565b01515f1960f88460031b161c191690555f8080610369565b92936020600181928786015181550195019301610353565b60035f529091507fc2575a0e9e593c00f959f8c92f12db2869c3395a3b0502d05e2516446f71f85b601f840160051c8101916020851061040b575b90601f859493920160051c01905b8181106103fd57506100d1565b5f81558493506001016103f0565b90915081906103e2565b91607f16916100bd565b5f80fd5b6040519190601f01601f191682016001600160401b0381118382101761032257604052565b81601f8201121561041f578051906001600160401b03821161032257610477601f8301601f1916602001610423565b928284526020838301011161041f57815f9260208093018386015e830101529056fe6080806040526004361015610012575f80fd5b5f3560e01c90816306fdde031461052b57508063095ea7b3146104a957806318160ddd1461048c57806323b872dd146103ad578063313ce5671461038d57806340c10f19146102eb57806370a08231146102b45780638da5cb5b1461028c57806395d89b4114610171578063a035b1fe146100b6578063a9059cbb14610140578063d03a404514610127578063dd62ed3e146100d75763e1aa6036146100b6575f80fd5b346100d3575f3660031901126100d3576020600654604051908152f35b5f80fd5b346100d35760403660031901126100d3576100f0610624565b6100f861063a565b6001600160a01b039182165f908152600160209081526040808320949093168252928352819020549051908152f35b346100d35760203660031901126100d357600435600655005b346100d35760403660031901126100d35761016661015c610624565b6024359033610650565b602060405160018152f35b346100d3575f3660031901126100d3576040515f6004548060011c90600181168015610282575b60208310811461026e5782855290811561025257506001146101fd575b50819003601f01601f191681019067ffffffffffffffff8211818310176101e9576101e5829182604052826105fa565b0390f35b634e487b7160e01b5f52604160045260245ffd5b905060045f527f8a35acfbc15ff81a39ae7d344fd709f28e8600b4aa8c65c6b64bfe7fe36bd19b5f905b82821061023c575060209150820101826101b5565b6001816020925483858801015201910190610227565b90506020925060ff191682840152151560051b820101826101b5565b634e487b7160e01b5f52602260045260245ffd5b91607f1691610198565b346100d3575f3660031901126100d3576007546040516001600160a01b039091168152602090f35b346100d35760203660031901126100d3576001600160a01b036102d5610624565b165f525f602052602060405f2054604051908152f35b346100d35760403660031901126100d357610304610624565b6001600160a01b0316602435811561037a57600254908082018092116103665760207fddf252ad1be2c89b69c2b068fc378daa952ba7f163c4a11628f55a4df523b3ef915f9360025584845283825260408420818154019055604051908152a3005b634e487b7160e01b5f52601160045260245ffd5b63ec442f0560e01b5f525f60045260245ffd5b346100d3575f3660031901126100d357602060ff60055416604051908152f35b346100d35760603660031901126100d3576103c6610624565b6103ce61063a565b6001600160a01b0382165f818152600160209081526040808320338452909152902054909260443592915f19811061040c575b506101669350610650565b83811061047157841561045e57331561044b57610166945f52600160205260405f2060018060a01b0333165f526020528360405f209103905584610401565b634a1406b160e11b5f525f60045260245ffd5b63e602df0560e01b5f525f60045260245ffd5b8390637dc7a0d960e11b5f523360045260245260445260645ffd5b346100d3575f3660031901126100d3576020600254604051908152f35b346100d35760403660031901126100d3576104c2610624565b60243590331561045e576001600160a01b031690811561044b57335f52600160205260405f20825f526020528060405f20556040519081527f8c5be1e5ebec7d5bd14f71427d1e84f3dd0314c0f7b2291e5b200ac8c7c3b92560203392a3602060405160018152f35b346100d3575f3660031901126100d3575f6003548060011c906001811680156105f0575b60208310811461026e57828552908115610252575060011461059b5750819003601f01601f191681019067ffffffffffffffff8211818310176101e9576101e5829182604052826105fa565b905060035f527fc2575a0e9e593c00f959f8c92f12db2869c3395a3b0502d05e2516446f71f85b5f905b8282106105da575060209150820101826101b5565b60018160209254838588010152019101906105c5565b91607f169161054f565b602060409281835280519182918282860152018484015e5f828201840152601f01601f1916010190565b600435906001600160a01b03821682036100d357565b602435906001600160a01b03821682036100d357565b6001600160a01b03169081156106e7576001600160a01b031691821561037a57815f525f60205260405f20548181106106ce57817fddf252ad1be2c89b69c2b068fc378daa952ba7f163c4a11628f55a4df523b3ef92602092855f525f84520360405f2055845f525f825260405f20818154019055604051908152a3565b8263391434e360e21b5f5260045260245260445260645ffd5b634b637e8f60e11b5f525f60045260245ffdfea26469706673582212205c39712fbe8b8553b0861089959a3df72b5d186974f2b84d34b8ca4462e4c82964736f6c634300081c0033a2646970667358221220c5ef71a885d729a44d5d5f20ecdb1ef805c4b0b15d9138be0c689a5e2e6e43fc64736f6c634300081c0033",
        "nonce": "0xbb",
        "chainId": "0xdede"
      },
      "additionalContracts": [],
      "isFixedGasLimit": false
    },
    {
      "hash": "0xadc9b9e05cb74d70c89c57f86d528c748c3521bca1f90339f5be27e64b084c1c",
      "transactionType": "CREATE",
      "contractName": "Core",
      "contractAddress": "0xf44f2527d964ef4a8a38c0e676c05a1dc8574ffa",
      "function": null,
      "arguments": null,
      "transaction": {
        "from": "0x3b4f0135465d444a5bd06ab90fc59b73916c85f5",
        "gas": "0x94276",
        "value": "0x0",
        "input": "0x60808060405234601557610778908161001a8239f35b5f80fdfe60806040526004361015610011575f80fd5b5f3560e01c806356688700146104c0578063a201ccf6146103be578063a747b93b14610387578063b8c876b1146103875763df791e5014610050575f80fd5b34610383576060366003190112610383576100696105b2565b6024356001600160a01b038116919082900361038357604435906001600160a01b03168015158061037a575b1561033d5781156100a681156105c8565b815f525f60205260405f2054151580610327575b6100c3906106ac565b5f8281526020819052604080822054868352912054918115158061031e575b156102e6576103e58502908582046103e51417156102d2576103e890048281029281840414811517156102d2576101189161069f565b9081156102be570491821561026b57815f525f60205260405f2061013d82825461069f565b9055835f525f60205260405f206101558482546106f1565b90556040516323b872dd60e01b8152336004820152306024820152604481018290526020816064815f875af1801561024757610198915f91610252575b506106fe565b60405163a9059cbb60e01b815233600482015260248101849052936020856044815f855af1948515610247576020956101d7915f9161021a57506106fe565b6040519283528483015260408201528160608201527fcd3829a3813dc3cdd188fd3d01dcf3268c16be2fdd2dd21d0665418816e4606260803392a2604051908152f35b61023a9150873d8911610240575b6102328183610613565b810190610649565b5f610192565b503d610228565b6040513d5f823e3d90fd5b61023a915060203d602011610240576102328183610613565b60405162461bcd60e51b815260206004820152602560248201527f5377617020616d6f756e74206d7573742062652067726561746572207468616e604482015264207a65726f60d81b6064820152608490fd5b634e487b7160e01b5f52601260045260245ffd5b634e487b7160e01b5f52601160045260245ffd5b60405162461bcd60e51b815260206004820152601060248201526f496e76616c696420726573657276657360801b6044820152606490fd5b508215156100e2565b505f8481526020819052604090205415156100ba565b60405162461bcd60e51b8152602060048201526015602482015274496e76616c696420746f6b656e206164647265737360581b6044820152606490fd5b50821515610095565b5f80fd5b34610383576020366003190112610383576001600160a01b036103a86105b2565b165f525f602052602060405f2054604051908152f35b34610383576040366003190112610383576103d76105b2565b60243560018060a01b03821690815f525f6020526103fb8160405f205410156106ac565b815f525f60205260405f206104118282546106f1565b905560405163a9059cbb60e01b81523360048201526024810182905291602090839060449082905f905af19081156102475761047961049c927f983e86fda8e7b1e2eae380201830eaf1cac55772e8e39583da349865e8178863945f916104a1575b50610661565b604080516001600160a01b03909516855260208501919091523393918291820190565b0390a2005b6104ba915060203d602011610240576102328183610613565b86610473565b34610383576040366003190112610383576104d96105b2565b6024356104e78115156105c8565b6040516323b872dd60e01b815233600482015230602482015260448101829052906001600160a01b038316906020836064815f865af19182156102475761055961049c937f9d278c56ba6dc86a12eefe6b43112bd6e06648eb4ec0b950ee2d783d40e2acb4955f916105935750610661565b5f525f60205260405f2061056e82825461069f565b9055604080516001600160a01b03909516855260208501919091523393918291820190565b6105ac915060203d602011610240576102328183610613565b87610473565b600435906001600160a01b038216820361038357565b156105cf57565b606460405162461bcd60e51b815260206004820152602060248201527f416d6f756e74206d7573742062652067726561746572207468616e207a65726f6044820152fd5b90601f8019910116810190811067ffffffffffffffff82111761063557604052565b634e487b7160e01b5f52604160045260245ffd5b90816020910312610383575180151581036103835790565b1561066857565b60405162461bcd60e51b815260206004820152600f60248201526e151c985b9cd9995c8819985a5b1959608a1b6044820152606490fd5b919082018092116102d257565b156106b357565b60405162461bcd60e51b8152602060048201526016602482015275496e73756666696369656e74206c697175696469747960501b6044820152606490fd5b919082039182116102d257565b1561070557565b60405162461bcd60e51b8152602060048201526015602482015274151bdad95b881d1c985b9cd9995c8819985a5b1959605a1b6044820152606490fdfea264697066735822122024398d0caa7b1af3e737a3e71b2768b14a9c86ffb9a37a7d0849ffc11cde81e564736f6c634300081c0033",
        "nonce": "0xbc",
        "chainId": "0xdede"
      },
      "additionalContracts": [],
      "isFixedGasLimit": false
    },
    {
      "hash": "0x90dee3070c3e65fa8ce90d6f8a97e9976a30a366ac25bae8f15c02016c0b281e",
      "transactionType": "CALL",
      "contractName": "TokenFactory",
      "contractAddress": "0xb3ad7f7409a49e9c1f041bd979578e11e3c3d1ce",
      "function": "createToken(string,string,uint256,uint8,uint256)",
      "arguments": [
        "SONIC",
        "S",
        "1000000000000000000000000",
        "18",
        "1000000000000000000"
      ],
      "transaction": {
        "from": "0x3b4f0135465d444a5bd06ab90fc59b73916c85f5",
        "to": "0xb3ad7f7409a49e9c1f041bd979578e11e3c3d1ce",
        "gas": "0xd1e2f",
        "value": "0x0",
        "input": "0xedd8112300000000000000000000000000000000000000000000000000000000000000a000000000000000000000000000000000000000000000000000000000000000e000000000000000000000000000000000000000000000d3c21bcecceda100000000000000000000000000000000000000000000000000000000000000000000120000000000000000000000000000000000000000000000000de0b6b3a76400000000000000000000000000000000000000000000000000000000000000000005534f4e494300000000000000000000000000000000000000000000000000000000000000000000000000000000000000000000000000000000000000000000015300000000000000000000000000000000000000000000000000000000000000",
        "nonce": "0xbd",
        "chainId": "0xdede"
      },
      "additionalContracts": [
        {
          "transactionType": "CREATE",
          "address": "0xb8aead172f82b4bcc5f001df218c3f6f84527359",
          "initCode": "0x60806040523461041f57610bca8038038061001981610423565b92833981019060c08183031261041f5780516001600160401b03811161041f5782610045918301610448565b602082015190926001600160401b03821161041f57610065918301610448565b60408201519160608101519160ff831680930361041f57608082015160a0909201516001600160a01b038116959086900361041f578051906001600160401b0382116103225760035490600182811c92168015610415575b60208310146103045781601f8493116103a7575b50602090601f8311600114610341575f92610336575b50508160011b915f199060031b1c1916176003555b8051906001600160401b0382116103225760045490600182811c92168015610318575b60208310146103045781601f849311610296575b50602090601f8311600114610230575f92610225575b50508160011b915f199060031b1c1916176004555b6005805460ff191683179055600780546001600160a01b03191685179055600655604d81116101fe57600a0a908181029181830414901517156101fe57811561021257600254908082018092116101fe5760207fddf252ad1be2c89b69c2b068fc378daa952ba7f163c4a11628f55a4df523b3ef915f9360025584845283825260408420818154019055604051908152a3604051610730908161049a8239f35b634e487b7160e01b5f52601160045260245ffd5b63ec442f0560e01b5f525f60045260245ffd5b015190505f80610149565b60045f9081528281209350601f198516905b81811061027e5750908460019594939210610266575b505050811b0160045561015e565b01515f1960f88460031b161c191690555f8080610258565b92936020600181928786015181550195019301610242565b60045f529091507f8a35acfbc15ff81a39ae7d344fd709f28e8600b4aa8c65c6b64bfe7fe36bd19b601f840160051c810191602085106102fa575b90601f859493920160051c01905b8181106102ec5750610133565b5f81558493506001016102df565b90915081906102d1565b634e487b7160e01b5f52602260045260245ffd5b91607f169161011f565b634e487b7160e01b5f52604160045260245ffd5b015190505f806100e7565b60035f9081528281209350601f198516905b81811061038f5750908460019594939210610377575b505050811b016003556100fc565b01515f1960f88460031b161c191690555f8080610369565b92936020600181928786015181550195019301610353565b60035f529091507fc2575a0e9e593c00f959f8c92f12db2869c3395a3b0502d05e2516446f71f85b601f840160051c8101916020851061040b575b90601f859493920160051c01905b8181106103fd57506100d1565b5f81558493506001016103f0565b90915081906103e2565b91607f16916100bd565b5f80fd5b6040519190601f01601f191682016001600160401b0381118382101761032257604052565b81601f8201121561041f578051906001600160401b03821161032257610477601f8301601f1916602001610423565b928284526020838301011161041f57815f9260208093018386015e830101529056fe6080806040526004361015610012575f80fd5b5f3560e01c90816306fdde031461052b57508063095ea7b3146104a957806318160ddd1461048c57806323b872dd146103ad578063313ce5671461038d57806340c10f19146102eb57806370a08231146102b45780638da5cb5b1461028c57806395d89b4114610171578063a035b1fe146100b6578063a9059cbb14610140578063d03a404514610127578063dd62ed3e146100d75763e1aa6036146100b6575f80fd5b346100d3575f3660031901126100d3576020600654604051908152f35b5f80fd5b346100d35760403660031901126100d3576100f0610624565b6100f861063a565b6001600160a01b039182165f908152600160209081526040808320949093168252928352819020549051908152f35b346100d35760203660031901126100d357600435600655005b346100d35760403660031901126100d35761016661015c610624565b6024359033610650565b602060405160018152f35b346100d3575f3660031901126100d3576040515f6004548060011c90600181168015610282575b60208310811461026e5782855290811561025257506001146101fd575b50819003601f01601f191681019067ffffffffffffffff8211818310176101e9576101e5829182604052826105fa565b0390f35b634e487b7160e01b5f52604160045260245ffd5b905060045f527f8a35acfbc15ff81a39ae7d344fd709f28e8600b4aa8c65c6b64bfe7fe36bd19b5f905b82821061023c575060209150820101826101b5565b6001816020925483858801015201910190610227565b90506020925060ff191682840152151560051b820101826101b5565b634e487b7160e01b5f52602260045260245ffd5b91607f1691610198565b346100d3575f3660031901126100d3576007546040516001600160a01b039091168152602090f35b346100d35760203660031901126100d3576001600160a01b036102d5610624565b165f525f602052602060405f2054604051908152f35b346100d35760403660031901126100d357610304610624565b6001600160a01b0316602435811561037a57600254908082018092116103665760207fddf252ad1be2c89b69c2b068fc378daa952ba7f163c4a11628f55a4df523b3ef915f9360025584845283825260408420818154019055604051908152a3005b634e487b7160e01b5f52601160045260245ffd5b63ec442f0560e01b5f525f60045260245ffd5b346100d3575f3660031901126100d357602060ff60055416604051908152f35b346100d35760603660031901126100d3576103c6610624565b6103ce61063a565b6001600160a01b0382165f818152600160209081526040808320338452909152902054909260443592915f19811061040c575b506101669350610650565b83811061047157841561045e57331561044b57610166945f52600160205260405f2060018060a01b0333165f526020528360405f209103905584610401565b634a1406b160e11b5f525f60045260245ffd5b63e602df0560e01b5f525f60045260245ffd5b8390637dc7a0d960e11b5f523360045260245260445260645ffd5b346100d3575f3660031901126100d3576020600254604051908152f35b346100d35760403660031901126100d3576104c2610624565b60243590331561045e576001600160a01b031690811561044b57335f52600160205260405f20825f526020528060405f20556040519081527f8c5be1e5ebec7d5bd14f71427d1e84f3dd0314c0f7b2291e5b200ac8c7c3b92560203392a3602060405160018152f35b346100d3575f3660031901126100d3575f6003548060011c906001811680156105f0575b60208310811461026e57828552908115610252575060011461059b5750819003601f01601f191681019067ffffffffffffffff8211818310176101e9576101e5829182604052826105fa565b905060035f527fc2575a0e9e593c00f959f8c92f12db2869c3395a3b0502d05e2516446f71f85b5f905b8282106105da575060209150820101826101b5565b60018160209254838588010152019101906105c5565b91607f169161054f565b602060409281835280519182918282860152018484015e5f828201840152601f01601f1916010190565b600435906001600160a01b03821682036100d357565b602435906001600160a01b03821682036100d357565b6001600160a01b03169081156106e7576001600160a01b031691821561037a57815f525f60205260405f20548181106106ce57817fddf252ad1be2c89b69c2b068fc378daa952ba7f163c4a11628f55a4df523b3ef92602092855f525f84520360405f2055845f525f825260405f20818154019055604051908152a3565b8263391434e360e21b5f5260045260245260445260645ffd5b634b637e8f60e11b5f525f60045260245ffdfea26469706673582212205c39712fbe8b8553b0861089959a3df72b5d186974f2b84d34b8ca4462e4c82964736f6c634300081c003300000000000000000000000000000000000000000000000000000000000000c0000000000000000000000000000000000000000000000000000000000000010000000000000000000000000000000000000000000000d3c21bcecceda100000000000000000000000000000000000000000000000000000000000000000000120000000000000000000000000000000000000000000000000de0b6b3a76400000000000000000000000000003b4f0135465d444a5bd06ab90fc59b73916c85f50000000000000000000000000000000000000000000000000000000000000005534f4e494300000000000000000000000000000000000000000000000000000000000000000000000000000000000000000000000000000000000000000000015300000000000000000000000000000000000000000000000000000000000000"
        }
      ],
      "isFixedGasLimit": false
    },
    {
      "hash": "0xdac46966ce6bb8b71c40e88372beadd1615551e18c92335f58cacfdb7d1a4df5",
      "transactionType": "CALL",
      "contractName": "MockToken",
      "contractAddress": "0xb8aead172f82b4bcc5f001df218c3f6f84527359",
      "function": "approve(address,uint256)",
      "arguments": [
        "0xf44f2527d964EF4a8a38c0E676c05a1dc8574fFa",
        "1000000000000000000000000"
      ],
      "transaction": {
        "from": "0x3b4f0135465d444a5bd06ab90fc59b73916c85f5",
        "to": "0xb8aead172f82b4bcc5f001df218c3f6f84527359",
        "gas": "0x1069d",
        "value": "0x0",
        "input": "0x095ea7b3000000000000000000000000f44f2527d964ef4a8a38c0e676c05a1dc8574ffa00000000000000000000000000000000000000000000d3c21bcecceda1000000",
        "nonce": "0xbe",
        "chainId": "0xdede"
      },
      "additionalContracts": [],
      "isFixedGasLimit": false
    },
    {
      "hash": "0x648126c3224de62b9fd2180a737020b2aadb66ddf0d26e565d960c4de86e2d09",
      "transactionType": "CALL",
      "contractName": "Core",
      "contractAddress": "0xf44f2527d964ef4a8a38c0e676c05a1dc8574ffa",
      "function": "addLiquidity(address,uint256)",
      "arguments": [
        "0xB8AEAD172f82B4bCC5F001Df218C3f6F84527359",
        "1000000000000000000000000"
      ],
      "transaction": {
        "from": "0x3b4f0135465d444a5bd06ab90fc59b73916c85f5",
        "to": "0xf44f2527d964ef4a8a38c0e676c05a1dc8574ffa",
        "gas": "0x1c40e",
        "value": "0x0",
        "input": "0x56688700000000000000000000000000b8aead172f82b4bcc5f001df218c3f6f8452735900000000000000000000000000000000000000000000d3c21bcecceda1000000",
        "nonce": "0xbf",
        "chainId": "0xdede"
      },
      "additionalContracts": [],
      "isFixedGasLimit": false
    },
    {
      "hash": "0xecfbfdb7fe63cd143decb963646b3756e13e4f69c454efa29125aa12ad0ed5dc",
      "transactionType": "CALL",
      "contractName": "TokenFactory",
      "contractAddress": "0xb3ad7f7409a49e9c1f041bd979578e11e3c3d1ce",
      "function": "createToken(string,string,uint256,uint8,uint256)",
      "arguments": [
        "Ethereum",
        "ETH",
        "1000000000000000000000000",
        "18",
        "2719000000000000000000"
      ],
      "transaction": {
        "from": "0x3b4f0135465d444a5bd06ab90fc59b73916c85f5",
        "to": "0xb3ad7f7409a49e9c1f041bd979578e11e3c3d1ce",
        "gas": "0xd1e98",
        "value": "0x0",
        "input": "0xedd8112300000000000000000000000000000000000000000000000000000000000000a000000000000000000000000000000000000000000000000000000000000000e000000000000000000000000000000000000000000000d3c21bcecceda1000000000000000000000000000000000000000000000000000000000000000000001200000000000000000000000000000000000000000000009365b47e1edf1c00000000000000000000000000000000000000000000000000000000000000000008457468657265756d00000000000000000000000000000000000000000000000000000000000000000000000000000000000000000000000000000000000000034554480000000000000000000000000000000000000000000000000000000000",
        "nonce": "0xc0",
        "chainId": "0xdede"
      },
      "additionalContracts": [
        {
          "transactionType": "CREATE",
          "address": "0x09c0ce218899706430c0eb0e0672d66fc880b3d6",
          "initCode": "0x60806040523461041f57610bca8038038061001981610423565b92833981019060c08183031261041f5780516001600160401b03811161041f5782610045918301610448565b602082015190926001600160401b03821161041f57610065918301610448565b60408201519160608101519160ff831680930361041f57608082015160a0909201516001600160a01b038116959086900361041f578051906001600160401b0382116103225760035490600182811c92168015610415575b60208310146103045781601f8493116103a7575b50602090601f8311600114610341575f92610336575b50508160011b915f199060031b1c1916176003555b8051906001600160401b0382116103225760045490600182811c92168015610318575b60208310146103045781601f849311610296575b50602090601f8311600114610230575f92610225575b50508160011b915f199060031b1c1916176004555b6005805460ff191683179055600780546001600160a01b03191685179055600655604d81116101fe57600a0a908181029181830414901517156101fe57811561021257600254908082018092116101fe5760207fddf252ad1be2c89b69c2b068fc378daa952ba7f163c4a11628f55a4df523b3ef915f9360025584845283825260408420818154019055604051908152a3604051610730908161049a8239f35b634e487b7160e01b5f52601160045260245ffd5b63ec442f0560e01b5f525f60045260245ffd5b015190505f80610149565b60045f9081528281209350601f198516905b81811061027e5750908460019594939210610266575b505050811b0160045561015e565b01515f1960f88460031b161c191690555f8080610258565b92936020600181928786015181550195019301610242565b60045f529091507f8a35acfbc15ff81a39ae7d344fd709f28e8600b4aa8c65c6b64bfe7fe36bd19b601f840160051c810191602085106102fa575b90601f859493920160051c01905b8181106102ec5750610133565b5f81558493506001016102df565b90915081906102d1565b634e487b7160e01b5f52602260045260245ffd5b91607f169161011f565b634e487b7160e01b5f52604160045260245ffd5b015190505f806100e7565b60035f9081528281209350601f198516905b81811061038f5750908460019594939210610377575b505050811b016003556100fc565b01515f1960f88460031b161c191690555f8080610369565b92936020600181928786015181550195019301610353565b60035f529091507fc2575a0e9e593c00f959f8c92f12db2869c3395a3b0502d05e2516446f71f85b601f840160051c8101916020851061040b575b90601f859493920160051c01905b8181106103fd57506100d1565b5f81558493506001016103f0565b90915081906103e2565b91607f16916100bd565b5f80fd5b6040519190601f01601f191682016001600160401b0381118382101761032257604052565b81601f8201121561041f578051906001600160401b03821161032257610477601f8301601f1916602001610423565b928284526020838301011161041f57815f9260208093018386015e830101529056fe6080806040526004361015610012575f80fd5b5f3560e01c90816306fdde031461052b57508063095ea7b3146104a957806318160ddd1461048c57806323b872dd146103ad578063313ce5671461038d57806340c10f19146102eb57806370a08231146102b45780638da5cb5b1461028c57806395d89b4114610171578063a035b1fe146100b6578063a9059cbb14610140578063d03a404514610127578063dd62ed3e146100d75763e1aa6036146100b6575f80fd5b346100d3575f3660031901126100d3576020600654604051908152f35b5f80fd5b346100d35760403660031901126100d3576100f0610624565b6100f861063a565b6001600160a01b039182165f908152600160209081526040808320949093168252928352819020549051908152f35b346100d35760203660031901126100d357600435600655005b346100d35760403660031901126100d35761016661015c610624565b6024359033610650565b602060405160018152f35b346100d3575f3660031901126100d3576040515f6004548060011c90600181168015610282575b60208310811461026e5782855290811561025257506001146101fd575b50819003601f01601f191681019067ffffffffffffffff8211818310176101e9576101e5829182604052826105fa565b0390f35b634e487b7160e01b5f52604160045260245ffd5b905060045f527f8a35acfbc15ff81a39ae7d344fd709f28e8600b4aa8c65c6b64bfe7fe36bd19b5f905b82821061023c575060209150820101826101b5565b6001816020925483858801015201910190610227565b90506020925060ff191682840152151560051b820101826101b5565b634e487b7160e01b5f52602260045260245ffd5b91607f1691610198565b346100d3575f3660031901126100d3576007546040516001600160a01b039091168152602090f35b346100d35760203660031901126100d3576001600160a01b036102d5610624565b165f525f602052602060405f2054604051908152f35b346100d35760403660031901126100d357610304610624565b6001600160a01b0316602435811561037a57600254908082018092116103665760207fddf252ad1be2c89b69c2b068fc378daa952ba7f163c4a11628f55a4df523b3ef915f9360025584845283825260408420818154019055604051908152a3005b634e487b7160e01b5f52601160045260245ffd5b63ec442f0560e01b5f525f60045260245ffd5b346100d3575f3660031901126100d357602060ff60055416604051908152f35b346100d35760603660031901126100d3576103c6610624565b6103ce61063a565b6001600160a01b0382165f818152600160209081526040808320338452909152902054909260443592915f19811061040c575b506101669350610650565b83811061047157841561045e57331561044b57610166945f52600160205260405f2060018060a01b0333165f526020528360405f209103905584610401565b634a1406b160e11b5f525f60045260245ffd5b63e602df0560e01b5f525f60045260245ffd5b8390637dc7a0d960e11b5f523360045260245260445260645ffd5b346100d3575f3660031901126100d3576020600254604051908152f35b346100d35760403660031901126100d3576104c2610624565b60243590331561045e576001600160a01b031690811561044b57335f52600160205260405f20825f526020528060405f20556040519081527f8c5be1e5ebec7d5bd14f71427d1e84f3dd0314c0f7b2291e5b200ac8c7c3b92560203392a3602060405160018152f35b346100d3575f3660031901126100d3575f6003548060011c906001811680156105f0575b60208310811461026e57828552908115610252575060011461059b5750819003601f01601f191681019067ffffffffffffffff8211818310176101e9576101e5829182604052826105fa565b905060035f527fc2575a0e9e593c00f959f8c92f12db2869c3395a3b0502d05e2516446f71f85b5f905b8282106105da575060209150820101826101b5565b60018160209254838588010152019101906105c5565b91607f169161054f565b602060409281835280519182918282860152018484015e5f828201840152601f01601f1916010190565b600435906001600160a01b03821682036100d357565b602435906001600160a01b03821682036100d357565b6001600160a01b03169081156106e7576001600160a01b031691821561037a57815f525f60205260405f20548181106106ce57817fddf252ad1be2c89b69c2b068fc378daa952ba7f163c4a11628f55a4df523b3ef92602092855f525f84520360405f2055845f525f825260405f20818154019055604051908152a3565b8263391434e360e21b5f5260045260245260445260645ffd5b634b637e8f60e11b5f525f60045260245ffdfea26469706673582212205c39712fbe8b8553b0861089959a3df72b5d186974f2b84d34b8ca4462e4c82964736f6c634300081c003300000000000000000000000000000000000000000000000000000000000000c0000000000000000000000000000000000000000000000000000000000000010000000000000000000000000000000000000000000000d3c21bcecceda1000000000000000000000000000000000000000000000000000000000000000000001200000000000000000000000000000000000000000000009365b47e1edf1c00000000000000000000000000003b4f0135465d444a5bd06ab90fc59b73916c85f50000000000000000000000000000000000000000000000000000000000000008457468657265756d00000000000000000000000000000000000000000000000000000000000000000000000000000000000000000000000000000000000000034554480000000000000000000000000000000000000000000000000000000000"
        }
      ],
      "isFixedGasLimit": false
    },
    {
      "hash": "0xe4b6d40fb3d3b589b563e63ee3e2c44d20120a50bea10f9d4a06dca42385ff7f",
      "transactionType": "CALL",
      "contractName": "MockToken",
      "contractAddress": "0x09c0ce218899706430c0eb0e0672d66fc880b3d6",
      "function": "approve(address,uint256)",
      "arguments": [
        "0xf44f2527d964EF4a8a38c0E676c05a1dc8574fFa",
        "367782272894446487679"
      ],
      "transaction": {
        "from": "0x3b4f0135465d444a5bd06ab90fc59b73916c85f5",
        "to": "0x09c0ce218899706430c0eb0e0672d66fc880b3d6",
        "gas": "0x106c0",
        "value": "0x0",
        "input": "0x095ea7b3000000000000000000000000f44f2527d964ef4a8a38c0e676c05a1dc8574ffa000000000000000000000000000000000000000000000013f0011c9a7f42487f",
        "nonce": "0xc1",
        "chainId": "0xdede"
      },
      "additionalContracts": [],
      "isFixedGasLimit": false
    },
    {
      "hash": "0x3813e542a79656c2c7f7f6d7803158f75e60d6a0b60accf4cbe994209f0a5198",
      "transactionType": "CALL",
      "contractName": "Core",
      "contractAddress": "0xf44f2527d964ef4a8a38c0e676c05a1dc8574ffa",
      "function": "addLiquidity(address,uint256)",
      "arguments": [
        "0x09C0Ce218899706430C0eB0E0672D66Fc880b3d6",
        "367782272894446487679"
      ],
      "transaction": {
        "from": "0x3b4f0135465d444a5bd06ab90fc59b73916c85f5",
        "to": "0xf44f2527d964ef4a8a38c0e676c05a1dc8574ffa",
        "gas": "0x1c431",
        "value": "0x0",
        "input": "0x5668870000000000000000000000000009c0ce218899706430c0eb0e0672d66fc880b3d6000000000000000000000000000000000000000000000013f0011c9a7f42487f",
        "nonce": "0xc2",
        "chainId": "0xdede"
      },
      "additionalContracts": [],
      "isFixedGasLimit": false
    },
    {
      "hash": "0xaf9f3ce9cbb965b75bf671da01332778908aa1193c7acfdd2b1c17fb87dc0337",
      "transactionType": "CALL",
      "contractName": "TokenFactory",
      "contractAddress": "0xb3ad7f7409a49e9c1f041bd979578e11e3c3d1ce",
      "function": "createToken(string,string,uint256,uint8,uint256)",
      "arguments": [
        "Bitcoin",
        "BTC",
        "1000000000000000000000000",
        "18",
        "65300000000000000000000"
      ],
      "transaction": {
        "from": "0x3b4f0135465d444a5bd06ab90fc59b73916c85f5",
        "to": "0xb3ad7f7409a49e9c1f041bd979578e11e3c3d1ce",
        "gas": "0xd1e98",
        "value": "0x0",
        "input": "0xedd8112300000000000000000000000000000000000000000000000000000000000000a000000000000000000000000000000000000000000000000000000000000000e000000000000000000000000000000000000000000000d3c21bcecceda10000000000000000000000000000000000000000000000000000000000000000000012000000000000000000000000000000000000000000000dd3eb8b39c5afd000000000000000000000000000000000000000000000000000000000000000000007426974636f696e0000000000000000000000000000000000000000000000000000000000000000000000000000000000000000000000000000000000000000034254430000000000000000000000000000000000000000000000000000000000",
        "nonce": "0xc3",
        "chainId": "0xdede"
      },
      "additionalContracts": [
        {
          "transactionType": "CREATE",
          "address": "0x5af60e853cf5f061ad2dbee25dfe64f277dbec01",
          "initCode": "0x60806040523461041f57610bca8038038061001981610423565b92833981019060c08183031261041f5780516001600160401b03811161041f5782610045918301610448565b602082015190926001600160401b03821161041f57610065918301610448565b60408201519160608101519160ff831680930361041f57608082015160a0909201516001600160a01b038116959086900361041f578051906001600160401b0382116103225760035490600182811c92168015610415575b60208310146103045781601f8493116103a7575b50602090601f8311600114610341575f92610336575b50508160011b915f199060031b1c1916176003555b8051906001600160401b0382116103225760045490600182811c92168015610318575b60208310146103045781601f849311610296575b50602090601f8311600114610230575f92610225575b50508160011b915f199060031b1c1916176004555b6005805460ff191683179055600780546001600160a01b03191685179055600655604d81116101fe57600a0a908181029181830414901517156101fe57811561021257600254908082018092116101fe5760207fddf252ad1be2c89b69c2b068fc378daa952ba7f163c4a11628f55a4df523b3ef915f9360025584845283825260408420818154019055604051908152a3604051610730908161049a8239f35b634e487b7160e01b5f52601160045260245ffd5b63ec442f0560e01b5f525f60045260245ffd5b015190505f80610149565b60045f9081528281209350601f198516905b81811061027e5750908460019594939210610266575b505050811b0160045561015e565b01515f1960f88460031b161c191690555f8080610258565b92936020600181928786015181550195019301610242565b60045f529091507f8a35acfbc15ff81a39ae7d344fd709f28e8600b4aa8c65c6b64bfe7fe36bd19b601f840160051c810191602085106102fa575b90601f859493920160051c01905b8181106102ec5750610133565b5f81558493506001016102df565b90915081906102d1565b634e487b7160e01b5f52602260045260245ffd5b91607f169161011f565b634e487b7160e01b5f52604160045260245ffd5b015190505f806100e7565b60035f9081528281209350601f198516905b81811061038f5750908460019594939210610377575b505050811b016003556100fc565b01515f1960f88460031b161c191690555f8080610369565b92936020600181928786015181550195019301610353565b60035f529091507fc2575a0e9e593c00f959f8c92f12db2869c3395a3b0502d05e2516446f71f85b601f840160051c8101916020851061040b575b90601f859493920160051c01905b8181106103fd57506100d1565b5f81558493506001016103f0565b90915081906103e2565b91607f16916100bd565b5f80fd5b6040519190601f01601f191682016001600160401b0381118382101761032257604052565b81601f8201121561041f578051906001600160401b03821161032257610477601f8301601f1916602001610423565b928284526020838301011161041f57815f9260208093018386015e830101529056fe6080806040526004361015610012575f80fd5b5f3560e01c90816306fdde031461052b57508063095ea7b3146104a957806318160ddd1461048c57806323b872dd146103ad578063313ce5671461038d57806340c10f19146102eb57806370a08231146102b45780638da5cb5b1461028c57806395d89b4114610171578063a035b1fe146100b6578063a9059cbb14610140578063d03a404514610127578063dd62ed3e146100d75763e1aa6036146100b6575f80fd5b346100d3575f3660031901126100d3576020600654604051908152f35b5f80fd5b346100d35760403660031901126100d3576100f0610624565b6100f861063a565b6001600160a01b039182165f908152600160209081526040808320949093168252928352819020549051908152f35b346100d35760203660031901126100d357600435600655005b346100d35760403660031901126100d35761016661015c610624565b6024359033610650565b602060405160018152f35b346100d3575f3660031901126100d3576040515f6004548060011c90600181168015610282575b60208310811461026e5782855290811561025257506001146101fd575b50819003601f01601f191681019067ffffffffffffffff8211818310176101e9576101e5829182604052826105fa565b0390f35b634e487b7160e01b5f52604160045260245ffd5b905060045f527f8a35acfbc15ff81a39ae7d344fd709f28e8600b4aa8c65c6b64bfe7fe36bd19b5f905b82821061023c575060209150820101826101b5565b6001816020925483858801015201910190610227565b90506020925060ff191682840152151560051b820101826101b5565b634e487b7160e01b5f52602260045260245ffd5b91607f1691610198565b346100d3575f3660031901126100d3576007546040516001600160a01b039091168152602090f35b346100d35760203660031901126100d3576001600160a01b036102d5610624565b165f525f602052602060405f2054604051908152f35b346100d35760403660031901126100d357610304610624565b6001600160a01b0316602435811561037a57600254908082018092116103665760207fddf252ad1be2c89b69c2b068fc378daa952ba7f163c4a11628f55a4df523b3ef915f9360025584845283825260408420818154019055604051908152a3005b634e487b7160e01b5f52601160045260245ffd5b63ec442f0560e01b5f525f60045260245ffd5b346100d3575f3660031901126100d357602060ff60055416604051908152f35b346100d35760603660031901126100d3576103c6610624565b6103ce61063a565b6001600160a01b0382165f818152600160209081526040808320338452909152902054909260443592915f19811061040c575b506101669350610650565b83811061047157841561045e57331561044b57610166945f52600160205260405f2060018060a01b0333165f526020528360405f209103905584610401565b634a1406b160e11b5f525f60045260245ffd5b63e602df0560e01b5f525f60045260245ffd5b8390637dc7a0d960e11b5f523360045260245260445260645ffd5b346100d3575f3660031901126100d3576020600254604051908152f35b346100d35760403660031901126100d3576104c2610624565b60243590331561045e576001600160a01b031690811561044b57335f52600160205260405f20825f526020528060405f20556040519081527f8c5be1e5ebec7d5bd14f71427d1e84f3dd0314c0f7b2291e5b200ac8c7c3b92560203392a3602060405160018152f35b346100d3575f3660031901126100d3575f6003548060011c906001811680156105f0575b60208310811461026e57828552908115610252575060011461059b5750819003601f01601f191681019067ffffffffffffffff8211818310176101e9576101e5829182604052826105fa565b905060035f527fc2575a0e9e593c00f959f8c92f12db2869c3395a3b0502d05e2516446f71f85b5f905b8282106105da575060209150820101826101b5565b60018160209254838588010152019101906105c5565b91607f169161054f565b602060409281835280519182918282860152018484015e5f828201840152601f01601f1916010190565b600435906001600160a01b03821682036100d357565b602435906001600160a01b03821682036100d357565b6001600160a01b03169081156106e7576001600160a01b031691821561037a57815f525f60205260405f20548181106106ce57817fddf252ad1be2c89b69c2b068fc378daa952ba7f163c4a11628f55a4df523b3ef92602092855f525f84520360405f2055845f525f825260405f20818154019055604051908152a3565b8263391434e360e21b5f5260045260245260445260645ffd5b634b637e8f60e11b5f525f60045260245ffdfea26469706673582212205c39712fbe8b8553b0861089959a3df72b5d186974f2b84d34b8ca4462e4c82964736f6c634300081c003300000000000000000000000000000000000000000000000000000000000000c0000000000000000000000000000000000000000000000000000000000000010000000000000000000000000000000000000000000000d3c21bcecceda10000000000000000000000000000000000000000000000000000000000000000000012000000000000000000000000000000000000000000000dd3eb8b39c5afd000000000000000000000000000003b4f0135465d444a5bd06ab90fc59b73916c85f50000000000000000000000000000000000000000000000000000000000000007426974636f696e0000000000000000000000000000000000000000000000000000000000000000000000000000000000000000000000000000000000000000034254430000000000000000000000000000000000000000000000000000000000"
        }
      ],
      "isFixedGasLimit": false
    },
    {
      "hash": "0xd4c63c3a5064945db29bbd810a850d90bd9232099e44b88a8d2ffe6fb04995aa",
      "transactionType": "CALL",
      "contractName": "MockToken",
      "contractAddress": "0x5af60e853cf5f061ad2dbee25dfe64f277dbec01",
      "function": "approve(address,uint256)",
      "arguments": [
        "0xf44f2527d964EF4a8a38c0E676c05a1dc8574fFa",
        "15313935681470137825"
      ],
      "transaction": {
        "from": "0x3b4f0135465d444a5bd06ab90fc59b73916c85f5",
        "to": "0x5af60e853cf5f061ad2dbee25dfe64f277dbec01",
        "gas": "0xf816",
        "value": "0x0",
        "input": "0x095ea7b3000000000000000000000000f44f2527d964ef4a8a38c0e676c05a1dc8574ffa000000000000000000000000000000000000000000000000d486075d973505e1",
        "nonce": "0xc4",
        "chainId": "0xdede"
      },
      "additionalContracts": [],
      "isFixedGasLimit": false
    },
    {
      "hash": "0xd45ae10865b147a16d8ed9e81f61ae82bbe8dca7bb0e6fab01a09d0960a0f3c4",
      "transactionType": "CALL",
      "contractName": "Core",
      "contractAddress": "0xf44f2527d964ef4a8a38c0e676c05a1dc8574ffa",
      "function": "addLiquidity(address,uint256)",
      "arguments": [
        "0x5af60e853CF5f061AD2dBee25dFE64F277DBEC01",
        "15313935681470137825"
      ],
      "transaction": {
        "from": "0x3b4f0135465d444a5bd06ab90fc59b73916c85f5",
        "to": "0xf44f2527d964ef4a8a38c0e676c05a1dc8574ffa",
        "gas": "0x1ab01",
        "value": "0x0",
        "input": "0x566887000000000000000000000000005af60e853cf5f061ad2dbee25dfe64f277dbec01000000000000000000000000000000000000000000000000d486075d973505e1",
        "nonce": "0xc5",
        "chainId": "0xdede"
      },
      "additionalContracts": [],
      "isFixedGasLimit": false
    },
    {
      "hash": "0x98a7d92d7c98d8ee05e53fd5febf6ea12c0465dff46b870ab159538185a87715",
      "transactionType": "CALL",
      "contractName": "TokenFactory",
      "contractAddress": "0xb3ad7f7409a49e9c1f041bd979578e11e3c3d1ce",
      "function": "createToken(string,string,uint256,uint8,uint256)",
      "arguments": [
        "Wrapped Ether",
        "WETH",
        "1000000000000000000000000",
        "18",
        "2719000000000000000000"
      ],
      "transaction": {
        "from": "0x3b4f0135465d444a5bd06ab90fc59b73916c85f5",
        "to": "0xb3ad7f7409a49e9c1f041bd979578e11e3c3d1ce",
        "gas": "0xd1f01",
        "value": "0x0",
        "input": "0xedd8112300000000000000000000000000000000000000000000000000000000000000a000000000000000000000000000000000000000000000000000000000000000e000000000000000000000000000000000000000000000d3c21bcecceda1000000000000000000000000000000000000000000000000000000000000000000001200000000000000000000000000000000000000000000009365b47e1edf1c0000000000000000000000000000000000000000000000000000000000000000000d577261707065642045746865720000000000000000000000000000000000000000000000000000000000000000000000000000000000000000000000000000045745544800000000000000000000000000000000000000000000000000000000",
        "nonce": "0xc6",
        "chainId": "0xdede"
      },
      "additionalContracts": [
        {
          "transactionType": "CREATE",
          "address": "0xe0a46b4cb0069fe8bfd8a255b8c77acedfdd1bcd",
          "initCode": "0x60806040523461041f57610bca8038038061001981610423565b92833981019060c08183031261041f5780516001600160401b03811161041f5782610045918301610448565b602082015190926001600160401b03821161041f57610065918301610448565b60408201519160608101519160ff831680930361041f57608082015160a0909201516001600160a01b038116959086900361041f578051906001600160401b0382116103225760035490600182811c92168015610415575b60208310146103045781601f8493116103a7575b50602090601f8311600114610341575f92610336575b50508160011b915f199060031b1c1916176003555b8051906001600160401b0382116103225760045490600182811c92168015610318575b60208310146103045781601f849311610296575b50602090601f8311600114610230575f92610225575b50508160011b915f199060031b1c1916176004555b6005805460ff191683179055600780546001600160a01b03191685179055600655604d81116101fe57600a0a908181029181830414901517156101fe57811561021257600254908082018092116101fe5760207fddf252ad1be2c89b69c2b068fc378daa952ba7f163c4a11628f55a4df523b3ef915f9360025584845283825260408420818154019055604051908152a3604051610730908161049a8239f35b634e487b7160e01b5f52601160045260245ffd5b63ec442f0560e01b5f525f60045260245ffd5b015190505f80610149565b60045f9081528281209350601f198516905b81811061027e5750908460019594939210610266575b505050811b0160045561015e565b01515f1960f88460031b161c191690555f8080610258565b92936020600181928786015181550195019301610242565b60045f529091507f8a35acfbc15ff81a39ae7d344fd709f28e8600b4aa8c65c6b64bfe7fe36bd19b601f840160051c810191602085106102fa575b90601f859493920160051c01905b8181106102ec5750610133565b5f81558493506001016102df565b90915081906102d1565b634e487b7160e01b5f52602260045260245ffd5b91607f169161011f565b634e487b7160e01b5f52604160045260245ffd5b015190505f806100e7565b60035f9081528281209350601f198516905b81811061038f5750908460019594939210610377575b505050811b016003556100fc565b01515f1960f88460031b161c191690555f8080610369565b92936020600181928786015181550195019301610353565b60035f529091507fc2575a0e9e593c00f959f8c92f12db2869c3395a3b0502d05e2516446f71f85b601f840160051c8101916020851061040b575b90601f859493920160051c01905b8181106103fd57506100d1565b5f81558493506001016103f0565b90915081906103e2565b91607f16916100bd565b5f80fd5b6040519190601f01601f191682016001600160401b0381118382101761032257604052565b81601f8201121561041f578051906001600160401b03821161032257610477601f8301601f1916602001610423565b928284526020838301011161041f57815f9260208093018386015e830101529056fe6080806040526004361015610012575f80fd5b5f3560e01c90816306fdde031461052b57508063095ea7b3146104a957806318160ddd1461048c57806323b872dd146103ad578063313ce5671461038d57806340c10f19146102eb57806370a08231146102b45780638da5cb5b1461028c57806395d89b4114610171578063a035b1fe146100b6578063a9059cbb14610140578063d03a404514610127578063dd62ed3e146100d75763e1aa6036146100b6575f80fd5b346100d3575f3660031901126100d3576020600654604051908152f35b5f80fd5b346100d35760403660031901126100d3576100f0610624565b6100f861063a565b6001600160a01b039182165f908152600160209081526040808320949093168252928352819020549051908152f35b346100d35760203660031901126100d357600435600655005b346100d35760403660031901126100d35761016661015c610624565b6024359033610650565b602060405160018152f35b346100d3575f3660031901126100d3576040515f6004548060011c90600181168015610282575b60208310811461026e5782855290811561025257506001146101fd575b50819003601f01601f191681019067ffffffffffffffff8211818310176101e9576101e5829182604052826105fa565b0390f35b634e487b7160e01b5f52604160045260245ffd5b905060045f527f8a35acfbc15ff81a39ae7d344fd709f28e8600b4aa8c65c6b64bfe7fe36bd19b5f905b82821061023c575060209150820101826101b5565b6001816020925483858801015201910190610227565b90506020925060ff191682840152151560051b820101826101b5565b634e487b7160e01b5f52602260045260245ffd5b91607f1691610198565b346100d3575f3660031901126100d3576007546040516001600160a01b039091168152602090f35b346100d35760203660031901126100d3576001600160a01b036102d5610624565b165f525f602052602060405f2054604051908152f35b346100d35760403660031901126100d357610304610624565b6001600160a01b0316602435811561037a57600254908082018092116103665760207fddf252ad1be2c89b69c2b068fc378daa952ba7f163c4a11628f55a4df523b3ef915f9360025584845283825260408420818154019055604051908152a3005b634e487b7160e01b5f52601160045260245ffd5b63ec442f0560e01b5f525f60045260245ffd5b346100d3575f3660031901126100d357602060ff60055416604051908152f35b346100d35760603660031901126100d3576103c6610624565b6103ce61063a565b6001600160a01b0382165f818152600160209081526040808320338452909152902054909260443592915f19811061040c575b506101669350610650565b83811061047157841561045e57331561044b57610166945f52600160205260405f2060018060a01b0333165f526020528360405f209103905584610401565b634a1406b160e11b5f525f60045260245ffd5b63e602df0560e01b5f525f60045260245ffd5b8390637dc7a0d960e11b5f523360045260245260445260645ffd5b346100d3575f3660031901126100d3576020600254604051908152f35b346100d35760403660031901126100d3576104c2610624565b60243590331561045e576001600160a01b031690811561044b57335f52600160205260405f20825f526020528060405f20556040519081527f8c5be1e5ebec7d5bd14f71427d1e84f3dd0314c0f7b2291e5b200ac8c7c3b92560203392a3602060405160018152f35b346100d3575f3660031901126100d3575f6003548060011c906001811680156105f0575b60208310811461026e57828552908115610252575060011461059b5750819003601f01601f191681019067ffffffffffffffff8211818310176101e9576101e5829182604052826105fa565b905060035f527fc2575a0e9e593c00f959f8c92f12db2869c3395a3b0502d05e2516446f71f85b5f905b8282106105da575060209150820101826101b5565b60018160209254838588010152019101906105c5565b91607f169161054f565b602060409281835280519182918282860152018484015e5f828201840152601f01601f1916010190565b600435906001600160a01b03821682036100d357565b602435906001600160a01b03821682036100d357565b6001600160a01b03169081156106e7576001600160a01b031691821561037a57815f525f60205260405f20548181106106ce57817fddf252ad1be2c89b69c2b068fc378daa952ba7f163c4a11628f55a4df523b3ef92602092855f525f84520360405f2055845f525f825260405f20818154019055604051908152a3565b8263391434e360e21b5f5260045260245260445260645ffd5b634b637e8f60e11b5f525f60045260245ffdfea26469706673582212205c39712fbe8b8553b0861089959a3df72b5d186974f2b84d34b8ca4462e4c82964736f6c634300081c003300000000000000000000000000000000000000000000000000000000000000c0000000000000000000000000000000000000000000000000000000000000010000000000000000000000000000000000000000000000d3c21bcecceda1000000000000000000000000000000000000000000000000000000000000000000001200000000000000000000000000000000000000000000009365b47e1edf1c00000000000000000000000000003b4f0135465d444a5bd06ab90fc59b73916c85f5000000000000000000000000000000000000000000000000000000000000000d577261707065642045746865720000000000000000000000000000000000000000000000000000000000000000000000000000000000000000000000000000045745544800000000000000000000000000000000000000000000000000000000"
        }
      ],
      "isFixedGasLimit": false
    },
    {
      "hash": "0x9c14db659041295e9acc73a7afbdb5e948a3fc8cce0ab9416bd94db1e8daebd8",
      "transactionType": "CALL",
      "contractName": "MockToken",
      "contractAddress": "0xe0a46b4cb0069fe8bfd8a255b8c77acedfdd1bcd",
      "function": "approve(address,uint256)",
      "arguments": [
        "0xf44f2527d964EF4a8a38c0E676c05a1dc8574fFa",
        "367782272894446487679"
      ],
      "transaction": {
        "from": "0x3b4f0135465d444a5bd06ab90fc59b73916c85f5",
        "to": "0xe0a46b4cb0069fe8bfd8a255b8c77acedfdd1bcd",
        "gas": "0x106c0",
        "value": "0x0",
        "input": "0x095ea7b3000000000000000000000000f44f2527d964ef4a8a38c0e676c05a1dc8574ffa000000000000000000000000000000000000000000000013f0011c9a7f42487f",
        "nonce": "0xc7",
        "chainId": "0xdede"
      },
      "additionalContracts": [],
      "isFixedGasLimit": false
    },
    {
      "hash": "0x7a3f94015cef7ee2a5135b195f0986b944706e53af00fffd2fabaf95625b74dc",
      "transactionType": "CALL",
      "contractName": "Core",
      "contractAddress": "0xf44f2527d964ef4a8a38c0e676c05a1dc8574ffa",
      "function": "addLiquidity(address,uint256)",
      "arguments": [
        "0xe0a46B4CB0069fE8BFd8a255B8C77ACEDFDD1bcd",
        "367782272894446487679"
      ],
      "transaction": {
        "from": "0x3b4f0135465d444a5bd06ab90fc59b73916c85f5",
        "to": "0xf44f2527d964ef4a8a38c0e676c05a1dc8574ffa",
        "gas": "0x1c431",
        "value": "0x0",
        "input": "0x56688700000000000000000000000000e0a46b4cb0069fe8bfd8a255b8c77acedfdd1bcd000000000000000000000000000000000000000000000013f0011c9a7f42487f",
        "nonce": "0xc8",
        "chainId": "0xdede"
      },
      "additionalContracts": [],
      "isFixedGasLimit": false
    },
    {
      "hash": "0x6cfee158d5352eca472de6f9654a5c1330f396d40dbce7441a3a5b325146922c",
      "transactionType": "CALL",
      "contractName": "TokenFactory",
      "contractAddress": "0xb3ad7f7409a49e9c1f041bd979578e11e3c3d1ce",
      "function": "createToken(string,string,uint256,uint8,uint256)",
      "arguments": [
        "PEPE",
        "PEPE",
        "1000000000000000000000000",
        "18",
        "110000000000000000"
      ],
      "transaction": {
        "from": "0x3b4f0135465d444a5bd06ab90fc59b73916c85f5",
        "to": "0xb3ad7f7409a49e9c1f041bd979578e11e3c3d1ce",
        "gas": "0xd1e52",
        "value": "0x0",
        "input": "0xedd8112300000000000000000000000000000000000000000000000000000000000000a000000000000000000000000000000000000000000000000000000000000000e000000000000000000000000000000000000000000000d3c21bcecceda100000000000000000000000000000000000000000000000000000000000000000000120000000000000000000000000000000000000000000000000186cc6acd4b00000000000000000000000000000000000000000000000000000000000000000004504550450000000000000000000000000000000000000000000000000000000000000000000000000000000000000000000000000000000000000000000000045045504500000000000000000000000000000000000000000000000000000000",
        "nonce": "0xc9",
        "chainId": "0xdede"
      },
      "additionalContracts": [
        {
          "transactionType": "CREATE",
          "address": "0xfbe583ec5e062728c6ae28b9ed1cf16bf3d44052",
          "initCode": "0x60806040523461041f57610bca8038038061001981610423565b92833981019060c08183031261041f5780516001600160401b03811161041f5782610045918301610448565b602082015190926001600160401b03821161041f57610065918301610448565b60408201519160608101519160ff831680930361041f57608082015160a0909201516001600160a01b038116959086900361041f578051906001600160401b0382116103225760035490600182811c92168015610415575b60208310146103045781601f8493116103a7575b50602090601f8311600114610341575f92610336575b50508160011b915f199060031b1c1916176003555b8051906001600160401b0382116103225760045490600182811c92168015610318575b60208310146103045781601f849311610296575b50602090601f8311600114610230575f92610225575b50508160011b915f199060031b1c1916176004555b6005805460ff191683179055600780546001600160a01b03191685179055600655604d81116101fe57600a0a908181029181830414901517156101fe57811561021257600254908082018092116101fe5760207fddf252ad1be2c89b69c2b068fc378daa952ba7f163c4a11628f55a4df523b3ef915f9360025584845283825260408420818154019055604051908152a3604051610730908161049a8239f35b634e487b7160e01b5f52601160045260245ffd5b63ec442f0560e01b5f525f60045260245ffd5b015190505f80610149565b60045f9081528281209350601f198516905b81811061027e5750908460019594939210610266575b505050811b0160045561015e565b01515f1960f88460031b161c191690555f8080610258565b92936020600181928786015181550195019301610242565b60045f529091507f8a35acfbc15ff81a39ae7d344fd709f28e8600b4aa8c65c6b64bfe7fe36bd19b601f840160051c810191602085106102fa575b90601f859493920160051c01905b8181106102ec5750610133565b5f81558493506001016102df565b90915081906102d1565b634e487b7160e01b5f52602260045260245ffd5b91607f169161011f565b634e487b7160e01b5f52604160045260245ffd5b015190505f806100e7565b60035f9081528281209350601f198516905b81811061038f5750908460019594939210610377575b505050811b016003556100fc565b01515f1960f88460031b161c191690555f8080610369565b92936020600181928786015181550195019301610353565b60035f529091507fc2575a0e9e593c00f959f8c92f12db2869c3395a3b0502d05e2516446f71f85b601f840160051c8101916020851061040b575b90601f859493920160051c01905b8181106103fd57506100d1565b5f81558493506001016103f0565b90915081906103e2565b91607f16916100bd565b5f80fd5b6040519190601f01601f191682016001600160401b0381118382101761032257604052565b81601f8201121561041f578051906001600160401b03821161032257610477601f8301601f1916602001610423565b928284526020838301011161041f57815f9260208093018386015e830101529056fe6080806040526004361015610012575f80fd5b5f3560e01c90816306fdde031461052b57508063095ea7b3146104a957806318160ddd1461048c57806323b872dd146103ad578063313ce5671461038d57806340c10f19146102eb57806370a08231146102b45780638da5cb5b1461028c57806395d89b4114610171578063a035b1fe146100b6578063a9059cbb14610140578063d03a404514610127578063dd62ed3e146100d75763e1aa6036146100b6575f80fd5b346100d3575f3660031901126100d3576020600654604051908152f35b5f80fd5b346100d35760403660031901126100d3576100f0610624565b6100f861063a565b6001600160a01b039182165f908152600160209081526040808320949093168252928352819020549051908152f35b346100d35760203660031901126100d357600435600655005b346100d35760403660031901126100d35761016661015c610624565b6024359033610650565b602060405160018152f35b346100d3575f3660031901126100d3576040515f6004548060011c90600181168015610282575b60208310811461026e5782855290811561025257506001146101fd575b50819003601f01601f191681019067ffffffffffffffff8211818310176101e9576101e5829182604052826105fa565b0390f35b634e487b7160e01b5f52604160045260245ffd5b905060045f527f8a35acfbc15ff81a39ae7d344fd709f28e8600b4aa8c65c6b64bfe7fe36bd19b5f905b82821061023c575060209150820101826101b5565b6001816020925483858801015201910190610227565b90506020925060ff191682840152151560051b820101826101b5565b634e487b7160e01b5f52602260045260245ffd5b91607f1691610198565b346100d3575f3660031901126100d3576007546040516001600160a01b039091168152602090f35b346100d35760203660031901126100d3576001600160a01b036102d5610624565b165f525f602052602060405f2054604051908152f35b346100d35760403660031901126100d357610304610624565b6001600160a01b0316602435811561037a57600254908082018092116103665760207fddf252ad1be2c89b69c2b068fc378daa952ba7f163c4a11628f55a4df523b3ef915f9360025584845283825260408420818154019055604051908152a3005b634e487b7160e01b5f52601160045260245ffd5b63ec442f0560e01b5f525f60045260245ffd5b346100d3575f3660031901126100d357602060ff60055416604051908152f35b346100d35760603660031901126100d3576103c6610624565b6103ce61063a565b6001600160a01b0382165f818152600160209081526040808320338452909152902054909260443592915f19811061040c575b506101669350610650565b83811061047157841561045e57331561044b57610166945f52600160205260405f2060018060a01b0333165f526020528360405f209103905584610401565b634a1406b160e11b5f525f60045260245ffd5b63e602df0560e01b5f525f60045260245ffd5b8390637dc7a0d960e11b5f523360045260245260445260645ffd5b346100d3575f3660031901126100d3576020600254604051908152f35b346100d35760403660031901126100d3576104c2610624565b60243590331561045e576001600160a01b031690811561044b57335f52600160205260405f20825f526020528060405f20556040519081527f8c5be1e5ebec7d5bd14f71427d1e84f3dd0314c0f7b2291e5b200ac8c7c3b92560203392a3602060405160018152f35b346100d3575f3660031901126100d3575f6003548060011c906001811680156105f0575b60208310811461026e57828552908115610252575060011461059b5750819003601f01601f191681019067ffffffffffffffff8211818310176101e9576101e5829182604052826105fa565b905060035f527fc2575a0e9e593c00f959f8c92f12db2869c3395a3b0502d05e2516446f71f85b5f905b8282106105da575060209150820101826101b5565b60018160209254838588010152019101906105c5565b91607f169161054f565b602060409281835280519182918282860152018484015e5f828201840152601f01601f1916010190565b600435906001600160a01b03821682036100d357565b602435906001600160a01b03821682036100d357565b6001600160a01b03169081156106e7576001600160a01b031691821561037a57815f525f60205260405f20548181106106ce57817fddf252ad1be2c89b69c2b068fc378daa952ba7f163c4a11628f55a4df523b3ef92602092855f525f84520360405f2055845f525f825260405f20818154019055604051908152a3565b8263391434e360e21b5f5260045260245260445260645ffd5b634b637e8f60e11b5f525f60045260245ffdfea26469706673582212205c39712fbe8b8553b0861089959a3df72b5d186974f2b84d34b8ca4462e4c82964736f6c634300081c003300000000000000000000000000000000000000000000000000000000000000c0000000000000000000000000000000000000000000000000000000000000010000000000000000000000000000000000000000000000d3c21bcecceda100000000000000000000000000000000000000000000000000000000000000000000120000000000000000000000000000000000000000000000000186cc6acd4b00000000000000000000000000003b4f0135465d444a5bd06ab90fc59b73916c85f50000000000000000000000000000000000000000000000000000000000000004504550450000000000000000000000000000000000000000000000000000000000000000000000000000000000000000000000000000000000000000000000045045504500000000000000000000000000000000000000000000000000000000"
        }
      ],
      "isFixedGasLimit": false
    },
    {
      "hash": "0x69f249f76ef499131cf9c9c70f078631d8fb7a3981aa35b40964e4c4a66943f5",
      "transactionType": "CALL",
      "contractName": "MockToken",
      "contractAddress": "0xfbe583ec5e062728c6ae28b9ed1cf16bf3d44052",
      "function": "approve(address,uint256)",
      "arguments": [
        "0xf44f2527d964EF4a8a38c0E676c05a1dc8574fFa",
        "9090909090909090909090909"
      ],
      "transaction": {
        "from": "0x3b4f0135465d444a5bd06ab90fc59b73916c85f5",
        "to": "0xfbe583ec5e062728c6ae28b9ed1cf16bf3d44052",
        "gas": "0x106e3",
        "value": "0x0",
        "input": "0x095ea7b3000000000000000000000000f44f2527d964ef4a8a38c0e676c05a1dc8574ffa0000000000000000000000000000000000000000000785132b58012a71d1745d",
        "nonce": "0xca",
        "chainId": "0xdede"
      },
      "additionalContracts": [],
      "isFixedGasLimit": false
    },
    {
      "hash": "0x96bac3ec205b58fb08c1363fd5772d7ef2558feb936337c6e625bfdf16f60bed",
      "transactionType": "CALL",
      "contractName": "Core",
      "contractAddress": "0xf44f2527d964ef4a8a38c0e676c05a1dc8574ffa",
      "function": "addLiquidity(address,uint256)",
      "arguments": [
        "0xFbE583EC5E062728C6Ae28b9eD1CF16bF3D44052",
        "9090909090909090909090909"
      ],
      "transaction": {
        "from": "0x3b4f0135465d444a5bd06ab90fc59b73916c85f5",
        "to": "0xf44f2527d964ef4a8a38c0e676c05a1dc8574ffa",
        "gas": "0x1c454",
        "value": "0x0",
        "input": "0x56688700000000000000000000000000fbe583ec5e062728c6ae28b9ed1cf16bf3d440520000000000000000000000000000000000000000000785132b58012a71d1745d",
        "nonce": "0xcb",
        "chainId": "0xdede"
      },
      "additionalContracts": [],
      "isFixedGasLimit": false
    },
    {
      "hash": "0xa09937d3c9b3937134b45125a1eaeae598abcbdf2557fa285281af13254fa9e4",
      "transactionType": "CALL",
      "contractName": "TokenFactory",
      "contractAddress": "0xb3ad7f7409a49e9c1f041bd979578e11e3c3d1ce",
      "function": "createToken(string,string,uint256,uint8,uint256)",
      "arguments": [
        "OFFICIAL TRUMP",
        "TRUMP",
        "1000000000000000000000000",
        "18",
        "1592000000000000000000"
      ],
      "transaction": {
        "from": "0x3b4f0135465d444a5bd06ab90fc59b73916c85f5",
        "to": "0xb3ad7f7409a49e9c1f041bd979578e11e3c3d1ce",
        "gas": "0xd1f24",
        "value": "0x0",
        "input": "0xedd8112300000000000000000000000000000000000000000000000000000000000000a000000000000000000000000000000000000000000000000000000000000000e000000000000000000000000000000000000000000000d3c21bcecceda100000000000000000000000000000000000000000000000000000000000000000000120000000000000000000000000000000000000000000000564d702d38f5e00000000000000000000000000000000000000000000000000000000000000000000e4f4646494349414c205452554d5000000000000000000000000000000000000000000000000000000000000000000000000000000000000000000000000000055452554d50000000000000000000000000000000000000000000000000000000",
        "nonce": "0xcc",
        "chainId": "0xdede"
      },
      "additionalContracts": [
        {
          "transactionType": "CREATE",
          "address": "0x95bd809c55711fa7c7e6ba4c860a274e475fe2a3",
          "initCode": "0x60806040523461041f57610bca8038038061001981610423565b92833981019060c08183031261041f5780516001600160401b03811161041f5782610045918301610448565b602082015190926001600160401b03821161041f57610065918301610448565b60408201519160608101519160ff831680930361041f57608082015160a0909201516001600160a01b038116959086900361041f578051906001600160401b0382116103225760035490600182811c92168015610415575b60208310146103045781601f8493116103a7575b50602090601f8311600114610341575f92610336575b50508160011b915f199060031b1c1916176003555b8051906001600160401b0382116103225760045490600182811c92168015610318575b60208310146103045781601f849311610296575b50602090601f8311600114610230575f92610225575b50508160011b915f199060031b1c1916176004555b6005805460ff191683179055600780546001600160a01b03191685179055600655604d81116101fe57600a0a908181029181830414901517156101fe57811561021257600254908082018092116101fe5760207fddf252ad1be2c89b69c2b068fc378daa952ba7f163c4a11628f55a4df523b3ef915f9360025584845283825260408420818154019055604051908152a3604051610730908161049a8239f35b634e487b7160e01b5f52601160045260245ffd5b63ec442f0560e01b5f525f60045260245ffd5b015190505f80610149565b60045f9081528281209350601f198516905b81811061027e5750908460019594939210610266575b505050811b0160045561015e565b01515f1960f88460031b161c191690555f8080610258565b92936020600181928786015181550195019301610242565b60045f529091507f8a35acfbc15ff81a39ae7d344fd709f28e8600b4aa8c65c6b64bfe7fe36bd19b601f840160051c810191602085106102fa575b90601f859493920160051c01905b8181106102ec5750610133565b5f81558493506001016102df565b90915081906102d1565b634e487b7160e01b5f52602260045260245ffd5b91607f169161011f565b634e487b7160e01b5f52604160045260245ffd5b015190505f806100e7565b60035f9081528281209350601f198516905b81811061038f5750908460019594939210610377575b505050811b016003556100fc565b01515f1960f88460031b161c191690555f8080610369565b92936020600181928786015181550195019301610353565b60035f529091507fc2575a0e9e593c00f959f8c92f12db2869c3395a3b0502d05e2516446f71f85b601f840160051c8101916020851061040b575b90601f859493920160051c01905b8181106103fd57506100d1565b5f81558493506001016103f0565b90915081906103e2565b91607f16916100bd565b5f80fd5b6040519190601f01601f191682016001600160401b0381118382101761032257604052565b81601f8201121561041f578051906001600160401b03821161032257610477601f8301601f1916602001610423565b928284526020838301011161041f57815f9260208093018386015e830101529056fe6080806040526004361015610012575f80fd5b5f3560e01c90816306fdde031461052b57508063095ea7b3146104a957806318160ddd1461048c57806323b872dd146103ad578063313ce5671461038d57806340c10f19146102eb57806370a08231146102b45780638da5cb5b1461028c57806395d89b4114610171578063a035b1fe146100b6578063a9059cbb14610140578063d03a404514610127578063dd62ed3e146100d75763e1aa6036146100b6575f80fd5b346100d3575f3660031901126100d3576020600654604051908152f35b5f80fd5b346100d35760403660031901126100d3576100f0610624565b6100f861063a565b6001600160a01b039182165f908152600160209081526040808320949093168252928352819020549051908152f35b346100d35760203660031901126100d357600435600655005b346100d35760403660031901126100d35761016661015c610624565b6024359033610650565b602060405160018152f35b346100d3575f3660031901126100d3576040515f6004548060011c90600181168015610282575b60208310811461026e5782855290811561025257506001146101fd575b50819003601f01601f191681019067ffffffffffffffff8211818310176101e9576101e5829182604052826105fa565b0390f35b634e487b7160e01b5f52604160045260245ffd5b905060045f527f8a35acfbc15ff81a39ae7d344fd709f28e8600b4aa8c65c6b64bfe7fe36bd19b5f905b82821061023c575060209150820101826101b5565b6001816020925483858801015201910190610227565b90506020925060ff191682840152151560051b820101826101b5565b634e487b7160e01b5f52602260045260245ffd5b91607f1691610198565b346100d3575f3660031901126100d3576007546040516001600160a01b039091168152602090f35b346100d35760203660031901126100d3576001600160a01b036102d5610624565b165f525f602052602060405f2054604051908152f35b346100d35760403660031901126100d357610304610624565b6001600160a01b0316602435811561037a57600254908082018092116103665760207fddf252ad1be2c89b69c2b068fc378daa952ba7f163c4a11628f55a4df523b3ef915f9360025584845283825260408420818154019055604051908152a3005b634e487b7160e01b5f52601160045260245ffd5b63ec442f0560e01b5f525f60045260245ffd5b346100d3575f3660031901126100d357602060ff60055416604051908152f35b346100d35760603660031901126100d3576103c6610624565b6103ce61063a565b6001600160a01b0382165f818152600160209081526040808320338452909152902054909260443592915f19811061040c575b506101669350610650565b83811061047157841561045e57331561044b57610166945f52600160205260405f2060018060a01b0333165f526020528360405f209103905584610401565b634a1406b160e11b5f525f60045260245ffd5b63e602df0560e01b5f525f60045260245ffd5b8390637dc7a0d960e11b5f523360045260245260445260645ffd5b346100d3575f3660031901126100d3576020600254604051908152f35b346100d35760403660031901126100d3576104c2610624565b60243590331561045e576001600160a01b031690811561044b57335f52600160205260405f20825f526020528060405f20556040519081527f8c5be1e5ebec7d5bd14f71427d1e84f3dd0314c0f7b2291e5b200ac8c7c3b92560203392a3602060405160018152f35b346100d3575f3660031901126100d3575f6003548060011c906001811680156105f0575b60208310811461026e57828552908115610252575060011461059b5750819003601f01601f191681019067ffffffffffffffff8211818310176101e9576101e5829182604052826105fa565b905060035f527fc2575a0e9e593c00f959f8c92f12db2869c3395a3b0502d05e2516446f71f85b5f905b8282106105da575060209150820101826101b5565b60018160209254838588010152019101906105c5565b91607f169161054f565b602060409281835280519182918282860152018484015e5f828201840152601f01601f1916010190565b600435906001600160a01b03821682036100d357565b602435906001600160a01b03821682036100d357565b6001600160a01b03169081156106e7576001600160a01b031691821561037a57815f525f60205260405f20548181106106ce57817fddf252ad1be2c89b69c2b068fc378daa952ba7f163c4a11628f55a4df523b3ef92602092855f525f84520360405f2055845f525f825260405f20818154019055604051908152a3565b8263391434e360e21b5f5260045260245260445260645ffd5b634b637e8f60e11b5f525f60045260245ffdfea26469706673582212205c39712fbe8b8553b0861089959a3df72b5d186974f2b84d34b8ca4462e4c82964736f6c634300081c003300000000000000000000000000000000000000000000000000000000000000c0000000000000000000000000000000000000000000000000000000000000010000000000000000000000000000000000000000000000d3c21bcecceda100000000000000000000000000000000000000000000000000000000000000000000120000000000000000000000000000000000000000000000564d702d38f5e000000000000000000000000000003b4f0135465d444a5bd06ab90fc59b73916c85f5000000000000000000000000000000000000000000000000000000000000000e4f4646494349414c205452554d5000000000000000000000000000000000000000000000000000000000000000000000000000000000000000000000000000055452554d50000000000000000000000000000000000000000000000000000000"
        }
      ],
      "isFixedGasLimit": false
    },
    {
      "hash": "0x91cbbfce4cd5403343e03636d33c6b97bedceb3d9d97b5dfa8a09d5c0b2b14cf",
      "transactionType": "CALL",
      "contractName": "MockToken",
      "contractAddress": "0x95bd809c55711fa7c7e6ba4c860a274e475fe2a3",
      "function": "approve(address,uint256)",
      "arguments": [
        "0xf44f2527d964EF4a8a38c0E676c05a1dc8574fFa",
        "628140703517587939698"
      ],
      "transaction": {
        "from": "0x3b4f0135465d444a5bd06ab90fc59b73916c85f5",
        "to": "0x95bd809c55711fa7c7e6ba4c860a274e475fe2a3",
        "gas": "0x106c0",
        "value": "0x0",
        "input": "0x095ea7b3000000000000000000000000f44f2527d964ef4a8a38c0e676c05a1dc8574ffa0000000000000000000000000000000000000000000000220d3411d131ca2172",
        "nonce": "0xcd",
        "chainId": "0xdede"
      },
      "additionalContracts": [],
      "isFixedGasLimit": false
    },
    {
      "hash": "0x155aa5e82bcd288cb10adfb354fd66de1a72781dd8a88996946957b243aaaa65",
      "transactionType": "CALL",
      "contractName": "Core",
      "contractAddress": "0xf44f2527d964ef4a8a38c0e676c05a1dc8574ffa",
      "function": "addLiquidity(address,uint256)",
      "arguments": [
        "0x95Bd809c55711fA7c7e6Ba4C860A274e475FE2a3",
        "628140703517587939698"
      ],
      "transaction": {
        "from": "0x3b4f0135465d444a5bd06ab90fc59b73916c85f5",
        "to": "0xf44f2527d964ef4a8a38c0e676c05a1dc8574ffa",
        "gas": "0x1c431",
        "value": "0x0",
        "input": "0x5668870000000000000000000000000095bd809c55711fa7c7e6ba4c860a274e475fe2a30000000000000000000000000000000000000000000000220d3411d131ca2172",
        "nonce": "0xce",
        "chainId": "0xdede"
      },
      "additionalContracts": [],
      "isFixedGasLimit": false
    },
    {
      "hash": "0x3494c9c8131a48c5c657db26c624a0cd19490ccbe415d3a85346bc49acf8e224",
      "transactionType": "CALL",
      "contractName": "TokenFactory",
      "contractAddress": "0xb3ad7f7409a49e9c1f041bd979578e11e3c3d1ce",
      "function": "createToken(string,string,uint256,uint8,uint256)",
      "arguments": [
        "DOGE AI",
        "DOGEAI",
        "1000000000000000000000000",
        "18",
        "62000000000000000"
      ],
      "transaction": {
        "from": "0x3b4f0135465d444a5bd06ab90fc59b73916c85f5",
        "to": "0xb3ad7f7409a49e9c1f041bd979578e11e3c3d1ce",
        "gas": "0xd1e98",
        "value": "0x0",
        "input": "0xedd8112300000000000000000000000000000000000000000000000000000000000000a000000000000000000000000000000000000000000000000000000000000000e000000000000000000000000000000000000000000000d3c21bcecceda1000000000000000000000000000000000000000000000000000000000000000000001200000000000000000000000000000000000000000000000000dc44abe81300000000000000000000000000000000000000000000000000000000000000000007444f4745204149000000000000000000000000000000000000000000000000000000000000000000000000000000000000000000000000000000000000000006444f474541490000000000000000000000000000000000000000000000000000",
        "nonce": "0xcf",
        "chainId": "0xdede"
      },
      "additionalContracts": [
        {
          "transactionType": "CREATE",
          "address": "0x66d289ff71aca3b2dd38fe3af29dd8d8aa734829",
          "initCode": "0x60806040523461041f57610bca8038038061001981610423565b92833981019060c08183031261041f5780516001600160401b03811161041f5782610045918301610448565b602082015190926001600160401b03821161041f57610065918301610448565b60408201519160608101519160ff831680930361041f57608082015160a0909201516001600160a01b038116959086900361041f578051906001600160401b0382116103225760035490600182811c92168015610415575b60208310146103045781601f8493116103a7575b50602090601f8311600114610341575f92610336575b50508160011b915f199060031b1c1916176003555b8051906001600160401b0382116103225760045490600182811c92168015610318575b60208310146103045781601f849311610296575b50602090601f8311600114610230575f92610225575b50508160011b915f199060031b1c1916176004555b6005805460ff191683179055600780546001600160a01b03191685179055600655604d81116101fe57600a0a908181029181830414901517156101fe57811561021257600254908082018092116101fe5760207fddf252ad1be2c89b69c2b068fc378daa952ba7f163c4a11628f55a4df523b3ef915f9360025584845283825260408420818154019055604051908152a3604051610730908161049a8239f35b634e487b7160e01b5f52601160045260245ffd5b63ec442f0560e01b5f525f60045260245ffd5b015190505f80610149565b60045f9081528281209350601f198516905b81811061027e5750908460019594939210610266575b505050811b0160045561015e565b01515f1960f88460031b161c191690555f8080610258565b92936020600181928786015181550195019301610242565b60045f529091507f8a35acfbc15ff81a39ae7d344fd709f28e8600b4aa8c65c6b64bfe7fe36bd19b601f840160051c810191602085106102fa575b90601f859493920160051c01905b8181106102ec5750610133565b5f81558493506001016102df565b90915081906102d1565b634e487b7160e01b5f52602260045260245ffd5b91607f169161011f565b634e487b7160e01b5f52604160045260245ffd5b015190505f806100e7565b60035f9081528281209350601f198516905b81811061038f5750908460019594939210610377575b505050811b016003556100fc565b01515f1960f88460031b161c191690555f8080610369565b92936020600181928786015181550195019301610353565b60035f529091507fc2575a0e9e593c00f959f8c92f12db2869c3395a3b0502d05e2516446f71f85b601f840160051c8101916020851061040b575b90601f859493920160051c01905b8181106103fd57506100d1565b5f81558493506001016103f0565b90915081906103e2565b91607f16916100bd565b5f80fd5b6040519190601f01601f191682016001600160401b0381118382101761032257604052565b81601f8201121561041f578051906001600160401b03821161032257610477601f8301601f1916602001610423565b928284526020838301011161041f57815f9260208093018386015e830101529056fe6080806040526004361015610012575f80fd5b5f3560e01c90816306fdde031461052b57508063095ea7b3146104a957806318160ddd1461048c57806323b872dd146103ad578063313ce5671461038d57806340c10f19146102eb57806370a08231146102b45780638da5cb5b1461028c57806395d89b4114610171578063a035b1fe146100b6578063a9059cbb14610140578063d03a404514610127578063dd62ed3e146100d75763e1aa6036146100b6575f80fd5b346100d3575f3660031901126100d3576020600654604051908152f35b5f80fd5b346100d35760403660031901126100d3576100f0610624565b6100f861063a565b6001600160a01b039182165f908152600160209081526040808320949093168252928352819020549051908152f35b346100d35760203660031901126100d357600435600655005b346100d35760403660031901126100d35761016661015c610624565b6024359033610650565b602060405160018152f35b346100d3575f3660031901126100d3576040515f6004548060011c90600181168015610282575b60208310811461026e5782855290811561025257506001146101fd575b50819003601f01601f191681019067ffffffffffffffff8211818310176101e9576101e5829182604052826105fa565b0390f35b634e487b7160e01b5f52604160045260245ffd5b905060045f527f8a35acfbc15ff81a39ae7d344fd709f28e8600b4aa8c65c6b64bfe7fe36bd19b5f905b82821061023c575060209150820101826101b5565b6001816020925483858801015201910190610227565b90506020925060ff191682840152151560051b820101826101b5565b634e487b7160e01b5f52602260045260245ffd5b91607f1691610198565b346100d3575f3660031901126100d3576007546040516001600160a01b039091168152602090f35b346100d35760203660031901126100d3576001600160a01b036102d5610624565b165f525f602052602060405f2054604051908152f35b346100d35760403660031901126100d357610304610624565b6001600160a01b0316602435811561037a57600254908082018092116103665760207fddf252ad1be2c89b69c2b068fc378daa952ba7f163c4a11628f55a4df523b3ef915f9360025584845283825260408420818154019055604051908152a3005b634e487b7160e01b5f52601160045260245ffd5b63ec442f0560e01b5f525f60045260245ffd5b346100d3575f3660031901126100d357602060ff60055416604051908152f35b346100d35760603660031901126100d3576103c6610624565b6103ce61063a565b6001600160a01b0382165f818152600160209081526040808320338452909152902054909260443592915f19811061040c575b506101669350610650565b83811061047157841561045e57331561044b57610166945f52600160205260405f2060018060a01b0333165f526020528360405f209103905584610401565b634a1406b160e11b5f525f60045260245ffd5b63e602df0560e01b5f525f60045260245ffd5b8390637dc7a0d960e11b5f523360045260245260445260645ffd5b346100d3575f3660031901126100d3576020600254604051908152f35b346100d35760403660031901126100d3576104c2610624565b60243590331561045e576001600160a01b031690811561044b57335f52600160205260405f20825f526020528060405f20556040519081527f8c5be1e5ebec7d5bd14f71427d1e84f3dd0314c0f7b2291e5b200ac8c7c3b92560203392a3602060405160018152f35b346100d3575f3660031901126100d3575f6003548060011c906001811680156105f0575b60208310811461026e57828552908115610252575060011461059b5750819003601f01601f191681019067ffffffffffffffff8211818310176101e9576101e5829182604052826105fa565b905060035f527fc2575a0e9e593c00f959f8c92f12db2869c3395a3b0502d05e2516446f71f85b5f905b8282106105da575060209150820101826101b5565b60018160209254838588010152019101906105c5565b91607f169161054f565b602060409281835280519182918282860152018484015e5f828201840152601f01601f1916010190565b600435906001600160a01b03821682036100d357565b602435906001600160a01b03821682036100d357565b6001600160a01b03169081156106e7576001600160a01b031691821561037a57815f525f60205260405f20548181106106ce57817fddf252ad1be2c89b69c2b068fc378daa952ba7f163c4a11628f55a4df523b3ef92602092855f525f84520360405f2055845f525f825260405f20818154019055604051908152a3565b8263391434e360e21b5f5260045260245260445260645ffd5b634b637e8f60e11b5f525f60045260245ffdfea26469706673582212205c39712fbe8b8553b0861089959a3df72b5d186974f2b84d34b8ca4462e4c82964736f6c634300081c003300000000000000000000000000000000000000000000000000000000000000c0000000000000000000000000000000000000000000000000000000000000010000000000000000000000000000000000000000000000d3c21bcecceda1000000000000000000000000000000000000000000000000000000000000000000001200000000000000000000000000000000000000000000000000dc44abe81300000000000000000000000000003b4f0135465d444a5bd06ab90fc59b73916c85f50000000000000000000000000000000000000000000000000000000000000007444f4745204149000000000000000000000000000000000000000000000000000000000000000000000000000000000000000000000000000000000000000006444f474541490000000000000000000000000000000000000000000000000000"
        }
      ],
      "isFixedGasLimit": false
    },
    {
      "hash": "0xa9e932e32398dffea6caf982add4b9b76ca2ab193d1626a232fa1e4a1ea0ddd5",
      "transactionType": "CALL",
      "contractName": "MockToken",
      "contractAddress": "0x66d289ff71aca3b2dd38fe3af29dd8d8aa734829",
      "function": "approve(address,uint256)",
      "arguments": [
        "0xf44f2527d964EF4a8a38c0E676c05a1dc8574fFa",
        "16129032258064516129032258"
      ],
      "transaction": {
        "from": "0x3b4f0135465d444a5bd06ab90fc59b73916c85f5",
        "to": "0x66d289ff71aca3b2dd38fe3af29dd8d8aa734829",
        "gas": "0x106e3",
        "value": "0x0",
        "input": "0x095ea7b3000000000000000000000000f44f2527d964ef4a8a38c0e676c05a1dc8574ffa0000000000000000000000000000000000000000000d577497390a5390210842",
        "nonce": "0xd0",
        "chainId": "0xdede"
      },
      "additionalContracts": [],
      "isFixedGasLimit": false
    },
    {
      "hash": "0xf82aa6174c4863163972c1792af23ef8014ad596725c31291e75c16bb726880c",
      "transactionType": "CALL",
      "contractName": "Core",
      "contractAddress": "0xf44f2527d964ef4a8a38c0e676c05a1dc8574ffa",
      "function": "addLiquidity(address,uint256)",
      "arguments": [
        "0x66D289fF71AcA3b2Dd38fE3aF29dD8D8aA734829",
        "16129032258064516129032258"
      ],
      "transaction": {
        "from": "0x3b4f0135465d444a5bd06ab90fc59b73916c85f5",
        "to": "0xf44f2527d964ef4a8a38c0e676c05a1dc8574ffa",
        "gas": "0x1c454",
        "value": "0x0",
        "input": "0x5668870000000000000000000000000066d289ff71aca3b2dd38fe3af29dd8d8aa7348290000000000000000000000000000000000000000000d577497390a5390210842",
        "nonce": "0xd1",
        "chainId": "0xdede"
      },
      "additionalContracts": [],
      "isFixedGasLimit": false
    },
    {
      "hash": "0x1ea3ed0796012cb4f7bbff79f04d26c9b07afea8110d2113234a946bbdb074cf",
      "transactionType": "CALL",
      "contractName": "TokenFactory",
      "contractAddress": "0xb3ad7f7409a49e9c1f041bd979578e11e3c3d1ce",
      "function": "createToken(string,string,uint256,uint8,uint256)",
      "arguments": [
        "dogwifhat",
        "WIF",
        "1000000000000000000000000",
        "18",
        "770000000000000000"
      ],
      "transaction": {
        "from": "0x3b4f0135465d444a5bd06ab90fc59b73916c85f5",
        "to": "0xb3ad7f7409a49e9c1f041bd979578e11e3c3d1ce",
        "gas": "0xd1e98",
        "value": "0x0",
        "input": "0xedd8112300000000000000000000000000000000000000000000000000000000000000a000000000000000000000000000000000000000000000000000000000000000e000000000000000000000000000000000000000000000d3c21bcecceda100000000000000000000000000000000000000000000000000000000000000000000120000000000000000000000000000000000000000000000000aaf96eb9d0d00000000000000000000000000000000000000000000000000000000000000000009646f67776966686174000000000000000000000000000000000000000000000000000000000000000000000000000000000000000000000000000000000000035749460000000000000000000000000000000000000000000000000000000000",
        "nonce": "0xd2",
        "chainId": "0xdede"
      },
      "additionalContracts": [
        {
          "transactionType": "CREATE",
          "address": "0xe8451691d43ae8c3991ae087731249e5c29d3e41",
          "initCode": "0x60806040523461041f57610bca8038038061001981610423565b92833981019060c08183031261041f5780516001600160401b03811161041f5782610045918301610448565b602082015190926001600160401b03821161041f57610065918301610448565b60408201519160608101519160ff831680930361041f57608082015160a0909201516001600160a01b038116959086900361041f578051906001600160401b0382116103225760035490600182811c92168015610415575b60208310146103045781601f8493116103a7575b50602090601f8311600114610341575f92610336575b50508160011b915f199060031b1c1916176003555b8051906001600160401b0382116103225760045490600182811c92168015610318575b60208310146103045781601f849311610296575b50602090601f8311600114610230575f92610225575b50508160011b915f199060031b1c1916176004555b6005805460ff191683179055600780546001600160a01b03191685179055600655604d81116101fe57600a0a908181029181830414901517156101fe57811561021257600254908082018092116101fe5760207fddf252ad1be2c89b69c2b068fc378daa952ba7f163c4a11628f55a4df523b3ef915f9360025584845283825260408420818154019055604051908152a3604051610730908161049a8239f35b634e487b7160e01b5f52601160045260245ffd5b63ec442f0560e01b5f525f60045260245ffd5b015190505f80610149565b60045f9081528281209350601f198516905b81811061027e5750908460019594939210610266575b505050811b0160045561015e565b01515f1960f88460031b161c191690555f8080610258565b92936020600181928786015181550195019301610242565b60045f529091507f8a35acfbc15ff81a39ae7d344fd709f28e8600b4aa8c65c6b64bfe7fe36bd19b601f840160051c810191602085106102fa575b90601f859493920160051c01905b8181106102ec5750610133565b5f81558493506001016102df565b90915081906102d1565b634e487b7160e01b5f52602260045260245ffd5b91607f169161011f565b634e487b7160e01b5f52604160045260245ffd5b015190505f806100e7565b60035f9081528281209350601f198516905b81811061038f5750908460019594939210610377575b505050811b016003556100fc565b01515f1960f88460031b161c191690555f8080610369565b92936020600181928786015181550195019301610353565b60035f529091507fc2575a0e9e593c00f959f8c92f12db2869c3395a3b0502d05e2516446f71f85b601f840160051c8101916020851061040b575b90601f859493920160051c01905b8181106103fd57506100d1565b5f81558493506001016103f0565b90915081906103e2565b91607f16916100bd565b5f80fd5b6040519190601f01601f191682016001600160401b0381118382101761032257604052565b81601f8201121561041f578051906001600160401b03821161032257610477601f8301601f1916602001610423565b928284526020838301011161041f57815f9260208093018386015e830101529056fe6080806040526004361015610012575f80fd5b5f3560e01c90816306fdde031461052b57508063095ea7b3146104a957806318160ddd1461048c57806323b872dd146103ad578063313ce5671461038d57806340c10f19146102eb57806370a08231146102b45780638da5cb5b1461028c57806395d89b4114610171578063a035b1fe146100b6578063a9059cbb14610140578063d03a404514610127578063dd62ed3e146100d75763e1aa6036146100b6575f80fd5b346100d3575f3660031901126100d3576020600654604051908152f35b5f80fd5b346100d35760403660031901126100d3576100f0610624565b6100f861063a565b6001600160a01b039182165f908152600160209081526040808320949093168252928352819020549051908152f35b346100d35760203660031901126100d357600435600655005b346100d35760403660031901126100d35761016661015c610624565b6024359033610650565b602060405160018152f35b346100d3575f3660031901126100d3576040515f6004548060011c90600181168015610282575b60208310811461026e5782855290811561025257506001146101fd575b50819003601f01601f191681019067ffffffffffffffff8211818310176101e9576101e5829182604052826105fa565b0390f35b634e487b7160e01b5f52604160045260245ffd5b905060045f527f8a35acfbc15ff81a39ae7d344fd709f28e8600b4aa8c65c6b64bfe7fe36bd19b5f905b82821061023c575060209150820101826101b5565b6001816020925483858801015201910190610227565b90506020925060ff191682840152151560051b820101826101b5565b634e487b7160e01b5f52602260045260245ffd5b91607f1691610198565b346100d3575f3660031901126100d3576007546040516001600160a01b039091168152602090f35b346100d35760203660031901126100d3576001600160a01b036102d5610624565b165f525f602052602060405f2054604051908152f35b346100d35760403660031901126100d357610304610624565b6001600160a01b0316602435811561037a57600254908082018092116103665760207fddf252ad1be2c89b69c2b068fc378daa952ba7f163c4a11628f55a4df523b3ef915f9360025584845283825260408420818154019055604051908152a3005b634e487b7160e01b5f52601160045260245ffd5b63ec442f0560e01b5f525f60045260245ffd5b346100d3575f3660031901126100d357602060ff60055416604051908152f35b346100d35760603660031901126100d3576103c6610624565b6103ce61063a565b6001600160a01b0382165f818152600160209081526040808320338452909152902054909260443592915f19811061040c575b506101669350610650565b83811061047157841561045e57331561044b57610166945f52600160205260405f2060018060a01b0333165f526020528360405f209103905584610401565b634a1406b160e11b5f525f60045260245ffd5b63e602df0560e01b5f525f60045260245ffd5b8390637dc7a0d960e11b5f523360045260245260445260645ffd5b346100d3575f3660031901126100d3576020600254604051908152f35b346100d35760403660031901126100d3576104c2610624565b60243590331561045e576001600160a01b031690811561044b57335f52600160205260405f20825f526020528060405f20556040519081527f8c5be1e5ebec7d5bd14f71427d1e84f3dd0314c0f7b2291e5b200ac8c7c3b92560203392a3602060405160018152f35b346100d3575f3660031901126100d3575f6003548060011c906001811680156105f0575b60208310811461026e57828552908115610252575060011461059b5750819003601f01601f191681019067ffffffffffffffff8211818310176101e9576101e5829182604052826105fa565b905060035f527fc2575a0e9e593c00f959f8c92f12db2869c3395a3b0502d05e2516446f71f85b5f905b8282106105da575060209150820101826101b5565b60018160209254838588010152019101906105c5565b91607f169161054f565b602060409281835280519182918282860152018484015e5f828201840152601f01601f1916010190565b600435906001600160a01b03821682036100d357565b602435906001600160a01b03821682036100d357565b6001600160a01b03169081156106e7576001600160a01b031691821561037a57815f525f60205260405f20548181106106ce57817fddf252ad1be2c89b69c2b068fc378daa952ba7f163c4a11628f55a4df523b3ef92602092855f525f84520360405f2055845f525f825260405f20818154019055604051908152a3565b8263391434e360e21b5f5260045260245260445260645ffd5b634b637e8f60e11b5f525f60045260245ffdfea26469706673582212205c39712fbe8b8553b0861089959a3df72b5d186974f2b84d34b8ca4462e4c82964736f6c634300081c003300000000000000000000000000000000000000000000000000000000000000c0000000000000000000000000000000000000000000000000000000000000010000000000000000000000000000000000000000000000d3c21bcecceda100000000000000000000000000000000000000000000000000000000000000000000120000000000000000000000000000000000000000000000000aaf96eb9d0d00000000000000000000000000003b4f0135465d444a5bd06ab90fc59b73916c85f50000000000000000000000000000000000000000000000000000000000000009646f67776966686174000000000000000000000000000000000000000000000000000000000000000000000000000000000000000000000000000000000000035749460000000000000000000000000000000000000000000000000000000000"
        }
      ],
      "isFixedGasLimit": false
    },
    {
      "hash": "0xa4bbd2418c495525920d0f7118cc8a96d759fa650b05d38c41845afde174ec30",
      "transactionType": "CALL",
      "contractName": "MockToken",
      "contractAddress": "0xe8451691d43ae8c3991ae087731249e5c29d3e41",
      "function": "approve(address,uint256)",
      "arguments": [
        "0xf44f2527d964EF4a8a38c0E676c05a1dc8574fFa",
        "1298701298701298701298701"
      ],
      "transaction": {
        "from": "0x3b4f0135465d444a5bd06ab90fc59b73916c85f5",
        "to": "0xe8451691d43ae8c3991ae087731249e5c29d3e41",
        "gas": "0x106e3",
        "value": "0x0",
        "input": "0x095ea7b3000000000000000000000000f44f2527d964ef4a8a38c0e676c05a1dc8574ffa000000000000000000000000000000000000000000011302bd0c9273c71dec0d",
        "nonce": "0xd3",
        "chainId": "0xdede"
      },
      "additionalContracts": [],
      "isFixedGasLimit": false
    },
    {
      "hash": "0x8a7d9d796e780e2011a6d29935681b14937e8bad65a1f944fa64aa4ed13ca704",
      "transactionType": "CALL",
      "contractName": "Core",
      "contractAddress": "0xf44f2527d964ef4a8a38c0e676c05a1dc8574ffa",
      "function": "addLiquidity(address,uint256)",
      "arguments": [
        "0xe8451691d43AE8C3991Ae087731249E5C29d3e41",
        "1298701298701298701298701"
      ],
      "transaction": {
        "from": "0x3b4f0135465d444a5bd06ab90fc59b73916c85f5",
        "to": "0xf44f2527d964ef4a8a38c0e676c05a1dc8574ffa",
        "gas": "0x1c454",
        "value": "0x0",
        "input": "0x56688700000000000000000000000000e8451691d43ae8c3991ae087731249e5c29d3e41000000000000000000000000000000000000000000011302bd0c9273c71dec0d",
        "nonce": "0xd4",
        "chainId": "0xdede"
      },
      "additionalContracts": [],
      "isFixedGasLimit": false
    },
    {
      "hash": "0x1492c1ba9b8c390e934b646d9b4509edf119b8d7e0867d41499c7db4e334df91",
      "transactionType": "CALL",
      "contractName": "TokenFactory",
      "contractAddress": "0xb3ad7f7409a49e9c1f041bd979578e11e3c3d1ce",
      "function": "createToken(string,string,uint256,uint8,uint256)",
      "arguments": [
        "STONKS",
        "STONKS",
        "1000000000000000000000000",
        "18",
        "50000000000000000"
      ],
      "transaction": {
        "from": "0x3b4f0135465d444a5bd06ab90fc59b73916c85f5",
        "to": "0xb3ad7f7409a49e9c1f041bd979578e11e3c3d1ce",
        "gas": "0xc63f0",
        "value": "0x0",
        "input": "0xedd8112300000000000000000000000000000000000000000000000000000000000000a000000000000000000000000000000000000000000000000000000000000000e000000000000000000000000000000000000000000000d3c21bcecceda1000000000000000000000000000000000000000000000000000000000000000000001200000000000000000000000000000000000000000000000000b1a2bc2ec50000000000000000000000000000000000000000000000000000000000000000000653544f4e4b530000000000000000000000000000000000000000000000000000000000000000000000000000000000000000000000000000000000000000000653544f4e4b530000000000000000000000000000000000000000000000000000",
        "nonce": "0xd5",
        "chainId": "0xdede"
      },
      "additionalContracts": [
        {
          "transactionType": "CREATE",
          "address": "0x89e5697915a12f8448b27f00795754e3dfe8d69b",
          "initCode": "0x60806040523461041f57610bca8038038061001981610423565b92833981019060c08183031261041f5780516001600160401b03811161041f5782610045918301610448565b602082015190926001600160401b03821161041f57610065918301610448565b60408201519160608101519160ff831680930361041f57608082015160a0909201516001600160a01b038116959086900361041f578051906001600160401b0382116103225760035490600182811c92168015610415575b60208310146103045781601f8493116103a7575b50602090601f8311600114610341575f92610336575b50508160011b915f199060031b1c1916176003555b8051906001600160401b0382116103225760045490600182811c92168015610318575b60208310146103045781601f849311610296575b50602090601f8311600114610230575f92610225575b50508160011b915f199060031b1c1916176004555b6005805460ff191683179055600780546001600160a01b03191685179055600655604d81116101fe57600a0a908181029181830414901517156101fe57811561021257600254908082018092116101fe5760207fddf252ad1be2c89b69c2b068fc378daa952ba7f163c4a11628f55a4df523b3ef915f9360025584845283825260408420818154019055604051908152a3604051610730908161049a8239f35b634e487b7160e01b5f52601160045260245ffd5b63ec442f0560e01b5f525f60045260245ffd5b015190505f80610149565b60045f9081528281209350601f198516905b81811061027e5750908460019594939210610266575b505050811b0160045561015e565b01515f1960f88460031b161c191690555f8080610258565b92936020600181928786015181550195019301610242565b60045f529091507f8a35acfbc15ff81a39ae7d344fd709f28e8600b4aa8c65c6b64bfe7fe36bd19b601f840160051c810191602085106102fa575b90601f859493920160051c01905b8181106102ec5750610133565b5f81558493506001016102df565b90915081906102d1565b634e487b7160e01b5f52602260045260245ffd5b91607f169161011f565b634e487b7160e01b5f52604160045260245ffd5b015190505f806100e7565b60035f9081528281209350601f198516905b81811061038f5750908460019594939210610377575b505050811b016003556100fc565b01515f1960f88460031b161c191690555f8080610369565b92936020600181928786015181550195019301610353565b60035f529091507fc2575a0e9e593c00f959f8c92f12db2869c3395a3b0502d05e2516446f71f85b601f840160051c8101916020851061040b575b90601f859493920160051c01905b8181106103fd57506100d1565b5f81558493506001016103f0565b90915081906103e2565b91607f16916100bd565b5f80fd5b6040519190601f01601f191682016001600160401b0381118382101761032257604052565b81601f8201121561041f578051906001600160401b03821161032257610477601f8301601f1916602001610423565b928284526020838301011161041f57815f9260208093018386015e830101529056fe6080806040526004361015610012575f80fd5b5f3560e01c90816306fdde031461052b57508063095ea7b3146104a957806318160ddd1461048c57806323b872dd146103ad578063313ce5671461038d57806340c10f19146102eb57806370a08231146102b45780638da5cb5b1461028c57806395d89b4114610171578063a035b1fe146100b6578063a9059cbb14610140578063d03a404514610127578063dd62ed3e146100d75763e1aa6036146100b6575f80fd5b346100d3575f3660031901126100d3576020600654604051908152f35b5f80fd5b346100d35760403660031901126100d3576100f0610624565b6100f861063a565b6001600160a01b039182165f908152600160209081526040808320949093168252928352819020549051908152f35b346100d35760203660031901126100d357600435600655005b346100d35760403660031901126100d35761016661015c610624565b6024359033610650565b602060405160018152f35b346100d3575f3660031901126100d3576040515f6004548060011c90600181168015610282575b60208310811461026e5782855290811561025257506001146101fd575b50819003601f01601f191681019067ffffffffffffffff8211818310176101e9576101e5829182604052826105fa565b0390f35b634e487b7160e01b5f52604160045260245ffd5b905060045f527f8a35acfbc15ff81a39ae7d344fd709f28e8600b4aa8c65c6b64bfe7fe36bd19b5f905b82821061023c575060209150820101826101b5565b6001816020925483858801015201910190610227565b90506020925060ff191682840152151560051b820101826101b5565b634e487b7160e01b5f52602260045260245ffd5b91607f1691610198565b346100d3575f3660031901126100d3576007546040516001600160a01b039091168152602090f35b346100d35760203660031901126100d3576001600160a01b036102d5610624565b165f525f602052602060405f2054604051908152f35b346100d35760403660031901126100d357610304610624565b6001600160a01b0316602435811561037a57600254908082018092116103665760207fddf252ad1be2c89b69c2b068fc378daa952ba7f163c4a11628f55a4df523b3ef915f9360025584845283825260408420818154019055604051908152a3005b634e487b7160e01b5f52601160045260245ffd5b63ec442f0560e01b5f525f60045260245ffd5b346100d3575f3660031901126100d357602060ff60055416604051908152f35b346100d35760603660031901126100d3576103c6610624565b6103ce61063a565b6001600160a01b0382165f818152600160209081526040808320338452909152902054909260443592915f19811061040c575b506101669350610650565b83811061047157841561045e57331561044b57610166945f52600160205260405f2060018060a01b0333165f526020528360405f209103905584610401565b634a1406b160e11b5f525f60045260245ffd5b63e602df0560e01b5f525f60045260245ffd5b8390637dc7a0d960e11b5f523360045260245260445260645ffd5b346100d3575f3660031901126100d3576020600254604051908152f35b346100d35760403660031901126100d3576104c2610624565b60243590331561045e576001600160a01b031690811561044b57335f52600160205260405f20825f526020528060405f20556040519081527f8c5be1e5ebec7d5bd14f71427d1e84f3dd0314c0f7b2291e5b200ac8c7c3b92560203392a3602060405160018152f35b346100d3575f3660031901126100d3575f6003548060011c906001811680156105f0575b60208310811461026e57828552908115610252575060011461059b5750819003601f01601f191681019067ffffffffffffffff8211818310176101e9576101e5829182604052826105fa565b905060035f527fc2575a0e9e593c00f959f8c92f12db2869c3395a3b0502d05e2516446f71f85b5f905b8282106105da575060209150820101826101b5565b60018160209254838588010152019101906105c5565b91607f169161054f565b602060409281835280519182918282860152018484015e5f828201840152601f01601f1916010190565b600435906001600160a01b03821682036100d357565b602435906001600160a01b03821682036100d357565b6001600160a01b03169081156106e7576001600160a01b031691821561037a57815f525f60205260405f20548181106106ce57817fddf252ad1be2c89b69c2b068fc378daa952ba7f163c4a11628f55a4df523b3ef92602092855f525f84520360405f2055845f525f825260405f20818154019055604051908152a3565b8263391434e360e21b5f5260045260245260445260645ffd5b634b637e8f60e11b5f525f60045260245ffdfea26469706673582212205c39712fbe8b8553b0861089959a3df72b5d186974f2b84d34b8ca4462e4c82964736f6c634300081c003300000000000000000000000000000000000000000000000000000000000000c0000000000000000000000000000000000000000000000000000000000000010000000000000000000000000000000000000000000000d3c21bcecceda1000000000000000000000000000000000000000000000000000000000000000000001200000000000000000000000000000000000000000000000000b1a2bc2ec500000000000000000000000000003b4f0135465d444a5bd06ab90fc59b73916c85f5000000000000000000000000000000000000000000000000000000000000000653544f4e4b530000000000000000000000000000000000000000000000000000000000000000000000000000000000000000000000000000000000000000000653544f4e4b530000000000000000000000000000000000000000000000000000"
        }
      ],
      "isFixedGasLimit": false
    },
    {
      "hash": "0x0a859db640a7bde74a89479f65fce4a84cf089878a7d874cc8f0baf820738cee",
      "transactionType": "CALL",
      "contractName": "MockToken",
      "contractAddress": "0x89e5697915a12f8448b27f00795754e3dfe8d69b",
      "function": "approve(address,uint256)",
      "arguments": [
        "0xf44f2527d964EF4a8a38c0E676c05a1dc8574fFa",
        "20000000000000000000000000"
      ],
      "transaction": {
        "from": "0x3b4f0135465d444a5bd06ab90fc59b73916c85f5",
        "to": "0x89e5697915a12f8448b27f00795754e3dfe8d69b",
        "gas": "0xf816",
        "value": "0x0",
        "input": "0x095ea7b3000000000000000000000000f44f2527d964ef4a8a38c0e676c05a1dc8574ffa000000000000000000000000000000000000000000108b2a2c28029094000000",
        "nonce": "0xd6",
        "chainId": "0xdede"
      },
      "additionalContracts": [],
      "isFixedGasLimit": false
    },
    {
      "hash": "0xdfd96f7ff454bbb1e5004b26c183884254f9f31e2bb1d7e5477d8eabeb1875b4",
      "transactionType": "CALL",
      "contractName": "Core",
      "contractAddress": "0xf44f2527d964ef4a8a38c0e676c05a1dc8574ffa",
      "function": "addLiquidity(address,uint256)",
      "arguments": [
        "0x89E5697915A12f8448B27F00795754E3dFE8D69b",
        "20000000000000000000000000"
      ],
      "transaction": {
        "from": "0x3b4f0135465d444a5bd06ab90fc59b73916c85f5",
        "to": "0xf44f2527d964ef4a8a38c0e676c05a1dc8574ffa",
        "gas": "0x1c40e",
        "value": "0x0",
        "input": "0x5668870000000000000000000000000089e5697915a12f8448b27f00795754e3dfe8d69b000000000000000000000000000000000000000000108b2a2c28029094000000",
        "nonce": "0xd7",
        "chainId": "0xdede"
      },
      "additionalContracts": [],
      "isFixedGasLimit": false
    }
  ],
  "receipts": [
    {
      "status": "0x1",
      "cumulativeGasUsed": "0xd1281",
      "logs": [],
      "logsBloom": "0x00000000000000000000000000000000000000000000000000000000000000000000000000000000000000000000000000000000000000000000000000000000000000000000000000000000000000000000000000000000000000000000000000000000000000000000000000000000000000000000000000000000000000000000000000000000000000000000000000000000000000000000000000000000000000000000000000000000000000000000000000000000000000000000000000000000000000000000000000000000000000000000000000000000000000000000000000000000000000000000000000000000000000000000000000000000",
      "type": "0x2",
      "transactionHash": "0x7c9b45f4f09dd510651de26a14bf5af589b56603bbb9623393c5de8037036a26",
      "transactionIndex": "0x0",
      "blockHash": "0x049c9726de3d256e626752bb7032e88f33e4472fbf6b1d18a14af0e5c7cf7308",
      "blockNumber": "0x17cb530",
      "gasUsed": "0xd1281",
      "effectiveGasPrice": "0x3b9aca01",
      "from": "0x3b4f0135465d444a5bd06ab90fc59b73916c85f5",
      "to": null,
      "contractAddress": "0xb3ad7f7409a49e9c1f041bd979578e11e3c3d1ce"
    },
    {
      "status": "0x1",
      "cumulativeGasUsed": "0x75622",
      "logs": [],
      "logsBloom": "0x00000000000000000000000000000000000000000000000000000000000000000000000000000000000000000000000000000000000000000000000000000000000000000000000000000000000000000000000000000000000000000000000000000000000000000000000000000000000000000000000000000000000000000000000000000000000000000000000000000000000000000000000000000000000000000000000000000000000000000000000000000000000000000000000000000000000000000000000000000000000000000000000000000000000000000000000000000000000000000000000000000000000000000000000000000000",
      "type": "0x2",
      "transactionHash": "0xadc9b9e05cb74d70c89c57f86d528c748c3521bca1f90339f5be27e64b084c1c",
      "transactionIndex": "0x0",
      "blockHash": "0xa06eff5508d5a469dd4cfa747f6eb77e93bc7e0c8a03ed349ad4673e2114c01f",
      "blockNumber": "0x17cb532",
      "gasUsed": "0x75622",
      "effectiveGasPrice": "0x3b9aca01",
      "from": "0x3b4f0135465d444a5bd06ab90fc59b73916c85f5",
      "to": null,
      "contractAddress": "0xf44f2527d964ef4a8a38c0e676c05a1dc8574ffa"
    },
    {
      "status": "0x1",
      "cumulativeGasUsed": "0x10b886",
      "logs": [
        {
          "address": "0xb8aead172f82b4bcc5f001df218c3f6f84527359",
          "topics": [
            "0xddf252ad1be2c89b69c2b068fc378daa952ba7f163c4a11628f55a4df523b3ef",
            "0x0000000000000000000000000000000000000000000000000000000000000000",
            "0x0000000000000000000000003b4f0135465d444a5bd06ab90fc59b73916c85f5"
          ],
          "data": "0x00000000000000000000000000000b7abc627050305adf14a3d9e40000000000",
          "blockHash": "0xa06eff5508d5a469dd4cfa747f6eb77e93bc7e0c8a03ed349ad4673e2114c01f",
          "blockNumber": "0x17cb532",
          "transactionHash": "0x90dee3070c3e65fa8ce90d6f8a97e9976a30a366ac25bae8f15c02016c0b281e",
          "transactionIndex": "0x1",
          "logIndex": "0x0",
          "removed": false
        },
        {
          "address": "0xb3ad7f7409a49e9c1f041bd979578e11e3c3d1ce",
          "topics": [
            "0xaf5156078ffc09d447c818754d2e4310cc3f95e36cb33f85723785b122371ed5",
            "0x000000000000000000000000b8aead172f82b4bcc5f001df218c3f6f84527359"
          ],
          "data": "0x00000000000000000000000000000000000000000000000000000000000000c0000000000000000000000000000000000000000000000000000000000000010000000000000000000000000000000000000000000000d3c21bcecceda100000000000000000000000000000000000000000000000000000000000000000000120000000000000000000000000000000000000000000000000de0b6b3a76400000000000000000000000000003b4f0135465d444a5bd06ab90fc59b73916c85f50000000000000000000000000000000000000000000000000000000000000005534f4e494300000000000000000000000000000000000000000000000000000000000000000000000000000000000000000000000000000000000000000000015300000000000000000000000000000000000000000000000000000000000000",
          "blockHash": "0xa06eff5508d5a469dd4cfa747f6eb77e93bc7e0c8a03ed349ad4673e2114c01f",
          "blockNumber": "0x17cb532",
          "transactionHash": "0x90dee3070c3e65fa8ce90d6f8a97e9976a30a366ac25bae8f15c02016c0b281e",
          "transactionIndex": "0x1",
          "logIndex": "0x1",
          "removed": false
        }
      ],
      "logsBloom": "0x00000000000000000080000000000000000000000000000000000020000000000000000000000000000000000000000000000000000000080000000004400000000000000000000000800008000000000000000000000000000000000000002000000000020000000000000000000800000000000000000000000010000000000000000000000000000000000000000000000000000000000000000000000000000000000000000000000000000000000000000000010000000020400000000000000102000000000000000000000000000000000000000002000000000020000000000000000000002000000000000000000000400000000000000000002000",
      "type": "0x2",
      "transactionHash": "0x90dee3070c3e65fa8ce90d6f8a97e9976a30a366ac25bae8f15c02016c0b281e",
      "transactionIndex": "0x1",
      "blockHash": "0xa06eff5508d5a469dd4cfa747f6eb77e93bc7e0c8a03ed349ad4673e2114c01f",
      "blockNumber": "0x17cb532",
      "gasUsed": "0x96264",
      "effectiveGasPrice": "0x3b9aca01",
      "from": "0x3b4f0135465d444a5bd06ab90fc59b73916c85f5",
      "to": "0xb3ad7f7409a49e9c1f041bd979578e11e3c3d1ce",
      "contractAddress": null
    },
    {
      "status": "0x1",
      "cumulativeGasUsed": "0x117465",
      "logs": [
        {
          "address": "0xb8aead172f82b4bcc5f001df218c3f6f84527359",
          "topics": [
            "0x8c5be1e5ebec7d5bd14f71427d1e84f3dd0314c0f7b2291e5b200ac8c7c3b925",
            "0x0000000000000000000000003b4f0135465d444a5bd06ab90fc59b73916c85f5",
            "0x000000000000000000000000f44f2527d964ef4a8a38c0e676c05a1dc8574ffa"
          ],
          "data": "0x00000000000000000000000000000000000000000000d3c21bcecceda1000000",
          "blockHash": "0xa06eff5508d5a469dd4cfa747f6eb77e93bc7e0c8a03ed349ad4673e2114c01f",
          "blockNumber": "0x17cb532",
          "transactionHash": "0xdac46966ce6bb8b71c40e88372beadd1615551e18c92335f58cacfdb7d1a4df5",
          "transactionIndex": "0x2",
          "logIndex": "0x2",
          "removed": false
        }
      ],
      "logsBloom": "0x00000000000000000000000000000000000000000000000000000020000000000000000000000000000000000000000000000000000000000000000000600000000000000000000000800000000000000000000000000000000000000000002000000000000000000000000000000000000000000000000000000000000000000000000000000000000000000000000000000000000000000000000000000000020000000080000000000002000000000000000000000000000000000000000000000100000000000000000000020000000000000000000000000000000000000010000000000000002000000000000000000000000000000000000000000000",
      "type": "0x2",
      "transactionHash": "0xdac46966ce6bb8b71c40e88372beadd1615551e18c92335f58cacfdb7d1a4df5",
      "transactionIndex": "0x2",
      "blockHash": "0xa06eff5508d5a469dd4cfa747f6eb77e93bc7e0c8a03ed349ad4673e2114c01f",
      "blockNumber": "0x17cb532",
      "gasUsed": "0xbbdf",
      "effectiveGasPrice": "0x3b9aca01",
      "from": "0x3b4f0135465d444a5bd06ab90fc59b73916c85f5",
      "to": "0xb8aead172f82b4bcc5f001df218c3f6f84527359",
      "contractAddress": null
    },
    {
      "status": "0x1",
      "cumulativeGasUsed": "0x12b5e9",
      "logs": [
        {
          "address": "0xb8aead172f82b4bcc5f001df218c3f6f84527359",
          "topics": [
            "0xddf252ad1be2c89b69c2b068fc378daa952ba7f163c4a11628f55a4df523b3ef",
            "0x0000000000000000000000003b4f0135465d444a5bd06ab90fc59b73916c85f5",
            "0x000000000000000000000000f44f2527d964ef4a8a38c0e676c05a1dc8574ffa"
          ],
          "data": "0x00000000000000000000000000000000000000000000d3c21bcecceda1000000",
          "blockHash": "0xa06eff5508d5a469dd4cfa747f6eb77e93bc7e0c8a03ed349ad4673e2114c01f",
          "blockNumber": "0x17cb532",
          "transactionHash": "0x648126c3224de62b9fd2180a737020b2aadb66ddf0d26e565d960c4de86e2d09",
          "transactionIndex": "0x3",
          "logIndex": "0x3",
          "removed": false
        },
        {
          "address": "0xf44f2527d964ef4a8a38c0e676c05a1dc8574ffa",
          "topics": [
            "0x9d278c56ba6dc86a12eefe6b43112bd6e06648eb4ec0b950ee2d783d40e2acb4",
            "0x0000000000000000000000003b4f0135465d444a5bd06ab90fc59b73916c85f5"
          ],
          "data": "0x000000000000000000000000b8aead172f82b4bcc5f001df218c3f6f8452735900000000000000000000000000000000000000000000d3c21bcecceda1000000",
          "blockHash": "0xa06eff5508d5a469dd4cfa747f6eb77e93bc7e0c8a03ed349ad4673e2114c01f",
          "blockNumber": "0x17cb532",
          "transactionHash": "0x648126c3224de62b9fd2180a737020b2aadb66ddf0d26e565d960c4de86e2d09",
          "transactionIndex": "0x3",
          "logIndex": "0x4",
          "removed": false
        }
      ],
      "logsBloom": "0x00000000000000000000000000000000000000000000002000000020000000000000000000000000000000000000000000000000000000000000000000400000000000000000000000800008000000000000000000000000000000000000002000000000000000000000000000000000000000000200000000000010010000000000000000000000000000000000000000000000000000000000000000000000000000000080000200000002000000000000000010000000000000000000000000000102000000000000000000020000000000000000000000000000000000000000000400000000002000000000000000000000000000000000000000000000",
      "type": "0x2",
      "transactionHash": "0x648126c3224de62b9fd2180a737020b2aadb66ddf0d26e565d960c4de86e2d09",
      "transactionIndex": "0x3",
      "blockHash": "0xa06eff5508d5a469dd4cfa747f6eb77e93bc7e0c8a03ed349ad4673e2114c01f",
      "blockNumber": "0x17cb532",
      "gasUsed": "0x14184",
      "effectiveGasPrice": "0x3b9aca01",
      "from": "0x3b4f0135465d444a5bd06ab90fc59b73916c85f5",
      "to": "0xf44f2527d964ef4a8a38c0e676c05a1dc8574ffa",
      "contractAddress": null
    },
    {
      "status": "0x1",
      "cumulativeGasUsed": "0x962b0",
      "logs": [
        {
          "address": "0x09c0ce218899706430c0eb0e0672d66fc880b3d6",
          "topics": [
            "0xddf252ad1be2c89b69c2b068fc378daa952ba7f163c4a11628f55a4df523b3ef",
            "0x0000000000000000000000000000000000000000000000000000000000000000",
            "0x0000000000000000000000003b4f0135465d444a5bd06ab90fc59b73916c85f5"
          ],
          "data": "0x00000000000000000000000000000b7abc627050305adf14a3d9e40000000000",
          "blockHash": "0x42511b67e0f27942dd6555fbc5f34622192b7616bcb97ddfa636e1a1d17896b4",
          "blockNumber": "0x17cb534",
          "transactionHash": "0xecfbfdb7fe63cd143decb963646b3756e13e4f69c454efa29125aa12ad0ed5dc",
          "transactionIndex": "0x0",
          "logIndex": "0x0",
          "removed": false
        },
        {
          "address": "0xb3ad7f7409a49e9c1f041bd979578e11e3c3d1ce",
          "topics": [
            "0xaf5156078ffc09d447c818754d2e4310cc3f95e36cb33f85723785b122371ed5",
            "0x00000000000000000000000009c0ce218899706430c0eb0e0672d66fc880b3d6"
          ],
          "data": "0x00000000000000000000000000000000000000000000000000000000000000c0000000000000000000000000000000000000000000000000000000000000010000000000000000000000000000000000000000000000d3c21bcecceda1000000000000000000000000000000000000000000000000000000000000000000001200000000000000000000000000000000000000000000009365b47e1edf1c00000000000000000000000000003b4f0135465d444a5bd06ab90fc59b73916c85f50000000000000000000000000000000000000000000000000000000000000008457468657265756d00000000000000000000000000000000000000000000000000000000000000000000000000000000000000000000000000000000000000034554480000000000000000000000000000000000000000000000000000000000",
          "blockHash": "0x42511b67e0f27942dd6555fbc5f34622192b7616bcb97ddfa636e1a1d17896b4",
          "blockNumber": "0x17cb534",
          "transactionHash": "0xecfbfdb7fe63cd143decb963646b3756e13e4f69c454efa29125aa12ad0ed5dc",
          "transactionIndex": "0x0",
          "logIndex": "0x1",
          "removed": false
        }
      ],
      "logsBloom": "0x00000000000000000080000000000000000000000000000000000020000000000000000000000000000000002000000000000002000000000000000004400000000000000000000000002008000000000000000000000000000000000000000000000000020000000000000000000800000000000000000000000010008000000000000000000000000000000000000020000000000000000000000000000000000000000000000000000000000000000000000000010000000000400000000000000102000000000000000000000000000000000000000002000000000020000000080000000000000000000000000000000000000000000000000000002000",
      "type": "0x2",
      "transactionHash": "0xecfbfdb7fe63cd143decb963646b3756e13e4f69c454efa29125aa12ad0ed5dc",
      "transactionIndex": "0x0",
      "blockHash": "0x42511b67e0f27942dd6555fbc5f34622192b7616bcb97ddfa636e1a1d17896b4",
      "blockNumber": "0x17cb534",
      "gasUsed": "0x962b0",
      "effectiveGasPrice": "0x3b9aca01",
      "from": "0x3b4f0135465d444a5bd06ab90fc59b73916c85f5",
      "to": "0xb3ad7f7409a49e9c1f041bd979578e11e3c3d1ce",
      "contractAddress": null
    },
    {
      "status": "0x1",
      "cumulativeGasUsed": "0xa1ea8",
      "logs": [
        {
          "address": "0x09c0ce218899706430c0eb0e0672d66fc880b3d6",
          "topics": [
            "0x8c5be1e5ebec7d5bd14f71427d1e84f3dd0314c0f7b2291e5b200ac8c7c3b925",
            "0x0000000000000000000000003b4f0135465d444a5bd06ab90fc59b73916c85f5",
            "0x000000000000000000000000f44f2527d964ef4a8a38c0e676c05a1dc8574ffa"
          ],
          "data": "0x000000000000000000000000000000000000000000000013f0011c9a7f42487f",
          "blockHash": "0x42511b67e0f27942dd6555fbc5f34622192b7616bcb97ddfa636e1a1d17896b4",
          "blockNumber": "0x17cb534",
          "transactionHash": "0xe4b6d40fb3d3b589b563e63ee3e2c44d20120a50bea10f9d4a06dca42385ff7f",
          "transactionIndex": "0x1",
          "logIndex": "0x2",
          "removed": false
        }
      ],
      "logsBloom": "0x00000000000000000000000000000000000000000000000000000020000000000000000000000000000000000000000000000002000000000000000000600000000000000000000000000000000000000000000000000000000000000000000000000000000000000000000000000000000000000000000000000000000000000000000000000000000000000000000020000000000000000000000000000000020000000080000000000002000000000000000000000000000000000000000000000100000000000000000000020000000000000000000000000000000000000010080000000000000000000000000000000000000000000000000000000000",
      "type": "0x2",
      "transactionHash": "0xe4b6d40fb3d3b589b563e63ee3e2c44d20120a50bea10f9d4a06dca42385ff7f",
      "transactionIndex": "0x1",
      "blockHash": "0x42511b67e0f27942dd6555fbc5f34622192b7616bcb97ddfa636e1a1d17896b4",
      "blockNumber": "0x17cb534",
      "gasUsed": "0xbbf8",
      "effectiveGasPrice": "0x3b9aca01",
      "from": "0x3b4f0135465d444a5bd06ab90fc59b73916c85f5",
      "to": "0x09c0ce218899706430c0eb0e0672d66fc880b3d6",
      "contractAddress": null
    },
    {
      "status": "0x1",
      "cumulativeGasUsed": "0xb6045",
      "logs": [
        {
          "address": "0x09c0ce218899706430c0eb0e0672d66fc880b3d6",
          "topics": [
            "0xddf252ad1be2c89b69c2b068fc378daa952ba7f163c4a11628f55a4df523b3ef",
            "0x0000000000000000000000003b4f0135465d444a5bd06ab90fc59b73916c85f5",
            "0x000000000000000000000000f44f2527d964ef4a8a38c0e676c05a1dc8574ffa"
          ],
          "data": "0x000000000000000000000000000000000000000000000013f0011c9a7f42487f",
          "blockHash": "0x42511b67e0f27942dd6555fbc5f34622192b7616bcb97ddfa636e1a1d17896b4",
          "blockNumber": "0x17cb534",
          "transactionHash": "0x3813e542a79656c2c7f7f6d7803158f75e60d6a0b60accf4cbe994209f0a5198",
          "transactionIndex": "0x2",
          "logIndex": "0x3",
          "removed": false
        },
        {
          "address": "0xf44f2527d964ef4a8a38c0e676c05a1dc8574ffa",
          "topics": [
            "0x9d278c56ba6dc86a12eefe6b43112bd6e06648eb4ec0b950ee2d783d40e2acb4",
            "0x0000000000000000000000003b4f0135465d444a5bd06ab90fc59b73916c85f5"
          ],
          "data": "0x00000000000000000000000009c0ce218899706430c0eb0e0672d66fc880b3d6000000000000000000000000000000000000000000000013f0011c9a7f42487f",
          "blockHash": "0x42511b67e0f27942dd6555fbc5f34622192b7616bcb97ddfa636e1a1d17896b4",
          "blockNumber": "0x17cb534",
          "transactionHash": "0x3813e542a79656c2c7f7f6d7803158f75e60d6a0b60accf4cbe994209f0a5198",
          "transactionIndex": "0x2",
          "logIndex": "0x4",
          "removed": false
        }
      ],
      "logsBloom": "0x00000000000000000000000000000000000000000000002000000020000000000000000000000000000000000000000000000002000000000000000000400000000000000000000000000008000000000000000000000000000000000000000000000000000000000000000000000000000000000200000000000010010000000000000000000000000000000000000020000000000000000000000000000000000000000080000200000002000000000000000010000000000000000000000000000102000000000000000000020000000000000000000000000000000000000000080400000000000000000000000000000000000000000000000000000000",
      "type": "0x2",
      "transactionHash": "0x3813e542a79656c2c7f7f6d7803158f75e60d6a0b60accf4cbe994209f0a5198",
      "transactionIndex": "0x2",
      "blockHash": "0x42511b67e0f27942dd6555fbc5f34622192b7616bcb97ddfa636e1a1d17896b4",
      "blockNumber": "0x17cb534",
      "gasUsed": "0x1419d",
      "effectiveGasPrice": "0x3b9aca01",
      "from": "0x3b4f0135465d444a5bd06ab90fc59b73916c85f5",
      "to": "0xf44f2527d964ef4a8a38c0e676c05a1dc8574ffa",
      "contractAddress": null
    },
    {
      "status": "0x1",
      "cumulativeGasUsed": "0x14c2f5",
      "logs": [
        {
          "address": "0x5af60e853cf5f061ad2dbee25dfe64f277dbec01",
          "topics": [
            "0xddf252ad1be2c89b69c2b068fc378daa952ba7f163c4a11628f55a4df523b3ef",
            "0x0000000000000000000000000000000000000000000000000000000000000000",
            "0x0000000000000000000000003b4f0135465d444a5bd06ab90fc59b73916c85f5"
          ],
          "data": "0x00000000000000000000000000000b7abc627050305adf14a3d9e40000000000",
          "blockHash": "0x42511b67e0f27942dd6555fbc5f34622192b7616bcb97ddfa636e1a1d17896b4",
          "blockNumber": "0x17cb534",
          "transactionHash": "0xaf9f3ce9cbb965b75bf671da01332778908aa1193c7acfdd2b1c17fb87dc0337",
          "transactionIndex": "0x3",
          "logIndex": "0x5",
          "removed": false
        },
        {
          "address": "0xb3ad7f7409a49e9c1f041bd979578e11e3c3d1ce",
          "topics": [
            "0xaf5156078ffc09d447c818754d2e4310cc3f95e36cb33f85723785b122371ed5",
            "0x0000000000000000000000005af60e853cf5f061ad2dbee25dfe64f277dbec01"
          ],
          "data": "0x00000000000000000000000000000000000000000000000000000000000000c0000000000000000000000000000000000000000000000000000000000000010000000000000000000000000000000000000000000000d3c21bcecceda10000000000000000000000000000000000000000000000000000000000000000000012000000000000000000000000000000000000000000000dd3eb8b39c5afd000000000000000000000000000003b4f0135465d444a5bd06ab90fc59b73916c85f50000000000000000000000000000000000000000000000000000000000000007426974636f696e0000000000000000000000000000000000000000000000000000000000000000000000000000000000000000000000000000000000000000034254430000000000000000000000000000000000000000000000000000000000",
          "blockHash": "0x42511b67e0f27942dd6555fbc5f34622192b7616bcb97ddfa636e1a1d17896b4",
          "blockNumber": "0x17cb534",
          "transactionHash": "0xaf9f3ce9cbb965b75bf671da01332778908aa1193c7acfdd2b1c17fb87dc0337",
          "transactionIndex": "0x3",
          "logIndex": "0x6",
          "removed": false
        }
      ],
      "logsBloom": "0x00000000000000000080000000000000000000000000000000000020000000010000000000000000000000000000020000000000000000000000000004400000000000000000000000000008000000020400000000000000000000000000000000000000020000000000000000000800000000000000000000000010000000000000000000000000000000000000000000000000000000000000000000000000000000008000200000000000000000000000000000010000000000400000000000000102000000000000000000000000000000000000000002000000000020000000000000000000000000000000000000000000000000000000000000002000",
      "type": "0x2",
      "transactionHash": "0xaf9f3ce9cbb965b75bf671da01332778908aa1193c7acfdd2b1c17fb87dc0337",
      "transactionIndex": "0x3",
      "blockHash": "0x42511b67e0f27942dd6555fbc5f34622192b7616bcb97ddfa636e1a1d17896b4",
      "blockNumber": "0x17cb534",
      "gasUsed": "0x962b0",
      "effectiveGasPrice": "0x3b9aca01",
      "from": "0x3b4f0135465d444a5bd06ab90fc59b73916c85f5",
      "to": "0xb3ad7f7409a49e9c1f041bd979578e11e3c3d1ce",
      "contractAddress": null
    },
    {
      "status": "0x1",
      "cumulativeGasUsed": "0x157d6a",
      "logs": [
        {
          "address": "0x5af60e853cf5f061ad2dbee25dfe64f277dbec01",
          "topics": [
            "0x8c5be1e5ebec7d5bd14f71427d1e84f3dd0314c0f7b2291e5b200ac8c7c3b925",
            "0x0000000000000000000000003b4f0135465d444a5bd06ab90fc59b73916c85f5",
            "0x000000000000000000000000f44f2527d964ef4a8a38c0e676c05a1dc8574ffa"
          ],
          "data": "0x000000000000000000000000000000000000000000000000d486075d973505e1",
          "blockHash": "0x42511b67e0f27942dd6555fbc5f34622192b7616bcb97ddfa636e1a1d17896b4",
          "blockNumber": "0x17cb534",
          "transactionHash": "0xd4c63c3a5064945db29bbd810a850d90bd9232099e44b88a8d2ffe6fb04995aa",
          "transactionIndex": "0x4",
          "logIndex": "0x7",
          "removed": false
        }
      ],
      "logsBloom": "0x00000000000000000000000000000000000000000000000000000020000000000000000000000000000000000000020000000000000000000000000000600000000000000000000000000000000000000400000000000000000000000000000000000000000000000000000000000000000000000000000000000000000000000000000000000000000000000000000000000000000000000000000000000000020000000080200000000002000000000000000000000000000000000000000000000100000000000000000000020000000000000000000000000000000000000010000000000000000000000000000000000000000000000000000000000000",
      "type": "0x2",
      "transactionHash": "0xd4c63c3a5064945db29bbd810a850d90bd9232099e44b88a8d2ffe6fb04995aa",
      "transactionIndex": "0x4",
      "blockHash": "0x42511b67e0f27942dd6555fbc5f34622192b7616bcb97ddfa636e1a1d17896b4",
      "blockNumber": "0x17cb534",
      "gasUsed": "0xba75",
      "effectiveGasPrice": "0x3b9aca01",
      "from": "0x3b4f0135465d444a5bd06ab90fc59b73916c85f5",
      "to": "0x5af60e853cf5f061ad2dbee25dfe64f277dbec01",
      "contractAddress": null
    },
    {
      "status": "0x1",
      "cumulativeGasUsed": "0x16bc78",
      "logs": [
        {
          "address": "0x5af60e853cf5f061ad2dbee25dfe64f277dbec01",
          "topics": [
            "0xddf252ad1be2c89b69c2b068fc378daa952ba7f163c4a11628f55a4df523b3ef",
            "0x0000000000000000000000003b4f0135465d444a5bd06ab90fc59b73916c85f5",
            "0x000000000000000000000000f44f2527d964ef4a8a38c0e676c05a1dc8574ffa"
          ],
          "data": "0x000000000000000000000000000000000000000000000000d486075d973505e1",
          "blockHash": "0x42511b67e0f27942dd6555fbc5f34622192b7616bcb97ddfa636e1a1d17896b4",
          "blockNumber": "0x17cb534",
          "transactionHash": "0xd45ae10865b147a16d8ed9e81f61ae82bbe8dca7bb0e6fab01a09d0960a0f3c4",
          "transactionIndex": "0x5",
          "logIndex": "0x8",
          "removed": false
        },
        {
          "address": "0xf44f2527d964ef4a8a38c0e676c05a1dc8574ffa",
          "topics": [
            "0x9d278c56ba6dc86a12eefe6b43112bd6e06648eb4ec0b950ee2d783d40e2acb4",
            "0x0000000000000000000000003b4f0135465d444a5bd06ab90fc59b73916c85f5"
          ],
          "data": "0x0000000000000000000000005af60e853cf5f061ad2dbee25dfe64f277dbec01000000000000000000000000000000000000000000000000d486075d973505e1",
          "blockHash": "0x42511b67e0f27942dd6555fbc5f34622192b7616bcb97ddfa636e1a1d17896b4",
          "blockNumber": "0x17cb534",
          "transactionHash": "0xd45ae10865b147a16d8ed9e81f61ae82bbe8dca7bb0e6fab01a09d0960a0f3c4",
          "transactionIndex": "0x5",
          "logIndex": "0x9",
          "removed": false
        }
      ],
      "logsBloom": "0x00000000000000000000000000000000000000000000002000000020000000000000000000000000000000000000020000000000000000000000000000400000000000000000000000000008000000000400000000000000000000000000000000000000000000000000000000000000000000000200000000000010010000000000000000000000000000000000000000000000000000000000000000000000000000000080200200000002000000000000000010000000000000000000000000000102000000000000000000020000000000000000000000000000000000000000000400000000000000000000000000000000000000000000000000000000",
      "type": "0x2",
      "transactionHash": "0xd45ae10865b147a16d8ed9e81f61ae82bbe8dca7bb0e6fab01a09d0960a0f3c4",
      "transactionIndex": "0x5",
      "blockHash": "0x42511b67e0f27942dd6555fbc5f34622192b7616bcb97ddfa636e1a1d17896b4",
      "blockNumber": "0x17cb534",
      "gasUsed": "0x13f0e",
      "effectiveGasPrice": "0x3b9aca01",
      "from": "0x3b4f0135465d444a5bd06ab90fc59b73916c85f5",
      "to": "0xf44f2527d964ef4a8a38c0e676c05a1dc8574ffa",
      "contractAddress": null
    },
    {
      "status": "0x1",
      "cumulativeGasUsed": "0x201f73",
      "logs": [
        {
          "address": "0xe0a46b4cb0069fe8bfd8a255b8c77acedfdd1bcd",
          "topics": [
            "0xddf252ad1be2c89b69c2b068fc378daa952ba7f163c4a11628f55a4df523b3ef",
            "0x0000000000000000000000000000000000000000000000000000000000000000",
            "0x0000000000000000000000003b4f0135465d444a5bd06ab90fc59b73916c85f5"
          ],
          "data": "0x00000000000000000000000000000b7abc627050305adf14a3d9e40000000000",
          "blockHash": "0x42511b67e0f27942dd6555fbc5f34622192b7616bcb97ddfa636e1a1d17896b4",
          "blockNumber": "0x17cb534",
          "transactionHash": "0x98a7d92d7c98d8ee05e53fd5febf6ea12c0465dff46b870ab159538185a87715",
          "transactionIndex": "0x6",
          "logIndex": "0xa",
          "removed": false
        },
        {
          "address": "0xb3ad7f7409a49e9c1f041bd979578e11e3c3d1ce",
          "topics": [
            "0xaf5156078ffc09d447c818754d2e4310cc3f95e36cb33f85723785b122371ed5",
            "0x000000000000000000000000e0a46b4cb0069fe8bfd8a255b8c77acedfdd1bcd"
          ],
          "data": "0x00000000000000000000000000000000000000000000000000000000000000c0000000000000000000000000000000000000000000000000000000000000010000000000000000000000000000000000000000000000d3c21bcecceda1000000000000000000000000000000000000000000000000000000000000000000001200000000000000000000000000000000000000000000009365b47e1edf1c00000000000000000000000000003b4f0135465d444a5bd06ab90fc59b73916c85f5000000000000000000000000000000000000000000000000000000000000000d577261707065642045746865720000000000000000000000000000000000000000000000000000000000000000000000000000000000000000000000000000045745544800000000000000000000000000000000000000000000000000000000",
          "blockHash": "0x42511b67e0f27942dd6555fbc5f34622192b7616bcb97ddfa636e1a1d17896b4",
          "blockNumber": "0x17cb534",
          "transactionHash": "0x98a7d92d7c98d8ee05e53fd5febf6ea12c0465dff46b870ab159538185a87715",
          "transactionIndex": "0x6",
          "logIndex": "0xb",
          "removed": false
        }
      ],
      "logsBloom": "0x00000000000000000080000000400000000000000000000000000020000000000000000000000000000000000000000010000000000000000000000004400000000000000000000000000008000002000000000000000000000000000000000000000000020002000000000000000800000000000000000000000010000000000000000000000000000000000000000000000000000000000000000000000000000000000000000000000000010000000000000000010000000000400000000000000102000000000000000000000000000000000000000002000000000020000001000000000000000000000000000000000000000000000000000000002000",
      "type": "0x2",
      "transactionHash": "0x98a7d92d7c98d8ee05e53fd5febf6ea12c0465dff46b870ab159538185a87715",
      "transactionIndex": "0x6",
      "blockHash": "0x42511b67e0f27942dd6555fbc5f34622192b7616bcb97ddfa636e1a1d17896b4",
      "blockNumber": "0x17cb534",
      "gasUsed": "0x962fb",
      "effectiveGasPrice": "0x3b9aca01",
      "from": "0x3b4f0135465d444a5bd06ab90fc59b73916c85f5",
      "to": "0xb3ad7f7409a49e9c1f041bd979578e11e3c3d1ce",
      "contractAddress": null
    },
    {
      "status": "0x1",
      "cumulativeGasUsed": "0x20db6b",
      "logs": [
        {
          "address": "0xe0a46b4cb0069fe8bfd8a255b8c77acedfdd1bcd",
          "topics": [
            "0x8c5be1e5ebec7d5bd14f71427d1e84f3dd0314c0f7b2291e5b200ac8c7c3b925",
            "0x0000000000000000000000003b4f0135465d444a5bd06ab90fc59b73916c85f5",
            "0x000000000000000000000000f44f2527d964ef4a8a38c0e676c05a1dc8574ffa"
          ],
          "data": "0x000000000000000000000000000000000000000000000013f0011c9a7f42487f",
          "blockHash": "0x42511b67e0f27942dd6555fbc5f34622192b7616bcb97ddfa636e1a1d17896b4",
          "blockNumber": "0x17cb534",
          "transactionHash": "0x9c14db659041295e9acc73a7afbdb5e948a3fc8cce0ab9416bd94db1e8daebd8",
          "transactionIndex": "0x7",
          "logIndex": "0xc",
          "removed": false
        }
      ],
      "logsBloom": "0x00000000000000000000000000400000000000000000000000000020000000000000000000000000000000000000000010000000000000000000000000600000000000000000000000000000000002000000000000000000000000000000000000000000000000000000000000000000000000000000000000000000000000000000000000000000000000000000000000000000000000000000000000000000020000000080000000000002000000000000000000000000000000000000000000000100000000000000000000020000000000000000000000000000000000000010000000000000000000000000000000000000000000000000000000000000",
      "type": "0x2",
      "transactionHash": "0x9c14db659041295e9acc73a7afbdb5e948a3fc8cce0ab9416bd94db1e8daebd8",
      "transactionIndex": "0x7",
      "blockHash": "0x42511b67e0f27942dd6555fbc5f34622192b7616bcb97ddfa636e1a1d17896b4",
      "blockNumber": "0x17cb534",
      "gasUsed": "0xbbf8",
      "effectiveGasPrice": "0x3b9aca01",
      "from": "0x3b4f0135465d444a5bd06ab90fc59b73916c85f5",
      "to": "0xe0a46b4cb0069fe8bfd8a255b8c77acedfdd1bcd",
      "contractAddress": null
    },
    {
      "status": "0x1",
      "cumulativeGasUsed": "0x221d08",
      "logs": [
        {
          "address": "0xe0a46b4cb0069fe8bfd8a255b8c77acedfdd1bcd",
          "topics": [
            "0xddf252ad1be2c89b69c2b068fc378daa952ba7f163c4a11628f55a4df523b3ef",
            "0x0000000000000000000000003b4f0135465d444a5bd06ab90fc59b73916c85f5",
            "0x000000000000000000000000f44f2527d964ef4a8a38c0e676c05a1dc8574ffa"
          ],
          "data": "0x000000000000000000000000000000000000000000000013f0011c9a7f42487f",
          "blockHash": "0x42511b67e0f27942dd6555fbc5f34622192b7616bcb97ddfa636e1a1d17896b4",
          "blockNumber": "0x17cb534",
          "transactionHash": "0x7a3f94015cef7ee2a5135b195f0986b944706e53af00fffd2fabaf95625b74dc",
          "transactionIndex": "0x8",
          "logIndex": "0xd",
          "removed": false
        },
        {
          "address": "0xf44f2527d964ef4a8a38c0e676c05a1dc8574ffa",
          "topics": [
            "0x9d278c56ba6dc86a12eefe6b43112bd6e06648eb4ec0b950ee2d783d40e2acb4",
            "0x0000000000000000000000003b4f0135465d444a5bd06ab90fc59b73916c85f5"
          ],
          "data": "0x000000000000000000000000e0a46b4cb0069fe8bfd8a255b8c77acedfdd1bcd000000000000000000000000000000000000000000000013f0011c9a7f42487f",
          "blockHash": "0x42511b67e0f27942dd6555fbc5f34622192b7616bcb97ddfa636e1a1d17896b4",
          "blockNumber": "0x17cb534",
          "transactionHash": "0x7a3f94015cef7ee2a5135b195f0986b944706e53af00fffd2fabaf95625b74dc",
          "transactionIndex": "0x8",
          "logIndex": "0xe",
          "removed": false
        }
      ],
      "logsBloom": "0x00000000000000000000000000400000000000000000002000000020000000000000000000000000000000000000000010000000000000000000000000400000000000000000000000000008000002000000000000000000000000000000000000000000000000000000000000000000000000000200000000000010010000000000000000000000000000000000000000000000000000000000000000000000000000000080000200000002000000000000000010000000000000000000000000000102000000000000000000020000000000000000000000000000000000000000000400000000000000000000000000000000000000000000000000000000",
      "type": "0x2",
      "transactionHash": "0x7a3f94015cef7ee2a5135b195f0986b944706e53af00fffd2fabaf95625b74dc",
      "transactionIndex": "0x8",
      "blockHash": "0x42511b67e0f27942dd6555fbc5f34622192b7616bcb97ddfa636e1a1d17896b4",
      "blockNumber": "0x17cb534",
      "gasUsed": "0x1419d",
      "effectiveGasPrice": "0x3b9aca01",
      "from": "0x3b4f0135465d444a5bd06ab90fc59b73916c85f5",
      "to": "0xf44f2527d964ef4a8a38c0e676c05a1dc8574ffa",
      "contractAddress": null
    },
    {
      "status": "0x1",
      "cumulativeGasUsed": "0x2b7f86",
      "logs": [
        {
          "address": "0xfbe583ec5e062728c6ae28b9ed1cf16bf3d44052",
          "topics": [
            "0xddf252ad1be2c89b69c2b068fc378daa952ba7f163c4a11628f55a4df523b3ef",
            "0x0000000000000000000000000000000000000000000000000000000000000000",
            "0x0000000000000000000000003b4f0135465d444a5bd06ab90fc59b73916c85f5"
          ],
          "data": "0x00000000000000000000000000000b7abc627050305adf14a3d9e40000000000",
          "blockHash": "0x42511b67e0f27942dd6555fbc5f34622192b7616bcb97ddfa636e1a1d17896b4",
          "blockNumber": "0x17cb534",
          "transactionHash": "0x6cfee158d5352eca472de6f9654a5c1330f396d40dbce7441a3a5b325146922c",
          "transactionIndex": "0x9",
          "logIndex": "0xf",
          "removed": false
        },
        {
          "address": "0xb3ad7f7409a49e9c1f041bd979578e11e3c3d1ce",
          "topics": [
            "0xaf5156078ffc09d447c818754d2e4310cc3f95e36cb33f85723785b122371ed5",
            "0x000000000000000000000000fbe583ec5e062728c6ae28b9ed1cf16bf3d44052"
          ],
          "data": "0x00000000000000000000000000000000000000000000000000000000000000c0000000000000000000000000000000000000000000000000000000000000010000000000000000000000000000000000000000000000d3c21bcecceda100000000000000000000000000000000000000000000000000000000000000000000120000000000000000000000000000000000000000000000000186cc6acd4b00000000000000000000000000003b4f0135465d444a5bd06ab90fc59b73916c85f50000000000000000000000000000000000000000000000000000000000000004504550450000000000000000000000000000000000000000000000000000000000000000000000000000000000000000000000000000000000000000000000045045504500000000000000000000000000000000000000000000000000000000",
          "blockHash": "0x42511b67e0f27942dd6555fbc5f34622192b7616bcb97ddfa636e1a1d17896b4",
          "blockNumber": "0x17cb534",
          "transactionHash": "0x6cfee158d5352eca472de6f9654a5c1330f396d40dbce7441a3a5b325146922c",
          "transactionIndex": "0x9",
          "logIndex": "0x10",
          "removed": false
        }
      ],
      "logsBloom": "0x00000000000000000080000000000000000000000000000000010020000000000000000000000000000080000000000000000000400000000000000004400000000000000000000000000008000000000000000000000000000000000000000000000000020000000000000000000800000008000000000000000010000000000000000000000000000000000000000000000000000000000000000000000000000000000000000000000000000000000000000000010000000000400000000000000102000000000000000000000000000000000000000002000008000020000000000000000000000000000000000000000000000000000000000000002080",
      "type": "0x2",
      "transactionHash": "0x6cfee158d5352eca472de6f9654a5c1330f396d40dbce7441a3a5b325146922c",
      "transactionIndex": "0x9",
      "blockHash": "0x42511b67e0f27942dd6555fbc5f34622192b7616bcb97ddfa636e1a1d17896b4",
      "blockNumber": "0x17cb534",
      "gasUsed": "0x9627e",
      "effectiveGasPrice": "0x3b9aca01",
      "from": "0x3b4f0135465d444a5bd06ab90fc59b73916c85f5",
      "to": "0xb3ad7f7409a49e9c1f041bd979578e11e3c3d1ce",
      "contractAddress": null
    },
    {
      "status": "0x1",
      "cumulativeGasUsed": "0x2c3b97",
      "logs": [
        {
          "address": "0xfbe583ec5e062728c6ae28b9ed1cf16bf3d44052",
          "topics": [
            "0x8c5be1e5ebec7d5bd14f71427d1e84f3dd0314c0f7b2291e5b200ac8c7c3b925",
            "0x0000000000000000000000003b4f0135465d444a5bd06ab90fc59b73916c85f5",
            "0x000000000000000000000000f44f2527d964ef4a8a38c0e676c05a1dc8574ffa"
          ],
          "data": "0x0000000000000000000000000000000000000000000785132b58012a71d1745d",
          "blockHash": "0x42511b67e0f27942dd6555fbc5f34622192b7616bcb97ddfa636e1a1d17896b4",
          "blockNumber": "0x17cb534",
          "transactionHash": "0x69f249f76ef499131cf9c9c70f078631d8fb7a3981aa35b40964e4c4a66943f5",
          "transactionIndex": "0xa",
          "logIndex": "0x11",
          "removed": false
        }
      ],
      "logsBloom": "0x00000000000000000000000000000000000000000000000000000020000000000000000000000000000080000000000000000000000000000000000000600000000000000000000000000000000000000000000000000000000000000000000000000000000000000000000000000000000008000000000000000000000000000000000000000000000000000000000000000000000000000000000000000000020000000080000000000002000000000000000000000000000000000000000000000100000000000000000000020000000000000000000000000008000000000010000000000000000000000000000000000000000000000000000000000000",
      "type": "0x2",
      "transactionHash": "0x69f249f76ef499131cf9c9c70f078631d8fb7a3981aa35b40964e4c4a66943f5",
      "transactionIndex": "0xa",
      "blockHash": "0x42511b67e0f27942dd6555fbc5f34622192b7616bcb97ddfa636e1a1d17896b4",
      "blockNumber": "0x17cb534",
      "gasUsed": "0xbc11",
      "effectiveGasPrice": "0x3b9aca01",
      "from": "0x3b4f0135465d444a5bd06ab90fc59b73916c85f5",
      "to": "0xfbe583ec5e062728c6ae28b9ed1cf16bf3d44052",
      "contractAddress": null
    },
    {
      "status": "0x1",
      "cumulativeGasUsed": "0x2d7d4d",
      "logs": [
        {
          "address": "0xfbe583ec5e062728c6ae28b9ed1cf16bf3d44052",
          "topics": [
            "0xddf252ad1be2c89b69c2b068fc378daa952ba7f163c4a11628f55a4df523b3ef",
            "0x0000000000000000000000003b4f0135465d444a5bd06ab90fc59b73916c85f5",
            "0x000000000000000000000000f44f2527d964ef4a8a38c0e676c05a1dc8574ffa"
          ],
          "data": "0x0000000000000000000000000000000000000000000785132b58012a71d1745d",
          "blockHash": "0x42511b67e0f27942dd6555fbc5f34622192b7616bcb97ddfa636e1a1d17896b4",
          "blockNumber": "0x17cb534",
          "transactionHash": "0x96bac3ec205b58fb08c1363fd5772d7ef2558feb936337c6e625bfdf16f60bed",
          "transactionIndex": "0xb",
          "logIndex": "0x12",
          "removed": false
        },
        {
          "address": "0xf44f2527d964ef4a8a38c0e676c05a1dc8574ffa",
          "topics": [
            "0x9d278c56ba6dc86a12eefe6b43112bd6e06648eb4ec0b950ee2d783d40e2acb4",
            "0x0000000000000000000000003b4f0135465d444a5bd06ab90fc59b73916c85f5"
          ],
          "data": "0x000000000000000000000000fbe583ec5e062728c6ae28b9ed1cf16bf3d440520000000000000000000000000000000000000000000785132b58012a71d1745d",
          "blockHash": "0x42511b67e0f27942dd6555fbc5f34622192b7616bcb97ddfa636e1a1d17896b4",
          "blockNumber": "0x17cb534",
          "transactionHash": "0x96bac3ec205b58fb08c1363fd5772d7ef2558feb936337c6e625bfdf16f60bed",
          "transactionIndex": "0xb",
          "logIndex": "0x13",
          "removed": false
        }
      ],
      "logsBloom": "0x00000000000000000000000000000000000000000000002000000020000000000000000000000000000080000000000000000000000000000000000000400000000000000000000000000008000000000000000000000000000000000000000000000000000000000000000000000000000008000200000000000010010000000000000000000000000000000000000000000000000000000000000000000000000000000080000200000002000000000000000010000000000000000000000000000102000000000000000000020000000000000000000000000008000000000000000400000000000000000000000000000000000000000000000000000000",
      "type": "0x2",
      "transactionHash": "0x96bac3ec205b58fb08c1363fd5772d7ef2558feb936337c6e625bfdf16f60bed",
      "transactionIndex": "0xb",
      "blockHash": "0x42511b67e0f27942dd6555fbc5f34622192b7616bcb97ddfa636e1a1d17896b4",
      "blockNumber": "0x17cb534",
      "gasUsed": "0x141b6",
      "effectiveGasPrice": "0x3b9aca01",
      "from": "0x3b4f0135465d444a5bd06ab90fc59b73916c85f5",
      "to": "0xf44f2527d964ef4a8a38c0e676c05a1dc8574ffa",
      "contractAddress": null
    },
    {
      "status": "0x1",
      "cumulativeGasUsed": "0x36e061",
      "logs": [
        {
          "address": "0x95bd809c55711fa7c7e6ba4c860a274e475fe2a3",
          "topics": [
            "0xddf252ad1be2c89b69c2b068fc378daa952ba7f163c4a11628f55a4df523b3ef",
            "0x0000000000000000000000000000000000000000000000000000000000000000",
            "0x0000000000000000000000003b4f0135465d444a5bd06ab90fc59b73916c85f5"
          ],
          "data": "0x00000000000000000000000000000b7abc627050305adf14a3d9e40000000000",
          "blockHash": "0x42511b67e0f27942dd6555fbc5f34622192b7616bcb97ddfa636e1a1d17896b4",
          "blockNumber": "0x17cb534",
          "transactionHash": "0xa09937d3c9b3937134b45125a1eaeae598abcbdf2557fa285281af13254fa9e4",
          "transactionIndex": "0xc",
          "logIndex": "0x14",
          "removed": false
        },
        {
          "address": "0xb3ad7f7409a49e9c1f041bd979578e11e3c3d1ce",
          "topics": [
            "0xaf5156078ffc09d447c818754d2e4310cc3f95e36cb33f85723785b122371ed5",
            "0x00000000000000000000000095bd809c55711fa7c7e6ba4c860a274e475fe2a3"
          ],
          "data": "0x00000000000000000000000000000000000000000000000000000000000000c0000000000000000000000000000000000000000000000000000000000000010000000000000000000000000000000000000000000000d3c21bcecceda100000000000000000000000000000000000000000000000000000000000000000000120000000000000000000000000000000000000000000000564d702d38f5e000000000000000000000000000003b4f0135465d444a5bd06ab90fc59b73916c85f5000000000000000000000000000000000000000000000000000000000000000e4f4646494349414c205452554d5000000000000000000000000000000000000000000000000000000000000000000000000000000000000000000000000000055452554d50000000000000000000000000000000000000000000000000000000",
          "blockHash": "0x42511b67e0f27942dd6555fbc5f34622192b7616bcb97ddfa636e1a1d17896b4",
          "blockNumber": "0x17cb534",
          "transactionHash": "0xa09937d3c9b3937134b45125a1eaeae598abcbdf2557fa285281af13254fa9e4",
          "transactionIndex": "0xc",
          "logIndex": "0x15",
          "removed": false
        }
      ],
      "logsBloom": "0x00000000000000000080000200000000000000000000000000000020000000000000000000000000000000000000000000002000000000000000000004400000000000000000000000000008000000000000400000001000000000000000000000000000020000000000000000000800000000000000000000000010000000000000000000000000000000000000000000000000000000000000000000000000000000000000000000000000000000000000000000010000001000400000000000000102000000000002000000000000000000000000000002000000000020000000000000000000000000000000000000000000000000000000000000002000",
      "type": "0x2",
      "transactionHash": "0xa09937d3c9b3937134b45125a1eaeae598abcbdf2557fa285281af13254fa9e4",
      "transactionIndex": "0xc",
      "blockHash": "0x42511b67e0f27942dd6555fbc5f34622192b7616bcb97ddfa636e1a1d17896b4",
      "blockNumber": "0x17cb534",
      "gasUsed": "0x96314",
      "effectiveGasPrice": "0x3b9aca01",
      "from": "0x3b4f0135465d444a5bd06ab90fc59b73916c85f5",
      "to": "0xb3ad7f7409a49e9c1f041bd979578e11e3c3d1ce",
      "contractAddress": null
    },
    {
      "status": "0x1",
      "cumulativeGasUsed": "0x379c59",
      "logs": [
        {
          "address": "0x95bd809c55711fa7c7e6ba4c860a274e475fe2a3",
          "topics": [
            "0x8c5be1e5ebec7d5bd14f71427d1e84f3dd0314c0f7b2291e5b200ac8c7c3b925",
            "0x0000000000000000000000003b4f0135465d444a5bd06ab90fc59b73916c85f5",
            "0x000000000000000000000000f44f2527d964ef4a8a38c0e676c05a1dc8574ffa"
          ],
          "data": "0x0000000000000000000000000000000000000000000000220d3411d131ca2172",
          "blockHash": "0x42511b67e0f27942dd6555fbc5f34622192b7616bcb97ddfa636e1a1d17896b4",
          "blockNumber": "0x17cb534",
          "transactionHash": "0x91cbbfce4cd5403343e03636d33c6b97bedceb3d9d97b5dfa8a09d5c0b2b14cf",
          "transactionIndex": "0xd",
          "logIndex": "0x16",
          "removed": false
        }
      ],
      "logsBloom": "0x00000000000000000000000000000000000000000000000000000020000000000000000000000000000000000000000000000000000000000000000000600000000000000000000000000000000000000000000000001000000000000000000000000000000000000000000000000000000000000000000000000000000000000000000000000000000000000000000000000000000000000000000000000000020000000080000000000002000000000000000000000000001000000000000000000100000000000002000000020000000000000000000000000000000000000010000000000000000000000000000000000000000000000000000000000000",
      "type": "0x2",
      "transactionHash": "0x91cbbfce4cd5403343e03636d33c6b97bedceb3d9d97b5dfa8a09d5c0b2b14cf",
      "transactionIndex": "0xd",
      "blockHash": "0x42511b67e0f27942dd6555fbc5f34622192b7616bcb97ddfa636e1a1d17896b4",
      "blockNumber": "0x17cb534",
      "gasUsed": "0xbbf8",
      "effectiveGasPrice": "0x3b9aca01",
      "from": "0x3b4f0135465d444a5bd06ab90fc59b73916c85f5",
      "to": "0x95bd809c55711fa7c7e6ba4c860a274e475fe2a3",
      "contractAddress": null
    },
    {
      "status": "0x1",
      "cumulativeGasUsed": "0x38ddf6",
      "logs": [
        {
          "address": "0x95bd809c55711fa7c7e6ba4c860a274e475fe2a3",
          "topics": [
            "0xddf252ad1be2c89b69c2b068fc378daa952ba7f163c4a11628f55a4df523b3ef",
            "0x0000000000000000000000003b4f0135465d444a5bd06ab90fc59b73916c85f5",
            "0x000000000000000000000000f44f2527d964ef4a8a38c0e676c05a1dc8574ffa"
          ],
          "data": "0x0000000000000000000000000000000000000000000000220d3411d131ca2172",
          "blockHash": "0x42511b67e0f27942dd6555fbc5f34622192b7616bcb97ddfa636e1a1d17896b4",
          "blockNumber": "0x17cb534",
          "transactionHash": "0x155aa5e82bcd288cb10adfb354fd66de1a72781dd8a88996946957b243aaaa65",
          "transactionIndex": "0xe",
          "logIndex": "0x17",
          "removed": false
        },
        {
          "address": "0xf44f2527d964ef4a8a38c0e676c05a1dc8574ffa",
          "topics": [
            "0x9d278c56ba6dc86a12eefe6b43112bd6e06648eb4ec0b950ee2d783d40e2acb4",
            "0x0000000000000000000000003b4f0135465d444a5bd06ab90fc59b73916c85f5"
          ],
          "data": "0x00000000000000000000000095bd809c55711fa7c7e6ba4c860a274e475fe2a30000000000000000000000000000000000000000000000220d3411d131ca2172",
          "blockHash": "0x42511b67e0f27942dd6555fbc5f34622192b7616bcb97ddfa636e1a1d17896b4",
          "blockNumber": "0x17cb534",
          "transactionHash": "0x155aa5e82bcd288cb10adfb354fd66de1a72781dd8a88996946957b243aaaa65",
          "transactionIndex": "0xe",
          "logIndex": "0x18",
          "removed": false
        }
      ],
      "logsBloom": "0x00000000000000000000000000000000000000000000002000000020000000000000000000000000000000000000000000000000000000000000000000400000000000000000000000000008000000000000000000001000000000000000000000000000000000000000000000000000000000000200000000000010010000000000000000000000000000000000000000000000000000000000000000000000000000000080000200000002000000000000000010000000001000000000000000000102000000000002000000020000000000000000000000000000000000000000000400000000000000000000000000000000000000000000000000000000",
      "type": "0x2",
      "transactionHash": "0x155aa5e82bcd288cb10adfb354fd66de1a72781dd8a88996946957b243aaaa65",
      "transactionIndex": "0xe",
      "blockHash": "0x42511b67e0f27942dd6555fbc5f34622192b7616bcb97ddfa636e1a1d17896b4",
      "blockNumber": "0x17cb534",
      "gasUsed": "0x1419d",
      "effectiveGasPrice": "0x3b9aca01",
      "from": "0x3b4f0135465d444a5bd06ab90fc59b73916c85f5",
      "to": "0xf44f2527d964ef4a8a38c0e676c05a1dc8574ffa",
      "contractAddress": null
    },
    {
      "status": "0x1",
      "cumulativeGasUsed": "0x4240a6",
      "logs": [
        {
          "address": "0x66d289ff71aca3b2dd38fe3af29dd8d8aa734829",
          "topics": [
            "0xddf252ad1be2c89b69c2b068fc378daa952ba7f163c4a11628f55a4df523b3ef",
            "0x0000000000000000000000000000000000000000000000000000000000000000",
            "0x0000000000000000000000003b4f0135465d444a5bd06ab90fc59b73916c85f5"
          ],
          "data": "0x00000000000000000000000000000b7abc627050305adf14a3d9e40000000000",
          "blockHash": "0x42511b67e0f27942dd6555fbc5f34622192b7616bcb97ddfa636e1a1d17896b4",
          "blockNumber": "0x17cb534",
          "transactionHash": "0x3494c9c8131a48c5c657db26c624a0cd19490ccbe415d3a85346bc49acf8e224",
          "transactionIndex": "0xf",
          "logIndex": "0x19",
          "removed": false
        },
        {
          "address": "0xb3ad7f7409a49e9c1f041bd979578e11e3c3d1ce",
          "topics": [
            "0xaf5156078ffc09d447c818754d2e4310cc3f95e36cb33f85723785b122371ed5",
            "0x00000000000000000000000066d289ff71aca3b2dd38fe3af29dd8d8aa734829"
          ],
          "data": "0x00000000000000000000000000000000000000000000000000000000000000c0000000000000000000000000000000000000000000000000000000000000010000000000000000000000000000000000000000000000d3c21bcecceda1000000000000000000000000000000000000000000000000000000000000000000001200000000000000000000000000000000000000000000000000dc44abe81300000000000000000000000000003b4f0135465d444a5bd06ab90fc59b73916c85f50000000000000000000000000000000000000000000000000000000000000007444f4745204149000000000000000000000000000000000000000000000000000000000000000000000000000000000000000000000000000000000000000006444f474541490000000000000000000000000000000000000000000000000000",
          "blockHash": "0x42511b67e0f27942dd6555fbc5f34622192b7616bcb97ddfa636e1a1d17896b4",
          "blockNumber": "0x17cb534",
          "transactionHash": "0x3494c9c8131a48c5c657db26c624a0cd19490ccbe415d3a85346bc49acf8e224",
          "transactionIndex": "0xf",
          "logIndex": "0x1a",
          "removed": false
        }
      ],
      "logsBloom": "0x00000000000000080080000000000000000000000000000000000020000000000000000000000000000000000000000000000000000000000000001004400002000000000000000000000008000000000000000000000000000000000000000000000000020000000000000000000800000000000000000000000014000000000000000000000000000000000000000000000000000000000000000000000000000000000000000000000000000000000000000000010000000000400000000000000102000000000000000000020000000000000000000002000000000020000000000000000000000000000000000000000000000000000000020000002000",
      "type": "0x2",
      "transactionHash": "0x3494c9c8131a48c5c657db26c624a0cd19490ccbe415d3a85346bc49acf8e224",
      "transactionIndex": "0xf",
      "blockHash": "0x42511b67e0f27942dd6555fbc5f34622192b7616bcb97ddfa636e1a1d17896b4",
      "blockNumber": "0x17cb534",
      "gasUsed": "0x962b0",
      "effectiveGasPrice": "0x3b9aca01",
      "from": "0x3b4f0135465d444a5bd06ab90fc59b73916c85f5",
      "to": "0xb3ad7f7409a49e9c1f041bd979578e11e3c3d1ce",
      "contractAddress": null
    },
    {
      "status": "0x1",
      "cumulativeGasUsed": "0x42fcb7",
      "logs": [
        {
          "address": "0x66d289ff71aca3b2dd38fe3af29dd8d8aa734829",
          "topics": [
            "0x8c5be1e5ebec7d5bd14f71427d1e84f3dd0314c0f7b2291e5b200ac8c7c3b925",
            "0x0000000000000000000000003b4f0135465d444a5bd06ab90fc59b73916c85f5",
            "0x000000000000000000000000f44f2527d964ef4a8a38c0e676c05a1dc8574ffa"
          ],
          "data": "0x0000000000000000000000000000000000000000000d577497390a5390210842",
          "blockHash": "0x42511b67e0f27942dd6555fbc5f34622192b7616bcb97ddfa636e1a1d17896b4",
          "blockNumber": "0x17cb534",
          "transactionHash": "0xa9e932e32398dffea6caf982add4b9b76ca2ab193d1626a232fa1e4a1ea0ddd5",
          "transactionIndex": "0x10",
          "logIndex": "0x1b",
          "removed": false
        }
      ],
      "logsBloom": "0x00000000000000080000000000000000000000000000000000000020000000000000000000000000000000000000000000000000000000000000000000600002000000000000000000000000000000000000000000000000000000000000000000000000000000000000000000000000000000000000000000000000000000000000000000000000000000000000000000000000000000000000000000000000020000000080000000000002000000000000000000000000000000000000000000000100000000000000000000020000000000000000000000000000000000000010000000000000000000000000000000000000000000000000020000000000",
      "type": "0x2",
      "transactionHash": "0xa9e932e32398dffea6caf982add4b9b76ca2ab193d1626a232fa1e4a1ea0ddd5",
      "transactionIndex": "0x10",
      "blockHash": "0x42511b67e0f27942dd6555fbc5f34622192b7616bcb97ddfa636e1a1d17896b4",
      "blockNumber": "0x17cb534",
      "gasUsed": "0xbc11",
      "effectiveGasPrice": "0x3b9aca01",
      "from": "0x3b4f0135465d444a5bd06ab90fc59b73916c85f5",
      "to": "0x66d289ff71aca3b2dd38fe3af29dd8d8aa734829",
      "contractAddress": null
    },
    {
      "status": "0x1",
      "cumulativeGasUsed": "0x443e6d",
      "logs": [
        {
          "address": "0x66d289ff71aca3b2dd38fe3af29dd8d8aa734829",
          "topics": [
            "0xddf252ad1be2c89b69c2b068fc378daa952ba7f163c4a11628f55a4df523b3ef",
            "0x0000000000000000000000003b4f0135465d444a5bd06ab90fc59b73916c85f5",
            "0x000000000000000000000000f44f2527d964ef4a8a38c0e676c05a1dc8574ffa"
          ],
          "data": "0x0000000000000000000000000000000000000000000d577497390a5390210842",
          "blockHash": "0x42511b67e0f27942dd6555fbc5f34622192b7616bcb97ddfa636e1a1d17896b4",
          "blockNumber": "0x17cb534",
          "transactionHash": "0xf82aa6174c4863163972c1792af23ef8014ad596725c31291e75c16bb726880c",
          "transactionIndex": "0x11",
          "logIndex": "0x1c",
          "removed": false
        },
        {
          "address": "0xf44f2527d964ef4a8a38c0e676c05a1dc8574ffa",
          "topics": [
            "0x9d278c56ba6dc86a12eefe6b43112bd6e06648eb4ec0b950ee2d783d40e2acb4",
            "0x0000000000000000000000003b4f0135465d444a5bd06ab90fc59b73916c85f5"
          ],
          "data": "0x00000000000000000000000066d289ff71aca3b2dd38fe3af29dd8d8aa7348290000000000000000000000000000000000000000000d577497390a5390210842",
          "blockHash": "0x42511b67e0f27942dd6555fbc5f34622192b7616bcb97ddfa636e1a1d17896b4",
          "blockNumber": "0x17cb534",
          "transactionHash": "0xf82aa6174c4863163972c1792af23ef8014ad596725c31291e75c16bb726880c",
          "transactionIndex": "0x11",
          "logIndex": "0x1d",
          "removed": false
        }
      ],
      "logsBloom": "0x00000000000000080000000000000000000000000000002000000020000000000000000000000000000000000000000000000000000000000000000000400002000000000000000000000008000000000000000000000000000000000000000000000000000000000000000000000000000000000200000000000010010000000000000000000000000000000000000000000000000000000000000000000000000000000080000200000002000000000000000010000000000000000000000000000102000000000000000000020000000000000000000000000000000000000000000400000000000000000000000000000000000000000000020000000000",
      "type": "0x2",
      "transactionHash": "0xf82aa6174c4863163972c1792af23ef8014ad596725c31291e75c16bb726880c",
      "transactionIndex": "0x11",
      "blockHash": "0x42511b67e0f27942dd6555fbc5f34622192b7616bcb97ddfa636e1a1d17896b4",
      "blockNumber": "0x17cb534",
      "gasUsed": "0x141b6",
      "effectiveGasPrice": "0x3b9aca01",
      "from": "0x3b4f0135465d444a5bd06ab90fc59b73916c85f5",
      "to": "0xf44f2527d964ef4a8a38c0e676c05a1dc8574ffa",
      "contractAddress": null
    },
    {
      "status": "0x1",
      "cumulativeGasUsed": "0x4da11d",
      "logs": [
        {
          "address": "0xe8451691d43ae8c3991ae087731249e5c29d3e41",
          "topics": [
            "0xddf252ad1be2c89b69c2b068fc378daa952ba7f163c4a11628f55a4df523b3ef",
            "0x0000000000000000000000000000000000000000000000000000000000000000",
            "0x0000000000000000000000003b4f0135465d444a5bd06ab90fc59b73916c85f5"
          ],
          "data": "0x00000000000000000000000000000b7abc627050305adf14a3d9e40000000000",
          "blockHash": "0x42511b67e0f27942dd6555fbc5f34622192b7616bcb97ddfa636e1a1d17896b4",
          "blockNumber": "0x17cb534",
          "transactionHash": "0x1ea3ed0796012cb4f7bbff79f04d26c9b07afea8110d2113234a946bbdb074cf",
          "transactionIndex": "0x12",
          "logIndex": "0x1e",
          "removed": false
        },
        {
          "address": "0xb3ad7f7409a49e9c1f041bd979578e11e3c3d1ce",
          "topics": [
            "0xaf5156078ffc09d447c818754d2e4310cc3f95e36cb33f85723785b122371ed5",
            "0x000000000000000000000000e8451691d43ae8c3991ae087731249e5c29d3e41"
          ],
          "data": "0x00000000000000000000000000000000000000000000000000000000000000c0000000000000000000000000000000000000000000000000000000000000010000000000000000000000000000000000000000000000d3c21bcecceda100000000000000000000000000000000000000000000000000000000000000000000120000000000000000000000000000000000000000000000000aaf96eb9d0d00000000000000000000000000003b4f0135465d444a5bd06ab90fc59b73916c85f50000000000000000000000000000000000000000000000000000000000000009646f67776966686174000000000000000000000000000000000000000000000000000000000000000000000000000000000000000000000000000000000000035749460000000000000000000000000000000000000000000000000000000000",
          "blockHash": "0x42511b67e0f27942dd6555fbc5f34622192b7616bcb97ddfa636e1a1d17896b4",
          "blockNumber": "0x17cb534",
          "transactionHash": "0x1ea3ed0796012cb4f7bbff79f04d26c9b07afea8110d2113234a946bbdb074cf",
          "transactionIndex": "0x12",
          "logIndex": "0x1f",
          "removed": false
        }
      ],
      "logsBloom": "0x00000000000000000080000000000000000000000000000000000020000000004000000000000000000000000000000000000000000000000000000004400000000000000000000000000008000000000000000000000000000000000000000000000000020000000000000000000800000000000000000000000010000000000000000000000000040000020000000000000000000000000000000000000000000000000000000000000000020000000000000000010000000000400000000000000102000000000000000000000000000000000000000002000000000020800000000010000000000000000000000000000000000000000000000000002000",
      "type": "0x2",
      "transactionHash": "0x1ea3ed0796012cb4f7bbff79f04d26c9b07afea8110d2113234a946bbdb074cf",
      "transactionIndex": "0x12",
      "blockHash": "0x42511b67e0f27942dd6555fbc5f34622192b7616bcb97ddfa636e1a1d17896b4",
      "blockNumber": "0x17cb534",
      "gasUsed": "0x962b0",
      "effectiveGasPrice": "0x3b9aca01",
      "from": "0x3b4f0135465d444a5bd06ab90fc59b73916c85f5",
      "to": "0xb3ad7f7409a49e9c1f041bd979578e11e3c3d1ce",
      "contractAddress": null
    },
    {
      "status": "0x1",
      "cumulativeGasUsed": "0x4e5d2e",
      "logs": [
        {
          "address": "0xe8451691d43ae8c3991ae087731249e5c29d3e41",
          "topics": [
            "0x8c5be1e5ebec7d5bd14f71427d1e84f3dd0314c0f7b2291e5b200ac8c7c3b925",
            "0x0000000000000000000000003b4f0135465d444a5bd06ab90fc59b73916c85f5",
            "0x000000000000000000000000f44f2527d964ef4a8a38c0e676c05a1dc8574ffa"
          ],
          "data": "0x000000000000000000000000000000000000000000011302bd0c9273c71dec0d",
          "blockHash": "0x42511b67e0f27942dd6555fbc5f34622192b7616bcb97ddfa636e1a1d17896b4",
          "blockNumber": "0x17cb534",
          "transactionHash": "0xa4bbd2418c495525920d0f7118cc8a96d759fa650b05d38c41845afde174ec30",
          "transactionIndex": "0x13",
          "logIndex": "0x20",
          "removed": false
        }
      ],
      "logsBloom": "0x00000000000000000000000000000000000000000000000000000020000000000000000000000000000000000000000000000000000000000000000000600000000000000000000000000000000000000000000000000000000000000000000000000000000000000000000000000000000000000000000000000000000000000000000000000000040000020000000000000000000000000000000000000000020000000080000000000002020000000000000000000000000000000000000000000100000000000000000000020000000000000000000000000000000000000010000000000000000000000000000000000000000000000000000000000000",
      "type": "0x2",
      "transactionHash": "0xa4bbd2418c495525920d0f7118cc8a96d759fa650b05d38c41845afde174ec30",
      "transactionIndex": "0x13",
      "blockHash": "0x42511b67e0f27942dd6555fbc5f34622192b7616bcb97ddfa636e1a1d17896b4",
      "blockNumber": "0x17cb534",
      "gasUsed": "0xbc11",
      "effectiveGasPrice": "0x3b9aca01",
      "from": "0x3b4f0135465d444a5bd06ab90fc59b73916c85f5",
      "to": "0xe8451691d43ae8c3991ae087731249e5c29d3e41",
      "contractAddress": null
    },
    {
      "status": "0x1",
      "cumulativeGasUsed": "0x4f9ee4",
      "logs": [
        {
          "address": "0xe8451691d43ae8c3991ae087731249e5c29d3e41",
          "topics": [
            "0xddf252ad1be2c89b69c2b068fc378daa952ba7f163c4a11628f55a4df523b3ef",
            "0x0000000000000000000000003b4f0135465d444a5bd06ab90fc59b73916c85f5",
            "0x000000000000000000000000f44f2527d964ef4a8a38c0e676c05a1dc8574ffa"
          ],
          "data": "0x000000000000000000000000000000000000000000011302bd0c9273c71dec0d",
          "blockHash": "0x42511b67e0f27942dd6555fbc5f34622192b7616bcb97ddfa636e1a1d17896b4",
          "blockNumber": "0x17cb534",
          "transactionHash": "0x8a7d9d796e780e2011a6d29935681b14937e8bad65a1f944fa64aa4ed13ca704",
          "transactionIndex": "0x14",
          "logIndex": "0x21",
          "removed": false
        },
        {
          "address": "0xf44f2527d964ef4a8a38c0e676c05a1dc8574ffa",
          "topics": [
            "0x9d278c56ba6dc86a12eefe6b43112bd6e06648eb4ec0b950ee2d783d40e2acb4",
            "0x0000000000000000000000003b4f0135465d444a5bd06ab90fc59b73916c85f5"
          ],
          "data": "0x000000000000000000000000e8451691d43ae8c3991ae087731249e5c29d3e41000000000000000000000000000000000000000000011302bd0c9273c71dec0d",
          "blockHash": "0x42511b67e0f27942dd6555fbc5f34622192b7616bcb97ddfa636e1a1d17896b4",
          "blockNumber": "0x17cb534",
          "transactionHash": "0x8a7d9d796e780e2011a6d29935681b14937e8bad65a1f944fa64aa4ed13ca704",
          "transactionIndex": "0x14",
          "logIndex": "0x22",
          "removed": false
        }
      ],
      "logsBloom": "0x00000000000000000000000000000000000000000000002000000020000000000000000000000000000000000000000000000000000000000000000000400000000000000000000000000008000000000000000000000000000000000000000000000000000000000000000000000000000000000200000000000010010000000000000000000000040000020000000000000000000000000000000000000000000000000080000200000002020000000000000010000000000000000000000000000102000000000000000000020000000000000000000000000000000000000000000400000000000000000000000000000000000000000000000000000000",
      "type": "0x2",
      "transactionHash": "0x8a7d9d796e780e2011a6d29935681b14937e8bad65a1f944fa64aa4ed13ca704",
      "transactionIndex": "0x14",
      "blockHash": "0x42511b67e0f27942dd6555fbc5f34622192b7616bcb97ddfa636e1a1d17896b4",
      "blockNumber": "0x17cb534",
      "gasUsed": "0x141b6",
      "effectiveGasPrice": "0x3b9aca01",
      "from": "0x3b4f0135465d444a5bd06ab90fc59b73916c85f5",
      "to": "0xf44f2527d964ef4a8a38c0e676c05a1dc8574ffa",
      "contractAddress": null
    },
    {
      "status": "0x1",
      "cumulativeGasUsed": "0x58eedf",
      "logs": [
        {
          "address": "0x89e5697915a12f8448b27f00795754e3dfe8d69b",
          "topics": [
            "0xddf252ad1be2c89b69c2b068fc378daa952ba7f163c4a11628f55a4df523b3ef",
            "0x0000000000000000000000000000000000000000000000000000000000000000",
            "0x0000000000000000000000003b4f0135465d444a5bd06ab90fc59b73916c85f5"
          ],
          "data": "0x00000000000000000000000000000b7abc627050305adf14a3d9e40000000000",
          "blockHash": "0x42511b67e0f27942dd6555fbc5f34622192b7616bcb97ddfa636e1a1d17896b4",
          "blockNumber": "0x17cb534",
          "transactionHash": "0x1492c1ba9b8c390e934b646d9b4509edf119b8d7e0867d41499c7db4e334df91",
          "transactionIndex": "0x15",
          "logIndex": "0x23",
          "removed": false
        },
        {
          "address": "0xb3ad7f7409a49e9c1f041bd979578e11e3c3d1ce",
          "topics": [
            "0xaf5156078ffc09d447c818754d2e4310cc3f95e36cb33f85723785b122371ed5",
            "0x00000000000000000000000089e5697915a12f8448b27f00795754e3dfe8d69b"
          ],
          "data": "0x00000000000000000000000000000000000000000000000000000000000000c0000000000000000000000000000000000000000000000000000000000000010000000000000000000000000000000000000000000000d3c21bcecceda1000000000000000000000000000000000000000000000000000000000000000000001200000000000000000000000000000000000000000000000000b1a2bc2ec500000000000000000000000000003b4f0135465d444a5bd06ab90fc59b73916c85f5000000000000000000000000000000000000000000000000000000000000000653544f4e4b530000000000000000000000000000000000000000000000000000000000000000000000000000000000000000000000000000000000000000000653544f4e4b530000000000000000000000000000000000000000000000000000",
          "blockHash": "0x42511b67e0f27942dd6555fbc5f34622192b7616bcb97ddfa636e1a1d17896b4",
          "blockNumber": "0x17cb534",
          "transactionHash": "0x1492c1ba9b8c390e934b646d9b4509edf119b8d7e0867d41499c7db4e334df91",
          "transactionIndex": "0x15",
          "logIndex": "0x24",
          "removed": false
        }
      ],
      "logsBloom": "0x00000000000000000080000000000000000000000000000000000020400000000000000000000000000000002000000000000000000000000000000004400000000000000000000010000008000000000000000000000000000000000000000000000000020000200000000000000800000000000000000000000010000000000000000000000000000000000000000000020000000000000000000000000000000000000000000000000000000000000000000000010000000000400000000000000102000000000000000000000000000000000000000002000000000020004000000000000000000000000000000000000000000000000000000000002000",
      "type": "0x2",
      "transactionHash": "0x1492c1ba9b8c390e934b646d9b4509edf119b8d7e0867d41499c7db4e334df91",
      "transactionIndex": "0x15",
      "blockHash": "0x42511b67e0f27942dd6555fbc5f34622192b7616bcb97ddfa636e1a1d17896b4",
      "blockNumber": "0x17cb534",
      "gasUsed": "0x94ffb",
      "effectiveGasPrice": "0x3b9aca01",
      "from": "0x3b4f0135465d444a5bd06ab90fc59b73916c85f5",
      "to": "0xb3ad7f7409a49e9c1f041bd979578e11e3c3d1ce",
      "contractAddress": null
    },
    {
      "status": "0x1",
      "cumulativeGasUsed": "0x59a954",
      "logs": [
        {
          "address": "0x89e5697915a12f8448b27f00795754e3dfe8d69b",
          "topics": [
            "0x8c5be1e5ebec7d5bd14f71427d1e84f3dd0314c0f7b2291e5b200ac8c7c3b925",
            "0x0000000000000000000000003b4f0135465d444a5bd06ab90fc59b73916c85f5",
            "0x000000000000000000000000f44f2527d964ef4a8a38c0e676c05a1dc8574ffa"
          ],
          "data": "0x000000000000000000000000000000000000000000108b2a2c28029094000000",
          "blockHash": "0x42511b67e0f27942dd6555fbc5f34622192b7616bcb97ddfa636e1a1d17896b4",
          "blockNumber": "0x17cb534",
          "transactionHash": "0x0a859db640a7bde74a89479f65fce4a84cf089878a7d874cc8f0baf820738cee",
          "transactionIndex": "0x16",
          "logIndex": "0x25",
          "removed": false
        }
      ],
      "logsBloom": "0x00000000000000000000000000000000000000000000000000000020400000000000000000000000000000002000000000000000000000000000000000600000000000000000000000000000000000000000000000000000000000000000000000000000000000000000000000000000000000000000000000000000000000000000000000000000000000000000000000000000000000000000000000000000020000000080000000000002000000000000000000000000000000000000000000000100000000000000000000020000000000000000000000000000000000004010000000000000000000000000000000000000000000000000000000000000",
      "type": "0x2",
      "transactionHash": "0x0a859db640a7bde74a89479f65fce4a84cf089878a7d874cc8f0baf820738cee",
      "transactionIndex": "0x16",
      "blockHash": "0x42511b67e0f27942dd6555fbc5f34622192b7616bcb97ddfa636e1a1d17896b4",
      "blockNumber": "0x17cb534",
      "gasUsed": "0xba75",
      "effectiveGasPrice": "0x3b9aca01",
      "from": "0x3b4f0135465d444a5bd06ab90fc59b73916c85f5",
      "to": "0x89e5697915a12f8448b27f00795754e3dfe8d69b",
      "contractAddress": null
    },
    {
      "status": "0x1",
      "cumulativeGasUsed": "0x5aead8",
      "logs": [
        {
          "address": "0x89e5697915a12f8448b27f00795754e3dfe8d69b",
          "topics": [
            "0xddf252ad1be2c89b69c2b068fc378daa952ba7f163c4a11628f55a4df523b3ef",
            "0x0000000000000000000000003b4f0135465d444a5bd06ab90fc59b73916c85f5",
            "0x000000000000000000000000f44f2527d964ef4a8a38c0e676c05a1dc8574ffa"
          ],
          "data": "0x000000000000000000000000000000000000000000108b2a2c28029094000000",
          "blockHash": "0x42511b67e0f27942dd6555fbc5f34622192b7616bcb97ddfa636e1a1d17896b4",
          "blockNumber": "0x17cb534",
          "transactionHash": "0xdfd96f7ff454bbb1e5004b26c183884254f9f31e2bb1d7e5477d8eabeb1875b4",
          "transactionIndex": "0x17",
          "logIndex": "0x26",
          "removed": false
        },
        {
          "address": "0xf44f2527d964ef4a8a38c0e676c05a1dc8574ffa",
          "topics": [
            "0x9d278c56ba6dc86a12eefe6b43112bd6e06648eb4ec0b950ee2d783d40e2acb4",
            "0x0000000000000000000000003b4f0135465d444a5bd06ab90fc59b73916c85f5"
          ],
          "data": "0x00000000000000000000000089e5697915a12f8448b27f00795754e3dfe8d69b000000000000000000000000000000000000000000108b2a2c28029094000000",
          "blockHash": "0x42511b67e0f27942dd6555fbc5f34622192b7616bcb97ddfa636e1a1d17896b4",
          "blockNumber": "0x17cb534",
          "transactionHash": "0xdfd96f7ff454bbb1e5004b26c183884254f9f31e2bb1d7e5477d8eabeb1875b4",
          "transactionIndex": "0x17",
          "logIndex": "0x27",
          "removed": false
        }
      ],
      "logsBloom": "0x00000000000000000000000000000000000000000000002000000020400000000000000000000000000000002000000000000000000000000000000000400000000000000000000000000008000000000000000000000000000000000000000000000000000000000000000000000000000000000200000000000010010000000000000000000000000000000000000000000000000000000000000000000000000000000080000200000002000000000000000010000000000000000000000000000102000000000000000000020000000000000000000000000000000000004000000400000000000000000000000000000000000000000000000000000000",
      "type": "0x2",
      "transactionHash": "0xdfd96f7ff454bbb1e5004b26c183884254f9f31e2bb1d7e5477d8eabeb1875b4",
      "transactionIndex": "0x17",
      "blockHash": "0x42511b67e0f27942dd6555fbc5f34622192b7616bcb97ddfa636e1a1d17896b4",
      "blockNumber": "0x17cb534",
      "gasUsed": "0x14184",
      "effectiveGasPrice": "0x3b9aca01",
      "from": "0x3b4f0135465d444a5bd06ab90fc59b73916c85f5",
      "to": "0xf44f2527d964ef4a8a38c0e676c05a1dc8574ffa",
      "contractAddress": null
    }
  ],
  "libraries": [],
  "pending": [],
  "returns": {},
  "timestamp": 1741286486,
  "chain": 57054,
  "commit": "f079722"
}