{
  "transactions": [
    {
      "hash": "0xb2f607dc11c1be4ccbadea7b46c16df8d8f5ff7f55c6f3e89004261ca3ab4b3f",
      "transactionType": "CREATE",
      "contractName": "TokenFactory",
      "contractAddress": "0xb27c513a95f5491974599cdd4661a4f9c2013cad",
      "function": null,
      "arguments": null,
      "transaction": {
        "from": "0x3b4f0135465d444a5bd06ab90fc59b73916c85f5",
        "gas": "0x11f45b",
        "value": "0x0",
        "input": "0x6080604052348015600e575f5ffd5b50610f658061001c5f395ff3fe608060405234801561000f575f5ffd5b5060043610610029575f3560e01c8063b64acddd1461002d575b5f5ffd5b61004061003b366004610197565b61005c565b6040516001600160a01b03909116815260200160405180910390f35b5f5f858585853360405161006f906100eb565b61007d95949392919061024a565b604051809103905ff080158015610096573d5f5f3e3d5ffd5b509050806001600160a01b03167fafab5d1d74bae8c6b34c8932c5a93db45757bef8a5b14b76f11aa2cdd5cb9be587878787336040516100da95949392919061024a565b60405180910390a295945050505050565b610c978061029983390190565b634e487b7160e01b5f52604160045260245ffd5b5f82601f83011261011b575f5ffd5b813567ffffffffffffffff811115610135576101356100f8565b604051601f8201601f19908116603f0116810167ffffffffffffffff81118282101715610164576101646100f8565b60405281815283820160200185101561017b575f5ffd5b816020850160208301375f918101602001919091529392505050565b5f5f5f5f608085870312156101aa575f5ffd5b843567ffffffffffffffff8111156101c0575f5ffd5b6101cc8782880161010c565b945050602085013567ffffffffffffffff8111156101e8575f5ffd5b6101f48782880161010c565b93505060408501359150606085013560ff81168114610211575f5ffd5b939692955090935050565b5f81518084528060208401602086015e5f602082860101526020601f19601f83011685010191505092915050565b60a081525f61025c60a083018861021c565b828103602084015261026e818861021c565b6040840196909652505060ff9290921660608301526001600160a01b03166080909101529291505056fe608060405234801561000f575f5ffd5b50604051610c97380380610c9783398101604081905261002e91610288565b8484600361003c83826103b1565b50600461004982826103b1565b50506005805460ff191660ff851690811790915561007e9150829061006f90600a610564565b6100799086610576565b610088565b50505050506105a0565b6001600160a01b0382166100b65760405163ec442f0560e01b81525f60048201526024015b60405180910390fd5b6100c15f83836100c5565b5050565b6001600160a01b0383166100ef578060025f8282546100e4919061058d565b9091555061015f9050565b6001600160a01b0383165f90815260208190526040902054818110156101415760405163391434e360e21b81526001600160a01b038516600482015260248101829052604481018390526064016100ad565b6001600160a01b0384165f9081526020819052604090209082900390555b6001600160a01b03821661017b57600280548290039055610199565b6001600160a01b0382165f9081526020819052604090208054820190555b816001600160a01b0316836001600160a01b03167fddf252ad1be2c89b69c2b068fc378daa952ba7f163c4a11628f55a4df523b3ef836040516101de91815260200190565b60405180910390a3505050565b634e487b7160e01b5f52604160045260245ffd5b5f82601f83011261020e575f5ffd5b81516001600160401b03811115610227576102276101eb565b604051601f8201601f19908116603f011681016001600160401b0381118282101715610255576102556101eb565b60405281815283820160200185101561026c575f5ffd5b8160208501602083015e5f918101602001919091529392505050565b5f5f5f5f5f60a0868803121561029c575f5ffd5b85516001600160401b038111156102b1575f5ffd5b6102bd888289016101ff565b602088015190965090506001600160401b038111156102da575f5ffd5b6102e6888289016101ff565b94505060408601519250606086015160ff81168114610303575f5ffd5b60808701519092506001600160a01b038116811461031f575f5ffd5b809150509295509295909350565b600181811c9082168061034157607f821691505b60208210810361035f57634e487b7160e01b5f52602260045260245ffd5b50919050565b601f8211156103ac57805f5260205f20601f840160051c8101602085101561038a5750805b601f840160051c820191505b818110156103a9575f8155600101610396565b50505b505050565b81516001600160401b038111156103ca576103ca6101eb565b6103de816103d8845461032d565b84610365565b6020601f821160018114610410575f83156103f95750848201515b5f19600385901b1c1916600184901b1784556103a9565b5f84815260208120601f198516915b8281101561043f578785015182556020948501946001909201910161041f565b508482101561045c57868401515f19600387901b60f8161c191681555b50505050600190811b01905550565b634e487b7160e01b5f52601160045260245ffd5b6001815b60018411156104ba5780850481111561049e5761049e61046b565b60018416156104ac57908102905b60019390931c928002610483565b935093915050565b5f826104d05750600161055e565b816104dc57505f61055e565b81600181146104f257600281146104fc57610518565b600191505061055e565b60ff84111561050d5761050d61046b565b50506001821b61055e565b5060208310610133831016604e8410600b841016171561053b575081810a61055e565b6105475f19848461047f565b805f190482111561055a5761055a61046b565b0290505b92915050565b5f61056f83836104c2565b9392505050565b808202811582820484141761055e5761055e61046b565b8082018082111561055e5761055e61046b565b6106ea806105ad5f395ff3fe608060405234801561000f575f5ffd5b5060043610610090575f3560e01c8063313ce56711610063578063313ce567146100fa57806370a082311461010f57806395d89b4114610137578063a9059cbb1461013f578063dd62ed3e14610152575f5ffd5b806306fdde0314610094578063095ea7b3146100b257806318160ddd146100d557806323b872dd146100e7575b5f5ffd5b61009c61018a565b6040516100a9919061055a565b60405180910390f35b6100c56100c03660046105aa565b61021a565b60405190151581526020016100a9565b6002545b6040519081526020016100a9565b6100c56100f53660046105d2565b610233565b60055460405160ff90911681526020016100a9565b6100d961011d36600461060c565b6001600160a01b03165f9081526020819052604090205490565b61009c610256565b6100c561014d3660046105aa565b610265565b6100d961016036600461062c565b6001600160a01b039182165f90815260016020908152604080832093909416825291909152205490565b6060600380546101999061065d565b80601f01602080910402602001604051908101604052809291908181526020018280546101c59061065d565b80156102105780601f106101e757610100808354040283529160200191610210565b820191905f5260205f20905b8154815290600101906020018083116101f357829003601f168201915b5050505050905090565b5f33610227818585610272565b60019150505b92915050565b5f33610240858285610284565b61024b858585610305565b506001949350505050565b6060600480546101999061065d565b5f33610227818585610305565b61027f8383836001610362565b505050565b6001600160a01b038381165f908152600160209081526040808320938616835292905220545f198110156102ff57818110156102f157604051637dc7a0d960e11b81526001600160a01b038416600482015260248101829052604481018390526064015b60405180910390fd5b6102ff84848484035f610362565b50505050565b6001600160a01b03831661032e57604051634b637e8f60e11b81525f60048201526024016102e8565b6001600160a01b0382166103575760405163ec442f0560e01b81525f60048201526024016102e8565b61027f838383610434565b6001600160a01b03841661038b5760405163e602df0560e01b81525f60048201526024016102e8565b6001600160a01b0383166103b457604051634a1406b160e11b81525f60048201526024016102e8565b6001600160a01b038085165f90815260016020908152604080832093871683529290522082905580156102ff57826001600160a01b0316846001600160a01b03167f8c5be1e5ebec7d5bd14f71427d1e84f3dd0314c0f7b2291e5b200ac8c7c3b9258460405161042691815260200190565b60405180910390a350505050565b6001600160a01b03831661045e578060025f8282546104539190610695565b909155506104ce9050565b6001600160a01b0383165f90815260208190526040902054818110156104b05760405163391434e360e21b81526001600160a01b038516600482015260248101829052604481018390526064016102e8565b6001600160a01b0384165f9081526020819052604090209082900390555b6001600160a01b0382166104ea57600280548290039055610508565b6001600160a01b0382165f9081526020819052604090208054820190555b816001600160a01b0316836001600160a01b03167fddf252ad1be2c89b69c2b068fc378daa952ba7f163c4a11628f55a4df523b3ef8360405161054d91815260200190565b60405180910390a3505050565b602081525f82518060208401528060208501604085015e5f604082850101526040601f19601f83011684010191505092915050565b80356001600160a01b03811681146105a5575f5ffd5b919050565b5f5f604083850312156105bb575f5ffd5b6105c48361058f565b946020939093013593505050565b5f5f5f606084860312156105e4575f5ffd5b6105ed8461058f565b92506105fb6020850161058f565b929592945050506040919091013590565b5f6020828403121561061c575f5ffd5b6106258261058f565b9392505050565b5f5f6040838503121561063d575f5ffd5b6106468361058f565b91506106546020840161058f565b90509250929050565b600181811c9082168061067157607f821691505b60208210810361068f57634e487b7160e01b5f52602260045260245ffd5b50919050565b8082018082111561022d57634e487b7160e01b5f52601160045260245ffdfea26469706673582212201b6bfe7ff3424d331f36ed33bc76c5c4832bc0464bc6dc2c54b3e8d902e89bd964736f6c634300081c0033a26469706673582212200163591eaaadbbddde15b59a6deddf68311c1a29ef9c703f1cfa87a4155220e864736f6c634300081c0033",
        "nonce": "0x58",
        "chainId": "0xdede"
      },
      "additionalContracts": [],
      "isFixedGasLimit": false
    },
    {
      "hash": "0x5945951aacf105031e3b1f95686ccf377625aadf2a9dd493c28d1b1c74e25adf",
      "transactionType": "CREATE",
      "contractName": "Core",
      "contractAddress": "0x7b8c2dbcb7fec9e7184e9224f5b3f0adabb5914d",
      "function": null,
      "arguments": null,
      "transaction": {
        "from": "0x3b4f0135465d444a5bd06ab90fc59b73916c85f5",
        "gas": "0x6f0d3",
        "value": "0x0",
        "input": "0x6080604052348015600e575f5ffd5b5061055c8061001c5f395ff3fe608060405234801561000f575f5ffd5b506004361061003f575f3560e01c8063b8c876b114610043578063df791e5014610074578063f4069cba14610087575b5f5ffd5b61006261005136600461042e565b5f6020819052908152604090205481565b60405190815260200160405180910390f35b61006261008236600461044e565b61009c565b61009a610095366004610488565b6103e3565b005b5f6001600160a01b038416158015906100bd57506001600160a01b03831615155b6101065760405162461bcd60e51b8152602060048201526015602482015274496e76616c696420746f6b656e206164647265737360581b60448201526064015b60405180910390fd5b5f82116101555760405162461bcd60e51b815260206004820181905260248201527f416d6f756e74206d7573742062652067726561746572207468616e207a65726f60448201526064016100fd565b6001600160a01b0384165f908152602081905260409020546101c45760405162461bcd60e51b815260206004820152602260248201527f496e73756666696369656e74206c697175696469747920666f7220746f6b656e60448201526124b760f11b60648201526084016100fd565b6001600160a01b0383165f908152602081905260409020546102345760405162461bcd60e51b815260206004820152602360248201527f496e73756666696369656e74206c697175696469747920666f7220746f6b656e60448201526213dd5d60ea1b60648201526084016100fd565b6001600160a01b038085165f9081526020819052604080822054928616825290205461026090846104c4565b61026a91906104e1565b90505f81116102c95760405162461bcd60e51b815260206004820152602560248201527f5377617020616d6f756e74206d7573742062652067726561746572207468616e604482015264207a65726f60d81b60648201526084016100fd565b6001600160a01b0383165f908152602081905260409020548111156103305760405162461bcd60e51b815260206004820152601f60248201527f496e73756666696369656e74206c697175696469747920666f7220737761700060448201526064016100fd565b6001600160a01b0384165f9081526020819052604081208054849290610357908490610500565b90915550506001600160a01b0383165f9081526020819052604081208054839290610383908490610500565b9091555050604080516001600160a01b038087168252851660208201529081018390526060810182905233907fcd3829a3813dc3cdd188fd3d01dcf3268c16be2fdd2dd21d0665418816e460629060800160405180910390a29392505050565b6001600160a01b0382165f908152602081905260408120805483929061040a908490610513565b90915550505050565b80356001600160a01b0381168114610429575f5ffd5b919050565b5f6020828403121561043e575f5ffd5b61044782610413565b9392505050565b5f5f5f60608486031215610460575f5ffd5b61046984610413565b925061047760208501610413565b929592945050506040919091013590565b5f5f60408385031215610499575f5ffd5b6104a283610413565b946020939093013593505050565b634e487b7160e01b5f52601160045260245ffd5b80820281158282048414176104db576104db6104b0565b92915050565b5f826104fb57634e487b7160e01b5f52601260045260245ffd5b500490565b818103818111156104db576104db6104b0565b808201808211156104db576104db6104b056fea264697066735822122042dcd289bc8377555ab7383dfe85f35568235beaed8ced952d15df2614e5320a64736f6c634300081c0033",
        "nonce": "0x59",
        "chainId": "0xdede"
      },
      "additionalContracts": [],
      "isFixedGasLimit": false
    },
    {
      "hash": "0x3bba1751f292b7717ab7dca819ae99c40e2124ef2835385c3f759a95fdddf3da",
      "transactionType": "CALL",
      "contractName": "TokenFactory",
      "contractAddress": "0xb27c513a95f5491974599cdd4661a4f9c2013cad",
      "function": "createToken(string,string,uint256,uint8)",
      "arguments": [
        "SONIC",
        "S",
        "1000000000000000000000000000",
        "18"
      ],
      "transaction": {
        "from": "0x3b4f0135465d444a5bd06ab90fc59b73916c85f5",
        "to": "0xb27c513a95f5491974599cdd4661a4f9c2013cad",
        "gas": "0xbd564",
        "value": "0x0",
        "input": "0xb64acddd000000000000000000000000000000000000000000000000000000000000008000000000000000000000000000000000000000000000000000000000000000c00000000000000000000000000000000000000000033b2e3c9fd0803ce800000000000000000000000000000000000000000000000000000000000000000000120000000000000000000000000000000000000000000000000000000000000005534f4e494300000000000000000000000000000000000000000000000000000000000000000000000000000000000000000000000000000000000000000000015300000000000000000000000000000000000000000000000000000000000000",
        "nonce": "0x5a",
        "chainId": "0xdede"
      },
      "additionalContracts": [
        {
          "transactionType": "CREATE",
          "address": "0x9ab1fc00d2f8f90b39b97f071659158f6dbb768a",
          "initCode": "0x608060405234801561000f575f5ffd5b50604051610c97380380610c9783398101604081905261002e91610288565b8484600361003c83826103b1565b50600461004982826103b1565b50506005805460ff191660ff851690811790915561007e9150829061006f90600a610564565b6100799086610576565b610088565b50505050506105a0565b6001600160a01b0382166100b65760405163ec442f0560e01b81525f60048201526024015b60405180910390fd5b6100c15f83836100c5565b5050565b6001600160a01b0383166100ef578060025f8282546100e4919061058d565b9091555061015f9050565b6001600160a01b0383165f90815260208190526040902054818110156101415760405163391434e360e21b81526001600160a01b038516600482015260248101829052604481018390526064016100ad565b6001600160a01b0384165f9081526020819052604090209082900390555b6001600160a01b03821661017b57600280548290039055610199565b6001600160a01b0382165f9081526020819052604090208054820190555b816001600160a01b0316836001600160a01b03167fddf252ad1be2c89b69c2b068fc378daa952ba7f163c4a11628f55a4df523b3ef836040516101de91815260200190565b60405180910390a3505050565b634e487b7160e01b5f52604160045260245ffd5b5f82601f83011261020e575f5ffd5b81516001600160401b03811115610227576102276101eb565b604051601f8201601f19908116603f011681016001600160401b0381118282101715610255576102556101eb565b60405281815283820160200185101561026c575f5ffd5b8160208501602083015e5f918101602001919091529392505050565b5f5f5f5f5f60a0868803121561029c575f5ffd5b85516001600160401b038111156102b1575f5ffd5b6102bd888289016101ff565b602088015190965090506001600160401b038111156102da575f5ffd5b6102e6888289016101ff565b94505060408601519250606086015160ff81168114610303575f5ffd5b60808701519092506001600160a01b038116811461031f575f5ffd5b809150509295509295909350565b600181811c9082168061034157607f821691505b60208210810361035f57634e487b7160e01b5f52602260045260245ffd5b50919050565b601f8211156103ac57805f5260205f20601f840160051c8101602085101561038a5750805b601f840160051c820191505b818110156103a9575f8155600101610396565b50505b505050565b81516001600160401b038111156103ca576103ca6101eb565b6103de816103d8845461032d565b84610365565b6020601f821160018114610410575f83156103f95750848201515b5f19600385901b1c1916600184901b1784556103a9565b5f84815260208120601f198516915b8281101561043f578785015182556020948501946001909201910161041f565b508482101561045c57868401515f19600387901b60f8161c191681555b50505050600190811b01905550565b634e487b7160e01b5f52601160045260245ffd5b6001815b60018411156104ba5780850481111561049e5761049e61046b565b60018416156104ac57908102905b60019390931c928002610483565b935093915050565b5f826104d05750600161055e565b816104dc57505f61055e565b81600181146104f257600281146104fc57610518565b600191505061055e565b60ff84111561050d5761050d61046b565b50506001821b61055e565b5060208310610133831016604e8410600b841016171561053b575081810a61055e565b6105475f19848461047f565b805f190482111561055a5761055a61046b565b0290505b92915050565b5f61056f83836104c2565b9392505050565b808202811582820484141761055e5761055e61046b565b8082018082111561055e5761055e61046b565b6106ea806105ad5f395ff3fe608060405234801561000f575f5ffd5b5060043610610090575f3560e01c8063313ce56711610063578063313ce567146100fa57806370a082311461010f57806395d89b4114610137578063a9059cbb1461013f578063dd62ed3e14610152575f5ffd5b806306fdde0314610094578063095ea7b3146100b257806318160ddd146100d557806323b872dd146100e7575b5f5ffd5b61009c61018a565b6040516100a9919061055a565b60405180910390f35b6100c56100c03660046105aa565b61021a565b60405190151581526020016100a9565b6002545b6040519081526020016100a9565b6100c56100f53660046105d2565b610233565b60055460405160ff90911681526020016100a9565b6100d961011d36600461060c565b6001600160a01b03165f9081526020819052604090205490565b61009c610256565b6100c561014d3660046105aa565b610265565b6100d961016036600461062c565b6001600160a01b039182165f90815260016020908152604080832093909416825291909152205490565b6060600380546101999061065d565b80601f01602080910402602001604051908101604052809291908181526020018280546101c59061065d565b80156102105780601f106101e757610100808354040283529160200191610210565b820191905f5260205f20905b8154815290600101906020018083116101f357829003601f168201915b5050505050905090565b5f33610227818585610272565b60019150505b92915050565b5f33610240858285610284565b61024b858585610305565b506001949350505050565b6060600480546101999061065d565b5f33610227818585610305565b61027f8383836001610362565b505050565b6001600160a01b038381165f908152600160209081526040808320938616835292905220545f198110156102ff57818110156102f157604051637dc7a0d960e11b81526001600160a01b038416600482015260248101829052604481018390526064015b60405180910390fd5b6102ff84848484035f610362565b50505050565b6001600160a01b03831661032e57604051634b637e8f60e11b81525f60048201526024016102e8565b6001600160a01b0382166103575760405163ec442f0560e01b81525f60048201526024016102e8565b61027f838383610434565b6001600160a01b03841661038b5760405163e602df0560e01b81525f60048201526024016102e8565b6001600160a01b0383166103b457604051634a1406b160e11b81525f60048201526024016102e8565b6001600160a01b038085165f90815260016020908152604080832093871683529290522082905580156102ff57826001600160a01b0316846001600160a01b03167f8c5be1e5ebec7d5bd14f71427d1e84f3dd0314c0f7b2291e5b200ac8c7c3b9258460405161042691815260200190565b60405180910390a350505050565b6001600160a01b03831661045e578060025f8282546104539190610695565b909155506104ce9050565b6001600160a01b0383165f90815260208190526040902054818110156104b05760405163391434e360e21b81526001600160a01b038516600482015260248101829052604481018390526064016102e8565b6001600160a01b0384165f9081526020819052604090209082900390555b6001600160a01b0382166104ea57600280548290039055610508565b6001600160a01b0382165f9081526020819052604090208054820190555b816001600160a01b0316836001600160a01b03167fddf252ad1be2c89b69c2b068fc378daa952ba7f163c4a11628f55a4df523b3ef8360405161054d91815260200190565b60405180910390a3505050565b602081525f82518060208401528060208501604085015e5f604082850101526040601f19601f83011684010191505092915050565b80356001600160a01b03811681146105a5575f5ffd5b919050565b5f5f604083850312156105bb575f5ffd5b6105c48361058f565b946020939093013593505050565b5f5f5f606084860312156105e4575f5ffd5b6105ed8461058f565b92506105fb6020850161058f565b929592945050506040919091013590565b5f6020828403121561061c575f5ffd5b6106258261058f565b9392505050565b5f5f6040838503121561063d575f5ffd5b6106468361058f565b91506106546020840161058f565b90509250929050565b600181811c9082168061067157607f821691505b60208210810361068f57634e487b7160e01b5f52602260045260245ffd5b50919050565b8082018082111561022d57634e487b7160e01b5f52601160045260245ffdfea26469706673582212201b6bfe7ff3424d331f36ed33bc76c5c4832bc0464bc6dc2c54b3e8d902e89bd964736f6c634300081c003300000000000000000000000000000000000000000000000000000000000000a000000000000000000000000000000000000000000000000000000000000000e00000000000000000000000000000000000000000033b2e3c9fd0803ce800000000000000000000000000000000000000000000000000000000000000000000120000000000000000000000003b4f0135465d444a5bd06ab90fc59b73916c85f50000000000000000000000000000000000000000000000000000000000000005534f4e494300000000000000000000000000000000000000000000000000000000000000000000000000000000000000000000000000000000000000000000015300000000000000000000000000000000000000000000000000000000000000"
        }
      ],
      "isFixedGasLimit": false
    },
    {
      "hash": "0xf77619de15ff7df0e45aa86731e7fc5ec28609f40296a09f6a3896ca6b881f34",
      "transactionType": "CALL",
      "contractName": "MockToken",
      "contractAddress": "0x9ab1fc00d2f8f90b39b97f071659158f6dbb768a",
      "function": "approve(address,uint256)",
      "arguments": [
        "0x7B8C2DBCb7feC9e7184E9224f5b3F0adaBB5914D",
        "131000000000000000000000"
      ],
      "transaction": {
        "from": "0x3b4f0135465d444a5bd06ab90fc59b73916c85f5",
        "to": "0x9ab1fc00d2f8f90b39b97f071659158f6dbb768a",
        "gas": "0xfa4b",
        "value": "0x0",
        "input": "0x095ea7b30000000000000000000000007b8c2dbcb7fec9e7184e9224f5b3f0adabb5914d000000000000000000000000000000000000000000001bbd8633ec40ebe00000",
        "nonce": "0x5b",
        "chainId": "0xdede"
      },
      "additionalContracts": [],
      "isFixedGasLimit": false
    },
    {
      "hash": "0xc7c8a0d6abbdd05f5d2edf76dc428bdaf358689e69f6164860a9dac6cb1862b6",
      "transactionType": "CALL",
      "contractName": "Core",
      "contractAddress": "0x7b8c2dbcb7fec9e7184e9224f5b3f0adabb5914d",
      "function": "setLiquidity(address,uint256)",
      "arguments": [
        "0x9AB1fC00D2f8f90b39B97f071659158F6DbB768A",
        "131000000000000000000000"
      ],
      "transaction": {
        "from": "0x3b4f0135465d444a5bd06ab90fc59b73916c85f5",
        "to": "0x7b8c2dbcb7fec9e7184e9224f5b3f0adabb5914d",
        "gas": "0xfcfa",
        "value": "0x0",
        "input": "0xf4069cba0000000000000000000000009ab1fc00d2f8f90b39b97f071659158f6dbb768a000000000000000000000000000000000000000000001bbd8633ec40ebe00000",
        "nonce": "0x5c",
        "chainId": "0xdede"
      },
      "additionalContracts": [],
      "isFixedGasLimit": false
    },
    {
      "hash": "0x7ab7daac80e529d7e2b330009ab75f562356aa243e53ee8a334a878b9fadc784",
      "transactionType": "CALL",
      "contractName": "TokenFactory",
      "contractAddress": "0xb27c513a95f5491974599cdd4661a4f9c2013cad",
      "function": "createToken(string,string,uint256,uint8)",
      "arguments": [
        "USD Coin",
        "USDC",
        "1000000000000000000000000000",
        "18"
      ],
      "transaction": {
        "from": "0x3b4f0135465d444a5bd06ab90fc59b73916c85f5",
        "to": "0xb27c513a95f5491974599cdd4661a4f9c2013cad",
        "gas": "0xbd5cd",
        "value": "0x0",
        "input": "0xb64acddd000000000000000000000000000000000000000000000000000000000000008000000000000000000000000000000000000000000000000000000000000000c00000000000000000000000000000000000000000033b2e3c9fd0803ce80000000000000000000000000000000000000000000000000000000000000000000012000000000000000000000000000000000000000000000000000000000000000855534420436f696e00000000000000000000000000000000000000000000000000000000000000000000000000000000000000000000000000000000000000045553444300000000000000000000000000000000000000000000000000000000",
        "nonce": "0x5d",
        "chainId": "0xdede"
      },
      "additionalContracts": [
        {
          "transactionType": "CREATE",
          "address": "0xc3196b13a399b3a98082c6462ca0d00d94d79e34",
          "initCode": "0x608060405234801561000f575f5ffd5b50604051610c97380380610c9783398101604081905261002e91610288565b8484600361003c83826103b1565b50600461004982826103b1565b50506005805460ff191660ff851690811790915561007e9150829061006f90600a610564565b6100799086610576565b610088565b50505050506105a0565b6001600160a01b0382166100b65760405163ec442f0560e01b81525f60048201526024015b60405180910390fd5b6100c15f83836100c5565b5050565b6001600160a01b0383166100ef578060025f8282546100e4919061058d565b9091555061015f9050565b6001600160a01b0383165f90815260208190526040902054818110156101415760405163391434e360e21b81526001600160a01b038516600482015260248101829052604481018390526064016100ad565b6001600160a01b0384165f9081526020819052604090209082900390555b6001600160a01b03821661017b57600280548290039055610199565b6001600160a01b0382165f9081526020819052604090208054820190555b816001600160a01b0316836001600160a01b03167fddf252ad1be2c89b69c2b068fc378daa952ba7f163c4a11628f55a4df523b3ef836040516101de91815260200190565b60405180910390a3505050565b634e487b7160e01b5f52604160045260245ffd5b5f82601f83011261020e575f5ffd5b81516001600160401b03811115610227576102276101eb565b604051601f8201601f19908116603f011681016001600160401b0381118282101715610255576102556101eb565b60405281815283820160200185101561026c575f5ffd5b8160208501602083015e5f918101602001919091529392505050565b5f5f5f5f5f60a0868803121561029c575f5ffd5b85516001600160401b038111156102b1575f5ffd5b6102bd888289016101ff565b602088015190965090506001600160401b038111156102da575f5ffd5b6102e6888289016101ff565b94505060408601519250606086015160ff81168114610303575f5ffd5b60808701519092506001600160a01b038116811461031f575f5ffd5b809150509295509295909350565b600181811c9082168061034157607f821691505b60208210810361035f57634e487b7160e01b5f52602260045260245ffd5b50919050565b601f8211156103ac57805f5260205f20601f840160051c8101602085101561038a5750805b601f840160051c820191505b818110156103a9575f8155600101610396565b50505b505050565b81516001600160401b038111156103ca576103ca6101eb565b6103de816103d8845461032d565b84610365565b6020601f821160018114610410575f83156103f95750848201515b5f19600385901b1c1916600184901b1784556103a9565b5f84815260208120601f198516915b8281101561043f578785015182556020948501946001909201910161041f565b508482101561045c57868401515f19600387901b60f8161c191681555b50505050600190811b01905550565b634e487b7160e01b5f52601160045260245ffd5b6001815b60018411156104ba5780850481111561049e5761049e61046b565b60018416156104ac57908102905b60019390931c928002610483565b935093915050565b5f826104d05750600161055e565b816104dc57505f61055e565b81600181146104f257600281146104fc57610518565b600191505061055e565b60ff84111561050d5761050d61046b565b50506001821b61055e565b5060208310610133831016604e8410600b841016171561053b575081810a61055e565b6105475f19848461047f565b805f190482111561055a5761055a61046b565b0290505b92915050565b5f61056f83836104c2565b9392505050565b808202811582820484141761055e5761055e61046b565b8082018082111561055e5761055e61046b565b6106ea806105ad5f395ff3fe608060405234801561000f575f5ffd5b5060043610610090575f3560e01c8063313ce56711610063578063313ce567146100fa57806370a082311461010f57806395d89b4114610137578063a9059cbb1461013f578063dd62ed3e14610152575f5ffd5b806306fdde0314610094578063095ea7b3146100b257806318160ddd146100d557806323b872dd146100e7575b5f5ffd5b61009c61018a565b6040516100a9919061055a565b60405180910390f35b6100c56100c03660046105aa565b61021a565b60405190151581526020016100a9565b6002545b6040519081526020016100a9565b6100c56100f53660046105d2565b610233565b60055460405160ff90911681526020016100a9565b6100d961011d36600461060c565b6001600160a01b03165f9081526020819052604090205490565b61009c610256565b6100c561014d3660046105aa565b610265565b6100d961016036600461062c565b6001600160a01b039182165f90815260016020908152604080832093909416825291909152205490565b6060600380546101999061065d565b80601f01602080910402602001604051908101604052809291908181526020018280546101c59061065d565b80156102105780601f106101e757610100808354040283529160200191610210565b820191905f5260205f20905b8154815290600101906020018083116101f357829003601f168201915b5050505050905090565b5f33610227818585610272565b60019150505b92915050565b5f33610240858285610284565b61024b858585610305565b506001949350505050565b6060600480546101999061065d565b5f33610227818585610305565b61027f8383836001610362565b505050565b6001600160a01b038381165f908152600160209081526040808320938616835292905220545f198110156102ff57818110156102f157604051637dc7a0d960e11b81526001600160a01b038416600482015260248101829052604481018390526064015b60405180910390fd5b6102ff84848484035f610362565b50505050565b6001600160a01b03831661032e57604051634b637e8f60e11b81525f60048201526024016102e8565b6001600160a01b0382166103575760405163ec442f0560e01b81525f60048201526024016102e8565b61027f838383610434565b6001600160a01b03841661038b5760405163e602df0560e01b81525f60048201526024016102e8565b6001600160a01b0383166103b457604051634a1406b160e11b81525f60048201526024016102e8565b6001600160a01b038085165f90815260016020908152604080832093871683529290522082905580156102ff57826001600160a01b0316846001600160a01b03167f8c5be1e5ebec7d5bd14f71427d1e84f3dd0314c0f7b2291e5b200ac8c7c3b9258460405161042691815260200190565b60405180910390a350505050565b6001600160a01b03831661045e578060025f8282546104539190610695565b909155506104ce9050565b6001600160a01b0383165f90815260208190526040902054818110156104b05760405163391434e360e21b81526001600160a01b038516600482015260248101829052604481018390526064016102e8565b6001600160a01b0384165f9081526020819052604090209082900390555b6001600160a01b0382166104ea57600280548290039055610508565b6001600160a01b0382165f9081526020819052604090208054820190555b816001600160a01b0316836001600160a01b03167fddf252ad1be2c89b69c2b068fc378daa952ba7f163c4a11628f55a4df523b3ef8360405161054d91815260200190565b60405180910390a3505050565b602081525f82518060208401528060208501604085015e5f604082850101526040601f19601f83011684010191505092915050565b80356001600160a01b03811681146105a5575f5ffd5b919050565b5f5f604083850312156105bb575f5ffd5b6105c48361058f565b946020939093013593505050565b5f5f5f606084860312156105e4575f5ffd5b6105ed8461058f565b92506105fb6020850161058f565b929592945050506040919091013590565b5f6020828403121561061c575f5ffd5b6106258261058f565b9392505050565b5f5f6040838503121561063d575f5ffd5b6106468361058f565b91506106546020840161058f565b90509250929050565b600181811c9082168061067157607f821691505b60208210810361068f57634e487b7160e01b5f52602260045260245ffd5b50919050565b8082018082111561022d57634e487b7160e01b5f52601160045260245ffdfea26469706673582212201b6bfe7ff3424d331f36ed33bc76c5c4832bc0464bc6dc2c54b3e8d902e89bd964736f6c634300081c003300000000000000000000000000000000000000000000000000000000000000a000000000000000000000000000000000000000000000000000000000000000e00000000000000000000000000000000000000000033b2e3c9fd0803ce800000000000000000000000000000000000000000000000000000000000000000000120000000000000000000000003b4f0135465d444a5bd06ab90fc59b73916c85f5000000000000000000000000000000000000000000000000000000000000000855534420436f696e00000000000000000000000000000000000000000000000000000000000000000000000000000000000000000000000000000000000000045553444300000000000000000000000000000000000000000000000000000000"
        }
      ],
      "isFixedGasLimit": false
    },
    {
      "hash": "0x129f93dc678f118c47439de6a2daa567a4b43e00bf15d1fc73d7c46b782fb645",
      "transactionType": "CALL",
      "contractName": "MockToken",
      "contractAddress": "0xc3196b13a399b3a98082c6462ca0d00d94d79e34",
      "function": "approve(address,uint256)",
      "arguments": [
        "0x7B8C2DBCb7feC9e7184E9224f5b3F0adaBB5914D",
        "131000000000000000000000"
      ],
      "transaction": {
        "from": "0x3b4f0135465d444a5bd06ab90fc59b73916c85f5",
        "to": "0xc3196b13a399b3a98082c6462ca0d00d94d79e34",
        "gas": "0xfa4b",
        "value": "0x0",
        "input": "0x095ea7b30000000000000000000000007b8c2dbcb7fec9e7184e9224f5b3f0adabb5914d000000000000000000000000000000000000000000001bbd8633ec40ebe00000",
        "nonce": "0x5e",
        "chainId": "0xdede"
      },
      "additionalContracts": [],
      "isFixedGasLimit": false
    },
    {
      "hash": "0xc3473033f6e0684b80775fe3079535381684f2b9c0b86cfc2b8bf22e8359f75e",
      "transactionType": "CALL",
      "contractName": "Core",
      "contractAddress": "0x7b8c2dbcb7fec9e7184e9224f5b3f0adabb5914d",
      "function": "setLiquidity(address,uint256)",
      "arguments": [
        "0xC3196b13a399B3a98082C6462cA0d00D94D79e34",
        "131000000000000000000000"
      ],
      "transaction": {
        "from": "0x3b4f0135465d444a5bd06ab90fc59b73916c85f5",
        "to": "0x7b8c2dbcb7fec9e7184e9224f5b3f0adabb5914d",
        "gas": "0xeefc",
        "value": "0x0",
        "input": "0xf4069cba000000000000000000000000c3196b13a399b3a98082c6462ca0d00d94d79e34000000000000000000000000000000000000000000001bbd8633ec40ebe00000",
        "nonce": "0x5f",
        "chainId": "0xdede"
      },
      "additionalContracts": [],
      "isFixedGasLimit": false
    },
    {
      "hash": "0x6287238d4581ab103d6e6d2e3c8370a6d5aef3098e4c138735e2f590b7ced75c",
      "transactionType": "CALL",
      "contractName": "TokenFactory",
      "contractAddress": "0xb27c513a95f5491974599cdd4661a4f9c2013cad",
      "function": "createToken(string,string,uint256,uint8)",
      "arguments": [
        "Tether USD",
        "USDT",
        "1000000000000000000000000000",
        "18"
      ],
      "transaction": {
        "from": "0x3b4f0135465d444a5bd06ab90fc59b73916c85f5",
        "to": "0xb27c513a95f5491974599cdd4661a4f9c2013cad",
        "gas": "0xbd5f0",
        "value": "0x0",
        "input": "0xb64acddd000000000000000000000000000000000000000000000000000000000000008000000000000000000000000000000000000000000000000000000000000000c00000000000000000000000000000000000000000033b2e3c9fd0803ce80000000000000000000000000000000000000000000000000000000000000000000012000000000000000000000000000000000000000000000000000000000000000a546574686572205553440000000000000000000000000000000000000000000000000000000000000000000000000000000000000000000000000000000000045553445400000000000000000000000000000000000000000000000000000000",
        "nonce": "0x60",
        "chainId": "0xdede"
      },
      "additionalContracts": [
        {
          "transactionType": "CREATE",
          "address": "0x0cea36dec7e7f7a0a36f28d89a4dbf974d66a441",
          "initCode": "0x608060405234801561000f575f5ffd5b50604051610c97380380610c9783398101604081905261002e91610288565b8484600361003c83826103b1565b50600461004982826103b1565b50506005805460ff191660ff851690811790915561007e9150829061006f90600a610564565b6100799086610576565b610088565b50505050506105a0565b6001600160a01b0382166100b65760405163ec442f0560e01b81525f60048201526024015b60405180910390fd5b6100c15f83836100c5565b5050565b6001600160a01b0383166100ef578060025f8282546100e4919061058d565b9091555061015f9050565b6001600160a01b0383165f90815260208190526040902054818110156101415760405163391434e360e21b81526001600160a01b038516600482015260248101829052604481018390526064016100ad565b6001600160a01b0384165f9081526020819052604090209082900390555b6001600160a01b03821661017b57600280548290039055610199565b6001600160a01b0382165f9081526020819052604090208054820190555b816001600160a01b0316836001600160a01b03167fddf252ad1be2c89b69c2b068fc378daa952ba7f163c4a11628f55a4df523b3ef836040516101de91815260200190565b60405180910390a3505050565b634e487b7160e01b5f52604160045260245ffd5b5f82601f83011261020e575f5ffd5b81516001600160401b03811115610227576102276101eb565b604051601f8201601f19908116603f011681016001600160401b0381118282101715610255576102556101eb565b60405281815283820160200185101561026c575f5ffd5b8160208501602083015e5f918101602001919091529392505050565b5f5f5f5f5f60a0868803121561029c575f5ffd5b85516001600160401b038111156102b1575f5ffd5b6102bd888289016101ff565b602088015190965090506001600160401b038111156102da575f5ffd5b6102e6888289016101ff565b94505060408601519250606086015160ff81168114610303575f5ffd5b60808701519092506001600160a01b038116811461031f575f5ffd5b809150509295509295909350565b600181811c9082168061034157607f821691505b60208210810361035f57634e487b7160e01b5f52602260045260245ffd5b50919050565b601f8211156103ac57805f5260205f20601f840160051c8101602085101561038a5750805b601f840160051c820191505b818110156103a9575f8155600101610396565b50505b505050565b81516001600160401b038111156103ca576103ca6101eb565b6103de816103d8845461032d565b84610365565b6020601f821160018114610410575f83156103f95750848201515b5f19600385901b1c1916600184901b1784556103a9565b5f84815260208120601f198516915b8281101561043f578785015182556020948501946001909201910161041f565b508482101561045c57868401515f19600387901b60f8161c191681555b50505050600190811b01905550565b634e487b7160e01b5f52601160045260245ffd5b6001815b60018411156104ba5780850481111561049e5761049e61046b565b60018416156104ac57908102905b60019390931c928002610483565b935093915050565b5f826104d05750600161055e565b816104dc57505f61055e565b81600181146104f257600281146104fc57610518565b600191505061055e565b60ff84111561050d5761050d61046b565b50506001821b61055e565b5060208310610133831016604e8410600b841016171561053b575081810a61055e565b6105475f19848461047f565b805f190482111561055a5761055a61046b565b0290505b92915050565b5f61056f83836104c2565b9392505050565b808202811582820484141761055e5761055e61046b565b8082018082111561055e5761055e61046b565b6106ea806105ad5f395ff3fe608060405234801561000f575f5ffd5b5060043610610090575f3560e01c8063313ce56711610063578063313ce567146100fa57806370a082311461010f57806395d89b4114610137578063a9059cbb1461013f578063dd62ed3e14610152575f5ffd5b806306fdde0314610094578063095ea7b3146100b257806318160ddd146100d557806323b872dd146100e7575b5f5ffd5b61009c61018a565b6040516100a9919061055a565b60405180910390f35b6100c56100c03660046105aa565b61021a565b60405190151581526020016100a9565b6002545b6040519081526020016100a9565b6100c56100f53660046105d2565b610233565b60055460405160ff90911681526020016100a9565b6100d961011d36600461060c565b6001600160a01b03165f9081526020819052604090205490565b61009c610256565b6100c561014d3660046105aa565b610265565b6100d961016036600461062c565b6001600160a01b039182165f90815260016020908152604080832093909416825291909152205490565b6060600380546101999061065d565b80601f01602080910402602001604051908101604052809291908181526020018280546101c59061065d565b80156102105780601f106101e757610100808354040283529160200191610210565b820191905f5260205f20905b8154815290600101906020018083116101f357829003601f168201915b5050505050905090565b5f33610227818585610272565b60019150505b92915050565b5f33610240858285610284565b61024b858585610305565b506001949350505050565b6060600480546101999061065d565b5f33610227818585610305565b61027f8383836001610362565b505050565b6001600160a01b038381165f908152600160209081526040808320938616835292905220545f198110156102ff57818110156102f157604051637dc7a0d960e11b81526001600160a01b038416600482015260248101829052604481018390526064015b60405180910390fd5b6102ff84848484035f610362565b50505050565b6001600160a01b03831661032e57604051634b637e8f60e11b81525f60048201526024016102e8565b6001600160a01b0382166103575760405163ec442f0560e01b81525f60048201526024016102e8565b61027f838383610434565b6001600160a01b03841661038b5760405163e602df0560e01b81525f60048201526024016102e8565b6001600160a01b0383166103b457604051634a1406b160e11b81525f60048201526024016102e8565b6001600160a01b038085165f90815260016020908152604080832093871683529290522082905580156102ff57826001600160a01b0316846001600160a01b03167f8c5be1e5ebec7d5bd14f71427d1e84f3dd0314c0f7b2291e5b200ac8c7c3b9258460405161042691815260200190565b60405180910390a350505050565b6001600160a01b03831661045e578060025f8282546104539190610695565b909155506104ce9050565b6001600160a01b0383165f90815260208190526040902054818110156104b05760405163391434e360e21b81526001600160a01b038516600482015260248101829052604481018390526064016102e8565b6001600160a01b0384165f9081526020819052604090209082900390555b6001600160a01b0382166104ea57600280548290039055610508565b6001600160a01b0382165f9081526020819052604090208054820190555b816001600160a01b0316836001600160a01b03167fddf252ad1be2c89b69c2b068fc378daa952ba7f163c4a11628f55a4df523b3ef8360405161054d91815260200190565b60405180910390a3505050565b602081525f82518060208401528060208501604085015e5f604082850101526040601f19601f83011684010191505092915050565b80356001600160a01b03811681146105a5575f5ffd5b919050565b5f5f604083850312156105bb575f5ffd5b6105c48361058f565b946020939093013593505050565b5f5f5f606084860312156105e4575f5ffd5b6105ed8461058f565b92506105fb6020850161058f565b929592945050506040919091013590565b5f6020828403121561061c575f5ffd5b6106258261058f565b9392505050565b5f5f6040838503121561063d575f5ffd5b6106468361058f565b91506106546020840161058f565b90509250929050565b600181811c9082168061067157607f821691505b60208210810361068f57634e487b7160e01b5f52602260045260245ffd5b50919050565b8082018082111561022d57634e487b7160e01b5f52601160045260245ffdfea26469706673582212201b6bfe7ff3424d331f36ed33bc76c5c4832bc0464bc6dc2c54b3e8d902e89bd964736f6c634300081c003300000000000000000000000000000000000000000000000000000000000000a000000000000000000000000000000000000000000000000000000000000000e00000000000000000000000000000000000000000033b2e3c9fd0803ce800000000000000000000000000000000000000000000000000000000000000000000120000000000000000000000003b4f0135465d444a5bd06ab90fc59b73916c85f5000000000000000000000000000000000000000000000000000000000000000a546574686572205553440000000000000000000000000000000000000000000000000000000000000000000000000000000000000000000000000000000000045553445400000000000000000000000000000000000000000000000000000000"
        }
      ],
      "isFixedGasLimit": false
    },
    {
      "hash": "0x6b9b7d1607f010229c9b215fe13d0a937ed66187ee3531df0b5ea0a94d11a416",
      "transactionType": "CALL",
      "contractName": "MockToken",
      "contractAddress": "0x0cea36dec7e7f7a0a36f28d89a4dbf974d66a441",
      "function": "approve(address,uint256)",
      "arguments": [
        "0x7B8C2DBCb7feC9e7184E9224f5b3F0adaBB5914D",
        "131000000000000000000000"
      ],
      "transaction": {
        "from": "0x3b4f0135465d444a5bd06ab90fc59b73916c85f5",
        "to": "0x0cea36dec7e7f7a0a36f28d89a4dbf974d66a441",
        "gas": "0xfa4b",
        "value": "0x0",
        "input": "0x095ea7b30000000000000000000000007b8c2dbcb7fec9e7184e9224f5b3f0adabb5914d000000000000000000000000000000000000000000001bbd8633ec40ebe00000",
        "nonce": "0x61",
        "chainId": "0xdede"
      },
      "additionalContracts": [],
      "isFixedGasLimit": false
    },
    {
      "hash": "0x3282fd7dd347abe94602c8382121b51e81e7caf5569ee3c289feb60927acb810",
      "transactionType": "CALL",
      "contractName": "Core",
      "contractAddress": "0x7b8c2dbcb7fec9e7184e9224f5b3f0adabb5914d",
      "function": "setLiquidity(address,uint256)",
      "arguments": [
        "0x0cEa36DEC7e7f7a0A36F28d89a4dbf974d66a441",
        "131000000000000000000000"
      ],
      "transaction": {
        "from": "0x3b4f0135465d444a5bd06ab90fc59b73916c85f5",
        "to": "0x7b8c2dbcb7fec9e7184e9224f5b3f0adabb5914d",
        "gas": "0xeefc",
        "value": "0x0",
        "input": "0xf4069cba0000000000000000000000000cea36dec7e7f7a0a36f28d89a4dbf974d66a441000000000000000000000000000000000000000000001bbd8633ec40ebe00000",
        "nonce": "0x62",
        "chainId": "0xdede"
      },
      "additionalContracts": [],
      "isFixedGasLimit": false
    },
    {
      "hash": "0xaa35bb58cd6154d0c9ecfb97c451ce2ffaa5ade1353506723f585ff47e996c2b",
      "transactionType": "CALL",
      "contractName": "TokenFactory",
      "contractAddress": "0xb27c513a95f5491974599cdd4661a4f9c2013cad",
      "function": "createToken(string,string,uint256,uint8)",
      "arguments": [
        "Wrapped Ether",
        "WETH",
        "1000000000000000000000000000",
        "18"
      ],
      "transaction": {
        "from": "0x3b4f0135465d444a5bd06ab90fc59b73916c85f5",
        "to": "0xb27c513a95f5491974599cdd4661a4f9c2013cad",
        "gas": "0xb2dcd",
        "value": "0x0",
        "input": "0xb64acddd000000000000000000000000000000000000000000000000000000000000008000000000000000000000000000000000000000000000000000000000000000c00000000000000000000000000000000000000000033b2e3c9fd0803ce80000000000000000000000000000000000000000000000000000000000000000000012000000000000000000000000000000000000000000000000000000000000000d577261707065642045746865720000000000000000000000000000000000000000000000000000000000000000000000000000000000000000000000000000045745544800000000000000000000000000000000000000000000000000000000",
        "nonce": "0x63",
        "chainId": "0xdede"
      },
      "additionalContracts": [
        {
          "transactionType": "CREATE",
          "address": "0xe7d745439628d61a3f495c287033593a2f3468d9",
          "initCode": "0x608060405234801561000f575f5ffd5b50604051610c97380380610c9783398101604081905261002e91610288565b8484600361003c83826103b1565b50600461004982826103b1565b50506005805460ff191660ff851690811790915561007e9150829061006f90600a610564565b6100799086610576565b610088565b50505050506105a0565b6001600160a01b0382166100b65760405163ec442f0560e01b81525f60048201526024015b60405180910390fd5b6100c15f83836100c5565b5050565b6001600160a01b0383166100ef578060025f8282546100e4919061058d565b9091555061015f9050565b6001600160a01b0383165f90815260208190526040902054818110156101415760405163391434e360e21b81526001600160a01b038516600482015260248101829052604481018390526064016100ad565b6001600160a01b0384165f9081526020819052604090209082900390555b6001600160a01b03821661017b57600280548290039055610199565b6001600160a01b0382165f9081526020819052604090208054820190555b816001600160a01b0316836001600160a01b03167fddf252ad1be2c89b69c2b068fc378daa952ba7f163c4a11628f55a4df523b3ef836040516101de91815260200190565b60405180910390a3505050565b634e487b7160e01b5f52604160045260245ffd5b5f82601f83011261020e575f5ffd5b81516001600160401b03811115610227576102276101eb565b604051601f8201601f19908116603f011681016001600160401b0381118282101715610255576102556101eb565b60405281815283820160200185101561026c575f5ffd5b8160208501602083015e5f918101602001919091529392505050565b5f5f5f5f5f60a0868803121561029c575f5ffd5b85516001600160401b038111156102b1575f5ffd5b6102bd888289016101ff565b602088015190965090506001600160401b038111156102da575f5ffd5b6102e6888289016101ff565b94505060408601519250606086015160ff81168114610303575f5ffd5b60808701519092506001600160a01b038116811461031f575f5ffd5b809150509295509295909350565b600181811c9082168061034157607f821691505b60208210810361035f57634e487b7160e01b5f52602260045260245ffd5b50919050565b601f8211156103ac57805f5260205f20601f840160051c8101602085101561038a5750805b601f840160051c820191505b818110156103a9575f8155600101610396565b50505b505050565b81516001600160401b038111156103ca576103ca6101eb565b6103de816103d8845461032d565b84610365565b6020601f821160018114610410575f83156103f95750848201515b5f19600385901b1c1916600184901b1784556103a9565b5f84815260208120601f198516915b8281101561043f578785015182556020948501946001909201910161041f565b508482101561045c57868401515f19600387901b60f8161c191681555b50505050600190811b01905550565b634e487b7160e01b5f52601160045260245ffd5b6001815b60018411156104ba5780850481111561049e5761049e61046b565b60018416156104ac57908102905b60019390931c928002610483565b935093915050565b5f826104d05750600161055e565b816104dc57505f61055e565b81600181146104f257600281146104fc57610518565b600191505061055e565b60ff84111561050d5761050d61046b565b50506001821b61055e565b5060208310610133831016604e8410600b841016171561053b575081810a61055e565b6105475f19848461047f565b805f190482111561055a5761055a61046b565b0290505b92915050565b5f61056f83836104c2565b9392505050565b808202811582820484141761055e5761055e61046b565b8082018082111561055e5761055e61046b565b6106ea806105ad5f395ff3fe608060405234801561000f575f5ffd5b5060043610610090575f3560e01c8063313ce56711610063578063313ce567146100fa57806370a082311461010f57806395d89b4114610137578063a9059cbb1461013f578063dd62ed3e14610152575f5ffd5b806306fdde0314610094578063095ea7b3146100b257806318160ddd146100d557806323b872dd146100e7575b5f5ffd5b61009c61018a565b6040516100a9919061055a565b60405180910390f35b6100c56100c03660046105aa565b61021a565b60405190151581526020016100a9565b6002545b6040519081526020016100a9565b6100c56100f53660046105d2565b610233565b60055460405160ff90911681526020016100a9565b6100d961011d36600461060c565b6001600160a01b03165f9081526020819052604090205490565b61009c610256565b6100c561014d3660046105aa565b610265565b6100d961016036600461062c565b6001600160a01b039182165f90815260016020908152604080832093909416825291909152205490565b6060600380546101999061065d565b80601f01602080910402602001604051908101604052809291908181526020018280546101c59061065d565b80156102105780601f106101e757610100808354040283529160200191610210565b820191905f5260205f20905b8154815290600101906020018083116101f357829003601f168201915b5050505050905090565b5f33610227818585610272565b60019150505b92915050565b5f33610240858285610284565b61024b858585610305565b506001949350505050565b6060600480546101999061065d565b5f33610227818585610305565b61027f8383836001610362565b505050565b6001600160a01b038381165f908152600160209081526040808320938616835292905220545f198110156102ff57818110156102f157604051637dc7a0d960e11b81526001600160a01b038416600482015260248101829052604481018390526064015b60405180910390fd5b6102ff84848484035f610362565b50505050565b6001600160a01b03831661032e57604051634b637e8f60e11b81525f60048201526024016102e8565b6001600160a01b0382166103575760405163ec442f0560e01b81525f60048201526024016102e8565b61027f838383610434565b6001600160a01b03841661038b5760405163e602df0560e01b81525f60048201526024016102e8565b6001600160a01b0383166103b457604051634a1406b160e11b81525f60048201526024016102e8565b6001600160a01b038085165f90815260016020908152604080832093871683529290522082905580156102ff57826001600160a01b0316846001600160a01b03167f8c5be1e5ebec7d5bd14f71427d1e84f3dd0314c0f7b2291e5b200ac8c7c3b9258460405161042691815260200190565b60405180910390a350505050565b6001600160a01b03831661045e578060025f8282546104539190610695565b909155506104ce9050565b6001600160a01b0383165f90815260208190526040902054818110156104b05760405163391434e360e21b81526001600160a01b038516600482015260248101829052604481018390526064016102e8565b6001600160a01b0384165f9081526020819052604090209082900390555b6001600160a01b0382166104ea57600280548290039055610508565b6001600160a01b0382165f9081526020819052604090208054820190555b816001600160a01b0316836001600160a01b03167fddf252ad1be2c89b69c2b068fc378daa952ba7f163c4a11628f55a4df523b3ef8360405161054d91815260200190565b60405180910390a3505050565b602081525f82518060208401528060208501604085015e5f604082850101526040601f19601f83011684010191505092915050565b80356001600160a01b03811681146105a5575f5ffd5b919050565b5f5f604083850312156105bb575f5ffd5b6105c48361058f565b946020939093013593505050565b5f5f5f606084860312156105e4575f5ffd5b6105ed8461058f565b92506105fb6020850161058f565b929592945050506040919091013590565b5f6020828403121561061c575f5ffd5b6106258261058f565b9392505050565b5f5f6040838503121561063d575f5ffd5b6106468361058f565b91506106546020840161058f565b90509250929050565b600181811c9082168061067157607f821691505b60208210810361068f57634e487b7160e01b5f52602260045260245ffd5b50919050565b8082018082111561022d57634e487b7160e01b5f52601160045260245ffdfea26469706673582212201b6bfe7ff3424d331f36ed33bc76c5c4832bc0464bc6dc2c54b3e8d902e89bd964736f6c634300081c003300000000000000000000000000000000000000000000000000000000000000a000000000000000000000000000000000000000000000000000000000000000e00000000000000000000000000000000000000000033b2e3c9fd0803ce800000000000000000000000000000000000000000000000000000000000000000000120000000000000000000000003b4f0135465d444a5bd06ab90fc59b73916c85f5000000000000000000000000000000000000000000000000000000000000000d577261707065642045746865720000000000000000000000000000000000000000000000000000000000000000000000000000000000000000000000000000045745544800000000000000000000000000000000000000000000000000000000"
        }
      ],
      "isFixedGasLimit": false
    },
    {
      "hash": "0x757a8cefd165c42d82ef83a9cb0b969051029ed9365fd8c7af29f2a3cc0226a8",
      "transactionType": "CALL",
      "contractName": "MockToken",
      "contractAddress": "0xe7d745439628d61a3f495c287033593a2f3468d9",
      "function": "approve(address,uint256)",
      "arguments": [
        "0x7B8C2DBCb7feC9e7184E9224f5b3F0adaBB5914D",
        "48163004194960899729"
      ],
      "transaction": {
        "from": "0x3b4f0135465d444a5bd06ab90fc59b73916c85f5",
        "to": "0xe7d745439628d61a3f495c287033593a2f3468d9",
        "gas": "0x10916",
        "value": "0x0",
        "input": "0x095ea7b30000000000000000000000007b8c2dbcb7fec9e7184e9224f5b3f0adabb5914d0000000000000000000000000000000000000000000000029c655d23044afe91",
        "nonce": "0x64",
        "chainId": "0xdede"
      },
      "additionalContracts": [],
      "isFixedGasLimit": false
    },
    {
      "hash": "0xb2c795fd18d8a76780333138758ef3a394bd4effb7aae88755d0249c4e6a4974",
      "transactionType": "CALL",
      "contractName": "Core",
      "contractAddress": "0x7b8c2dbcb7fec9e7184e9224f5b3f0adabb5914d",
      "function": "setLiquidity(address,uint256)",
      "arguments": [
        "0xE7D745439628d61A3F495c287033593a2f3468D9",
        "48163004194960899729"
      ],
      "transaction": {
        "from": "0x3b4f0135465d444a5bd06ab90fc59b73916c85f5",
        "to": "0x7b8c2dbcb7fec9e7184e9224f5b3f0adabb5914d",
        "gas": "0xfd1d",
        "value": "0x0",
        "input": "0xf4069cba000000000000000000000000e7d745439628d61a3f495c287033593a2f3468d90000000000000000000000000000000000000000000000029c655d23044afe91",
        "nonce": "0x65",
        "chainId": "0xdede"
      },
      "additionalContracts": [],
      "isFixedGasLimit": false
    },
    {
      "hash": "0xc3a16c52d5dfc6218fd9e4ceb33bd169a32309054f5d9d4d518f1609f2eb5bff",
      "transactionType": "CALL",
      "contractName": "TokenFactory",
      "contractAddress": "0xb27c513a95f5491974599cdd4661a4f9c2013cad",
      "function": "createToken(string,string,uint256,uint8)",
      "arguments": [
        "PEPE",
        "PEPE",
        "1000000000000000000000000000",
        "18"
      ],
      "transaction": {
        "from": "0x3b4f0135465d444a5bd06ab90fc59b73916c85f5",
        "to": "0xb27c513a95f5491974599cdd4661a4f9c2013cad",
        "gas": "0xbd587",
        "value": "0x0",
        "input": "0xb64acddd000000000000000000000000000000000000000000000000000000000000008000000000000000000000000000000000000000000000000000000000000000c00000000000000000000000000000000000000000033b2e3c9fd0803ce800000000000000000000000000000000000000000000000000000000000000000000120000000000000000000000000000000000000000000000000000000000000004504550450000000000000000000000000000000000000000000000000000000000000000000000000000000000000000000000000000000000000000000000045045504500000000000000000000000000000000000000000000000000000000",
        "nonce": "0x66",
        "chainId": "0xdede"
      },
      "additionalContracts": [
        {
          "transactionType": "CREATE",
          "address": "0x86072df44ab4ee4d7c3230919c3bcb86dec2e0a9",
          "initCode": "0x608060405234801561000f575f5ffd5b50604051610c97380380610c9783398101604081905261002e91610288565b8484600361003c83826103b1565b50600461004982826103b1565b50506005805460ff191660ff851690811790915561007e9150829061006f90600a610564565b6100799086610576565b610088565b50505050506105a0565b6001600160a01b0382166100b65760405163ec442f0560e01b81525f60048201526024015b60405180910390fd5b6100c15f83836100c5565b5050565b6001600160a01b0383166100ef578060025f8282546100e4919061058d565b9091555061015f9050565b6001600160a01b0383165f90815260208190526040902054818110156101415760405163391434e360e21b81526001600160a01b038516600482015260248101829052604481018390526064016100ad565b6001600160a01b0384165f9081526020819052604090209082900390555b6001600160a01b03821661017b57600280548290039055610199565b6001600160a01b0382165f9081526020819052604090208054820190555b816001600160a01b0316836001600160a01b03167fddf252ad1be2c89b69c2b068fc378daa952ba7f163c4a11628f55a4df523b3ef836040516101de91815260200190565b60405180910390a3505050565b634e487b7160e01b5f52604160045260245ffd5b5f82601f83011261020e575f5ffd5b81516001600160401b03811115610227576102276101eb565b604051601f8201601f19908116603f011681016001600160401b0381118282101715610255576102556101eb565b60405281815283820160200185101561026c575f5ffd5b8160208501602083015e5f918101602001919091529392505050565b5f5f5f5f5f60a0868803121561029c575f5ffd5b85516001600160401b038111156102b1575f5ffd5b6102bd888289016101ff565b602088015190965090506001600160401b038111156102da575f5ffd5b6102e6888289016101ff565b94505060408601519250606086015160ff81168114610303575f5ffd5b60808701519092506001600160a01b038116811461031f575f5ffd5b809150509295509295909350565b600181811c9082168061034157607f821691505b60208210810361035f57634e487b7160e01b5f52602260045260245ffd5b50919050565b601f8211156103ac57805f5260205f20601f840160051c8101602085101561038a5750805b601f840160051c820191505b818110156103a9575f8155600101610396565b50505b505050565b81516001600160401b038111156103ca576103ca6101eb565b6103de816103d8845461032d565b84610365565b6020601f821160018114610410575f83156103f95750848201515b5f19600385901b1c1916600184901b1784556103a9565b5f84815260208120601f198516915b8281101561043f578785015182556020948501946001909201910161041f565b508482101561045c57868401515f19600387901b60f8161c191681555b50505050600190811b01905550565b634e487b7160e01b5f52601160045260245ffd5b6001815b60018411156104ba5780850481111561049e5761049e61046b565b60018416156104ac57908102905b60019390931c928002610483565b935093915050565b5f826104d05750600161055e565b816104dc57505f61055e565b81600181146104f257600281146104fc57610518565b600191505061055e565b60ff84111561050d5761050d61046b565b50506001821b61055e565b5060208310610133831016604e8410600b841016171561053b575081810a61055e565b6105475f19848461047f565b805f190482111561055a5761055a61046b565b0290505b92915050565b5f61056f83836104c2565b9392505050565b808202811582820484141761055e5761055e61046b565b8082018082111561055e5761055e61046b565b6106ea806105ad5f395ff3fe608060405234801561000f575f5ffd5b5060043610610090575f3560e01c8063313ce56711610063578063313ce567146100fa57806370a082311461010f57806395d89b4114610137578063a9059cbb1461013f578063dd62ed3e14610152575f5ffd5b806306fdde0314610094578063095ea7b3146100b257806318160ddd146100d557806323b872dd146100e7575b5f5ffd5b61009c61018a565b6040516100a9919061055a565b60405180910390f35b6100c56100c03660046105aa565b61021a565b60405190151581526020016100a9565b6002545b6040519081526020016100a9565b6100c56100f53660046105d2565b610233565b60055460405160ff90911681526020016100a9565b6100d961011d36600461060c565b6001600160a01b03165f9081526020819052604090205490565b61009c610256565b6100c561014d3660046105aa565b610265565b6100d961016036600461062c565b6001600160a01b039182165f90815260016020908152604080832093909416825291909152205490565b6060600380546101999061065d565b80601f01602080910402602001604051908101604052809291908181526020018280546101c59061065d565b80156102105780601f106101e757610100808354040283529160200191610210565b820191905f5260205f20905b8154815290600101906020018083116101f357829003601f168201915b5050505050905090565b5f33610227818585610272565b60019150505b92915050565b5f33610240858285610284565b61024b858585610305565b506001949350505050565b6060600480546101999061065d565b5f33610227818585610305565b61027f8383836001610362565b505050565b6001600160a01b038381165f908152600160209081526040808320938616835292905220545f198110156102ff57818110156102f157604051637dc7a0d960e11b81526001600160a01b038416600482015260248101829052604481018390526064015b60405180910390fd5b6102ff84848484035f610362565b50505050565b6001600160a01b03831661032e57604051634b637e8f60e11b81525f60048201526024016102e8565b6001600160a01b0382166103575760405163ec442f0560e01b81525f60048201526024016102e8565b61027f838383610434565b6001600160a01b03841661038b5760405163e602df0560e01b81525f60048201526024016102e8565b6001600160a01b0383166103b457604051634a1406b160e11b81525f60048201526024016102e8565b6001600160a01b038085165f90815260016020908152604080832093871683529290522082905580156102ff57826001600160a01b0316846001600160a01b03167f8c5be1e5ebec7d5bd14f71427d1e84f3dd0314c0f7b2291e5b200ac8c7c3b9258460405161042691815260200190565b60405180910390a350505050565b6001600160a01b03831661045e578060025f8282546104539190610695565b909155506104ce9050565b6001600160a01b0383165f90815260208190526040902054818110156104b05760405163391434e360e21b81526001600160a01b038516600482015260248101829052604481018390526064016102e8565b6001600160a01b0384165f9081526020819052604090209082900390555b6001600160a01b0382166104ea57600280548290039055610508565b6001600160a01b0382165f9081526020819052604090208054820190555b816001600160a01b0316836001600160a01b03167fddf252ad1be2c89b69c2b068fc378daa952ba7f163c4a11628f55a4df523b3ef8360405161054d91815260200190565b60405180910390a3505050565b602081525f82518060208401528060208501604085015e5f604082850101526040601f19601f83011684010191505092915050565b80356001600160a01b03811681146105a5575f5ffd5b919050565b5f5f604083850312156105bb575f5ffd5b6105c48361058f565b946020939093013593505050565b5f5f5f606084860312156105e4575f5ffd5b6105ed8461058f565b92506105fb6020850161058f565b929592945050506040919091013590565b5f6020828403121561061c575f5ffd5b6106258261058f565b9392505050565b5f5f6040838503121561063d575f5ffd5b6106468361058f565b91506106546020840161058f565b90509250929050565b600181811c9082168061067157607f821691505b60208210810361068f57634e487b7160e01b5f52602260045260245ffd5b50919050565b8082018082111561022d57634e487b7160e01b5f52601160045260245ffdfea26469706673582212201b6bfe7ff3424d331f36ed33bc76c5c4832bc0464bc6dc2c54b3e8d902e89bd964736f6c634300081c003300000000000000000000000000000000000000000000000000000000000000a000000000000000000000000000000000000000000000000000000000000000e00000000000000000000000000000000000000000033b2e3c9fd0803ce800000000000000000000000000000000000000000000000000000000000000000000120000000000000000000000003b4f0135465d444a5bd06ab90fc59b73916c85f50000000000000000000000000000000000000000000000000000000000000004504550450000000000000000000000000000000000000000000000000000000000000000000000000000000000000000000000000000000000000000000000045045504500000000000000000000000000000000000000000000000000000000"
        }
      ],
      "isFixedGasLimit": false
    },
    {
      "hash": "0xdcff4a81e9ffb1b3125005d17d17c80a7bf5065422ba6d66b228b2a76005cb48",
      "transactionType": "CALL",
      "contractName": "MockToken",
      "contractAddress": "0x86072df44ab4ee4d7c3230919c3bcb86dec2e0a9",
      "function": "approve(address,uint256)",
      "arguments": [
        "0x7B8C2DBCb7feC9e7184E9224f5b3F0adaBB5914D",
        "16375000000000000000000000000"
      ],
      "transaction": {
        "from": "0x3b4f0135465d444a5bd06ab90fc59b73916c85f5",
        "to": "0x86072df44ab4ee4d7c3230919c3bcb86dec2e0a9",
        "gas": "0x10916",
        "value": "0x0",
        "input": "0x095ea7b30000000000000000000000007b8c2dbcb7fec9e7184e9224f5b3f0adabb5914d000000000000000000000000000000000000000034e91520b8f633e557000000",
        "nonce": "0x67",
        "chainId": "0xdede"
      },
      "additionalContracts": [],
      "isFixedGasLimit": false
    },
    {
      "hash": "0x41ed020a93412c00cfce2b251b09a6165ce706660aaf322c31bbf60c5697c2c7",
      "transactionType": "CALL",
      "contractName": "Core",
      "contractAddress": "0x7b8c2dbcb7fec9e7184e9224f5b3f0adabb5914d",
      "function": "setLiquidity(address,uint256)",
      "arguments": [
        "0x86072DF44ab4Ee4d7c3230919c3Bcb86DEc2e0A9",
        "16375000000000000000000000000"
      ],
      "transaction": {
        "from": "0x3b4f0135465d444a5bd06ab90fc59b73916c85f5",
        "to": "0x7b8c2dbcb7fec9e7184e9224f5b3f0adabb5914d",
        "gas": "0xfd1d",
        "value": "0x0",
        "input": "0xf4069cba00000000000000000000000086072df44ab4ee4d7c3230919c3bcb86dec2e0a9000000000000000000000000000000000000000034e91520b8f633e557000000",
        "nonce": "0x68",
        "chainId": "0xdede"
      },
      "additionalContracts": [],
      "isFixedGasLimit": false
    }
  ],
  "receipts": [
    {
      "status": "0x1",
      "cumulativeGasUsed": "0xe8bc2",
      "logs": [],
      "logsBloom": "0x00000000000000000000000000000000000000000000000000000000000000000000000000000000000000000000000000000000000000000000000000000000000000000000000000000000000000000000000000000000000000000000000000000000000000000000000000000000000000000000000000000000000000000000000000000000000000000000000000000000000000000000000000000000000000000000000000000000000000000000000000000000000000000000000000000000000000000000000000000000000000000000000000000000000000000000000000000000000000000000000000000000000000000000000000000000",
      "type": "0x2",
      "transactionHash": "0xb2f607dc11c1be4ccbadea7b46c16df8d8f5ff7f55c6f3e89004261ca3ab4b3f",
      "transactionIndex": "0x1",
      "blockHash": "0x26dce2483bc2de1208f9c3b719fe4757cf6edaaa0ada9e436aeb9e1359b58baf",
      "blockNumber": "0x16c3494",
      "gasUsed": "0xe39ba",
      "effectiveGasPrice": "0x3b9aca01",
      "from": "0x3b4f0135465d444a5bd06ab90fc59b73916c85f5",
      "to": null,
      "contractAddress": "0xb27c513a95f5491974599cdd4661a4f9c2013cad"
    },
    {
      "status": "0x1",
      "cumulativeGasUsed": "0x57fca",
      "logs": [],
      "logsBloom": "0x00000000000000000000000000000000000000000000000000000000000000000000000000000000000000000000000000000000000000000000000000000000000000000000000000000000000000000000000000000000000000000000000000000000000000000000000000000000000000000000000000000000000000000000000000000000000000000000000000000000000000000000000000000000000000000000000000000000000000000000000000000000000000000000000000000000000000000000000000000000000000000000000000000000000000000000000000000000000000000000000000000000000000000000000000000000",
      "type": "0x2",
      "transactionHash": "0x5945951aacf105031e3b1f95686ccf377625aadf2a9dd493c28d1b1c74e25adf",
      "transactionIndex": "0x0",
      "blockHash": "0x71f6038aa1057b7c4ba3d60a6794049291073a3bb766257ef22b301ff14af239",
      "blockNumber": "0x16c3496",
      "gasUsed": "0x57fca",
      "effectiveGasPrice": "0x3b9aca01",
      "from": "0x3b4f0135465d444a5bd06ab90fc59b73916c85f5",
      "to": null,
      "contractAddress": "0x7b8c2dbcb7fec9e7184e9224f5b3f0adabb5914d"
    },
    {
      "status": "0x1",
      "cumulativeGasUsed": "0xdf6f8",
      "logs": [
        {
          "address": "0x9ab1fc00d2f8f90b39b97f071659158f6dbb768a",
          "topics": [
            "0xddf252ad1be2c89b69c2b068fc378daa952ba7f163c4a11628f55a4df523b3ef",
            "0x0000000000000000000000000000000000000000000000000000000000000000",
            "0x0000000000000000000000003b4f0135465d444a5bd06ab90fc59b73916c85f5"
          ],
          "data": "0x000000000000000000000000002cd76fe086b93ce2f768a00b22a00000000000",
          "blockHash": "0x71f6038aa1057b7c4ba3d60a6794049291073a3bb766257ef22b301ff14af239",
          "blockNumber": "0x16c3496",
          "transactionHash": "0x3bba1751f292b7717ab7dca819ae99c40e2124ef2835385c3f759a95fdddf3da",
          "transactionIndex": "0x1",
          "logIndex": "0x0",
          "removed": false
        },
        {
          "address": "0xb27c513a95f5491974599cdd4661a4f9c2013cad",
          "topics": [
            "0xafab5d1d74bae8c6b34c8932c5a93db45757bef8a5b14b76f11aa2cdd5cb9be5",
            "0x0000000000000000000000009ab1fc00d2f8f90b39b97f071659158f6dbb768a"
          ],
          "data": "0x00000000000000000000000000000000000000000000000000000000000000a000000000000000000000000000000000000000000000000000000000000000e00000000000000000000000000000000000000000033b2e3c9fd0803ce800000000000000000000000000000000000000000000000000000000000000000000120000000000000000000000003b4f0135465d444a5bd06ab90fc59b73916c85f50000000000000000000000000000000000000000000000000000000000000005534f4e494300000000000000000000000000000000000000000000000000000000000000000000000000000000000000000000000000000000000000000000015300000000000000000000000000000000000000000000000000000000000000",
          "blockHash": "0x71f6038aa1057b7c4ba3d60a6794049291073a3bb766257ef22b301ff14af239",
          "blockNumber": "0x16c3496",
          "transactionHash": "0x3bba1751f292b7717ab7dca819ae99c40e2124ef2835385c3f759a95fdddf3da",
          "transactionIndex": "0x1",
          "logIndex": "0x1",
          "removed": false
        }
      ],
      "logsBloom": "0x00000000000000000000000000000000000000000000000000000020004000000000000000000000000000000000040000000000020000000000000000400000000000000000000000000008000000000000000000000000000008000000000000000000020000000000000000480800000000000020000000000010000000000000000000000000000100000000000000000000000000000000000000000000000000000000000000000000000000000000000000000000000000000001000000000102000000000000000000000100000000080000000000000000000020000000000000000000000000000000004000000000000000000000000000000000",
      "type": "0x2",
      "transactionHash": "0x3bba1751f292b7717ab7dca819ae99c40e2124ef2835385c3f759a95fdddf3da",
      "transactionIndex": "0x1",
      "blockHash": "0x71f6038aa1057b7c4ba3d60a6794049291073a3bb766257ef22b301ff14af239",
      "blockNumber": "0x16c3496",
      "gasUsed": "0x8772e",
      "effectiveGasPrice": "0x3b9aca01",
      "from": "0x3b4f0135465d444a5bd06ab90fc59b73916c85f5",
      "to": "0xb27c513a95f5491974599cdd4661a4f9c2013cad",
      "contractAddress": null
    },
    {
      "status": "0x1",
      "cumulativeGasUsed": "0xeb316",
      "logs": [
        {
          "address": "0x9ab1fc00d2f8f90b39b97f071659158f6dbb768a",
          "topics": [
            "0x8c5be1e5ebec7d5bd14f71427d1e84f3dd0314c0f7b2291e5b200ac8c7c3b925",
            "0x0000000000000000000000003b4f0135465d444a5bd06ab90fc59b73916c85f5",
            "0x0000000000000000000000007b8c2dbcb7fec9e7184e9224f5b3f0adabb5914d"
          ],
          "data": "0x000000000000000000000000000000000000000000001bbd8633ec40ebe00000",
          "blockHash": "0x71f6038aa1057b7c4ba3d60a6794049291073a3bb766257ef22b301ff14af239",
          "blockNumber": "0x16c3496",
          "transactionHash": "0xf77619de15ff7df0e45aa86731e7fc5ec28609f40296a09f6a3896ca6b881f34",
          "transactionIndex": "0x2",
          "logIndex": "0x2",
          "removed": false
        }
      ],
      "logsBloom": "0x00000000000000000000000000000000000000000000000000000020004000000000000000000000000000000000000000000000020000000000000000600000000000000000000000000000000000000000000000000000000000000000000000000000020000000000000000000000000000000000000000000000000000000000000000000000000000000000000000000000000000000000000000000000020000000000000100000000000000000000000000000000000000000000000000000100000000000000000000000000000000000000000000000000000000000010000000000000000000002000004000000000000000000000000000000000",
      "type": "0x2",
      "transactionHash": "0xf77619de15ff7df0e45aa86731e7fc5ec28609f40296a09f6a3896ca6b881f34",
      "transactionIndex": "0x2",
      "blockHash": "0x71f6038aa1057b7c4ba3d60a6794049291073a3bb766257ef22b301ff14af239",
      "blockNumber": "0x16c3496",
      "gasUsed": "0xbc1e",
      "effectiveGasPrice": "0x3b9aca01",
      "from": "0x3b4f0135465d444a5bd06ab90fc59b73916c85f5",
      "to": "0x9ab1fc00d2f8f90b39b97f071659158f6dbb768a",
      "contractAddress": null
    },
    {
      "status": "0x1",
      "cumulativeGasUsed": "0xf6810",
      "logs": [],
      "logsBloom": "0x00000000000000000000000000000000000000000000000000000000000000000000000000000000000000000000000000000000000000000000000000000000000000000000000000000000000000000000000000000000000000000000000000000000000000000000000000000000000000000000000000000000000000000000000000000000000000000000000000000000000000000000000000000000000000000000000000000000000000000000000000000000000000000000000000000000000000000000000000000000000000000000000000000000000000000000000000000000000000000000000000000000000000000000000000000000",
      "type": "0x2",
      "transactionHash": "0xc7c8a0d6abbdd05f5d2edf76dc428bdaf358689e69f6164860a9dac6cb1862b6",
      "transactionIndex": "0x3",
      "blockHash": "0x71f6038aa1057b7c4ba3d60a6794049291073a3bb766257ef22b301ff14af239",
      "blockNumber": "0x16c3496",
      "gasUsed": "0xb4fa",
      "effectiveGasPrice": "0x3b9aca01",
      "from": "0x3b4f0135465d444a5bd06ab90fc59b73916c85f5",
      "to": "0x7b8c2dbcb7fec9e7184e9224f5b3f0adabb5914d",
      "contractAddress": null
    },
    {
      "status": "0x1",
      "cumulativeGasUsed": "0x17df89",
      "logs": [
        {
          "address": "0xc3196b13a399b3a98082c6462ca0d00d94d79e34",
          "topics": [
            "0xddf252ad1be2c89b69c2b068fc378daa952ba7f163c4a11628f55a4df523b3ef",
            "0x0000000000000000000000000000000000000000000000000000000000000000",
            "0x0000000000000000000000003b4f0135465d444a5bd06ab90fc59b73916c85f5"
          ],
          "data": "0x000000000000000000000000002cd76fe086b93ce2f768a00b22a00000000000",
          "blockHash": "0x71f6038aa1057b7c4ba3d60a6794049291073a3bb766257ef22b301ff14af239",
          "blockNumber": "0x16c3496",
          "transactionHash": "0x7ab7daac80e529d7e2b330009ab75f562356aa243e53ee8a334a878b9fadc784",
          "transactionIndex": "0x4",
          "logIndex": "0x3",
          "removed": false
        },
        {
          "address": "0xb27c513a95f5491974599cdd4661a4f9c2013cad",
          "topics": [
            "0xafab5d1d74bae8c6b34c8932c5a93db45757bef8a5b14b76f11aa2cdd5cb9be5",
            "0x000000000000000000000000c3196b13a399b3a98082c6462ca0d00d94d79e34"
          ],
          "data": "0x00000000000000000000000000000000000000000000000000000000000000a000000000000000000000000000000000000000000000000000000000000000e00000000000000000000000000000000000000000033b2e3c9fd0803ce800000000000000000000000000000000000000000000000000000000000000000000120000000000000000000000003b4f0135465d444a5bd06ab90fc59b73916c85f5000000000000000000000000000000000000000000000000000000000000000855534420436f696e00000000000000000000000000000000000000000000000000000000000000000000000000000000000000000000000000000000000000045553444300000000000000000000000000000000000000000000000000000000",
          "blockHash": "0x71f6038aa1057b7c4ba3d60a6794049291073a3bb766257ef22b301ff14af239",
          "blockNumber": "0x16c3496",
          "transactionHash": "0x7ab7daac80e529d7e2b330009ab75f562356aa243e53ee8a334a878b9fadc784",
          "transactionIndex": "0x4",
          "logIndex": "0x4",
          "removed": false
        }
      ],
      "logsBloom": "0x00000010000000000000000000000000001000000000000000000020000000000000000000000000000800000000040000000000000000000000000000400000000000000000000000000008000000000000000000000000000008000000000000000000020002000000000000400800000004000020000000000010000000000000000000000000000000000000000000000000000000000000000000000000000000000000000000000000000000000000000000000000000000000001000000000102000000000000000000000000000000080000000000000000000020000000000100000000000000000000000000000000000000000000000000000000",
      "type": "0x2",
      "transactionHash": "0x7ab7daac80e529d7e2b330009ab75f562356aa243e53ee8a334a878b9fadc784",
      "transactionIndex": "0x4",
      "blockHash": "0x71f6038aa1057b7c4ba3d60a6794049291073a3bb766257ef22b301ff14af239",
      "blockNumber": "0x16c3496",
      "gasUsed": "0x87779",
      "effectiveGasPrice": "0x3b9aca01",
      "from": "0x3b4f0135465d444a5bd06ab90fc59b73916c85f5",
      "to": "0xb27c513a95f5491974599cdd4661a4f9c2013cad",
      "contractAddress": null
    },
    {
      "status": "0x1",
      "cumulativeGasUsed": "0x189ba7",
      "logs": [
        {
          "address": "0xc3196b13a399b3a98082c6462ca0d00d94d79e34",
          "topics": [
            "0x8c5be1e5ebec7d5bd14f71427d1e84f3dd0314c0f7b2291e5b200ac8c7c3b925",
            "0x0000000000000000000000003b4f0135465d444a5bd06ab90fc59b73916c85f5",
            "0x0000000000000000000000007b8c2dbcb7fec9e7184e9224f5b3f0adabb5914d"
          ],
          "data": "0x000000000000000000000000000000000000000000001bbd8633ec40ebe00000",
          "blockHash": "0x71f6038aa1057b7c4ba3d60a6794049291073a3bb766257ef22b301ff14af239",
          "blockNumber": "0x16c3496",
          "transactionHash": "0x129f93dc678f118c47439de6a2daa567a4b43e00bf15d1fc73d7c46b782fb645",
          "transactionIndex": "0x5",
          "logIndex": "0x5",
          "removed": false
        }
      ],
      "logsBloom": "0x00000010000000000000000000000000000000000000000000000020000000000000000000000000000800000000000000000000000000000000000000600000000000000000000000000000000000000000000000000000000000000000000000000000020000000000000000000000000004000000000000000000000000000000000000000000000000000000000000000000000000000000000000000000020000000000000100000000000000000000000000000000000000000000000000000100000000000000000000000000000000000000000000000000000000000010000000000000000000002000000000000000000000000000000000000000",
      "type": "0x2",
      "transactionHash": "0x129f93dc678f118c47439de6a2daa567a4b43e00bf15d1fc73d7c46b782fb645",
      "transactionIndex": "0x5",
      "blockHash": "0x71f6038aa1057b7c4ba3d60a6794049291073a3bb766257ef22b301ff14af239",
      "blockNumber": "0x16c3496",
      "gasUsed": "0xbc1e",
      "effectiveGasPrice": "0x3b9aca01",
      "from": "0x3b4f0135465d444a5bd06ab90fc59b73916c85f5",
      "to": "0xc3196b13a399b3a98082c6462ca0d00d94d79e34",
      "contractAddress": null
    },
    {
      "status": "0x1",
      "cumulativeGasUsed": "0x194f45",
      "logs": [],
      "logsBloom": "0x00000000000000000000000000000000000000000000000000000000000000000000000000000000000000000000000000000000000000000000000000000000000000000000000000000000000000000000000000000000000000000000000000000000000000000000000000000000000000000000000000000000000000000000000000000000000000000000000000000000000000000000000000000000000000000000000000000000000000000000000000000000000000000000000000000000000000000000000000000000000000000000000000000000000000000000000000000000000000000000000000000000000000000000000000000000",
      "type": "0x2",
      "transactionHash": "0xc3473033f6e0684b80775fe3079535381684f2b9c0b86cfc2b8bf22e8359f75e",
      "transactionIndex": "0x6",
      "blockHash": "0x71f6038aa1057b7c4ba3d60a6794049291073a3bb766257ef22b301ff14af239",
      "blockNumber": "0x16c3496",
      "gasUsed": "0xb39e",
      "effectiveGasPrice": "0x3b9aca01",
      "from": "0x3b4f0135465d444a5bd06ab90fc59b73916c85f5",
      "to": "0x7b8c2dbcb7fec9e7184e9224f5b3f0adabb5914d",
      "contractAddress": null
    },
    {
      "status": "0x1",
      "cumulativeGasUsed": "0x90975",
      "logs": [
        {
          "address": "0x0cea36dec7e7f7a0a36f28d89a4dbf974d66a441",
          "topics": [
            "0xddf252ad1be2c89b69c2b068fc378daa952ba7f163c4a11628f55a4df523b3ef",
            "0x0000000000000000000000000000000000000000000000000000000000000000",
            "0x0000000000000000000000003b4f0135465d444a5bd06ab90fc59b73916c85f5"
          ],
          "data": "0x000000000000000000000000002cd76fe086b93ce2f768a00b22a00000000000",
          "blockHash": "0x3f9f5939119f4e648b660d7d4fb991c8f67cb617acc569304f25d7a04694ddfc",
          "blockNumber": "0x16c3498",
          "transactionHash": "0x6287238d4581ab103d6e6d2e3c8370a6d5aef3098e4c138735e2f590b7ced75c",
          "transactionIndex": "0x1",
          "logIndex": "0x1",
          "removed": false
        },
        {
          "address": "0xb27c513a95f5491974599cdd4661a4f9c2013cad",
          "topics": [
            "0xafab5d1d74bae8c6b34c8932c5a93db45757bef8a5b14b76f11aa2cdd5cb9be5",
            "0x0000000000000000000000000cea36dec7e7f7a0a36f28d89a4dbf974d66a441"
          ],
          "data": "0x00000000000000000000000000000000000000000000000000000000000000a000000000000000000000000000000000000000000000000000000000000000e00000000000000000000000000000000000000000033b2e3c9fd0803ce800000000000000000000000000000000000000000000000000000000000000000000120000000000000000000000003b4f0135465d444a5bd06ab90fc59b73916c85f5000000000000000000000000000000000000000000000000000000000000000a546574686572205553440000000000000000000000000000000000000000000000000000000000000000000000000000000000000000000000000000000000045553445400000000000000000000000000000000000000000000000000000000",
          "blockHash": "0x3f9f5939119f4e648b660d7d4fb991c8f67cb617acc569304f25d7a04694ddfc",
          "blockNumber": "0x16c3498",
          "transactionHash": "0x6287238d4581ab103d6e6d2e3c8370a6d5aef3098e4c138735e2f590b7ced75c",
          "transactionIndex": "0x1",
          "logIndex": "0x2",
          "removed": false
        }
      ],
      "logsBloom": "0x00000000000000000000000000000000000000000000000000000020000000000000000000000000000000000000040000000000000002000000000000400000000000000000000000000008000000000000000000000000000008000004000000000000020000000000000000400800000000000020000000000010000000000000001000000000000000000000000000000000000000000000000000000000000000000000000000000000400000000000000000000000000000000001000000000102000000000000000000000000000000080000000000000000000020000000000000000040200000000000000000000000000000000000000000000000",
      "type": "0x2",
      "transactionHash": "0x6287238d4581ab103d6e6d2e3c8370a6d5aef3098e4c138735e2f590b7ced75c",
      "transactionIndex": "0x1",
      "blockHash": "0x3f9f5939119f4e648b660d7d4fb991c8f67cb617acc569304f25d7a04694ddfc",
      "blockNumber": "0x16c3498",
      "gasUsed": "0x87792",
      "effectiveGasPrice": "0x3b9aca01",
      "from": "0x3b4f0135465d444a5bd06ab90fc59b73916c85f5",
      "to": "0xb27c513a95f5491974599cdd4661a4f9c2013cad",
      "contractAddress": null
    },
    {
      "status": "0x1",
      "cumulativeGasUsed": "0x9c593",
      "logs": [
        {
          "address": "0x0cea36dec7e7f7a0a36f28d89a4dbf974d66a441",
          "topics": [
            "0x8c5be1e5ebec7d5bd14f71427d1e84f3dd0314c0f7b2291e5b200ac8c7c3b925",
            "0x0000000000000000000000003b4f0135465d444a5bd06ab90fc59b73916c85f5",
            "0x0000000000000000000000007b8c2dbcb7fec9e7184e9224f5b3f0adabb5914d"
          ],
          "data": "0x000000000000000000000000000000000000000000001bbd8633ec40ebe00000",
          "blockHash": "0x3f9f5939119f4e648b660d7d4fb991c8f67cb617acc569304f25d7a04694ddfc",
          "blockNumber": "0x16c3498",
          "transactionHash": "0x6b9b7d1607f010229c9b215fe13d0a937ed66187ee3531df0b5ea0a94d11a416",
          "transactionIndex": "0x2",
          "logIndex": "0x3",
          "removed": false
        }
      ],
      "logsBloom": "0x00000000000000000000000000000000000000000000000000000020000000000000000000000000000000000000000000000000000002000000000000600000000000000000000000000000000000000000000000000000000000000000000000000000020000000000000000000000000000000000000000000000000000000000001000000000000000000000000000000000000000000000000000000000020000000000000100000000400000000000000000000000000000000000000000000100000000000000000000000000000000000000000000000000000000000010000000000000000000002000000000000000000000000000000000000000",
      "type": "0x2",
      "transactionHash": "0x6b9b7d1607f010229c9b215fe13d0a937ed66187ee3531df0b5ea0a94d11a416",
      "transactionIndex": "0x2",
      "blockHash": "0x3f9f5939119f4e648b660d7d4fb991c8f67cb617acc569304f25d7a04694ddfc",
      "blockNumber": "0x16c3498",
      "gasUsed": "0xbc1e",
      "effectiveGasPrice": "0x3b9aca01",
      "from": "0x3b4f0135465d444a5bd06ab90fc59b73916c85f5",
      "to": "0x0cea36dec7e7f7a0a36f28d89a4dbf974d66a441",
      "contractAddress": null
    },
    {
      "status": "0x1",
      "cumulativeGasUsed": "0xa7931",
      "logs": [],
      "logsBloom": "0x00000000000000000000000000000000000000000000000000000000000000000000000000000000000000000000000000000000000000000000000000000000000000000000000000000000000000000000000000000000000000000000000000000000000000000000000000000000000000000000000000000000000000000000000000000000000000000000000000000000000000000000000000000000000000000000000000000000000000000000000000000000000000000000000000000000000000000000000000000000000000000000000000000000000000000000000000000000000000000000000000000000000000000000000000000000",
      "type": "0x2",
      "transactionHash": "0x3282fd7dd347abe94602c8382121b51e81e7caf5569ee3c289feb60927acb810",
      "transactionIndex": "0x3",
      "blockHash": "0x3f9f5939119f4e648b660d7d4fb991c8f67cb617acc569304f25d7a04694ddfc",
      "blockNumber": "0x16c3498",
      "gasUsed": "0xb39e",
      "effectiveGasPrice": "0x3b9aca01",
      "from": "0x3b4f0135465d444a5bd06ab90fc59b73916c85f5",
      "to": "0x7b8c2dbcb7fec9e7184e9224f5b3f0adabb5914d",
      "contractAddress": null
    },
    {
      "status": "0x1",
      "cumulativeGasUsed": "0x12e013",
      "logs": [
        {
          "address": "0xe7d745439628d61a3f495c287033593a2f3468d9",
          "topics": [
            "0xddf252ad1be2c89b69c2b068fc378daa952ba7f163c4a11628f55a4df523b3ef",
            "0x0000000000000000000000000000000000000000000000000000000000000000",
            "0x0000000000000000000000003b4f0135465d444a5bd06ab90fc59b73916c85f5"
          ],
          "data": "0x000000000000000000000000002cd76fe086b93ce2f768a00b22a00000000000",
          "blockHash": "0x3f9f5939119f4e648b660d7d4fb991c8f67cb617acc569304f25d7a04694ddfc",
          "blockNumber": "0x16c3498",
          "transactionHash": "0xaa35bb58cd6154d0c9ecfb97c451ce2ffaa5ade1353506723f585ff47e996c2b",
          "transactionIndex": "0x4",
          "logIndex": "0x4",
          "removed": false
        },
        {
          "address": "0xb27c513a95f5491974599cdd4661a4f9c2013cad",
          "topics": [
            "0xafab5d1d74bae8c6b34c8932c5a93db45757bef8a5b14b76f11aa2cdd5cb9be5",
            "0x000000000000000000000000e7d745439628d61a3f495c287033593a2f3468d9"
          ],
          "data": "0x00000000000000000000000000000000000000000000000000000000000000a000000000000000000000000000000000000000000000000000000000000000e00000000000000000000000000000000000000000033b2e3c9fd0803ce800000000000000000000000000000000000000000000000000000000000000000000120000000000000000000000003b4f0135465d444a5bd06ab90fc59b73916c85f5000000000000000000000000000000000000000000000000000000000000000d577261707065642045746865720000000000000000000000000000000000000000000000000000000000000000000000000000000000000000000000000000045745544800000000000000000000000000000000000000000000000000000000",
          "blockHash": "0x3f9f5939119f4e648b660d7d4fb991c8f67cb617acc569304f25d7a04694ddfc",
          "blockNumber": "0x16c3498",
          "transactionHash": "0xaa35bb58cd6154d0c9ecfb97c451ce2ffaa5ade1353506723f585ff47e996c2b",
          "transactionIndex": "0x4",
          "logIndex": "0x5",
          "removed": false
        }
      ],
      "logsBloom": "0x00000000000000000000000000000000000000000000000000000020000000000000000000000000000000000000040000000000000000000004000000400000000000000000000000000008000000000000000000000000000008000000000000000001020000000000010000408800000000000020000000000010000000000000000000000000000000000000000000000000000000000000000000000000000000000000000000000000000000000000000000000000000000000001000000000102000000000000000000000000000000080000000000004000000020000000000000000000000000000000000000000000000000000000000000100000",
      "type": "0x2",
      "transactionHash": "0xaa35bb58cd6154d0c9ecfb97c451ce2ffaa5ade1353506723f585ff47e996c2b",
      "transactionIndex": "0x4",
      "blockHash": "0x3f9f5939119f4e648b660d7d4fb991c8f67cb617acc569304f25d7a04694ddfc",
      "blockNumber": "0x16c3498",
      "gasUsed": "0x866e2",
      "effectiveGasPrice": "0x3b9aca01",
      "from": "0x3b4f0135465d444a5bd06ab90fc59b73916c85f5",
      "to": "0xb27c513a95f5491974599cdd4661a4f9c2013cad",
      "contractAddress": null
    },
    {
      "status": "0x1",
      "cumulativeGasUsed": "0x139db7",
      "logs": [
        {
          "address": "0xe7d745439628d61a3f495c287033593a2f3468d9",
          "topics": [
            "0x8c5be1e5ebec7d5bd14f71427d1e84f3dd0314c0f7b2291e5b200ac8c7c3b925",
            "0x0000000000000000000000003b4f0135465d444a5bd06ab90fc59b73916c85f5",
            "0x0000000000000000000000007b8c2dbcb7fec9e7184e9224f5b3f0adabb5914d"
          ],
          "data": "0x0000000000000000000000000000000000000000000000029c655d23044afe91",
          "blockHash": "0x3f9f5939119f4e648b660d7d4fb991c8f67cb617acc569304f25d7a04694ddfc",
          "blockNumber": "0x16c3498",
          "transactionHash": "0x757a8cefd165c42d82ef83a9cb0b969051029ed9365fd8c7af29f2a3cc0226a8",
          "transactionIndex": "0x5",
          "logIndex": "0x6",
          "removed": false
        }
      ],
      "logsBloom": "0x00000000000000000000000000000000000000000000000000000020000000000000000000000000000000000000000000000000000000000000000000600000000000000000000000000000000000000000000000000000000000000000000000000001020000000000010000000000000000000000000000000000000000000000000000000000000000000000000000000000000000000000000000000000020000000000000100000000000000000000000000000000000000000000000000000100000000000000000000000000000000000000000000004000000000000010000000000000000000002000000000000000000000000000000000000000",
      "type": "0x2",
      "transactionHash": "0x757a8cefd165c42d82ef83a9cb0b969051029ed9365fd8c7af29f2a3cc0226a8",
      "transactionIndex": "0x5",
      "blockHash": "0x3f9f5939119f4e648b660d7d4fb991c8f67cb617acc569304f25d7a04694ddfc",
      "blockNumber": "0x16c3498",
      "gasUsed": "0xbda4",
      "effectiveGasPrice": "0x3b9aca01",
      "from": "0x3b4f0135465d444a5bd06ab90fc59b73916c85f5",
      "to": "0xe7d745439628d61a3f495c287033593a2f3468d9",
      "contractAddress": null
    },
    {
      "status": "0x1",
      "cumulativeGasUsed": "0x1452ca",
      "logs": [],
      "logsBloom": "0x00000000000000000000000000000000000000000000000000000000000000000000000000000000000000000000000000000000000000000000000000000000000000000000000000000000000000000000000000000000000000000000000000000000000000000000000000000000000000000000000000000000000000000000000000000000000000000000000000000000000000000000000000000000000000000000000000000000000000000000000000000000000000000000000000000000000000000000000000000000000000000000000000000000000000000000000000000000000000000000000000000000000000000000000000000000",
      "type": "0x2",
      "transactionHash": "0xb2c795fd18d8a76780333138758ef3a394bd4effb7aae88755d0249c4e6a4974",
      "transactionIndex": "0x6",
      "blockHash": "0x3f9f5939119f4e648b660d7d4fb991c8f67cb617acc569304f25d7a04694ddfc",
      "blockNumber": "0x16c3498",
      "gasUsed": "0xb513",
      "effectiveGasPrice": "0x3b9aca01",
      "from": "0x3b4f0135465d444a5bd06ab90fc59b73916c85f5",
      "to": "0x7b8c2dbcb7fec9e7184e9224f5b3f0adabb5914d",
      "contractAddress": null
    },
    {
      "status": "0x1",
      "cumulativeGasUsed": "0x1cca11",
      "logs": [
        {
          "address": "0x86072df44ab4ee4d7c3230919c3bcb86dec2e0a9",
          "topics": [
            "0xddf252ad1be2c89b69c2b068fc378daa952ba7f163c4a11628f55a4df523b3ef",
            "0x0000000000000000000000000000000000000000000000000000000000000000",
            "0x0000000000000000000000003b4f0135465d444a5bd06ab90fc59b73916c85f5"
          ],
          "data": "0x000000000000000000000000002cd76fe086b93ce2f768a00b22a00000000000",
          "blockHash": "0x3f9f5939119f4e648b660d7d4fb991c8f67cb617acc569304f25d7a04694ddfc",
          "blockNumber": "0x16c3498",
          "transactionHash": "0xc3a16c52d5dfc6218fd9e4ceb33bd169a32309054f5d9d4d518f1609f2eb5bff",
          "transactionIndex": "0x7",
          "logIndex": "0x7",
          "removed": false
        },
        {
          "address": "0xb27c513a95f5491974599cdd4661a4f9c2013cad",
          "topics": [
            "0xafab5d1d74bae8c6b34c8932c5a93db45757bef8a5b14b76f11aa2cdd5cb9be5",
            "0x00000000000000000000000086072df44ab4ee4d7c3230919c3bcb86dec2e0a9"
          ],
          "data": "0x00000000000000000000000000000000000000000000000000000000000000a000000000000000000000000000000000000000000000000000000000000000e00000000000000000000000000000000000000000033b2e3c9fd0803ce800000000000000000000000000000000000000000000000000000000000000000000120000000000000000000000003b4f0135465d444a5bd06ab90fc59b73916c85f50000000000000000000000000000000000000000000000000000000000000004504550450000000000000000000000000000000000000000000000000000000000000000000000000000000000000000000000000000000000000000000000045045504500000000000000000000000000000000000000000000000000000000",
          "blockHash": "0x3f9f5939119f4e648b660d7d4fb991c8f67cb617acc569304f25d7a04694ddfc",
          "blockNumber": "0x16c3498",
          "transactionHash": "0xc3a16c52d5dfc6218fd9e4ceb33bd169a32309054f5d9d4d518f1609f2eb5bff",
          "transactionIndex": "0x7",
          "logIndex": "0x8",
          "removed": false
        }
      ],
      "logsBloom": "0x00000000000000000000000000000004000000000000000000000020000000000000000000000000000000000000040000000000000000000000001000400000000000000000000000000008000000040000000000000000000008000000000000000000020000000000000000400800000000000020000000000010000000000000000000000000000000000000002000000000001000000000000000000000000000000000000000000000008000000000000000000000000000000001000000000102000000000000000000000000000000080000000000000000000020000000000000000000000000000000000000000000000000000000000000000000",
      "type": "0x2",
      "transactionHash": "0xc3a16c52d5dfc6218fd9e4ceb33bd169a32309054f5d9d4d518f1609f2eb5bff",
      "transactionIndex": "0x7",
      "blockHash": "0x3f9f5939119f4e648b660d7d4fb991c8f67cb617acc569304f25d7a04694ddfc",
      "blockNumber": "0x16c3498",
      "gasUsed": "0x87747",
      "effectiveGasPrice": "0x3b9aca01",
      "from": "0x3b4f0135465d444a5bd06ab90fc59b73916c85f5",
      "to": "0xb27c513a95f5491974599cdd4661a4f9c2013cad",
      "contractAddress": null
    },
    {
      "status": "0x1",
      "cumulativeGasUsed": "0x1d87b5",
      "logs": [
        {
          "address": "0x86072df44ab4ee4d7c3230919c3bcb86dec2e0a9",
          "topics": [
            "0x8c5be1e5ebec7d5bd14f71427d1e84f3dd0314c0f7b2291e5b200ac8c7c3b925",
            "0x0000000000000000000000003b4f0135465d444a5bd06ab90fc59b73916c85f5",
            "0x0000000000000000000000007b8c2dbcb7fec9e7184e9224f5b3f0adabb5914d"
          ],
          "data": "0x000000000000000000000000000000000000000034e91520b8f633e557000000",
          "blockHash": "0x3f9f5939119f4e648b660d7d4fb991c8f67cb617acc569304f25d7a04694ddfc",
          "blockNumber": "0x16c3498",
          "transactionHash": "0xdcff4a81e9ffb1b3125005d17d17c80a7bf5065422ba6d66b228b2a76005cb48",
          "transactionIndex": "0x8",
          "logIndex": "0x9",
          "removed": false
        }
      ],
      "logsBloom": "0x00000000000000000000000000000004000000000000000000000020000000000000000000000000000000000000000000000000000000000000000000600000000000000000000000000000000000000000000000000000000000000000000000000000020000000000000000000000000000000000000000000000000000000000000000000000000000000000000000000000001000000000000000000000020000000000000100000000008000000000000000000000000000000000000000000100000000000000000000000000000000000000000000000000000000000010000000000000000000002000000000000000000000000000000000000000",
      "type": "0x2",
      "transactionHash": "0xdcff4a81e9ffb1b3125005d17d17c80a7bf5065422ba6d66b228b2a76005cb48",
      "transactionIndex": "0x8",
      "blockHash": "0x3f9f5939119f4e648b660d7d4fb991c8f67cb617acc569304f25d7a04694ddfc",
      "blockNumber": "0x16c3498",
      "gasUsed": "0xbda4",
      "effectiveGasPrice": "0x3b9aca01",
      "from": "0x3b4f0135465d444a5bd06ab90fc59b73916c85f5",
      "to": "0x86072df44ab4ee4d7c3230919c3bcb86dec2e0a9",
      "contractAddress": null
    },
    {
      "status": "0x1",
      "cumulativeGasUsed": "0x1e3cc8",
      "logs": [],
      "logsBloom": "0x00000000000000000000000000000000000000000000000000000000000000000000000000000000000000000000000000000000000000000000000000000000000000000000000000000000000000000000000000000000000000000000000000000000000000000000000000000000000000000000000000000000000000000000000000000000000000000000000000000000000000000000000000000000000000000000000000000000000000000000000000000000000000000000000000000000000000000000000000000000000000000000000000000000000000000000000000000000000000000000000000000000000000000000000000000000",
      "type": "0x2",
      "transactionHash": "0x41ed020a93412c00cfce2b251b09a6165ce706660aaf322c31bbf60c5697c2c7",
      "transactionIndex": "0x9",
      "blockHash": "0x3f9f5939119f4e648b660d7d4fb991c8f67cb617acc569304f25d7a04694ddfc",
      "blockNumber": "0x16c3498",
      "gasUsed": "0xb513",
      "effectiveGasPrice": "0x3b9aca01",
      "from": "0x3b4f0135465d444a5bd06ab90fc59b73916c85f5",
      "to": "0x7b8c2dbcb7fec9e7184e9224f5b3f0adabb5914d",
      "contractAddress": null
    }
  ],
  "libraries": [],
  "pending": [],
  "returns": {},
  "timestamp": 1740823313,
  "chain": 57054,
  "commit": "f079722"
}