{
  "transactions": [
    {
      "hash": "0x3202031b93f941b810d57e266ddb364b5df740a362f291bdbaabd02aaedd1e1e",
      "transactionType": "CREATE",
      "contractName": "TokenFactory",
      "contractAddress": "0xf17a1ea23f0a943c2016b5f2b8f656ada273a23c",
      "function": null,
      "arguments": null,
      "transaction": {
        "from": "0x3b4f0135465d444a5bd06ab90fc59b73916c85f5",
        "gas": "0x107fbe",
        "value": "0x0",
        "input": "0x60808060405234601557610e12908161001a8239f35b5f80fdfe60806040526004361015610011575f80fd5b5f3560e01c63edd8112314610024575f80fd5b346101365760a03660031901126101365760043567ffffffffffffffff81116101365761005590369060040161013a565b60243567ffffffffffffffff81116101365761007590369060040161013a565b90604435906064359060ff821682036101365760843592604051610bca8082019082821067ffffffffffffffff8311176101225782916100c09161021384398787868b8933956101c6565b03905ff09485156101175761010c7faf5156078ffc09d447c818754d2e4310cc3f95e36cb33f85723785b122371ed59360209760018060a01b03169687966040519586953394876101c6565b0390a2604051908152f35b6040513d5f823e3d90fd5b634e487b7160e01b5f52604160045260245ffd5b5f80fd5b81601f820112156101365780359067ffffffffffffffff82116101225760405192601f8301601f19908116603f0116840167ffffffffffffffff811185821017610122576040528284526020838301011161013657815f926020809301838601378301015290565b805180835260209291819084018484015e5f828201840152601f01601f1916010190565b9491936101f560a0956101e760ff949a99969a60c08a5260c08a01906101a2565b9088820360208a01526101a2565b9760408701521660608501526080840152600180831b031691015256fe60806040523461041f57610bca8038038061001981610423565b92833981019060c08183031261041f5780516001600160401b03811161041f5782610045918301610448565b602082015190926001600160401b03821161041f57610065918301610448565b60408201519160608101519160ff831680930361041f57608082015160a0909201516001600160a01b038116959086900361041f578051906001600160401b0382116103225760035490600182811c92168015610415575b60208310146103045781601f8493116103a7575b50602090601f8311600114610341575f92610336575b50508160011b915f199060031b1c1916176003555b8051906001600160401b0382116103225760045490600182811c92168015610318575b60208310146103045781601f849311610296575b50602090601f8311600114610230575f92610225575b50508160011b915f199060031b1c1916176004555b6005805460ff191683179055600780546001600160a01b03191685179055600655604d81116101fe57600a0a908181029181830414901517156101fe57811561021257600254908082018092116101fe5760207fddf252ad1be2c89b69c2b068fc378daa952ba7f163c4a11628f55a4df523b3ef915f9360025584845283825260408420818154019055604051908152a3604051610730908161049a8239f35b634e487b7160e01b5f52601160045260245ffd5b63ec442f0560e01b5f525f60045260245ffd5b015190505f80610149565b60045f9081528281209350601f198516905b81811061027e5750908460019594939210610266575b505050811b0160045561015e565b01515f1960f88460031b161c191690555f8080610258565b92936020600181928786015181550195019301610242565b60045f529091507f8a35acfbc15ff81a39ae7d344fd709f28e8600b4aa8c65c6b64bfe7fe36bd19b601f840160051c810191602085106102fa575b90601f859493920160051c01905b8181106102ec5750610133565b5f81558493506001016102df565b90915081906102d1565b634e487b7160e01b5f52602260045260245ffd5b91607f169161011f565b634e487b7160e01b5f52604160045260245ffd5b015190505f806100e7565b60035f9081528281209350601f198516905b81811061038f5750908460019594939210610377575b505050811b016003556100fc565b01515f1960f88460031b161c191690555f8080610369565b92936020600181928786015181550195019301610353565b60035f529091507fc2575a0e9e593c00f959f8c92f12db2869c3395a3b0502d05e2516446f71f85b601f840160051c8101916020851061040b575b90601f859493920160051c01905b8181106103fd57506100d1565b5f81558493506001016103f0565b90915081906103e2565b91607f16916100bd565b5f80fd5b6040519190601f01601f191682016001600160401b0381118382101761032257604052565b81601f8201121561041f578051906001600160401b03821161032257610477601f8301601f1916602001610423565b928284526020838301011161041f57815f9260208093018386015e830101529056fe6080806040526004361015610012575f80fd5b5f3560e01c90816306fdde031461052b57508063095ea7b3146104a957806318160ddd1461048c57806323b872dd146103ad578063313ce5671461038d57806340c10f19146102eb57806370a08231146102b45780638da5cb5b1461028c57806395d89b4114610171578063a035b1fe146100b6578063a9059cbb14610140578063d03a404514610127578063dd62ed3e146100d75763e1aa6036146100b6575f80fd5b346100d3575f3660031901126100d3576020600654604051908152f35b5f80fd5b346100d35760403660031901126100d3576100f0610624565b6100f861063a565b6001600160a01b039182165f908152600160209081526040808320949093168252928352819020549051908152f35b346100d35760203660031901126100d357600435600655005b346100d35760403660031901126100d35761016661015c610624565b6024359033610650565b602060405160018152f35b346100d3575f3660031901126100d3576040515f6004548060011c90600181168015610282575b60208310811461026e5782855290811561025257506001146101fd575b50819003601f01601f191681019067ffffffffffffffff8211818310176101e9576101e5829182604052826105fa565b0390f35b634e487b7160e01b5f52604160045260245ffd5b905060045f527f8a35acfbc15ff81a39ae7d344fd709f28e8600b4aa8c65c6b64bfe7fe36bd19b5f905b82821061023c575060209150820101826101b5565b6001816020925483858801015201910190610227565b90506020925060ff191682840152151560051b820101826101b5565b634e487b7160e01b5f52602260045260245ffd5b91607f1691610198565b346100d3575f3660031901126100d3576007546040516001600160a01b039091168152602090f35b346100d35760203660031901126100d3576001600160a01b036102d5610624565b165f525f602052602060405f2054604051908152f35b346100d35760403660031901126100d357610304610624565b6001600160a01b0316602435811561037a57600254908082018092116103665760207fddf252ad1be2c89b69c2b068fc378daa952ba7f163c4a11628f55a4df523b3ef915f9360025584845283825260408420818154019055604051908152a3005b634e487b7160e01b5f52601160045260245ffd5b63ec442f0560e01b5f525f60045260245ffd5b346100d3575f3660031901126100d357602060ff60055416604051908152f35b346100d35760603660031901126100d3576103c6610624565b6103ce61063a565b6001600160a01b0382165f818152600160209081526040808320338452909152902054909260443592915f19811061040c575b506101669350610650565b83811061047157841561045e57331561044b57610166945f52600160205260405f2060018060a01b0333165f526020528360405f209103905584610401565b634a1406b160e11b5f525f60045260245ffd5b63e602df0560e01b5f525f60045260245ffd5b8390637dc7a0d960e11b5f523360045260245260445260645ffd5b346100d3575f3660031901126100d3576020600254604051908152f35b346100d35760403660031901126100d3576104c2610624565b60243590331561045e576001600160a01b031690811561044b57335f52600160205260405f20825f526020528060405f20556040519081527f8c5be1e5ebec7d5bd14f71427d1e84f3dd0314c0f7b2291e5b200ac8c7c3b92560203392a3602060405160018152f35b346100d3575f3660031901126100d3575f6003548060011c906001811680156105f0575b60208310811461026e57828552908115610252575060011461059b5750819003601f01601f191681019067ffffffffffffffff8211818310176101e9576101e5829182604052826105fa565b905060035f527fc2575a0e9e593c00f959f8c92f12db2869c3395a3b0502d05e2516446f71f85b5f905b8282106105da575060209150820101826101b5565b60018160209254838588010152019101906105c5565b91607f169161054f565b602060409281835280519182918282860152018484015e5f828201840152601f01601f1916010190565b600435906001600160a01b03821682036100d357565b602435906001600160a01b03821682036100d357565b6001600160a01b03169081156106e7576001600160a01b031691821561037a57815f525f60205260405f20548181106106ce57817fddf252ad1be2c89b69c2b068fc378daa952ba7f163c4a11628f55a4df523b3ef92602092855f525f84520360405f2055845f525f825260405f20818154019055604051908152a3565b8263391434e360e21b5f5260045260245260445260645ffd5b634b637e8f60e11b5f525f60045260245ffdfea26469706673582212205c39712fbe8b8553b0861089959a3df72b5d186974f2b84d34b8ca4462e4c82964736f6c634300081c0033a2646970667358221220c5ef71a885d729a44d5d5f20ecdb1ef805c4b0b15d9138be0c689a5e2e6e43fc64736f6c634300081c0033",
        "nonce": "0xdb",
        "chainId": "0xdede"
      },
      "additionalContracts": [],
      "isFixedGasLimit": false
    },
    {
      "hash": "0x286bd44fb5591355d460c77ff3324f0e03f9f00093cf7212e1de9b3887c073e8",
      "transactionType": "CREATE",
      "contractName": "Core",
      "contractAddress": "0x5ab3a2cb16b21dcfaf91cdb83ec96698fabe6a99",
      "function": null,
      "arguments": null,
      "transaction": {
        "from": "0x3b4f0135465d444a5bd06ab90fc59b73916c85f5",
        "gas": "0xbd36f",
        "value": "0x0",
        "input": "0x608080604052346015576109cf908161001a8239f35b5f80fdfe6080806040526004361015610012575f80fd5b5f3560e01c908163204120bc146107b75750806356688700146106c5578063997fdbb9146105ff578063a201ccf6146104fd578063a747b93b146103fb578063b122acec14610432578063b8c876b1146103fb5763df791e5014610074575f80fd5b346103f75760603660031901126103f75761008d6107eb565b6024356001600160a01b03811691908290036103f757604435906001600160a01b0316801515806103ee575b156103b15781156100ca8115610801565b815f525f60205260405f205415158061039b575b6100e790610903565b5f828152602081905260408082205486835291205481159190821580610392575b1561035a57670de0b6b3a76400008102818104670de0b6b3a764000014821517156103465782610137916108e5565b92670de0b6b3a7640000830290838204670de0b6b3a76400001417156103465781610161916108e5565b936103e58702908782046103e5141715610346576103e89004918183029183830414831517156103465761019e92610198916108d8565b906108e5565b9384156102f357835f525f60205260405f206101bb8282546108d8565b9055855f525f60205260405f206101d3868254610948565b90556040516323b872dd60e01b8152336004820152306024820152604481018290526020816064815f895af180156102cf57610216915f916102da575b50610955565b60405163a9059cbb60e01b815233600482015260248101869052956020876044815f855af19687156102cf57602097610255915f916102a25750610955565b604051948552868501526040840152836060840152608083015260a08201527f0874b2d545cb271cdbda4e093020c452328b24af12382ed62c4d00f5c26709db60c03392a2604051908152f35b6102c29150893d8b116102c8575b6102ba818361084c565b810190610882565b5f610210565b503d6102b0565b6040513d5f823e3d90fd5b6102c2915060203d6020116102c8576102ba818361084c565b60405162461bcd60e51b815260206004820152602560248201527f5377617020616d6f756e74206d7573742062652067726561746572207468616e604482015264207a65726f60d81b6064820152608490fd5b634e487b7160e01b5f52601160045260245ffd5b60405162461bcd60e51b815260206004820152601060248201526f496e76616c696420726573657276657360801b6044820152606490fd5b50801515610108565b505f8481526020819052604090205415156100de565b60405162461bcd60e51b8152602060048201526015602482015274496e76616c696420746f6b656e206164647265737360581b6044820152606490fd5b508215156100b9565b5f80fd5b346103f75760203660031901126103f7576001600160a01b0361041c6107eb565b165f525f602052602060405f2054604051908152f35b346103f75760603660031901126103f75761044b6107eb565b6024356044359182156104ac577fb556fac599c3c70efb9ab1fa725ecace6c81cc48d1455f886607def065f3e0c09160409160018060a01b031693845f52600160205281835f2055845f525f60205280835f205582519182526020820152a2005b60405162461bcd60e51b815260206004820152602360248201527f4c6971756964697479206d7573742062652067726561746572207468616e207a60448201526265726f60e81b6064820152608490fd5b346103f75760403660031901126103f7576105166107eb565b60243560018060a01b03821690815f525f60205261053a8160405f20541015610903565b815f525f60205260405f20610550828254610948565b905560405163a9059cbb60e01b81523360048201526024810182905291602090839060449082905f905af19081156102cf576105b86105db927f983e86fda8e7b1e2eae380201830eaf1cac55772e8e39583da349865e8178863945f916105e0575b5061089a565b604080516001600160a01b03909516855260208501919091523393918291820190565b0390a2005b6105f9915060203d6020116102c8576102ba818361084c565b866105b2565b346103f75760403660031901126103f7576106186107eb565b6024359081156106805760407fb556fac599c3c70efb9ab1fa725ecace6c81cc48d1455f886607def065f3e0c09160018060a01b031692835f52600160205280825f205580670de0b6b3a764000004845f525f60205280835f205582519182526020820152a2005b60405162461bcd60e51b815260206004820152601f60248201527f5072696365206d7573742062652067726561746572207468616e207a65726f006044820152606490fd5b346103f75760403660031901126103f7576106de6107eb565b6024356106ec811515610801565b6040516323b872dd60e01b815233600482015230602482015260448101829052906001600160a01b038316906020836064815f865af19182156102cf5761075e6105db937f9d278c56ba6dc86a12eefe6b43112bd6e06648eb4ec0b950ee2d783d40e2acb4955f91610798575061089a565b5f525f60205260405f206107738282546108d8565b9055604080516001600160a01b03909516855260208501919091523393918291820190565b6107b1915060203d6020116102c8576102ba818361084c565b876105b2565b346103f75760203660031901126103f7576020906001600160a01b036107db6107eb565b165f526001825260405f20548152f35b600435906001600160a01b03821682036103f757565b1561080857565b606460405162461bcd60e51b815260206004820152602060248201527f416d6f756e74206d7573742062652067726561746572207468616e207a65726f6044820152fd5b90601f8019910116810190811067ffffffffffffffff82111761086e57604052565b634e487b7160e01b5f52604160045260245ffd5b908160209103126103f7575180151581036103f75790565b156108a157565b60405162461bcd60e51b815260206004820152600f60248201526e151c985b9cd9995c8819985a5b1959608a1b6044820152606490fd5b9190820180921161034657565b81156108ef570490565b634e487b7160e01b5f52601260045260245ffd5b1561090a57565b60405162461bcd60e51b8152602060048201526016602482015275496e73756666696369656e74206c697175696469747960501b6044820152606490fd5b9190820391821161034657565b1561095c57565b60405162461bcd60e51b8152602060048201526015602482015274151bdad95b881d1c985b9cd9995c8819985a5b1959605a1b6044820152606490fdfea2646970667358221220b47681d1a3a96792a5019982d5262e00ed0e444bc26270f494cfe460abe6d22b64736f6c634300081c0033",
        "nonce": "0xdc",
        "chainId": "0xdede"
      },
      "additionalContracts": [],
      "isFixedGasLimit": false
    },
    {
      "hash": "0x1c10ea49c1183712b400eb5abe04e32a7fedabc14ab6c6de128cb6fe95562062",
      "transactionType": "CALL",
      "contractName": "TokenFactory",
      "contractAddress": "0xf17a1ea23f0a943c2016b5f2b8f656ada273a23c",
      "function": "createToken(string,string,uint256,uint8,uint256)",
      "arguments": [
        "SONIC",
        "S",
        "1000000000000000000000000",
        "18",
        "1000000000000000000"
      ],
      "transaction": {
        "from": "0x3b4f0135465d444a5bd06ab90fc59b73916c85f5",
        "to": "0xf17a1ea23f0a943c2016b5f2b8f656ada273a23c",
        "gas": "0xd1e2f",
        "value": "0x0",
        "input": "0xedd8112300000000000000000000000000000000000000000000000000000000000000a000000000000000000000000000000000000000000000000000000000000000e000000000000000000000000000000000000000000000d3c21bcecceda100000000000000000000000000000000000000000000000000000000000000000000120000000000000000000000000000000000000000000000000de0b6b3a76400000000000000000000000000000000000000000000000000000000000000000005534f4e494300000000000000000000000000000000000000000000000000000000000000000000000000000000000000000000000000000000000000000000015300000000000000000000000000000000000000000000000000000000000000",
        "nonce": "0xdd",
        "chainId": "0xdede"
      },
      "additionalContracts": [
        {
          "transactionType": "CREATE",
          "address": "0xea48745c8c9efe2e27cc939cc5c976a54285ad5b",
          "initCode": "0x60806040523461041f57610bca8038038061001981610423565b92833981019060c08183031261041f5780516001600160401b03811161041f5782610045918301610448565b602082015190926001600160401b03821161041f57610065918301610448565b60408201519160608101519160ff831680930361041f57608082015160a0909201516001600160a01b038116959086900361041f578051906001600160401b0382116103225760035490600182811c92168015610415575b60208310146103045781601f8493116103a7575b50602090601f8311600114610341575f92610336575b50508160011b915f199060031b1c1916176003555b8051906001600160401b0382116103225760045490600182811c92168015610318575b60208310146103045781601f849311610296575b50602090601f8311600114610230575f92610225575b50508160011b915f199060031b1c1916176004555b6005805460ff191683179055600780546001600160a01b03191685179055600655604d81116101fe57600a0a908181029181830414901517156101fe57811561021257600254908082018092116101fe5760207fddf252ad1be2c89b69c2b068fc378daa952ba7f163c4a11628f55a4df523b3ef915f9360025584845283825260408420818154019055604051908152a3604051610730908161049a8239f35b634e487b7160e01b5f52601160045260245ffd5b63ec442f0560e01b5f525f60045260245ffd5b015190505f80610149565b60045f9081528281209350601f198516905b81811061027e5750908460019594939210610266575b505050811b0160045561015e565b01515f1960f88460031b161c191690555f8080610258565b92936020600181928786015181550195019301610242565b60045f529091507f8a35acfbc15ff81a39ae7d344fd709f28e8600b4aa8c65c6b64bfe7fe36bd19b601f840160051c810191602085106102fa575b90601f859493920160051c01905b8181106102ec5750610133565b5f81558493506001016102df565b90915081906102d1565b634e487b7160e01b5f52602260045260245ffd5b91607f169161011f565b634e487b7160e01b5f52604160045260245ffd5b015190505f806100e7565b60035f9081528281209350601f198516905b81811061038f5750908460019594939210610377575b505050811b016003556100fc565b01515f1960f88460031b161c191690555f8080610369565b92936020600181928786015181550195019301610353565b60035f529091507fc2575a0e9e593c00f959f8c92f12db2869c3395a3b0502d05e2516446f71f85b601f840160051c8101916020851061040b575b90601f859493920160051c01905b8181106103fd57506100d1565b5f81558493506001016103f0565b90915081906103e2565b91607f16916100bd565b5f80fd5b6040519190601f01601f191682016001600160401b0381118382101761032257604052565b81601f8201121561041f578051906001600160401b03821161032257610477601f8301601f1916602001610423565b928284526020838301011161041f57815f9260208093018386015e830101529056fe6080806040526004361015610012575f80fd5b5f3560e01c90816306fdde031461052b57508063095ea7b3146104a957806318160ddd1461048c57806323b872dd146103ad578063313ce5671461038d57806340c10f19146102eb57806370a08231146102b45780638da5cb5b1461028c57806395d89b4114610171578063a035b1fe146100b6578063a9059cbb14610140578063d03a404514610127578063dd62ed3e146100d75763e1aa6036146100b6575f80fd5b346100d3575f3660031901126100d3576020600654604051908152f35b5f80fd5b346100d35760403660031901126100d3576100f0610624565b6100f861063a565b6001600160a01b039182165f908152600160209081526040808320949093168252928352819020549051908152f35b346100d35760203660031901126100d357600435600655005b346100d35760403660031901126100d35761016661015c610624565b6024359033610650565b602060405160018152f35b346100d3575f3660031901126100d3576040515f6004548060011c90600181168015610282575b60208310811461026e5782855290811561025257506001146101fd575b50819003601f01601f191681019067ffffffffffffffff8211818310176101e9576101e5829182604052826105fa565b0390f35b634e487b7160e01b5f52604160045260245ffd5b905060045f527f8a35acfbc15ff81a39ae7d344fd709f28e8600b4aa8c65c6b64bfe7fe36bd19b5f905b82821061023c575060209150820101826101b5565b6001816020925483858801015201910190610227565b90506020925060ff191682840152151560051b820101826101b5565b634e487b7160e01b5f52602260045260245ffd5b91607f1691610198565b346100d3575f3660031901126100d3576007546040516001600160a01b039091168152602090f35b346100d35760203660031901126100d3576001600160a01b036102d5610624565b165f525f602052602060405f2054604051908152f35b346100d35760403660031901126100d357610304610624565b6001600160a01b0316602435811561037a57600254908082018092116103665760207fddf252ad1be2c89b69c2b068fc378daa952ba7f163c4a11628f55a4df523b3ef915f9360025584845283825260408420818154019055604051908152a3005b634e487b7160e01b5f52601160045260245ffd5b63ec442f0560e01b5f525f60045260245ffd5b346100d3575f3660031901126100d357602060ff60055416604051908152f35b346100d35760603660031901126100d3576103c6610624565b6103ce61063a565b6001600160a01b0382165f818152600160209081526040808320338452909152902054909260443592915f19811061040c575b506101669350610650565b83811061047157841561045e57331561044b57610166945f52600160205260405f2060018060a01b0333165f526020528360405f209103905584610401565b634a1406b160e11b5f525f60045260245ffd5b63e602df0560e01b5f525f60045260245ffd5b8390637dc7a0d960e11b5f523360045260245260445260645ffd5b346100d3575f3660031901126100d3576020600254604051908152f35b346100d35760403660031901126100d3576104c2610624565b60243590331561045e576001600160a01b031690811561044b57335f52600160205260405f20825f526020528060405f20556040519081527f8c5be1e5ebec7d5bd14f71427d1e84f3dd0314c0f7b2291e5b200ac8c7c3b92560203392a3602060405160018152f35b346100d3575f3660031901126100d3575f6003548060011c906001811680156105f0575b60208310811461026e57828552908115610252575060011461059b5750819003601f01601f191681019067ffffffffffffffff8211818310176101e9576101e5829182604052826105fa565b905060035f527fc2575a0e9e593c00f959f8c92f12db2869c3395a3b0502d05e2516446f71f85b5f905b8282106105da575060209150820101826101b5565b60018160209254838588010152019101906105c5565b91607f169161054f565b602060409281835280519182918282860152018484015e5f828201840152601f01601f1916010190565b600435906001600160a01b03821682036100d357565b602435906001600160a01b03821682036100d357565b6001600160a01b03169081156106e7576001600160a01b031691821561037a57815f525f60205260405f20548181106106ce57817fddf252ad1be2c89b69c2b068fc378daa952ba7f163c4a11628f55a4df523b3ef92602092855f525f84520360405f2055845f525f825260405f20818154019055604051908152a3565b8263391434e360e21b5f5260045260245260445260645ffd5b634b637e8f60e11b5f525f60045260245ffdfea26469706673582212205c39712fbe8b8553b0861089959a3df72b5d186974f2b84d34b8ca4462e4c82964736f6c634300081c003300000000000000000000000000000000000000000000000000000000000000c0000000000000000000000000000000000000000000000000000000000000010000000000000000000000000000000000000000000000d3c21bcecceda100000000000000000000000000000000000000000000000000000000000000000000120000000000000000000000000000000000000000000000000de0b6b3a76400000000000000000000000000003b4f0135465d444a5bd06ab90fc59b73916c85f50000000000000000000000000000000000000000000000000000000000000005534f4e494300000000000000000000000000000000000000000000000000000000000000000000000000000000000000000000000000000000000000000000015300000000000000000000000000000000000000000000000000000000000000"
        }
      ],
      "isFixedGasLimit": false
    },
    {
      "hash": "0xd1c1e99eb1991329be53d6805cc45e85823ad44a2c9ccb2df9e9a174ac5bcb05",
      "transactionType": "CALL",
      "contractName": "MockToken",
      "contractAddress": "0xea48745c8c9efe2e27cc939cc5c976a54285ad5b",
      "function": "approve(address,uint256)",
      "arguments": [
        "0x5AB3A2CB16B21DCFaf91CDb83EC96698FaBe6A99",
        "1000000000000000000000000"
      ],
      "transaction": {
        "from": "0x3b4f0135465d444a5bd06ab90fc59b73916c85f5",
        "to": "0xea48745c8c9efe2e27cc939cc5c976a54285ad5b",
        "gas": "0x1069d",
        "value": "0x0",
        "input": "0x095ea7b30000000000000000000000005ab3a2cb16b21dcfaf91cdb83ec96698fabe6a9900000000000000000000000000000000000000000000d3c21bcecceda1000000",
        "nonce": "0xde",
        "chainId": "0xdede"
      },
      "additionalContracts": [],
      "isFixedGasLimit": false
    },
    {
      "hash": "0x7c7887343c20562055b2d7f66321b8d8c4c2de66ac8d37fe9b9540d2668711b0",
      "transactionType": "CALL",
      "contractName": "Core",
      "contractAddress": "0x5ab3a2cb16b21dcfaf91cdb83ec96698fabe6a99",
      "function": "addLiquidity(address,uint256)",
      "arguments": [
        "0xEA48745C8c9eFe2e27Cc939cC5c976A54285ad5b",
        "1000000000000000000000000"
      ],
      "transaction": {
        "from": "0x3b4f0135465d444a5bd06ab90fc59b73916c85f5",
        "to": "0x5ab3a2cb16b21dcfaf91cdb83ec96698fabe6a99",
        "gas": "0x1ab19",
        "value": "0x0",
        "input": "0x56688700000000000000000000000000ea48745c8c9efe2e27cc939cc5c976a54285ad5b00000000000000000000000000000000000000000000d3c21bcecceda1000000",
        "nonce": "0xdf",
        "chainId": "0xdede"
      },
      "additionalContracts": [],
      "isFixedGasLimit": false
    },
    {
      "hash": "0x861de4592fc5c4bcc0921baafce4dee83fad7801782722644c991e17d19a0683",
      "transactionType": "CALL",
      "contractName": "TokenFactory",
      "contractAddress": "0xf17a1ea23f0a943c2016b5f2b8f656ada273a23c",
      "function": "createToken(string,string,uint256,uint8,uint256)",
      "arguments": [
        "Ethereum",
        "ETH",
        "1000000000000000000000000",
        "18",
        "2719000000000000000000"
      ],
      "transaction": {
        "from": "0x3b4f0135465d444a5bd06ab90fc59b73916c85f5",
        "to": "0xf17a1ea23f0a943c2016b5f2b8f656ada273a23c",
        "gas": "0xd1e98",
        "value": "0x0",
        "input": "0xedd8112300000000000000000000000000000000000000000000000000000000000000a000000000000000000000000000000000000000000000000000000000000000e000000000000000000000000000000000000000000000d3c21bcecceda1000000000000000000000000000000000000000000000000000000000000000000001200000000000000000000000000000000000000000000009365b47e1edf1c00000000000000000000000000000000000000000000000000000000000000000008457468657265756d00000000000000000000000000000000000000000000000000000000000000000000000000000000000000000000000000000000000000034554480000000000000000000000000000000000000000000000000000000000",
        "nonce": "0xe0",
        "chainId": "0xdede"
      },
      "additionalContracts": [
        {
          "transactionType": "CREATE",
          "address": "0x5ffac3827ddee20b479d27a2b72c5a44fcd752df",
          "initCode": "0x60806040523461041f57610bca8038038061001981610423565b92833981019060c08183031261041f5780516001600160401b03811161041f5782610045918301610448565b602082015190926001600160401b03821161041f57610065918301610448565b60408201519160608101519160ff831680930361041f57608082015160a0909201516001600160a01b038116959086900361041f578051906001600160401b0382116103225760035490600182811c92168015610415575b60208310146103045781601f8493116103a7575b50602090601f8311600114610341575f92610336575b50508160011b915f199060031b1c1916176003555b8051906001600160401b0382116103225760045490600182811c92168015610318575b60208310146103045781601f849311610296575b50602090601f8311600114610230575f92610225575b50508160011b915f199060031b1c1916176004555b6005805460ff191683179055600780546001600160a01b03191685179055600655604d81116101fe57600a0a908181029181830414901517156101fe57811561021257600254908082018092116101fe5760207fddf252ad1be2c89b69c2b068fc378daa952ba7f163c4a11628f55a4df523b3ef915f9360025584845283825260408420818154019055604051908152a3604051610730908161049a8239f35b634e487b7160e01b5f52601160045260245ffd5b63ec442f0560e01b5f525f60045260245ffd5b015190505f80610149565b60045f9081528281209350601f198516905b81811061027e5750908460019594939210610266575b505050811b0160045561015e565b01515f1960f88460031b161c191690555f8080610258565b92936020600181928786015181550195019301610242565b60045f529091507f8a35acfbc15ff81a39ae7d344fd709f28e8600b4aa8c65c6b64bfe7fe36bd19b601f840160051c810191602085106102fa575b90601f859493920160051c01905b8181106102ec5750610133565b5f81558493506001016102df565b90915081906102d1565b634e487b7160e01b5f52602260045260245ffd5b91607f169161011f565b634e487b7160e01b5f52604160045260245ffd5b015190505f806100e7565b60035f9081528281209350601f198516905b81811061038f5750908460019594939210610377575b505050811b016003556100fc565b01515f1960f88460031b161c191690555f8080610369565b92936020600181928786015181550195019301610353565b60035f529091507fc2575a0e9e593c00f959f8c92f12db2869c3395a3b0502d05e2516446f71f85b601f840160051c8101916020851061040b575b90601f859493920160051c01905b8181106103fd57506100d1565b5f81558493506001016103f0565b90915081906103e2565b91607f16916100bd565b5f80fd5b6040519190601f01601f191682016001600160401b0381118382101761032257604052565b81601f8201121561041f578051906001600160401b03821161032257610477601f8301601f1916602001610423565b928284526020838301011161041f57815f9260208093018386015e830101529056fe6080806040526004361015610012575f80fd5b5f3560e01c90816306fdde031461052b57508063095ea7b3146104a957806318160ddd1461048c57806323b872dd146103ad578063313ce5671461038d57806340c10f19146102eb57806370a08231146102b45780638da5cb5b1461028c57806395d89b4114610171578063a035b1fe146100b6578063a9059cbb14610140578063d03a404514610127578063dd62ed3e146100d75763e1aa6036146100b6575f80fd5b346100d3575f3660031901126100d3576020600654604051908152f35b5f80fd5b346100d35760403660031901126100d3576100f0610624565b6100f861063a565b6001600160a01b039182165f908152600160209081526040808320949093168252928352819020549051908152f35b346100d35760203660031901126100d357600435600655005b346100d35760403660031901126100d35761016661015c610624565b6024359033610650565b602060405160018152f35b346100d3575f3660031901126100d3576040515f6004548060011c90600181168015610282575b60208310811461026e5782855290811561025257506001146101fd575b50819003601f01601f191681019067ffffffffffffffff8211818310176101e9576101e5829182604052826105fa565b0390f35b634e487b7160e01b5f52604160045260245ffd5b905060045f527f8a35acfbc15ff81a39ae7d344fd709f28e8600b4aa8c65c6b64bfe7fe36bd19b5f905b82821061023c575060209150820101826101b5565b6001816020925483858801015201910190610227565b90506020925060ff191682840152151560051b820101826101b5565b634e487b7160e01b5f52602260045260245ffd5b91607f1691610198565b346100d3575f3660031901126100d3576007546040516001600160a01b039091168152602090f35b346100d35760203660031901126100d3576001600160a01b036102d5610624565b165f525f602052602060405f2054604051908152f35b346100d35760403660031901126100d357610304610624565b6001600160a01b0316602435811561037a57600254908082018092116103665760207fddf252ad1be2c89b69c2b068fc378daa952ba7f163c4a11628f55a4df523b3ef915f9360025584845283825260408420818154019055604051908152a3005b634e487b7160e01b5f52601160045260245ffd5b63ec442f0560e01b5f525f60045260245ffd5b346100d3575f3660031901126100d357602060ff60055416604051908152f35b346100d35760603660031901126100d3576103c6610624565b6103ce61063a565b6001600160a01b0382165f818152600160209081526040808320338452909152902054909260443592915f19811061040c575b506101669350610650565b83811061047157841561045e57331561044b57610166945f52600160205260405f2060018060a01b0333165f526020528360405f209103905584610401565b634a1406b160e11b5f525f60045260245ffd5b63e602df0560e01b5f525f60045260245ffd5b8390637dc7a0d960e11b5f523360045260245260445260645ffd5b346100d3575f3660031901126100d3576020600254604051908152f35b346100d35760403660031901126100d3576104c2610624565b60243590331561045e576001600160a01b031690811561044b57335f52600160205260405f20825f526020528060405f20556040519081527f8c5be1e5ebec7d5bd14f71427d1e84f3dd0314c0f7b2291e5b200ac8c7c3b92560203392a3602060405160018152f35b346100d3575f3660031901126100d3575f6003548060011c906001811680156105f0575b60208310811461026e57828552908115610252575060011461059b5750819003601f01601f191681019067ffffffffffffffff8211818310176101e9576101e5829182604052826105fa565b905060035f527fc2575a0e9e593c00f959f8c92f12db2869c3395a3b0502d05e2516446f71f85b5f905b8282106105da575060209150820101826101b5565b60018160209254838588010152019101906105c5565b91607f169161054f565b602060409281835280519182918282860152018484015e5f828201840152601f01601f1916010190565b600435906001600160a01b03821682036100d357565b602435906001600160a01b03821682036100d357565b6001600160a01b03169081156106e7576001600160a01b031691821561037a57815f525f60205260405f20548181106106ce57817fddf252ad1be2c89b69c2b068fc378daa952ba7f163c4a11628f55a4df523b3ef92602092855f525f84520360405f2055845f525f825260405f20818154019055604051908152a3565b8263391434e360e21b5f5260045260245260445260645ffd5b634b637e8f60e11b5f525f60045260245ffdfea26469706673582212205c39712fbe8b8553b0861089959a3df72b5d186974f2b84d34b8ca4462e4c82964736f6c634300081c003300000000000000000000000000000000000000000000000000000000000000c0000000000000000000000000000000000000000000000000000000000000010000000000000000000000000000000000000000000000d3c21bcecceda1000000000000000000000000000000000000000000000000000000000000000000001200000000000000000000000000000000000000000000009365b47e1edf1c00000000000000000000000000003b4f0135465d444a5bd06ab90fc59b73916c85f50000000000000000000000000000000000000000000000000000000000000008457468657265756d00000000000000000000000000000000000000000000000000000000000000000000000000000000000000000000000000000000000000034554480000000000000000000000000000000000000000000000000000000000"
        }
      ],
      "isFixedGasLimit": false
    },
    {
      "hash": "0x2a1089bd7076dce1298694d89ae17c6ab1e1702daf3bf3ab06f59fa0d31e37cd",
      "transactionType": "CALL",
      "contractName": "MockToken",
      "contractAddress": "0x5ffac3827ddee20b479d27a2b72c5a44fcd752df",
      "function": "approve(address,uint256)",
      "arguments": [
        "0x5AB3A2CB16B21DCFaf91CDb83EC96698FaBe6A99",
        "367782272894446487679"
      ],
      "transaction": {
        "from": "0x3b4f0135465d444a5bd06ab90fc59b73916c85f5",
        "to": "0x5ffac3827ddee20b479d27a2b72c5a44fcd752df",
        "gas": "0x106c0",
        "value": "0x0",
        "input": "0x095ea7b30000000000000000000000005ab3a2cb16b21dcfaf91cdb83ec96698fabe6a99000000000000000000000000000000000000000000000013f0011c9a7f42487f",
        "nonce": "0xe1",
        "chainId": "0xdede"
      },
      "additionalContracts": [],
      "isFixedGasLimit": false
    },
    {
      "hash": "0x5bc03280abb495616c66d22c03677bc0447e5864868b728bebc50420d4d08303",
      "transactionType": "CALL",
      "contractName": "Core",
      "contractAddress": "0x5ab3a2cb16b21dcfaf91cdb83ec96698fabe6a99",
      "function": "addLiquidity(address,uint256)",
      "arguments": [
        "0x5ffac3827ddEE20b479d27a2b72c5a44FcD752DF",
        "367782272894446487679"
      ],
      "transaction": {
        "from": "0x3b4f0135465d444a5bd06ab90fc59b73916c85f5",
        "to": "0x5ab3a2cb16b21dcfaf91cdb83ec96698fabe6a99",
        "gas": "0x1ab3a",
        "value": "0x0",
        "input": "0x566887000000000000000000000000005ffac3827ddee20b479d27a2b72c5a44fcd752df000000000000000000000000000000000000000000000013f0011c9a7f42487f",
        "nonce": "0xe2",
        "chainId": "0xdede"
      },
      "additionalContracts": [],
      "isFixedGasLimit": false
    },
    {
      "hash": "0xd5819f322551aca97f134429170c68dfa26bb5882c98953dba15d8a2defb7828",
      "transactionType": "CALL",
      "contractName": "TokenFactory",
      "contractAddress": "0xf17a1ea23f0a943c2016b5f2b8f656ada273a23c",
      "function": "createToken(string,string,uint256,uint8,uint256)",
      "arguments": [
        "Bitcoin",
        "BTC",
        "1000000000000000000000000",
        "18",
        "65300000000000000000000"
      ],
      "transaction": {
        "from": "0x3b4f0135465d444a5bd06ab90fc59b73916c85f5",
        "to": "0xf17a1ea23f0a943c2016b5f2b8f656ada273a23c",
        "gas": "0xd1e98",
        "value": "0x0",
        "input": "0xedd8112300000000000000000000000000000000000000000000000000000000000000a000000000000000000000000000000000000000000000000000000000000000e000000000000000000000000000000000000000000000d3c21bcecceda10000000000000000000000000000000000000000000000000000000000000000000012000000000000000000000000000000000000000000000dd3eb8b39c5afd000000000000000000000000000000000000000000000000000000000000000000007426974636f696e0000000000000000000000000000000000000000000000000000000000000000000000000000000000000000000000000000000000000000034254430000000000000000000000000000000000000000000000000000000000",
        "nonce": "0xe3",
        "chainId": "0xdede"
      },
      "additionalContracts": [
        {
          "transactionType": "CREATE",
          "address": "0x3e2da21a9cc78c7401caf4faa85de092ed726833",
          "initCode": "0x60806040523461041f57610bca8038038061001981610423565b92833981019060c08183031261041f5780516001600160401b03811161041f5782610045918301610448565b602082015190926001600160401b03821161041f57610065918301610448565b60408201519160608101519160ff831680930361041f57608082015160a0909201516001600160a01b038116959086900361041f578051906001600160401b0382116103225760035490600182811c92168015610415575b60208310146103045781601f8493116103a7575b50602090601f8311600114610341575f92610336575b50508160011b915f199060031b1c1916176003555b8051906001600160401b0382116103225760045490600182811c92168015610318575b60208310146103045781601f849311610296575b50602090601f8311600114610230575f92610225575b50508160011b915f199060031b1c1916176004555b6005805460ff191683179055600780546001600160a01b03191685179055600655604d81116101fe57600a0a908181029181830414901517156101fe57811561021257600254908082018092116101fe5760207fddf252ad1be2c89b69c2b068fc378daa952ba7f163c4a11628f55a4df523b3ef915f9360025584845283825260408420818154019055604051908152a3604051610730908161049a8239f35b634e487b7160e01b5f52601160045260245ffd5b63ec442f0560e01b5f525f60045260245ffd5b015190505f80610149565b60045f9081528281209350601f198516905b81811061027e5750908460019594939210610266575b505050811b0160045561015e565b01515f1960f88460031b161c191690555f8080610258565b92936020600181928786015181550195019301610242565b60045f529091507f8a35acfbc15ff81a39ae7d344fd709f28e8600b4aa8c65c6b64bfe7fe36bd19b601f840160051c810191602085106102fa575b90601f859493920160051c01905b8181106102ec5750610133565b5f81558493506001016102df565b90915081906102d1565b634e487b7160e01b5f52602260045260245ffd5b91607f169161011f565b634e487b7160e01b5f52604160045260245ffd5b015190505f806100e7565b60035f9081528281209350601f198516905b81811061038f5750908460019594939210610377575b505050811b016003556100fc565b01515f1960f88460031b161c191690555f8080610369565b92936020600181928786015181550195019301610353565b60035f529091507fc2575a0e9e593c00f959f8c92f12db2869c3395a3b0502d05e2516446f71f85b601f840160051c8101916020851061040b575b90601f859493920160051c01905b8181106103fd57506100d1565b5f81558493506001016103f0565b90915081906103e2565b91607f16916100bd565b5f80fd5b6040519190601f01601f191682016001600160401b0381118382101761032257604052565b81601f8201121561041f578051906001600160401b03821161032257610477601f8301601f1916602001610423565b928284526020838301011161041f57815f9260208093018386015e830101529056fe6080806040526004361015610012575f80fd5b5f3560e01c90816306fdde031461052b57508063095ea7b3146104a957806318160ddd1461048c57806323b872dd146103ad578063313ce5671461038d57806340c10f19146102eb57806370a08231146102b45780638da5cb5b1461028c57806395d89b4114610171578063a035b1fe146100b6578063a9059cbb14610140578063d03a404514610127578063dd62ed3e146100d75763e1aa6036146100b6575f80fd5b346100d3575f3660031901126100d3576020600654604051908152f35b5f80fd5b346100d35760403660031901126100d3576100f0610624565b6100f861063a565b6001600160a01b039182165f908152600160209081526040808320949093168252928352819020549051908152f35b346100d35760203660031901126100d357600435600655005b346100d35760403660031901126100d35761016661015c610624565b6024359033610650565b602060405160018152f35b346100d3575f3660031901126100d3576040515f6004548060011c90600181168015610282575b60208310811461026e5782855290811561025257506001146101fd575b50819003601f01601f191681019067ffffffffffffffff8211818310176101e9576101e5829182604052826105fa565b0390f35b634e487b7160e01b5f52604160045260245ffd5b905060045f527f8a35acfbc15ff81a39ae7d344fd709f28e8600b4aa8c65c6b64bfe7fe36bd19b5f905b82821061023c575060209150820101826101b5565b6001816020925483858801015201910190610227565b90506020925060ff191682840152151560051b820101826101b5565b634e487b7160e01b5f52602260045260245ffd5b91607f1691610198565b346100d3575f3660031901126100d3576007546040516001600160a01b039091168152602090f35b346100d35760203660031901126100d3576001600160a01b036102d5610624565b165f525f602052602060405f2054604051908152f35b346100d35760403660031901126100d357610304610624565b6001600160a01b0316602435811561037a57600254908082018092116103665760207fddf252ad1be2c89b69c2b068fc378daa952ba7f163c4a11628f55a4df523b3ef915f9360025584845283825260408420818154019055604051908152a3005b634e487b7160e01b5f52601160045260245ffd5b63ec442f0560e01b5f525f60045260245ffd5b346100d3575f3660031901126100d357602060ff60055416604051908152f35b346100d35760603660031901126100d3576103c6610624565b6103ce61063a565b6001600160a01b0382165f818152600160209081526040808320338452909152902054909260443592915f19811061040c575b506101669350610650565b83811061047157841561045e57331561044b57610166945f52600160205260405f2060018060a01b0333165f526020528360405f209103905584610401565b634a1406b160e11b5f525f60045260245ffd5b63e602df0560e01b5f525f60045260245ffd5b8390637dc7a0d960e11b5f523360045260245260445260645ffd5b346100d3575f3660031901126100d3576020600254604051908152f35b346100d35760403660031901126100d3576104c2610624565b60243590331561045e576001600160a01b031690811561044b57335f52600160205260405f20825f526020528060405f20556040519081527f8c5be1e5ebec7d5bd14f71427d1e84f3dd0314c0f7b2291e5b200ac8c7c3b92560203392a3602060405160018152f35b346100d3575f3660031901126100d3575f6003548060011c906001811680156105f0575b60208310811461026e57828552908115610252575060011461059b5750819003601f01601f191681019067ffffffffffffffff8211818310176101e9576101e5829182604052826105fa565b905060035f527fc2575a0e9e593c00f959f8c92f12db2869c3395a3b0502d05e2516446f71f85b5f905b8282106105da575060209150820101826101b5565b60018160209254838588010152019101906105c5565b91607f169161054f565b602060409281835280519182918282860152018484015e5f828201840152601f01601f1916010190565b600435906001600160a01b03821682036100d357565b602435906001600160a01b03821682036100d357565b6001600160a01b03169081156106e7576001600160a01b031691821561037a57815f525f60205260405f20548181106106ce57817fddf252ad1be2c89b69c2b068fc378daa952ba7f163c4a11628f55a4df523b3ef92602092855f525f84520360405f2055845f525f825260405f20818154019055604051908152a3565b8263391434e360e21b5f5260045260245260445260645ffd5b634b637e8f60e11b5f525f60045260245ffdfea26469706673582212205c39712fbe8b8553b0861089959a3df72b5d186974f2b84d34b8ca4462e4c82964736f6c634300081c003300000000000000000000000000000000000000000000000000000000000000c0000000000000000000000000000000000000000000000000000000000000010000000000000000000000000000000000000000000000d3c21bcecceda10000000000000000000000000000000000000000000000000000000000000000000012000000000000000000000000000000000000000000000dd3eb8b39c5afd000000000000000000000000000003b4f0135465d444a5bd06ab90fc59b73916c85f50000000000000000000000000000000000000000000000000000000000000007426974636f696e0000000000000000000000000000000000000000000000000000000000000000000000000000000000000000000000000000000000000000034254430000000000000000000000000000000000000000000000000000000000"
        }
      ],
      "isFixedGasLimit": false
    },
    {
      "hash": "0xfd591e3e0a6b1bd95024249f39cab472f710dafaa7ec2b2a389bad307bfaf020",
      "transactionType": "CALL",
      "contractName": "MockToken",
      "contractAddress": "0x3e2da21a9cc78c7401caf4faa85de092ed726833",
      "function": "approve(address,uint256)",
      "arguments": [
        "0x5AB3A2CB16B21DCFaf91CDb83EC96698FaBe6A99",
        "15313935681470137825"
      ],
      "transaction": {
        "from": "0x3b4f0135465d444a5bd06ab90fc59b73916c85f5",
        "to": "0x3e2da21a9cc78c7401caf4faa85de092ed726833",
        "gas": "0xf816",
        "value": "0x0",
        "input": "0x095ea7b30000000000000000000000005ab3a2cb16b21dcfaf91cdb83ec96698fabe6a99000000000000000000000000000000000000000000000000d486075d973505e1",
        "nonce": "0xe4",
        "chainId": "0xdede"
      },
      "additionalContracts": [],
      "isFixedGasLimit": false
    },
    {
      "hash": "0xf8ce96a73cf46a204114d45c7943a2b9bf07af1ed662063f2be521468400cc25",
      "transactionType": "CALL",
      "contractName": "Core",
      "contractAddress": "0x5ab3a2cb16b21dcfaf91cdb83ec96698fabe6a99",
      "function": "addLiquidity(address,uint256)",
      "arguments": [
        "0x3e2DA21A9Cc78C7401cAF4FaA85de092ED726833",
        "15313935681470137825"
      ],
      "transaction": {
        "from": "0x3b4f0135465d444a5bd06ab90fc59b73916c85f5",
        "to": "0x5ab3a2cb16b21dcfaf91cdb83ec96698fabe6a99",
        "gas": "0x1c44b",
        "value": "0x0",
        "input": "0x566887000000000000000000000000003e2da21a9cc78c7401caf4faa85de092ed726833000000000000000000000000000000000000000000000000d486075d973505e1",
        "nonce": "0xe5",
        "chainId": "0xdede"
      },
      "additionalContracts": [],
      "isFixedGasLimit": false
    },
    {
      "hash": "0x77421c236353e2c2b20999421918567af1f08f54d37e07324272a6d90e394e7f",
      "transactionType": "CALL",
      "contractName": "TokenFactory",
      "contractAddress": "0xf17a1ea23f0a943c2016b5f2b8f656ada273a23c",
      "function": "createToken(string,string,uint256,uint8,uint256)",
      "arguments": [
        "Wrapped Ether",
        "WETH",
        "1000000000000000000000000",
        "18",
        "2719000000000000000000"
      ],
      "transaction": {
        "from": "0x3b4f0135465d444a5bd06ab90fc59b73916c85f5",
        "to": "0xf17a1ea23f0a943c2016b5f2b8f656ada273a23c",
        "gas": "0xd1f01",
        "value": "0x0",
        "input": "0xedd8112300000000000000000000000000000000000000000000000000000000000000a000000000000000000000000000000000000000000000000000000000000000e000000000000000000000000000000000000000000000d3c21bcecceda1000000000000000000000000000000000000000000000000000000000000000000001200000000000000000000000000000000000000000000009365b47e1edf1c0000000000000000000000000000000000000000000000000000000000000000000d577261707065642045746865720000000000000000000000000000000000000000000000000000000000000000000000000000000000000000000000000000045745544800000000000000000000000000000000000000000000000000000000",
        "nonce": "0xe6",
        "chainId": "0xdede"
      },
      "additionalContracts": [
        {
          "transactionType": "CREATE",
          "address": "0x092eda418b2f2feeb86746206a8da9c7a4c4fa95",
          "initCode": "0x60806040523461041f57610bca8038038061001981610423565b92833981019060c08183031261041f5780516001600160401b03811161041f5782610045918301610448565b602082015190926001600160401b03821161041f57610065918301610448565b60408201519160608101519160ff831680930361041f57608082015160a0909201516001600160a01b038116959086900361041f578051906001600160401b0382116103225760035490600182811c92168015610415575b60208310146103045781601f8493116103a7575b50602090601f8311600114610341575f92610336575b50508160011b915f199060031b1c1916176003555b8051906001600160401b0382116103225760045490600182811c92168015610318575b60208310146103045781601f849311610296575b50602090601f8311600114610230575f92610225575b50508160011b915f199060031b1c1916176004555b6005805460ff191683179055600780546001600160a01b03191685179055600655604d81116101fe57600a0a908181029181830414901517156101fe57811561021257600254908082018092116101fe5760207fddf252ad1be2c89b69c2b068fc378daa952ba7f163c4a11628f55a4df523b3ef915f9360025584845283825260408420818154019055604051908152a3604051610730908161049a8239f35b634e487b7160e01b5f52601160045260245ffd5b63ec442f0560e01b5f525f60045260245ffd5b015190505f80610149565b60045f9081528281209350601f198516905b81811061027e5750908460019594939210610266575b505050811b0160045561015e565b01515f1960f88460031b161c191690555f8080610258565b92936020600181928786015181550195019301610242565b60045f529091507f8a35acfbc15ff81a39ae7d344fd709f28e8600b4aa8c65c6b64bfe7fe36bd19b601f840160051c810191602085106102fa575b90601f859493920160051c01905b8181106102ec5750610133565b5f81558493506001016102df565b90915081906102d1565b634e487b7160e01b5f52602260045260245ffd5b91607f169161011f565b634e487b7160e01b5f52604160045260245ffd5b015190505f806100e7565b60035f9081528281209350601f198516905b81811061038f5750908460019594939210610377575b505050811b016003556100fc565b01515f1960f88460031b161c191690555f8080610369565b92936020600181928786015181550195019301610353565b60035f529091507fc2575a0e9e593c00f959f8c92f12db2869c3395a3b0502d05e2516446f71f85b601f840160051c8101916020851061040b575b90601f859493920160051c01905b8181106103fd57506100d1565b5f81558493506001016103f0565b90915081906103e2565b91607f16916100bd565b5f80fd5b6040519190601f01601f191682016001600160401b0381118382101761032257604052565b81601f8201121561041f578051906001600160401b03821161032257610477601f8301601f1916602001610423565b928284526020838301011161041f57815f9260208093018386015e830101529056fe6080806040526004361015610012575f80fd5b5f3560e01c90816306fdde031461052b57508063095ea7b3146104a957806318160ddd1461048c57806323b872dd146103ad578063313ce5671461038d57806340c10f19146102eb57806370a08231146102b45780638da5cb5b1461028c57806395d89b4114610171578063a035b1fe146100b6578063a9059cbb14610140578063d03a404514610127578063dd62ed3e146100d75763e1aa6036146100b6575f80fd5b346100d3575f3660031901126100d3576020600654604051908152f35b5f80fd5b346100d35760403660031901126100d3576100f0610624565b6100f861063a565b6001600160a01b039182165f908152600160209081526040808320949093168252928352819020549051908152f35b346100d35760203660031901126100d357600435600655005b346100d35760403660031901126100d35761016661015c610624565b6024359033610650565b602060405160018152f35b346100d3575f3660031901126100d3576040515f6004548060011c90600181168015610282575b60208310811461026e5782855290811561025257506001146101fd575b50819003601f01601f191681019067ffffffffffffffff8211818310176101e9576101e5829182604052826105fa565b0390f35b634e487b7160e01b5f52604160045260245ffd5b905060045f527f8a35acfbc15ff81a39ae7d344fd709f28e8600b4aa8c65c6b64bfe7fe36bd19b5f905b82821061023c575060209150820101826101b5565b6001816020925483858801015201910190610227565b90506020925060ff191682840152151560051b820101826101b5565b634e487b7160e01b5f52602260045260245ffd5b91607f1691610198565b346100d3575f3660031901126100d3576007546040516001600160a01b039091168152602090f35b346100d35760203660031901126100d3576001600160a01b036102d5610624565b165f525f602052602060405f2054604051908152f35b346100d35760403660031901126100d357610304610624565b6001600160a01b0316602435811561037a57600254908082018092116103665760207fddf252ad1be2c89b69c2b068fc378daa952ba7f163c4a11628f55a4df523b3ef915f9360025584845283825260408420818154019055604051908152a3005b634e487b7160e01b5f52601160045260245ffd5b63ec442f0560e01b5f525f60045260245ffd5b346100d3575f3660031901126100d357602060ff60055416604051908152f35b346100d35760603660031901126100d3576103c6610624565b6103ce61063a565b6001600160a01b0382165f818152600160209081526040808320338452909152902054909260443592915f19811061040c575b506101669350610650565b83811061047157841561045e57331561044b57610166945f52600160205260405f2060018060a01b0333165f526020528360405f209103905584610401565b634a1406b160e11b5f525f60045260245ffd5b63e602df0560e01b5f525f60045260245ffd5b8390637dc7a0d960e11b5f523360045260245260445260645ffd5b346100d3575f3660031901126100d3576020600254604051908152f35b346100d35760403660031901126100d3576104c2610624565b60243590331561045e576001600160a01b031690811561044b57335f52600160205260405f20825f526020528060405f20556040519081527f8c5be1e5ebec7d5bd14f71427d1e84f3dd0314c0f7b2291e5b200ac8c7c3b92560203392a3602060405160018152f35b346100d3575f3660031901126100d3575f6003548060011c906001811680156105f0575b60208310811461026e57828552908115610252575060011461059b5750819003601f01601f191681019067ffffffffffffffff8211818310176101e9576101e5829182604052826105fa565b905060035f527fc2575a0e9e593c00f959f8c92f12db2869c3395a3b0502d05e2516446f71f85b5f905b8282106105da575060209150820101826101b5565b60018160209254838588010152019101906105c5565b91607f169161054f565b602060409281835280519182918282860152018484015e5f828201840152601f01601f1916010190565b600435906001600160a01b03821682036100d357565b602435906001600160a01b03821682036100d357565b6001600160a01b03169081156106e7576001600160a01b031691821561037a57815f525f60205260405f20548181106106ce57817fddf252ad1be2c89b69c2b068fc378daa952ba7f163c4a11628f55a4df523b3ef92602092855f525f84520360405f2055845f525f825260405f20818154019055604051908152a3565b8263391434e360e21b5f5260045260245260445260645ffd5b634b637e8f60e11b5f525f60045260245ffdfea26469706673582212205c39712fbe8b8553b0861089959a3df72b5d186974f2b84d34b8ca4462e4c82964736f6c634300081c003300000000000000000000000000000000000000000000000000000000000000c0000000000000000000000000000000000000000000000000000000000000010000000000000000000000000000000000000000000000d3c21bcecceda1000000000000000000000000000000000000000000000000000000000000000000001200000000000000000000000000000000000000000000009365b47e1edf1c00000000000000000000000000003b4f0135465d444a5bd06ab90fc59b73916c85f5000000000000000000000000000000000000000000000000000000000000000d577261707065642045746865720000000000000000000000000000000000000000000000000000000000000000000000000000000000000000000000000000045745544800000000000000000000000000000000000000000000000000000000"
        }
      ],
      "isFixedGasLimit": false
    },
    {
      "hash": "0xfd04036d4933d9267d2a02cd3d05165501ad5697200a4fa7872fa5e28ce7acf3",
      "transactionType": "CALL",
      "contractName": "MockToken",
      "contractAddress": "0x092eda418b2f2feeb86746206a8da9c7a4c4fa95",
      "function": "approve(address,uint256)",
      "arguments": [
        "0x5AB3A2CB16B21DCFaf91CDb83EC96698FaBe6A99",
        "367782272894446487679"
      ],
      "transaction": {
        "from": "0x3b4f0135465d444a5bd06ab90fc59b73916c85f5",
        "to": "0x092eda418b2f2feeb86746206a8da9c7a4c4fa95",
        "gas": "0x106c0",
        "value": "0x0",
        "input": "0x095ea7b30000000000000000000000005ab3a2cb16b21dcfaf91cdb83ec96698fabe6a99000000000000000000000000000000000000000000000013f0011c9a7f42487f",
        "nonce": "0xe7",
        "chainId": "0xdede"
      },
      "additionalContracts": [],
      "isFixedGasLimit": false
    },
    {
      "hash": "0x54f72c826cb6ba3e2ae53d323d432128c8f5d3d1a2f265474b67f0816faa511c",
      "transactionType": "CALL",
      "contractName": "Core",
      "contractAddress": "0x5ab3a2cb16b21dcfaf91cdb83ec96698fabe6a99",
      "function": "addLiquidity(address,uint256)",
      "arguments": [
        "0x092eDa418B2f2fEeb86746206a8dA9c7a4c4Fa95",
        "367782272894446487679"
      ],
      "transaction": {
        "from": "0x3b4f0135465d444a5bd06ab90fc59b73916c85f5",
        "to": "0x5ab3a2cb16b21dcfaf91cdb83ec96698fabe6a99",
        "gas": "0x1ab3a",
        "value": "0x0",
        "input": "0x56688700000000000000000000000000092eda418b2f2feeb86746206a8da9c7a4c4fa95000000000000000000000000000000000000000000000013f0011c9a7f42487f",
        "nonce": "0xe8",
        "chainId": "0xdede"
      },
      "additionalContracts": [],
      "isFixedGasLimit": false
    },
    {
      "hash": "0x006c73c544f548621a95aba6b61349880cd92a264ecbc0de740f196a09c771fb",
      "transactionType": "CALL",
      "contractName": "TokenFactory",
      "contractAddress": "0xf17a1ea23f0a943c2016b5f2b8f656ada273a23c",
      "function": "createToken(string,string,uint256,uint8,uint256)",
      "arguments": [
        "PEPE",
        "PEPE",
        "1000000000000000000000000",
        "18",
        "110000000000000000"
      ],
      "transaction": {
        "from": "0x3b4f0135465d444a5bd06ab90fc59b73916c85f5",
        "to": "0xf17a1ea23f0a943c2016b5f2b8f656ada273a23c",
        "gas": "0xd1e52",
        "value": "0x0",
        "input": "0xedd8112300000000000000000000000000000000000000000000000000000000000000a000000000000000000000000000000000000000000000000000000000000000e000000000000000000000000000000000000000000000d3c21bcecceda100000000000000000000000000000000000000000000000000000000000000000000120000000000000000000000000000000000000000000000000186cc6acd4b00000000000000000000000000000000000000000000000000000000000000000004504550450000000000000000000000000000000000000000000000000000000000000000000000000000000000000000000000000000000000000000000000045045504500000000000000000000000000000000000000000000000000000000",
        "nonce": "0xe9",
        "chainId": "0xdede"
      },
      "additionalContracts": [
        {
          "transactionType": "CREATE",
          "address": "0xe66022a565e01a4db313056e9f0d061a76020675",
          "initCode": "0x60806040523461041f57610bca8038038061001981610423565b92833981019060c08183031261041f5780516001600160401b03811161041f5782610045918301610448565b602082015190926001600160401b03821161041f57610065918301610448565b60408201519160608101519160ff831680930361041f57608082015160a0909201516001600160a01b038116959086900361041f578051906001600160401b0382116103225760035490600182811c92168015610415575b60208310146103045781601f8493116103a7575b50602090601f8311600114610341575f92610336575b50508160011b915f199060031b1c1916176003555b8051906001600160401b0382116103225760045490600182811c92168015610318575b60208310146103045781601f849311610296575b50602090601f8311600114610230575f92610225575b50508160011b915f199060031b1c1916176004555b6005805460ff191683179055600780546001600160a01b03191685179055600655604d81116101fe57600a0a908181029181830414901517156101fe57811561021257600254908082018092116101fe5760207fddf252ad1be2c89b69c2b068fc378daa952ba7f163c4a11628f55a4df523b3ef915f9360025584845283825260408420818154019055604051908152a3604051610730908161049a8239f35b634e487b7160e01b5f52601160045260245ffd5b63ec442f0560e01b5f525f60045260245ffd5b015190505f80610149565b60045f9081528281209350601f198516905b81811061027e5750908460019594939210610266575b505050811b0160045561015e565b01515f1960f88460031b161c191690555f8080610258565b92936020600181928786015181550195019301610242565b60045f529091507f8a35acfbc15ff81a39ae7d344fd709f28e8600b4aa8c65c6b64bfe7fe36bd19b601f840160051c810191602085106102fa575b90601f859493920160051c01905b8181106102ec5750610133565b5f81558493506001016102df565b90915081906102d1565b634e487b7160e01b5f52602260045260245ffd5b91607f169161011f565b634e487b7160e01b5f52604160045260245ffd5b015190505f806100e7565b60035f9081528281209350601f198516905b81811061038f5750908460019594939210610377575b505050811b016003556100fc565b01515f1960f88460031b161c191690555f8080610369565b92936020600181928786015181550195019301610353565b60035f529091507fc2575a0e9e593c00f959f8c92f12db2869c3395a3b0502d05e2516446f71f85b601f840160051c8101916020851061040b575b90601f859493920160051c01905b8181106103fd57506100d1565b5f81558493506001016103f0565b90915081906103e2565b91607f16916100bd565b5f80fd5b6040519190601f01601f191682016001600160401b0381118382101761032257604052565b81601f8201121561041f578051906001600160401b03821161032257610477601f8301601f1916602001610423565b928284526020838301011161041f57815f9260208093018386015e830101529056fe6080806040526004361015610012575f80fd5b5f3560e01c90816306fdde031461052b57508063095ea7b3146104a957806318160ddd1461048c57806323b872dd146103ad578063313ce5671461038d57806340c10f19146102eb57806370a08231146102b45780638da5cb5b1461028c57806395d89b4114610171578063a035b1fe146100b6578063a9059cbb14610140578063d03a404514610127578063dd62ed3e146100d75763e1aa6036146100b6575f80fd5b346100d3575f3660031901126100d3576020600654604051908152f35b5f80fd5b346100d35760403660031901126100d3576100f0610624565b6100f861063a565b6001600160a01b039182165f908152600160209081526040808320949093168252928352819020549051908152f35b346100d35760203660031901126100d357600435600655005b346100d35760403660031901126100d35761016661015c610624565b6024359033610650565b602060405160018152f35b346100d3575f3660031901126100d3576040515f6004548060011c90600181168015610282575b60208310811461026e5782855290811561025257506001146101fd575b50819003601f01601f191681019067ffffffffffffffff8211818310176101e9576101e5829182604052826105fa565b0390f35b634e487b7160e01b5f52604160045260245ffd5b905060045f527f8a35acfbc15ff81a39ae7d344fd709f28e8600b4aa8c65c6b64bfe7fe36bd19b5f905b82821061023c575060209150820101826101b5565b6001816020925483858801015201910190610227565b90506020925060ff191682840152151560051b820101826101b5565b634e487b7160e01b5f52602260045260245ffd5b91607f1691610198565b346100d3575f3660031901126100d3576007546040516001600160a01b039091168152602090f35b346100d35760203660031901126100d3576001600160a01b036102d5610624565b165f525f602052602060405f2054604051908152f35b346100d35760403660031901126100d357610304610624565b6001600160a01b0316602435811561037a57600254908082018092116103665760207fddf252ad1be2c89b69c2b068fc378daa952ba7f163c4a11628f55a4df523b3ef915f9360025584845283825260408420818154019055604051908152a3005b634e487b7160e01b5f52601160045260245ffd5b63ec442f0560e01b5f525f60045260245ffd5b346100d3575f3660031901126100d357602060ff60055416604051908152f35b346100d35760603660031901126100d3576103c6610624565b6103ce61063a565b6001600160a01b0382165f818152600160209081526040808320338452909152902054909260443592915f19811061040c575b506101669350610650565b83811061047157841561045e57331561044b57610166945f52600160205260405f2060018060a01b0333165f526020528360405f209103905584610401565b634a1406b160e11b5f525f60045260245ffd5b63e602df0560e01b5f525f60045260245ffd5b8390637dc7a0d960e11b5f523360045260245260445260645ffd5b346100d3575f3660031901126100d3576020600254604051908152f35b346100d35760403660031901126100d3576104c2610624565b60243590331561045e576001600160a01b031690811561044b57335f52600160205260405f20825f526020528060405f20556040519081527f8c5be1e5ebec7d5bd14f71427d1e84f3dd0314c0f7b2291e5b200ac8c7c3b92560203392a3602060405160018152f35b346100d3575f3660031901126100d3575f6003548060011c906001811680156105f0575b60208310811461026e57828552908115610252575060011461059b5750819003601f01601f191681019067ffffffffffffffff8211818310176101e9576101e5829182604052826105fa565b905060035f527fc2575a0e9e593c00f959f8c92f12db2869c3395a3b0502d05e2516446f71f85b5f905b8282106105da575060209150820101826101b5565b60018160209254838588010152019101906105c5565b91607f169161054f565b602060409281835280519182918282860152018484015e5f828201840152601f01601f1916010190565b600435906001600160a01b03821682036100d357565b602435906001600160a01b03821682036100d357565b6001600160a01b03169081156106e7576001600160a01b031691821561037a57815f525f60205260405f20548181106106ce57817fddf252ad1be2c89b69c2b068fc378daa952ba7f163c4a11628f55a4df523b3ef92602092855f525f84520360405f2055845f525f825260405f20818154019055604051908152a3565b8263391434e360e21b5f5260045260245260445260645ffd5b634b637e8f60e11b5f525f60045260245ffdfea26469706673582212205c39712fbe8b8553b0861089959a3df72b5d186974f2b84d34b8ca4462e4c82964736f6c634300081c003300000000000000000000000000000000000000000000000000000000000000c0000000000000000000000000000000000000000000000000000000000000010000000000000000000000000000000000000000000000d3c21bcecceda100000000000000000000000000000000000000000000000000000000000000000000120000000000000000000000000000000000000000000000000186cc6acd4b00000000000000000000000000003b4f0135465d444a5bd06ab90fc59b73916c85f50000000000000000000000000000000000000000000000000000000000000004504550450000000000000000000000000000000000000000000000000000000000000000000000000000000000000000000000000000000000000000000000045045504500000000000000000000000000000000000000000000000000000000"
        }
      ],
      "isFixedGasLimit": false
    },
    {
      "hash": "0xcff3ea32ed5be11c0c87fb1eb57789048612450898d626185778b729974503ba",
      "transactionType": "CALL",
      "contractName": "MockToken",
      "contractAddress": "0xe66022a565e01a4db313056e9f0d061a76020675",
      "function": "approve(address,uint256)",
      "arguments": [
        "0x5AB3A2CB16B21DCFaf91CDb83EC96698FaBe6A99",
        "9090909090909090909090909"
      ],
      "transaction": {
        "from": "0x3b4f0135465d444a5bd06ab90fc59b73916c85f5",
        "to": "0xe66022a565e01a4db313056e9f0d061a76020675",
        "gas": "0x106e3",
        "value": "0x0",
        "input": "0x095ea7b30000000000000000000000005ab3a2cb16b21dcfaf91cdb83ec96698fabe6a990000000000000000000000000000000000000000000785132b58012a71d1745d",
        "nonce": "0xea",
        "chainId": "0xdede"
      },
      "additionalContracts": [],
      "isFixedGasLimit": false
    },
    {
      "hash": "0x2cdbe48e2da272e434eb602aae54438494f68dadb8544868d4fbc649cba372bf",
      "transactionType": "CALL",
      "contractName": "Core",
      "contractAddress": "0x5ab3a2cb16b21dcfaf91cdb83ec96698fabe6a99",
      "function": "addLiquidity(address,uint256)",
      "arguments": [
        "0xe66022A565E01A4Db313056e9f0D061A76020675",
        "9090909090909090909090909"
      ],
      "transaction": {
        "from": "0x3b4f0135465d444a5bd06ab90fc59b73916c85f5",
        "to": "0x5ab3a2cb16b21dcfaf91cdb83ec96698fabe6a99",
        "gas": "0x1ab5c",
        "value": "0x0",
        "input": "0x56688700000000000000000000000000e66022a565e01a4db313056e9f0d061a760206750000000000000000000000000000000000000000000785132b58012a71d1745d",
        "nonce": "0xeb",
        "chainId": "0xdede"
      },
      "additionalContracts": [],
      "isFixedGasLimit": false
    },
    {
      "hash": "0x7cc3f63ed9a9676ad958f4eba323bac83830c875f9bc8358b3d6b99a3f4604e2",
      "transactionType": "CALL",
      "contractName": "TokenFactory",
      "contractAddress": "0xf17a1ea23f0a943c2016b5f2b8f656ada273a23c",
      "function": "createToken(string,string,uint256,uint8,uint256)",
      "arguments": [
        "OFFICIAL TRUMP",
        "TRUMP",
        "1000000000000000000000000",
        "18",
        "1592000000000000000000"
      ],
      "transaction": {
        "from": "0x3b4f0135465d444a5bd06ab90fc59b73916c85f5",
        "to": "0xf17a1ea23f0a943c2016b5f2b8f656ada273a23c",
        "gas": "0xd1f24",
        "value": "0x0",
        "input": "0xedd8112300000000000000000000000000000000000000000000000000000000000000a000000000000000000000000000000000000000000000000000000000000000e000000000000000000000000000000000000000000000d3c21bcecceda100000000000000000000000000000000000000000000000000000000000000000000120000000000000000000000000000000000000000000000564d702d38f5e00000000000000000000000000000000000000000000000000000000000000000000e4f4646494349414c205452554d5000000000000000000000000000000000000000000000000000000000000000000000000000000000000000000000000000055452554d50000000000000000000000000000000000000000000000000000000",
        "nonce": "0xec",
        "chainId": "0xdede"
      },
      "additionalContracts": [
        {
          "transactionType": "CREATE",
          "address": "0xb589fad21abb69b2c7a6add0909038658e086cb9",
          "initCode": "0x60806040523461041f57610bca8038038061001981610423565b92833981019060c08183031261041f5780516001600160401b03811161041f5782610045918301610448565b602082015190926001600160401b03821161041f57610065918301610448565b60408201519160608101519160ff831680930361041f57608082015160a0909201516001600160a01b038116959086900361041f578051906001600160401b0382116103225760035490600182811c92168015610415575b60208310146103045781601f8493116103a7575b50602090601f8311600114610341575f92610336575b50508160011b915f199060031b1c1916176003555b8051906001600160401b0382116103225760045490600182811c92168015610318575b60208310146103045781601f849311610296575b50602090601f8311600114610230575f92610225575b50508160011b915f199060031b1c1916176004555b6005805460ff191683179055600780546001600160a01b03191685179055600655604d81116101fe57600a0a908181029181830414901517156101fe57811561021257600254908082018092116101fe5760207fddf252ad1be2c89b69c2b068fc378daa952ba7f163c4a11628f55a4df523b3ef915f9360025584845283825260408420818154019055604051908152a3604051610730908161049a8239f35b634e487b7160e01b5f52601160045260245ffd5b63ec442f0560e01b5f525f60045260245ffd5b015190505f80610149565b60045f9081528281209350601f198516905b81811061027e5750908460019594939210610266575b505050811b0160045561015e565b01515f1960f88460031b161c191690555f8080610258565b92936020600181928786015181550195019301610242565b60045f529091507f8a35acfbc15ff81a39ae7d344fd709f28e8600b4aa8c65c6b64bfe7fe36bd19b601f840160051c810191602085106102fa575b90601f859493920160051c01905b8181106102ec5750610133565b5f81558493506001016102df565b90915081906102d1565b634e487b7160e01b5f52602260045260245ffd5b91607f169161011f565b634e487b7160e01b5f52604160045260245ffd5b015190505f806100e7565b60035f9081528281209350601f198516905b81811061038f5750908460019594939210610377575b505050811b016003556100fc565b01515f1960f88460031b161c191690555f8080610369565b92936020600181928786015181550195019301610353565b60035f529091507fc2575a0e9e593c00f959f8c92f12db2869c3395a3b0502d05e2516446f71f85b601f840160051c8101916020851061040b575b90601f859493920160051c01905b8181106103fd57506100d1565b5f81558493506001016103f0565b90915081906103e2565b91607f16916100bd565b5f80fd5b6040519190601f01601f191682016001600160401b0381118382101761032257604052565b81601f8201121561041f578051906001600160401b03821161032257610477601f8301601f1916602001610423565b928284526020838301011161041f57815f9260208093018386015e830101529056fe6080806040526004361015610012575f80fd5b5f3560e01c90816306fdde031461052b57508063095ea7b3146104a957806318160ddd1461048c57806323b872dd146103ad578063313ce5671461038d57806340c10f19146102eb57806370a08231146102b45780638da5cb5b1461028c57806395d89b4114610171578063a035b1fe146100b6578063a9059cbb14610140578063d03a404514610127578063dd62ed3e146100d75763e1aa6036146100b6575f80fd5b346100d3575f3660031901126100d3576020600654604051908152f35b5f80fd5b346100d35760403660031901126100d3576100f0610624565b6100f861063a565b6001600160a01b039182165f908152600160209081526040808320949093168252928352819020549051908152f35b346100d35760203660031901126100d357600435600655005b346100d35760403660031901126100d35761016661015c610624565b6024359033610650565b602060405160018152f35b346100d3575f3660031901126100d3576040515f6004548060011c90600181168015610282575b60208310811461026e5782855290811561025257506001146101fd575b50819003601f01601f191681019067ffffffffffffffff8211818310176101e9576101e5829182604052826105fa565b0390f35b634e487b7160e01b5f52604160045260245ffd5b905060045f527f8a35acfbc15ff81a39ae7d344fd709f28e8600b4aa8c65c6b64bfe7fe36bd19b5f905b82821061023c575060209150820101826101b5565b6001816020925483858801015201910190610227565b90506020925060ff191682840152151560051b820101826101b5565b634e487b7160e01b5f52602260045260245ffd5b91607f1691610198565b346100d3575f3660031901126100d3576007546040516001600160a01b039091168152602090f35b346100d35760203660031901126100d3576001600160a01b036102d5610624565b165f525f602052602060405f2054604051908152f35b346100d35760403660031901126100d357610304610624565b6001600160a01b0316602435811561037a57600254908082018092116103665760207fddf252ad1be2c89b69c2b068fc378daa952ba7f163c4a11628f55a4df523b3ef915f9360025584845283825260408420818154019055604051908152a3005b634e487b7160e01b5f52601160045260245ffd5b63ec442f0560e01b5f525f60045260245ffd5b346100d3575f3660031901126100d357602060ff60055416604051908152f35b346100d35760603660031901126100d3576103c6610624565b6103ce61063a565b6001600160a01b0382165f818152600160209081526040808320338452909152902054909260443592915f19811061040c575b506101669350610650565b83811061047157841561045e57331561044b57610166945f52600160205260405f2060018060a01b0333165f526020528360405f209103905584610401565b634a1406b160e11b5f525f60045260245ffd5b63e602df0560e01b5f525f60045260245ffd5b8390637dc7a0d960e11b5f523360045260245260445260645ffd5b346100d3575f3660031901126100d3576020600254604051908152f35b346100d35760403660031901126100d3576104c2610624565b60243590331561045e576001600160a01b031690811561044b57335f52600160205260405f20825f526020528060405f20556040519081527f8c5be1e5ebec7d5bd14f71427d1e84f3dd0314c0f7b2291e5b200ac8c7c3b92560203392a3602060405160018152f35b346100d3575f3660031901126100d3575f6003548060011c906001811680156105f0575b60208310811461026e57828552908115610252575060011461059b5750819003601f01601f191681019067ffffffffffffffff8211818310176101e9576101e5829182604052826105fa565b905060035f527fc2575a0e9e593c00f959f8c92f12db2869c3395a3b0502d05e2516446f71f85b5f905b8282106105da575060209150820101826101b5565b60018160209254838588010152019101906105c5565b91607f169161054f565b602060409281835280519182918282860152018484015e5f828201840152601f01601f1916010190565b600435906001600160a01b03821682036100d357565b602435906001600160a01b03821682036100d357565b6001600160a01b03169081156106e7576001600160a01b031691821561037a57815f525f60205260405f20548181106106ce57817fddf252ad1be2c89b69c2b068fc378daa952ba7f163c4a11628f55a4df523b3ef92602092855f525f84520360405f2055845f525f825260405f20818154019055604051908152a3565b8263391434e360e21b5f5260045260245260445260645ffd5b634b637e8f60e11b5f525f60045260245ffdfea26469706673582212205c39712fbe8b8553b0861089959a3df72b5d186974f2b84d34b8ca4462e4c82964736f6c634300081c003300000000000000000000000000000000000000000000000000000000000000c0000000000000000000000000000000000000000000000000000000000000010000000000000000000000000000000000000000000000d3c21bcecceda100000000000000000000000000000000000000000000000000000000000000000000120000000000000000000000000000000000000000000000564d702d38f5e000000000000000000000000000003b4f0135465d444a5bd06ab90fc59b73916c85f5000000000000000000000000000000000000000000000000000000000000000e4f4646494349414c205452554d5000000000000000000000000000000000000000000000000000000000000000000000000000000000000000000000000000055452554d50000000000000000000000000000000000000000000000000000000"
        }
      ],
      "isFixedGasLimit": false
    },
    {
      "hash": "0x6daf07a36d8159c598c081a1595a9d8666a63e3ecb0a25829057fb179748f12f",
      "transactionType": "CALL",
      "contractName": "MockToken",
      "contractAddress": "0xb589fad21abb69b2c7a6add0909038658e086cb9",
      "function": "approve(address,uint256)",
      "arguments": [
        "0x5AB3A2CB16B21DCFaf91CDb83EC96698FaBe6A99",
        "628140703517587939698"
      ],
      "transaction": {
        "from": "0x3b4f0135465d444a5bd06ab90fc59b73916c85f5",
        "to": "0xb589fad21abb69b2c7a6add0909038658e086cb9",
        "gas": "0x106c0",
        "value": "0x0",
        "input": "0x095ea7b30000000000000000000000005ab3a2cb16b21dcfaf91cdb83ec96698fabe6a990000000000000000000000000000000000000000000000220d3411d131ca2172",
        "nonce": "0xed",
        "chainId": "0xdede"
      },
      "additionalContracts": [],
      "isFixedGasLimit": false
    },
    {
      "hash": "0x4f44bd68dc7017472ccea7f3b46b7438b2be8598a350ba410789ec458a9d99f0",
      "transactionType": "CALL",
      "contractName": "Core",
      "contractAddress": "0x5ab3a2cb16b21dcfaf91cdb83ec96698fabe6a99",
      "function": "addLiquidity(address,uint256)",
      "arguments": [
        "0xb589fad21Abb69b2c7A6ADD0909038658e086cB9",
        "628140703517587939698"
      ],
      "transaction": {
        "from": "0x3b4f0135465d444a5bd06ab90fc59b73916c85f5",
        "to": "0x5ab3a2cb16b21dcfaf91cdb83ec96698fabe6a99",
        "gas": "0x1ab3a",
        "value": "0x0",
        "input": "0x56688700000000000000000000000000b589fad21abb69b2c7a6add0909038658e086cb90000000000000000000000000000000000000000000000220d3411d131ca2172",
        "nonce": "0xee",
        "chainId": "0xdede"
      },
      "additionalContracts": [],
      "isFixedGasLimit": false
    },
    {
      "hash": "0x6958de5a5173588e4481ac3b07642828296bfa19f4a351fa64608044ed5337ea",
      "transactionType": "CALL",
      "contractName": "TokenFactory",
      "contractAddress": "0xf17a1ea23f0a943c2016b5f2b8f656ada273a23c",
      "function": "createToken(string,string,uint256,uint8,uint256)",
      "arguments": [
        "DOGE AI",
        "DOGEAI",
        "1000000000000000000000000",
        "18",
        "62000000000000000"
      ],
      "transaction": {
        "from": "0x3b4f0135465d444a5bd06ab90fc59b73916c85f5",
        "to": "0xf17a1ea23f0a943c2016b5f2b8f656ada273a23c",
        "gas": "0xd1e98",
        "value": "0x0",
        "input": "0xedd8112300000000000000000000000000000000000000000000000000000000000000a000000000000000000000000000000000000000000000000000000000000000e000000000000000000000000000000000000000000000d3c21bcecceda1000000000000000000000000000000000000000000000000000000000000000000001200000000000000000000000000000000000000000000000000dc44abe81300000000000000000000000000000000000000000000000000000000000000000007444f4745204149000000000000000000000000000000000000000000000000000000000000000000000000000000000000000000000000000000000000000006444f474541490000000000000000000000000000000000000000000000000000",
        "nonce": "0xef",
        "chainId": "0xdede"
      },
      "additionalContracts": [
        {
          "transactionType": "CREATE",
          "address": "0x50ec6cc6acf8784093e624c8949937c406f9f808",
          "initCode": "0x60806040523461041f57610bca8038038061001981610423565b92833981019060c08183031261041f5780516001600160401b03811161041f5782610045918301610448565b602082015190926001600160401b03821161041f57610065918301610448565b60408201519160608101519160ff831680930361041f57608082015160a0909201516001600160a01b038116959086900361041f578051906001600160401b0382116103225760035490600182811c92168015610415575b60208310146103045781601f8493116103a7575b50602090601f8311600114610341575f92610336575b50508160011b915f199060031b1c1916176003555b8051906001600160401b0382116103225760045490600182811c92168015610318575b60208310146103045781601f849311610296575b50602090601f8311600114610230575f92610225575b50508160011b915f199060031b1c1916176004555b6005805460ff191683179055600780546001600160a01b03191685179055600655604d81116101fe57600a0a908181029181830414901517156101fe57811561021257600254908082018092116101fe5760207fddf252ad1be2c89b69c2b068fc378daa952ba7f163c4a11628f55a4df523b3ef915f9360025584845283825260408420818154019055604051908152a3604051610730908161049a8239f35b634e487b7160e01b5f52601160045260245ffd5b63ec442f0560e01b5f525f60045260245ffd5b015190505f80610149565b60045f9081528281209350601f198516905b81811061027e5750908460019594939210610266575b505050811b0160045561015e565b01515f1960f88460031b161c191690555f8080610258565b92936020600181928786015181550195019301610242565b60045f529091507f8a35acfbc15ff81a39ae7d344fd709f28e8600b4aa8c65c6b64bfe7fe36bd19b601f840160051c810191602085106102fa575b90601f859493920160051c01905b8181106102ec5750610133565b5f81558493506001016102df565b90915081906102d1565b634e487b7160e01b5f52602260045260245ffd5b91607f169161011f565b634e487b7160e01b5f52604160045260245ffd5b015190505f806100e7565b60035f9081528281209350601f198516905b81811061038f5750908460019594939210610377575b505050811b016003556100fc565b01515f1960f88460031b161c191690555f8080610369565b92936020600181928786015181550195019301610353565b60035f529091507fc2575a0e9e593c00f959f8c92f12db2869c3395a3b0502d05e2516446f71f85b601f840160051c8101916020851061040b575b90601f859493920160051c01905b8181106103fd57506100d1565b5f81558493506001016103f0565b90915081906103e2565b91607f16916100bd565b5f80fd5b6040519190601f01601f191682016001600160401b0381118382101761032257604052565b81601f8201121561041f578051906001600160401b03821161032257610477601f8301601f1916602001610423565b928284526020838301011161041f57815f9260208093018386015e830101529056fe6080806040526004361015610012575f80fd5b5f3560e01c90816306fdde031461052b57508063095ea7b3146104a957806318160ddd1461048c57806323b872dd146103ad578063313ce5671461038d57806340c10f19146102eb57806370a08231146102b45780638da5cb5b1461028c57806395d89b4114610171578063a035b1fe146100b6578063a9059cbb14610140578063d03a404514610127578063dd62ed3e146100d75763e1aa6036146100b6575f80fd5b346100d3575f3660031901126100d3576020600654604051908152f35b5f80fd5b346100d35760403660031901126100d3576100f0610624565b6100f861063a565b6001600160a01b039182165f908152600160209081526040808320949093168252928352819020549051908152f35b346100d35760203660031901126100d357600435600655005b346100d35760403660031901126100d35761016661015c610624565b6024359033610650565b602060405160018152f35b346100d3575f3660031901126100d3576040515f6004548060011c90600181168015610282575b60208310811461026e5782855290811561025257506001146101fd575b50819003601f01601f191681019067ffffffffffffffff8211818310176101e9576101e5829182604052826105fa565b0390f35b634e487b7160e01b5f52604160045260245ffd5b905060045f527f8a35acfbc15ff81a39ae7d344fd709f28e8600b4aa8c65c6b64bfe7fe36bd19b5f905b82821061023c575060209150820101826101b5565b6001816020925483858801015201910190610227565b90506020925060ff191682840152151560051b820101826101b5565b634e487b7160e01b5f52602260045260245ffd5b91607f1691610198565b346100d3575f3660031901126100d3576007546040516001600160a01b039091168152602090f35b346100d35760203660031901126100d3576001600160a01b036102d5610624565b165f525f602052602060405f2054604051908152f35b346100d35760403660031901126100d357610304610624565b6001600160a01b0316602435811561037a57600254908082018092116103665760207fddf252ad1be2c89b69c2b068fc378daa952ba7f163c4a11628f55a4df523b3ef915f9360025584845283825260408420818154019055604051908152a3005b634e487b7160e01b5f52601160045260245ffd5b63ec442f0560e01b5f525f60045260245ffd5b346100d3575f3660031901126100d357602060ff60055416604051908152f35b346100d35760603660031901126100d3576103c6610624565b6103ce61063a565b6001600160a01b0382165f818152600160209081526040808320338452909152902054909260443592915f19811061040c575b506101669350610650565b83811061047157841561045e57331561044b57610166945f52600160205260405f2060018060a01b0333165f526020528360405f209103905584610401565b634a1406b160e11b5f525f60045260245ffd5b63e602df0560e01b5f525f60045260245ffd5b8390637dc7a0d960e11b5f523360045260245260445260645ffd5b346100d3575f3660031901126100d3576020600254604051908152f35b346100d35760403660031901126100d3576104c2610624565b60243590331561045e576001600160a01b031690811561044b57335f52600160205260405f20825f526020528060405f20556040519081527f8c5be1e5ebec7d5bd14f71427d1e84f3dd0314c0f7b2291e5b200ac8c7c3b92560203392a3602060405160018152f35b346100d3575f3660031901126100d3575f6003548060011c906001811680156105f0575b60208310811461026e57828552908115610252575060011461059b5750819003601f01601f191681019067ffffffffffffffff8211818310176101e9576101e5829182604052826105fa565b905060035f527fc2575a0e9e593c00f959f8c92f12db2869c3395a3b0502d05e2516446f71f85b5f905b8282106105da575060209150820101826101b5565b60018160209254838588010152019101906105c5565b91607f169161054f565b602060409281835280519182918282860152018484015e5f828201840152601f01601f1916010190565b600435906001600160a01b03821682036100d357565b602435906001600160a01b03821682036100d357565b6001600160a01b03169081156106e7576001600160a01b031691821561037a57815f525f60205260405f20548181106106ce57817fddf252ad1be2c89b69c2b068fc378daa952ba7f163c4a11628f55a4df523b3ef92602092855f525f84520360405f2055845f525f825260405f20818154019055604051908152a3565b8263391434e360e21b5f5260045260245260445260645ffd5b634b637e8f60e11b5f525f60045260245ffdfea26469706673582212205c39712fbe8b8553b0861089959a3df72b5d186974f2b84d34b8ca4462e4c82964736f6c634300081c003300000000000000000000000000000000000000000000000000000000000000c0000000000000000000000000000000000000000000000000000000000000010000000000000000000000000000000000000000000000d3c21bcecceda1000000000000000000000000000000000000000000000000000000000000000000001200000000000000000000000000000000000000000000000000dc44abe81300000000000000000000000000003b4f0135465d444a5bd06ab90fc59b73916c85f50000000000000000000000000000000000000000000000000000000000000007444f4745204149000000000000000000000000000000000000000000000000000000000000000000000000000000000000000000000000000000000000000006444f474541490000000000000000000000000000000000000000000000000000"
        }
      ],
      "isFixedGasLimit": false
    },
    {
      "hash": "0x46593b7c896827332790c155cd2fdc4b7ca5c3751f9db751effb9587837e0243",
      "transactionType": "CALL",
      "contractName": "MockToken",
      "contractAddress": "0x50ec6cc6acf8784093e624c8949937c406f9f808",
      "function": "approve(address,uint256)",
      "arguments": [
        "0x5AB3A2CB16B21DCFaf91CDb83EC96698FaBe6A99",
        "16129032258064516129032258"
      ],
      "transaction": {
        "from": "0x3b4f0135465d444a5bd06ab90fc59b73916c85f5",
        "to": "0x50ec6cc6acf8784093e624c8949937c406f9f808",
        "gas": "0x106e3",
        "value": "0x0",
        "input": "0x095ea7b30000000000000000000000005ab3a2cb16b21dcfaf91cdb83ec96698fabe6a990000000000000000000000000000000000000000000d577497390a5390210842",
        "nonce": "0xf0",
        "chainId": "0xdede"
      },
      "additionalContracts": [],
      "isFixedGasLimit": false
    },
    {
      "hash": "0x4596c2bb8d31bd5561adc66174f4cb8a890b9da7f1c65a4e4529cc46b6daf620",
      "transactionType": "CALL",
      "contractName": "Core",
      "contractAddress": "0x5ab3a2cb16b21dcfaf91cdb83ec96698fabe6a99",
      "function": "addLiquidity(address,uint256)",
      "arguments": [
        "0x50Ec6cC6ACF8784093E624C8949937C406F9F808",
        "16129032258064516129032258"
      ],
      "transaction": {
        "from": "0x3b4f0135465d444a5bd06ab90fc59b73916c85f5",
        "to": "0x5ab3a2cb16b21dcfaf91cdb83ec96698fabe6a99",
        "gas": "0x1ab5c",
        "value": "0x0",
        "input": "0x5668870000000000000000000000000050ec6cc6acf8784093e624c8949937c406f9f8080000000000000000000000000000000000000000000d577497390a5390210842",
        "nonce": "0xf1",
        "chainId": "0xdede"
      },
      "additionalContracts": [],
      "isFixedGasLimit": false
    },
    {
      "hash": "0x310517552b308accf78ed8b1b35124f294224a09b1d56f8edd298149d19f5889",
      "transactionType": "CALL",
      "contractName": "TokenFactory",
      "contractAddress": "0xf17a1ea23f0a943c2016b5f2b8f656ada273a23c",
      "function": "createToken(string,string,uint256,uint8,uint256)",
      "arguments": [
        "dogwifhat",
        "WIF",
        "1000000000000000000000000",
        "18",
        "770000000000000000"
      ],
      "transaction": {
        "from": "0x3b4f0135465d444a5bd06ab90fc59b73916c85f5",
        "to": "0xf17a1ea23f0a943c2016b5f2b8f656ada273a23c",
        "gas": "0xd1e98",
        "value": "0x0",
        "input": "0xedd8112300000000000000000000000000000000000000000000000000000000000000a000000000000000000000000000000000000000000000000000000000000000e000000000000000000000000000000000000000000000d3c21bcecceda100000000000000000000000000000000000000000000000000000000000000000000120000000000000000000000000000000000000000000000000aaf96eb9d0d00000000000000000000000000000000000000000000000000000000000000000009646f67776966686174000000000000000000000000000000000000000000000000000000000000000000000000000000000000000000000000000000000000035749460000000000000000000000000000000000000000000000000000000000",
        "nonce": "0xf2",
        "chainId": "0xdede"
      },
      "additionalContracts": [
        {
          "transactionType": "CREATE",
          "address": "0x6bb2620f3967c277b446e83d074767f18c4e1c58",
          "initCode": "0x60806040523461041f57610bca8038038061001981610423565b92833981019060c08183031261041f5780516001600160401b03811161041f5782610045918301610448565b602082015190926001600160401b03821161041f57610065918301610448565b60408201519160608101519160ff831680930361041f57608082015160a0909201516001600160a01b038116959086900361041f578051906001600160401b0382116103225760035490600182811c92168015610415575b60208310146103045781601f8493116103a7575b50602090601f8311600114610341575f92610336575b50508160011b915f199060031b1c1916176003555b8051906001600160401b0382116103225760045490600182811c92168015610318575b60208310146103045781601f849311610296575b50602090601f8311600114610230575f92610225575b50508160011b915f199060031b1c1916176004555b6005805460ff191683179055600780546001600160a01b03191685179055600655604d81116101fe57600a0a908181029181830414901517156101fe57811561021257600254908082018092116101fe5760207fddf252ad1be2c89b69c2b068fc378daa952ba7f163c4a11628f55a4df523b3ef915f9360025584845283825260408420818154019055604051908152a3604051610730908161049a8239f35b634e487b7160e01b5f52601160045260245ffd5b63ec442f0560e01b5f525f60045260245ffd5b015190505f80610149565b60045f9081528281209350601f198516905b81811061027e5750908460019594939210610266575b505050811b0160045561015e565b01515f1960f88460031b161c191690555f8080610258565b92936020600181928786015181550195019301610242565b60045f529091507f8a35acfbc15ff81a39ae7d344fd709f28e8600b4aa8c65c6b64bfe7fe36bd19b601f840160051c810191602085106102fa575b90601f859493920160051c01905b8181106102ec5750610133565b5f81558493506001016102df565b90915081906102d1565b634e487b7160e01b5f52602260045260245ffd5b91607f169161011f565b634e487b7160e01b5f52604160045260245ffd5b015190505f806100e7565b60035f9081528281209350601f198516905b81811061038f5750908460019594939210610377575b505050811b016003556100fc565b01515f1960f88460031b161c191690555f8080610369565b92936020600181928786015181550195019301610353565b60035f529091507fc2575a0e9e593c00f959f8c92f12db2869c3395a3b0502d05e2516446f71f85b601f840160051c8101916020851061040b575b90601f859493920160051c01905b8181106103fd57506100d1565b5f81558493506001016103f0565b90915081906103e2565b91607f16916100bd565b5f80fd5b6040519190601f01601f191682016001600160401b0381118382101761032257604052565b81601f8201121561041f578051906001600160401b03821161032257610477601f8301601f1916602001610423565b928284526020838301011161041f57815f9260208093018386015e830101529056fe6080806040526004361015610012575f80fd5b5f3560e01c90816306fdde031461052b57508063095ea7b3146104a957806318160ddd1461048c57806323b872dd146103ad578063313ce5671461038d57806340c10f19146102eb57806370a08231146102b45780638da5cb5b1461028c57806395d89b4114610171578063a035b1fe146100b6578063a9059cbb14610140578063d03a404514610127578063dd62ed3e146100d75763e1aa6036146100b6575f80fd5b346100d3575f3660031901126100d3576020600654604051908152f35b5f80fd5b346100d35760403660031901126100d3576100f0610624565b6100f861063a565b6001600160a01b039182165f908152600160209081526040808320949093168252928352819020549051908152f35b346100d35760203660031901126100d357600435600655005b346100d35760403660031901126100d35761016661015c610624565b6024359033610650565b602060405160018152f35b346100d3575f3660031901126100d3576040515f6004548060011c90600181168015610282575b60208310811461026e5782855290811561025257506001146101fd575b50819003601f01601f191681019067ffffffffffffffff8211818310176101e9576101e5829182604052826105fa565b0390f35b634e487b7160e01b5f52604160045260245ffd5b905060045f527f8a35acfbc15ff81a39ae7d344fd709f28e8600b4aa8c65c6b64bfe7fe36bd19b5f905b82821061023c575060209150820101826101b5565b6001816020925483858801015201910190610227565b90506020925060ff191682840152151560051b820101826101b5565b634e487b7160e01b5f52602260045260245ffd5b91607f1691610198565b346100d3575f3660031901126100d3576007546040516001600160a01b039091168152602090f35b346100d35760203660031901126100d3576001600160a01b036102d5610624565b165f525f602052602060405f2054604051908152f35b346100d35760403660031901126100d357610304610624565b6001600160a01b0316602435811561037a57600254908082018092116103665760207fddf252ad1be2c89b69c2b068fc378daa952ba7f163c4a11628f55a4df523b3ef915f9360025584845283825260408420818154019055604051908152a3005b634e487b7160e01b5f52601160045260245ffd5b63ec442f0560e01b5f525f60045260245ffd5b346100d3575f3660031901126100d357602060ff60055416604051908152f35b346100d35760603660031901126100d3576103c6610624565b6103ce61063a565b6001600160a01b0382165f818152600160209081526040808320338452909152902054909260443592915f19811061040c575b506101669350610650565b83811061047157841561045e57331561044b57610166945f52600160205260405f2060018060a01b0333165f526020528360405f209103905584610401565b634a1406b160e11b5f525f60045260245ffd5b63e602df0560e01b5f525f60045260245ffd5b8390637dc7a0d960e11b5f523360045260245260445260645ffd5b346100d3575f3660031901126100d3576020600254604051908152f35b346100d35760403660031901126100d3576104c2610624565b60243590331561045e576001600160a01b031690811561044b57335f52600160205260405f20825f526020528060405f20556040519081527f8c5be1e5ebec7d5bd14f71427d1e84f3dd0314c0f7b2291e5b200ac8c7c3b92560203392a3602060405160018152f35b346100d3575f3660031901126100d3575f6003548060011c906001811680156105f0575b60208310811461026e57828552908115610252575060011461059b5750819003601f01601f191681019067ffffffffffffffff8211818310176101e9576101e5829182604052826105fa565b905060035f527fc2575a0e9e593c00f959f8c92f12db2869c3395a3b0502d05e2516446f71f85b5f905b8282106105da575060209150820101826101b5565b60018160209254838588010152019101906105c5565b91607f169161054f565b602060409281835280519182918282860152018484015e5f828201840152601f01601f1916010190565b600435906001600160a01b03821682036100d357565b602435906001600160a01b03821682036100d357565b6001600160a01b03169081156106e7576001600160a01b031691821561037a57815f525f60205260405f20548181106106ce57817fddf252ad1be2c89b69c2b068fc378daa952ba7f163c4a11628f55a4df523b3ef92602092855f525f84520360405f2055845f525f825260405f20818154019055604051908152a3565b8263391434e360e21b5f5260045260245260445260645ffd5b634b637e8f60e11b5f525f60045260245ffdfea26469706673582212205c39712fbe8b8553b0861089959a3df72b5d186974f2b84d34b8ca4462e4c82964736f6c634300081c003300000000000000000000000000000000000000000000000000000000000000c0000000000000000000000000000000000000000000000000000000000000010000000000000000000000000000000000000000000000d3c21bcecceda100000000000000000000000000000000000000000000000000000000000000000000120000000000000000000000000000000000000000000000000aaf96eb9d0d00000000000000000000000000003b4f0135465d444a5bd06ab90fc59b73916c85f50000000000000000000000000000000000000000000000000000000000000009646f67776966686174000000000000000000000000000000000000000000000000000000000000000000000000000000000000000000000000000000000000035749460000000000000000000000000000000000000000000000000000000000"
        }
      ],
      "isFixedGasLimit": false
    },
    {
      "hash": "0x4c2dd9c923688034c0dd4e1ee61292b55a1ce0a2fbeef82d4f07d05c02e20476",
      "transactionType": "CALL",
      "contractName": "MockToken",
      "contractAddress": "0x6bb2620f3967c277b446e83d074767f18c4e1c58",
      "function": "approve(address,uint256)",
      "arguments": [
        "0x5AB3A2CB16B21DCFaf91CDb83EC96698FaBe6A99",
        "1298701298701298701298701"
      ],
      "transaction": {
        "from": "0x3b4f0135465d444a5bd06ab90fc59b73916c85f5",
        "to": "0x6bb2620f3967c277b446e83d074767f18c4e1c58",
        "gas": "0x106e3",
        "value": "0x0",
        "input": "0x095ea7b30000000000000000000000005ab3a2cb16b21dcfaf91cdb83ec96698fabe6a99000000000000000000000000000000000000000000011302bd0c9273c71dec0d",
        "nonce": "0xf3",
        "chainId": "0xdede"
      },
      "additionalContracts": [],
      "isFixedGasLimit": false
    },
    {
      "hash": "0xa85c0b751974fd00430f34e303d1f70ea67a4bf9c961c331762047f5ac548963",
      "transactionType": "CALL",
      "contractName": "Core",
      "contractAddress": "0x5ab3a2cb16b21dcfaf91cdb83ec96698fabe6a99",
      "function": "addLiquidity(address,uint256)",
      "arguments": [
        "0x6BB2620f3967c277B446E83d074767f18c4e1C58",
        "1298701298701298701298701"
      ],
      "transaction": {
        "from": "0x3b4f0135465d444a5bd06ab90fc59b73916c85f5",
        "to": "0x5ab3a2cb16b21dcfaf91cdb83ec96698fabe6a99",
        "gas": "0x1ab5c",
        "value": "0x0",
        "input": "0x566887000000000000000000000000006bb2620f3967c277b446e83d074767f18c4e1c58000000000000000000000000000000000000000000011302bd0c9273c71dec0d",
        "nonce": "0xf4",
        "chainId": "0xdede"
      },
      "additionalContracts": [],
      "isFixedGasLimit": false
    },
    {
      "hash": "0x664f1131eb6e5dc9c64b2284baabc3062dcc0050b1ee01113ee102b2476dc554",
      "transactionType": "CALL",
      "contractName": "TokenFactory",
      "contractAddress": "0xf17a1ea23f0a943c2016b5f2b8f656ada273a23c",
      "function": "createToken(string,string,uint256,uint8,uint256)",
      "arguments": [
        "STONKS",
        "STONKS",
        "1000000000000000000000000",
        "18",
        "50000000000000000"
      ],
      "transaction": {
        "from": "0x3b4f0135465d444a5bd06ab90fc59b73916c85f5",
        "to": "0xf17a1ea23f0a943c2016b5f2b8f656ada273a23c",
        "gas": "0xc63f0",
        "value": "0x0",
        "input": "0xedd8112300000000000000000000000000000000000000000000000000000000000000a000000000000000000000000000000000000000000000000000000000000000e000000000000000000000000000000000000000000000d3c21bcecceda1000000000000000000000000000000000000000000000000000000000000000000001200000000000000000000000000000000000000000000000000b1a2bc2ec50000000000000000000000000000000000000000000000000000000000000000000653544f4e4b530000000000000000000000000000000000000000000000000000000000000000000000000000000000000000000000000000000000000000000653544f4e4b530000000000000000000000000000000000000000000000000000",
        "nonce": "0xf5",
        "chainId": "0xdede"
      },
      "additionalContracts": [
        {
          "transactionType": "CREATE",
          "address": "0x6c45a072fac0d9c08f5bf8f392818c5eb64afcfa",
          "initCode": "0x60806040523461041f57610bca8038038061001981610423565b92833981019060c08183031261041f5780516001600160401b03811161041f5782610045918301610448565b602082015190926001600160401b03821161041f57610065918301610448565b60408201519160608101519160ff831680930361041f57608082015160a0909201516001600160a01b038116959086900361041f578051906001600160401b0382116103225760035490600182811c92168015610415575b60208310146103045781601f8493116103a7575b50602090601f8311600114610341575f92610336575b50508160011b915f199060031b1c1916176003555b8051906001600160401b0382116103225760045490600182811c92168015610318575b60208310146103045781601f849311610296575b50602090601f8311600114610230575f92610225575b50508160011b915f199060031b1c1916176004555b6005805460ff191683179055600780546001600160a01b03191685179055600655604d81116101fe57600a0a908181029181830414901517156101fe57811561021257600254908082018092116101fe5760207fddf252ad1be2c89b69c2b068fc378daa952ba7f163c4a11628f55a4df523b3ef915f9360025584845283825260408420818154019055604051908152a3604051610730908161049a8239f35b634e487b7160e01b5f52601160045260245ffd5b63ec442f0560e01b5f525f60045260245ffd5b015190505f80610149565b60045f9081528281209350601f198516905b81811061027e5750908460019594939210610266575b505050811b0160045561015e565b01515f1960f88460031b161c191690555f8080610258565b92936020600181928786015181550195019301610242565b60045f529091507f8a35acfbc15ff81a39ae7d344fd709f28e8600b4aa8c65c6b64bfe7fe36bd19b601f840160051c810191602085106102fa575b90601f859493920160051c01905b8181106102ec5750610133565b5f81558493506001016102df565b90915081906102d1565b634e487b7160e01b5f52602260045260245ffd5b91607f169161011f565b634e487b7160e01b5f52604160045260245ffd5b015190505f806100e7565b60035f9081528281209350601f198516905b81811061038f5750908460019594939210610377575b505050811b016003556100fc565b01515f1960f88460031b161c191690555f8080610369565b92936020600181928786015181550195019301610353565b60035f529091507fc2575a0e9e593c00f959f8c92f12db2869c3395a3b0502d05e2516446f71f85b601f840160051c8101916020851061040b575b90601f859493920160051c01905b8181106103fd57506100d1565b5f81558493506001016103f0565b90915081906103e2565b91607f16916100bd565b5f80fd5b6040519190601f01601f191682016001600160401b0381118382101761032257604052565b81601f8201121561041f578051906001600160401b03821161032257610477601f8301601f1916602001610423565b928284526020838301011161041f57815f9260208093018386015e830101529056fe6080806040526004361015610012575f80fd5b5f3560e01c90816306fdde031461052b57508063095ea7b3146104a957806318160ddd1461048c57806323b872dd146103ad578063313ce5671461038d57806340c10f19146102eb57806370a08231146102b45780638da5cb5b1461028c57806395d89b4114610171578063a035b1fe146100b6578063a9059cbb14610140578063d03a404514610127578063dd62ed3e146100d75763e1aa6036146100b6575f80fd5b346100d3575f3660031901126100d3576020600654604051908152f35b5f80fd5b346100d35760403660031901126100d3576100f0610624565b6100f861063a565b6001600160a01b039182165f908152600160209081526040808320949093168252928352819020549051908152f35b346100d35760203660031901126100d357600435600655005b346100d35760403660031901126100d35761016661015c610624565b6024359033610650565b602060405160018152f35b346100d3575f3660031901126100d3576040515f6004548060011c90600181168015610282575b60208310811461026e5782855290811561025257506001146101fd575b50819003601f01601f191681019067ffffffffffffffff8211818310176101e9576101e5829182604052826105fa565b0390f35b634e487b7160e01b5f52604160045260245ffd5b905060045f527f8a35acfbc15ff81a39ae7d344fd709f28e8600b4aa8c65c6b64bfe7fe36bd19b5f905b82821061023c575060209150820101826101b5565b6001816020925483858801015201910190610227565b90506020925060ff191682840152151560051b820101826101b5565b634e487b7160e01b5f52602260045260245ffd5b91607f1691610198565b346100d3575f3660031901126100d3576007546040516001600160a01b039091168152602090f35b346100d35760203660031901126100d3576001600160a01b036102d5610624565b165f525f602052602060405f2054604051908152f35b346100d35760403660031901126100d357610304610624565b6001600160a01b0316602435811561037a57600254908082018092116103665760207fddf252ad1be2c89b69c2b068fc378daa952ba7f163c4a11628f55a4df523b3ef915f9360025584845283825260408420818154019055604051908152a3005b634e487b7160e01b5f52601160045260245ffd5b63ec442f0560e01b5f525f60045260245ffd5b346100d3575f3660031901126100d357602060ff60055416604051908152f35b346100d35760603660031901126100d3576103c6610624565b6103ce61063a565b6001600160a01b0382165f818152600160209081526040808320338452909152902054909260443592915f19811061040c575b506101669350610650565b83811061047157841561045e57331561044b57610166945f52600160205260405f2060018060a01b0333165f526020528360405f209103905584610401565b634a1406b160e11b5f525f60045260245ffd5b63e602df0560e01b5f525f60045260245ffd5b8390637dc7a0d960e11b5f523360045260245260445260645ffd5b346100d3575f3660031901126100d3576020600254604051908152f35b346100d35760403660031901126100d3576104c2610624565b60243590331561045e576001600160a01b031690811561044b57335f52600160205260405f20825f526020528060405f20556040519081527f8c5be1e5ebec7d5bd14f71427d1e84f3dd0314c0f7b2291e5b200ac8c7c3b92560203392a3602060405160018152f35b346100d3575f3660031901126100d3575f6003548060011c906001811680156105f0575b60208310811461026e57828552908115610252575060011461059b5750819003601f01601f191681019067ffffffffffffffff8211818310176101e9576101e5829182604052826105fa565b905060035f527fc2575a0e9e593c00f959f8c92f12db2869c3395a3b0502d05e2516446f71f85b5f905b8282106105da575060209150820101826101b5565b60018160209254838588010152019101906105c5565b91607f169161054f565b602060409281835280519182918282860152018484015e5f828201840152601f01601f1916010190565b600435906001600160a01b03821682036100d357565b602435906001600160a01b03821682036100d357565b6001600160a01b03169081156106e7576001600160a01b031691821561037a57815f525f60205260405f20548181106106ce57817fddf252ad1be2c89b69c2b068fc378daa952ba7f163c4a11628f55a4df523b3ef92602092855f525f84520360405f2055845f525f825260405f20818154019055604051908152a3565b8263391434e360e21b5f5260045260245260445260645ffd5b634b637e8f60e11b5f525f60045260245ffdfea26469706673582212205c39712fbe8b8553b0861089959a3df72b5d186974f2b84d34b8ca4462e4c82964736f6c634300081c003300000000000000000000000000000000000000000000000000000000000000c0000000000000000000000000000000000000000000000000000000000000010000000000000000000000000000000000000000000000d3c21bcecceda1000000000000000000000000000000000000000000000000000000000000000000001200000000000000000000000000000000000000000000000000b1a2bc2ec500000000000000000000000000003b4f0135465d444a5bd06ab90fc59b73916c85f5000000000000000000000000000000000000000000000000000000000000000653544f4e4b530000000000000000000000000000000000000000000000000000000000000000000000000000000000000000000000000000000000000000000653544f4e4b530000000000000000000000000000000000000000000000000000"
        }
      ],
      "isFixedGasLimit": false
    },
    {
      "hash": "0xe332d6598e9199b04d581d72e4cf3cfec28f0ca2b99b224a70e67791a5a39fb3",
      "transactionType": "CALL",
      "contractName": "MockToken",
      "contractAddress": "0x6c45a072fac0d9c08f5bf8f392818c5eb64afcfa",
      "function": "approve(address,uint256)",
      "arguments": [
        "0x5AB3A2CB16B21DCFaf91CDb83EC96698FaBe6A99",
        "20000000000000000000000000"
      ],
      "transaction": {
        "from": "0x3b4f0135465d444a5bd06ab90fc59b73916c85f5",
        "to": "0x6c45a072fac0d9c08f5bf8f392818c5eb64afcfa",
        "gas": "0xf816",
        "value": "0x0",
        "input": "0x095ea7b30000000000000000000000005ab3a2cb16b21dcfaf91cdb83ec96698fabe6a99000000000000000000000000000000000000000000108b2a2c28029094000000",
        "nonce": "0xf6",
        "chainId": "0xdede"
      },
      "additionalContracts": [],
      "isFixedGasLimit": false
    },
    {
      "hash": "0x62050fd0a3ee40cc50882039258b9a730ce1f8460f2987b4f6bfc735a1d4b0a7",
      "transactionType": "CALL",
      "contractName": "Core",
      "contractAddress": "0x5ab3a2cb16b21dcfaf91cdb83ec96698fabe6a99",
      "function": "addLiquidity(address,uint256)",
      "arguments": [
        "0x6C45a072fAc0d9C08F5bf8f392818C5eb64afcFA",
        "20000000000000000000000000"
      ],
      "transaction": {
        "from": "0x3b4f0135465d444a5bd06ab90fc59b73916c85f5",
        "to": "0x5ab3a2cb16b21dcfaf91cdb83ec96698fabe6a99",
        "gas": "0x1c44b",
        "value": "0x0",
        "input": "0x566887000000000000000000000000006c45a072fac0d9c08f5bf8f392818c5eb64afcfa000000000000000000000000000000000000000000108b2a2c28029094000000",
        "nonce": "0xf7",
        "chainId": "0xdede"
      },
      "additionalContracts": [],
      "isFixedGasLimit": false
    }
  ],
  "receipts": [
    {
      "status": "0x1",
      "cumulativeGasUsed": "0xd6489",
      "logs": [],
      "logsBloom": "0x00000000000000000000000000000000000000000000000000000000000000000000000000000000000000000000000000000000000000000000000000000000000000000000000000000000000000000000000000000000000000000000000000000000000000000000000000000000000000000000000000000000000000000000000000000000000000000000000000000000000000000000000000000000000000000000000000000000000000000000000000000000000000000000000000000000000000000000000000000000000000000000000000000000000000000000000000000000000000000000000000000000000000000000000000000000",
      "type": "0x2",
      "transactionHash": "0x3202031b93f941b810d57e266ddb364b5df740a362f291bdbaabd02aaedd1e1e",
      "transactionIndex": "0x1",
      "blockHash": "0x20413064806004e056bd575b2e765418a6f11c22d7c902954d6f146a34c50091",
      "blockNumber": "0x17f6183",
      "gasUsed": "0xd1281",
      "effectiveGasPrice": "0x3b9aca01",
      "from": "0x3b4f0135465d444a5bd06ab90fc59b73916c85f5",
      "to": null,
      "contractAddress": "0xf17a1ea23f0a943c2016b5f2b8f656ada273a23c"
    },
    {
      "status": "0x1",
      "cumulativeGasUsed": "0x95ea9",
      "logs": [],
      "logsBloom": "0x00000000000000000000000000000000000000000000000000000000000000000000000000000000000000000000000000000000000000000000000000000000000000000000000000000000000000000000000000000000000000000000000000000000000000000000000000000000000000000000000000000000000000000000000000000000000000000000000000000000000000000000000000000000000000000000000000000000000000000000000000000000000000000000000000000000000000000000000000000000000000000000000000000000000000000000000000000000000000000000000000000000000000000000000000000000",
      "type": "0x2",
      "transactionHash": "0x286bd44fb5591355d460c77ff3324f0e03f9f00093cf7212e1de9b3887c073e8",
      "transactionIndex": "0x0",
      "blockHash": "0x86e3361d6cd0f283b71196a186240cf02bc35674f215e790a3c9e3c87fc7ef1d",
      "blockNumber": "0x17f6184",
      "gasUsed": "0x95ea9",
      "effectiveGasPrice": "0x3b9aca01",
      "from": "0x3b4f0135465d444a5bd06ab90fc59b73916c85f5",
      "to": null,
      "contractAddress": "0x5ab3a2cb16b21dcfaf91cdb83ec96698fabe6a99"
    },
    {
      "status": "0x1",
      "cumulativeGasUsed": "0x12c10d",
      "logs": [
        {
          "address": "0xea48745c8c9efe2e27cc939cc5c976a54285ad5b",
          "topics": [
            "0xddf252ad1be2c89b69c2b068fc378daa952ba7f163c4a11628f55a4df523b3ef",
            "0x0000000000000000000000000000000000000000000000000000000000000000",
            "0x0000000000000000000000003b4f0135465d444a5bd06ab90fc59b73916c85f5"
          ],
          "data": "0x00000000000000000000000000000b7abc627050305adf14a3d9e40000000000",
          "blockHash": "0x86e3361d6cd0f283b71196a186240cf02bc35674f215e790a3c9e3c87fc7ef1d",
          "blockNumber": "0x17f6184",
          "transactionHash": "0x1c10ea49c1183712b400eb5abe04e32a7fedabc14ab6c6de128cb6fe95562062",
          "transactionIndex": "0x1",
          "logIndex": "0x0",
          "removed": false
        },
        {
          "address": "0xf17a1ea23f0a943c2016b5f2b8f656ada273a23c",
          "topics": [
            "0xaf5156078ffc09d447c818754d2e4310cc3f95e36cb33f85723785b122371ed5",
            "0x000000000000000000000000ea48745c8c9efe2e27cc939cc5c976a54285ad5b"
          ],
          "data": "0x00000000000000000000000000000000000000000000000000000000000000c0000000000000000000000000000000000000000000000000000000000000010000000000000000000000000000000000000000000000d3c21bcecceda100000000000000000000000000000000000000000000000000000000000000000000120000000000000000000000000000000000000000000000000de0b6b3a76400000000000000000000000000003b4f0135465d444a5bd06ab90fc59b73916c85f50000000000000000000000000000000000000000000000000000000000000005534f4e494300000000000000000000000000000000000000000000000000000000000000000000000000000000000000000000000000000000000000000000015300000000000000000000000000000000000000000000000000000000000000",
          "blockHash": "0x86e3361d6cd0f283b71196a186240cf02bc35674f215e790a3c9e3c87fc7ef1d",
          "blockNumber": "0x17f6184",
          "transactionHash": "0x1c10ea49c1183712b400eb5abe04e32a7fedabc14ab6c6de128cb6fe95562062",
          "transactionIndex": "0x1",
          "logIndex": "0x1",
          "removed": false
        }
      ],
      "logsBloom": "0x00000000000040000000000000000000000000040000000000000020000000000000000000000000000000000000040000000000000000000000000004400000000000000000000000000008000000000000000000000000000000000000000000000000020000000000000000000800000000000000000000100018000000000000000000000000000010000000400000000000000000000000000000000000000000000000000000000000000000000000000000000000000000000000000000000102000000000000000000000000200000000000000002010000000020000000000000000000000000000000000000000000000000000000000000002000",
      "type": "0x2",
      "transactionHash": "0x1c10ea49c1183712b400eb5abe04e32a7fedabc14ab6c6de128cb6fe95562062",
      "transactionIndex": "0x1",
      "blockHash": "0x86e3361d6cd0f283b71196a186240cf02bc35674f215e790a3c9e3c87fc7ef1d",
      "blockNumber": "0x17f6184",
      "gasUsed": "0x96264",
      "effectiveGasPrice": "0x3b9aca01",
      "from": "0x3b4f0135465d444a5bd06ab90fc59b73916c85f5",
      "to": "0xf17a1ea23f0a943c2016b5f2b8f656ada273a23c",
      "contractAddress": null
    },
    {
      "status": "0x1",
      "cumulativeGasUsed": "0x137cec",
      "logs": [
        {
          "address": "0xea48745c8c9efe2e27cc939cc5c976a54285ad5b",
          "topics": [
            "0x8c5be1e5ebec7d5bd14f71427d1e84f3dd0314c0f7b2291e5b200ac8c7c3b925",
            "0x0000000000000000000000003b4f0135465d444a5bd06ab90fc59b73916c85f5",
            "0x0000000000000000000000005ab3a2cb16b21dcfaf91cdb83ec96698fabe6a99"
          ],
          "data": "0x00000000000000000000000000000000000000000000d3c21bcecceda1000000",
          "blockHash": "0x86e3361d6cd0f283b71196a186240cf02bc35674f215e790a3c9e3c87fc7ef1d",
          "blockNumber": "0x17f6184",
          "transactionHash": "0xd1c1e99eb1991329be53d6805cc45e85823ad44a2c9ccb2df9e9a174ac5bcb05",
          "transactionIndex": "0x2",
          "logIndex": "0x2",
          "removed": false
        }
      ],
      "logsBloom": "0x00000000000040000004000000000000000000000000000000000020000000000000000000000000000000100000000000000000000000000000000000600000000000000000000000000000000000000000000000000000000000000000000000000000000000000000000000000000000000000000000000100008000000000000000000000000000000000000000000000000000000000000000000000000020000000000000000000000000000000000000000000000000000000000000000000100000000000000000000000000000000000010000000000000000000000010000000000000000000000000000000000000000000000000000000000000",
      "type": "0x2",
      "transactionHash": "0xd1c1e99eb1991329be53d6805cc45e85823ad44a2c9ccb2df9e9a174ac5bcb05",
      "transactionIndex": "0x2",
      "blockHash": "0x86e3361d6cd0f283b71196a186240cf02bc35674f215e790a3c9e3c87fc7ef1d",
      "blockNumber": "0x17f6184",
      "gasUsed": "0xbbdf",
      "effectiveGasPrice": "0x3b9aca01",
      "from": "0x3b4f0135465d444a5bd06ab90fc59b73916c85f5",
      "to": "0xea48745c8c9efe2e27cc939cc5c976a54285ad5b",
      "contractAddress": null
    },
    {
      "status": "0x1",
      "cumulativeGasUsed": "0x150e14",
      "logs": [
        {
          "address": "0xea48745c8c9efe2e27cc939cc5c976a54285ad5b",
          "topics": [
            "0xddf252ad1be2c89b69c2b068fc378daa952ba7f163c4a11628f55a4df523b3ef",
            "0x0000000000000000000000003b4f0135465d444a5bd06ab90fc59b73916c85f5",
            "0x0000000000000000000000005ab3a2cb16b21dcfaf91cdb83ec96698fabe6a99"
          ],
          "data": "0x00000000000000000000000000000000000000000000d3c21bcecceda1000000",
          "blockHash": "0x86e3361d6cd0f283b71196a186240cf02bc35674f215e790a3c9e3c87fc7ef1d",
          "blockNumber": "0x17f6184",
          "transactionHash": "0x7c7887343c20562055b2d7f66321b8d8c4c2de66ac8d37fe9b9540d2668711b0",
          "transactionIndex": "0x4",
          "logIndex": "0x3",
          "removed": false
        },
        {
          "address": "0x5ab3a2cb16b21dcfaf91cdb83ec96698fabe6a99",
          "topics": [
            "0x9d278c56ba6dc86a12eefe6b43112bd6e06648eb4ec0b950ee2d783d40e2acb4",
            "0x0000000000000000000000003b4f0135465d444a5bd06ab90fc59b73916c85f5"
          ],
          "data": "0x000000000000000000000000ea48745c8c9efe2e27cc939cc5c976a54285ad5b00000000000000000000000000000000000000000000d3c21bcecceda1000000",
          "blockHash": "0x86e3361d6cd0f283b71196a186240cf02bc35674f215e790a3c9e3c87fc7ef1d",
          "blockNumber": "0x17f6184",
          "transactionHash": "0x7c7887343c20562055b2d7f66321b8d8c4c2de66ac8d37fe9b9540d2668711b0",
          "transactionIndex": "0x4",
          "logIndex": "0x4",
          "removed": false
        }
      ],
      "logsBloom": "0x00000000000040000004000000000000000000000000002000000020000000000000000000000000000000100000000000000000000000000000000000400000000000000000000000000008000000000000000000000000000000001000000000000000000000000000000800000000000000000200000000100018000000000000000000000000000000000000000000000000000000000000000000000000000000000000000000000000000000000000000000000000000000000000000000000102000000000000000000000000000000000010000000000000000000000000000400000000040000000000000000000000000000000000000000000000",
      "type": "0x2",
      "transactionHash": "0x7c7887343c20562055b2d7f66321b8d8c4c2de66ac8d37fe9b9540d2668711b0",
      "transactionIndex": "0x4",
      "blockHash": "0x86e3361d6cd0f283b71196a186240cf02bc35674f215e790a3c9e3c87fc7ef1d",
      "blockNumber": "0x17f6184",
      "gasUsed": "0x13f20",
      "effectiveGasPrice": "0x3b9aca01",
      "from": "0x3b4f0135465d444a5bd06ab90fc59b73916c85f5",
      "to": "0x5ab3a2cb16b21dcfaf91cdb83ec96698fabe6a99",
      "contractAddress": null
    },
    {
      "status": "0x1",
      "cumulativeGasUsed": "0x962b0",
      "logs": [
        {
          "address": "0x5ffac3827ddee20b479d27a2b72c5a44fcd752df",
          "topics": [
            "0xddf252ad1be2c89b69c2b068fc378daa952ba7f163c4a11628f55a4df523b3ef",
            "0x0000000000000000000000000000000000000000000000000000000000000000",
            "0x0000000000000000000000003b4f0135465d444a5bd06ab90fc59b73916c85f5"
          ],
          "data": "0x00000000000000000000000000000b7abc627050305adf14a3d9e40000000000",
          "blockHash": "0xc7d2dc6da65da56e9f1ea83847322a46580e82e3d8347bdf0d2055deae7b72ba",
          "blockNumber": "0x17f6186",
          "transactionHash": "0x861de4592fc5c4bcc0921baafce4dee83fad7801782722644c991e17d19a0683",
          "transactionIndex": "0x0",
          "logIndex": "0x0",
          "removed": false
        },
        {
          "address": "0xf17a1ea23f0a943c2016b5f2b8f656ada273a23c",
          "topics": [
            "0xaf5156078ffc09d447c818754d2e4310cc3f95e36cb33f85723785b122371ed5",
            "0x0000000000000000000000005ffac3827ddee20b479d27a2b72c5a44fcd752df"
          ],
          "data": "0x00000000000000000000000000000000000000000000000000000000000000c0000000000000000000000000000000000000000000000000000000000000010000000000000000000000000000000000000000000000d3c21bcecceda1000000000000000000000000000000000000000000000000000000000000000000001200000000000000000000000000000000000000000000009365b47e1edf1c00000000000000000000000000003b4f0135465d444a5bd06ab90fc59b73916c85f50000000000000000000000000000000000000000000000000000000000000008457468657265756d00000000000000000000000000000000000000000000000000000000000000000000000000000000000000000000000000000000000000034554480000000000000000000000000000000000000000000000000000000000",
          "blockHash": "0xc7d2dc6da65da56e9f1ea83847322a46580e82e3d8347bdf0d2055deae7b72ba",
          "blockNumber": "0x17f6186",
          "transactionHash": "0x861de4592fc5c4bcc0921baafce4dee83fad7801782722644c991e17d19a0683",
          "transactionIndex": "0x0",
          "logIndex": "0x1",
          "removed": false
        }
      ],
      "logsBloom": "0x00000000000000000000000000000000000000040000000000000020000000000000000000000000000000000000000000000000000000000000000004400000000000000000000000000008000000000000000000000000000000000000000000000000020000000200000000000800000000000000000040000010000000000000000000000000000000000000400000000000000000000000000000000000000000000000000000000000000000000000000000000000000000000000000000000102000000000000000000000000200000000000000002040080000020000000000000000000000000000000000000000000000000000000008000002000",
      "type": "0x2",
      "transactionHash": "0x861de4592fc5c4bcc0921baafce4dee83fad7801782722644c991e17d19a0683",
      "transactionIndex": "0x0",
      "blockHash": "0xc7d2dc6da65da56e9f1ea83847322a46580e82e3d8347bdf0d2055deae7b72ba",
      "blockNumber": "0x17f6186",
      "gasUsed": "0x962b0",
      "effectiveGasPrice": "0x3b9aca01",
      "from": "0x3b4f0135465d444a5bd06ab90fc59b73916c85f5",
      "to": "0xf17a1ea23f0a943c2016b5f2b8f656ada273a23c",
      "contractAddress": null
    },
    {
      "status": "0x1",
      "cumulativeGasUsed": "0xa1ea8",
      "logs": [
        {
          "address": "0x5ffac3827ddee20b479d27a2b72c5a44fcd752df",
          "topics": [
            "0x8c5be1e5ebec7d5bd14f71427d1e84f3dd0314c0f7b2291e5b200ac8c7c3b925",
            "0x0000000000000000000000003b4f0135465d444a5bd06ab90fc59b73916c85f5",
            "0x0000000000000000000000005ab3a2cb16b21dcfaf91cdb83ec96698fabe6a99"
          ],
          "data": "0x000000000000000000000000000000000000000000000013f0011c9a7f42487f",
          "blockHash": "0xc7d2dc6da65da56e9f1ea83847322a46580e82e3d8347bdf0d2055deae7b72ba",
          "blockNumber": "0x17f6186",
          "transactionHash": "0x2a1089bd7076dce1298694d89ae17c6ab1e1702daf3bf3ab06f59fa0d31e37cd",
          "transactionIndex": "0x1",
          "logIndex": "0x2",
          "removed": false
        }
      ],
      "logsBloom": "0x00000000000000000004000000000000000000000000000000000020000000000000000000000000000000100000000000000000000000000000000000600000000000000000000000000000000000000000000000000000000000000000000000000000000000000000000000000000000000000000000040000000000000000000000000000000000000000000000000000000000000000000000000000000020000000000000000000000000000000000000000000000000000000000000000000100000000000000000000000000000000000010000000000080000000000010000000000000000000000000000000000000000000000000008000000000",
      "type": "0x2",
      "transactionHash": "0x2a1089bd7076dce1298694d89ae17c6ab1e1702daf3bf3ab06f59fa0d31e37cd",
      "transactionIndex": "0x1",
      "blockHash": "0xc7d2dc6da65da56e9f1ea83847322a46580e82e3d8347bdf0d2055deae7b72ba",
      "blockNumber": "0x17f6186",
      "gasUsed": "0xbbf8",
      "effectiveGasPrice": "0x3b9aca01",
      "from": "0x3b4f0135465d444a5bd06ab90fc59b73916c85f5",
      "to": "0x5ffac3827ddee20b479d27a2b72c5a44fcd752df",
      "contractAddress": null
    },
    {
      "status": "0x1",
      "cumulativeGasUsed": "0xce7ef",
      "logs": [
        {
          "address": "0x5ffac3827ddee20b479d27a2b72c5a44fcd752df",
          "topics": [
            "0xddf252ad1be2c89b69c2b068fc378daa952ba7f163c4a11628f55a4df523b3ef",
            "0x0000000000000000000000003b4f0135465d444a5bd06ab90fc59b73916c85f5",
            "0x0000000000000000000000005ab3a2cb16b21dcfaf91cdb83ec96698fabe6a99"
          ],
          "data": "0x000000000000000000000000000000000000000000000013f0011c9a7f42487f",
          "blockHash": "0xc7d2dc6da65da56e9f1ea83847322a46580e82e3d8347bdf0d2055deae7b72ba",
          "blockNumber": "0x17f6186",
          "transactionHash": "0x5bc03280abb495616c66d22c03677bc0447e5864868b728bebc50420d4d08303",
          "transactionIndex": "0x3",
          "logIndex": "0x7",
          "removed": false
        },
        {
          "address": "0x5ab3a2cb16b21dcfaf91cdb83ec96698fabe6a99",
          "topics": [
            "0x9d278c56ba6dc86a12eefe6b43112bd6e06648eb4ec0b950ee2d783d40e2acb4",
            "0x0000000000000000000000003b4f0135465d444a5bd06ab90fc59b73916c85f5"
          ],
          "data": "0x0000000000000000000000005ffac3827ddee20b479d27a2b72c5a44fcd752df000000000000000000000000000000000000000000000013f0011c9a7f42487f",
          "blockHash": "0xc7d2dc6da65da56e9f1ea83847322a46580e82e3d8347bdf0d2055deae7b72ba",
          "blockNumber": "0x17f6186",
          "transactionHash": "0x5bc03280abb495616c66d22c03677bc0447e5864868b728bebc50420d4d08303",
          "transactionIndex": "0x3",
          "logIndex": "0x8",
          "removed": false
        }
      ],
      "logsBloom": "0x00000000000000000004000000000000000000000000002000000020000000000000000000000000000000100000000000000000000000000000000000400000000000000000000000000008000000000000000000000000000000001000000000000000000000000000000800000000000000000200000040000010000000000000000000000000000000000000000000000000000000000000000000000000000000000000000000000000000000000000000000000000000000000000000000000102000000000000000000000000000000000010000000000080000000000000000400000000040000000000000000000000000000000000008000000000",
      "type": "0x2",
      "transactionHash": "0x5bc03280abb495616c66d22c03677bc0447e5864868b728bebc50420d4d08303",
      "transactionIndex": "0x3",
      "blockHash": "0xc7d2dc6da65da56e9f1ea83847322a46580e82e3d8347bdf0d2055deae7b72ba",
      "blockNumber": "0x17f6186",
      "gasUsed": "0x13f39",
      "effectiveGasPrice": "0x3b9aca01",
      "from": "0x3b4f0135465d444a5bd06ab90fc59b73916c85f5",
      "to": "0x5ab3a2cb16b21dcfaf91cdb83ec96698fabe6a99",
      "contractAddress": null
    },
    {
      "status": "0x1",
      "cumulativeGasUsed": "0x164a9f",
      "logs": [
        {
          "address": "0x3e2da21a9cc78c7401caf4faa85de092ed726833",
          "topics": [
            "0xddf252ad1be2c89b69c2b068fc378daa952ba7f163c4a11628f55a4df523b3ef",
            "0x0000000000000000000000000000000000000000000000000000000000000000",
            "0x0000000000000000000000003b4f0135465d444a5bd06ab90fc59b73916c85f5"
          ],
          "data": "0x00000000000000000000000000000b7abc627050305adf14a3d9e40000000000",
          "blockHash": "0xc7d2dc6da65da56e9f1ea83847322a46580e82e3d8347bdf0d2055deae7b72ba",
          "blockNumber": "0x17f6186",
          "transactionHash": "0xd5819f322551aca97f134429170c68dfa26bb5882c98953dba15d8a2defb7828",
          "transactionIndex": "0x4",
          "logIndex": "0x9",
          "removed": false
        },
        {
          "address": "0xf17a1ea23f0a943c2016b5f2b8f656ada273a23c",
          "topics": [
            "0xaf5156078ffc09d447c818754d2e4310cc3f95e36cb33f85723785b122371ed5",
            "0x0000000000000000000000003e2da21a9cc78c7401caf4faa85de092ed726833"
          ],
          "data": "0x00000000000000000000000000000000000000000000000000000000000000c0000000000000000000000000000000000000000000000000000000000000010000000000000000000000000000000000000000000000d3c21bcecceda10000000000000000000000000000000000000000000000000000000000000000000012000000000000000000000000000000000000000000000dd3eb8b39c5afd000000000000000000000000000003b4f0135465d444a5bd06ab90fc59b73916c85f50000000000000000000000000000000000000000000000000000000000000007426974636f696e0000000000000000000000000000000000000000000000000000000000000000000000000000000000000000000000000000000000000000034254430000000000000000000000000000000000000000000000000000000000",
          "blockHash": "0xc7d2dc6da65da56e9f1ea83847322a46580e82e3d8347bdf0d2055deae7b72ba",
          "blockNumber": "0x17f6186",
          "transactionHash": "0xd5819f322551aca97f134429170c68dfa26bb5882c98953dba15d8a2defb7828",
          "transactionIndex": "0x4",
          "logIndex": "0xa",
          "removed": false
        }
      ],
      "logsBloom": "0x00000000000000004000000000000100000000040000000000000020000000000000000000000000000000000000000000000000000000000000000004400000000000000000000000000008000000000000000000000000000000000000000000000000020000000000000000000800000000000000000000000010000000000000000000000000000000000000400000000000000000000000000000000000000000000000000002080010000000000000000000000000000000000000000000000102000000000000000000000000200000000000000002000000000020000010000000000000000000000000000000000000000000000000000000002000",
      "type": "0x2",
      "transactionHash": "0xd5819f322551aca97f134429170c68dfa26bb5882c98953dba15d8a2defb7828",
      "transactionIndex": "0x4",
      "blockHash": "0xc7d2dc6da65da56e9f1ea83847322a46580e82e3d8347bdf0d2055deae7b72ba",
      "blockNumber": "0x17f6186",
      "gasUsed": "0x962b0",
      "effectiveGasPrice": "0x3b9aca01",
      "from": "0x3b4f0135465d444a5bd06ab90fc59b73916c85f5",
      "to": "0xf17a1ea23f0a943c2016b5f2b8f656ada273a23c",
      "contractAddress": null
    },
    {
      "status": "0x1",
      "cumulativeGasUsed": "0x170514",
      "logs": [
        {
          "address": "0x3e2da21a9cc78c7401caf4faa85de092ed726833",
          "topics": [
            "0x8c5be1e5ebec7d5bd14f71427d1e84f3dd0314c0f7b2291e5b200ac8c7c3b925",
            "0x0000000000000000000000003b4f0135465d444a5bd06ab90fc59b73916c85f5",
            "0x0000000000000000000000005ab3a2cb16b21dcfaf91cdb83ec96698fabe6a99"
          ],
          "data": "0x000000000000000000000000000000000000000000000000d486075d973505e1",
          "blockHash": "0xc7d2dc6da65da56e9f1ea83847322a46580e82e3d8347bdf0d2055deae7b72ba",
          "blockNumber": "0x17f6186",
          "transactionHash": "0xfd591e3e0a6b1bd95024249f39cab472f710dafaa7ec2b2a389bad307bfaf020",
          "transactionIndex": "0x5",
          "logIndex": "0xb",
          "removed": false
        }
      ],
      "logsBloom": "0x00000000000000004004000000000000000000000000000000000020000000000000000000000000000000100000000000000000000000000000000000600000000000000000000000000000000000000000000000000000000000000000000000000000000000000000000000000000000000000000000000000000000000000000000000000000000000000000000000000000000000000000000000000000020000000000000002080000000000000000000000000000000000000000000000000100000000000000000000000000000000000010000000000000000000000010000000000000000000000000000000000000000000000000000000000000",
      "type": "0x2",
      "transactionHash": "0xfd591e3e0a6b1bd95024249f39cab472f710dafaa7ec2b2a389bad307bfaf020",
      "transactionIndex": "0x5",
      "blockHash": "0xc7d2dc6da65da56e9f1ea83847322a46580e82e3d8347bdf0d2055deae7b72ba",
      "blockNumber": "0x17f6186",
      "gasUsed": "0xba75",
      "effectiveGasPrice": "0x3b9aca01",
      "from": "0x3b4f0135465d444a5bd06ab90fc59b73916c85f5",
      "to": "0x3e2da21a9cc78c7401caf4faa85de092ed726833",
      "contractAddress": null
    },
    {
      "status": "0x1",
      "cumulativeGasUsed": "0x1846c4",
      "logs": [
        {
          "address": "0x3e2da21a9cc78c7401caf4faa85de092ed726833",
          "topics": [
            "0xddf252ad1be2c89b69c2b068fc378daa952ba7f163c4a11628f55a4df523b3ef",
            "0x0000000000000000000000003b4f0135465d444a5bd06ab90fc59b73916c85f5",
            "0x0000000000000000000000005ab3a2cb16b21dcfaf91cdb83ec96698fabe6a99"
          ],
          "data": "0x000000000000000000000000000000000000000000000000d486075d973505e1",
          "blockHash": "0xc7d2dc6da65da56e9f1ea83847322a46580e82e3d8347bdf0d2055deae7b72ba",
          "blockNumber": "0x17f6186",
          "transactionHash": "0xf8ce96a73cf46a204114d45c7943a2b9bf07af1ed662063f2be521468400cc25",
          "transactionIndex": "0x6",
          "logIndex": "0xc",
          "removed": false
        },
        {
          "address": "0x5ab3a2cb16b21dcfaf91cdb83ec96698fabe6a99",
          "topics": [
            "0x9d278c56ba6dc86a12eefe6b43112bd6e06648eb4ec0b950ee2d783d40e2acb4",
            "0x0000000000000000000000003b4f0135465d444a5bd06ab90fc59b73916c85f5"
          ],
          "data": "0x0000000000000000000000003e2da21a9cc78c7401caf4faa85de092ed726833000000000000000000000000000000000000000000000000d486075d973505e1",
          "blockHash": "0xc7d2dc6da65da56e9f1ea83847322a46580e82e3d8347bdf0d2055deae7b72ba",
          "blockNumber": "0x17f6186",
          "transactionHash": "0xf8ce96a73cf46a204114d45c7943a2b9bf07af1ed662063f2be521468400cc25",
          "transactionIndex": "0x6",
          "logIndex": "0xd",
          "removed": false
        }
      ],
      "logsBloom": "0x00000000000000004004000000000000000000000000002000000020000000000000000000000000000000100000000000000000000000000000000000400000000000000000000000000008000000000000000000000000000000001000000000000000000000000000000800000000000000000200000000000010000000000000000000000000000000000000000000000000000000000000000000000000000000000000000002080000000000000000000000000000000000000000000000000102000000000000000000000000000000000010000000000000000000000000000400000000040000000000000000000000000000000000000000000000",
      "type": "0x2",
      "transactionHash": "0xf8ce96a73cf46a204114d45c7943a2b9bf07af1ed662063f2be521468400cc25",
      "transactionIndex": "0x6",
      "blockHash": "0xc7d2dc6da65da56e9f1ea83847322a46580e82e3d8347bdf0d2055deae7b72ba",
      "blockNumber": "0x17f6186",
      "gasUsed": "0x141b0",
      "effectiveGasPrice": "0x3b9aca01",
      "from": "0x3b4f0135465d444a5bd06ab90fc59b73916c85f5",
      "to": "0x5ab3a2cb16b21dcfaf91cdb83ec96698fabe6a99",
      "contractAddress": null
    },
    {
      "status": "0x1",
      "cumulativeGasUsed": "0x21a9bf",
      "logs": [
        {
          "address": "0x092eda418b2f2feeb86746206a8da9c7a4c4fa95",
          "topics": [
            "0xddf252ad1be2c89b69c2b068fc378daa952ba7f163c4a11628f55a4df523b3ef",
            "0x0000000000000000000000000000000000000000000000000000000000000000",
            "0x0000000000000000000000003b4f0135465d444a5bd06ab90fc59b73916c85f5"
          ],
          "data": "0x00000000000000000000000000000b7abc627050305adf14a3d9e40000000000",
          "blockHash": "0xc7d2dc6da65da56e9f1ea83847322a46580e82e3d8347bdf0d2055deae7b72ba",
          "blockNumber": "0x17f6186",
          "transactionHash": "0x77421c236353e2c2b20999421918567af1f08f54d37e07324272a6d90e394e7f",
          "transactionIndex": "0x7",
          "logIndex": "0xe",
          "removed": false
        },
        {
          "address": "0xf17a1ea23f0a943c2016b5f2b8f656ada273a23c",
          "topics": [
            "0xaf5156078ffc09d447c818754d2e4310cc3f95e36cb33f85723785b122371ed5",
            "0x000000000000000000000000092eda418b2f2feeb86746206a8da9c7a4c4fa95"
          ],
          "data": "0x00000000000000000000000000000000000000000000000000000000000000c0000000000000000000000000000000000000000000000000000000000000010000000000000000000000000000000000000000000000d3c21bcecceda1000000000000000000000000000000000000000000000000000000000000000000001200000000000000000000000000000000000000000000009365b47e1edf1c00000000000000000000000000003b4f0135465d444a5bd06ab90fc59b73916c85f5000000000000000000000000000000000000000000000000000000000000000d577261707065642045746865720000000000000000000000000000000000000000000000000000000000000000000000000000000000000000000000000000045745544800000000000000000000000000000000000000000000000000000000",
          "blockHash": "0xc7d2dc6da65da56e9f1ea83847322a46580e82e3d8347bdf0d2055deae7b72ba",
          "blockNumber": "0x17f6186",
          "transactionHash": "0x77421c236353e2c2b20999421918567af1f08f54d37e07324272a6d90e394e7f",
          "transactionIndex": "0x7",
          "logIndex": "0xf",
          "removed": false
        }
      ],
      "logsBloom": "0x00000000000000000001000000000000000000040000000000000020000000000000000000000080000000000000000000000000000000000000000004400000000000000000000000000008000000000000000001000000000000000000010000000000020000000000000000000800000000000000000000000010000000000000000000000000000000000000400000000000000000000000000000002000000000000000008000000000000000000000000000000000000000000000000000000102000000000000000000000000200000000000000002000000000020000000000000000000000000000000000000000000000000000000000000002000",
      "type": "0x2",
      "transactionHash": "0x77421c236353e2c2b20999421918567af1f08f54d37e07324272a6d90e394e7f",
      "transactionIndex": "0x7",
      "blockHash": "0xc7d2dc6da65da56e9f1ea83847322a46580e82e3d8347bdf0d2055deae7b72ba",
      "blockNumber": "0x17f6186",
      "gasUsed": "0x962fb",
      "effectiveGasPrice": "0x3b9aca01",
      "from": "0x3b4f0135465d444a5bd06ab90fc59b73916c85f5",
      "to": "0xf17a1ea23f0a943c2016b5f2b8f656ada273a23c",
      "contractAddress": null
    },
    {
      "status": "0x1",
      "cumulativeGasUsed": "0x2265b7",
      "logs": [
        {
          "address": "0x092eda418b2f2feeb86746206a8da9c7a4c4fa95",
          "topics": [
            "0x8c5be1e5ebec7d5bd14f71427d1e84f3dd0314c0f7b2291e5b200ac8c7c3b925",
            "0x0000000000000000000000003b4f0135465d444a5bd06ab90fc59b73916c85f5",
            "0x0000000000000000000000005ab3a2cb16b21dcfaf91cdb83ec96698fabe6a99"
          ],
          "data": "0x000000000000000000000000000000000000000000000013f0011c9a7f42487f",
          "blockHash": "0xc7d2dc6da65da56e9f1ea83847322a46580e82e3d8347bdf0d2055deae7b72ba",
          "blockNumber": "0x17f6186",
          "transactionHash": "0xfd04036d4933d9267d2a02cd3d05165501ad5697200a4fa7872fa5e28ce7acf3",
          "transactionIndex": "0x8",
          "logIndex": "0x10",
          "removed": false
        }
      ],
      "logsBloom": "0x00000000000000000004000000000000000000000000000000000020000000000000000000000000000000100000000000000000000000000000000000600000000000000000000000000000000000000000000001000000000000000000000000000000000000000000000000000000000000000000000000000000000000000000000000000000000000000000000000000000000000000000000000002000020000000000008000000000000000000000000000000000000000000000000000000100000000000000000000000000000000000010000000000000000000000010000000000000000000000000000000000000000000000000000000000000",
      "type": "0x2",
      "transactionHash": "0xfd04036d4933d9267d2a02cd3d05165501ad5697200a4fa7872fa5e28ce7acf3",
      "transactionIndex": "0x8",
      "blockHash": "0xc7d2dc6da65da56e9f1ea83847322a46580e82e3d8347bdf0d2055deae7b72ba",
      "blockNumber": "0x17f6186",
      "gasUsed": "0xbbf8",
      "effectiveGasPrice": "0x3b9aca01",
      "from": "0x3b4f0135465d444a5bd06ab90fc59b73916c85f5",
      "to": "0x092eda418b2f2feeb86746206a8da9c7a4c4fa95",
      "contractAddress": null
    },
    {
      "status": "0x1",
      "cumulativeGasUsed": "0x23a4f0",
      "logs": [
        {
          "address": "0x092eda418b2f2feeb86746206a8da9c7a4c4fa95",
          "topics": [
            "0xddf252ad1be2c89b69c2b068fc378daa952ba7f163c4a11628f55a4df523b3ef",
            "0x0000000000000000000000003b4f0135465d444a5bd06ab90fc59b73916c85f5",
            "0x0000000000000000000000005ab3a2cb16b21dcfaf91cdb83ec96698fabe6a99"
          ],
          "data": "0x000000000000000000000000000000000000000000000013f0011c9a7f42487f",
          "blockHash": "0xc7d2dc6da65da56e9f1ea83847322a46580e82e3d8347bdf0d2055deae7b72ba",
          "blockNumber": "0x17f6186",
          "transactionHash": "0x54f72c826cb6ba3e2ae53d323d432128c8f5d3d1a2f265474b67f0816faa511c",
          "transactionIndex": "0x9",
          "logIndex": "0x11",
          "removed": false
        },
        {
          "address": "0x5ab3a2cb16b21dcfaf91cdb83ec96698fabe6a99",
          "topics": [
            "0x9d278c56ba6dc86a12eefe6b43112bd6e06648eb4ec0b950ee2d783d40e2acb4",
            "0x0000000000000000000000003b4f0135465d444a5bd06ab90fc59b73916c85f5"
          ],
          "data": "0x000000000000000000000000092eda418b2f2feeb86746206a8da9c7a4c4fa95000000000000000000000000000000000000000000000013f0011c9a7f42487f",
          "blockHash": "0xc7d2dc6da65da56e9f1ea83847322a46580e82e3d8347bdf0d2055deae7b72ba",
          "blockNumber": "0x17f6186",
          "transactionHash": "0x54f72c826cb6ba3e2ae53d323d432128c8f5d3d1a2f265474b67f0816faa511c",
          "transactionIndex": "0x9",
          "logIndex": "0x12",
          "removed": false
        }
      ],
      "logsBloom": "0x00000000000000000004000000000000000000000000002000000020000000000000000000000000000000100000000000000000000000000000000000400000000000000000000000000008000000000000000001000000000000001000000000000000000000000000000800000000000000000200000000000010000000000000000000000000000000000000000000000000000000000000000000002000000000000000008000000000000000000000000000000000000000000000000000000102000000000000000000000000000000000010000000000000000000000000000400000000040000000000000000000000000000000000000000000000",
      "type": "0x2",
      "transactionHash": "0x54f72c826cb6ba3e2ae53d323d432128c8f5d3d1a2f265474b67f0816faa511c",
      "transactionIndex": "0x9",
      "blockHash": "0xc7d2dc6da65da56e9f1ea83847322a46580e82e3d8347bdf0d2055deae7b72ba",
      "blockNumber": "0x17f6186",
      "gasUsed": "0x13f39",
      "effectiveGasPrice": "0x3b9aca01",
      "from": "0x3b4f0135465d444a5bd06ab90fc59b73916c85f5",
      "to": "0x5ab3a2cb16b21dcfaf91cdb83ec96698fabe6a99",
      "contractAddress": null
    },
    {
      "status": "0x1",
      "cumulativeGasUsed": "0x2d076e",
      "logs": [
        {
          "address": "0xe66022a565e01a4db313056e9f0d061a76020675",
          "topics": [
            "0xddf252ad1be2c89b69c2b068fc378daa952ba7f163c4a11628f55a4df523b3ef",
            "0x0000000000000000000000000000000000000000000000000000000000000000",
            "0x0000000000000000000000003b4f0135465d444a5bd06ab90fc59b73916c85f5"
          ],
          "data": "0x00000000000000000000000000000b7abc627050305adf14a3d9e40000000000",
          "blockHash": "0xc7d2dc6da65da56e9f1ea83847322a46580e82e3d8347bdf0d2055deae7b72ba",
          "blockNumber": "0x17f6186",
          "transactionHash": "0x006c73c544f548621a95aba6b61349880cd92a264ecbc0de740f196a09c771fb",
          "transactionIndex": "0xa",
          "logIndex": "0x13",
          "removed": false
        },
        {
          "address": "0xf17a1ea23f0a943c2016b5f2b8f656ada273a23c",
          "topics": [
            "0xaf5156078ffc09d447c818754d2e4310cc3f95e36cb33f85723785b122371ed5",
            "0x000000000000000000000000e66022a565e01a4db313056e9f0d061a76020675"
          ],
          "data": "0x00000000000000000000000000000000000000000000000000000000000000c0000000000000000000000000000000000000000000000000000000000000010000000000000000000000000000000000000000000000d3c21bcecceda100000000000000000000000000000000000000000000000000000000000000000000120000000000000000000000000000000000000000000000000186cc6acd4b00000000000000000000000000003b4f0135465d444a5bd06ab90fc59b73916c85f50000000000000000000000000000000000000000000000000000000000000004504550450000000000000000000000000000000000000000000000000000000000000000000000000000000000000000000000000000000000000000000000045045504500000000000000000000000000000000000000000000000000000000",
          "blockHash": "0xc7d2dc6da65da56e9f1ea83847322a46580e82e3d8347bdf0d2055deae7b72ba",
          "blockNumber": "0x17f6186",
          "transactionHash": "0x006c73c544f548621a95aba6b61349880cd92a264ecbc0de740f196a09c771fb",
          "transactionIndex": "0xa",
          "logIndex": "0x14",
          "removed": false
        }
      ],
      "logsBloom": "0x00000000000000000000000000000000000000040000000000000020000000000000000000000000000000000000000000000400000000000000000004400000000000000000000000000008000000000000000000000000000000000000000000000000020000000000000000000800000000000000000000000010000000000000000000000000000000000000400000001000000000000000000000000000000000000000000000000000000000000000000000000000002000000000000800000122010000000000000000000000200000000000000002000000000020000000000000000000000000000000000000000000000000000000000000002000",
      "type": "0x2",
      "transactionHash": "0x006c73c544f548621a95aba6b61349880cd92a264ecbc0de740f196a09c771fb",
      "transactionIndex": "0xa",
      "blockHash": "0xc7d2dc6da65da56e9f1ea83847322a46580e82e3d8347bdf0d2055deae7b72ba",
      "blockNumber": "0x17f6186",
      "gasUsed": "0x9627e",
      "effectiveGasPrice": "0x3b9aca01",
      "from": "0x3b4f0135465d444a5bd06ab90fc59b73916c85f5",
      "to": "0xf17a1ea23f0a943c2016b5f2b8f656ada273a23c",
      "contractAddress": null
    },
    {
      "status": "0x1",
      "cumulativeGasUsed": "0x2dc37f",
      "logs": [
        {
          "address": "0xe66022a565e01a4db313056e9f0d061a76020675",
          "topics": [
            "0x8c5be1e5ebec7d5bd14f71427d1e84f3dd0314c0f7b2291e5b200ac8c7c3b925",
            "0x0000000000000000000000003b4f0135465d444a5bd06ab90fc59b73916c85f5",
            "0x0000000000000000000000005ab3a2cb16b21dcfaf91cdb83ec96698fabe6a99"
          ],
          "data": "0x0000000000000000000000000000000000000000000785132b58012a71d1745d",
          "blockHash": "0xc7d2dc6da65da56e9f1ea83847322a46580e82e3d8347bdf0d2055deae7b72ba",
          "blockNumber": "0x17f6186",
          "transactionHash": "0xcff3ea32ed5be11c0c87fb1eb57789048612450898d626185778b729974503ba",
          "transactionIndex": "0xb",
          "logIndex": "0x15",
          "removed": false
        }
      ],
      "logsBloom": "0x00000000000000000004000000000000000000000000000000000020000000000000000000000000000000100000000000000400000000000000000000600000000000000000000000000000000000000000000000000000000000000000000000000000000000000000000000000000000000000000000000000000000000000000000000000000000000000000000000001000000000000000000000000000020000000000000000000000000000000000000000000000002000000000000000000100000000000000000000000000000000000010000000000000000000000010000000000000000000000000000000000000000000000000000000000000",
      "type": "0x2",
      "transactionHash": "0xcff3ea32ed5be11c0c87fb1eb57789048612450898d626185778b729974503ba",
      "transactionIndex": "0xb",
      "blockHash": "0xc7d2dc6da65da56e9f1ea83847322a46580e82e3d8347bdf0d2055deae7b72ba",
      "blockNumber": "0x17f6186",
      "gasUsed": "0xbc11",
      "effectiveGasPrice": "0x3b9aca01",
      "from": "0x3b4f0135465d444a5bd06ab90fc59b73916c85f5",
      "to": "0xe66022a565e01a4db313056e9f0d061a76020675",
      "contractAddress": null
    },
    {
      "status": "0x1",
      "cumulativeGasUsed": "0x2f02d1",
      "logs": [
        {
          "address": "0xe66022a565e01a4db313056e9f0d061a76020675",
          "topics": [
            "0xddf252ad1be2c89b69c2b068fc378daa952ba7f163c4a11628f55a4df523b3ef",
            "0x0000000000000000000000003b4f0135465d444a5bd06ab90fc59b73916c85f5",
            "0x0000000000000000000000005ab3a2cb16b21dcfaf91cdb83ec96698fabe6a99"
          ],
          "data": "0x0000000000000000000000000000000000000000000785132b58012a71d1745d",
          "blockHash": "0xc7d2dc6da65da56e9f1ea83847322a46580e82e3d8347bdf0d2055deae7b72ba",
          "blockNumber": "0x17f6186",
          "transactionHash": "0x2cdbe48e2da272e434eb602aae54438494f68dadb8544868d4fbc649cba372bf",
          "transactionIndex": "0xc",
          "logIndex": "0x16",
          "removed": false
        },
        {
          "address": "0x5ab3a2cb16b21dcfaf91cdb83ec96698fabe6a99",
          "topics": [
            "0x9d278c56ba6dc86a12eefe6b43112bd6e06648eb4ec0b950ee2d783d40e2acb4",
            "0x0000000000000000000000003b4f0135465d444a5bd06ab90fc59b73916c85f5"
          ],
          "data": "0x000000000000000000000000e66022a565e01a4db313056e9f0d061a760206750000000000000000000000000000000000000000000785132b58012a71d1745d",
          "blockHash": "0xc7d2dc6da65da56e9f1ea83847322a46580e82e3d8347bdf0d2055deae7b72ba",
          "blockNumber": "0x17f6186",
          "transactionHash": "0x2cdbe48e2da272e434eb602aae54438494f68dadb8544868d4fbc649cba372bf",
          "transactionIndex": "0xc",
          "logIndex": "0x17",
          "removed": false
        }
      ],
      "logsBloom": "0x00000000000000000004000000000000000000000000002000000020000000000000000000000000000000100000000000000400000000000000000000400000000000000000000000000008000000000000000000000000000000001000000000000000000000000000000800000000000000000200000000000010000000000000000000000000000000000000000000001000000000000000000000000000000000000000000000000000000000000000000000000000002000000000000000000102000000000000000000000000000000000010000000000000000000000000000400000000040000000000000000000000000000000000000000000000",
      "type": "0x2",
      "transactionHash": "0x2cdbe48e2da272e434eb602aae54438494f68dadb8544868d4fbc649cba372bf",
      "transactionIndex": "0xc",
      "blockHash": "0xc7d2dc6da65da56e9f1ea83847322a46580e82e3d8347bdf0d2055deae7b72ba",
      "blockNumber": "0x17f6186",
      "gasUsed": "0x13f52",
      "effectiveGasPrice": "0x3b9aca01",
      "from": "0x3b4f0135465d444a5bd06ab90fc59b73916c85f5",
      "to": "0x5ab3a2cb16b21dcfaf91cdb83ec96698fabe6a99",
      "contractAddress": null
    },
    {
      "status": "0x1",
      "cumulativeGasUsed": "0x3865e5",
      "logs": [
        {
          "address": "0xb589fad21abb69b2c7a6add0909038658e086cb9",
          "topics": [
            "0xddf252ad1be2c89b69c2b068fc378daa952ba7f163c4a11628f55a4df523b3ef",
            "0x0000000000000000000000000000000000000000000000000000000000000000",
            "0x0000000000000000000000003b4f0135465d444a5bd06ab90fc59b73916c85f5"
          ],
          "data": "0x00000000000000000000000000000b7abc627050305adf14a3d9e40000000000",
          "blockHash": "0xc7d2dc6da65da56e9f1ea83847322a46580e82e3d8347bdf0d2055deae7b72ba",
          "blockNumber": "0x17f6186",
          "transactionHash": "0x7cc3f63ed9a9676ad958f4eba323bac83830c875f9bc8358b3d6b99a3f4604e2",
          "transactionIndex": "0xd",
          "logIndex": "0x18",
          "removed": false
        },
        {
          "address": "0xf17a1ea23f0a943c2016b5f2b8f656ada273a23c",
          "topics": [
            "0xaf5156078ffc09d447c818754d2e4310cc3f95e36cb33f85723785b122371ed5",
            "0x000000000000000000000000b589fad21abb69b2c7a6add0909038658e086cb9"
          ],
          "data": "0x00000000000000000000000000000000000000000000000000000000000000c0000000000000000000000000000000000000000000000000000000000000010000000000000000000000000000000000000000000000d3c21bcecceda100000000000000000000000000000000000000000000000000000000000000000000120000000000000000000000000000000000000000000000564d702d38f5e000000000000000000000000000003b4f0135465d444a5bd06ab90fc59b73916c85f5000000000000000000000000000000000000000000000000000000000000000e4f4646494349414c205452554d5000000000000000000000000000000000000000000000000000000000000000000000000000000000000000000000000000055452554d50000000000000000000000000000000000000000000000000000000",
          "blockHash": "0xc7d2dc6da65da56e9f1ea83847322a46580e82e3d8347bdf0d2055deae7b72ba",
          "blockNumber": "0x17f6186",
          "transactionHash": "0x7cc3f63ed9a9676ad958f4eba323bac83830c875f9bc8358b3d6b99a3f4604e2",
          "transactionIndex": "0xd",
          "logIndex": "0x19",
          "removed": false
        }
      ],
      "logsBloom": "0x00000000000200000000001000020000000000040000000000000020000000000000000000000000000000000000000000000000000000000000000044400000000000000000000000000008000000000000000000000000000000000000000000000000020000000000000000000800002000000000000000000010000000000000000000000000000000000000400000000000000000000000000000000000000000000000000000000000000000000000000000000000800000000000000000000102000000000000000000000000200000000000000002000000000020000000000000000000000000000000000000000000000000000000000000002000",
      "type": "0x2",
      "transactionHash": "0x7cc3f63ed9a9676ad958f4eba323bac83830c875f9bc8358b3d6b99a3f4604e2",
      "transactionIndex": "0xd",
      "blockHash": "0xc7d2dc6da65da56e9f1ea83847322a46580e82e3d8347bdf0d2055deae7b72ba",
      "blockNumber": "0x17f6186",
      "gasUsed": "0x96314",
      "effectiveGasPrice": "0x3b9aca01",
      "from": "0x3b4f0135465d444a5bd06ab90fc59b73916c85f5",
      "to": "0xf17a1ea23f0a943c2016b5f2b8f656ada273a23c",
      "contractAddress": null
    },
    {
      "status": "0x1",
      "cumulativeGasUsed": "0x3921dd",
      "logs": [
        {
          "address": "0xb589fad21abb69b2c7a6add0909038658e086cb9",
          "topics": [
            "0x8c5be1e5ebec7d5bd14f71427d1e84f3dd0314c0f7b2291e5b200ac8c7c3b925",
            "0x0000000000000000000000003b4f0135465d444a5bd06ab90fc59b73916c85f5",
            "0x0000000000000000000000005ab3a2cb16b21dcfaf91cdb83ec96698fabe6a99"
          ],
          "data": "0x0000000000000000000000000000000000000000000000220d3411d131ca2172",
          "blockHash": "0xc7d2dc6da65da56e9f1ea83847322a46580e82e3d8347bdf0d2055deae7b72ba",
          "blockNumber": "0x17f6186",
          "transactionHash": "0x6daf07a36d8159c598c081a1595a9d8666a63e3ecb0a25829057fb179748f12f",
          "transactionIndex": "0xe",
          "logIndex": "0x1a",
          "removed": false
        }
      ],
      "logsBloom": "0x00000000000000000004000000020000000000000000000000000020000000000000000000000000000000100000000000000000000000000000000040600000000000000000000000000000000000000000000000000000000000000000000000000000000000000000000000000000002000000000000000000000000000000000000000000000000000000000000000000000000000000000000000000000020000000000000000000000000000000000000000000000000000000000000000000100000000000000000000000000000000000010000000000000000000000010000000000000000000000000000000000000000000000000000000000000",
      "type": "0x2",
      "transactionHash": "0x6daf07a36d8159c598c081a1595a9d8666a63e3ecb0a25829057fb179748f12f",
      "transactionIndex": "0xe",
      "blockHash": "0xc7d2dc6da65da56e9f1ea83847322a46580e82e3d8347bdf0d2055deae7b72ba",
      "blockNumber": "0x17f6186",
      "gasUsed": "0xbbf8",
      "effectiveGasPrice": "0x3b9aca01",
      "from": "0x3b4f0135465d444a5bd06ab90fc59b73916c85f5",
      "to": "0xb589fad21abb69b2c7a6add0909038658e086cb9",
      "contractAddress": null
    },
    {
      "status": "0x1",
      "cumulativeGasUsed": "0x3a6116",
      "logs": [
        {
          "address": "0xb589fad21abb69b2c7a6add0909038658e086cb9",
          "topics": [
            "0xddf252ad1be2c89b69c2b068fc378daa952ba7f163c4a11628f55a4df523b3ef",
            "0x0000000000000000000000003b4f0135465d444a5bd06ab90fc59b73916c85f5",
            "0x0000000000000000000000005ab3a2cb16b21dcfaf91cdb83ec96698fabe6a99"
          ],
          "data": "0x0000000000000000000000000000000000000000000000220d3411d131ca2172",
          "blockHash": "0xc7d2dc6da65da56e9f1ea83847322a46580e82e3d8347bdf0d2055deae7b72ba",
          "blockNumber": "0x17f6186",
          "transactionHash": "0x4f44bd68dc7017472ccea7f3b46b7438b2be8598a350ba410789ec458a9d99f0",
          "transactionIndex": "0xf",
          "logIndex": "0x1b",
          "removed": false
        },
        {
          "address": "0x5ab3a2cb16b21dcfaf91cdb83ec96698fabe6a99",
          "topics": [
            "0x9d278c56ba6dc86a12eefe6b43112bd6e06648eb4ec0b950ee2d783d40e2acb4",
            "0x0000000000000000000000003b4f0135465d444a5bd06ab90fc59b73916c85f5"
          ],
          "data": "0x000000000000000000000000b589fad21abb69b2c7a6add0909038658e086cb90000000000000000000000000000000000000000000000220d3411d131ca2172",
          "blockHash": "0xc7d2dc6da65da56e9f1ea83847322a46580e82e3d8347bdf0d2055deae7b72ba",
          "blockNumber": "0x17f6186",
          "transactionHash": "0x4f44bd68dc7017472ccea7f3b46b7438b2be8598a350ba410789ec458a9d99f0",
          "transactionIndex": "0xf",
          "logIndex": "0x1c",
          "removed": false
        }
      ],
      "logsBloom": "0x00000000000000000004000000020000000000000000002000000020000000000000000000000000000000100000000000000000000000000000000040400000000000000000000000000008000000000000000000000000000000001000000000000000000000000000000800000000002000000200000000000010000000000000000000000000000000000000000000000000000000000000000000000000000000000000000000000000000000000000000000000000000000000000000000000102000000000000000000000000000000000010000000000000000000000000000400000000040000000000000000000000000000000000000000000000",
      "type": "0x2",
      "transactionHash": "0x4f44bd68dc7017472ccea7f3b46b7438b2be8598a350ba410789ec458a9d99f0",
      "transactionIndex": "0xf",
      "blockHash": "0xc7d2dc6da65da56e9f1ea83847322a46580e82e3d8347bdf0d2055deae7b72ba",
      "blockNumber": "0x17f6186",
      "gasUsed": "0x13f39",
      "effectiveGasPrice": "0x3b9aca01",
      "from": "0x3b4f0135465d444a5bd06ab90fc59b73916c85f5",
      "to": "0x5ab3a2cb16b21dcfaf91cdb83ec96698fabe6a99",
      "contractAddress": null
    },
    {
      "status": "0x1",
      "cumulativeGasUsed": "0x43c3c6",
      "logs": [
        {
          "address": "0x50ec6cc6acf8784093e624c8949937c406f9f808",
          "topics": [
            "0xddf252ad1be2c89b69c2b068fc378daa952ba7f163c4a11628f55a4df523b3ef",
            "0x0000000000000000000000000000000000000000000000000000000000000000",
            "0x0000000000000000000000003b4f0135465d444a5bd06ab90fc59b73916c85f5"
          ],
          "data": "0x00000000000000000000000000000b7abc627050305adf14a3d9e40000000000",
          "blockHash": "0xc7d2dc6da65da56e9f1ea83847322a46580e82e3d8347bdf0d2055deae7b72ba",
          "blockNumber": "0x17f6186",
          "transactionHash": "0x6958de5a5173588e4481ac3b07642828296bfa19f4a351fa64608044ed5337ea",
          "transactionIndex": "0x10",
          "logIndex": "0x1d",
          "removed": false
        },
        {
          "address": "0xf17a1ea23f0a943c2016b5f2b8f656ada273a23c",
          "topics": [
            "0xaf5156078ffc09d447c818754d2e4310cc3f95e36cb33f85723785b122371ed5",
            "0x00000000000000000000000050ec6cc6acf8784093e624c8949937c406f9f808"
          ],
          "data": "0x00000000000000000000000000000000000000000000000000000000000000c0000000000000000000000000000000000000000000000000000000000000010000000000000000000000000000000000000000000000d3c21bcecceda1000000000000000000000000000000000000000000000000000000000000000000001200000000000000000000000000000000000000000000000000dc44abe81300000000000000000000000000003b4f0135465d444a5bd06ab90fc59b73916c85f50000000000000000000000000000000000000000000000000000000000000007444f4745204149000000000000000000000000000000000000000000000000000000000000000000000000000000000000000000000000000000000000000006444f474541490000000000000000000000000000000000000000000000000000",
          "blockHash": "0xc7d2dc6da65da56e9f1ea83847322a46580e82e3d8347bdf0d2055deae7b72ba",
          "blockNumber": "0x17f6186",
          "transactionHash": "0x6958de5a5173588e4481ac3b07642828296bfa19f4a351fa64608044ed5337ea",
          "transactionIndex": "0x10",
          "logIndex": "0x1e",
          "removed": false
        }
      ],
      "logsBloom": "0x00000000000000000000000000000000000000040000000000000020000000002000000000000000000000000000000000000000000000000000000004400000000000000000000000000008000000000000000000000000000000000000000000000000020000000000000000000a00000000000000000000000010000000000000000000040000000004000000400000000000000000000000000000000000000000000000000000000020000000000000000000000000000000000000000000000102000000000000001000000000200000000000000002000000000020000000000000000000000000000000000000000000000000000000000000002000",
      "type": "0x2",
      "transactionHash": "0x6958de5a5173588e4481ac3b07642828296bfa19f4a351fa64608044ed5337ea",
      "transactionIndex": "0x10",
      "blockHash": "0xc7d2dc6da65da56e9f1ea83847322a46580e82e3d8347bdf0d2055deae7b72ba",
      "blockNumber": "0x17f6186",
      "gasUsed": "0x962b0",
      "effectiveGasPrice": "0x3b9aca01",
      "from": "0x3b4f0135465d444a5bd06ab90fc59b73916c85f5",
      "to": "0xf17a1ea23f0a943c2016b5f2b8f656ada273a23c",
      "contractAddress": null
    },
    {
      "status": "0x1",
      "cumulativeGasUsed": "0x447fd7",
      "logs": [
        {
          "address": "0x50ec6cc6acf8784093e624c8949937c406f9f808",
          "topics": [
            "0x8c5be1e5ebec7d5bd14f71427d1e84f3dd0314c0f7b2291e5b200ac8c7c3b925",
            "0x0000000000000000000000003b4f0135465d444a5bd06ab90fc59b73916c85f5",
            "0x0000000000000000000000005ab3a2cb16b21dcfaf91cdb83ec96698fabe6a99"
          ],
          "data": "0x0000000000000000000000000000000000000000000d577497390a5390210842",
          "blockHash": "0xc7d2dc6da65da56e9f1ea83847322a46580e82e3d8347bdf0d2055deae7b72ba",
          "blockNumber": "0x17f6186",
          "transactionHash": "0x46593b7c896827332790c155cd2fdc4b7ca5c3751f9db751effb9587837e0243",
          "transactionIndex": "0x11",
          "logIndex": "0x1f",
          "removed": false
        }
      ],
      "logsBloom": "0x00000000000000000004000000000000000000000000000000000020000000000000000000000000000000100000000000000000000000000000000000600000000000000000000000000000000000000000000000000000000000000000000000000000000000000000000000000200000000000000000000000000000000000000000000000000000000000000000000000000000000000000000000000000020000000000000000000020000000000000000000000000000000000000000000000100000000000000001000000000000000000010000000000000000000000010000000000000000000000000000000000000000000000000000000000000",
      "type": "0x2",
      "transactionHash": "0x46593b7c896827332790c155cd2fdc4b7ca5c3751f9db751effb9587837e0243",
      "transactionIndex": "0x11",
      "blockHash": "0xc7d2dc6da65da56e9f1ea83847322a46580e82e3d8347bdf0d2055deae7b72ba",
      "blockNumber": "0x17f6186",
      "gasUsed": "0xbc11",
      "effectiveGasPrice": "0x3b9aca01",
      "from": "0x3b4f0135465d444a5bd06ab90fc59b73916c85f5",
      "to": "0x50ec6cc6acf8784093e624c8949937c406f9f808",
      "contractAddress": null
    },
    {
      "status": "0x1",
      "cumulativeGasUsed": "0x45bf29",
      "logs": [
        {
          "address": "0x50ec6cc6acf8784093e624c8949937c406f9f808",
          "topics": [
            "0xddf252ad1be2c89b69c2b068fc378daa952ba7f163c4a11628f55a4df523b3ef",
            "0x0000000000000000000000003b4f0135465d444a5bd06ab90fc59b73916c85f5",
            "0x0000000000000000000000005ab3a2cb16b21dcfaf91cdb83ec96698fabe6a99"
          ],
          "data": "0x0000000000000000000000000000000000000000000d577497390a5390210842",
          "blockHash": "0xc7d2dc6da65da56e9f1ea83847322a46580e82e3d8347bdf0d2055deae7b72ba",
          "blockNumber": "0x17f6186",
          "transactionHash": "0x4596c2bb8d31bd5561adc66174f4cb8a890b9da7f1c65a4e4529cc46b6daf620",
          "transactionIndex": "0x12",
          "logIndex": "0x20",
          "removed": false
        },
        {
          "address": "0x5ab3a2cb16b21dcfaf91cdb83ec96698fabe6a99",
          "topics": [
            "0x9d278c56ba6dc86a12eefe6b43112bd6e06648eb4ec0b950ee2d783d40e2acb4",
            "0x0000000000000000000000003b4f0135465d444a5bd06ab90fc59b73916c85f5"
          ],
          "data": "0x00000000000000000000000050ec6cc6acf8784093e624c8949937c406f9f8080000000000000000000000000000000000000000000d577497390a5390210842",
          "blockHash": "0xc7d2dc6da65da56e9f1ea83847322a46580e82e3d8347bdf0d2055deae7b72ba",
          "blockNumber": "0x17f6186",
          "transactionHash": "0x4596c2bb8d31bd5561adc66174f4cb8a890b9da7f1c65a4e4529cc46b6daf620",
          "transactionIndex": "0x12",
          "logIndex": "0x21",
          "removed": false
        }
      ],
      "logsBloom": "0x00000000000000000004000000000000000000000000002000000020000000000000000000000000000000100000000000000000000000000000000000400000000000000000000000000008000000000000000000000000000000001000000000000000000000000000000800000200000000000200000000000010000000000000000000000000000000000000000000000000000000000000000000000000000000000000000000000020000000000000000000000000000000000000000000000102000000000000001000000000000000000010000000000000000000000000000400000000040000000000000000000000000000000000000000000000",
      "type": "0x2",
      "transactionHash": "0x4596c2bb8d31bd5561adc66174f4cb8a890b9da7f1c65a4e4529cc46b6daf620",
      "transactionIndex": "0x12",
      "blockHash": "0xc7d2dc6da65da56e9f1ea83847322a46580e82e3d8347bdf0d2055deae7b72ba",
      "blockNumber": "0x17f6186",
      "gasUsed": "0x13f52",
      "effectiveGasPrice": "0x3b9aca01",
      "from": "0x3b4f0135465d444a5bd06ab90fc59b73916c85f5",
      "to": "0x5ab3a2cb16b21dcfaf91cdb83ec96698fabe6a99",
      "contractAddress": null
    },
    {
      "status": "0x1",
      "cumulativeGasUsed": "0x4f21d9",
      "logs": [
        {
          "address": "0x6bb2620f3967c277b446e83d074767f18c4e1c58",
          "topics": [
            "0xddf252ad1be2c89b69c2b068fc378daa952ba7f163c4a11628f55a4df523b3ef",
            "0x0000000000000000000000000000000000000000000000000000000000000000",
            "0x0000000000000000000000003b4f0135465d444a5bd06ab90fc59b73916c85f5"
          ],
          "data": "0x00000000000000000000000000000b7abc627050305adf14a3d9e40000000000",
          "blockHash": "0xc7d2dc6da65da56e9f1ea83847322a46580e82e3d8347bdf0d2055deae7b72ba",
          "blockNumber": "0x17f6186",
          "transactionHash": "0x310517552b308accf78ed8b1b35124f294224a09b1d56f8edd298149d19f5889",
          "transactionIndex": "0x13",
          "logIndex": "0x22",
          "removed": false
        },
        {
          "address": "0xf17a1ea23f0a943c2016b5f2b8f656ada273a23c",
          "topics": [
            "0xaf5156078ffc09d447c818754d2e4310cc3f95e36cb33f85723785b122371ed5",
            "0x0000000000000000000000006bb2620f3967c277b446e83d074767f18c4e1c58"
          ],
          "data": "0x00000000000000000000000000000000000000000000000000000000000000c0000000000000000000000000000000000000000000000000000000000000010000000000000000000000000000000000000000000000d3c21bcecceda100000000000000000000000000000000000000000000000000000000000000000000120000000000000000000000000000000000000000000000000aaf96eb9d0d00000000000000000000000000003b4f0135465d444a5bd06ab90fc59b73916c85f50000000000000000000000000000000000000000000000000000000000000009646f67776966686174000000000000000000000000000000000000000000000000000000000000000000000000000000000000000000000000000000000000035749460000000000000000000000000000000000000000000000000000000000",
          "blockHash": "0xc7d2dc6da65da56e9f1ea83847322a46580e82e3d8347bdf0d2055deae7b72ba",
          "blockNumber": "0x17f6186",
          "transactionHash": "0x310517552b308accf78ed8b1b35124f294224a09b1d56f8edd298149d19f5889",
          "transactionIndex": "0x13",
          "logIndex": "0x23",
          "removed": false
        }
      ],
      "logsBloom": "0x00000000000000000000000000000000000000040000000000000020000000000000000000000000000000000000000000000000000000000000000004400000000000000000000004000008000000040000000000000000000000000000000000000000020000000000000000000800100000000000000000000010000000000000000000000000200000000000400000000000000000000000000000000000000000000000000000000000000000000000000000000000000000000000000000000102000000000000000000000000200000000000000002000400000020000000000000000000000000000000000000080000000000000000000000002000",
      "type": "0x2",
      "transactionHash": "0x310517552b308accf78ed8b1b35124f294224a09b1d56f8edd298149d19f5889",
      "transactionIndex": "0x13",
      "blockHash": "0xc7d2dc6da65da56e9f1ea83847322a46580e82e3d8347bdf0d2055deae7b72ba",
      "blockNumber": "0x17f6186",
      "gasUsed": "0x962b0",
      "effectiveGasPrice": "0x3b9aca01",
      "from": "0x3b4f0135465d444a5bd06ab90fc59b73916c85f5",
      "to": "0xf17a1ea23f0a943c2016b5f2b8f656ada273a23c",
      "contractAddress": null
    },
    {
      "status": "0x1",
      "cumulativeGasUsed": "0x4fddea",
      "logs": [
        {
          "address": "0x6bb2620f3967c277b446e83d074767f18c4e1c58",
          "topics": [
            "0x8c5be1e5ebec7d5bd14f71427d1e84f3dd0314c0f7b2291e5b200ac8c7c3b925",
            "0x0000000000000000000000003b4f0135465d444a5bd06ab90fc59b73916c85f5",
            "0x0000000000000000000000005ab3a2cb16b21dcfaf91cdb83ec96698fabe6a99"
          ],
          "data": "0x000000000000000000000000000000000000000000011302bd0c9273c71dec0d",
          "blockHash": "0xc7d2dc6da65da56e9f1ea83847322a46580e82e3d8347bdf0d2055deae7b72ba",
          "blockNumber": "0x17f6186",
          "transactionHash": "0x4c2dd9c923688034c0dd4e1ee61292b55a1ce0a2fbeef82d4f07d05c02e20476",
          "transactionIndex": "0x14",
          "logIndex": "0x24",
          "removed": false
        }
      ],
      "logsBloom": "0x00000000000000000004000000000000000000000000000000000020000000000000000000000000000000100000000000000000000000000000000000600000000000000000000004000000000000040000000000000000000000000000000000000000000000000000000000000000000000000000000000000000000000000000000000000000200000000000000000000000000000000000000000000000020000000000000000000000000000000000000000000000000000000000000000000100000000000000000000000000000000000010000000000000000000000010000000000000000000000000000000000000000000000000000000000000",
      "type": "0x2",
      "transactionHash": "0x4c2dd9c923688034c0dd4e1ee61292b55a1ce0a2fbeef82d4f07d05c02e20476",
      "transactionIndex": "0x14",
      "blockHash": "0xc7d2dc6da65da56e9f1ea83847322a46580e82e3d8347bdf0d2055deae7b72ba",
      "blockNumber": "0x17f6186",
      "gasUsed": "0xbc11",
      "effectiveGasPrice": "0x3b9aca01",
      "from": "0x3b4f0135465d444a5bd06ab90fc59b73916c85f5",
      "to": "0x6bb2620f3967c277b446e83d074767f18c4e1c58",
      "contractAddress": null
    },
    {
      "status": "0x1",
      "cumulativeGasUsed": "0x511d3c",
      "logs": [
        {
          "address": "0x6bb2620f3967c277b446e83d074767f18c4e1c58",
          "topics": [
            "0xddf252ad1be2c89b69c2b068fc378daa952ba7f163c4a11628f55a4df523b3ef",
            "0x0000000000000000000000003b4f0135465d444a5bd06ab90fc59b73916c85f5",
            "0x0000000000000000000000005ab3a2cb16b21dcfaf91cdb83ec96698fabe6a99"
          ],
          "data": "0x000000000000000000000000000000000000000000011302bd0c9273c71dec0d",
          "blockHash": "0xc7d2dc6da65da56e9f1ea83847322a46580e82e3d8347bdf0d2055deae7b72ba",
          "blockNumber": "0x17f6186",
          "transactionHash": "0xa85c0b751974fd00430f34e303d1f70ea67a4bf9c961c331762047f5ac548963",
          "transactionIndex": "0x15",
          "logIndex": "0x25",
          "removed": false
        },
        {
          "address": "0x5ab3a2cb16b21dcfaf91cdb83ec96698fabe6a99",
          "topics": [
            "0x9d278c56ba6dc86a12eefe6b43112bd6e06648eb4ec0b950ee2d783d40e2acb4",
            "0x0000000000000000000000003b4f0135465d444a5bd06ab90fc59b73916c85f5"
          ],
          "data": "0x0000000000000000000000006bb2620f3967c277b446e83d074767f18c4e1c58000000000000000000000000000000000000000000011302bd0c9273c71dec0d",
          "blockHash": "0xc7d2dc6da65da56e9f1ea83847322a46580e82e3d8347bdf0d2055deae7b72ba",
          "blockNumber": "0x17f6186",
          "transactionHash": "0xa85c0b751974fd00430f34e303d1f70ea67a4bf9c961c331762047f5ac548963",
          "transactionIndex": "0x15",
          "logIndex": "0x26",
          "removed": false
        }
      ],
      "logsBloom": "0x00000000000000000004000000000000000000000000002000000020000000000000000000000000000000100000000000000000000000000000000000400000000000000000000004000008000000040000000000000000000000001000000000000000000000000000000800000000000000000200000000000010000000000000000000000000200000000000000000000000000000000000000000000000000000000000000000000000000000000000000000000000000000000000000000000102000000000000000000000000000000000010000000000000000000000000000400000000040000000000000000000000000000000000000000000000",
      "type": "0x2",
      "transactionHash": "0xa85c0b751974fd00430f34e303d1f70ea67a4bf9c961c331762047f5ac548963",
      "transactionIndex": "0x15",
      "blockHash": "0xc7d2dc6da65da56e9f1ea83847322a46580e82e3d8347bdf0d2055deae7b72ba",
      "blockNumber": "0x17f6186",
      "gasUsed": "0x13f52",
      "effectiveGasPrice": "0x3b9aca01",
      "from": "0x3b4f0135465d444a5bd06ab90fc59b73916c85f5",
      "to": "0x5ab3a2cb16b21dcfaf91cdb83ec96698fabe6a99",
      "contractAddress": null
    },
    {
      "status": "0x1",
      "cumulativeGasUsed": "0x5a6d37",
      "logs": [
        {
          "address": "0x6c45a072fac0d9c08f5bf8f392818c5eb64afcfa",
          "topics": [
            "0xddf252ad1be2c89b69c2b068fc378daa952ba7f163c4a11628f55a4df523b3ef",
            "0x0000000000000000000000000000000000000000000000000000000000000000",
            "0x0000000000000000000000003b4f0135465d444a5bd06ab90fc59b73916c85f5"
          ],
          "data": "0x00000000000000000000000000000b7abc627050305adf14a3d9e40000000000",
          "blockHash": "0xc7d2dc6da65da56e9f1ea83847322a46580e82e3d8347bdf0d2055deae7b72ba",
          "blockNumber": "0x17f6186",
          "transactionHash": "0x664f1131eb6e5dc9c64b2284baabc3062dcc0050b1ee01113ee102b2476dc554",
          "transactionIndex": "0x16",
          "logIndex": "0x27",
          "removed": false
        },
        {
          "address": "0xf17a1ea23f0a943c2016b5f2b8f656ada273a23c",
          "topics": [
            "0xaf5156078ffc09d447c818754d2e4310cc3f95e36cb33f85723785b122371ed5",
            "0x0000000000000000000000006c45a072fac0d9c08f5bf8f392818c5eb64afcfa"
          ],
          "data": "0x00000000000000000000000000000000000000000000000000000000000000c0000000000000000000000000000000000000000000000000000000000000010000000000000000000000000000000000000000000000d3c21bcecceda1000000000000000000000000000000000000000000000000000000000000000000001200000000000000000000000000000000000000000000000000b1a2bc2ec500000000000000000000000000003b4f0135465d444a5bd06ab90fc59b73916c85f5000000000000000000000000000000000000000000000000000000000000000653544f4e4b530000000000000000000000000000000000000000000000000000000000000000000000000000000000000000000000000000000000000000000653544f4e4b530000000000000000000000000000000000000000000000000000",
          "blockHash": "0xc7d2dc6da65da56e9f1ea83847322a46580e82e3d8347bdf0d2055deae7b72ba",
          "blockNumber": "0x17f6186",
          "transactionHash": "0x664f1131eb6e5dc9c64b2284baabc3062dcc0050b1ee01113ee102b2476dc554",
          "transactionIndex": "0x16",
          "logIndex": "0x28",
          "removed": false
        }
      ],
      "logsBloom": "0x00000000000000000000000000000000000000040000000000000020000000000000000000000000000000000000000000000000000000000000000004400000000000000000000000000008000000000000000000000000000000000000000000000000020000000000000000000800080000001000000000000010008000000011000000000000000000000000400000000000000000000000000000000000000000000000000000000000000004000000000000000000000000000000000000000102000000000000000000000000200000000000000002000000000020000000000000000000000000000000000000000000000000000000000000002000",
      "type": "0x2",
      "transactionHash": "0x664f1131eb6e5dc9c64b2284baabc3062dcc0050b1ee01113ee102b2476dc554",
      "transactionIndex": "0x16",
      "blockHash": "0xc7d2dc6da65da56e9f1ea83847322a46580e82e3d8347bdf0d2055deae7b72ba",
      "blockNumber": "0x17f6186",
      "gasUsed": "0x94ffb",
      "effectiveGasPrice": "0x3b9aca01",
      "from": "0x3b4f0135465d444a5bd06ab90fc59b73916c85f5",
      "to": "0xf17a1ea23f0a943c2016b5f2b8f656ada273a23c",
      "contractAddress": null
    },
    {
      "status": "0x1",
      "cumulativeGasUsed": "0x5b27ac",
      "logs": [
        {
          "address": "0x6c45a072fac0d9c08f5bf8f392818c5eb64afcfa",
          "topics": [
            "0x8c5be1e5ebec7d5bd14f71427d1e84f3dd0314c0f7b2291e5b200ac8c7c3b925",
            "0x0000000000000000000000003b4f0135465d444a5bd06ab90fc59b73916c85f5",
            "0x0000000000000000000000005ab3a2cb16b21dcfaf91cdb83ec96698fabe6a99"
          ],
          "data": "0x000000000000000000000000000000000000000000108b2a2c28029094000000",
          "blockHash": "0xc7d2dc6da65da56e9f1ea83847322a46580e82e3d8347bdf0d2055deae7b72ba",
          "blockNumber": "0x17f6186",
          "transactionHash": "0xe332d6598e9199b04d581d72e4cf3cfec28f0ca2b99b224a70e67791a5a39fb3",
          "transactionIndex": "0x17",
          "logIndex": "0x29",
          "removed": false
        }
      ],
      "logsBloom": "0x00000000000000000004000000000000000000000000000000000020000000000000000000000000000000100000000000000000000000000000000000600000000000000000000000000000000000000000000000000000000000000000000000000000000000000000000000000000080000001000000000000000000000000001000000000000000000000000000000000000000000000000000000000000020000000000000000000000000000000000000000000000000000000000000000000100000000000000000000000000000000000010000000000000000000000010000000000000000000000000000000000000000000000000000000000000",
      "type": "0x2",
      "transactionHash": "0xe332d6598e9199b04d581d72e4cf3cfec28f0ca2b99b224a70e67791a5a39fb3",
      "transactionIndex": "0x17",
      "blockHash": "0xc7d2dc6da65da56e9f1ea83847322a46580e82e3d8347bdf0d2055deae7b72ba",
      "blockNumber": "0x17f6186",
      "gasUsed": "0xba75",
      "effectiveGasPrice": "0x3b9aca01",
      "from": "0x3b4f0135465d444a5bd06ab90fc59b73916c85f5",
      "to": "0x6c45a072fac0d9c08f5bf8f392818c5eb64afcfa",
      "contractAddress": null
    },
    {
      "status": "0x1",
      "cumulativeGasUsed": "0x5c695c",
      "logs": [
        {
          "address": "0x6c45a072fac0d9c08f5bf8f392818c5eb64afcfa",
          "topics": [
            "0xddf252ad1be2c89b69c2b068fc378daa952ba7f163c4a11628f55a4df523b3ef",
            "0x0000000000000000000000003b4f0135465d444a5bd06ab90fc59b73916c85f5",
            "0x0000000000000000000000005ab3a2cb16b21dcfaf91cdb83ec96698fabe6a99"
          ],
          "data": "0x000000000000000000000000000000000000000000108b2a2c28029094000000",
          "blockHash": "0xc7d2dc6da65da56e9f1ea83847322a46580e82e3d8347bdf0d2055deae7b72ba",
          "blockNumber": "0x17f6186",
          "transactionHash": "0x62050fd0a3ee40cc50882039258b9a730ce1f8460f2987b4f6bfc735a1d4b0a7",
          "transactionIndex": "0x18",
          "logIndex": "0x2a",
          "removed": false
        },
        {
          "address": "0x5ab3a2cb16b21dcfaf91cdb83ec96698fabe6a99",
          "topics": [
            "0x9d278c56ba6dc86a12eefe6b43112bd6e06648eb4ec0b950ee2d783d40e2acb4",
            "0x0000000000000000000000003b4f0135465d444a5bd06ab90fc59b73916c85f5"
          ],
          "data": "0x0000000000000000000000006c45a072fac0d9c08f5bf8f392818c5eb64afcfa000000000000000000000000000000000000000000108b2a2c28029094000000",
          "blockHash": "0xc7d2dc6da65da56e9f1ea83847322a46580e82e3d8347bdf0d2055deae7b72ba",
          "blockNumber": "0x17f6186",
          "transactionHash": "0x62050fd0a3ee40cc50882039258b9a730ce1f8460f2987b4f6bfc735a1d4b0a7",
          "transactionIndex": "0x18",
          "logIndex": "0x2b",
          "removed": false
        }
      ],
      "logsBloom": "0x00000000000000000004000000000000000000000000002000000020000000000000000000000000000000100000000000000000000000000000000000400000000000000000000000000008000000000000000000000000000000001000000000000000000000000000000800000000080000001200000000000010000000000001000000000000000000000000000000000000000000000000000000000000000000000000000000000000000000000000000000000000000000000000000000000102000000000000000000000000000000000010000000000000000000000000000400000000040000000000000000000000000000000000000000000000",
      "type": "0x2",
      "transactionHash": "0x62050fd0a3ee40cc50882039258b9a730ce1f8460f2987b4f6bfc735a1d4b0a7",
      "transactionIndex": "0x18",
      "blockHash": "0xc7d2dc6da65da56e9f1ea83847322a46580e82e3d8347bdf0d2055deae7b72ba",
      "blockNumber": "0x17f6186",
      "gasUsed": "0x141b0",
      "effectiveGasPrice": "0x3b9aca01",
      "from": "0x3b4f0135465d444a5bd06ab90fc59b73916c85f5",
      "to": "0x5ab3a2cb16b21dcfaf91cdb83ec96698fabe6a99",
      "contractAddress": null
    }
  ],
  "libraries": [],
  "pending": [],
  "returns": {},
  "timestamp": 1741374327,
  "chain": 57054,
  "commit": "f079722"
}