{
  "transactions": [
    {
      "hash": "0x2719e0a7277bcf6b97c81f1a4f1d4c5d3787b16e5e5680dce7d62e6511ecb7ad",
      "transactionType": "CREATE",
      "contractName": "TokenFactory",
      "contractAddress": "0x70ae701459304f3f776fe711df2697f54f7dc138",
      "function": null,
      "arguments": null,
      "transaction": {
        "from": "0x3b4f0135465d444a5bd06ab90fc59b73916c85f5",
        "gas": "0x11f45b",
        "value": "0x0",
        "input": "0x6080604052348015600e575f5ffd5b50610f658061001c5f395ff3fe608060405234801561000f575f5ffd5b5060043610610029575f3560e01c8063b64acddd1461002d575b5f5ffd5b61004061003b366004610197565b61005c565b6040516001600160a01b03909116815260200160405180910390f35b5f5f858585853360405161006f906100eb565b61007d95949392919061024a565b604051809103905ff080158015610096573d5f5f3e3d5ffd5b509050806001600160a01b03167fafab5d1d74bae8c6b34c8932c5a93db45757bef8a5b14b76f11aa2cdd5cb9be587878787336040516100da95949392919061024a565b60405180910390a295945050505050565b610c978061029983390190565b634e487b7160e01b5f52604160045260245ffd5b5f82601f83011261011b575f5ffd5b813567ffffffffffffffff811115610135576101356100f8565b604051601f8201601f19908116603f0116810167ffffffffffffffff81118282101715610164576101646100f8565b60405281815283820160200185101561017b575f5ffd5b816020850160208301375f918101602001919091529392505050565b5f5f5f5f608085870312156101aa575f5ffd5b843567ffffffffffffffff8111156101c0575f5ffd5b6101cc8782880161010c565b945050602085013567ffffffffffffffff8111156101e8575f5ffd5b6101f48782880161010c565b93505060408501359150606085013560ff81168114610211575f5ffd5b939692955090935050565b5f81518084528060208401602086015e5f602082860101526020601f19601f83011685010191505092915050565b60a081525f61025c60a083018861021c565b828103602084015261026e818861021c565b6040840196909652505060ff9290921660608301526001600160a01b03166080909101529291505056fe608060405234801561000f575f5ffd5b50604051610c97380380610c9783398101604081905261002e91610288565b8484600361003c83826103b1565b50600461004982826103b1565b50506005805460ff191660ff851690811790915561007e9150829061006f90600a610564565b6100799086610576565b610088565b50505050506105a0565b6001600160a01b0382166100b65760405163ec442f0560e01b81525f60048201526024015b60405180910390fd5b6100c15f83836100c5565b5050565b6001600160a01b0383166100ef578060025f8282546100e4919061058d565b9091555061015f9050565b6001600160a01b0383165f90815260208190526040902054818110156101415760405163391434e360e21b81526001600160a01b038516600482015260248101829052604481018390526064016100ad565b6001600160a01b0384165f9081526020819052604090209082900390555b6001600160a01b03821661017b57600280548290039055610199565b6001600160a01b0382165f9081526020819052604090208054820190555b816001600160a01b0316836001600160a01b03167fddf252ad1be2c89b69c2b068fc378daa952ba7f163c4a11628f55a4df523b3ef836040516101de91815260200190565b60405180910390a3505050565b634e487b7160e01b5f52604160045260245ffd5b5f82601f83011261020e575f5ffd5b81516001600160401b03811115610227576102276101eb565b604051601f8201601f19908116603f011681016001600160401b0381118282101715610255576102556101eb565b60405281815283820160200185101561026c575f5ffd5b8160208501602083015e5f918101602001919091529392505050565b5f5f5f5f5f60a0868803121561029c575f5ffd5b85516001600160401b038111156102b1575f5ffd5b6102bd888289016101ff565b602088015190965090506001600160401b038111156102da575f5ffd5b6102e6888289016101ff565b94505060408601519250606086015160ff81168114610303575f5ffd5b60808701519092506001600160a01b038116811461031f575f5ffd5b809150509295509295909350565b600181811c9082168061034157607f821691505b60208210810361035f57634e487b7160e01b5f52602260045260245ffd5b50919050565b601f8211156103ac57805f5260205f20601f840160051c8101602085101561038a5750805b601f840160051c820191505b818110156103a9575f8155600101610396565b50505b505050565b81516001600160401b038111156103ca576103ca6101eb565b6103de816103d8845461032d565b84610365565b6020601f821160018114610410575f83156103f95750848201515b5f19600385901b1c1916600184901b1784556103a9565b5f84815260208120601f198516915b8281101561043f578785015182556020948501946001909201910161041f565b508482101561045c57868401515f19600387901b60f8161c191681555b50505050600190811b01905550565b634e487b7160e01b5f52601160045260245ffd5b6001815b60018411156104ba5780850481111561049e5761049e61046b565b60018416156104ac57908102905b60019390931c928002610483565b935093915050565b5f826104d05750600161055e565b816104dc57505f61055e565b81600181146104f257600281146104fc57610518565b600191505061055e565b60ff84111561050d5761050d61046b565b50506001821b61055e565b5060208310610133831016604e8410600b841016171561053b575081810a61055e565b6105475f19848461047f565b805f190482111561055a5761055a61046b565b0290505b92915050565b5f61056f83836104c2565b9392505050565b808202811582820484141761055e5761055e61046b565b8082018082111561055e5761055e61046b565b6106ea806105ad5f395ff3fe608060405234801561000f575f5ffd5b5060043610610090575f3560e01c8063313ce56711610063578063313ce567146100fa57806370a082311461010f57806395d89b4114610137578063a9059cbb1461013f578063dd62ed3e14610152575f5ffd5b806306fdde0314610094578063095ea7b3146100b257806318160ddd146100d557806323b872dd146100e7575b5f5ffd5b61009c61018a565b6040516100a9919061055a565b60405180910390f35b6100c56100c03660046105aa565b61021a565b60405190151581526020016100a9565b6002545b6040519081526020016100a9565b6100c56100f53660046105d2565b610233565b60055460405160ff90911681526020016100a9565b6100d961011d36600461060c565b6001600160a01b03165f9081526020819052604090205490565b61009c610256565b6100c561014d3660046105aa565b610265565b6100d961016036600461062c565b6001600160a01b039182165f90815260016020908152604080832093909416825291909152205490565b6060600380546101999061065d565b80601f01602080910402602001604051908101604052809291908181526020018280546101c59061065d565b80156102105780601f106101e757610100808354040283529160200191610210565b820191905f5260205f20905b8154815290600101906020018083116101f357829003601f168201915b5050505050905090565b5f33610227818585610272565b60019150505b92915050565b5f33610240858285610284565b61024b858585610305565b506001949350505050565b6060600480546101999061065d565b5f33610227818585610305565b61027f8383836001610362565b505050565b6001600160a01b038381165f908152600160209081526040808320938616835292905220545f198110156102ff57818110156102f157604051637dc7a0d960e11b81526001600160a01b038416600482015260248101829052604481018390526064015b60405180910390fd5b6102ff84848484035f610362565b50505050565b6001600160a01b03831661032e57604051634b637e8f60e11b81525f60048201526024016102e8565b6001600160a01b0382166103575760405163ec442f0560e01b81525f60048201526024016102e8565b61027f838383610434565b6001600160a01b03841661038b5760405163e602df0560e01b81525f60048201526024016102e8565b6001600160a01b0383166103b457604051634a1406b160e11b81525f60048201526024016102e8565b6001600160a01b038085165f90815260016020908152604080832093871683529290522082905580156102ff57826001600160a01b0316846001600160a01b03167f8c5be1e5ebec7d5bd14f71427d1e84f3dd0314c0f7b2291e5b200ac8c7c3b9258460405161042691815260200190565b60405180910390a350505050565b6001600160a01b03831661045e578060025f8282546104539190610695565b909155506104ce9050565b6001600160a01b0383165f90815260208190526040902054818110156104b05760405163391434e360e21b81526001600160a01b038516600482015260248101829052604481018390526064016102e8565b6001600160a01b0384165f9081526020819052604090209082900390555b6001600160a01b0382166104ea57600280548290039055610508565b6001600160a01b0382165f9081526020819052604090208054820190555b816001600160a01b0316836001600160a01b03167fddf252ad1be2c89b69c2b068fc378daa952ba7f163c4a11628f55a4df523b3ef8360405161054d91815260200190565b60405180910390a3505050565b602081525f82518060208401528060208501604085015e5f604082850101526040601f19601f83011684010191505092915050565b80356001600160a01b03811681146105a5575f5ffd5b919050565b5f5f604083850312156105bb575f5ffd5b6105c48361058f565b946020939093013593505050565b5f5f5f606084860312156105e4575f5ffd5b6105ed8461058f565b92506105fb6020850161058f565b929592945050506040919091013590565b5f6020828403121561061c575f5ffd5b6106258261058f565b9392505050565b5f5f6040838503121561063d575f5ffd5b6106468361058f565b91506106546020840161058f565b90509250929050565b600181811c9082168061067157607f821691505b60208210810361068f57634e487b7160e01b5f52602260045260245ffd5b50919050565b8082018082111561022d57634e487b7160e01b5f52601160045260245ffdfea26469706673582212201b6bfe7ff3424d331f36ed33bc76c5c4832bc0464bc6dc2c54b3e8d902e89bd964736f6c634300081c0033a26469706673582212200163591eaaadbbddde15b59a6deddf68311c1a29ef9c703f1cfa87a4155220e864736f6c634300081c0033",
        "nonce": "0x47",
        "chainId": "0xdede"
      },
      "additionalContracts": [],
      "isFixedGasLimit": false
    },
    {
      "hash": "0x387c6b6b451ed3b5054ec5c2e462df180b67f5d488c1c9c5be1e564980c8f036",
      "transactionType": "CREATE",
      "contractName": "Core",
      "contractAddress": "0xc0170724e3da0221403354ac228478efb735c6ba",
      "function": null,
      "arguments": null,
      "transaction": {
        "from": "0x3b4f0135465d444a5bd06ab90fc59b73916c85f5",
        "gas": "0x6f0d3",
        "value": "0x0",
        "input": "0x6080604052348015600e575f5ffd5b5061055c8061001c5f395ff3fe608060405234801561000f575f5ffd5b506004361061003f575f3560e01c8063b8c876b114610043578063df791e5014610074578063f4069cba14610087575b5f5ffd5b61006261005136600461042e565b5f6020819052908152604090205481565b60405190815260200160405180910390f35b61006261008236600461044e565b61009c565b61009a610095366004610488565b6103e3565b005b5f6001600160a01b038416158015906100bd57506001600160a01b03831615155b6101065760405162461bcd60e51b8152602060048201526015602482015274496e76616c696420746f6b656e206164647265737360581b60448201526064015b60405180910390fd5b5f82116101555760405162461bcd60e51b815260206004820181905260248201527f416d6f756e74206d7573742062652067726561746572207468616e207a65726f60448201526064016100fd565b6001600160a01b0384165f908152602081905260409020546101c45760405162461bcd60e51b815260206004820152602260248201527f496e73756666696369656e74206c697175696469747920666f7220746f6b656e60448201526124b760f11b60648201526084016100fd565b6001600160a01b0383165f908152602081905260409020546102345760405162461bcd60e51b815260206004820152602360248201527f496e73756666696369656e74206c697175696469747920666f7220746f6b656e60448201526213dd5d60ea1b60648201526084016100fd565b6001600160a01b038085165f9081526020819052604080822054928616825290205461026090846104c4565b61026a91906104e1565b90505f81116102c95760405162461bcd60e51b815260206004820152602560248201527f5377617020616d6f756e74206d7573742062652067726561746572207468616e604482015264207a65726f60d81b60648201526084016100fd565b6001600160a01b0383165f908152602081905260409020548111156103305760405162461bcd60e51b815260206004820152601f60248201527f496e73756666696369656e74206c697175696469747920666f7220737761700060448201526064016100fd565b6001600160a01b0384165f9081526020819052604081208054849290610357908490610500565b90915550506001600160a01b0383165f9081526020819052604081208054839290610383908490610500565b9091555050604080516001600160a01b038087168252851660208201529081018390526060810182905233907fcd3829a3813dc3cdd188fd3d01dcf3268c16be2fdd2dd21d0665418816e460629060800160405180910390a29392505050565b6001600160a01b0382165f908152602081905260408120805483929061040a908490610513565b90915550505050565b80356001600160a01b0381168114610429575f5ffd5b919050565b5f6020828403121561043e575f5ffd5b61044782610413565b9392505050565b5f5f5f60608486031215610460575f5ffd5b61046984610413565b925061047760208501610413565b929592945050506040919091013590565b5f5f60408385031215610499575f5ffd5b6104a283610413565b946020939093013593505050565b634e487b7160e01b5f52601160045260245ffd5b80820281158282048414176104db576104db6104b0565b92915050565b5f826104fb57634e487b7160e01b5f52601260045260245ffd5b500490565b818103818111156104db576104db6104b0565b808201808211156104db576104db6104b056fea264697066735822122042dcd289bc8377555ab7383dfe85f35568235beaed8ced952d15df2614e5320a64736f6c634300081c0033",
        "nonce": "0x48",
        "chainId": "0xdede"
      },
      "additionalContracts": [],
      "isFixedGasLimit": false
    },
    {
      "hash": "0xf2e4add9f9db2682fc359f2346144df22e1df9bf62c27a964a5a4d6f6ec7f5a5",
      "transactionType": "CALL",
      "contractName": "TokenFactory",
      "contractAddress": "0x70ae701459304f3f776fe711df2697f54f7dc138",
      "function": "createToken(string,string,uint256,uint8)",
      "arguments": [
        "SONIC",
        "S",
        "1000000000000000000000000000",
        "18"
      ],
      "transaction": {
        "from": "0x3b4f0135465d444a5bd06ab90fc59b73916c85f5",
        "to": "0x70ae701459304f3f776fe711df2697f54f7dc138",
        "gas": "0xbd564",
        "value": "0x0",
        "input": "0xb64acddd000000000000000000000000000000000000000000000000000000000000008000000000000000000000000000000000000000000000000000000000000000c00000000000000000000000000000000000000000033b2e3c9fd0803ce800000000000000000000000000000000000000000000000000000000000000000000120000000000000000000000000000000000000000000000000000000000000005534f4e494300000000000000000000000000000000000000000000000000000000000000000000000000000000000000000000000000000000000000000000015300000000000000000000000000000000000000000000000000000000000000",
        "nonce": "0x49",
        "chainId": "0xdede"
      },
      "additionalContracts": [
        {
          "transactionType": "CREATE",
          "address": "0x8f006d2412649903309e12fad079dfcb100b0e10",
          "initCode": "0x608060405234801561000f575f5ffd5b50604051610c97380380610c9783398101604081905261002e91610288565b8484600361003c83826103b1565b50600461004982826103b1565b50506005805460ff191660ff851690811790915561007e9150829061006f90600a610564565b6100799086610576565b610088565b50505050506105a0565b6001600160a01b0382166100b65760405163ec442f0560e01b81525f60048201526024015b60405180910390fd5b6100c15f83836100c5565b5050565b6001600160a01b0383166100ef578060025f8282546100e4919061058d565b9091555061015f9050565b6001600160a01b0383165f90815260208190526040902054818110156101415760405163391434e360e21b81526001600160a01b038516600482015260248101829052604481018390526064016100ad565b6001600160a01b0384165f9081526020819052604090209082900390555b6001600160a01b03821661017b57600280548290039055610199565b6001600160a01b0382165f9081526020819052604090208054820190555b816001600160a01b0316836001600160a01b03167fddf252ad1be2c89b69c2b068fc378daa952ba7f163c4a11628f55a4df523b3ef836040516101de91815260200190565b60405180910390a3505050565b634e487b7160e01b5f52604160045260245ffd5b5f82601f83011261020e575f5ffd5b81516001600160401b03811115610227576102276101eb565b604051601f8201601f19908116603f011681016001600160401b0381118282101715610255576102556101eb565b60405281815283820160200185101561026c575f5ffd5b8160208501602083015e5f918101602001919091529392505050565b5f5f5f5f5f60a0868803121561029c575f5ffd5b85516001600160401b038111156102b1575f5ffd5b6102bd888289016101ff565b602088015190965090506001600160401b038111156102da575f5ffd5b6102e6888289016101ff565b94505060408601519250606086015160ff81168114610303575f5ffd5b60808701519092506001600160a01b038116811461031f575f5ffd5b809150509295509295909350565b600181811c9082168061034157607f821691505b60208210810361035f57634e487b7160e01b5f52602260045260245ffd5b50919050565b601f8211156103ac57805f5260205f20601f840160051c8101602085101561038a5750805b601f840160051c820191505b818110156103a9575f8155600101610396565b50505b505050565b81516001600160401b038111156103ca576103ca6101eb565b6103de816103d8845461032d565b84610365565b6020601f821160018114610410575f83156103f95750848201515b5f19600385901b1c1916600184901b1784556103a9565b5f84815260208120601f198516915b8281101561043f578785015182556020948501946001909201910161041f565b508482101561045c57868401515f19600387901b60f8161c191681555b50505050600190811b01905550565b634e487b7160e01b5f52601160045260245ffd5b6001815b60018411156104ba5780850481111561049e5761049e61046b565b60018416156104ac57908102905b60019390931c928002610483565b935093915050565b5f826104d05750600161055e565b816104dc57505f61055e565b81600181146104f257600281146104fc57610518565b600191505061055e565b60ff84111561050d5761050d61046b565b50506001821b61055e565b5060208310610133831016604e8410600b841016171561053b575081810a61055e565b6105475f19848461047f565b805f190482111561055a5761055a61046b565b0290505b92915050565b5f61056f83836104c2565b9392505050565b808202811582820484141761055e5761055e61046b565b8082018082111561055e5761055e61046b565b6106ea806105ad5f395ff3fe608060405234801561000f575f5ffd5b5060043610610090575f3560e01c8063313ce56711610063578063313ce567146100fa57806370a082311461010f57806395d89b4114610137578063a9059cbb1461013f578063dd62ed3e14610152575f5ffd5b806306fdde0314610094578063095ea7b3146100b257806318160ddd146100d557806323b872dd146100e7575b5f5ffd5b61009c61018a565b6040516100a9919061055a565b60405180910390f35b6100c56100c03660046105aa565b61021a565b60405190151581526020016100a9565b6002545b6040519081526020016100a9565b6100c56100f53660046105d2565b610233565b60055460405160ff90911681526020016100a9565b6100d961011d36600461060c565b6001600160a01b03165f9081526020819052604090205490565b61009c610256565b6100c561014d3660046105aa565b610265565b6100d961016036600461062c565b6001600160a01b039182165f90815260016020908152604080832093909416825291909152205490565b6060600380546101999061065d565b80601f01602080910402602001604051908101604052809291908181526020018280546101c59061065d565b80156102105780601f106101e757610100808354040283529160200191610210565b820191905f5260205f20905b8154815290600101906020018083116101f357829003601f168201915b5050505050905090565b5f33610227818585610272565b60019150505b92915050565b5f33610240858285610284565b61024b858585610305565b506001949350505050565b6060600480546101999061065d565b5f33610227818585610305565b61027f8383836001610362565b505050565b6001600160a01b038381165f908152600160209081526040808320938616835292905220545f198110156102ff57818110156102f157604051637dc7a0d960e11b81526001600160a01b038416600482015260248101829052604481018390526064015b60405180910390fd5b6102ff84848484035f610362565b50505050565b6001600160a01b03831661032e57604051634b637e8f60e11b81525f60048201526024016102e8565b6001600160a01b0382166103575760405163ec442f0560e01b81525f60048201526024016102e8565b61027f838383610434565b6001600160a01b03841661038b5760405163e602df0560e01b81525f60048201526024016102e8565b6001600160a01b0383166103b457604051634a1406b160e11b81525f60048201526024016102e8565b6001600160a01b038085165f90815260016020908152604080832093871683529290522082905580156102ff57826001600160a01b0316846001600160a01b03167f8c5be1e5ebec7d5bd14f71427d1e84f3dd0314c0f7b2291e5b200ac8c7c3b9258460405161042691815260200190565b60405180910390a350505050565b6001600160a01b03831661045e578060025f8282546104539190610695565b909155506104ce9050565b6001600160a01b0383165f90815260208190526040902054818110156104b05760405163391434e360e21b81526001600160a01b038516600482015260248101829052604481018390526064016102e8565b6001600160a01b0384165f9081526020819052604090209082900390555b6001600160a01b0382166104ea57600280548290039055610508565b6001600160a01b0382165f9081526020819052604090208054820190555b816001600160a01b0316836001600160a01b03167fddf252ad1be2c89b69c2b068fc378daa952ba7f163c4a11628f55a4df523b3ef8360405161054d91815260200190565b60405180910390a3505050565b602081525f82518060208401528060208501604085015e5f604082850101526040601f19601f83011684010191505092915050565b80356001600160a01b03811681146105a5575f5ffd5b919050565b5f5f604083850312156105bb575f5ffd5b6105c48361058f565b946020939093013593505050565b5f5f5f606084860312156105e4575f5ffd5b6105ed8461058f565b92506105fb6020850161058f565b929592945050506040919091013590565b5f6020828403121561061c575f5ffd5b6106258261058f565b9392505050565b5f5f6040838503121561063d575f5ffd5b6106468361058f565b91506106546020840161058f565b90509250929050565b600181811c9082168061067157607f821691505b60208210810361068f57634e487b7160e01b5f52602260045260245ffd5b50919050565b8082018082111561022d57634e487b7160e01b5f52601160045260245ffdfea26469706673582212201b6bfe7ff3424d331f36ed33bc76c5c4832bc0464bc6dc2c54b3e8d902e89bd964736f6c634300081c003300000000000000000000000000000000000000000000000000000000000000a000000000000000000000000000000000000000000000000000000000000000e00000000000000000000000000000000000000000033b2e3c9fd0803ce800000000000000000000000000000000000000000000000000000000000000000000120000000000000000000000003b4f0135465d444a5bd06ab90fc59b73916c85f50000000000000000000000000000000000000000000000000000000000000005534f4e494300000000000000000000000000000000000000000000000000000000000000000000000000000000000000000000000000000000000000000000015300000000000000000000000000000000000000000000000000000000000000"
        }
      ],
      "isFixedGasLimit": false
    },
    {
      "hash": "0xd8d58b5e98233b1c7be6ee5252e568539b758fe7d8abaeaf747f402f474a3d3c",
      "transactionType": "CALL",
      "contractName": "MockToken",
      "contractAddress": "0x8f006d2412649903309e12fad079dfcb100b0e10",
      "function": "approve(address,uint256)",
      "arguments": [
        "0xc0170724E3DA0221403354Ac228478EfB735c6ba",
        "131000000000000000000000"
      ],
      "transaction": {
        "from": "0x3b4f0135465d444a5bd06ab90fc59b73916c85f5",
        "to": "0x8f006d2412649903309e12fad079dfcb100b0e10",
        "gas": "0xfa4b",
        "value": "0x0",
        "input": "0x095ea7b3000000000000000000000000c0170724e3da0221403354ac228478efb735c6ba000000000000000000000000000000000000000000001bbd8633ec40ebe00000",
        "nonce": "0x4a",
        "chainId": "0xdede"
      },
      "additionalContracts": [],
      "isFixedGasLimit": false
    },
    {
      "hash": "0x0bbaf8e136cbf29e439f068aee5fc1b974c27ddbd27cd176b2f67ecb64fbbcf5",
      "transactionType": "CALL",
      "contractName": "Core",
      "contractAddress": "0xc0170724e3da0221403354ac228478efb735c6ba",
      "function": "setLiquidity(address,uint256)",
      "arguments": [
        "0x8f006D2412649903309E12faD079dfcB100B0E10",
        "131000000000000000000000"
      ],
      "transaction": {
        "from": "0x3b4f0135465d444a5bd06ab90fc59b73916c85f5",
        "to": "0xc0170724e3da0221403354ac228478efb735c6ba",
        "gas": "0xfcfa",
        "value": "0x0",
        "input": "0xf4069cba0000000000000000000000008f006d2412649903309e12fad079dfcb100b0e10000000000000000000000000000000000000000000001bbd8633ec40ebe00000",
        "nonce": "0x4b",
        "chainId": "0xdede"
      },
      "additionalContracts": [],
      "isFixedGasLimit": false
    },
    {
      "hash": "0xa23e7b2f9864363eecaa4d7b296504fb3c4618962b9efd965bebc5a092162b33",
      "transactionType": "CALL",
      "contractName": "TokenFactory",
      "contractAddress": "0x70ae701459304f3f776fe711df2697f54f7dc138",
      "function": "createToken(string,string,uint256,uint8)",
      "arguments": [
        "USD Coin",
        "USDC",
        "1000000000000000",
        "6"
      ],
      "transaction": {
        "from": "0x3b4f0135465d444a5bd06ab90fc59b73916c85f5",
        "to": "0x70ae701459304f3f776fe711df2697f54f7dc138",
        "gas": "0xb2d48",
        "value": "0x0",
        "input": "0xb64acddd000000000000000000000000000000000000000000000000000000000000008000000000000000000000000000000000000000000000000000000000000000c000000000000000000000000000000000000000000000000000038d7ea4c680000000000000000000000000000000000000000000000000000000000000000006000000000000000000000000000000000000000000000000000000000000000855534420436f696e00000000000000000000000000000000000000000000000000000000000000000000000000000000000000000000000000000000000000045553444300000000000000000000000000000000000000000000000000000000",
        "nonce": "0x4c",
        "chainId": "0xdede"
      },
      "additionalContracts": [
        {
          "transactionType": "CREATE",
          "address": "0xadb7cd770fb002c772fdd43f01556474baed9af7",
          "initCode": "0x608060405234801561000f575f5ffd5b50604051610c97380380610c9783398101604081905261002e91610288565b8484600361003c83826103b1565b50600461004982826103b1565b50506005805460ff191660ff851690811790915561007e9150829061006f90600a610564565b6100799086610576565b610088565b50505050506105a0565b6001600160a01b0382166100b65760405163ec442f0560e01b81525f60048201526024015b60405180910390fd5b6100c15f83836100c5565b5050565b6001600160a01b0383166100ef578060025f8282546100e4919061058d565b9091555061015f9050565b6001600160a01b0383165f90815260208190526040902054818110156101415760405163391434e360e21b81526001600160a01b038516600482015260248101829052604481018390526064016100ad565b6001600160a01b0384165f9081526020819052604090209082900390555b6001600160a01b03821661017b57600280548290039055610199565b6001600160a01b0382165f9081526020819052604090208054820190555b816001600160a01b0316836001600160a01b03167fddf252ad1be2c89b69c2b068fc378daa952ba7f163c4a11628f55a4df523b3ef836040516101de91815260200190565b60405180910390a3505050565b634e487b7160e01b5f52604160045260245ffd5b5f82601f83011261020e575f5ffd5b81516001600160401b03811115610227576102276101eb565b604051601f8201601f19908116603f011681016001600160401b0381118282101715610255576102556101eb565b60405281815283820160200185101561026c575f5ffd5b8160208501602083015e5f918101602001919091529392505050565b5f5f5f5f5f60a0868803121561029c575f5ffd5b85516001600160401b038111156102b1575f5ffd5b6102bd888289016101ff565b602088015190965090506001600160401b038111156102da575f5ffd5b6102e6888289016101ff565b94505060408601519250606086015160ff81168114610303575f5ffd5b60808701519092506001600160a01b038116811461031f575f5ffd5b809150509295509295909350565b600181811c9082168061034157607f821691505b60208210810361035f57634e487b7160e01b5f52602260045260245ffd5b50919050565b601f8211156103ac57805f5260205f20601f840160051c8101602085101561038a5750805b601f840160051c820191505b818110156103a9575f8155600101610396565b50505b505050565b81516001600160401b038111156103ca576103ca6101eb565b6103de816103d8845461032d565b84610365565b6020601f821160018114610410575f83156103f95750848201515b5f19600385901b1c1916600184901b1784556103a9565b5f84815260208120601f198516915b8281101561043f578785015182556020948501946001909201910161041f565b508482101561045c57868401515f19600387901b60f8161c191681555b50505050600190811b01905550565b634e487b7160e01b5f52601160045260245ffd5b6001815b60018411156104ba5780850481111561049e5761049e61046b565b60018416156104ac57908102905b60019390931c928002610483565b935093915050565b5f826104d05750600161055e565b816104dc57505f61055e565b81600181146104f257600281146104fc57610518565b600191505061055e565b60ff84111561050d5761050d61046b565b50506001821b61055e565b5060208310610133831016604e8410600b841016171561053b575081810a61055e565b6105475f19848461047f565b805f190482111561055a5761055a61046b565b0290505b92915050565b5f61056f83836104c2565b9392505050565b808202811582820484141761055e5761055e61046b565b8082018082111561055e5761055e61046b565b6106ea806105ad5f395ff3fe608060405234801561000f575f5ffd5b5060043610610090575f3560e01c8063313ce56711610063578063313ce567146100fa57806370a082311461010f57806395d89b4114610137578063a9059cbb1461013f578063dd62ed3e14610152575f5ffd5b806306fdde0314610094578063095ea7b3146100b257806318160ddd146100d557806323b872dd146100e7575b5f5ffd5b61009c61018a565b6040516100a9919061055a565b60405180910390f35b6100c56100c03660046105aa565b61021a565b60405190151581526020016100a9565b6002545b6040519081526020016100a9565b6100c56100f53660046105d2565b610233565b60055460405160ff90911681526020016100a9565b6100d961011d36600461060c565b6001600160a01b03165f9081526020819052604090205490565b61009c610256565b6100c561014d3660046105aa565b610265565b6100d961016036600461062c565b6001600160a01b039182165f90815260016020908152604080832093909416825291909152205490565b6060600380546101999061065d565b80601f01602080910402602001604051908101604052809291908181526020018280546101c59061065d565b80156102105780601f106101e757610100808354040283529160200191610210565b820191905f5260205f20905b8154815290600101906020018083116101f357829003601f168201915b5050505050905090565b5f33610227818585610272565b60019150505b92915050565b5f33610240858285610284565b61024b858585610305565b506001949350505050565b6060600480546101999061065d565b5f33610227818585610305565b61027f8383836001610362565b505050565b6001600160a01b038381165f908152600160209081526040808320938616835292905220545f198110156102ff57818110156102f157604051637dc7a0d960e11b81526001600160a01b038416600482015260248101829052604481018390526064015b60405180910390fd5b6102ff84848484035f610362565b50505050565b6001600160a01b03831661032e57604051634b637e8f60e11b81525f60048201526024016102e8565b6001600160a01b0382166103575760405163ec442f0560e01b81525f60048201526024016102e8565b61027f838383610434565b6001600160a01b03841661038b5760405163e602df0560e01b81525f60048201526024016102e8565b6001600160a01b0383166103b457604051634a1406b160e11b81525f60048201526024016102e8565b6001600160a01b038085165f90815260016020908152604080832093871683529290522082905580156102ff57826001600160a01b0316846001600160a01b03167f8c5be1e5ebec7d5bd14f71427d1e84f3dd0314c0f7b2291e5b200ac8c7c3b9258460405161042691815260200190565b60405180910390a350505050565b6001600160a01b03831661045e578060025f8282546104539190610695565b909155506104ce9050565b6001600160a01b0383165f90815260208190526040902054818110156104b05760405163391434e360e21b81526001600160a01b038516600482015260248101829052604481018390526064016102e8565b6001600160a01b0384165f9081526020819052604090209082900390555b6001600160a01b0382166104ea57600280548290039055610508565b6001600160a01b0382165f9081526020819052604090208054820190555b816001600160a01b0316836001600160a01b03167fddf252ad1be2c89b69c2b068fc378daa952ba7f163c4a11628f55a4df523b3ef8360405161054d91815260200190565b60405180910390a3505050565b602081525f82518060208401528060208501604085015e5f604082850101526040601f19601f83011684010191505092915050565b80356001600160a01b03811681146105a5575f5ffd5b919050565b5f5f604083850312156105bb575f5ffd5b6105c48361058f565b946020939093013593505050565b5f5f5f606084860312156105e4575f5ffd5b6105ed8461058f565b92506105fb6020850161058f565b929592945050506040919091013590565b5f6020828403121561061c575f5ffd5b6106258261058f565b9392505050565b5f5f6040838503121561063d575f5ffd5b6106468361058f565b91506106546020840161058f565b90509250929050565b600181811c9082168061067157607f821691505b60208210810361068f57634e487b7160e01b5f52602260045260245ffd5b50919050565b8082018082111561022d57634e487b7160e01b5f52601160045260245ffdfea26469706673582212201b6bfe7ff3424d331f36ed33bc76c5c4832bc0464bc6dc2c54b3e8d902e89bd964736f6c634300081c003300000000000000000000000000000000000000000000000000000000000000a000000000000000000000000000000000000000000000000000000000000000e000000000000000000000000000000000000000000000000000038d7ea4c6800000000000000000000000000000000000000000000000000000000000000000060000000000000000000000003b4f0135465d444a5bd06ab90fc59b73916c85f5000000000000000000000000000000000000000000000000000000000000000855534420436f696e00000000000000000000000000000000000000000000000000000000000000000000000000000000000000000000000000000000000000045553444300000000000000000000000000000000000000000000000000000000"
        }
      ],
      "isFixedGasLimit": false
    },
    {
      "hash": "0xb8a367faf16ec3225fd915cb4aaf518b0eaef6c8aa4f65ed8aede57d186ed5fe",
      "transactionType": "CALL",
      "contractName": "MockToken",
      "contractAddress": "0xadb7cd770fb002c772fdd43f01556474baed9af7",
      "function": "approve(address,uint256)",
      "arguments": [
        "0xc0170724E3DA0221403354Ac228478EfB735c6ba",
        "131000000000"
      ],
      "transaction": {
        "from": "0x3b4f0135465d444a5bd06ab90fc59b73916c85f5",
        "to": "0xadb7cd770fb002c772fdd43f01556474baed9af7",
        "gas": "0xfa09",
        "value": "0x0",
        "input": "0x095ea7b3000000000000000000000000c0170724e3da0221403354ac228478efb735c6ba0000000000000000000000000000000000000000000000000000001e80355e00",
        "nonce": "0x4d",
        "chainId": "0xdede"
      },
      "additionalContracts": [],
      "isFixedGasLimit": false
    },
    {
      "hash": "0x1f63931c0561f7418a1b5ccec88a424e3341da20227a99047d6c657dcfb2b7aa",
      "transactionType": "CALL",
      "contractName": "Core",
      "contractAddress": "0xc0170724e3da0221403354ac228478efb735c6ba",
      "function": "setLiquidity(address,uint256)",
      "arguments": [
        "0xAdB7cd770fb002C772fDd43f01556474baEd9AF7",
        "131000000000"
      ],
      "transaction": {
        "from": "0x3b4f0135465d444a5bd06ab90fc59b73916c85f5",
        "to": "0xc0170724e3da0221403354ac228478efb735c6ba",
        "gas": "0xeeba",
        "value": "0x0",
        "input": "0xf4069cba000000000000000000000000adb7cd770fb002c772fdd43f01556474baed9af70000000000000000000000000000000000000000000000000000001e80355e00",
        "nonce": "0x4e",
        "chainId": "0xdede"
      },
      "additionalContracts": [],
      "isFixedGasLimit": false
    },
    {
      "hash": "0x6c5f50db46f49868c3859f723016e7e476e9e8312362625494bd0918f3d07935",
      "transactionType": "CALL",
      "contractName": "TokenFactory",
      "contractAddress": "0x70ae701459304f3f776fe711df2697f54f7dc138",
      "function": "createToken(string,string,uint256,uint8)",
      "arguments": [
        "Tether USD",
        "USDT",
        "1000000000000000",
        "6"
      ],
      "transaction": {
        "from": "0x3b4f0135465d444a5bd06ab90fc59b73916c85f5",
        "to": "0x70ae701459304f3f776fe711df2697f54f7dc138",
        "gas": "0xb2d69",
        "value": "0x0",
        "input": "0xb64acddd000000000000000000000000000000000000000000000000000000000000008000000000000000000000000000000000000000000000000000000000000000c000000000000000000000000000000000000000000000000000038d7ea4c680000000000000000000000000000000000000000000000000000000000000000006000000000000000000000000000000000000000000000000000000000000000a546574686572205553440000000000000000000000000000000000000000000000000000000000000000000000000000000000000000000000000000000000045553445400000000000000000000000000000000000000000000000000000000",
        "nonce": "0x4f",
        "chainId": "0xdede"
      },
      "additionalContracts": [
        {
          "transactionType": "CREATE",
          "address": "0x0e1f5ec1769c0456fa780dbb25197baf5dfc8b54",
          "initCode": "0x608060405234801561000f575f5ffd5b50604051610c97380380610c9783398101604081905261002e91610288565b8484600361003c83826103b1565b50600461004982826103b1565b50506005805460ff191660ff851690811790915561007e9150829061006f90600a610564565b6100799086610576565b610088565b50505050506105a0565b6001600160a01b0382166100b65760405163ec442f0560e01b81525f60048201526024015b60405180910390fd5b6100c15f83836100c5565b5050565b6001600160a01b0383166100ef578060025f8282546100e4919061058d565b9091555061015f9050565b6001600160a01b0383165f90815260208190526040902054818110156101415760405163391434e360e21b81526001600160a01b038516600482015260248101829052604481018390526064016100ad565b6001600160a01b0384165f9081526020819052604090209082900390555b6001600160a01b03821661017b57600280548290039055610199565b6001600160a01b0382165f9081526020819052604090208054820190555b816001600160a01b0316836001600160a01b03167fddf252ad1be2c89b69c2b068fc378daa952ba7f163c4a11628f55a4df523b3ef836040516101de91815260200190565b60405180910390a3505050565b634e487b7160e01b5f52604160045260245ffd5b5f82601f83011261020e575f5ffd5b81516001600160401b03811115610227576102276101eb565b604051601f8201601f19908116603f011681016001600160401b0381118282101715610255576102556101eb565b60405281815283820160200185101561026c575f5ffd5b8160208501602083015e5f918101602001919091529392505050565b5f5f5f5f5f60a0868803121561029c575f5ffd5b85516001600160401b038111156102b1575f5ffd5b6102bd888289016101ff565b602088015190965090506001600160401b038111156102da575f5ffd5b6102e6888289016101ff565b94505060408601519250606086015160ff81168114610303575f5ffd5b60808701519092506001600160a01b038116811461031f575f5ffd5b809150509295509295909350565b600181811c9082168061034157607f821691505b60208210810361035f57634e487b7160e01b5f52602260045260245ffd5b50919050565b601f8211156103ac57805f5260205f20601f840160051c8101602085101561038a5750805b601f840160051c820191505b818110156103a9575f8155600101610396565b50505b505050565b81516001600160401b038111156103ca576103ca6101eb565b6103de816103d8845461032d565b84610365565b6020601f821160018114610410575f83156103f95750848201515b5f19600385901b1c1916600184901b1784556103a9565b5f84815260208120601f198516915b8281101561043f578785015182556020948501946001909201910161041f565b508482101561045c57868401515f19600387901b60f8161c191681555b50505050600190811b01905550565b634e487b7160e01b5f52601160045260245ffd5b6001815b60018411156104ba5780850481111561049e5761049e61046b565b60018416156104ac57908102905b60019390931c928002610483565b935093915050565b5f826104d05750600161055e565b816104dc57505f61055e565b81600181146104f257600281146104fc57610518565b600191505061055e565b60ff84111561050d5761050d61046b565b50506001821b61055e565b5060208310610133831016604e8410600b841016171561053b575081810a61055e565b6105475f19848461047f565b805f190482111561055a5761055a61046b565b0290505b92915050565b5f61056f83836104c2565b9392505050565b808202811582820484141761055e5761055e61046b565b8082018082111561055e5761055e61046b565b6106ea806105ad5f395ff3fe608060405234801561000f575f5ffd5b5060043610610090575f3560e01c8063313ce56711610063578063313ce567146100fa57806370a082311461010f57806395d89b4114610137578063a9059cbb1461013f578063dd62ed3e14610152575f5ffd5b806306fdde0314610094578063095ea7b3146100b257806318160ddd146100d557806323b872dd146100e7575b5f5ffd5b61009c61018a565b6040516100a9919061055a565b60405180910390f35b6100c56100c03660046105aa565b61021a565b60405190151581526020016100a9565b6002545b6040519081526020016100a9565b6100c56100f53660046105d2565b610233565b60055460405160ff90911681526020016100a9565b6100d961011d36600461060c565b6001600160a01b03165f9081526020819052604090205490565b61009c610256565b6100c561014d3660046105aa565b610265565b6100d961016036600461062c565b6001600160a01b039182165f90815260016020908152604080832093909416825291909152205490565b6060600380546101999061065d565b80601f01602080910402602001604051908101604052809291908181526020018280546101c59061065d565b80156102105780601f106101e757610100808354040283529160200191610210565b820191905f5260205f20905b8154815290600101906020018083116101f357829003601f168201915b5050505050905090565b5f33610227818585610272565b60019150505b92915050565b5f33610240858285610284565b61024b858585610305565b506001949350505050565b6060600480546101999061065d565b5f33610227818585610305565b61027f8383836001610362565b505050565b6001600160a01b038381165f908152600160209081526040808320938616835292905220545f198110156102ff57818110156102f157604051637dc7a0d960e11b81526001600160a01b038416600482015260248101829052604481018390526064015b60405180910390fd5b6102ff84848484035f610362565b50505050565b6001600160a01b03831661032e57604051634b637e8f60e11b81525f60048201526024016102e8565b6001600160a01b0382166103575760405163ec442f0560e01b81525f60048201526024016102e8565b61027f838383610434565b6001600160a01b03841661038b5760405163e602df0560e01b81525f60048201526024016102e8565b6001600160a01b0383166103b457604051634a1406b160e11b81525f60048201526024016102e8565b6001600160a01b038085165f90815260016020908152604080832093871683529290522082905580156102ff57826001600160a01b0316846001600160a01b03167f8c5be1e5ebec7d5bd14f71427d1e84f3dd0314c0f7b2291e5b200ac8c7c3b9258460405161042691815260200190565b60405180910390a350505050565b6001600160a01b03831661045e578060025f8282546104539190610695565b909155506104ce9050565b6001600160a01b0383165f90815260208190526040902054818110156104b05760405163391434e360e21b81526001600160a01b038516600482015260248101829052604481018390526064016102e8565b6001600160a01b0384165f9081526020819052604090209082900390555b6001600160a01b0382166104ea57600280548290039055610508565b6001600160a01b0382165f9081526020819052604090208054820190555b816001600160a01b0316836001600160a01b03167fddf252ad1be2c89b69c2b068fc378daa952ba7f163c4a11628f55a4df523b3ef8360405161054d91815260200190565b60405180910390a3505050565b602081525f82518060208401528060208501604085015e5f604082850101526040601f19601f83011684010191505092915050565b80356001600160a01b03811681146105a5575f5ffd5b919050565b5f5f604083850312156105bb575f5ffd5b6105c48361058f565b946020939093013593505050565b5f5f5f606084860312156105e4575f5ffd5b6105ed8461058f565b92506105fb6020850161058f565b929592945050506040919091013590565b5f6020828403121561061c575f5ffd5b6106258261058f565b9392505050565b5f5f6040838503121561063d575f5ffd5b6106468361058f565b91506106546020840161058f565b90509250929050565b600181811c9082168061067157607f821691505b60208210810361068f57634e487b7160e01b5f52602260045260245ffd5b50919050565b8082018082111561022d57634e487b7160e01b5f52601160045260245ffdfea26469706673582212201b6bfe7ff3424d331f36ed33bc76c5c4832bc0464bc6dc2c54b3e8d902e89bd964736f6c634300081c003300000000000000000000000000000000000000000000000000000000000000a000000000000000000000000000000000000000000000000000000000000000e000000000000000000000000000000000000000000000000000038d7ea4c6800000000000000000000000000000000000000000000000000000000000000000060000000000000000000000003b4f0135465d444a5bd06ab90fc59b73916c85f5000000000000000000000000000000000000000000000000000000000000000a546574686572205553440000000000000000000000000000000000000000000000000000000000000000000000000000000000000000000000000000000000045553445400000000000000000000000000000000000000000000000000000000"
        }
      ],
      "isFixedGasLimit": false
    },
    {
      "hash": "0x8c9d7d4eb5f2b0bf5f85564e46dbec1443314fc314316ba17f2d8274e043ab66",
      "transactionType": "CALL",
      "contractName": "MockToken",
      "contractAddress": "0x0e1f5ec1769c0456fa780dbb25197baf5dfc8b54",
      "function": "approve(address,uint256)",
      "arguments": [
        "0xc0170724E3DA0221403354Ac228478EfB735c6ba",
        "131000000000"
      ],
      "transaction": {
        "from": "0x3b4f0135465d444a5bd06ab90fc59b73916c85f5",
        "to": "0x0e1f5ec1769c0456fa780dbb25197baf5dfc8b54",
        "gas": "0xfa09",
        "value": "0x0",
        "input": "0x095ea7b3000000000000000000000000c0170724e3da0221403354ac228478efb735c6ba0000000000000000000000000000000000000000000000000000001e80355e00",
        "nonce": "0x50",
        "chainId": "0xdede"
      },
      "additionalContracts": [],
      "isFixedGasLimit": false
    },
    {
      "hash": "0x7b2ad4442f4039853f07b7f4c5a07643addc623811e5083cccebb2a129cb598b",
      "transactionType": "CALL",
      "contractName": "Core",
      "contractAddress": "0xc0170724e3da0221403354ac228478efb735c6ba",
      "function": "setLiquidity(address,uint256)",
      "arguments": [
        "0x0E1F5ec1769c0456FA780dBB25197Baf5dfc8b54",
        "131000000000"
      ],
      "transaction": {
        "from": "0x3b4f0135465d444a5bd06ab90fc59b73916c85f5",
        "to": "0xc0170724e3da0221403354ac228478efb735c6ba",
        "gas": "0xeeba",
        "value": "0x0",
        "input": "0xf4069cba0000000000000000000000000e1f5ec1769c0456fa780dbb25197baf5dfc8b540000000000000000000000000000000000000000000000000000001e80355e00",
        "nonce": "0x51",
        "chainId": "0xdede"
      },
      "additionalContracts": [],
      "isFixedGasLimit": false
    },
    {
      "hash": "0x9ed07af5396fa94cb245ef3b3797fcf048ce74d6b3fe551478204b4b4aa521b8",
      "transactionType": "CALL",
      "contractName": "TokenFactory",
      "contractAddress": "0x70ae701459304f3f776fe711df2697f54f7dc138",
      "function": "createToken(string,string,uint256,uint8)",
      "arguments": [
        "Wrapped Ether",
        "WETH",
        "1000000000000000000000000000",
        "18"
      ],
      "transaction": {
        "from": "0x3b4f0135465d444a5bd06ab90fc59b73916c85f5",
        "to": "0x70ae701459304f3f776fe711df2697f54f7dc138",
        "gas": "0xb2dcd",
        "value": "0x0",
        "input": "0xb64acddd000000000000000000000000000000000000000000000000000000000000008000000000000000000000000000000000000000000000000000000000000000c00000000000000000000000000000000000000000033b2e3c9fd0803ce80000000000000000000000000000000000000000000000000000000000000000000012000000000000000000000000000000000000000000000000000000000000000d577261707065642045746865720000000000000000000000000000000000000000000000000000000000000000000000000000000000000000000000000000045745544800000000000000000000000000000000000000000000000000000000",
        "nonce": "0x52",
        "chainId": "0xdede"
      },
      "additionalContracts": [
        {
          "transactionType": "CREATE",
          "address": "0xe24005fd732ba5ebf8d1f5bd76a247a054bb89ec",
          "initCode": "0x608060405234801561000f575f5ffd5b50604051610c97380380610c9783398101604081905261002e91610288565b8484600361003c83826103b1565b50600461004982826103b1565b50506005805460ff191660ff851690811790915561007e9150829061006f90600a610564565b6100799086610576565b610088565b50505050506105a0565b6001600160a01b0382166100b65760405163ec442f0560e01b81525f60048201526024015b60405180910390fd5b6100c15f83836100c5565b5050565b6001600160a01b0383166100ef578060025f8282546100e4919061058d565b9091555061015f9050565b6001600160a01b0383165f90815260208190526040902054818110156101415760405163391434e360e21b81526001600160a01b038516600482015260248101829052604481018390526064016100ad565b6001600160a01b0384165f9081526020819052604090209082900390555b6001600160a01b03821661017b57600280548290039055610199565b6001600160a01b0382165f9081526020819052604090208054820190555b816001600160a01b0316836001600160a01b03167fddf252ad1be2c89b69c2b068fc378daa952ba7f163c4a11628f55a4df523b3ef836040516101de91815260200190565b60405180910390a3505050565b634e487b7160e01b5f52604160045260245ffd5b5f82601f83011261020e575f5ffd5b81516001600160401b03811115610227576102276101eb565b604051601f8201601f19908116603f011681016001600160401b0381118282101715610255576102556101eb565b60405281815283820160200185101561026c575f5ffd5b8160208501602083015e5f918101602001919091529392505050565b5f5f5f5f5f60a0868803121561029c575f5ffd5b85516001600160401b038111156102b1575f5ffd5b6102bd888289016101ff565b602088015190965090506001600160401b038111156102da575f5ffd5b6102e6888289016101ff565b94505060408601519250606086015160ff81168114610303575f5ffd5b60808701519092506001600160a01b038116811461031f575f5ffd5b809150509295509295909350565b600181811c9082168061034157607f821691505b60208210810361035f57634e487b7160e01b5f52602260045260245ffd5b50919050565b601f8211156103ac57805f5260205f20601f840160051c8101602085101561038a5750805b601f840160051c820191505b818110156103a9575f8155600101610396565b50505b505050565b81516001600160401b038111156103ca576103ca6101eb565b6103de816103d8845461032d565b84610365565b6020601f821160018114610410575f83156103f95750848201515b5f19600385901b1c1916600184901b1784556103a9565b5f84815260208120601f198516915b8281101561043f578785015182556020948501946001909201910161041f565b508482101561045c57868401515f19600387901b60f8161c191681555b50505050600190811b01905550565b634e487b7160e01b5f52601160045260245ffd5b6001815b60018411156104ba5780850481111561049e5761049e61046b565b60018416156104ac57908102905b60019390931c928002610483565b935093915050565b5f826104d05750600161055e565b816104dc57505f61055e565b81600181146104f257600281146104fc57610518565b600191505061055e565b60ff84111561050d5761050d61046b565b50506001821b61055e565b5060208310610133831016604e8410600b841016171561053b575081810a61055e565b6105475f19848461047f565b805f190482111561055a5761055a61046b565b0290505b92915050565b5f61056f83836104c2565b9392505050565b808202811582820484141761055e5761055e61046b565b8082018082111561055e5761055e61046b565b6106ea806105ad5f395ff3fe608060405234801561000f575f5ffd5b5060043610610090575f3560e01c8063313ce56711610063578063313ce567146100fa57806370a082311461010f57806395d89b4114610137578063a9059cbb1461013f578063dd62ed3e14610152575f5ffd5b806306fdde0314610094578063095ea7b3146100b257806318160ddd146100d557806323b872dd146100e7575b5f5ffd5b61009c61018a565b6040516100a9919061055a565b60405180910390f35b6100c56100c03660046105aa565b61021a565b60405190151581526020016100a9565b6002545b6040519081526020016100a9565b6100c56100f53660046105d2565b610233565b60055460405160ff90911681526020016100a9565b6100d961011d36600461060c565b6001600160a01b03165f9081526020819052604090205490565b61009c610256565b6100c561014d3660046105aa565b610265565b6100d961016036600461062c565b6001600160a01b039182165f90815260016020908152604080832093909416825291909152205490565b6060600380546101999061065d565b80601f01602080910402602001604051908101604052809291908181526020018280546101c59061065d565b80156102105780601f106101e757610100808354040283529160200191610210565b820191905f5260205f20905b8154815290600101906020018083116101f357829003601f168201915b5050505050905090565b5f33610227818585610272565b60019150505b92915050565b5f33610240858285610284565b61024b858585610305565b506001949350505050565b6060600480546101999061065d565b5f33610227818585610305565b61027f8383836001610362565b505050565b6001600160a01b038381165f908152600160209081526040808320938616835292905220545f198110156102ff57818110156102f157604051637dc7a0d960e11b81526001600160a01b038416600482015260248101829052604481018390526064015b60405180910390fd5b6102ff84848484035f610362565b50505050565b6001600160a01b03831661032e57604051634b637e8f60e11b81525f60048201526024016102e8565b6001600160a01b0382166103575760405163ec442f0560e01b81525f60048201526024016102e8565b61027f838383610434565b6001600160a01b03841661038b5760405163e602df0560e01b81525f60048201526024016102e8565b6001600160a01b0383166103b457604051634a1406b160e11b81525f60048201526024016102e8565b6001600160a01b038085165f90815260016020908152604080832093871683529290522082905580156102ff57826001600160a01b0316846001600160a01b03167f8c5be1e5ebec7d5bd14f71427d1e84f3dd0314c0f7b2291e5b200ac8c7c3b9258460405161042691815260200190565b60405180910390a350505050565b6001600160a01b03831661045e578060025f8282546104539190610695565b909155506104ce9050565b6001600160a01b0383165f90815260208190526040902054818110156104b05760405163391434e360e21b81526001600160a01b038516600482015260248101829052604481018390526064016102e8565b6001600160a01b0384165f9081526020819052604090209082900390555b6001600160a01b0382166104ea57600280548290039055610508565b6001600160a01b0382165f9081526020819052604090208054820190555b816001600160a01b0316836001600160a01b03167fddf252ad1be2c89b69c2b068fc378daa952ba7f163c4a11628f55a4df523b3ef8360405161054d91815260200190565b60405180910390a3505050565b602081525f82518060208401528060208501604085015e5f604082850101526040601f19601f83011684010191505092915050565b80356001600160a01b03811681146105a5575f5ffd5b919050565b5f5f604083850312156105bb575f5ffd5b6105c48361058f565b946020939093013593505050565b5f5f5f606084860312156105e4575f5ffd5b6105ed8461058f565b92506105fb6020850161058f565b929592945050506040919091013590565b5f6020828403121561061c575f5ffd5b6106258261058f565b9392505050565b5f5f6040838503121561063d575f5ffd5b6106468361058f565b91506106546020840161058f565b90509250929050565b600181811c9082168061067157607f821691505b60208210810361068f57634e487b7160e01b5f52602260045260245ffd5b50919050565b8082018082111561022d57634e487b7160e01b5f52601160045260245ffdfea26469706673582212201b6bfe7ff3424d331f36ed33bc76c5c4832bc0464bc6dc2c54b3e8d902e89bd964736f6c634300081c003300000000000000000000000000000000000000000000000000000000000000a000000000000000000000000000000000000000000000000000000000000000e00000000000000000000000000000000000000000033b2e3c9fd0803ce800000000000000000000000000000000000000000000000000000000000000000000120000000000000000000000003b4f0135465d444a5bd06ab90fc59b73916c85f5000000000000000000000000000000000000000000000000000000000000000d577261707065642045746865720000000000000000000000000000000000000000000000000000000000000000000000000000000000000000000000000000045745544800000000000000000000000000000000000000000000000000000000"
        }
      ],
      "isFixedGasLimit": false
    },
    {
      "hash": "0xc77cd61926f7f45cfe7d5d50b55c96965da3f56232a06f5a5cd7551961a19f5d",
      "transactionType": "CALL",
      "contractName": "MockToken",
      "contractAddress": "0xe24005fd732ba5ebf8d1f5bd76a247a054bb89ec",
      "function": "approve(address,uint256)",
      "arguments": [
        "0xc0170724E3DA0221403354Ac228478EfB735c6ba",
        "2719420000000000000008"
      ],
      "transaction": {
        "from": "0x3b4f0135465d444a5bd06ab90fc59b73916c85f5",
        "to": "0xe24005fd732ba5ebf8d1f5bd76a247a054bb89ec",
        "gas": "0xfa4b",
        "value": "0x0",
        "input": "0x095ea7b3000000000000000000000000c0170724e3da0221403354ac228478efb735c6ba0000000000000000000000000000000000000000000000936b88a1e534c60008",
        "nonce": "0x53",
        "chainId": "0xdede"
      },
      "additionalContracts": [],
      "isFixedGasLimit": false
    },
    {
      "hash": "0xefd2f1cecfa88314199e57088e2f1e425eee9b3158a3b4ce5b89e6a84171f095",
      "transactionType": "CALL",
      "contractName": "Core",
      "contractAddress": "0xc0170724e3da0221403354ac228478efb735c6ba",
      "function": "setLiquidity(address,uint256)",
      "arguments": [
        "0xe24005Fd732bA5EbF8D1f5Bd76A247a054Bb89EC",
        "2719420000000000000008"
      ],
      "transaction": {
        "from": "0x3b4f0135465d444a5bd06ab90fc59b73916c85f5",
        "to": "0xc0170724e3da0221403354ac228478efb735c6ba",
        "gas": "0xeefc",
        "value": "0x0",
        "input": "0xf4069cba000000000000000000000000e24005fd732ba5ebf8d1f5bd76a247a054bb89ec0000000000000000000000000000000000000000000000936b88a1e534c60008",
        "nonce": "0x54",
        "chainId": "0xdede"
      },
      "additionalContracts": [],
      "isFixedGasLimit": false
    },
    {
      "hash": "0xfdc09cb4f2d67a43fc63d6c8ac475341baa10ed3b87aa009c23154303889fdae",
      "transactionType": "CALL",
      "contractName": "TokenFactory",
      "contractAddress": "0x70ae701459304f3f776fe711df2697f54f7dc138",
      "function": "createToken(string,string,uint256,uint8)",
      "arguments": [
        "PEPE",
        "PEPE",
        "1000000000000000000000000000",
        "18"
      ],
      "transaction": {
        "from": "0x3b4f0135465d444a5bd06ab90fc59b73916c85f5",
        "to": "0x70ae701459304f3f776fe711df2697f54f7dc138",
        "gas": "0xbd587",
        "value": "0x0",
        "input": "0xb64acddd000000000000000000000000000000000000000000000000000000000000008000000000000000000000000000000000000000000000000000000000000000c00000000000000000000000000000000000000000033b2e3c9fd0803ce800000000000000000000000000000000000000000000000000000000000000000000120000000000000000000000000000000000000000000000000000000000000004504550450000000000000000000000000000000000000000000000000000000000000000000000000000000000000000000000000000000000000000000000045045504500000000000000000000000000000000000000000000000000000000",
        "nonce": "0x55",
        "chainId": "0xdede"
      },
      "additionalContracts": [
        {
          "transactionType": "CREATE",
          "address": "0x466051b82b6259094b45b2e721dd429ffc5f8cb9",
          "initCode": "0x608060405234801561000f575f5ffd5b50604051610c97380380610c9783398101604081905261002e91610288565b8484600361003c83826103b1565b50600461004982826103b1565b50506005805460ff191660ff851690811790915561007e9150829061006f90600a610564565b6100799086610576565b610088565b50505050506105a0565b6001600160a01b0382166100b65760405163ec442f0560e01b81525f60048201526024015b60405180910390fd5b6100c15f83836100c5565b5050565b6001600160a01b0383166100ef578060025f8282546100e4919061058d565b9091555061015f9050565b6001600160a01b0383165f90815260208190526040902054818110156101415760405163391434e360e21b81526001600160a01b038516600482015260248101829052604481018390526064016100ad565b6001600160a01b0384165f9081526020819052604090209082900390555b6001600160a01b03821661017b57600280548290039055610199565b6001600160a01b0382165f9081526020819052604090208054820190555b816001600160a01b0316836001600160a01b03167fddf252ad1be2c89b69c2b068fc378daa952ba7f163c4a11628f55a4df523b3ef836040516101de91815260200190565b60405180910390a3505050565b634e487b7160e01b5f52604160045260245ffd5b5f82601f83011261020e575f5ffd5b81516001600160401b03811115610227576102276101eb565b604051601f8201601f19908116603f011681016001600160401b0381118282101715610255576102556101eb565b60405281815283820160200185101561026c575f5ffd5b8160208501602083015e5f918101602001919091529392505050565b5f5f5f5f5f60a0868803121561029c575f5ffd5b85516001600160401b038111156102b1575f5ffd5b6102bd888289016101ff565b602088015190965090506001600160401b038111156102da575f5ffd5b6102e6888289016101ff565b94505060408601519250606086015160ff81168114610303575f5ffd5b60808701519092506001600160a01b038116811461031f575f5ffd5b809150509295509295909350565b600181811c9082168061034157607f821691505b60208210810361035f57634e487b7160e01b5f52602260045260245ffd5b50919050565b601f8211156103ac57805f5260205f20601f840160051c8101602085101561038a5750805b601f840160051c820191505b818110156103a9575f8155600101610396565b50505b505050565b81516001600160401b038111156103ca576103ca6101eb565b6103de816103d8845461032d565b84610365565b6020601f821160018114610410575f83156103f95750848201515b5f19600385901b1c1916600184901b1784556103a9565b5f84815260208120601f198516915b8281101561043f578785015182556020948501946001909201910161041f565b508482101561045c57868401515f19600387901b60f8161c191681555b50505050600190811b01905550565b634e487b7160e01b5f52601160045260245ffd5b6001815b60018411156104ba5780850481111561049e5761049e61046b565b60018416156104ac57908102905b60019390931c928002610483565b935093915050565b5f826104d05750600161055e565b816104dc57505f61055e565b81600181146104f257600281146104fc57610518565b600191505061055e565b60ff84111561050d5761050d61046b565b50506001821b61055e565b5060208310610133831016604e8410600b841016171561053b575081810a61055e565b6105475f19848461047f565b805f190482111561055a5761055a61046b565b0290505b92915050565b5f61056f83836104c2565b9392505050565b808202811582820484141761055e5761055e61046b565b8082018082111561055e5761055e61046b565b6106ea806105ad5f395ff3fe608060405234801561000f575f5ffd5b5060043610610090575f3560e01c8063313ce56711610063578063313ce567146100fa57806370a082311461010f57806395d89b4114610137578063a9059cbb1461013f578063dd62ed3e14610152575f5ffd5b806306fdde0314610094578063095ea7b3146100b257806318160ddd146100d557806323b872dd146100e7575b5f5ffd5b61009c61018a565b6040516100a9919061055a565b60405180910390f35b6100c56100c03660046105aa565b61021a565b60405190151581526020016100a9565b6002545b6040519081526020016100a9565b6100c56100f53660046105d2565b610233565b60055460405160ff90911681526020016100a9565b6100d961011d36600461060c565b6001600160a01b03165f9081526020819052604090205490565b61009c610256565b6100c561014d3660046105aa565b610265565b6100d961016036600461062c565b6001600160a01b039182165f90815260016020908152604080832093909416825291909152205490565b6060600380546101999061065d565b80601f01602080910402602001604051908101604052809291908181526020018280546101c59061065d565b80156102105780601f106101e757610100808354040283529160200191610210565b820191905f5260205f20905b8154815290600101906020018083116101f357829003601f168201915b5050505050905090565b5f33610227818585610272565b60019150505b92915050565b5f33610240858285610284565b61024b858585610305565b506001949350505050565b6060600480546101999061065d565b5f33610227818585610305565b61027f8383836001610362565b505050565b6001600160a01b038381165f908152600160209081526040808320938616835292905220545f198110156102ff57818110156102f157604051637dc7a0d960e11b81526001600160a01b038416600482015260248101829052604481018390526064015b60405180910390fd5b6102ff84848484035f610362565b50505050565b6001600160a01b03831661032e57604051634b637e8f60e11b81525f60048201526024016102e8565b6001600160a01b0382166103575760405163ec442f0560e01b81525f60048201526024016102e8565b61027f838383610434565b6001600160a01b03841661038b5760405163e602df0560e01b81525f60048201526024016102e8565b6001600160a01b0383166103b457604051634a1406b160e11b81525f60048201526024016102e8565b6001600160a01b038085165f90815260016020908152604080832093871683529290522082905580156102ff57826001600160a01b0316846001600160a01b03167f8c5be1e5ebec7d5bd14f71427d1e84f3dd0314c0f7b2291e5b200ac8c7c3b9258460405161042691815260200190565b60405180910390a350505050565b6001600160a01b03831661045e578060025f8282546104539190610695565b909155506104ce9050565b6001600160a01b0383165f90815260208190526040902054818110156104b05760405163391434e360e21b81526001600160a01b038516600482015260248101829052604481018390526064016102e8565b6001600160a01b0384165f9081526020819052604090209082900390555b6001600160a01b0382166104ea57600280548290039055610508565b6001600160a01b0382165f9081526020819052604090208054820190555b816001600160a01b0316836001600160a01b03167fddf252ad1be2c89b69c2b068fc378daa952ba7f163c4a11628f55a4df523b3ef8360405161054d91815260200190565b60405180910390a3505050565b602081525f82518060208401528060208501604085015e5f604082850101526040601f19601f83011684010191505092915050565b80356001600160a01b03811681146105a5575f5ffd5b919050565b5f5f604083850312156105bb575f5ffd5b6105c48361058f565b946020939093013593505050565b5f5f5f606084860312156105e4575f5ffd5b6105ed8461058f565b92506105fb6020850161058f565b929592945050506040919091013590565b5f6020828403121561061c575f5ffd5b6106258261058f565b9392505050565b5f5f6040838503121561063d575f5ffd5b6106468361058f565b91506106546020840161058f565b90509250929050565b600181811c9082168061067157607f821691505b60208210810361068f57634e487b7160e01b5f52602260045260245ffd5b50919050565b8082018082111561022d57634e487b7160e01b5f52601160045260245ffdfea26469706673582212201b6bfe7ff3424d331f36ed33bc76c5c4832bc0464bc6dc2c54b3e8d902e89bd964736f6c634300081c003300000000000000000000000000000000000000000000000000000000000000a000000000000000000000000000000000000000000000000000000000000000e00000000000000000000000000000000000000000033b2e3c9fd0803ce800000000000000000000000000000000000000000000000000000000000000000000120000000000000000000000003b4f0135465d444a5bd06ab90fc59b73916c85f50000000000000000000000000000000000000000000000000000000000000004504550450000000000000000000000000000000000000000000000000000000000000000000000000000000000000000000000000000000000000000000000045045504500000000000000000000000000000000000000000000000000000000"
        }
      ],
      "isFixedGasLimit": false
    },
    {
      "hash": "0xf5ac425417b7a7e3c7687f0f81981ec5869f34bdd4a539f97c3cf9b11cdfe0eb",
      "transactionType": "CALL",
      "contractName": "MockToken",
      "contractAddress": "0x466051b82b6259094b45b2e721dd429ffc5f8cb9",
      "function": "approve(address,uint256)",
      "arguments": [
        "0xc0170724E3DA0221403354Ac228478EfB735c6ba",
        "7850000000000"
      ],
      "transaction": {
        "from": "0x3b4f0135465d444a5bd06ab90fc59b73916c85f5",
        "to": "0x466051b82b6259094b45b2e721dd429ffc5f8cb9",
        "gas": "0x108d0",
        "value": "0x0",
        "input": "0x095ea7b3000000000000000000000000c0170724e3da0221403354ac228478efb735c6ba00000000000000000000000000000000000000000000000000000723b8762400",
        "nonce": "0x56",
        "chainId": "0xdede"
      },
      "additionalContracts": [],
      "isFixedGasLimit": false
    },
    {
      "hash": "0xe7d44ff60674e3fafc3b7ffab202800addce19354f8114e44c3659cf03474723",
      "transactionType": "CALL",
      "contractName": "Core",
      "contractAddress": "0xc0170724e3da0221403354ac228478efb735c6ba",
      "function": "setLiquidity(address,uint256)",
      "arguments": [
        "0x466051B82B6259094b45b2e721DD429FfC5F8CB9",
        "7850000000000"
      ],
      "transaction": {
        "from": "0x3b4f0135465d444a5bd06ab90fc59b73916c85f5",
        "to": "0xc0170724e3da0221403354ac228478efb735c6ba",
        "gas": "0xfcd7",
        "value": "0x0",
        "input": "0xf4069cba000000000000000000000000466051b82b6259094b45b2e721dd429ffc5f8cb900000000000000000000000000000000000000000000000000000723b8762400",
        "nonce": "0x57",
        "chainId": "0xdede"
      },
      "additionalContracts": [],
      "isFixedGasLimit": false
    }
  ],
  "receipts": [
    {
      "status": "0x1",
      "cumulativeGasUsed": "0xe39ba",
      "logs": [],
      "logsBloom": "0x00000000000000000000000000000000000000000000000000000000000000000000000000000000000000000000000000000000000000000000000000000000000000000000000000000000000000000000000000000000000000000000000000000000000000000000000000000000000000000000000000000000000000000000000000000000000000000000000000000000000000000000000000000000000000000000000000000000000000000000000000000000000000000000000000000000000000000000000000000000000000000000000000000000000000000000000000000000000000000000000000000000000000000000000000000000",
      "type": "0x2",
      "transactionHash": "0x2719e0a7277bcf6b97c81f1a4f1d4c5d3787b16e5e5680dce7d62e6511ecb7ad",
      "transactionIndex": "0x0",
      "blockHash": "0xa1c8d47fa5b3ea83b758ce7efa26146747684af4b7d4ace4add77595071187ba",
      "blockNumber": "0x16c31a5",
      "gasUsed": "0xe39ba",
      "effectiveGasPrice": "0x3b9aca01",
      "from": "0x3b4f0135465d444a5bd06ab90fc59b73916c85f5",
      "to": null,
      "contractAddress": "0x70ae701459304f3f776fe711df2697f54f7dc138"
    },
    {
      "status": "0x1",
      "cumulativeGasUsed": "0x57fca",
      "logs": [],
      "logsBloom": "0x00000000000000000000000000000000000000000000000000000000000000000000000000000000000000000000000000000000000000000000000000000000000000000000000000000000000000000000000000000000000000000000000000000000000000000000000000000000000000000000000000000000000000000000000000000000000000000000000000000000000000000000000000000000000000000000000000000000000000000000000000000000000000000000000000000000000000000000000000000000000000000000000000000000000000000000000000000000000000000000000000000000000000000000000000000000",
      "type": "0x2",
      "transactionHash": "0x387c6b6b451ed3b5054ec5c2e462df180b67f5d488c1c9c5be1e564980c8f036",
      "transactionIndex": "0x0",
      "blockHash": "0x1425ebe9d4a39ac7513c5c548a764c4cc3eefbd9b1c4af0f33cc5fbe96c739d5",
      "blockNumber": "0x16c31a7",
      "gasUsed": "0x57fca",
      "effectiveGasPrice": "0x3b9aca01",
      "from": "0x3b4f0135465d444a5bd06ab90fc59b73916c85f5",
      "to": null,
      "contractAddress": "0xc0170724e3da0221403354ac228478efb735c6ba"
    },
    {
      "status": "0x1",
      "cumulativeGasUsed": "0xdf6f8",
      "logs": [
        {
          "address": "0x8f006d2412649903309e12fad079dfcb100b0e10",
          "topics": [
            "0xddf252ad1be2c89b69c2b068fc378daa952ba7f163c4a11628f55a4df523b3ef",
            "0x0000000000000000000000000000000000000000000000000000000000000000",
            "0x0000000000000000000000003b4f0135465d444a5bd06ab90fc59b73916c85f5"
          ],
          "data": "0x000000000000000000000000002cd76fe086b93ce2f768a00b22a00000000000",
          "blockHash": "0x1425ebe9d4a39ac7513c5c548a764c4cc3eefbd9b1c4af0f33cc5fbe96c739d5",
          "blockNumber": "0x16c31a7",
          "transactionHash": "0xf2e4add9f9db2682fc359f2346144df22e1df9bf62c27a964a5a4d6f6ec7f5a5",
          "transactionIndex": "0x1",
          "logIndex": "0x0",
          "removed": false
        },
        {
          "address": "0x70ae701459304f3f776fe711df2697f54f7dc138",
          "topics": [
            "0xafab5d1d74bae8c6b34c8932c5a93db45757bef8a5b14b76f11aa2cdd5cb9be5",
            "0x0000000000000000000000008f006d2412649903309e12fad079dfcb100b0e10"
          ],
          "data": "0x00000000000000000000000000000000000000000000000000000000000000a000000000000000000000000000000000000000000000000000000000000000e00000000000000000000000000000000000000000033b2e3c9fd0803ce800000000000000000000000000000000000000000000000000000000000000000000120000000000000000000000003b4f0135465d444a5bd06ab90fc59b73916c85f50000000000000000000000000000000000000000000000000000000000000005534f4e494300000000000000000000000000000000000000000000000000000000000000000000000000000000000000000000000000000000000000000000015300000000000000000000000000000000000000000000000000000000000000",
          "blockHash": "0x1425ebe9d4a39ac7513c5c548a764c4cc3eefbd9b1c4af0f33cc5fbe96c739d5",
          "blockNumber": "0x16c31a7",
          "transactionHash": "0xf2e4add9f9db2682fc359f2346144df22e1df9bf62c27a964a5a4d6f6ec7f5a5",
          "transactionIndex": "0x1",
          "logIndex": "0x1",
          "removed": false
        }
      ],
      "logsBloom": "0x00000002000000000000000000000000000000000000000000000020000000000000000000000080000000000000040000000000000000000000000000400000000000000000000000000008000000000000000000000000000000000400000000000000020000000000000000000800000000000000000000000010000000000000000000000000000000000000000000000000000000000000000000000000000000000001000000001000000000000000000000000000000000000001000000000102002000000000000000000000000800080000000002000000000020000000000000000000000000800000000000000000000000000000000000000000",
      "type": "0x2",
      "transactionHash": "0xf2e4add9f9db2682fc359f2346144df22e1df9bf62c27a964a5a4d6f6ec7f5a5",
      "transactionIndex": "0x1",
      "blockHash": "0x1425ebe9d4a39ac7513c5c548a764c4cc3eefbd9b1c4af0f33cc5fbe96c739d5",
      "blockNumber": "0x16c31a7",
      "gasUsed": "0x8772e",
      "effectiveGasPrice": "0x3b9aca01",
      "from": "0x3b4f0135465d444a5bd06ab90fc59b73916c85f5",
      "to": "0x70ae701459304f3f776fe711df2697f54f7dc138",
      "contractAddress": null
    },
    {
      "status": "0x1",
      "cumulativeGasUsed": "0xeb316",
      "logs": [
        {
          "address": "0x8f006d2412649903309e12fad079dfcb100b0e10",
          "topics": [
            "0x8c5be1e5ebec7d5bd14f71427d1e84f3dd0314c0f7b2291e5b200ac8c7c3b925",
            "0x0000000000000000000000003b4f0135465d444a5bd06ab90fc59b73916c85f5",
            "0x000000000000000000000000c0170724e3da0221403354ac228478efb735c6ba"
          ],
          "data": "0x000000000000000000000000000000000000000000001bbd8633ec40ebe00000",
          "blockHash": "0x1425ebe9d4a39ac7513c5c548a764c4cc3eefbd9b1c4af0f33cc5fbe96c739d5",
          "blockNumber": "0x16c31a7",
          "transactionHash": "0xd8d58b5e98233b1c7be6ee5252e568539b758fe7d8abaeaf747f402f474a3d3c",
          "transactionIndex": "0x2",
          "logIndex": "0x2",
          "removed": false
        }
      ],
      "logsBloom": "0x00000002000000000000000000000000000000000000000000000020000000000000000000000080000000000000000000000000000000000000000000600000000000000000000000000000000004000000000000000000000000000000000000000000000000000000000000000000000000000000000000000000000000000000000000000000000000000000000000000000000200000000000000000000020000000000000000000000000000000000000000000000000000000000000000000100002000000000000000000000000000000000000000000000000000000010000000000000000000000000004000000000000000000000000000000000",
      "type": "0x2",
      "transactionHash": "0xd8d58b5e98233b1c7be6ee5252e568539b758fe7d8abaeaf747f402f474a3d3c",
      "transactionIndex": "0x2",
      "blockHash": "0x1425ebe9d4a39ac7513c5c548a764c4cc3eefbd9b1c4af0f33cc5fbe96c739d5",
      "blockNumber": "0x16c31a7",
      "gasUsed": "0xbc1e",
      "effectiveGasPrice": "0x3b9aca01",
      "from": "0x3b4f0135465d444a5bd06ab90fc59b73916c85f5",
      "to": "0x8f006d2412649903309e12fad079dfcb100b0e10",
      "contractAddress": null
    },
    {
      "status": "0x1",
      "cumulativeGasUsed": "0xf6810",
      "logs": [],
      "logsBloom": "0x00000000000000000000000000000000000000000000000000000000000000000000000000000000000000000000000000000000000000000000000000000000000000000000000000000000000000000000000000000000000000000000000000000000000000000000000000000000000000000000000000000000000000000000000000000000000000000000000000000000000000000000000000000000000000000000000000000000000000000000000000000000000000000000000000000000000000000000000000000000000000000000000000000000000000000000000000000000000000000000000000000000000000000000000000000000",
      "type": "0x2",
      "transactionHash": "0x0bbaf8e136cbf29e439f068aee5fc1b974c27ddbd27cd176b2f67ecb64fbbcf5",
      "transactionIndex": "0x3",
      "blockHash": "0x1425ebe9d4a39ac7513c5c548a764c4cc3eefbd9b1c4af0f33cc5fbe96c739d5",
      "blockNumber": "0x16c31a7",
      "gasUsed": "0xb4fa",
      "effectiveGasPrice": "0x3b9aca01",
      "from": "0x3b4f0135465d444a5bd06ab90fc59b73916c85f5",
      "to": "0xc0170724e3da0221403354ac228478efb735c6ba",
      "contractAddress": null
    },
    {
      "status": "0x1",
      "cumulativeGasUsed": "0x17ce8e",
      "logs": [
        {
          "address": "0xadb7cd770fb002c772fdd43f01556474baed9af7",
          "topics": [
            "0xddf252ad1be2c89b69c2b068fc378daa952ba7f163c4a11628f55a4df523b3ef",
            "0x0000000000000000000000000000000000000000000000000000000000000000",
            "0x0000000000000000000000003b4f0135465d444a5bd06ab90fc59b73916c85f5"
          ],
          "data": "0x00000000000000000000000000000000000000000000003635c9adc5dea00000",
          "blockHash": "0x1425ebe9d4a39ac7513c5c548a764c4cc3eefbd9b1c4af0f33cc5fbe96c739d5",
          "blockNumber": "0x16c31a7",
          "transactionHash": "0xa23e7b2f9864363eecaa4d7b296504fb3c4618962b9efd965bebc5a092162b33",
          "transactionIndex": "0x4",
          "logIndex": "0x3",
          "removed": false
        },
        {
          "address": "0x70ae701459304f3f776fe711df2697f54f7dc138",
          "topics": [
            "0xafab5d1d74bae8c6b34c8932c5a93db45757bef8a5b14b76f11aa2cdd5cb9be5",
            "0x000000000000000000000000adb7cd770fb002c772fdd43f01556474baed9af7"
          ],
          "data": "0x00000000000000000000000000000000000000000000000000000000000000a000000000000000000000000000000000000000000000000000000000000000e000000000000000000000000000000000000000000000000000038d7ea4c6800000000000000000000000000000000000000000000000000000000000000000060000000000000000000000003b4f0135465d444a5bd06ab90fc59b73916c85f5000000000000000000000000000000000000000000000000000000000000000855534420436f696e00000000000000000000000000000000000000000000000000000000000000000000000000000000000000000000000000000000000000045553444300000000000000000000000000000000000000000000000000000000",
          "blockHash": "0x1425ebe9d4a39ac7513c5c548a764c4cc3eefbd9b1c4af0f33cc5fbe96c739d5",
          "blockNumber": "0x16c31a7",
          "transactionHash": "0xa23e7b2f9864363eecaa4d7b296504fb3c4618962b9efd965bebc5a092162b33",
          "transactionIndex": "0x4",
          "logIndex": "0x4",
          "removed": false
        }
      ],
      "logsBloom": "0x00000000000000001000000000000000000000000004000000000020000004000000000000000000000000000000040000000000000000000000000000400000000000000000000000000008000000000000000000000000000000000000000000000000020000000000000000000800000000000000000000000010000000000000000000000000000004000000000000000000000000000000000000000000020000000001000000000000000000000000000000000000000000000001000000000102000000000000000000000000000800080000000002000000000020000000000000000000000010000000000000000000000000000000000000000000",
      "type": "0x2",
      "transactionHash": "0xa23e7b2f9864363eecaa4d7b296504fb3c4618962b9efd965bebc5a092162b33",
      "transactionIndex": "0x4",
      "blockHash": "0x1425ebe9d4a39ac7513c5c548a764c4cc3eefbd9b1c4af0f33cc5fbe96c739d5",
      "blockNumber": "0x16c31a7",
      "gasUsed": "0x8667e",
      "effectiveGasPrice": "0x3b9aca01",
      "from": "0x3b4f0135465d444a5bd06ab90fc59b73916c85f5",
      "to": "0x70ae701459304f3f776fe711df2697f54f7dc138",
      "contractAddress": null
    },
    {
      "status": "0x1",
      "cumulativeGasUsed": "0x188a7a",
      "logs": [
        {
          "address": "0xadb7cd770fb002c772fdd43f01556474baed9af7",
          "topics": [
            "0x8c5be1e5ebec7d5bd14f71427d1e84f3dd0314c0f7b2291e5b200ac8c7c3b925",
            "0x0000000000000000000000003b4f0135465d444a5bd06ab90fc59b73916c85f5",
            "0x000000000000000000000000c0170724e3da0221403354ac228478efb735c6ba"
          ],
          "data": "0x0000000000000000000000000000000000000000000000000000001e80355e00",
          "blockHash": "0x1425ebe9d4a39ac7513c5c548a764c4cc3eefbd9b1c4af0f33cc5fbe96c739d5",
          "blockNumber": "0x16c31a7",
          "transactionHash": "0xb8a367faf16ec3225fd915cb4aaf518b0eaef6c8aa4f65ed8aede57d186ed5fe",
          "transactionIndex": "0x5",
          "logIndex": "0x5",
          "removed": false
        }
      ],
      "logsBloom": "0x00000000000000000000000000000000000000000004000000000020000000000000000000000000000000000000000000000000000000000000000000600000000000000000000000000000000004000000000000000000000000000000000000000000000000000000000000000000000000000000000000000000000000000000000000000000000004000000000000000000000200000000000000000000020000000000000000000000000000000000000000000000000000000000000000000100000000000000000000000000000000000000000000000000000000000010000000000000000010000000004000000000000000000000000000000000",
      "type": "0x2",
      "transactionHash": "0xb8a367faf16ec3225fd915cb4aaf518b0eaef6c8aa4f65ed8aede57d186ed5fe",
      "transactionIndex": "0x5",
      "blockHash": "0x1425ebe9d4a39ac7513c5c548a764c4cc3eefbd9b1c4af0f33cc5fbe96c739d5",
      "blockNumber": "0x16c31a7",
      "gasUsed": "0xbbec",
      "effectiveGasPrice": "0x3b9aca01",
      "from": "0x3b4f0135465d444a5bd06ab90fc59b73916c85f5",
      "to": "0xadb7cd770fb002c772fdd43f01556474baed9af7",
      "contractAddress": null
    },
    {
      "status": "0x1",
      "cumulativeGasUsed": "0x193de6",
      "logs": [],
      "logsBloom": "0x00000000000000000000000000000000000000000000000000000000000000000000000000000000000000000000000000000000000000000000000000000000000000000000000000000000000000000000000000000000000000000000000000000000000000000000000000000000000000000000000000000000000000000000000000000000000000000000000000000000000000000000000000000000000000000000000000000000000000000000000000000000000000000000000000000000000000000000000000000000000000000000000000000000000000000000000000000000000000000000000000000000000000000000000000000000",
      "type": "0x2",
      "transactionHash": "0x1f63931c0561f7418a1b5ccec88a424e3341da20227a99047d6c657dcfb2b7aa",
      "transactionIndex": "0x6",
      "blockHash": "0x1425ebe9d4a39ac7513c5c548a764c4cc3eefbd9b1c4af0f33cc5fbe96c739d5",
      "blockNumber": "0x16c31a7",
      "gasUsed": "0xb36c",
      "effectiveGasPrice": "0x3b9aca01",
      "from": "0x3b4f0135465d444a5bd06ab90fc59b73916c85f5",
      "to": "0xc0170724e3da0221403354ac228478efb735c6ba",
      "contractAddress": null
    },
    {
      "status": "0x1",
      "cumulativeGasUsed": "0x21f685",
      "logs": [
        {
          "address": "0x0e1f5ec1769c0456fa780dbb25197baf5dfc8b54",
          "topics": [
            "0xddf252ad1be2c89b69c2b068fc378daa952ba7f163c4a11628f55a4df523b3ef",
            "0x0000000000000000000000000000000000000000000000000000000000000000",
            "0x0000000000000000000000003b4f0135465d444a5bd06ab90fc59b73916c85f5"
          ],
          "data": "0x00000000000000000000000000000000000000000000003635c9adc5dea00000",
          "blockHash": "0x1425ebe9d4a39ac7513c5c548a764c4cc3eefbd9b1c4af0f33cc5fbe96c739d5",
          "blockNumber": "0x16c31a7",
          "transactionHash": "0x6c5f50db46f49868c3859f723016e7e476e9e8312362625494bd0918f3d07935",
          "transactionIndex": "0x8",
          "logIndex": "0x6",
          "removed": false
        },
        {
          "address": "0x70ae701459304f3f776fe711df2697f54f7dc138",
          "topics": [
            "0xafab5d1d74bae8c6b34c8932c5a93db45757bef8a5b14b76f11aa2cdd5cb9be5",
            "0x0000000000000000000000000e1f5ec1769c0456fa780dbb25197baf5dfc8b54"
          ],
          "data": "0x00000000000000000000000000000000000000000000000000000000000000a000000000000000000000000000000000000000000000000000000000000000e000000000000000000000000000000000000000000000000000038d7ea4c6800000000000000000000000000000000000000000000000000000000000000000060000000000000000000000003b4f0135465d444a5bd06ab90fc59b73916c85f5000000000000000000000000000000000000000000000000000000000000000a546574686572205553440000000000000000000000000000000000000000000000000000000000000000000000000000000000000000000000000000000000045553445400000000000000000000000000000000000000000000000000000000",
          "blockHash": "0x1425ebe9d4a39ac7513c5c548a764c4cc3eefbd9b1c4af0f33cc5fbe96c739d5",
          "blockNumber": "0x16c31a7",
          "transactionHash": "0x6c5f50db46f49868c3859f723016e7e476e9e8312362625494bd0918f3d07935",
          "transactionIndex": "0x8",
          "logIndex": "0x7",
          "removed": false
        }
      ],
      "logsBloom": "0x00000000000000000000000000000200000000000000000000000020000000000000000000000000000000000000040000010000000000000000000000400000000000000000000000000008000020000000000000000000000000000000000000000000020000000000000000000800000000000000000000000010000000000000000000000000000000000000000000000000000000000000000000000000000000000001000000000000000000000000000000000000000000000001000000000102000000000000000000000000000800080000000002000000000020000000000000000000000000000000000000000000000080000000000000000000",
      "type": "0x2",
      "transactionHash": "0x6c5f50db46f49868c3859f723016e7e476e9e8312362625494bd0918f3d07935",
      "transactionIndex": "0x8",
      "blockHash": "0x1425ebe9d4a39ac7513c5c548a764c4cc3eefbd9b1c4af0f33cc5fbe96c739d5",
      "blockNumber": "0x16c31a7",
      "gasUsed": "0x86697",
      "effectiveGasPrice": "0x3b9aca01",
      "from": "0x3b4f0135465d444a5bd06ab90fc59b73916c85f5",
      "to": "0x70ae701459304f3f776fe711df2697f54f7dc138",
      "contractAddress": null
    },
    {
      "status": "0x1",
      "cumulativeGasUsed": "0x22b271",
      "logs": [
        {
          "address": "0x0e1f5ec1769c0456fa780dbb25197baf5dfc8b54",
          "topics": [
            "0x8c5be1e5ebec7d5bd14f71427d1e84f3dd0314c0f7b2291e5b200ac8c7c3b925",
            "0x0000000000000000000000003b4f0135465d444a5bd06ab90fc59b73916c85f5",
            "0x000000000000000000000000c0170724e3da0221403354ac228478efb735c6ba"
          ],
          "data": "0x0000000000000000000000000000000000000000000000000000001e80355e00",
          "blockHash": "0x1425ebe9d4a39ac7513c5c548a764c4cc3eefbd9b1c4af0f33cc5fbe96c739d5",
          "blockNumber": "0x16c31a7",
          "transactionHash": "0x8c9d7d4eb5f2b0bf5f85564e46dbec1443314fc314316ba17f2d8274e043ab66",
          "transactionIndex": "0x9",
          "logIndex": "0x8",
          "removed": false
        }
      ],
      "logsBloom": "0x00000000000000000000000000000200000000000000000000000020000000000000000000000000000000000000000000010000000000000000000000600000000000000000000000000000000004000000000000000000000000000000000000000000000000000000000000000000000000000000000000000000000000000000000000000000000000000000000000000000000200000000000000000000020000000000000000000000000000000000000000000000000000000000000000000100000000000000000000000000000000000000000000000000000000000010000000000000000000000000004000000000000000000000000000000000",
      "type": "0x2",
      "transactionHash": "0x8c9d7d4eb5f2b0bf5f85564e46dbec1443314fc314316ba17f2d8274e043ab66",
      "transactionIndex": "0x9",
      "blockHash": "0x1425ebe9d4a39ac7513c5c548a764c4cc3eefbd9b1c4af0f33cc5fbe96c739d5",
      "blockNumber": "0x16c31a7",
      "gasUsed": "0xbbec",
      "effectiveGasPrice": "0x3b9aca01",
      "from": "0x3b4f0135465d444a5bd06ab90fc59b73916c85f5",
      "to": "0x0e1f5ec1769c0456fa780dbb25197baf5dfc8b54",
      "contractAddress": null
    },
    {
      "status": "0x1",
      "cumulativeGasUsed": "0x2365dd",
      "logs": [],
      "logsBloom": "0x00000000000000000000000000000000000000000000000000000000000000000000000000000000000000000000000000000000000000000000000000000000000000000000000000000000000000000000000000000000000000000000000000000000000000000000000000000000000000000000000000000000000000000000000000000000000000000000000000000000000000000000000000000000000000000000000000000000000000000000000000000000000000000000000000000000000000000000000000000000000000000000000000000000000000000000000000000000000000000000000000000000000000000000000000000000",
      "type": "0x2",
      "transactionHash": "0x7b2ad4442f4039853f07b7f4c5a07643addc623811e5083cccebb2a129cb598b",
      "transactionIndex": "0xa",
      "blockHash": "0x1425ebe9d4a39ac7513c5c548a764c4cc3eefbd9b1c4af0f33cc5fbe96c739d5",
      "blockNumber": "0x16c31a7",
      "gasUsed": "0xb36c",
      "effectiveGasPrice": "0x3b9aca01",
      "from": "0x3b4f0135465d444a5bd06ab90fc59b73916c85f5",
      "to": "0xc0170724e3da0221403354ac228478efb735c6ba",
      "contractAddress": null
    },
    {
      "status": "0x1",
      "cumulativeGasUsed": "0x2bccbf",
      "logs": [
        {
          "address": "0xe24005fd732ba5ebf8d1f5bd76a247a054bb89ec",
          "topics": [
            "0xddf252ad1be2c89b69c2b068fc378daa952ba7f163c4a11628f55a4df523b3ef",
            "0x0000000000000000000000000000000000000000000000000000000000000000",
            "0x0000000000000000000000003b4f0135465d444a5bd06ab90fc59b73916c85f5"
          ],
          "data": "0x000000000000000000000000002cd76fe086b93ce2f768a00b22a00000000000",
          "blockHash": "0x1425ebe9d4a39ac7513c5c548a764c4cc3eefbd9b1c4af0f33cc5fbe96c739d5",
          "blockNumber": "0x16c31a7",
          "transactionHash": "0x9ed07af5396fa94cb245ef3b3797fcf048ce74d6b3fe551478204b4b4aa521b8",
          "transactionIndex": "0xb",
          "logIndex": "0x9",
          "removed": false
        },
        {
          "address": "0x70ae701459304f3f776fe711df2697f54f7dc138",
          "topics": [
            "0xafab5d1d74bae8c6b34c8932c5a93db45757bef8a5b14b76f11aa2cdd5cb9be5",
            "0x000000000000000000000000e24005fd732ba5ebf8d1f5bd76a247a054bb89ec"
          ],
          "data": "0x00000000000000000000000000000000000000000000000000000000000000a000000000000000000000000000000000000000000000000000000000000000e00000000000000000000000000000000000000000033b2e3c9fd0803ce800000000000000000000000000000000000000000000000000000000000000000000120000000000000000000000003b4f0135465d444a5bd06ab90fc59b73916c85f5000000000000000000000000000000000000000000000000000000000000000d577261707065642045746865720000000000000000000000000000000000000000000000000000000000000000000000000000000000000000000000000000045745544800000000000000000000000000000000000000000000000000000000",
          "blockHash": "0x1425ebe9d4a39ac7513c5c548a764c4cc3eefbd9b1c4af0f33cc5fbe96c739d5",
          "blockNumber": "0x16c31a7",
          "transactionHash": "0x9ed07af5396fa94cb245ef3b3797fcf048ce74d6b3fe551478204b4b4aa521b8",
          "transactionIndex": "0xb",
          "logIndex": "0xa",
          "removed": false
        }
      ],
      "logsBloom": "0x00000000000200000000000000000000000000000000000000000020000000000000000000000000000000000000040000000000000000000000000000400000000000000000000000000008000000000000000000000000000000000000000000000000020000000000000000000800000000000000000000000010000000000000000000000000000000000000000000000000000000000000000000000000000000000001000000000000000000008000000000000000000000020001000000000102000000020000000000000000000800080000000002000000000020000000000000000000000000000000000000000000000000000000100002000000",
      "type": "0x2",
      "transactionHash": "0x9ed07af5396fa94cb245ef3b3797fcf048ce74d6b3fe551478204b4b4aa521b8",
      "transactionIndex": "0xb",
      "blockHash": "0x1425ebe9d4a39ac7513c5c548a764c4cc3eefbd9b1c4af0f33cc5fbe96c739d5",
      "blockNumber": "0x16c31a7",
      "gasUsed": "0x866e2",
      "effectiveGasPrice": "0x3b9aca01",
      "from": "0x3b4f0135465d444a5bd06ab90fc59b73916c85f5",
      "to": "0x70ae701459304f3f776fe711df2697f54f7dc138",
      "contractAddress": null
    },
    {
      "status": "0x1",
      "cumulativeGasUsed": "0x2d1ab5",
      "logs": [
        {
          "address": "0xe24005fd732ba5ebf8d1f5bd76a247a054bb89ec",
          "topics": [
            "0x8c5be1e5ebec7d5bd14f71427d1e84f3dd0314c0f7b2291e5b200ac8c7c3b925",
            "0x0000000000000000000000003b4f0135465d444a5bd06ab90fc59b73916c85f5",
            "0x000000000000000000000000c0170724e3da0221403354ac228478efb735c6ba"
          ],
          "data": "0x0000000000000000000000000000000000000000000000936b88a1e534c60008",
          "blockHash": "0x1425ebe9d4a39ac7513c5c548a764c4cc3eefbd9b1c4af0f33cc5fbe96c739d5",
          "blockNumber": "0x16c31a7",
          "transactionHash": "0xc77cd61926f7f45cfe7d5d50b55c96965da3f56232a06f5a5cd7551961a19f5d",
          "transactionIndex": "0xd",
          "logIndex": "0xc",
          "removed": false
        }
      ],
      "logsBloom": "0x00000000000000000000000000000000000000000000000000000020000000000000000000000000000000000000000000000000000000000000000000600000000000000000000000000000000004000000000000000000000000000000000000000000000000000000000000000000000000000000000000000000000000000000000000000000000000000000000000000000000200000000000000000000020000000000000000000000000000000000000000000000000000020000000000000100000000020000000000000000000000000000000000000000000000000010000000000000000000000000004000000000000000000000100000000000",
      "type": "0x2",
      "transactionHash": "0xc77cd61926f7f45cfe7d5d50b55c96965da3f56232a06f5a5cd7551961a19f5d",
      "transactionIndex": "0xd",
      "blockHash": "0x1425ebe9d4a39ac7513c5c548a764c4cc3eefbd9b1c4af0f33cc5fbe96c739d5",
      "blockNumber": "0x16c31a7",
      "gasUsed": "0xbc1e",
      "effectiveGasPrice": "0x3b9aca01",
      "from": "0x3b4f0135465d444a5bd06ab90fc59b73916c85f5",
      "to": "0xe24005fd732ba5ebf8d1f5bd76a247a054bb89ec",
      "contractAddress": null
    },
    {
      "status": "0x1",
      "cumulativeGasUsed": "0x2dce53",
      "logs": [],
      "logsBloom": "0x00000000000000000000000000000000000000000000000000000000000000000000000000000000000000000000000000000000000000000000000000000000000000000000000000000000000000000000000000000000000000000000000000000000000000000000000000000000000000000000000000000000000000000000000000000000000000000000000000000000000000000000000000000000000000000000000000000000000000000000000000000000000000000000000000000000000000000000000000000000000000000000000000000000000000000000000000000000000000000000000000000000000000000000000000000000",
      "type": "0x2",
      "transactionHash": "0xefd2f1cecfa88314199e57088e2f1e425eee9b3158a3b4ce5b89e6a84171f095",
      "transactionIndex": "0xe",
      "blockHash": "0x1425ebe9d4a39ac7513c5c548a764c4cc3eefbd9b1c4af0f33cc5fbe96c739d5",
      "blockNumber": "0x16c31a7",
      "gasUsed": "0xb39e",
      "effectiveGasPrice": "0x3b9aca01",
      "from": "0x3b4f0135465d444a5bd06ab90fc59b73916c85f5",
      "to": "0xc0170724e3da0221403354ac228478efb735c6ba",
      "contractAddress": null
    },
    {
      "status": "0x1",
      "cumulativeGasUsed": "0x36459a",
      "logs": [
        {
          "address": "0x466051b82b6259094b45b2e721dd429ffc5f8cb9",
          "topics": [
            "0xddf252ad1be2c89b69c2b068fc378daa952ba7f163c4a11628f55a4df523b3ef",
            "0x0000000000000000000000000000000000000000000000000000000000000000",
            "0x0000000000000000000000003b4f0135465d444a5bd06ab90fc59b73916c85f5"
          ],
          "data": "0x000000000000000000000000002cd76fe086b93ce2f768a00b22a00000000000",
          "blockHash": "0x1425ebe9d4a39ac7513c5c548a764c4cc3eefbd9b1c4af0f33cc5fbe96c739d5",
          "blockNumber": "0x16c31a7",
          "transactionHash": "0xfdc09cb4f2d67a43fc63d6c8ac475341baa10ed3b87aa009c23154303889fdae",
          "transactionIndex": "0xf",
          "logIndex": "0xd",
          "removed": false
        },
        {
          "address": "0x70ae701459304f3f776fe711df2697f54f7dc138",
          "topics": [
            "0xafab5d1d74bae8c6b34c8932c5a93db45757bef8a5b14b76f11aa2cdd5cb9be5",
            "0x000000000000000000000000466051b82b6259094b45b2e721dd429ffc5f8cb9"
          ],
          "data": "0x00000000000000000000000000000000000000000000000000000000000000a000000000000000000000000000000000000000000000000000000000000000e00000000000000000000000000000000000000000033b2e3c9fd0803ce800000000000000000000000000000000000000000000000000000000000000000000120000000000000000000000003b4f0135465d444a5bd06ab90fc59b73916c85f50000000000000000000000000000000000000000000000000000000000000004504550450000000000000000000000000000000000000000000000000000000000000000000000000000000000000000000000000000000000000000000000045045504500000000000000000000000000000000000000000000000000000000",
          "blockHash": "0x1425ebe9d4a39ac7513c5c548a764c4cc3eefbd9b1c4af0f33cc5fbe96c739d5",
          "blockNumber": "0x16c31a7",
          "transactionHash": "0xfdc09cb4f2d67a43fc63d6c8ac475341baa10ed3b87aa009c23154303889fdae",
          "transactionIndex": "0xf",
          "logIndex": "0xe",
          "removed": false
        }
      ],
      "logsBloom": "0x00000000000000000000000000000000000000000000000000000020000000000000000000001000000000000000040000000000000000000000000000400000000000000000000000000008000000000000000000000000000000000000000000000000020000000000000000000800000000000000000000400010000000400000000000000000000000000000000000000800000000000000000000000000000000000001000000000000000000000000000000000000000000400001000000000102000000000000000000000000000800080000000002000000000020000000000000000000000000000000000000400000000000000000000000000000",
      "type": "0x2",
      "transactionHash": "0xfdc09cb4f2d67a43fc63d6c8ac475341baa10ed3b87aa009c23154303889fdae",
      "transactionIndex": "0xf",
      "blockHash": "0x1425ebe9d4a39ac7513c5c548a764c4cc3eefbd9b1c4af0f33cc5fbe96c739d5",
      "blockNumber": "0x16c31a7",
      "gasUsed": "0x87747",
      "effectiveGasPrice": "0x3b9aca01",
      "from": "0x3b4f0135465d444a5bd06ab90fc59b73916c85f5",
      "to": "0x70ae701459304f3f776fe711df2697f54f7dc138",
      "contractAddress": null
    },
    {
      "status": "0x1",
      "cumulativeGasUsed": "0x37030b",
      "logs": [
        {
          "address": "0x466051b82b6259094b45b2e721dd429ffc5f8cb9",
          "topics": [
            "0x8c5be1e5ebec7d5bd14f71427d1e84f3dd0314c0f7b2291e5b200ac8c7c3b925",
            "0x0000000000000000000000003b4f0135465d444a5bd06ab90fc59b73916c85f5",
            "0x000000000000000000000000c0170724e3da0221403354ac228478efb735c6ba"
          ],
          "data": "0x00000000000000000000000000000000000000000000000000000723b8762400",
          "blockHash": "0x1425ebe9d4a39ac7513c5c548a764c4cc3eefbd9b1c4af0f33cc5fbe96c739d5",
          "blockNumber": "0x16c31a7",
          "transactionHash": "0xf5ac425417b7a7e3c7687f0f81981ec5869f34bdd4a539f97c3cf9b11cdfe0eb",
          "transactionIndex": "0x10",
          "logIndex": "0xf",
          "removed": false
        }
      ],
      "logsBloom": "0x00000000000000000000000000000000000000000000000000000020000000000000000000001000000000000000000000000000000000000000000000600000000000000000000000000000000004000000000000000000000000000000000000000000000000000000000000000000000000000000000000000000000000400000000000000000000000000000000000000000000200000000000000000000020000000000000000000000000000000000000000000000000000000000000000000100000000000000000000000000000000000000000000000000000000000010000000000000000000000000004000400000000000000000000000000000",
      "type": "0x2",
      "transactionHash": "0xf5ac425417b7a7e3c7687f0f81981ec5869f34bdd4a539f97c3cf9b11cdfe0eb",
      "transactionIndex": "0x10",
      "blockHash": "0x1425ebe9d4a39ac7513c5c548a764c4cc3eefbd9b1c4af0f33cc5fbe96c739d5",
      "blockNumber": "0x16c31a7",
      "gasUsed": "0xbd71",
      "effectiveGasPrice": "0x3b9aca01",
      "from": "0x3b4f0135465d444a5bd06ab90fc59b73916c85f5",
      "to": "0x466051b82b6259094b45b2e721dd429ffc5f8cb9",
      "contractAddress": null
    },
    {
      "status": "0x1",
      "cumulativeGasUsed": "0xb4e0",
      "logs": [],
      "logsBloom": "0x00000000000000000000000000000000000000000000000000000000000000000000000000000000000000000000000000000000000000000000000000000000000000000000000000000000000000000000000000000000000000000000000000000000000000000000000000000000000000000000000000000000000000000000000000000000000000000000000000000000000000000000000000000000000000000000000000000000000000000000000000000000000000000000000000000000000000000000000000000000000000000000000000000000000000000000000000000000000000000000000000000000000000000000000000000000",
      "type": "0x2",
      "transactionHash": "0xe7d44ff60674e3fafc3b7ffab202800addce19354f8114e44c3659cf03474723",
      "transactionIndex": "0x0",
      "blockHash": "0x7758a138485893822ab4cb9faf9c10c3fbfe7efee7844141bd9a99385ff669cb",
      "blockNumber": "0x16c31a8",
      "gasUsed": "0xb4e0",
      "effectiveGasPrice": "0x3b9aca01",
      "from": "0x3b4f0135465d444a5bd06ab90fc59b73916c85f5",
      "to": "0xc0170724e3da0221403354ac228478efb735c6ba",
      "contractAddress": null
    }
  ],
  "libraries": [],
  "pending": [],
  "returns": {},
  "timestamp": 1740823039,
  "chain": 57054,
  "commit": "f079722"
}