{
  "transactions": [
    {
      "hash": "0x47a6b6977a7cc44ecfc68d00c7684634f4051ec206cabc913b56ecaece313dd6",
      "transactionType": "CREATE",
      "contractName": "TokenFactory",
      "contractAddress": "0x3fb5f25f22ddd805094a77c06073b78a6d70b6ca",
      "function": null,
      "arguments": null,
      "transaction": {
        "from": "0x3b4f0135465d444a5bd06ab90fc59b73916c85f5",
        "gas": "0x156c81",
        "value": "0x0",
        "input": "0x6080604052348015600e575f5ffd5b5061128d8061001c5f395ff3fe608060405234801561000f575f5ffd5b5060043610610029575f3560e01c80635b0605301461002d575b5f5ffd5b61004061003b366004610192565b61005c565b6040516001600160a01b03909116815260200160405180910390f35b5f5f8484843360405161006e906100e6565b61007b949392919061022d565b604051809103905ff080158015610094573d5f5f3e3d5ffd5b509050806001600160a01b03167fb7d8fd3c9d56d12c15c8e139bc4e6febd6ad2349b3ebe6a1a91c0a9e7797710d868686336040516100d6949392919061022d565b60405180910390a2949350505050565b610fe48061027483390190565b634e487b7160e01b5f52604160045260245ffd5b5f82601f830112610116575f5ffd5b813567ffffffffffffffff811115610130576101306100f3565b604051601f8201601f19908116603f0116810167ffffffffffffffff8111828210171561015f5761015f6100f3565b604052818152838201602001851015610176575f5ffd5b816020850160208301375f918101602001919091529392505050565b5f5f5f606084860312156101a4575f5ffd5b833567ffffffffffffffff8111156101ba575f5ffd5b6101c686828701610107565b935050602084013567ffffffffffffffff8111156101e2575f5ffd5b6101ee86828701610107565b925050604084013590509250925092565b5f81518084528060208401602086015e5f602082860101526020601f19601f83011685010191505092915050565b608081525f61023f60808301876101ff565b828103602084015261025181876101ff565b604084019590955250506001600160a01b03919091166060909101529291505056fe608060405234801561000f575f5ffd5b50604051610fe4380380610fe483398101604081905261002e91610329565b808484600361003d838261043a565b50600461004a828261043a565b5050506001600160a01b03811661007b57604051631e4fbdf760e01b81525f60048201526024015b60405180910390fd5b610084816100dd565b506100a4816100956012600a6105ed565b61009f9085610602565b61012e565b670de0b6b3a764000060068190556002546100bf9190610602565b600755600280546100d09190610619565b6008555061064b92505050565b600580546001600160a01b038381166001600160a01b0319831681179093556040519116919082907f8be0079c531659141344cd1fd0a4f28419497f9722a3daafe3b4186f6b6457e0905f90a35050565b6001600160a01b0382166101575760405163ec442f0560e01b81525f6004820152602401610072565b6101625f8383610166565b5050565b6001600160a01b038316610190578060025f8282546101859190610638565b909155506102009050565b6001600160a01b0383165f90815260208190526040902054818110156101e25760405163391434e360e21b81526001600160a01b03851660048201526024810182905260448101839052606401610072565b6001600160a01b0384165f9081526020819052604090209082900390555b6001600160a01b03821661021c5760028054829003905561023a565b6001600160a01b0382165f9081526020819052604090208054820190555b816001600160a01b0316836001600160a01b03167fddf252ad1be2c89b69c2b068fc378daa952ba7f163c4a11628f55a4df523b3ef8360405161027f91815260200190565b60405180910390a3505050565b634e487b7160e01b5f52604160045260245ffd5b5f82601f8301126102af575f5ffd5b81516001600160401b038111156102c8576102c861028c565b604051601f8201601f19908116603f011681016001600160401b03811182821017156102f6576102f661028c565b60405281815283820160200185101561030d575f5ffd5b8160208501602083015e5f918101602001919091529392505050565b5f5f5f5f6080858703121561033c575f5ffd5b84516001600160401b03811115610351575f5ffd5b61035d878288016102a0565b602087015190955090506001600160401b0381111561037a575f5ffd5b610386878288016102a0565b60408701516060880151919550935090506001600160a01b03811681146103ab575f5ffd5b939692955090935050565b600181811c908216806103ca57607f821691505b6020821081036103e857634e487b7160e01b5f52602260045260245ffd5b50919050565b601f82111561043557805f5260205f20601f840160051c810160208510156104135750805b601f840160051c820191505b81811015610432575f815560010161041f565b50505b505050565b81516001600160401b038111156104535761045361028c565b6104678161046184546103b6565b846103ee565b6020601f821160018114610499575f83156104825750848201515b5f19600385901b1c1916600184901b178455610432565b5f84815260208120601f198516915b828110156104c857878501518255602094850194600190920191016104a8565b50848210156104e557868401515f19600387901b60f8161c191681555b50505050600190811b01905550565b634e487b7160e01b5f52601160045260245ffd5b6001815b600184111561054357808504811115610527576105276104f4565b600184161561053557908102905b60019390931c92800261050c565b935093915050565b5f82610559575060016105e7565b8161056557505f6105e7565b816001811461057b5760028114610585576105a1565b60019150506105e7565b60ff841115610596576105966104f4565b50506001821b6105e7565b5060208310610133831016604e8410600b84101617156105c4575081810a6105e7565b6105d05f198484610508565b805f19048211156105e3576105e36104f4565b0290505b92915050565b5f6105fb60ff84168361054b565b9392505050565b80820281158282048414176105e7576105e76104f4565b5f8261063357634e487b7160e01b5f52601260045260245ffd5b500490565b808201808211156105e7576105e76104f4565b61098c806106585f395ff3fe608060405234801561000f575f5ffd5b5060043610610111575f3560e01c80638da5cb5b1161009e578063a9059cbb1161006e578063a9059cbb1461020d578063d10424c714610220578063dd62ed3e14610233578063eb407ba91461026b578063f2fde38b1461027e575f5ffd5b80638da5cb5b146101ce57806391b7f5ed146101e957806395d89b41146101fc578063a035b1fe14610204575f5ffd5b806323b872dd116100e457806323b872dd146101715780632c135b9314610184578063313ce5671461018d57806370a082311461019c578063715018a6146101c4575f5ffd5b806306fdde0314610115578063095ea7b31461013357806318160ddd146101565780631a68650214610168575b5f5ffd5b61011d610291565b60405161012a91906107c6565b60405180910390f35b610146610141366004610816565b610321565b604051901515815260200161012a565b6002545b60405190815260200161012a565b61015a60085481565b61014661017f36600461083e565b61033a565b61015a60075481565b6040516012815260200161012a565b61015a6101aa366004610878565b6001600160a01b03165f9081526020819052604090205490565b6101cc61035d565b005b6005546040516001600160a01b03909116815260200161012a565b6101cc6101f7366004610898565b610370565b61011d6103c3565b61015a60065481565b61014661021b366004610816565b6103d2565b61015a61022e366004610898565b6103df565b61015a6102413660046108af565b6001600160a01b039182165f90815260016020908152604080832093909416825291909152205490565b6101cc610279366004610898565b6103ee565b6101cc61028c366004610878565b610423565b6060600380546102a0906108e0565b80601f01602080910402602001604051908101604052809291908181526020018280546102cc906108e0565b80156103175780601f106102ee57610100808354040283529160200191610317565b820191905f5260205f20905b8154815290600101906020018083116102fa57829003601f168201915b5050505050905090565b5f3361032e818585610465565b60019150505b92915050565b5f33610347858285610477565b6103528585856104f3565b506001949350505050565b610365610550565b61036e5f61057d565b565b60068190558061037f60025490565b610389919061092c565b6007556040518181527f66cbca4f3c64fecf1dcb9ce094abcf7f68c3450a1d4e3a8e917dd621edb4ebe0906020015b60405180910390a150565b6060600480546102a0906108e0565b5f3361032e8185856104f3565b5f60065482610334919061092c565b60088190556040518181527ff136596ab9e7acfd9d9cf6a0893ed79cc46ceab0c99ff3cb62c560645dad4658906020016103b8565b61042b610550565b6001600160a01b03811661045957604051631e4fbdf760e01b81525f60048201526024015b60405180910390fd5b6104628161057d565b50565b61047283838360016105ce565b505050565b6001600160a01b038381165f908152600160209081526040808320938616835292905220545f198110156104ed57818110156104df57604051637dc7a0d960e11b81526001600160a01b03841660048201526024810182905260448101839052606401610450565b6104ed84848484035f6105ce565b50505050565b6001600160a01b03831661051c57604051634b637e8f60e11b81525f6004820152602401610450565b6001600160a01b0382166105455760405163ec442f0560e01b81525f6004820152602401610450565b6104728383836106a0565b6005546001600160a01b0316331461036e5760405163118cdaa760e01b8152336004820152602401610450565b600580546001600160a01b038381166001600160a01b0319831681179093556040519116919082907f8be0079c531659141344cd1fd0a4f28419497f9722a3daafe3b4186f6b6457e0905f90a35050565b6001600160a01b0384166105f75760405163e602df0560e01b81525f6004820152602401610450565b6001600160a01b03831661062057604051634a1406b160e11b81525f6004820152602401610450565b6001600160a01b038085165f90815260016020908152604080832093871683529290522082905580156104ed57826001600160a01b0316846001600160a01b03167f8c5be1e5ebec7d5bd14f71427d1e84f3dd0314c0f7b2291e5b200ac8c7c3b9258460405161069291815260200190565b60405180910390a350505050565b6001600160a01b0383166106ca578060025f8282546106bf9190610943565b9091555061073a9050565b6001600160a01b0383165f908152602081905260409020548181101561071c5760405163391434e360e21b81526001600160a01b03851660048201526024810182905260448101839052606401610450565b6001600160a01b0384165f9081526020819052604090209082900390555b6001600160a01b03821661075657600280548290039055610774565b6001600160a01b0382165f9081526020819052604090208054820190555b816001600160a01b0316836001600160a01b03167fddf252ad1be2c89b69c2b068fc378daa952ba7f163c4a11628f55a4df523b3ef836040516107b991815260200190565b60405180910390a3505050565b602081525f82518060208401528060208501604085015e5f604082850101526040601f19601f83011684010191505092915050565b80356001600160a01b0381168114610811575f5ffd5b919050565b5f5f60408385031215610827575f5ffd5b610830836107fb565b946020939093013593505050565b5f5f5f60608486031215610850575f5ffd5b610859846107fb565b9250610867602085016107fb565b929592945050506040919091013590565b5f60208284031215610888575f5ffd5b610891826107fb565b9392505050565b5f602082840312156108a8575f5ffd5b5035919050565b5f5f604083850312156108c0575f5ffd5b6108c9836107fb565b91506108d7602084016107fb565b90509250929050565b600181811c908216806108f457607f821691505b60208210810361091257634e487b7160e01b5f52602260045260245ffd5b50919050565b634e487b7160e01b5f52601160045260245ffd5b808202811582820484141761033457610334610918565b808201808211156103345761033461091856fea2646970667358221220cc7aac44bba623e73fa2fd3481eb234e1843ea88f99cd8db4d246f3d21b4083364736f6c634300081c0033a264697066735822122035187797e7787de5ce2b5e43352a76d27d3af11ca30bb779831af8b06013ed8964736f6c634300081c0033",
        "nonce": "0x32",
        "chainId": "0xdede"
      },
      "additionalContracts": [],
      "isFixedGasLimit": false
    },
    {
      "hash": "0x34a354335a44545821e39059ca47ef17f105c305d537ad03568d3215f4194f4c",
      "transactionType": "CALL",
      "contractName": "TokenFactory",
      "contractAddress": "0x3fb5f25f22ddd805094a77c06073b78a6d70b6ca",
      "function": "createToken(string,string,uint256)",
      "arguments": [
        "MockTokenA",
        "MKA",
        "1000000"
      ],
      "transaction": {
        "from": "0x3b4f0135465d444a5bd06ab90fc59b73916c85f5",
        "to": "0x3fb5f25f22ddd805094a77c06073b78a6d70b6ca",
        "gas": "0x105ca9",
        "value": "0x0",
        "input": "0x5b060530000000000000000000000000000000000000000000000000000000000000006000000000000000000000000000000000000000000000000000000000000000a000000000000000000000000000000000000000000000000000000000000f4240000000000000000000000000000000000000000000000000000000000000000a4d6f636b546f6b656e410000000000000000000000000000000000000000000000000000000000000000000000000000000000000000000000000000000000034d4b410000000000000000000000000000000000000000000000000000000000",
        "nonce": "0x33",
        "chainId": "0xdede"
      },
      "additionalContracts": [
        {
          "transactionType": "CREATE",
          "address": "0x36c82716c349bb190ceadda038d9c74b3ee647f1",
          "initCode": "0x608060405234801561000f575f5ffd5b50604051610fe4380380610fe483398101604081905261002e91610329565b808484600361003d838261043a565b50600461004a828261043a565b5050506001600160a01b03811661007b57604051631e4fbdf760e01b81525f60048201526024015b60405180910390fd5b610084816100dd565b506100a4816100956012600a6105ed565b61009f9085610602565b61012e565b670de0b6b3a764000060068190556002546100bf9190610602565b600755600280546100d09190610619565b6008555061064b92505050565b600580546001600160a01b038381166001600160a01b0319831681179093556040519116919082907f8be0079c531659141344cd1fd0a4f28419497f9722a3daafe3b4186f6b6457e0905f90a35050565b6001600160a01b0382166101575760405163ec442f0560e01b81525f6004820152602401610072565b6101625f8383610166565b5050565b6001600160a01b038316610190578060025f8282546101859190610638565b909155506102009050565b6001600160a01b0383165f90815260208190526040902054818110156101e25760405163391434e360e21b81526001600160a01b03851660048201526024810182905260448101839052606401610072565b6001600160a01b0384165f9081526020819052604090209082900390555b6001600160a01b03821661021c5760028054829003905561023a565b6001600160a01b0382165f9081526020819052604090208054820190555b816001600160a01b0316836001600160a01b03167fddf252ad1be2c89b69c2b068fc378daa952ba7f163c4a11628f55a4df523b3ef8360405161027f91815260200190565b60405180910390a3505050565b634e487b7160e01b5f52604160045260245ffd5b5f82601f8301126102af575f5ffd5b81516001600160401b038111156102c8576102c861028c565b604051601f8201601f19908116603f011681016001600160401b03811182821017156102f6576102f661028c565b60405281815283820160200185101561030d575f5ffd5b8160208501602083015e5f918101602001919091529392505050565b5f5f5f5f6080858703121561033c575f5ffd5b84516001600160401b03811115610351575f5ffd5b61035d878288016102a0565b602087015190955090506001600160401b0381111561037a575f5ffd5b610386878288016102a0565b60408701516060880151919550935090506001600160a01b03811681146103ab575f5ffd5b939692955090935050565b600181811c908216806103ca57607f821691505b6020821081036103e857634e487b7160e01b5f52602260045260245ffd5b50919050565b601f82111561043557805f5260205f20601f840160051c810160208510156104135750805b601f840160051c820191505b81811015610432575f815560010161041f565b50505b505050565b81516001600160401b038111156104535761045361028c565b6104678161046184546103b6565b846103ee565b6020601f821160018114610499575f83156104825750848201515b5f19600385901b1c1916600184901b178455610432565b5f84815260208120601f198516915b828110156104c857878501518255602094850194600190920191016104a8565b50848210156104e557868401515f19600387901b60f8161c191681555b50505050600190811b01905550565b634e487b7160e01b5f52601160045260245ffd5b6001815b600184111561054357808504811115610527576105276104f4565b600184161561053557908102905b60019390931c92800261050c565b935093915050565b5f82610559575060016105e7565b8161056557505f6105e7565b816001811461057b5760028114610585576105a1565b60019150506105e7565b60ff841115610596576105966104f4565b50506001821b6105e7565b5060208310610133831016604e8410600b84101617156105c4575081810a6105e7565b6105d05f198484610508565b805f19048211156105e3576105e36104f4565b0290505b92915050565b5f6105fb60ff84168361054b565b9392505050565b80820281158282048414176105e7576105e76104f4565b5f8261063357634e487b7160e01b5f52601260045260245ffd5b500490565b808201808211156105e7576105e76104f4565b61098c806106585f395ff3fe608060405234801561000f575f5ffd5b5060043610610111575f3560e01c80638da5cb5b1161009e578063a9059cbb1161006e578063a9059cbb1461020d578063d10424c714610220578063dd62ed3e14610233578063eb407ba91461026b578063f2fde38b1461027e575f5ffd5b80638da5cb5b146101ce57806391b7f5ed146101e957806395d89b41146101fc578063a035b1fe14610204575f5ffd5b806323b872dd116100e457806323b872dd146101715780632c135b9314610184578063313ce5671461018d57806370a082311461019c578063715018a6146101c4575f5ffd5b806306fdde0314610115578063095ea7b31461013357806318160ddd146101565780631a68650214610168575b5f5ffd5b61011d610291565b60405161012a91906107c6565b60405180910390f35b610146610141366004610816565b610321565b604051901515815260200161012a565b6002545b60405190815260200161012a565b61015a60085481565b61014661017f36600461083e565b61033a565b61015a60075481565b6040516012815260200161012a565b61015a6101aa366004610878565b6001600160a01b03165f9081526020819052604090205490565b6101cc61035d565b005b6005546040516001600160a01b03909116815260200161012a565b6101cc6101f7366004610898565b610370565b61011d6103c3565b61015a60065481565b61014661021b366004610816565b6103d2565b61015a61022e366004610898565b6103df565b61015a6102413660046108af565b6001600160a01b039182165f90815260016020908152604080832093909416825291909152205490565b6101cc610279366004610898565b6103ee565b6101cc61028c366004610878565b610423565b6060600380546102a0906108e0565b80601f01602080910402602001604051908101604052809291908181526020018280546102cc906108e0565b80156103175780601f106102ee57610100808354040283529160200191610317565b820191905f5260205f20905b8154815290600101906020018083116102fa57829003601f168201915b5050505050905090565b5f3361032e818585610465565b60019150505b92915050565b5f33610347858285610477565b6103528585856104f3565b506001949350505050565b610365610550565b61036e5f61057d565b565b60068190558061037f60025490565b610389919061092c565b6007556040518181527f66cbca4f3c64fecf1dcb9ce094abcf7f68c3450a1d4e3a8e917dd621edb4ebe0906020015b60405180910390a150565b6060600480546102a0906108e0565b5f3361032e8185856104f3565b5f60065482610334919061092c565b60088190556040518181527ff136596ab9e7acfd9d9cf6a0893ed79cc46ceab0c99ff3cb62c560645dad4658906020016103b8565b61042b610550565b6001600160a01b03811661045957604051631e4fbdf760e01b81525f60048201526024015b60405180910390fd5b6104628161057d565b50565b61047283838360016105ce565b505050565b6001600160a01b038381165f908152600160209081526040808320938616835292905220545f198110156104ed57818110156104df57604051637dc7a0d960e11b81526001600160a01b03841660048201526024810182905260448101839052606401610450565b6104ed84848484035f6105ce565b50505050565b6001600160a01b03831661051c57604051634b637e8f60e11b81525f6004820152602401610450565b6001600160a01b0382166105455760405163ec442f0560e01b81525f6004820152602401610450565b6104728383836106a0565b6005546001600160a01b0316331461036e5760405163118cdaa760e01b8152336004820152602401610450565b600580546001600160a01b038381166001600160a01b0319831681179093556040519116919082907f8be0079c531659141344cd1fd0a4f28419497f9722a3daafe3b4186f6b6457e0905f90a35050565b6001600160a01b0384166105f75760405163e602df0560e01b81525f6004820152602401610450565b6001600160a01b03831661062057604051634a1406b160e11b81525f6004820152602401610450565b6001600160a01b038085165f90815260016020908152604080832093871683529290522082905580156104ed57826001600160a01b0316846001600160a01b03167f8c5be1e5ebec7d5bd14f71427d1e84f3dd0314c0f7b2291e5b200ac8c7c3b9258460405161069291815260200190565b60405180910390a350505050565b6001600160a01b0383166106ca578060025f8282546106bf9190610943565b9091555061073a9050565b6001600160a01b0383165f908152602081905260409020548181101561071c5760405163391434e360e21b81526001600160a01b03851660048201526024810182905260448101839052606401610450565b6001600160a01b0384165f9081526020819052604090209082900390555b6001600160a01b03821661075657600280548290039055610774565b6001600160a01b0382165f9081526020819052604090208054820190555b816001600160a01b0316836001600160a01b03167fddf252ad1be2c89b69c2b068fc378daa952ba7f163c4a11628f55a4df523b3ef836040516107b991815260200190565b60405180910390a3505050565b602081525f82518060208401528060208501604085015e5f604082850101526040601f19601f83011684010191505092915050565b80356001600160a01b0381168114610811575f5ffd5b919050565b5f5f60408385031215610827575f5ffd5b610830836107fb565b946020939093013593505050565b5f5f5f60608486031215610850575f5ffd5b610859846107fb565b9250610867602085016107fb565b929592945050506040919091013590565b5f60208284031215610888575f5ffd5b610891826107fb565b9392505050565b5f602082840312156108a8575f5ffd5b5035919050565b5f5f604083850312156108c0575f5ffd5b6108c9836107fb565b91506108d7602084016107fb565b90509250929050565b600181811c908216806108f457607f821691505b60208210810361091257634e487b7160e01b5f52602260045260245ffd5b50919050565b634e487b7160e01b5f52601160045260245ffd5b808202811582820484141761033457610334610918565b808201808211156103345761033461091856fea2646970667358221220cc7aac44bba623e73fa2fd3481eb234e1843ea88f99cd8db4d246f3d21b4083364736f6c634300081c0033000000000000000000000000000000000000000000000000000000000000008000000000000000000000000000000000000000000000000000000000000000c000000000000000000000000000000000000000000000000000000000000f42400000000000000000000000003b4f0135465d444a5bd06ab90fc59b73916c85f5000000000000000000000000000000000000000000000000000000000000000a4d6f636b546f6b656e410000000000000000000000000000000000000000000000000000000000000000000000000000000000000000000000000000000000034d4b410000000000000000000000000000000000000000000000000000000000"
        }
      ],
      "isFixedGasLimit": false
    },
    {
      "hash": "0x7f45d9b14251cbc086a2629ee9c2938c6406423ce0a30ce9145cf82050ad568f",
      "transactionType": "CALL",
      "contractName": "MockToken",
      "contractAddress": "0x36c82716c349bb190ceadda038d9c74b3ee647f1",
      "function": "setPrice(uint256)",
      "arguments": [
        "500000000000000000"
      ],
      "transaction": {
        "from": "0x3b4f0135465d444a5bd06ab90fc59b73916c85f5",
        "to": "0x36c82716c349bb190ceadda038d9c74b3ee647f1",
        "gas": "0xbbd3",
        "value": "0x0",
        "input": "0x91b7f5ed00000000000000000000000000000000000000000000000006f05b59d3b20000",
        "nonce": "0x34",
        "chainId": "0xdede"
      },
      "additionalContracts": [],
      "isFixedGasLimit": false
    },
    {
      "hash": "0x302633c70536c8f99f6833fed050d293abb134526307eae31b21eaa5589995b7",
      "transactionType": "CALL",
      "contractName": "MockToken",
      "contractAddress": "0x36c82716c349bb190ceadda038d9c74b3ee647f1",
      "function": "setLiquidity(uint256)",
      "arguments": [
        "200000"
      ],
      "transaction": {
        "from": "0x3b4f0135465d444a5bd06ab90fc59b73916c85f5",
        "to": "0x36c82716c349bb190ceadda038d9c74b3ee647f1",
        "gas": "0x94fe",
        "value": "0x0",
        "input": "0xeb407ba90000000000000000000000000000000000000000000000000000000000030d40",
        "nonce": "0x35",
        "chainId": "0xdede"
      },
      "additionalContracts": [],
      "isFixedGasLimit": false
    },
    {
      "hash": "0xe69dc34c1357a1e2692906d4790add6d5cfe07aa4b6da3478e7a720aaa4d4d3e",
      "transactionType": "CALL",
      "contractName": "TokenFactory",
      "contractAddress": "0x3fb5f25f22ddd805094a77c06073b78a6d70b6ca",
      "function": "createToken(string,string,uint256)",
      "arguments": [
        "MockTokenB",
        "MKB",
        "500000"
      ],
      "transaction": {
        "from": "0x3b4f0135465d444a5bd06ab90fc59b73916c85f5",
        "to": "0x3fb5f25f22ddd805094a77c06073b78a6d70b6ca",
        "gas": "0x105ca9",
        "value": "0x0",
        "input": "0x5b060530000000000000000000000000000000000000000000000000000000000000006000000000000000000000000000000000000000000000000000000000000000a0000000000000000000000000000000000000000000000000000000000007a120000000000000000000000000000000000000000000000000000000000000000a4d6f636b546f6b656e420000000000000000000000000000000000000000000000000000000000000000000000000000000000000000000000000000000000034d4b420000000000000000000000000000000000000000000000000000000000",
        "nonce": "0x36",
        "chainId": "0xdede"
      },
      "additionalContracts": [
        {
          "transactionType": "CREATE",
          "address": "0x442fea455f30c3f131bd16bbb3a78603cb6a4dd4",
          "initCode": "0x608060405234801561000f575f5ffd5b50604051610fe4380380610fe483398101604081905261002e91610329565b808484600361003d838261043a565b50600461004a828261043a565b5050506001600160a01b03811661007b57604051631e4fbdf760e01b81525f60048201526024015b60405180910390fd5b610084816100dd565b506100a4816100956012600a6105ed565b61009f9085610602565b61012e565b670de0b6b3a764000060068190556002546100bf9190610602565b600755600280546100d09190610619565b6008555061064b92505050565b600580546001600160a01b038381166001600160a01b0319831681179093556040519116919082907f8be0079c531659141344cd1fd0a4f28419497f9722a3daafe3b4186f6b6457e0905f90a35050565b6001600160a01b0382166101575760405163ec442f0560e01b81525f6004820152602401610072565b6101625f8383610166565b5050565b6001600160a01b038316610190578060025f8282546101859190610638565b909155506102009050565b6001600160a01b0383165f90815260208190526040902054818110156101e25760405163391434e360e21b81526001600160a01b03851660048201526024810182905260448101839052606401610072565b6001600160a01b0384165f9081526020819052604090209082900390555b6001600160a01b03821661021c5760028054829003905561023a565b6001600160a01b0382165f9081526020819052604090208054820190555b816001600160a01b0316836001600160a01b03167fddf252ad1be2c89b69c2b068fc378daa952ba7f163c4a11628f55a4df523b3ef8360405161027f91815260200190565b60405180910390a3505050565b634e487b7160e01b5f52604160045260245ffd5b5f82601f8301126102af575f5ffd5b81516001600160401b038111156102c8576102c861028c565b604051601f8201601f19908116603f011681016001600160401b03811182821017156102f6576102f661028c565b60405281815283820160200185101561030d575f5ffd5b8160208501602083015e5f918101602001919091529392505050565b5f5f5f5f6080858703121561033c575f5ffd5b84516001600160401b03811115610351575f5ffd5b61035d878288016102a0565b602087015190955090506001600160401b0381111561037a575f5ffd5b610386878288016102a0565b60408701516060880151919550935090506001600160a01b03811681146103ab575f5ffd5b939692955090935050565b600181811c908216806103ca57607f821691505b6020821081036103e857634e487b7160e01b5f52602260045260245ffd5b50919050565b601f82111561043557805f5260205f20601f840160051c810160208510156104135750805b601f840160051c820191505b81811015610432575f815560010161041f565b50505b505050565b81516001600160401b038111156104535761045361028c565b6104678161046184546103b6565b846103ee565b6020601f821160018114610499575f83156104825750848201515b5f19600385901b1c1916600184901b178455610432565b5f84815260208120601f198516915b828110156104c857878501518255602094850194600190920191016104a8565b50848210156104e557868401515f19600387901b60f8161c191681555b50505050600190811b01905550565b634e487b7160e01b5f52601160045260245ffd5b6001815b600184111561054357808504811115610527576105276104f4565b600184161561053557908102905b60019390931c92800261050c565b935093915050565b5f82610559575060016105e7565b8161056557505f6105e7565b816001811461057b5760028114610585576105a1565b60019150506105e7565b60ff841115610596576105966104f4565b50506001821b6105e7565b5060208310610133831016604e8410600b84101617156105c4575081810a6105e7565b6105d05f198484610508565b805f19048211156105e3576105e36104f4565b0290505b92915050565b5f6105fb60ff84168361054b565b9392505050565b80820281158282048414176105e7576105e76104f4565b5f8261063357634e487b7160e01b5f52601260045260245ffd5b500490565b808201808211156105e7576105e76104f4565b61098c806106585f395ff3fe608060405234801561000f575f5ffd5b5060043610610111575f3560e01c80638da5cb5b1161009e578063a9059cbb1161006e578063a9059cbb1461020d578063d10424c714610220578063dd62ed3e14610233578063eb407ba91461026b578063f2fde38b1461027e575f5ffd5b80638da5cb5b146101ce57806391b7f5ed146101e957806395d89b41146101fc578063a035b1fe14610204575f5ffd5b806323b872dd116100e457806323b872dd146101715780632c135b9314610184578063313ce5671461018d57806370a082311461019c578063715018a6146101c4575f5ffd5b806306fdde0314610115578063095ea7b31461013357806318160ddd146101565780631a68650214610168575b5f5ffd5b61011d610291565b60405161012a91906107c6565b60405180910390f35b610146610141366004610816565b610321565b604051901515815260200161012a565b6002545b60405190815260200161012a565b61015a60085481565b61014661017f36600461083e565b61033a565b61015a60075481565b6040516012815260200161012a565b61015a6101aa366004610878565b6001600160a01b03165f9081526020819052604090205490565b6101cc61035d565b005b6005546040516001600160a01b03909116815260200161012a565b6101cc6101f7366004610898565b610370565b61011d6103c3565b61015a60065481565b61014661021b366004610816565b6103d2565b61015a61022e366004610898565b6103df565b61015a6102413660046108af565b6001600160a01b039182165f90815260016020908152604080832093909416825291909152205490565b6101cc610279366004610898565b6103ee565b6101cc61028c366004610878565b610423565b6060600380546102a0906108e0565b80601f01602080910402602001604051908101604052809291908181526020018280546102cc906108e0565b80156103175780601f106102ee57610100808354040283529160200191610317565b820191905f5260205f20905b8154815290600101906020018083116102fa57829003601f168201915b5050505050905090565b5f3361032e818585610465565b60019150505b92915050565b5f33610347858285610477565b6103528585856104f3565b506001949350505050565b610365610550565b61036e5f61057d565b565b60068190558061037f60025490565b610389919061092c565b6007556040518181527f66cbca4f3c64fecf1dcb9ce094abcf7f68c3450a1d4e3a8e917dd621edb4ebe0906020015b60405180910390a150565b6060600480546102a0906108e0565b5f3361032e8185856104f3565b5f60065482610334919061092c565b60088190556040518181527ff136596ab9e7acfd9d9cf6a0893ed79cc46ceab0c99ff3cb62c560645dad4658906020016103b8565b61042b610550565b6001600160a01b03811661045957604051631e4fbdf760e01b81525f60048201526024015b60405180910390fd5b6104628161057d565b50565b61047283838360016105ce565b505050565b6001600160a01b038381165f908152600160209081526040808320938616835292905220545f198110156104ed57818110156104df57604051637dc7a0d960e11b81526001600160a01b03841660048201526024810182905260448101839052606401610450565b6104ed84848484035f6105ce565b50505050565b6001600160a01b03831661051c57604051634b637e8f60e11b81525f6004820152602401610450565b6001600160a01b0382166105455760405163ec442f0560e01b81525f6004820152602401610450565b6104728383836106a0565b6005546001600160a01b0316331461036e5760405163118cdaa760e01b8152336004820152602401610450565b600580546001600160a01b038381166001600160a01b0319831681179093556040519116919082907f8be0079c531659141344cd1fd0a4f28419497f9722a3daafe3b4186f6b6457e0905f90a35050565b6001600160a01b0384166105f75760405163e602df0560e01b81525f6004820152602401610450565b6001600160a01b03831661062057604051634a1406b160e11b81525f6004820152602401610450565b6001600160a01b038085165f90815260016020908152604080832093871683529290522082905580156104ed57826001600160a01b0316846001600160a01b03167f8c5be1e5ebec7d5bd14f71427d1e84f3dd0314c0f7b2291e5b200ac8c7c3b9258460405161069291815260200190565b60405180910390a350505050565b6001600160a01b0383166106ca578060025f8282546106bf9190610943565b9091555061073a9050565b6001600160a01b0383165f908152602081905260409020548181101561071c5760405163391434e360e21b81526001600160a01b03851660048201526024810182905260448101839052606401610450565b6001600160a01b0384165f9081526020819052604090209082900390555b6001600160a01b03821661075657600280548290039055610774565b6001600160a01b0382165f9081526020819052604090208054820190555b816001600160a01b0316836001600160a01b03167fddf252ad1be2c89b69c2b068fc378daa952ba7f163c4a11628f55a4df523b3ef836040516107b991815260200190565b60405180910390a3505050565b602081525f82518060208401528060208501604085015e5f604082850101526040601f19601f83011684010191505092915050565b80356001600160a01b0381168114610811575f5ffd5b919050565b5f5f60408385031215610827575f5ffd5b610830836107fb565b946020939093013593505050565b5f5f5f60608486031215610850575f5ffd5b610859846107fb565b9250610867602085016107fb565b929592945050506040919091013590565b5f60208284031215610888575f5ffd5b610891826107fb565b9392505050565b5f602082840312156108a8575f5ffd5b5035919050565b5f5f604083850312156108c0575f5ffd5b6108c9836107fb565b91506108d7602084016107fb565b90509250929050565b600181811c908216806108f457607f821691505b60208210810361091257634e487b7160e01b5f52602260045260245ffd5b50919050565b634e487b7160e01b5f52601160045260245ffd5b808202811582820484141761033457610334610918565b808201808211156103345761033461091856fea2646970667358221220cc7aac44bba623e73fa2fd3481eb234e1843ea88f99cd8db4d246f3d21b4083364736f6c634300081c0033000000000000000000000000000000000000000000000000000000000000008000000000000000000000000000000000000000000000000000000000000000c0000000000000000000000000000000000000000000000000000000000007a1200000000000000000000000003b4f0135465d444a5bd06ab90fc59b73916c85f5000000000000000000000000000000000000000000000000000000000000000a4d6f636b546f6b656e420000000000000000000000000000000000000000000000000000000000000000000000000000000000000000000000000000000000034d4b420000000000000000000000000000000000000000000000000000000000"
        }
      ],
      "isFixedGasLimit": false
    },
    {
      "hash": "0xa44c544b169475c48ee546c103cfffe9cfbbf3b1ca1750390c07e920e0e4bf32",
      "transactionType": "CALL",
      "contractName": "MockToken",
      "contractAddress": "0x442fea455f30c3f131bd16bbb3a78603cb6a4dd4",
      "function": "setPrice(uint256)",
      "arguments": [
        "1000000000000000000"
      ],
      "transaction": {
        "from": "0x3b4f0135465d444a5bd06ab90fc59b73916c85f5",
        "to": "0x442fea455f30c3f131bd16bbb3a78603cb6a4dd4",
        "gas": "0x9d9c",
        "value": "0x0",
        "input": "0x91b7f5ed0000000000000000000000000000000000000000000000000de0b6b3a7640000",
        "nonce": "0x37",
        "chainId": "0xdede"
      },
      "additionalContracts": [],
      "isFixedGasLimit": false
    },
    {
      "hash": "0x32f28868ef24981a66f0779dd261fcb71c7bcf8af5f20ed5247631c781f4b324",
      "transactionType": "CALL",
      "contractName": "MockToken",
      "contractAddress": "0x442fea455f30c3f131bd16bbb3a78603cb6a4dd4",
      "function": "setLiquidity(uint256)",
      "arguments": [
        "100000"
      ],
      "transaction": {
        "from": "0x3b4f0135465d444a5bd06ab90fc59b73916c85f5",
        "to": "0x442fea455f30c3f131bd16bbb3a78603cb6a4dd4",
        "gas": "0x94fe",
        "value": "0x0",
        "input": "0xeb407ba900000000000000000000000000000000000000000000000000000000000186a0",
        "nonce": "0x38",
        "chainId": "0xdede"
      },
      "additionalContracts": [],
      "isFixedGasLimit": false
    },
    {
      "hash": "0xaabe2f41bc4396dc5aae2d3fe9943e116ccb0ed0efec1544df3a10d64235b8d1",
      "transactionType": "CALL",
      "contractName": "TokenFactory",
      "contractAddress": "0x3fb5f25f22ddd805094a77c06073b78a6d70b6ca",
      "function": "createToken(string,string,uint256)",
      "arguments": [
        "MockTokenC",
        "MKC",
        "2000000"
      ],
      "transaction": {
        "from": "0x3b4f0135465d444a5bd06ab90fc59b73916c85f5",
        "to": "0x3fb5f25f22ddd805094a77c06073b78a6d70b6ca",
        "gas": "0x105ca9",
        "value": "0x0",
        "input": "0x5b060530000000000000000000000000000000000000000000000000000000000000006000000000000000000000000000000000000000000000000000000000000000a000000000000000000000000000000000000000000000000000000000001e8480000000000000000000000000000000000000000000000000000000000000000a4d6f636b546f6b656e430000000000000000000000000000000000000000000000000000000000000000000000000000000000000000000000000000000000034d4b430000000000000000000000000000000000000000000000000000000000",
        "nonce": "0x39",
        "chainId": "0xdede"
      },
      "additionalContracts": [
        {
          "transactionType": "CREATE",
          "address": "0xd7e6b81151a158cfad61912e449060882815fb69",
          "initCode": "0x608060405234801561000f575f5ffd5b50604051610fe4380380610fe483398101604081905261002e91610329565b808484600361003d838261043a565b50600461004a828261043a565b5050506001600160a01b03811661007b57604051631e4fbdf760e01b81525f60048201526024015b60405180910390fd5b610084816100dd565b506100a4816100956012600a6105ed565b61009f9085610602565b61012e565b670de0b6b3a764000060068190556002546100bf9190610602565b600755600280546100d09190610619565b6008555061064b92505050565b600580546001600160a01b038381166001600160a01b0319831681179093556040519116919082907f8be0079c531659141344cd1fd0a4f28419497f9722a3daafe3b4186f6b6457e0905f90a35050565b6001600160a01b0382166101575760405163ec442f0560e01b81525f6004820152602401610072565b6101625f8383610166565b5050565b6001600160a01b038316610190578060025f8282546101859190610638565b909155506102009050565b6001600160a01b0383165f90815260208190526040902054818110156101e25760405163391434e360e21b81526001600160a01b03851660048201526024810182905260448101839052606401610072565b6001600160a01b0384165f9081526020819052604090209082900390555b6001600160a01b03821661021c5760028054829003905561023a565b6001600160a01b0382165f9081526020819052604090208054820190555b816001600160a01b0316836001600160a01b03167fddf252ad1be2c89b69c2b068fc378daa952ba7f163c4a11628f55a4df523b3ef8360405161027f91815260200190565b60405180910390a3505050565b634e487b7160e01b5f52604160045260245ffd5b5f82601f8301126102af575f5ffd5b81516001600160401b038111156102c8576102c861028c565b604051601f8201601f19908116603f011681016001600160401b03811182821017156102f6576102f661028c565b60405281815283820160200185101561030d575f5ffd5b8160208501602083015e5f918101602001919091529392505050565b5f5f5f5f6080858703121561033c575f5ffd5b84516001600160401b03811115610351575f5ffd5b61035d878288016102a0565b602087015190955090506001600160401b0381111561037a575f5ffd5b610386878288016102a0565b60408701516060880151919550935090506001600160a01b03811681146103ab575f5ffd5b939692955090935050565b600181811c908216806103ca57607f821691505b6020821081036103e857634e487b7160e01b5f52602260045260245ffd5b50919050565b601f82111561043557805f5260205f20601f840160051c810160208510156104135750805b601f840160051c820191505b81811015610432575f815560010161041f565b50505b505050565b81516001600160401b038111156104535761045361028c565b6104678161046184546103b6565b846103ee565b6020601f821160018114610499575f83156104825750848201515b5f19600385901b1c1916600184901b178455610432565b5f84815260208120601f198516915b828110156104c857878501518255602094850194600190920191016104a8565b50848210156104e557868401515f19600387901b60f8161c191681555b50505050600190811b01905550565b634e487b7160e01b5f52601160045260245ffd5b6001815b600184111561054357808504811115610527576105276104f4565b600184161561053557908102905b60019390931c92800261050c565b935093915050565b5f82610559575060016105e7565b8161056557505f6105e7565b816001811461057b5760028114610585576105a1565b60019150506105e7565b60ff841115610596576105966104f4565b50506001821b6105e7565b5060208310610133831016604e8410600b84101617156105c4575081810a6105e7565b6105d05f198484610508565b805f19048211156105e3576105e36104f4565b0290505b92915050565b5f6105fb60ff84168361054b565b9392505050565b80820281158282048414176105e7576105e76104f4565b5f8261063357634e487b7160e01b5f52601260045260245ffd5b500490565b808201808211156105e7576105e76104f4565b61098c806106585f395ff3fe608060405234801561000f575f5ffd5b5060043610610111575f3560e01c80638da5cb5b1161009e578063a9059cbb1161006e578063a9059cbb1461020d578063d10424c714610220578063dd62ed3e14610233578063eb407ba91461026b578063f2fde38b1461027e575f5ffd5b80638da5cb5b146101ce57806391b7f5ed146101e957806395d89b41146101fc578063a035b1fe14610204575f5ffd5b806323b872dd116100e457806323b872dd146101715780632c135b9314610184578063313ce5671461018d57806370a082311461019c578063715018a6146101c4575f5ffd5b806306fdde0314610115578063095ea7b31461013357806318160ddd146101565780631a68650214610168575b5f5ffd5b61011d610291565b60405161012a91906107c6565b60405180910390f35b610146610141366004610816565b610321565b604051901515815260200161012a565b6002545b60405190815260200161012a565b61015a60085481565b61014661017f36600461083e565b61033a565b61015a60075481565b6040516012815260200161012a565b61015a6101aa366004610878565b6001600160a01b03165f9081526020819052604090205490565b6101cc61035d565b005b6005546040516001600160a01b03909116815260200161012a565b6101cc6101f7366004610898565b610370565b61011d6103c3565b61015a60065481565b61014661021b366004610816565b6103d2565b61015a61022e366004610898565b6103df565b61015a6102413660046108af565b6001600160a01b039182165f90815260016020908152604080832093909416825291909152205490565b6101cc610279366004610898565b6103ee565b6101cc61028c366004610878565b610423565b6060600380546102a0906108e0565b80601f01602080910402602001604051908101604052809291908181526020018280546102cc906108e0565b80156103175780601f106102ee57610100808354040283529160200191610317565b820191905f5260205f20905b8154815290600101906020018083116102fa57829003601f168201915b5050505050905090565b5f3361032e818585610465565b60019150505b92915050565b5f33610347858285610477565b6103528585856104f3565b506001949350505050565b610365610550565b61036e5f61057d565b565b60068190558061037f60025490565b610389919061092c565b6007556040518181527f66cbca4f3c64fecf1dcb9ce094abcf7f68c3450a1d4e3a8e917dd621edb4ebe0906020015b60405180910390a150565b6060600480546102a0906108e0565b5f3361032e8185856104f3565b5f60065482610334919061092c565b60088190556040518181527ff136596ab9e7acfd9d9cf6a0893ed79cc46ceab0c99ff3cb62c560645dad4658906020016103b8565b61042b610550565b6001600160a01b03811661045957604051631e4fbdf760e01b81525f60048201526024015b60405180910390fd5b6104628161057d565b50565b61047283838360016105ce565b505050565b6001600160a01b038381165f908152600160209081526040808320938616835292905220545f198110156104ed57818110156104df57604051637dc7a0d960e11b81526001600160a01b03841660048201526024810182905260448101839052606401610450565b6104ed84848484035f6105ce565b50505050565b6001600160a01b03831661051c57604051634b637e8f60e11b81525f6004820152602401610450565b6001600160a01b0382166105455760405163ec442f0560e01b81525f6004820152602401610450565b6104728383836106a0565b6005546001600160a01b0316331461036e5760405163118cdaa760e01b8152336004820152602401610450565b600580546001600160a01b038381166001600160a01b0319831681179093556040519116919082907f8be0079c531659141344cd1fd0a4f28419497f9722a3daafe3b4186f6b6457e0905f90a35050565b6001600160a01b0384166105f75760405163e602df0560e01b81525f6004820152602401610450565b6001600160a01b03831661062057604051634a1406b160e11b81525f6004820152602401610450565b6001600160a01b038085165f90815260016020908152604080832093871683529290522082905580156104ed57826001600160a01b0316846001600160a01b03167f8c5be1e5ebec7d5bd14f71427d1e84f3dd0314c0f7b2291e5b200ac8c7c3b9258460405161069291815260200190565b60405180910390a350505050565b6001600160a01b0383166106ca578060025f8282546106bf9190610943565b9091555061073a9050565b6001600160a01b0383165f908152602081905260409020548181101561071c5760405163391434e360e21b81526001600160a01b03851660048201526024810182905260448101839052606401610450565b6001600160a01b0384165f9081526020819052604090209082900390555b6001600160a01b03821661075657600280548290039055610774565b6001600160a01b0382165f9081526020819052604090208054820190555b816001600160a01b0316836001600160a01b03167fddf252ad1be2c89b69c2b068fc378daa952ba7f163c4a11628f55a4df523b3ef836040516107b991815260200190565b60405180910390a3505050565b602081525f82518060208401528060208501604085015e5f604082850101526040601f19601f83011684010191505092915050565b80356001600160a01b0381168114610811575f5ffd5b919050565b5f5f60408385031215610827575f5ffd5b610830836107fb565b946020939093013593505050565b5f5f5f60608486031215610850575f5ffd5b610859846107fb565b9250610867602085016107fb565b929592945050506040919091013590565b5f60208284031215610888575f5ffd5b610891826107fb565b9392505050565b5f602082840312156108a8575f5ffd5b5035919050565b5f5f604083850312156108c0575f5ffd5b6108c9836107fb565b91506108d7602084016107fb565b90509250929050565b600181811c908216806108f457607f821691505b60208210810361091257634e487b7160e01b5f52602260045260245ffd5b50919050565b634e487b7160e01b5f52601160045260245ffd5b808202811582820484141761033457610334610918565b808201808211156103345761033461091856fea2646970667358221220cc7aac44bba623e73fa2fd3481eb234e1843ea88f99cd8db4d246f3d21b4083364736f6c634300081c0033000000000000000000000000000000000000000000000000000000000000008000000000000000000000000000000000000000000000000000000000000000c000000000000000000000000000000000000000000000000000000000001e84800000000000000000000000003b4f0135465d444a5bd06ab90fc59b73916c85f5000000000000000000000000000000000000000000000000000000000000000a4d6f636b546f6b656e430000000000000000000000000000000000000000000000000000000000000000000000000000000000000000000000000000000000034d4b430000000000000000000000000000000000000000000000000000000000"
        }
      ],
      "isFixedGasLimit": false
    },
    {
      "hash": "0x87905b2d090cc2e23b2e866a772e9d78418b0735249b4f7e003000b15f932438",
      "transactionType": "CALL",
      "contractName": "MockToken",
      "contractAddress": "0xd7e6b81151a158cfad61912e449060882815fb69",
      "function": "setPrice(uint256)",
      "arguments": [
        "250000000000000000"
      ],
      "transaction": {
        "from": "0x3b4f0135465d444a5bd06ab90fc59b73916c85f5",
        "to": "0xd7e6b81151a158cfad61912e449060882815fb69",
        "gas": "0xbbd3",
        "value": "0x0",
        "input": "0x91b7f5ed00000000000000000000000000000000000000000000000003782dace9d90000",
        "nonce": "0x3a",
        "chainId": "0xdede"
      },
      "additionalContracts": [],
      "isFixedGasLimit": false
    },
    {
      "hash": "0x10ccca2dff305bf2ee0e76806269b54843222114aed4b3bbc68b65ef295dfde0",
      "transactionType": "CALL",
      "contractName": "MockToken",
      "contractAddress": "0xd7e6b81151a158cfad61912e449060882815fb69",
      "function": "setLiquidity(uint256)",
      "arguments": [
        "500000"
      ],
      "transaction": {
        "from": "0x3b4f0135465d444a5bd06ab90fc59b73916c85f5",
        "to": "0xd7e6b81151a158cfad61912e449060882815fb69",
        "gas": "0x94fe",
        "value": "0x0",
        "input": "0xeb407ba9000000000000000000000000000000000000000000000000000000000007a120",
        "nonce": "0x3b",
        "chainId": "0xdede"
      },
      "additionalContracts": [],
      "isFixedGasLimit": false
    }
  ],
  "receipts": [
    {
      "status": "0x1",
      "cumulativeGasUsed": "0x119d7a",
      "logs": [],
      "logsBloom": "0x00000000000000000000000000000000000000000000000000000000000000000000000000000000000000000000000000000000000000000000000000000000000000000000000000000000000000000000000000000000000000000000000000000000000000000000000000000000000000000000000000000000000000000000000000000000000000000000000000000000000000000000000000000000000000000000000000000000000000000000000000000000000000000000000000000000000000000000000000000000000000000000000000000000000000000000000000000000000000000000000000000000000000000000000000000000",
      "type": "0x2",
      "transactionHash": "0x47a6b6977a7cc44ecfc68d00c7684634f4051ec206cabc913b56ecaece313dd6",
      "transactionIndex": "0x2",
      "blockHash": "0x5cbb3b90773936ee1269e637fac737e7e557e789ae191e3c76d8874735c162a6",
      "blockNumber": "0x157d6e9",
      "gasUsed": "0x10f96a",
      "effectiveGasPrice": "0x3b9aca01",
      "from": "0x3b4f0135465d444a5bd06ab90fc59b73916c85f5",
      "to": null,
      "contractAddress": "0x3fb5f25f22ddd805094a77c06073b78a6d70b6ca"
    },
    {
      "status": "0x1",
      "cumulativeGasUsed": "0xbb481",
      "logs": [
        {
          "address": "0x36c82716c349bb190ceadda038d9c74b3ee647f1",
          "topics": [
            "0x8be0079c531659141344cd1fd0a4f28419497f9722a3daafe3b4186f6b6457e0",
            "0x0000000000000000000000000000000000000000000000000000000000000000",
            "0x0000000000000000000000003b4f0135465d444a5bd06ab90fc59b73916c85f5"
          ],
          "data": "0x",
          "blockHash": "0xa028c842fb437241242b5ad2e1fd4cb107558de59b44263fcac42856ad690390",
          "blockNumber": "0x157d6ec",
          "transactionHash": "0x34a354335a44545821e39059ca47ef17f105c305d537ad03568d3215f4194f4c",
          "transactionIndex": "0x0",
          "logIndex": "0x0",
          "removed": false
        },
        {
          "address": "0x36c82716c349bb190ceadda038d9c74b3ee647f1",
          "topics": [
            "0xddf252ad1be2c89b69c2b068fc378daa952ba7f163c4a11628f55a4df523b3ef",
            "0x0000000000000000000000000000000000000000000000000000000000000000",
            "0x0000000000000000000000003b4f0135465d444a5bd06ab90fc59b73916c85f5"
          ],
          "data": "0x00000000000000000000000000000000000000000000d3c21bcecceda1000000",
          "blockHash": "0xa028c842fb437241242b5ad2e1fd4cb107558de59b44263fcac42856ad690390",
          "blockNumber": "0x157d6ec",
          "transactionHash": "0x34a354335a44545821e39059ca47ef17f105c305d537ad03568d3215f4194f4c",
          "transactionIndex": "0x0",
          "logIndex": "0x1",
          "removed": false
        },
        {
          "address": "0x3fb5f25f22ddd805094a77c06073b78a6d70b6ca",
          "topics": [
            "0xb7d8fd3c9d56d12c15c8e139bc4e6febd6ad2349b3ebe6a1a91c0a9e7797710d",
            "0x00000000000000000000000036c82716c349bb190ceadda038d9c74b3ee647f1"
          ],
          "data": "0x000000000000000000000000000000000000000000000000000000000000008000000000000000000000000000000000000000000000000000000000000000c000000000000000000000000000000000000000000000000000000000000f42400000000000000000000000003b4f0135465d444a5bd06ab90fc59b73916c85f5000000000000000000000000000000000000000000000000000000000000000a4d6f636b546f6b656e410000000000000000000000000000000000000000000000000000000000000000000000000000000000000000000000000000000000034d4b410000000000000000000000000000000000000000000000000000000000",
          "blockHash": "0xa028c842fb437241242b5ad2e1fd4cb107558de59b44263fcac42856ad690390",
          "blockNumber": "0x157d6ec",
          "transactionHash": "0x34a354335a44545821e39059ca47ef17f105c305d537ad03568d3215f4194f4c",
          "transactionIndex": "0x0",
          "logIndex": "0x2",
          "removed": false
        }
      ],
      "logsBloom": "0x00000000000000010000000002000000000000000000080000800020000000008100040400000008000000000000000000000000000000000000000000400000000000000000000000000008000000000001000000000001000000000000000000000000020000000000000000000800000000000000000000000010000000400000000000000000000000000000000000000000000000000000000000000000000000000000000000000000000000000000000000000000000010000000000000000102000000000000000000000000000000000000000004002000000020000000000000000000000000000000000000000000000000000000000000000000",
      "type": "0x2",
      "transactionHash": "0x34a354335a44545821e39059ca47ef17f105c305d537ad03568d3215f4194f4c",
      "transactionIndex": "0x0",
      "blockHash": "0xa028c842fb437241242b5ad2e1fd4cb107558de59b44263fcac42856ad690390",
      "blockNumber": "0x157d6ec",
      "gasUsed": "0xbb481",
      "effectiveGasPrice": "0x3b9aca01",
      "from": "0x3b4f0135465d444a5bd06ab90fc59b73916c85f5",
      "to": "0x3fb5f25f22ddd805094a77c06073b78a6d70b6ca",
      "contractAddress": null
    },
    {
      "status": "0x1",
      "cumulativeGasUsed": "0xc41ac",
      "logs": [
        {
          "address": "0x36c82716c349bb190ceadda038d9c74b3ee647f1",
          "topics": [
            "0x66cbca4f3c64fecf1dcb9ce094abcf7f68c3450a1d4e3a8e917dd621edb4ebe0"
          ],
          "data": "0x00000000000000000000000000000000000000000000000006f05b59d3b20000",
          "blockHash": "0xa028c842fb437241242b5ad2e1fd4cb107558de59b44263fcac42856ad690390",
          "blockNumber": "0x157d6ec",
          "transactionHash": "0x7f45d9b14251cbc086a2629ee9c2938c6406423ce0a30ce9145cf82050ad568f",
          "transactionIndex": "0x1",
          "logIndex": "0x3",
          "removed": false
        }
      ],
      "logsBloom": "0x00000000000000010000000000000000000000000000000000000000000000000100000400000000000000000000000000000000000000000000000000000000000000000000000000000000000000000000000000000000000000000000000000000000000000000000000000000000000000000400000000000000000000000000000000000000000000000000000000000000000000000000000000000000000000000000000000000000000000000000000000000000000000000000000000000000000000000000000000000000000000000000000000000000002000000000000000000000000000000000000000000000000000000000000000000100",
      "type": "0x2",
      "transactionHash": "0x7f45d9b14251cbc086a2629ee9c2938c6406423ce0a30ce9145cf82050ad568f",
      "transactionIndex": "0x1",
      "blockHash": "0xa028c842fb437241242b5ad2e1fd4cb107558de59b44263fcac42856ad690390",
      "blockNumber": "0x157d6ec",
      "gasUsed": "0x8d2b",
      "effectiveGasPrice": "0x3b9aca01",
      "from": "0x3b4f0135465d444a5bd06ab90fc59b73916c85f5",
      "to": "0x36c82716c349bb190ceadda038d9c74b3ee647f1",
      "contractAddress": null
    },
    {
      "status": "0x1",
      "cumulativeGasUsed": "0xcb1a7",
      "logs": [
        {
          "address": "0x36c82716c349bb190ceadda038d9c74b3ee647f1",
          "topics": [
            "0xf136596ab9e7acfd9d9cf6a0893ed79cc46ceab0c99ff3cb62c560645dad4658"
          ],
          "data": "0x0000000000000000000000000000000000000000000000000000000000030d40",
          "blockHash": "0xa028c842fb437241242b5ad2e1fd4cb107558de59b44263fcac42856ad690390",
          "blockNumber": "0x157d6ec",
          "transactionHash": "0x302633c70536c8f99f6833fed050d293abb134526307eae31b21eaa5589995b7",
          "transactionIndex": "0x2",
          "logIndex": "0x4",
          "removed": false
        }
      ],
      "logsBloom": "0x00000000000000010000000000000000000000000000000000000000000000000100000400000000000000000000000000000000000000000000000000000000000000000000000000000000000000000000000000000000000000000000000000000000000000000080000000000002000000000000000000000000000000000000000000000000000000000000000000000000000000000000000000000000000000000000000000000000000000000000000000000000000000002000000000000000000000000000000000000000000000000000000000000000000000000000000000000000000000000000000000000000000000000000000000000000",
      "type": "0x2",
      "transactionHash": "0x302633c70536c8f99f6833fed050d293abb134526307eae31b21eaa5589995b7",
      "transactionIndex": "0x2",
      "blockHash": "0xa028c842fb437241242b5ad2e1fd4cb107558de59b44263fcac42856ad690390",
      "blockNumber": "0x157d6ec",
      "gasUsed": "0x6ffb",
      "effectiveGasPrice": "0x3b9aca01",
      "from": "0x3b4f0135465d444a5bd06ab90fc59b73916c85f5",
      "to": "0x36c82716c349bb190ceadda038d9c74b3ee647f1",
      "contractAddress": null
    },
    {
      "status": "0x1",
      "cumulativeGasUsed": "0x186628",
      "logs": [
        {
          "address": "0x442fea455f30c3f131bd16bbb3a78603cb6a4dd4",
          "topics": [
            "0x8be0079c531659141344cd1fd0a4f28419497f9722a3daafe3b4186f6b6457e0",
            "0x0000000000000000000000000000000000000000000000000000000000000000",
            "0x0000000000000000000000003b4f0135465d444a5bd06ab90fc59b73916c85f5"
          ],
          "data": "0x",
          "blockHash": "0xa028c842fb437241242b5ad2e1fd4cb107558de59b44263fcac42856ad690390",
          "blockNumber": "0x157d6ec",
          "transactionHash": "0xe69dc34c1357a1e2692906d4790add6d5cfe07aa4b6da3478e7a720aaa4d4d3e",
          "transactionIndex": "0x3",
          "logIndex": "0x5",
          "removed": false
        },
        {
          "address": "0x442fea455f30c3f131bd16bbb3a78603cb6a4dd4",
          "topics": [
            "0xddf252ad1be2c89b69c2b068fc378daa952ba7f163c4a11628f55a4df523b3ef",
            "0x0000000000000000000000000000000000000000000000000000000000000000",
            "0x0000000000000000000000003b4f0135465d444a5bd06ab90fc59b73916c85f5"
          ],
          "data": "0x0000000000000000000000000000000000000000000069e10de76676d0800000",
          "blockHash": "0xa028c842fb437241242b5ad2e1fd4cb107558de59b44263fcac42856ad690390",
          "blockNumber": "0x157d6ec",
          "transactionHash": "0xe69dc34c1357a1e2692906d4790add6d5cfe07aa4b6da3478e7a720aaa4d4d3e",
          "transactionIndex": "0x3",
          "logIndex": "0x6",
          "removed": false
        },
        {
          "address": "0x3fb5f25f22ddd805094a77c06073b78a6d70b6ca",
          "topics": [
            "0xb7d8fd3c9d56d12c15c8e139bc4e6febd6ad2349b3ebe6a1a91c0a9e7797710d",
            "0x000000000000000000000000442fea455f30c3f131bd16bbb3a78603cb6a4dd4"
          ],
          "data": "0x000000000000000000000000000000000000000000000000000000000000008000000000000000000000000000000000000000000000000000000000000000c0000000000000000000000000000000000000000000000000000000000007a1200000000000000000000000003b4f0135465d444a5bd06ab90fc59b73916c85f5000000000000000000000000000000000000000000000000000000000000000a4d6f636b546f6b656e420000000000000000000000000000000000000000000000000000000000000000000000000000000000000000000000000000000000034d4b420000000000000000000000000000000000000000000000000000000000",
          "blockHash": "0xa028c842fb437241242b5ad2e1fd4cb107558de59b44263fcac42856ad690390",
          "blockNumber": "0x157d6ec",
          "transactionHash": "0xe69dc34c1357a1e2692906d4790add6d5cfe07aa4b6da3478e7a720aaa4d4d3e",
          "transactionIndex": "0x3",
          "logIndex": "0x7",
          "removed": false
        }
      ],
      "logsBloom": "0x10000000080000000000000000000000000000000000000000800020000000008000040000000000000000000000000000000000000000000000000000400000000000000000000000000008000000000001000000000001000000000000000000000000020000000000000000000800000000000000000000000010000000400000000000000000000000000000000000000000000000000000000000000000000000000000000000020000000000000000000000000000000410000800000000000102000000000000000000000000000000000000000004002000000020000000000000000000000000000000000000000000100000000000000000000000",
      "type": "0x2",
      "transactionHash": "0xe69dc34c1357a1e2692906d4790add6d5cfe07aa4b6da3478e7a720aaa4d4d3e",
      "transactionIndex": "0x3",
      "blockHash": "0xa028c842fb437241242b5ad2e1fd4cb107558de59b44263fcac42856ad690390",
      "blockNumber": "0x157d6ec",
      "gasUsed": "0xbb481",
      "effectiveGasPrice": "0x3b9aca01",
      "from": "0x3b4f0135465d444a5bd06ab90fc59b73916c85f5",
      "to": "0x3fb5f25f22ddd805094a77c06073b78a6d70b6ca",
      "contractAddress": null
    },
    {
      "status": "0x1",
      "cumulativeGasUsed": "0x18dc9d",
      "logs": [
        {
          "address": "0x442fea455f30c3f131bd16bbb3a78603cb6a4dd4",
          "topics": [
            "0x66cbca4f3c64fecf1dcb9ce094abcf7f68c3450a1d4e3a8e917dd621edb4ebe0"
          ],
          "data": "0x0000000000000000000000000000000000000000000000000de0b6b3a7640000",
          "blockHash": "0xa028c842fb437241242b5ad2e1fd4cb107558de59b44263fcac42856ad690390",
          "blockNumber": "0x157d6ec",
          "transactionHash": "0xa44c544b169475c48ee546c103cfffe9cfbbf3b1ca1750390c07e920e0e4bf32",
          "transactionIndex": "0x4",
          "logIndex": "0x8",
          "removed": false
        }
      ],
      "logsBloom": "0x00000000080000000000000000000000000000000000000000000000000000000000000000000000000000000000000000000000000000000000000000000000000000000000000000000000000000000000000000000000000000000000000000000000000000000000000000000000000000000400000000000000000000000000000000000000000000000000000000000000000000000000000000000000000000000000000000020000000000000000000000000000000000000800000000000000000000000000000000000000000000000000000000000000002000000000000000000000000000000000000000000000000000000000000000000100",
      "type": "0x2",
      "transactionHash": "0xa44c544b169475c48ee546c103cfffe9cfbbf3b1ca1750390c07e920e0e4bf32",
      "transactionIndex": "0x4",
      "blockHash": "0xa028c842fb437241242b5ad2e1fd4cb107558de59b44263fcac42856ad690390",
      "blockNumber": "0x157d6ec",
      "gasUsed": "0x7675",
      "effectiveGasPrice": "0x3b9aca01",
      "from": "0x3b4f0135465d444a5bd06ab90fc59b73916c85f5",
      "to": "0x442fea455f30c3f131bd16bbb3a78603cb6a4dd4",
      "contractAddress": null
    },
    {
      "status": "0x1",
      "cumulativeGasUsed": "0x194c98",
      "logs": [
        {
          "address": "0x442fea455f30c3f131bd16bbb3a78603cb6a4dd4",
          "topics": [
            "0xf136596ab9e7acfd9d9cf6a0893ed79cc46ceab0c99ff3cb62c560645dad4658"
          ],
          "data": "0x00000000000000000000000000000000000000000000000000000000000186a0",
          "blockHash": "0xa028c842fb437241242b5ad2e1fd4cb107558de59b44263fcac42856ad690390",
          "blockNumber": "0x157d6ec",
          "transactionHash": "0x32f28868ef24981a66f0779dd261fcb71c7bcf8af5f20ed5247631c781f4b324",
          "transactionIndex": "0x5",
          "logIndex": "0x9",
          "removed": false
        }
      ],
      "logsBloom": "0x00000000080000000000000000000000000000000000000000000000000000000000000000000000000000000000000000000000000000000000000000000000000000000000000000000000000000000000000000000000000000000000000000000000000000000080000000000002000000000000000000000000000000000000000000000000000000000000000000000000000000000000000000000000000000000000000000020000000000000000000000000000000000002800000000000000000000000000000000000000000000000000000000000000000000000000000000000000000000000000000000000000000000000000000000000000",
      "type": "0x2",
      "transactionHash": "0x32f28868ef24981a66f0779dd261fcb71c7bcf8af5f20ed5247631c781f4b324",
      "transactionIndex": "0x5",
      "blockHash": "0xa028c842fb437241242b5ad2e1fd4cb107558de59b44263fcac42856ad690390",
      "blockNumber": "0x157d6ec",
      "gasUsed": "0x6ffb",
      "effectiveGasPrice": "0x3b9aca01",
      "from": "0x3b4f0135465d444a5bd06ab90fc59b73916c85f5",
      "to": "0x442fea455f30c3f131bd16bbb3a78603cb6a4dd4",
      "contractAddress": null
    },
    {
      "status": "0x1",
      "cumulativeGasUsed": "0x250119",
      "logs": [
        {
          "address": "0xd7e6b81151a158cfad61912e449060882815fb69",
          "topics": [
            "0x8be0079c531659141344cd1fd0a4f28419497f9722a3daafe3b4186f6b6457e0",
            "0x0000000000000000000000000000000000000000000000000000000000000000",
            "0x0000000000000000000000003b4f0135465d444a5bd06ab90fc59b73916c85f5"
          ],
          "data": "0x",
          "blockHash": "0xa028c842fb437241242b5ad2e1fd4cb107558de59b44263fcac42856ad690390",
          "blockNumber": "0x157d6ec",
          "transactionHash": "0xaabe2f41bc4396dc5aae2d3fe9943e116ccb0ed0efec1544df3a10d64235b8d1",
          "transactionIndex": "0x6",
          "logIndex": "0xa",
          "removed": false
        },
        {
          "address": "0xd7e6b81151a158cfad61912e449060882815fb69",
          "topics": [
            "0xddf252ad1be2c89b69c2b068fc378daa952ba7f163c4a11628f55a4df523b3ef",
            "0x0000000000000000000000000000000000000000000000000000000000000000",
            "0x0000000000000000000000003b4f0135465d444a5bd06ab90fc59b73916c85f5"
          ],
          "data": "0x00000000000000000000000000000000000000000001a784379d99db42000000",
          "blockHash": "0xa028c842fb437241242b5ad2e1fd4cb107558de59b44263fcac42856ad690390",
          "blockNumber": "0x157d6ec",
          "transactionHash": "0xaabe2f41bc4396dc5aae2d3fe9943e116ccb0ed0efec1544df3a10d64235b8d1",
          "transactionIndex": "0x6",
          "logIndex": "0xb",
          "removed": false
        },
        {
          "address": "0x3fb5f25f22ddd805094a77c06073b78a6d70b6ca",
          "topics": [
            "0xb7d8fd3c9d56d12c15c8e139bc4e6febd6ad2349b3ebe6a1a91c0a9e7797710d",
            "0x000000000000000000000000d7e6b81151a158cfad61912e449060882815fb69"
          ],
          "data": "0x000000000000000000000000000000000000000000000000000000000000008000000000000000000000000000000000000000000000000000000000000000c000000000000000000000000000000000000000000000000000000000001e84800000000000000000000000003b4f0135465d444a5bd06ab90fc59b73916c85f5000000000000000000000000000000000000000000000000000000000000000a4d6f636b546f6b656e430000000000000000000000000000000000000000000000000000000000000000000000000000000000000000000000000000000000034d4b430000000000000000000000000000000000000000000000000000000000",
          "blockHash": "0xa028c842fb437241242b5ad2e1fd4cb107558de59b44263fcac42856ad690390",
          "blockNumber": "0x157d6ec",
          "transactionHash": "0xaabe2f41bc4396dc5aae2d3fe9943e116ccb0ed0efec1544df3a10d64235b8d1",
          "transactionIndex": "0x6",
          "logIndex": "0xc",
          "removed": false
        }
      ],
      "logsBloom": "0x00000000000000000000000000000000000000000000000000800020000000008000040000000000000000000400000000000000000004000000000000400000000040000000000000000008000000000001000000000001001000000000000000000000020100000000000000000800000000000000000000000010000000400000000000000000000000000000000000000000000000000000000000000000000000000000000000000000000000000000000000000000000010000000000000000102000000000000000000000000000000000000000004002000000020000000000000000040000000000000000000000000000000000000000000000000",
      "type": "0x2",
      "transactionHash": "0xaabe2f41bc4396dc5aae2d3fe9943e116ccb0ed0efec1544df3a10d64235b8d1",
      "transactionIndex": "0x6",
      "blockHash": "0xa028c842fb437241242b5ad2e1fd4cb107558de59b44263fcac42856ad690390",
      "blockNumber": "0x157d6ec",
      "gasUsed": "0xbb481",
      "effectiveGasPrice": "0x3b9aca01",
      "from": "0x3b4f0135465d444a5bd06ab90fc59b73916c85f5",
      "to": "0x3fb5f25f22ddd805094a77c06073b78a6d70b6ca",
      "contractAddress": null
    },
    {
      "status": "0x1",
      "cumulativeGasUsed": "0x258e44",
      "logs": [
        {
          "address": "0xd7e6b81151a158cfad61912e449060882815fb69",
          "topics": [
            "0x66cbca4f3c64fecf1dcb9ce094abcf7f68c3450a1d4e3a8e917dd621edb4ebe0"
          ],
          "data": "0x00000000000000000000000000000000000000000000000003782dace9d90000",
          "blockHash": "0xa028c842fb437241242b5ad2e1fd4cb107558de59b44263fcac42856ad690390",
          "blockNumber": "0x157d6ec",
          "transactionHash": "0x87905b2d090cc2e23b2e866a772e9d78418b0735249b4f7e003000b15f932438",
          "transactionIndex": "0x7",
          "logIndex": "0xd",
          "removed": false
        }
      ],
      "logsBloom": "0x00000000000000000000000000000000000000000000000000000000000000000000000000000000000000000000000000000000000000000000000000000000000040000000000000000000000000000000000000000000001000000000000000000000000100000000000000000000000000000400000000000000000000000000000000000000000000000000000000000000000000000000000000000000000000000000000000000000000000000000000000000000000000000000000000000000000000000000000000000000000000000000000000000000002000000000000000000000000000000000000000000000000000000000000000000100",
      "type": "0x2",
      "transactionHash": "0x87905b2d090cc2e23b2e866a772e9d78418b0735249b4f7e003000b15f932438",
      "transactionIndex": "0x7",
      "blockHash": "0xa028c842fb437241242b5ad2e1fd4cb107558de59b44263fcac42856ad690390",
      "blockNumber": "0x157d6ec",
      "gasUsed": "0x8d2b",
      "effectiveGasPrice": "0x3b9aca01",
      "from": "0x3b4f0135465d444a5bd06ab90fc59b73916c85f5",
      "to": "0xd7e6b81151a158cfad61912e449060882815fb69",
      "contractAddress": null
    },
    {
      "status": "0x1",
      "cumulativeGasUsed": "0xc203",
      "logs": [
        {
          "address": "0xd7e6b81151a158cfad61912e449060882815fb69",
          "topics": [
            "0xf136596ab9e7acfd9d9cf6a0893ed79cc46ceab0c99ff3cb62c560645dad4658"
          ],
          "data": "0x000000000000000000000000000000000000000000000000000000000007a120",
          "blockHash": "0x3490e850920d73ebaea1da6ef4f7176a82cda78dbe579aa0090548186b165a2c",
          "blockNumber": "0x157d6ef",
          "transactionHash": "0x10ccca2dff305bf2ee0e76806269b54843222114aed4b3bbc68b65ef295dfde0",
          "transactionIndex": "0x1",
          "logIndex": "0x0",
          "removed": false
        }
      ],
      "logsBloom": "0x00000000000000000000000000000000000000000000000000000000000000000000000000000000000000000000000000000000000000000000000000000000000040000000000000000000000000000000000000000000001000000000000000000000000100000080000000000002000000000000000000000000000000000000000000000000000000000000000000000000000000000000000000000000000000000000000000000000000000000000000000000000000000002000000000000000000000000000000000000000000000000000000000000000000000000000000000000000000000000000000000000000000000000000000000000000",
      "type": "0x2",
      "transactionHash": "0x10ccca2dff305bf2ee0e76806269b54843222114aed4b3bbc68b65ef295dfde0",
      "transactionIndex": "0x1",
      "blockHash": "0x3490e850920d73ebaea1da6ef4f7176a82cda78dbe579aa0090548186b165a2c",
      "blockNumber": "0x157d6ef",
      "gasUsed": "0x6ffb",
      "effectiveGasPrice": "0x3b9aca01",
      "from": "0x3b4f0135465d444a5bd06ab90fc59b73916c85f5",
      "to": "0xd7e6b81151a158cfad61912e449060882815fb69",
      "contractAddress": null
    }
  ],
  "libraries": [],
  "pending": [],
  "returns": {},
  "timestamp": 1740337037,
  "chain": 57054,
  "commit": "f079722"
}